{
  "contracts/DecentraBank.sol": {
    "DecentraBank": {
      "abi": [
        {
          "inputs": [
            {
              "internalType": "address",
              "name": "_Dcore",
              "type": "address"
            },
            {
              "internalType": "address",
              "name": "_Dstock",
              "type": "address"
            },
            {
              "internalType": "address",
              "name": "_Ddollar",
              "type": "address"
            },
            {
              "internalType": "uint32",
              "name": "_connectorWeight",
              "type": "uint32"
            },
            {
              "internalType": "uint256",
              "name": "_refundRatio",
              "type": "uint256"
            }
          ],
          "stateMutability": "payable",
          "type": "constructor"
        },
        {
          "anonymous": false,
          "inputs": [
            {
              "indexed": false,
              "internalType": "uint256",
              "name": "dollarAmount",
              "type": "uint256"
            },
            {
              "indexed": false,
              "internalType": "address",
              "name": "tokenType",
              "type": "address"
            }
          ],
          "name": "FundWithdrawl",
          "type": "event"
        },
        {
          "anonymous": false,
          "inputs": [
            {
              "indexed": false,
              "internalType": "address",
              "name": "collateral",
              "type": "address"
            }
          ],
          "name": "NewCollateral",
          "type": "event"
        },
        {
          "anonymous": false,
          "inputs": [
            {
              "indexed": true,
              "internalType": "address",
              "name": "previousOwner",
              "type": "address"
            },
            {
              "indexed": true,
              "internalType": "address",
              "name": "newOwner",
              "type": "address"
            }
          ],
          "name": "OwnershipTransferred",
          "type": "event"
        },
        {
          "anonymous": false,
          "inputs": [
            {
              "indexed": false,
              "internalType": "uint256",
              "name": "dollarAmount",
              "type": "uint256"
            },
            {
              "indexed": false,
              "internalType": "uint256",
              "name": "stockAmount",
              "type": "uint256"
            },
            {
              "indexed": false,
              "internalType": "address",
              "name": "buyer",
              "type": "address"
            }
          ],
          "name": "StockPurchased",
          "type": "event"
        },
        {
          "anonymous": false,
          "inputs": [
            {
              "indexed": false,
              "internalType": "uint256",
              "name": "dollarAmount",
              "type": "uint256"
            },
            {
              "indexed": false,
              "internalType": "uint256",
              "name": "stockAmount",
              "type": "uint256"
            },
            {
              "indexed": false,
              "internalType": "uint256",
              "name": "reserveAmountAdded",
              "type": "uint256"
            },
            {
              "indexed": false,
              "internalType": "address",
              "name": "seller",
              "type": "address"
            }
          ],
          "name": "StockSold",
          "type": "event"
        },
        {
          "inputs": [],
          "name": "DC",
          "outputs": [
            {
              "internalType": "contract IDecentraCore",
              "name": "",
              "type": "address"
            }
          ],
          "stateMutability": "view",
          "type": "function"
        },
        {
          "inputs": [],
          "name": "DD",
          "outputs": [
            {
              "internalType": "contract IDecentraDollar",
              "name": "",
              "type": "address"
            }
          ],
          "stateMutability": "view",
          "type": "function"
        },
        {
          "inputs": [],
          "name": "DS",
          "outputs": [
            {
              "internalType": "contract IDecentraStock",
              "name": "",
              "type": "address"
            }
          ],
          "stateMutability": "view",
          "type": "function"
        },
        {
          "inputs": [],
          "name": "MAX_WEIGHT",
          "outputs": [
            {
              "internalType": "uint32",
              "name": "",
              "type": "uint32"
            }
          ],
          "stateMutability": "view",
          "type": "function"
        },
        {
          "inputs": [
            {
              "internalType": "address",
              "name": "_collateral",
              "type": "address"
            }
          ],
          "name": "addNewCollateralType",
          "outputs": [],
          "stateMutability": "nonpayable",
          "type": "function"
        },
        {
          "inputs": [],
          "name": "calculatePoolBal",
          "outputs": [
            {
              "internalType": "uint256",
              "name": "",
              "type": "uint256"
            }
          ],
          "stateMutability": "view",
          "type": "function"
        },
        {
          "inputs": [
            {
              "internalType": "uint256",
              "name": "_dollarAmount",
              "type": "uint256"
            }
          ],
          "name": "calculatePurchase",
          "outputs": [
            {
              "internalType": "uint256",
              "name": "",
              "type": "uint256"
            }
          ],
          "stateMutability": "view",
          "type": "function"
        },
        {
          "inputs": [
            {
              "internalType": "uint256",
              "name": "_supply",
              "type": "uint256"
            },
            {
              "internalType": "uint256",
              "name": "_connectorBalance",
              "type": "uint256"
            },
            {
              "internalType": "uint32",
              "name": "_connectorWeight",
              "type": "uint32"
            },
            {
              "internalType": "uint256",
              "name": "_depositAmount",
              "type": "uint256"
            }
          ],
          "name": "calculatePurchaseReturn",
          "outputs": [
            {
              "internalType": "uint256",
              "name": "",
              "type": "uint256"
            }
          ],
          "stateMutability": "view",
          "type": "function"
        },
        {
          "inputs": [
            {
              "internalType": "uint256",
              "name": "_stockAmount",
              "type": "uint256"
            }
          ],
          "name": "calculateSale",
          "outputs": [
            {
              "internalType": "uint256",
              "name": "",
              "type": "uint256"
            }
          ],
          "stateMutability": "view",
          "type": "function"
        },
        {
          "inputs": [
            {
              "internalType": "uint256",
              "name": "_supply",
              "type": "uint256"
            },
            {
              "internalType": "uint256",
              "name": "_connectorBalance",
              "type": "uint256"
            },
            {
              "internalType": "uint32",
              "name": "_connectorWeight",
              "type": "uint32"
            },
            {
              "internalType": "uint256",
              "name": "_sellAmount",
              "type": "uint256"
            }
          ],
          "name": "calculateSaleReturn",
          "outputs": [
            {
              "internalType": "uint256",
              "name": "",
              "type": "uint256"
            }
          ],
          "stateMutability": "view",
          "type": "function"
        },
        {
          "inputs": [],
          "name": "collateralCount",
          "outputs": [
            {
              "internalType": "uint256",
              "name": "",
              "type": "uint256"
            }
          ],
          "stateMutability": "view",
          "type": "function"
        },
        {
          "inputs": [
            {
              "internalType": "uint256",
              "name": "",
              "type": "uint256"
            }
          ],
          "name": "collateralTypes",
          "outputs": [
            {
              "internalType": "address",
              "name": "",
              "type": "address"
            }
          ],
          "stateMutability": "view",
          "type": "function"
        },
        {
          "inputs": [],
          "name": "connectorWeight",
          "outputs": [
            {
              "internalType": "uint32",
              "name": "",
              "type": "uint32"
            }
          ],
          "stateMutability": "view",
          "type": "function"
        },
        {
          "inputs": [],
          "name": "divisor",
          "outputs": [
            {
              "internalType": "uint256",
              "name": "",
              "type": "uint256"
            }
          ],
          "stateMutability": "view",
          "type": "function"
        },
        {
          "inputs": [],
          "name": "fractionalReserveValue",
          "outputs": [
            {
              "internalType": "uint256",
              "name": "",
              "type": "uint256"
            }
          ],
          "stateMutability": "view",
          "type": "function"
        },
        {
          "inputs": [
            {
              "internalType": "address",
              "name": "_to",
              "type": "address"
            },
            {
              "internalType": "uint256",
              "name": "_type",
              "type": "uint256"
            },
            {
              "internalType": "uint256",
              "name": "_amount",
              "type": "uint256"
            }
          ],
          "name": "fundWithdrawl",
          "outputs": [],
          "stateMutability": "nonpayable",
          "type": "function"
        },
        {
          "inputs": [],
          "name": "lockedBalance",
          "outputs": [
            {
              "internalType": "uint256",
              "name": "",
              "type": "uint256"
            }
          ],
          "stateMutability": "view",
          "type": "function"
        },
        {
          "inputs": [],
          "name": "owner",
          "outputs": [
            {
              "internalType": "address",
              "name": "",
              "type": "address"
            }
          ],
          "stateMutability": "view",
          "type": "function"
        },
        {
          "inputs": [],
          "name": "percent",
          "outputs": [
            {
              "internalType": "uint256",
              "name": "",
              "type": "uint256"
            }
          ],
          "stateMutability": "view",
          "type": "function"
        },
        {
          "inputs": [
            {
              "internalType": "uint256",
              "name": "_amount",
              "type": "uint256"
            },
            {
              "internalType": "uint256",
              "name": "_tokenType",
              "type": "uint256"
            }
          ],
          "name": "purchaseStock",
          "outputs": [],
          "stateMutability": "payable",
          "type": "function"
        },
        {
          "inputs": [],
          "name": "refundRatio",
          "outputs": [
            {
              "internalType": "uint256",
              "name": "",
              "type": "uint256"
            }
          ],
          "stateMutability": "view",
          "type": "function"
        },
        {
          "inputs": [],
          "name": "renounceOwnership",
          "outputs": [],
          "stateMutability": "nonpayable",
          "type": "function"
        },
        {
          "inputs": [
            {
              "internalType": "uint256",
              "name": "_amount",
              "type": "uint256"
            }
          ],
          "name": "sellStock",
          "outputs": [],
          "stateMutability": "nonpayable",
          "type": "function"
        },
        {
          "inputs": [
            {
              "internalType": "address",
              "name": "newOwner",
              "type": "address"
            }
          ],
          "name": "transferOwnership",
          "outputs": [],
          "stateMutability": "nonpayable",
          "type": "function"
        },
        {
          "inputs": [],
          "name": "version",
          "outputs": [
            {
              "internalType": "string",
              "name": "",
              "type": "string"
            }
          ],
          "stateMutability": "view",
          "type": "function"
        }
      ],
      "evm": {
        "bytecode": {
          "linkReferences": {},
          "object": "60806040526040518060400160405280600381526020017f302e33000000000000000000000000000000000000000000000000000000000081525060019080519060200190620000519291906200468e565b5060405162008b0638038062008b06833981810160405281019062000077919062004783565b600062000089620023db60201b60201c565b9050806000806101000a81548173ffffffffffffffffffffffffffffffffffffffff021916908373ffffffffffffffffffffffffffffffffffffffff1602179055508073ffffffffffffffffffffffffffffffffffffffff16600073ffffffffffffffffffffffffffffffffffffffff167f8be0079c531659141344cd1fd0a4f28419497f9722a3daafe3b4186f6b6457e060405160405180910390a350701c35fedd14ffffffffffffffffffffffff600260206080811062000175577f4e487b7100000000000000000000000000000000000000000000000000000000600052603260045260246000fd5b0181905550701b0ce43b323fffffffffffffffffffffff6002602160808110620001c8577f4e487b7100000000000000000000000000000000000000000000000000000000600052603260045260246000fd5b01819055507019f0028ec1ffffffffffffffffffffffff60026022608081106200021b577f4e487b7100000000000000000000000000000000000000000000000000000000600052603260045260246000fd5b01819055507018ded91f0e7fffffffffffffffffffffff60026023608081106200026e577f4e487b7100000000000000000000000000000000000000000000000000000000600052603260045260246000fd5b01819055507017d8ec7f0417ffffffffffffffffffffff6002602460808110620002c1577f4e487b7100000000000000000000000000000000000000000000000000000000600052603260045260246000fd5b01819055507016ddc6556cdbffffffffffffffffffffff600260256080811062000314577f4e487b7100000000000000000000000000000000000000000000000000000000600052603260045260246000fd5b01819055507015ecf52776a1ffffffffffffffffffffff600260266080811062000367577f4e487b7100000000000000000000000000000000000000000000000000000000600052603260045260246000fd5b01819055507015060c256cb2ffffffffffffffffffffff6002602760808110620003ba577f4e487b7100000000000000000000000000000000000000000000000000000000600052603260045260246000fd5b0181905550701428a2f98d72ffffffffffffffffffffff60026028608081106200040d577f4e487b7100000000000000000000000000000000000000000000000000000000600052603260045260246000fd5b01819055507013545598e5c23fffffffffffffffffffff600260296080811062000460577f4e487b7100000000000000000000000000000000000000000000000000000000600052603260045260246000fd5b0181905550701288c4161ce1dfffffffffffffffffffff6002602a60808110620004b3577f4e487b7100000000000000000000000000000000000000000000000000000000600052603260045260246000fd5b01819055507011c592761c666fffffffffffffffffffff6002602b6080811062000506577f4e487b7100000000000000000000000000000000000000000000000000000000600052603260045260246000fd5b018190555070110a688680a757ffffffffffffffffffff6002602c6080811062000559577f4e487b7100000000000000000000000000000000000000000000000000000000600052603260045260246000fd5b0181905550701056f1b5bedf77ffffffffffffffffffff6002602d60808110620005ac577f4e487b7100000000000000000000000000000000000000000000000000000000600052603260045260246000fd5b0181905550700faadceceeff8bffffffffffffffffffff6002602e60808110620005ff577f4e487b7100000000000000000000000000000000000000000000000000000000600052603260045260246000fd5b0181905550700f05dc6b27edadffffffffffffffffffff6002602f6080811062000652577f4e487b7100000000000000000000000000000000000000000000000000000000600052603260045260246000fd5b0181905550700e67a5a25da4107fffffffffffffffffff6002603060808110620006a5577f4e487b7100000000000000000000000000000000000000000000000000000000600052603260045260246000fd5b0181905550700dcff115b14eedffffffffffffffffffff6002603160808110620006f8577f4e487b7100000000000000000000000000000000000000000000000000000000600052603260045260246000fd5b0181905550700d3e7a392431239fffffffffffffffffff60026032608081106200074b577f4e487b7100000000000000000000000000000000000000000000000000000000600052603260045260246000fd5b0181905550700cb2ff529eb71e4fffffffffffffffffff60026033608081106200079e577f4e487b7100000000000000000000000000000000000000000000000000000000600052603260045260246000fd5b0181905550700c2d415c3db974afffffffffffffffffff6002603460808110620007f1577f4e487b7100000000000000000000000000000000000000000000000000000000600052603260045260246000fd5b0181905550700bad03e7d883f69bffffffffffffffffff600260356080811062000844577f4e487b7100000000000000000000000000000000000000000000000000000000600052603260045260246000fd5b0181905550700b320d03b2c343d5ffffffffffffffffff600260366080811062000897577f4e487b7100000000000000000000000000000000000000000000000000000000600052603260045260246000fd5b0181905550700abc25204e02828dffffffffffffffffff6002603760808110620008ea577f4e487b7100000000000000000000000000000000000000000000000000000000600052603260045260246000fd5b0181905550700a4b16f74ee4bb207fffffffffffffffff60026038608081106200093d577f4e487b7100000000000000000000000000000000000000000000000000000000600052603260045260246000fd5b01819055507009deaf736ac1f569ffffffffffffffffff600260396080811062000990577f4e487b7100000000000000000000000000000000000000000000000000000000600052603260045260246000fd5b0181905550700976bd9952c7aa957fffffffffffffffff6002603a60808110620009e3577f4e487b7100000000000000000000000000000000000000000000000000000000600052603260045260246000fd5b01819055507009131271922eaa606fffffffffffffffff6002603b6080811062000a36577f4e487b7100000000000000000000000000000000000000000000000000000000600052603260045260246000fd5b01819055507008b380f3558668c46fffffffffffffffff6002603c6080811062000a89577f4e487b7100000000000000000000000000000000000000000000000000000000600052603260045260246000fd5b0181905550700857ddf0117efa215bffffffffffffffff6002603d6080811062000adc577f4e487b7100000000000000000000000000000000000000000000000000000000600052603260045260246000fd5b01819055507007ffffffffffffffffffffffffffffffff6002603e6080811062000b2f577f4e487b7100000000000000000000000000000000000000000000000000000000600052603260045260246000fd5b01819055507007abbf6f6abb9d087fffffffffffffffff6002603f6080811062000b82577f4e487b7100000000000000000000000000000000000000000000000000000000600052603260045260246000fd5b018190555070075af62cbac95f7dfa7fffffffffffffff600260406080811062000bd5577f4e487b7100000000000000000000000000000000000000000000000000000000600052603260045260246000fd5b018190555070070d7fb7452e187ac13fffffffffffffff600260416080811062000c28577f4e487b7100000000000000000000000000000000000000000000000000000000600052603260045260246000fd5b01819055507006c3390ecc8af379295fffffffffffffff600260426080811062000c7b577f4e487b7100000000000000000000000000000000000000000000000000000000600052603260045260246000fd5b018190555070067c00a3b07ffc01fd6fffffffffffffff600260436080811062000cce577f4e487b7100000000000000000000000000000000000000000000000000000000600052603260045260246000fd5b0181905550700637b647c39cbb9d3d27ffffffffffffff600260446080811062000d21577f4e487b7100000000000000000000000000000000000000000000000000000000600052603260045260246000fd5b01819055507005f63b1fc104dbd39587ffffffffffffff600260456080811062000d74577f4e487b7100000000000000000000000000000000000000000000000000000000600052603260045260246000fd5b01819055507005b771955b36e12f7235ffffffffffffff600260466080811062000dc7577f4e487b7100000000000000000000000000000000000000000000000000000000600052603260045260246000fd5b018190555070057b3d49dda84556d6f6ffffffffffffff600260476080811062000e1a577f4e487b7100000000000000000000000000000000000000000000000000000000600052603260045260246000fd5b018190555070054183095b2c8ececf30ffffffffffffff600260486080811062000e6d577f4e487b7100000000000000000000000000000000000000000000000000000000600052603260045260246000fd5b018190555070050a28be635ca2b888f77fffffffffffff600260496080811062000ec0577f4e487b7100000000000000000000000000000000000000000000000000000000600052603260045260246000fd5b01819055507004d5156639708c9db33c3fffffffffffff6002604a6080811062000f13577f4e487b7100000000000000000000000000000000000000000000000000000000600052603260045260246000fd5b01819055507004a23105873875bd52dfdfffffffffffff6002604b6080811062000f66577f4e487b7100000000000000000000000000000000000000000000000000000000600052603260045260246000fd5b0181905550700471649d87199aa990756fffffffffffff6002604c6080811062000fb9577f4e487b7100000000000000000000000000000000000000000000000000000000600052603260045260246000fd5b01819055507004429a21a029d4c1457cfbffffffffffff6002604d608081106200100c577f4e487b7100000000000000000000000000000000000000000000000000000000600052603260045260246000fd5b0181905550700415bc6d6fb7dd71af2cb3ffffffffffff6002604e608081106200105f577f4e487b7100000000000000000000000000000000000000000000000000000000600052603260045260246000fd5b01819055507003eab73b3bbfe282243ce1ffffffffffff6002604f60808110620010b2577f4e487b7100000000000000000000000000000000000000000000000000000000600052603260045260246000fd5b01819055507003c1771ac9fb6b4c18e229ffffffffffff600260506080811062001105577f4e487b7100000000000000000000000000000000000000000000000000000000600052603260045260246000fd5b0181905550700399e96897690418f785257fffffffffff600260516080811062001158577f4e487b7100000000000000000000000000000000000000000000000000000000600052603260045260246000fd5b0181905550700373fc456c53bb779bf0ea9fffffffffff6002605260808110620011ab577f4e487b7100000000000000000000000000000000000000000000000000000000600052603260045260246000fd5b018190555070034f9e8e490c48e67e6ab8bfffffffffff6002605360808110620011fe577f4e487b7100000000000000000000000000000000000000000000000000000000600052603260045260246000fd5b018190555070032cbfd4a7adc790560b3337ffffffffff600260546080811062001251577f4e487b7100000000000000000000000000000000000000000000000000000000600052603260045260246000fd5b018190555070030b50570f6e5d2acca94613ffffffffff6002605560808110620012a4577f4e487b7100000000000000000000000000000000000000000000000000000000600052603260045260246000fd5b01819055507002eb40f9f620fda6b56c2861ffffffffff6002605660808110620012f7577f4e487b7100000000000000000000000000000000000000000000000000000000600052603260045260246000fd5b01819055507002cc8340ecb0d0f520a6af58ffffffffff60026057608081106200134a577f4e487b7100000000000000000000000000000000000000000000000000000000600052603260045260246000fd5b01819055507002af09481380a0a35cf1ba02ffffffffff60026058608081106200139d577f4e487b7100000000000000000000000000000000000000000000000000000000600052603260045260246000fd5b0181905550700292c5bdd3b92ec810287b1b3fffffffff6002605960808110620013f0577f4e487b7100000000000000000000000000000000000000000000000000000000600052603260045260246000fd5b0181905550700277abdcdab07d5a77ac6d6b9fffffffff6002605a6080811062001443577f4e487b7100000000000000000000000000000000000000000000000000000000600052603260045260246000fd5b018190555070025daf6654b1eaa55fd64df5efffffffff6002605b6080811062001496577f4e487b7100000000000000000000000000000000000000000000000000000000600052603260045260246000fd5b0181905550700244c49c648baa98192dce88b7ffffffff6002605c60808110620014e9577f4e487b7100000000000000000000000000000000000000000000000000000000600052603260045260246000fd5b018190555070022ce03cd5619a311b2471268bffffffff6002605d608081106200153c577f4e487b7100000000000000000000000000000000000000000000000000000000600052603260045260246000fd5b0181905550700215f77c045fbe885654a44a0fffffffff6002605e608081106200158f577f4e487b7100000000000000000000000000000000000000000000000000000000600052603260045260246000fd5b01819055507001ffffffffffffffffffffffffffffffff6002605f60808110620015e2577f4e487b7100000000000000000000000000000000000000000000000000000000600052603260045260246000fd5b01819055507001eaefdbdaaee7421fc4d3ede5ffffffff600260606080811062001635577f4e487b7100000000000000000000000000000000000000000000000000000000600052603260045260246000fd5b01819055507001d6bd8b2eb257df7e8ca57b09bfffffff600260616080811062001688577f4e487b7100000000000000000000000000000000000000000000000000000000600052603260045260246000fd5b01819055507001c35fedd14b861eb0443f7f133fffffff6002606260808110620016db577f4e487b7100000000000000000000000000000000000000000000000000000000600052603260045260246000fd5b01819055507001b0ce43b322bcde4a56e8ada5afffffff60026063608081106200172e577f4e487b7100000000000000000000000000000000000000000000000000000000600052603260045260246000fd5b018190555070019f0028ec1fff007f5a195a39dfffffff600260646080811062001781577f4e487b7100000000000000000000000000000000000000000000000000000000600052603260045260246000fd5b018190555070018ded91f0e72ee74f49b15ba527ffffff6002606560808110620017d4577f4e487b7100000000000000000000000000000000000000000000000000000000600052603260045260246000fd5b018190555070017d8ec7f04136f4e5615fd41a63ffffff600260666080811062001827577f4e487b7100000000000000000000000000000000000000000000000000000000600052603260045260246000fd5b018190555070016ddc6556cdb84bdc8d12d22e6fffffff60026067608081106200187a577f4e487b7100000000000000000000000000000000000000000000000000000000600052603260045260246000fd5b018190555070015ecf52776a1155b5bd8395814f7fffff6002606860808110620018cd577f4e487b7100000000000000000000000000000000000000000000000000000000600052603260045260246000fd5b018190555070015060c256cb23b3b3cc3754cf40ffffff600260696080811062001920577f4e487b7100000000000000000000000000000000000000000000000000000000600052603260045260246000fd5b01819055507001428a2f98d728ae223ddab715be3fffff6002606a6080811062001973577f4e487b7100000000000000000000000000000000000000000000000000000000600052603260045260246000fd5b018190555070013545598e5c23276ccf0ede68034fffff6002606b60808110620019c6577f4e487b7100000000000000000000000000000000000000000000000000000000600052603260045260246000fd5b01819055507001288c4161ce1d6f54b7f61081194fffff6002606c6080811062001a19577f4e487b7100000000000000000000000000000000000000000000000000000000600052603260045260246000fd5b018190555070011c592761c666aa641d5a01a40f17ffff6002606d6080811062001a6c577f4e487b7100000000000000000000000000000000000000000000000000000000600052603260045260246000fd5b0181905550700110a688680a7530515f3e6e6cfdcdffff6002606e6080811062001abf577f4e487b7100000000000000000000000000000000000000000000000000000000600052603260045260246000fd5b01819055507001056f1b5bedf75c6bcb2ce8aed428ffff6002606f6080811062001b12577f4e487b7100000000000000000000000000000000000000000000000000000000600052603260045260246000fd5b01819055506ffaadceceeff8a0890f3875f008277fff600260706080811062001b64577f4e487b7100000000000000000000000000000000000000000000000000000000600052603260045260246000fd5b01819055506ff05dc6b27edad306388a600f6ba0bfff600260716080811062001bb6577f4e487b7100000000000000000000000000000000000000000000000000000000600052603260045260246000fd5b01819055506fe67a5a25da41063de1495d5b18cdbfff600260726080811062001c08577f4e487b7100000000000000000000000000000000000000000000000000000000600052603260045260246000fd5b01819055506fdcff115b14eedde6fc3aa5353f2e4fff600260736080811062001c5a577f4e487b7100000000000000000000000000000000000000000000000000000000600052603260045260246000fd5b01819055506fd3e7a3924312399f9aae2e0f868f8fff600260746080811062001cac577f4e487b7100000000000000000000000000000000000000000000000000000000600052603260045260246000fd5b01819055506fcb2ff529eb71e41582cccd5a1ee26fff600260756080811062001cfe577f4e487b7100000000000000000000000000000000000000000000000000000000600052603260045260246000fd5b01819055506fc2d415c3db974ab32a51840c0b67edff600260766080811062001d50577f4e487b7100000000000000000000000000000000000000000000000000000000600052603260045260246000fd5b01819055506fbad03e7d883f69ad5b0a186184e06bff600260776080811062001da2577f4e487b7100000000000000000000000000000000000000000000000000000000600052603260045260246000fd5b01819055506fb320d03b2c343d4829abd6075f0cc5ff600260786080811062001df4577f4e487b7100000000000000000000000000000000000000000000000000000000600052603260045260246000fd5b01819055506fabc25204e02828d73c6e80bcdb1a95bf600260796080811062001e46577f4e487b7100000000000000000000000000000000000000000000000000000000600052603260045260246000fd5b01819055506fa4b16f74ee4bb2040a1ec6c15fbbf2df6002607a6080811062001e98577f4e487b7100000000000000000000000000000000000000000000000000000000600052603260045260246000fd5b01819055506f9deaf736ac1f569deb1b5ae3f36c130f6002607b6080811062001eea577f4e487b7100000000000000000000000000000000000000000000000000000000600052603260045260246000fd5b01819055506f976bd9952c7aa957f5937d790ef650376002607c6080811062001f3c577f4e487b7100000000000000000000000000000000000000000000000000000000600052603260045260246000fd5b01819055506f9131271922eaa6064b73a22d0bd4f2bf6002607d6080811062001f8e577f4e487b7100000000000000000000000000000000000000000000000000000000600052603260045260246000fd5b01819055506f8b380f3558668c46c91c49a2f8e967b96002607e6080811062001fe0577f4e487b7100000000000000000000000000000000000000000000000000000000600052603260045260246000fd5b01819055506f857ddf0117efa215952912839f6473e66002607f6080811062002032577f4e487b7100000000000000000000000000000000000000000000000000000000600052603260045260246000fd5b0181905550620f4240608260006101000a81548163ffffffff021916908363ffffffff16021790555082608960006101000a81548173ffffffffffffffffffffffffffffffffffffffff021916908373ffffffffffffffffffffffffffffffffffffffff16021790555083608a60006101000a81548173ffffffffffffffffffffffffffffffffffffffff021916908373ffffffffffffffffffffffffffffffffffffffff16021790555084608b60006101000a81548173ffffffffffffffffffffffffffffffffffffffff021916908373ffffffffffffffffffffffffffffffffffffffff1602179055506000608c6000815481106200215c577f4e487b7100000000000000000000000000000000000000000000000000000000600052603260045260246000fd5b9060005260206000200160006101000a81548173ffffffffffffffffffffffffffffffffffffffff021916908373ffffffffffffffffffffffffffffffffffffffff160217905550608960009054906101000a900473ffffffffffffffffffffffffffffffffffffffff16608c60018154811062002203577f4e487b7100000000000000000000000000000000000000000000000000000000600052603260045260246000fd5b9060005260206000200160006101000a81548173ffffffffffffffffffffffffffffffffffffffff021916908373ffffffffffffffffffffffffffffffffffffffff160217905550600160878190555081608260046101000a81548163ffffffff021916908363ffffffff1602179055508060848190555060196085819055506127106086819055506002608881905550608b60009054906101000a900473ffffffffffffffffffffffffffffffffffffffff1673ffffffffffffffffffffffffffffffffffffffff166383ac74f930346040518363ffffffff1660e01b8152600401620022f3929190620048b2565b600060405180830381600087803b1580156200230e57600080fd5b505af115801562002323573d6000803e3d6000fd5b5050505060006200233a34620023e360201b60201c565b9050608b60009054906101000a900473ffffffffffffffffffffffffffffffffffffffff1673ffffffffffffffffffffffffffffffffffffffff166382f4f5b433836040518363ffffffff1660e01b81526004016200239b929190620048b2565b600060405180830381600087803b158015620023b657600080fd5b505af1158015620023cb573d6000803e3d6000fd5b5050505050505050505062004d15565b600033905090565b600080620023f6620024d560201b60201c565b90506000608a60009054906101000a900473ffffffffffffffffffffffffffffffffffffffff1673ffffffffffffffffffffffffffffffffffffffff166318160ddd6040518163ffffffff1660e01b815260040160206040518083038186803b1580156200246357600080fd5b505afa15801562002478573d6000803e3d6000fd5b505050506040513d601f19601f820116820180604052508101906200249e919062004805565b90506000620024c88284608260049054906101000a900463ffffffff1688620026dd60201b60201c565b9050809350505050919050565b60008060005b608c805490508111620026d557600073ffffffffffffffffffffffffffffffffffffffff16608c82815481106200253b577f4e487b7100000000000000000000000000000000000000000000000000000000600052603260045260246000fd5b9060005260206000200160009054906101000a900473ffffffffffffffffffffffffffffffffffffffff1673ffffffffffffffffffffffffffffffffffffffff161415620025a5576200259d47836200283d60201b620018401790919060201c565b9150620026c1565b6000608c8281548110620025e2577f4e487b7100000000000000000000000000000000000000000000000000000000600052603260045260246000fd5b9060005260206000200160009054906101000a900473ffffffffffffffffffffffffffffffffffffffff16905060008173ffffffffffffffffffffffffffffffffffffffff166370a08231306040518263ffffffff1660e01b81526004016200264c919062004895565b60206040518083038186803b1580156200266557600080fd5b505afa1580156200267a573d6000803e3d6000fd5b505050506040513d601f19601f82011682018060405250810190620026a0919062004805565b9050620026bc81856200283d60201b620018401790919060201c565b935050505b80620026cd9062004bb4565b9050620024db565b508091505090565b60008085118015620026ef5750600084115b801562002702575060008363ffffffff16115b80156200272d5750608260009054906101000a900463ffffffff1663ffffffff168363ffffffff1611155b6200273757600080fd5b60008214156200274b576000905062002835565b608260009054906101000a900463ffffffff1663ffffffff168363ffffffff161415620027ad57620027a5846200279184886200285560201b620018561790919060201c565b6200286d60201b6200186c1790919060201c565b905062002835565b6000806000620027cc87866200283d60201b620018401790919060201c565b9050620027f4818888608260009054906101000a900463ffffffff166200288560201b60201c565b809350819450505060008260ff166200281c858b6200285560201b620018561790919060201c565b901c905088816200282e919062004a7e565b9450505050505b949350505050565b600081836200284d919062004912565b905092915050565b6000818362002865919062004a1d565b905092915050565b600081836200287d9190620049ad565b905092915050565b6000807002000000000000000000000000000000008610620028d0577f4e487b7100000000000000000000000000000000000000000000000000000000600052600160045260246000fd5b8486101562002916576040517f08c379a00000000000000000000000000000000000000000000000000000000081526004016200290d90620048df565b60405180910390fd5b600080866f800000000000000000000000000000008962002938919062004a1d565b620029449190620049ad565b905070015bf0a8b1457695355fb8ac404e7a79e38110156200297957620029718162002a4060201b60201c565b91506200298d565b6200298a816200325360201b60201c565b91505b60008563ffffffff168763ffffffff1684620029aa919062004a1d565b620029b69190620049ad565b9050700800000000000000000000000000000000811015620029f257620029e381620033d260201b60201c565b607f9450945050505062002a37565b600062002a058262003c9960201b60201c565b905062002a2d81607f62002a1a919062004ab9565b60ff1683901c8262003e2560201b60201c565b8195509550505050505b94509492505050565b6000806000905060008060006fd3094c70f034de4b96ff7d5b6f99fcd8861062002ac2576f400000000000000000000000000000008462002a82919062004912565b93506fd3094c70f034de4b96ff7d5b6f99fcd86f800000000000000000000000000000008762002ab3919062004a1d565b62002abf9190620049ad565b95505b6fa45af1e1f40c333b3de1db4dd55f29a7861062002b38576f200000000000000000000000000000008462002af8919062004912565b93506fa45af1e1f40c333b3de1db4dd55f29a76f800000000000000000000000000000008762002b29919062004a1d565b62002b359190620049ad565b95505b6f910b022db7ae67ce76b441c27035c6a1861062002bae576f100000000000000000000000000000008462002b6e919062004912565b93506f910b022db7ae67ce76b441c27035c6a16f800000000000000000000000000000008762002b9f919062004a1d565b62002bab9190620049ad565b95505b6f88415abbe9a76bead8d00cf112e4d4a8861062002c24576f080000000000000000000000000000008462002be4919062004912565b93506f88415abbe9a76bead8d00cf112e4d4a86f800000000000000000000000000000008762002c15919062004a1d565b62002c219190620049ad565b95505b6f84102b00893f64c705e841d5d4064bd3861062002c9a576f040000000000000000000000000000008462002c5a919062004912565b93506f84102b00893f64c705e841d5d4064bd36f800000000000000000000000000000008762002c8b919062004a1d565b62002c979190620049ad565b95505b6f8204055aaef1c8bd5c3259f4822735a2861062002d10576f020000000000000000000000000000008462002cd0919062004912565b93506f8204055aaef1c8bd5c3259f4822735a26f800000000000000000000000000000008762002d01919062004a1d565b62002d0d9190620049ad565b95505b6f810100ab00222d861931c15e39b44e99861062002d86576f010000000000000000000000000000008462002d46919062004912565b93506f810100ab00222d861931c15e39b44e996f800000000000000000000000000000008762002d77919062004a1d565b62002d839190620049ad565b95505b6f808040155aabbbe9451521693554f733861062002dfb576e8000000000000000000000000000008462002dbb919062004912565b93506f808040155aabbbe9451521693554f7336f800000000000000000000000000000008762002dec919062004a1d565b62002df89190620049ad565b95505b6f800000000000000000000000000000008662002e19919062004a7e565b92508291506f80000000000000000000000000000000838462002e3d919062004a1d565b62002e499190620049ad565b90507001000000000000000000000000000000008370010000000000000000000000000000000062002e7c919062004a7e565b8362002e89919062004a1d565b62002e959190620049ad565b8462002ea2919062004912565b93506f80000000000000000000000000000000818362002ec3919062004a1d565b62002ecf9190620049ad565b9150700200000000000000000000000000000000836faaaaaaaaaaaaaaaaaaaaaaaaaaaaaaaa62002f01919062004a7e565b8362002f0e919062004a1d565b62002f1a9190620049ad565b8462002f27919062004912565b93506f80000000000000000000000000000000818362002f48919062004a1d565b62002f549190620049ad565b9150700300000000000000000000000000000000836f9999999999999999999999999999999962002f86919062004a7e565b8362002f93919062004a1d565b62002f9f9190620049ad565b8462002fac919062004912565b93506f80000000000000000000000000000000818362002fcd919062004a1d565b62002fd99190620049ad565b9150700400000000000000000000000000000000836f924924924924924924924924924924926200300b919062004a7e565b8362003018919062004a1d565b620030249190620049ad565b8462003031919062004912565b93506f80000000000000000000000000000000818362003052919062004a1d565b6200305e9190620049ad565b9150700500000000000000000000000000000000836f8e38e38e38e38e38e38e38e38e38e38e62003090919062004a7e565b836200309d919062004a1d565b620030a99190620049ad565b84620030b6919062004912565b93506f800000000000000000000000000000008183620030d7919062004a1d565b620030e39190620049ad565b9150700600000000000000000000000000000000836f8ba2e8ba2e8ba2e8ba2e8ba2e8ba2e8b62003115919062004a7e565b8362003122919062004a1d565b6200312e9190620049ad565b846200313b919062004912565b93506f8000000000000000000000000000000081836200315c919062004a1d565b620031689190620049ad565b9150700700000000000000000000000000000000836f89d89d89d89d89d89d89d89d89d89d896200319a919062004a7e565b83620031a7919062004a1d565b620031b39190620049ad565b84620031c0919062004912565b93506f800000000000000000000000000000008183620031e1919062004a1d565b620031ed9190620049ad565b9150700800000000000000000000000000000000836f888888888888888888888888888888886200321f919062004a7e565b836200322c919062004a1d565b620032389190620049ad565b8462003245919062004912565b935083945050505050919050565b6000806000905060008390507001000000000000000000000000000000008110620032d8576000620032a86f80000000000000000000000000000000836200329c9190620049ad565b620045fa60201b60201c565b90508060ff1682901c91506f800000000000000000000000000000008160ff16620032d4919062004a1d565b9250505b6f800000000000000000000000000000008111156200338e576000607f90505b60008160ff1611156200338c576f80000000000000000000000000000000828362003324919062004a1d565b620033309190620049ad565b915070010000000000000000000000000000000082106200337857600182901c915060018162003361919062004ab9565b60ff166001901b8362003375919062004912565b92505b80620033849062004b4f565b9050620032f8565b505b6f05b9de1d10bf4103d647b0955897ba806f03f80fe03f80fe03f80fe03f80fe03f883620033bd919062004a1d565b620033c99190620049ad565b92505050919050565b600080600090506000806f1000000000000000000000000000000085620033fa919062004c02565b91508190506f8000000000000000000000000000000082826200341e919062004a1d565b6200342a9190620049ad565b90506710e1b3be415a00008162003442919062004a1d565b836200344f919062004912565b92506f80000000000000000000000000000000828262003470919062004a1d565b6200347c9190620049ad565b90506705a0913f6b1e00008162003494919062004a1d565b83620034a1919062004912565b92506f800000000000000000000000000000008282620034c2919062004a1d565b620034ce9190620049ad565b9050670168244fdac7800081620034e6919062004a1d565b83620034f3919062004912565b92506f80000000000000000000000000000000828262003514919062004a1d565b620035209190620049ad565b9050664807432bc180008162003537919062004a1d565b8362003544919062004912565b92506f80000000000000000000000000000000828262003565919062004a1d565b620035719190620049ad565b9050660c0135dca040008162003588919062004a1d565b8362003595919062004912565b92506f800000000000000000000000000000008282620035b6919062004a1d565b620035c29190620049ad565b90506601b707b1cdc00081620035d9919062004a1d565b83620035e6919062004912565b92506f80000000000000000000000000000000828262003607919062004a1d565b620036139190620049ad565b90506536e0f639b8008162003629919062004a1d565b8362003636919062004912565b92506f80000000000000000000000000000000828262003657919062004a1d565b620036639190620049ad565b9050650618fee9f8008162003679919062004a1d565b8362003686919062004912565b92506f800000000000000000000000000000008282620036a7919062004a1d565b620036b39190620049ad565b9050649c197dcc0081620036c8919062004a1d565b83620036d5919062004912565b92506f800000000000000000000000000000008282620036f6919062004a1d565b620037029190620049ad565b9050640e30dce4008162003717919062004a1d565b8362003724919062004912565b92506f80000000000000000000000000000000828262003745919062004a1d565b620037519190620049ad565b905064012ebd13008162003766919062004a1d565b8362003773919062004912565b92506f80000000000000000000000000000000828262003794919062004a1d565b620037a09190620049ad565b90506317499f0081620037b4919062004a1d565b83620037c1919062004912565b92506f800000000000000000000000000000008282620037e2919062004a1d565b620037ee9190620049ad565b90506301a9d4808162003802919062004a1d565b836200380f919062004912565b92506f80000000000000000000000000000000828262003830919062004a1d565b6200383c9190620049ad565b9050621c6380816200384f919062004a1d565b836200385c919062004912565b92506f8000000000000000000000000000000082826200387d919062004a1d565b620038899190620049ad565b90506201c638816200389c919062004a1d565b83620038a9919062004912565b92506f800000000000000000000000000000008282620038ca919062004a1d565b620038d69190620049ad565b9050611ab881620038e8919062004a1d565b83620038f5919062004912565b92506f80000000000000000000000000000000828262003916919062004a1d565b620039229190620049ad565b905061017c8162003934919062004a1d565b8362003941919062004912565b92506f80000000000000000000000000000000828262003962919062004a1d565b6200396e9190620049ad565b90506014816200397f919062004a1d565b836200398c919062004912565b92506f800000000000000000000000000000008282620039ad919062004a1d565b620039b99190620049ad565b9050600181620039ca919062004a1d565b83620039d7919062004912565b92506f80000000000000000000000000000000826721c3677c82b400008562003a019190620049ad565b62003a0d919062004912565b62003a19919062004912565b925060006f1000000000000000000000000000000086161462003a765770018ebef9eac820ae8682b9793ac6d1e7767001c3d6a24ed82218787d624d3e5eba95f98462003a67919062004a1d565b62003a739190620049ad565b92505b60006f2000000000000000000000000000000086161462003ad1577001368b2fc6f9609fe7aceb46aa619baed470018ebef9eac820ae8682b9793ac6d1e7788462003ac2919062004a1d565b62003ace9190620049ad565b92505b60006f4000000000000000000000000000000086161462003b2b576fbc5ab1b16779be3575bd8f0520a9f21f7001368b2fc6f9609fe7aceb46aa619baed58462003b1c919062004a1d565b62003b289190620049ad565b92505b60006f8000000000000000000000000000000086161462003b84576f454aaa8efe072e7f6ddbab84b40a55c96fbc5ab1b16779be3575bd8f0520a9f21e8462003b75919062004a1d565b62003b819190620049ad565b92505b600070010000000000000000000000000000000086161462003bde576f0960aadc109e7a3bf4578099615711ea6f454aaa8efe072e7f6ddbab84b40a55c58462003bcf919062004a1d565b62003bdb9190620049ad565b92505b600070020000000000000000000000000000000086161462003c37576e2bf84208204f5977f9a8cf01fdce3d6f0960aadc109e7a3bf4578099615711d78462003c28919062004a1d565b62003c349190620049ad565b92505b600070040000000000000000000000000000000086161462003c8e576d03c6ab775dd0b95b4cbee7e65d116e2bf84208204f5977f9a8cf01fdc3078462003c7f919062004a1d565b62003c8b9190620049ad565b92505b829350505050919050565b600080602090506000607f90505b8060ff1660018362003cba91906200496f565b60ff16101562003d3f5760006002828462003cd691906200496f565b62003ce29190620049e5565b90508460028260ff166080811062003d23577f4e487b7100000000000000000000000000000000000000000000000000000000600052603260045260246000fd5b01541062003d345780925062003d38565b8091505b5062003ca7565b8360028260ff166080811062003d7e577f4e487b7100000000000000000000000000000000000000000000000000000000600052603260045260246000fd5b01541062003d9157809250505062003e20565b8360028360ff166080811062003dd0577f4e487b7100000000000000000000000000000000000000000000000000000000600052603260045260246000fd5b01541062003de357819250505062003e20565b600062003e19577f4e487b7100000000000000000000000000000000000000000000000000000000600052600160045260246000fd5b6000925050505b919050565b60008083905060008360ff16858362003e3f919062004a1d565b901c91506f03442c4e6074a82f1797f72ac00000008262003e61919062004a1d565b8162003e6e919062004912565b90508360ff16858362003e82919062004a1d565b901c91506f0116b96f757c380fb287fd0e400000008262003ea4919062004a1d565b8162003eb1919062004912565b90508360ff16858362003ec5919062004a1d565b901c91506e45ae5bdd5f0e03eca1ff43900000008262003ee6919062004a1d565b8162003ef3919062004912565b90508360ff16858362003f07919062004a1d565b901c91506e0defabf91302cd95b9ffda500000008262003f28919062004a1d565b8162003f35919062004912565b90508360ff16858362003f49919062004a1d565b901c91506e02529ca9832b22439efff9b80000008262003f6a919062004a1d565b8162003f77919062004912565b90508360ff16858362003f8b919062004a1d565b901c91506d54f1cf12bd04e516b6da880000008262003fab919062004a1d565b8162003fb8919062004912565b90508360ff16858362003fcc919062004a1d565b901c91506d0a9e39e257a09ca2d6db510000008262003fec919062004a1d565b8162003ff9919062004912565b90508360ff1685836200400d919062004a1d565b901c91506d012e066e7b839fa050c309000000826200402d919062004a1d565b816200403a919062004912565b90508360ff1685836200404e919062004a1d565b901c91506c1e33d7d926c329a1ad1a800000826200406d919062004a1d565b816200407a919062004912565b90508360ff1685836200408e919062004a1d565b901c91506c02bee513bdb4a6b19b5f80000082620040ad919062004a1d565b81620040ba919062004912565b90508360ff168583620040ce919062004a1d565b901c91506b3a9316fa79b88eccf2a0000082620040ec919062004a1d565b81620040f9919062004912565b90508360ff1685836200410d919062004a1d565b901c91506b048177ebe1fa812375200000826200412b919062004a1d565b8162004138919062004912565b90508360ff1685836200414c919062004a1d565b901c91506a5263fe90242dcbacf000008262004169919062004a1d565b8162004176919062004912565b90508360ff1685836200418a919062004a1d565b901c91506a057e22099c030d9410000082620041a7919062004a1d565b81620041b4919062004912565b90508360ff168583620041c8919062004a1d565b901c91506957e22099c030d941000082620041e4919062004a1d565b81620041f1919062004912565b90508360ff16858362004205919062004a1d565b901c915069052b6b545699763100008262004221919062004a1d565b816200422e919062004912565b90508360ff16858362004242919062004a1d565b901c9150684985f67696bf748000826200425d919062004a1d565b816200426a919062004912565b90508360ff1685836200427e919062004a1d565b901c91506803dea12ea99e4980008262004299919062004a1d565b81620042a6919062004912565b90508360ff168583620042ba919062004a1d565b901c91506731880f2214b6e00082620042d4919062004a1d565b81620042e1919062004912565b90508360ff168583620042f5919062004a1d565b901c915067025bcff56eb36000826200430f919062004a1d565b816200431c919062004912565b90508360ff16858362004330919062004a1d565b901c9150661b722e10ab10008262004349919062004a1d565b8162004356919062004912565b90508360ff1685836200436a919062004a1d565b901c91506601317c700770008262004383919062004a1d565b8162004390919062004912565b90508360ff168583620043a4919062004a1d565b901c9150650cba84aafa0082620043bc919062004a1d565b81620043c9919062004912565b90508360ff168583620043dd919062004a1d565b901c91506482573a0a0082620043f4919062004a1d565b8162004401919062004912565b90508360ff16858362004415919062004a1d565b901c91506405035ad900826200442c919062004a1d565b8162004439919062004912565b90508360ff1685836200444d919062004a1d565b901c9150632f881b008262004463919062004a1d565b8162004470919062004912565b90508360ff16858362004484919062004a1d565b901c91506301b29340826200449a919062004a1d565b81620044a7919062004912565b90508360ff168583620044bb919062004a1d565b901c9150620efc4082620044d0919062004a1d565b81620044dd919062004912565b90508360ff168583620044f1919062004a1d565b901c9150617fe08262004505919062004a1d565b8162004512919062004912565b90508360ff16858362004526919062004a1d565b901c9150610420826200453a919062004a1d565b8162004547919062004912565b90508360ff1685836200455b919062004a1d565b901c91506021826200456e919062004a1d565b816200457b919062004912565b90508360ff1685836200458f919062004a1d565b901c9150600182620045a2919062004a1d565b81620045af919062004912565b90508360ff166001901b856f0688589cc0e9505e2f2fee558000000083620045d89190620049ad565b620045e4919062004912565b620045f0919062004912565b9250505092915050565b60008060009050600083905061010081101562004640575b60018111156200463a57600181901c90506001826200463291906200496f565b915062004612565b62004684565b6000608090505b60008160ff16111562004682578060ff166001901b821062004672578060ff1682901c915080831792505b60018160ff16901c905062004647565b505b8192505050919050565b8280546200469c9062004b7e565b90600052602060002090601f016020900481019282620046c057600085556200470c565b82601f10620046db57805160ff19168380011785556200470c565b828001600101855582156200470c579182015b828111156200470b578251825591602001919060010190620046ee565b5b5090506200471b91906200471f565b5090565b5b808211156200473a57600081600090555060010162004720565b5090565b6000815190506200474f8162004cc7565b92915050565b600081519050620047668162004ce1565b92915050565b6000815190506200477d8162004cfb565b92915050565b600080600080600060a086880312156200479c57600080fd5b6000620047ac888289016200473e565b9550506020620047bf888289016200473e565b9450506040620047d2888289016200473e565b9350506060620047e5888289016200476c565b9250506080620047f88882890162004755565b9150509295509295909350565b6000602082840312156200481857600080fd5b6000620048288482850162004755565b91505092915050565b6200483c8162004af4565b82525050565b600062004851601c8362004901565b91507f4261736573203c203120617265206e6f7420737570706f727465642e000000006000830152602082019050919050565b6200488f8162004b28565b82525050565b6000602082019050620048ac600083018462004831565b92915050565b6000604082019050620048c9600083018562004831565b620048d8602083018462004884565b9392505050565b60006020820190508181036000830152620048fa8162004842565b9050919050565b600082825260208201905092915050565b60006200491f8262004b28565b91506200492c8362004b28565b9250827fffffffffffffffffffffffffffffffffffffffffffffffffffffffffffffffff0382111562004964576200496362004c3a565b5b828201905092915050565b60006200497c8262004b42565b9150620049898362004b42565b92508260ff03821115620049a257620049a162004c3a565b5b828201905092915050565b6000620049ba8262004b28565b9150620049c78362004b28565b925082620049da57620049d962004c69565b5b828204905092915050565b6000620049f28262004b42565b9150620049ff8362004b42565b92508262004a125762004a1162004c69565b5b828204905092915050565b600062004a2a8262004b28565b915062004a378362004b28565b9250817fffffffffffffffffffffffffffffffffffffffffffffffffffffffffffffffff048311821515161562004a735762004a7262004c3a565b5b828202905092915050565b600062004a8b8262004b28565b915062004a988362004b28565b92508282101562004aae5762004aad62004c3a565b5b828203905092915050565b600062004ac68262004b42565b915062004ad38362004b42565b92508282101562004ae95762004ae862004c3a565b5b828203905092915050565b600062004b018262004b08565b9050919050565b600073ffffffffffffffffffffffffffffffffffffffff82169050919050565b6000819050919050565b600063ffffffff82169050919050565b600060ff82169050919050565b600062004b5c8262004b42565b9150600082141562004b735762004b7262004c3a565b5b600182039050919050565b6000600282049050600182168062004b9757607f821691505b6020821081141562004bae5762004bad62004c98565b5b50919050565b600062004bc18262004b28565b91507fffffffffffffffffffffffffffffffffffffffffffffffffffffffffffffffff82141562004bf75762004bf662004c3a565b5b600182019050919050565b600062004c0f8262004b28565b915062004c1c8362004b28565b92508262004c2f5762004c2e62004c69565b5b828206905092915050565b7f4e487b7100000000000000000000000000000000000000000000000000000000600052601160045260246000fd5b7f4e487b7100000000000000000000000000000000000000000000000000000000600052601260045260246000fd5b7f4e487b7100000000000000000000000000000000000000000000000000000000600052602260045260246000fd5b62004cd28162004af4565b811462004cde57600080fd5b50565b62004cec8162004b28565b811462004cf857600080fd5b50565b62004d068162004b32565b811462004d1257600080fd5b50565b613de18062004d256000396000f3fe6080604052600436106101665760003560e01c80637b80889b116100d1578063ca3e24c91161008a578063e4a28a5211610064578063e4a28a5214610511578063eccc32f21461053c578063f04b118814610567578063f2fde38b146105a457610166565b8063ca3e24c91461048f578063d53ffbcf146104b8578063e1f1e902146104d457610166565b80637b80889b1461037d5780638da5cb5b146103a85780639104c81e146103d3578063918b7cfe146103fc578063b586c9a214610439578063b6faaf8a1461046457610166565b80635cf590d9116101235780635cf590d91461029157806363795d57146102bc57806370ba1113146102e7578063715018a614610312578063717ad43814610329578063780249cd1461035257610166565b80631f2dc5ef1461016b57806324d692281461019657806329a00e7c146101c15780634242bac0146101fe57806349f9b0f71461022957806354fd4d5014610266575b600080fd5b34801561017757600080fd5b506101806105cd565b60405161018d91906138d4565b60405180910390f35b3480156101a257600080fd5b506101ab6105d3565b6040516101b891906138d4565b60405180910390f35b3480156101cd57600080fd5b506101e860048036038101906101e391906135aa565b6107bf565b6040516101f591906138d4565b60405180910390f35b34801561020a57600080fd5b506102136108f1565b6040516102209190613837565b60405180910390f35b34801561023557600080fd5b50610250600480360381019061024b91906135aa565b610917565b60405161025d91906138d4565b60405180910390f35b34801561027257600080fd5b5061027b610a7d565b6040516102889190613852565b60405180910390f35b34801561029d57600080fd5b506102a6610b0b565b6040516102b391906138d4565b60405180910390f35b3480156102c857600080fd5b506102d1610b11565b6040516102de91906138d4565b60405180910390f35b3480156102f357600080fd5b506102fc610b17565b60405161030991906138d4565b60405180910390f35b34801561031e57600080fd5b50610327610b1d565b005b34801561033557600080fd5b50610350600480360381019061034b91906134a4565b610c57565b005b34801561035e57600080fd5b50610367610dd0565b6040516103749190613801565b60405180910390f35b34801561038957600080fd5b50610392610df6565b60405161039f91906138d4565b60405180910390f35b3480156103b457600080fd5b506103bd610dfc565b6040516103ca9190613786565b60405180910390f35b3480156103df57600080fd5b506103fa60048036038101906103f5919061351c565b610e25565b005b34801561040857600080fd5b50610423600480360381019061041e919061351c565b6110e7565b6040516104309190613786565b60405180910390f35b34801561044557600080fd5b5061044e611126565b60405161045b91906138ef565b60405180910390f35b34801561047057600080fd5b5061047961113c565b60405161048691906138d4565b60405180910390f35b34801561049b57600080fd5b506104b660048036038101906104b1919061347b565b611142565b005b6104d260048036038101906104cd919061356e565b61125e565b005b3480156104e057600080fd5b506104fb60048036038101906104f6919061351c565b61149f565b60405161050891906138d4565b60405180910390f35b34801561051d57600080fd5b5061052661157d565b60405161053391906138ef565b60405180910390f35b34801561054857600080fd5b50610551611593565b60405161055e919061381c565b60405180910390f35b34801561057357600080fd5b5061058e6004803603810190610589919061351c565b6115b9565b60405161059b91906138d4565b60405180910390f35b3480156105b057600080fd5b506105cb60048036038101906105c6919061347b565b611697565b005b60865481565b60008060005b608c8054905081116107b757600073ffffffffffffffffffffffffffffffffffffffff16608c8281548110610637577f4e487b7100000000000000000000000000000000000000000000000000000000600052603260045260246000fd5b9060005260206000200160009054906101000a900473ffffffffffffffffffffffffffffffffffffffff1673ffffffffffffffffffffffffffffffffffffffff16141561069857610691478361184090919063ffffffff16565b91506107a6565b6000608c82815481106106d4577f4e487b7100000000000000000000000000000000000000000000000000000000600052603260045260246000fd5b9060005260206000200160009054906101000a900473ffffffffffffffffffffffffffffffffffffffff16905060008173ffffffffffffffffffffffffffffffffffffffff166370a08231306040518263ffffffff1660e01b815260040161073c9190613786565b60206040518083038186803b15801561075457600080fd5b505afa158015610768573d6000803e3d6000fd5b505050506040513d601f19601f8201168201806040525081019061078c9190613545565b90506107a1818561184090919063ffffffff16565b935050505b806107b090613c37565b90506105d9565b508091505090565b600080851180156107d05750600084115b80156107e2575060008363ffffffff16115b801561080c5750608260009054906101000a900463ffffffff1663ffffffff168363ffffffff1611155b61081557600080fd5b600082141561082757600090506108e9565b608260009054906101000a900463ffffffff1663ffffffff168363ffffffff1614156108795761087284610864848861185690919063ffffffff16565b61186c90919063ffffffff16565b90506108e9565b6000806000610891878661184090919063ffffffff16565b90506108b1818888608260009054906101000a900463ffffffff16611882565b809350819450505060008260ff166108d2858b61185690919063ffffffff16565b901c905088816108e29190613a6f565b9450505050505b949350505050565b608a60009054906101000a900473ffffffffffffffffffffffffffffffffffffffff1681565b600080851180156109285750600084115b801561093a575060008363ffffffff16115b80156109645750608260009054906101000a900463ffffffff1663ffffffff168363ffffffff1611155b80156109705750848211155b61097957600080fd5b600082141561098b5760009050610a75565b8482141561099b57839050610a75565b608260009054906101000a900463ffffffff1663ffffffff168363ffffffff1614156109ed576109e6856109d8848761185690919063ffffffff16565b61186c90919063ffffffff16565b9050610a75565b600080600084886109fe9190613a6f565b9050610a1e8882608260009054906101000a900463ffffffff1689611882565b80935081945050506000610a3b848961185690919063ffffffff16565b905060008360ff1689901b9050610a6d85610a5f8385611a0390919063ffffffff16565b61186c90919063ffffffff16565b955050505050505b949350505050565b60018054610a8a90613c05565b80601f0160208091040260200160405190810160405280929190818152602001828054610ab690613c05565b8015610b035780601f10610ad857610100808354040283529160200191610b03565b820191906000526020600020905b815481529060010190602001808311610ae657829003601f168201915b505050505081565b60845481565b60885481565b60855481565b610b25611a19565b73ffffffffffffffffffffffffffffffffffffffff16610b43610dfc565b73ffffffffffffffffffffffffffffffffffffffff1614610b99576040517f08c379a0000000000000000000000000000000000000000000000000000000008152600401610b9090613894565b60405180910390fd5b600073ffffffffffffffffffffffffffffffffffffffff1660008054906101000a900473ffffffffffffffffffffffffffffffffffffffff1673ffffffffffffffffffffffffffffffffffffffff167f8be0079c531659141344cd1fd0a4f28419497f9722a3daafe3b4186f6b6457e060405160405180910390a360008060006101000a81548173ffffffffffffffffffffffffffffffffffffffff021916908373ffffffffffffffffffffffffffffffffffffffff160217905550565b610c5f611a19565b73ffffffffffffffffffffffffffffffffffffffff16610c7d610dfc565b73ffffffffffffffffffffffffffffffffffffffff1614610cd3576040517f08c379a0000000000000000000000000000000000000000000000000000000008152600401610cca90613894565b60405180910390fd5b6000608c8381548110610d0f577f4e487b7100000000000000000000000000000000000000000000000000000000600052603260045260246000fd5b9060005260206000200160009054906101000a900473ffffffffffffffffffffffffffffffffffffffff1690508073ffffffffffffffffffffffffffffffffffffffff1663a9059cbb85846040518363ffffffff1660e01b8152600401610d779291906137d8565b602060405180830381600087803b158015610d9157600080fd5b505af1158015610da5573d6000803e3d6000fd5b505050506040513d601f19601f82011682018060405250810190610dc991906134f3565b5050505050565b608b60009054906101000a900473ffffffffffffffffffffffffffffffffffffffff1681565b60835481565b60008060009054906101000a900473ffffffffffffffffffffffffffffffffffffffff16905090565b6000610e30826115b9565b9050608b60009054906101000a900473ffffffffffffffffffffffffffffffffffffffff1673ffffffffffffffffffffffffffffffffffffffff16639c94f65133836040518363ffffffff1660e01b8152600401610e8f9291906137d8565b600060405180830381600087803b158015610ea957600080fd5b505af1158015610ebd573d6000803e3d6000fd5b505050506000608c8054905090506000610ee0828461186c90919063ffffffff16565b905060005b608c8054905081116110e057600073ffffffffffffffffffffffffffffffffffffffff16608c8281548110610f43577f4e487b7100000000000000000000000000000000000000000000000000000000600052603260045260246000fd5b9060005260206000200160009054906101000a900473ffffffffffffffffffffffffffffffffffffffff1673ffffffffffffffffffffffffffffffffffffffff161415610fd6573373ffffffffffffffffffffffffffffffffffffffff166108fc839081150290604051600060405180830381858888f19350505050158015610fd0573d6000803e3d6000fd5b506110cf565b6000608c8281548110611012577f4e487b7100000000000000000000000000000000000000000000000000000000600052603260045260246000fd5b9060005260206000200160009054906101000a900473ffffffffffffffffffffffffffffffffffffffff1690508073ffffffffffffffffffffffffffffffffffffffff1663a9059cbb33856040518363ffffffff1660e01b815260040161107a9291906137d8565b602060405180830381600087803b15801561109457600080fd5b505af11580156110a8573d6000803e3d6000fd5b505050506040513d601f19601f820116820180604052508101906110cc91906134f3565b50505b806110d990613c37565b9050610ee5565b5050505050565b608c81815481106110f757600080fd5b906000526020600020016000915054906101000a900473ffffffffffffffffffffffffffffffffffffffff1681565b608260049054906101000a900463ffffffff1681565b60875481565b61114a611a19565b73ffffffffffffffffffffffffffffffffffffffff16611168610dfc565b73ffffffffffffffffffffffffffffffffffffffff16146111be576040517f08c379a00000000000000000000000000000000000000000000000000000000081526004016111b590613894565b60405180910390fd5b608760008154809291906111d190613c37565b919050555080608c60875481548110611213577f4e487b7100000000000000000000000000000000000000000000000000000000600052603260045260246000fd5b9060005260206000200160006101000a81548173ffffffffffffffffffffffffffffffffffffffff021916908373ffffffffffffffffffffffffffffffffffffffff16021790555050565b60006112698361149f565b905060008083141561127d5734905061137b565b6000608c84815481106112b9577f4e487b7100000000000000000000000000000000000000000000000000000000600052603260045260246000fd5b9060005260206000200160009054906101000a900473ffffffffffffffffffffffffffffffffffffffff1690508491508073ffffffffffffffffffffffffffffffffffffffff166323b872dd3330856040518463ffffffff1660e01b8152600401611326939291906137a1565b602060405180830381600087803b15801561134057600080fd5b505af1158015611354573d6000803e3d6000fd5b505050506040513d601f19601f8201168201806040525081019061137891906134f3565b50505b608b60009054906101000a900473ffffffffffffffffffffffffffffffffffffffff1673ffffffffffffffffffffffffffffffffffffffff166383ac74f930836040518363ffffffff1660e01b81526004016113d89291906137d8565b600060405180830381600087803b1580156113f257600080fd5b505af1158015611406573d6000803e3d6000fd5b50505050608b60009054906101000a900473ffffffffffffffffffffffffffffffffffffffff1673ffffffffffffffffffffffffffffffffffffffff166382f4f5b433846040518363ffffffff1660e01b81526004016114679291906137d8565b600060405180830381600087803b15801561148157600080fd5b505af1158015611495573d6000803e3d6000fd5b5050505050505050565b6000806114aa6105d3565b90506000608a60009054906101000a900473ffffffffffffffffffffffffffffffffffffffff1673ffffffffffffffffffffffffffffffffffffffff166318160ddd6040518163ffffffff1660e01b815260040160206040518083038186803b15801561151657600080fd5b505afa15801561152a573d6000803e3d6000fd5b505050506040513d601f19601f8201168201806040525081019061154e9190613545565b905060006115708284608260049054906101000a900463ffffffff16886107bf565b9050809350505050919050565b608260009054906101000a900463ffffffff1681565b608960009054906101000a900473ffffffffffffffffffffffffffffffffffffffff1681565b6000806115c46105d3565b90506000608a60009054906101000a900473ffffffffffffffffffffffffffffffffffffffff1673ffffffffffffffffffffffffffffffffffffffff166318160ddd6040518163ffffffff1660e01b815260040160206040518083038186803b15801561163057600080fd5b505afa158015611644573d6000803e3d6000fd5b505050506040513d601f19601f820116820180604052508101906116689190613545565b9050600061168a8284608260049054906101000a900463ffffffff1688610917565b9050809350505050919050565b61169f611a19565b73ffffffffffffffffffffffffffffffffffffffff166116bd610dfc565b73ffffffffffffffffffffffffffffffffffffffff1614611713576040517f08c379a000000000000000000000000000000000000000000000000000000000815260040161170a90613894565b60405180910390fd5b600073ffffffffffffffffffffffffffffffffffffffff168173ffffffffffffffffffffffffffffffffffffffff161415611783576040517f08c379a000000000000000000000000000000000000000000000000000000000815260040161177a90613874565b60405180910390fd5b8073ffffffffffffffffffffffffffffffffffffffff1660008054906101000a900473ffffffffffffffffffffffffffffffffffffffff1673ffffffffffffffffffffffffffffffffffffffff167f8be0079c531659141344cd1fd0a4f28419497f9722a3daafe3b4186f6b6457e060405160405180910390a3806000806101000a81548173ffffffffffffffffffffffffffffffffffffffff021916908373ffffffffffffffffffffffffffffffffffffffff16021790555050565b6000818361184e9190613926565b905092915050565b600081836118649190613a15565b905092915050565b6000818361187a91906139b3565b905092915050565b60008070020000000000000000000000000000000086106118cc577f4e487b7100000000000000000000000000000000000000000000000000000000600052600160045260246000fd5b8486101561190f576040517f08c379a0000000000000000000000000000000000000000000000000000000008152600401611906906138b4565b60405180910390fd5b600080866f800000000000000000000000000000008961192f9190613a15565b61193991906139b3565b905070015bf0a8b1457695355fb8ac404e7a79e38110156119645761195d81611a21565b9150611970565b61196d8161219a565b91505b60008563ffffffff168763ffffffff168461198b9190613a15565b61199591906139b3565b90507008000000000000000000000000000000008110156119c7576119b9816122fa565b607f945094505050506119fa565b60006119d282612afe565b90506119f081607f6119e49190613aa3565b60ff1683901c82612c78565b8195509550505050505b94509492505050565b60008183611a119190613a6f565b905092915050565b600033905090565b6000806000905060008060006fd3094c70f034de4b96ff7d5b6f99fcd88610611a9c576f4000000000000000000000000000000084611a609190613926565b93506fd3094c70f034de4b96ff7d5b6f99fcd86f8000000000000000000000000000000087611a8f9190613a15565b611a9991906139b3565b95505b6fa45af1e1f40c333b3de1db4dd55f29a78610611b0b576f2000000000000000000000000000000084611acf9190613926565b93506fa45af1e1f40c333b3de1db4dd55f29a76f8000000000000000000000000000000087611afe9190613a15565b611b0891906139b3565b95505b6f910b022db7ae67ce76b441c27035c6a18610611b7a576f1000000000000000000000000000000084611b3e9190613926565b93506f910b022db7ae67ce76b441c27035c6a16f8000000000000000000000000000000087611b6d9190613a15565b611b7791906139b3565b95505b6f88415abbe9a76bead8d00cf112e4d4a88610611be9576f0800000000000000000000000000000084611bad9190613926565b93506f88415abbe9a76bead8d00cf112e4d4a86f8000000000000000000000000000000087611bdc9190613a15565b611be691906139b3565b95505b6f84102b00893f64c705e841d5d4064bd38610611c58576f0400000000000000000000000000000084611c1c9190613926565b93506f84102b00893f64c705e841d5d4064bd36f8000000000000000000000000000000087611c4b9190613a15565b611c5591906139b3565b95505b6f8204055aaef1c8bd5c3259f4822735a28610611cc7576f0200000000000000000000000000000084611c8b9190613926565b93506f8204055aaef1c8bd5c3259f4822735a26f8000000000000000000000000000000087611cba9190613a15565b611cc491906139b3565b95505b6f810100ab00222d861931c15e39b44e998610611d36576f0100000000000000000000000000000084611cfa9190613926565b93506f810100ab00222d861931c15e39b44e996f8000000000000000000000000000000087611d299190613a15565b611d3391906139b3565b95505b6f808040155aabbbe9451521693554f7338610611da4576e80000000000000000000000000000084611d689190613926565b93506f808040155aabbbe9451521693554f7336f8000000000000000000000000000000087611d979190613a15565b611da191906139b3565b95505b6f8000000000000000000000000000000086611dc09190613a6f565b92508291506f800000000000000000000000000000008384611de29190613a15565b611dec91906139b3565b905070010000000000000000000000000000000083700100000000000000000000000000000000611e1d9190613a6f565b83611e289190613a15565b611e3291906139b3565b84611e3d9190613926565b93506f800000000000000000000000000000008183611e5c9190613a15565b611e6691906139b3565b9150700200000000000000000000000000000000836faaaaaaaaaaaaaaaaaaaaaaaaaaaaaaaa611e969190613a6f565b83611ea19190613a15565b611eab91906139b3565b84611eb69190613926565b93506f800000000000000000000000000000008183611ed59190613a15565b611edf91906139b3565b9150700300000000000000000000000000000000836f99999999999999999999999999999999611f0f9190613a6f565b83611f1a9190613a15565b611f2491906139b3565b84611f2f9190613926565b93506f800000000000000000000000000000008183611f4e9190613a15565b611f5891906139b3565b9150700400000000000000000000000000000000836f92492492492492492492492492492492611f889190613a6f565b83611f939190613a15565b611f9d91906139b3565b84611fa89190613926565b93506f800000000000000000000000000000008183611fc79190613a15565b611fd191906139b3565b9150700500000000000000000000000000000000836f8e38e38e38e38e38e38e38e38e38e38e6120019190613a6f565b8361200c9190613a15565b61201691906139b3565b846120219190613926565b93506f8000000000000000000000000000000081836120409190613a15565b61204a91906139b3565b9150700600000000000000000000000000000000836f8ba2e8ba2e8ba2e8ba2e8ba2e8ba2e8b61207a9190613a6f565b836120859190613a15565b61208f91906139b3565b8461209a9190613926565b93506f8000000000000000000000000000000081836120b99190613a15565b6120c391906139b3565b9150700700000000000000000000000000000000836f89d89d89d89d89d89d89d89d89d89d896120f39190613a6f565b836120fe9190613a15565b61210891906139b3565b846121139190613926565b93506f8000000000000000000000000000000081836121329190613a15565b61213c91906139b3565b9150700800000000000000000000000000000000836f8888888888888888888888888888888861216c9190613a6f565b836121779190613a15565b61218191906139b3565b8461218c9190613926565b935083945050505050919050565b60008060009050600083905070010000000000000000000000000000000081106122125760006121e46f80000000000000000000000000000000836121df91906139b3565b613387565b90508060ff1682901c91506f800000000000000000000000000000008160ff1661220e9190613a15565b9250505b6f800000000000000000000000000000008111156122ba576000607f90505b60008160ff1611156122b8576f80000000000000000000000000000000828361225a9190613a15565b61226491906139b3565b915070010000000000000000000000000000000082106122a757600182901c91506001816122929190613aa3565b60ff166001901b836122a49190613926565b92505b806122b190613bdb565b9050612231565b505b6f05b9de1d10bf4103d647b0955897ba806f03f80fe03f80fe03f80fe03f80fe03f8836122e79190613a15565b6122f191906139b3565b92505050919050565b600080600090506000806f10000000000000000000000000000000856123209190613c80565b91508190506f8000000000000000000000000000000082826123429190613a15565b61234c91906139b3565b90506710e1b3be415a0000816123629190613a15565b8361236d9190613926565b92506f80000000000000000000000000000000828261238c9190613a15565b61239691906139b3565b90506705a0913f6b1e0000816123ac9190613a15565b836123b79190613926565b92506f8000000000000000000000000000000082826123d69190613a15565b6123e091906139b3565b9050670168244fdac78000816123f69190613a15565b836124019190613926565b92506f8000000000000000000000000000000082826124209190613a15565b61242a91906139b3565b9050664807432bc180008161243f9190613a15565b8361244a9190613926565b92506f8000000000000000000000000000000082826124699190613a15565b61247391906139b3565b9050660c0135dca04000816124889190613a15565b836124939190613926565b92506f8000000000000000000000000000000082826124b29190613a15565b6124bc91906139b3565b90506601b707b1cdc000816124d19190613a15565b836124dc9190613926565b92506f8000000000000000000000000000000082826124fb9190613a15565b61250591906139b3565b90506536e0f639b800816125199190613a15565b836125249190613926565b92506f8000000000000000000000000000000082826125439190613a15565b61254d91906139b3565b9050650618fee9f800816125619190613a15565b8361256c9190613926565b92506f80000000000000000000000000000000828261258b9190613a15565b61259591906139b3565b9050649c197dcc00816125a89190613a15565b836125b39190613926565b92506f8000000000000000000000000000000082826125d29190613a15565b6125dc91906139b3565b9050640e30dce400816125ef9190613a15565b836125fa9190613926565b92506f8000000000000000000000000000000082826126199190613a15565b61262391906139b3565b905064012ebd1300816126369190613a15565b836126419190613926565b92506f8000000000000000000000000000000082826126609190613a15565b61266a91906139b3565b90506317499f008161267c9190613a15565b836126879190613926565b92506f8000000000000000000000000000000082826126a69190613a15565b6126b091906139b3565b90506301a9d480816126c29190613a15565b836126cd9190613926565b92506f8000000000000000000000000000000082826126ec9190613a15565b6126f691906139b3565b9050621c6380816127079190613a15565b836127129190613926565b92506f8000000000000000000000000000000082826127319190613a15565b61273b91906139b3565b90506201c6388161274c9190613a15565b836127579190613926565b92506f8000000000000000000000000000000082826127769190613a15565b61278091906139b3565b9050611ab8816127909190613a15565b8361279b9190613926565b92506f8000000000000000000000000000000082826127ba9190613a15565b6127c491906139b3565b905061017c816127d49190613a15565b836127df9190613926565b92506f8000000000000000000000000000000082826127fe9190613a15565b61280891906139b3565b90506014816128179190613a15565b836128229190613926565b92506f8000000000000000000000000000000082826128419190613a15565b61284b91906139b3565b905060018161285a9190613a15565b836128659190613926565b92506f80000000000000000000000000000000826721c3677c82b400008561288d91906139b3565b6128979190613926565b6128a19190613926565b925060006f100000000000000000000000000000008616146128f95770018ebef9eac820ae8682b9793ac6d1e7767001c3d6a24ed82218787d624d3e5eba95f9846128ec9190613a15565b6128f691906139b3565b92505b60006f2000000000000000000000000000000086161461294f577001368b2fc6f9609fe7aceb46aa619baed470018ebef9eac820ae8682b9793ac6d1e778846129429190613a15565b61294c91906139b3565b92505b60006f400000000000000000000000000000008616146129a4576fbc5ab1b16779be3575bd8f0520a9f21f7001368b2fc6f9609fe7aceb46aa619baed5846129979190613a15565b6129a191906139b3565b92505b60006f800000000000000000000000000000008616146129f8576f454aaa8efe072e7f6ddbab84b40a55c96fbc5ab1b16779be3575bd8f0520a9f21e846129eb9190613a15565b6129f591906139b3565b92505b6000700100000000000000000000000000000000861614612a4d576f0960aadc109e7a3bf4578099615711ea6f454aaa8efe072e7f6ddbab84b40a55c584612a409190613a15565b612a4a91906139b3565b92505b6000700200000000000000000000000000000000861614612aa1576e2bf84208204f5977f9a8cf01fdce3d6f0960aadc109e7a3bf4578099615711d784612a949190613a15565b612a9e91906139b3565b92505b6000700400000000000000000000000000000000861614612af3576d03c6ab775dd0b95b4cbee7e65d116e2bf84208204f5977f9a8cf01fdc30784612ae69190613a15565b612af091906139b3565b92505b829350505050919050565b600080602090506000607f90505b8060ff16600183612b1d919061397c565b60ff161015612b9957600060028284612b36919061397c565b612b4091906139e4565b90508460028260ff1660808110612b80577f4e487b7100000000000000000000000000000000000000000000000000000000600052603260045260246000fd5b015410612b8f57809250612b93565b8091505b50612b0c565b8360028260ff1660808110612bd7577f4e487b7100000000000000000000000000000000000000000000000000000000600052603260045260246000fd5b015410612be8578092505050612c73565b8360028360ff1660808110612c26577f4e487b7100000000000000000000000000000000000000000000000000000000600052603260045260246000fd5b015410612c37578192505050612c73565b6000612c6c577f4e487b7100000000000000000000000000000000000000000000000000000000600052600160045260246000fd5b6000925050505b919050565b60008083905060008360ff168583612c909190613a15565b901c91506f03442c4e6074a82f1797f72ac000000082612cb09190613a15565b81612cbb9190613926565b90508360ff168583612ccd9190613a15565b901c91506f0116b96f757c380fb287fd0e4000000082612ced9190613a15565b81612cf89190613926565b90508360ff168583612d0a9190613a15565b901c91506e45ae5bdd5f0e03eca1ff439000000082612d299190613a15565b81612d349190613926565b90508360ff168583612d469190613a15565b901c91506e0defabf91302cd95b9ffda5000000082612d659190613a15565b81612d709190613926565b90508360ff168583612d829190613a15565b901c91506e02529ca9832b22439efff9b800000082612da19190613a15565b81612dac9190613926565b90508360ff168583612dbe9190613a15565b901c91506d54f1cf12bd04e516b6da8800000082612ddc9190613a15565b81612de79190613926565b90508360ff168583612df99190613a15565b901c91506d0a9e39e257a09ca2d6db5100000082612e179190613a15565b81612e229190613926565b90508360ff168583612e349190613a15565b901c91506d012e066e7b839fa050c30900000082612e529190613a15565b81612e5d9190613926565b90508360ff168583612e6f9190613a15565b901c91506c1e33d7d926c329a1ad1a80000082612e8c9190613a15565b81612e979190613926565b90508360ff168583612ea99190613a15565b901c91506c02bee513bdb4a6b19b5f80000082612ec69190613a15565b81612ed19190613926565b90508360ff168583612ee39190613a15565b901c91506b3a9316fa79b88eccf2a0000082612eff9190613a15565b81612f0a9190613926565b90508360ff168583612f1c9190613a15565b901c91506b048177ebe1fa81237520000082612f389190613a15565b81612f439190613926565b90508360ff168583612f559190613a15565b901c91506a5263fe90242dcbacf0000082612f709190613a15565b81612f7b9190613926565b90508360ff168583612f8d9190613a15565b901c91506a057e22099c030d9410000082612fa89190613a15565b81612fb39190613926565b90508360ff168583612fc59190613a15565b901c91506957e22099c030d941000082612fdf9190613a15565b81612fea9190613926565b90508360ff168583612ffc9190613a15565b901c915069052b6b54569976310000826130169190613a15565b816130219190613926565b90508360ff1685836130339190613a15565b901c9150684985f67696bf7480008261304c9190613a15565b816130579190613926565b90508360ff1685836130699190613a15565b901c91506803dea12ea99e498000826130829190613a15565b8161308d9190613926565b90508360ff16858361309f9190613a15565b901c91506731880f2214b6e000826130b79190613a15565b816130c29190613926565b90508360ff1685836130d49190613a15565b901c915067025bcff56eb36000826130ec9190613a15565b816130f79190613926565b90508360ff1685836131099190613a15565b901c9150661b722e10ab1000826131209190613a15565b8161312b9190613926565b90508360ff16858361313d9190613a15565b901c91506601317c70077000826131549190613a15565b8161315f9190613926565b90508360ff1685836131719190613a15565b901c9150650cba84aafa00826131879190613a15565b816131929190613926565b90508360ff1685836131a49190613a15565b901c91506482573a0a00826131b99190613a15565b816131c49190613926565b90508360ff1685836131d69190613a15565b901c91506405035ad900826131eb9190613a15565b816131f69190613926565b90508360ff1685836132089190613a15565b901c9150632f881b008261321c9190613a15565b816132279190613926565b90508360ff1685836132399190613a15565b901c91506301b293408261324d9190613a15565b816132589190613926565b90508360ff16858361326a9190613a15565b901c9150620efc408261327d9190613a15565b816132889190613926565b90508360ff16858361329a9190613a15565b901c9150617fe0826132ac9190613a15565b816132b79190613926565b90508360ff1685836132c99190613a15565b901c9150610420826132db9190613a15565b816132e69190613926565b90508360ff1685836132f89190613a15565b901c91506021826133099190613a15565b816133149190613926565b90508360ff1685836133269190613a15565b901c91506001826133379190613a15565b816133429190613926565b90508360ff166001901b856f0688589cc0e9505e2f2fee55800000008361336991906139b3565b6133739190613926565b61337d9190613926565b9250505092915050565b6000806000905060008390506101008110156133c7575b60018111156133c257600181901c90506001826133bb919061397c565b915061339e565b613408565b6000608090505b60008160ff161115613406578060ff166001901b82106133f7578060ff1682901c915080831792505b60018160ff16901c90506133ce565b505b8192505050919050565b60008135905061342181613d4f565b92915050565b60008151905061343681613d66565b92915050565b60008135905061344b81613d7d565b92915050565b60008151905061346081613d7d565b92915050565b60008135905061347581613d94565b92915050565b60006020828403121561348d57600080fd5b600061349b84828501613412565b91505092915050565b6000806000606084860312156134b957600080fd5b60006134c786828701613412565b93505060206134d88682870161343c565b92505060406134e98682870161343c565b9150509250925092565b60006020828403121561350557600080fd5b600061351384828501613427565b91505092915050565b60006020828403121561352e57600080fd5b600061353c8482850161343c565b91505092915050565b60006020828403121561355757600080fd5b600061356584828501613451565b91505092915050565b6000806040838503121561358157600080fd5b600061358f8582860161343c565b92505060206135a08582860161343c565b9150509250929050565b600080600080608085870312156135c057600080fd5b60006135ce8782880161343c565b94505060206135df8782880161343c565b93505060406135f087828801613466565b92505060606136018782880161343c565b91505092959194509250565b61361681613ad7565b82525050565b61362581613b3c565b82525050565b61363481613b60565b82525050565b61364381613b84565b82525050565b60006136548261390a565b61365e8185613915565b935061366e818560208601613ba8565b61367781613d3e565b840191505092915050565b600061368f602683613915565b91507f4f776e61626c653a206e6577206f776e657220697320746865207a65726f206160008301527f64647265737300000000000000000000000000000000000000000000000000006020830152604082019050919050565b60006136f5602083613915565b91507f4f776e61626c653a2063616c6c6572206973206e6f7420746865206f776e65726000830152602082019050919050565b6000613735601c83613915565b91507f4261736573203c203120617265206e6f7420737570706f727465642e000000006000830152602082019050919050565b61377181613b15565b82525050565b61378081613b1f565b82525050565b600060208201905061379b600083018461360d565b92915050565b60006060820190506137b6600083018661360d565b6137c3602083018561360d565b6137d06040830184613768565b949350505050565b60006040820190506137ed600083018561360d565b6137fa6020830184613768565b9392505050565b6000602082019050613816600083018461361c565b92915050565b6000602082019050613831600083018461362b565b92915050565b600060208201905061384c600083018461363a565b92915050565b6000602082019050818103600083015261386c8184613649565b905092915050565b6000602082019050818103600083015261388d81613682565b9050919050565b600060208201905081810360008301526138ad816136e8565b9050919050565b600060208201905081810360008301526138cd81613728565b9050919050565b60006020820190506138e96000830184613768565b92915050565b60006020820190506139046000830184613777565b92915050565b600081519050919050565b600082825260208201905092915050565b600061393182613b15565b915061393c83613b15565b9250827fffffffffffffffffffffffffffffffffffffffffffffffffffffffffffffffff0382111561397157613970613cb1565b5b828201905092915050565b600061398782613b2f565b915061399283613b2f565b92508260ff038211156139a8576139a7613cb1565b5b828201905092915050565b60006139be82613b15565b91506139c983613b15565b9250826139d9576139d8613ce0565b5b828204905092915050565b60006139ef82613b2f565b91506139fa83613b2f565b925082613a0a57613a09613ce0565b5b828204905092915050565b6000613a2082613b15565b9150613a2b83613b15565b9250817fffffffffffffffffffffffffffffffffffffffffffffffffffffffffffffffff0483118215151615613a6457613a63613cb1565b5b828202905092915050565b6000613a7a82613b15565b9150613a8583613b15565b925082821015613a9857613a97613cb1565b5b828203905092915050565b6000613aae82613b2f565b9150613ab983613b2f565b925082821015613acc57613acb613cb1565b5b828203905092915050565b6000613ae282613af5565b9050919050565b60008115159050919050565b600073ffffffffffffffffffffffffffffffffffffffff82169050919050565b6000819050919050565b600063ffffffff82169050919050565b600060ff82169050919050565b6000613b4782613b4e565b9050919050565b6000613b5982613af5565b9050919050565b6000613b6b82613b72565b9050919050565b6000613b7d82613af5565b9050919050565b6000613b8f82613b96565b9050919050565b6000613ba182613af5565b9050919050565b60005b83811015613bc6578082015181840152602081019050613bab565b83811115613bd5576000848401525b50505050565b6000613be682613b2f565b91506000821415613bfa57613bf9613cb1565b5b600182039050919050565b60006002820490506001821680613c1d57607f821691505b60208210811415613c3157613c30613d0f565b5b50919050565b6000613c4282613b15565b91507fffffffffffffffffffffffffffffffffffffffffffffffffffffffffffffffff821415613c7557613c74613cb1565b5b600182019050919050565b6000613c8b82613b15565b9150613c9683613b15565b925082613ca657613ca5613ce0565b5b828206905092915050565b7f4e487b7100000000000000000000000000000000000000000000000000000000600052601160045260246000fd5b7f4e487b7100000000000000000000000000000000000000000000000000000000600052601260045260246000fd5b7f4e487b7100000000000000000000000000000000000000000000000000000000600052602260045260246000fd5b6000601f19601f8301169050919050565b613d5881613ad7565b8114613d6357600080fd5b50565b613d6f81613ae9565b8114613d7a57600080fd5b50565b613d8681613b15565b8114613d9157600080fd5b50565b613d9d81613b1f565b8114613da857600080fd5b5056fea2646970667358221220097cdc7b30ace9aa753b96e1c3e3348c8548276d3c3b8309a14567aba802e2af64736f6c63430008000033",
          "opcodes": "PUSH1 0x80 PUSH1 0x40 MSTORE PUSH1 0x40 MLOAD DUP1 PUSH1 0x40 ADD PUSH1 0x40 MSTORE DUP1 PUSH1 0x3 DUP2 MSTORE PUSH1 0x20 ADD PUSH32 0x302E330000000000000000000000000000000000000000000000000000000000 DUP2 MSTORE POP PUSH1 0x1 SWAP1 DUP1 MLOAD SWAP1 PUSH1 0x20 ADD SWAP1 PUSH3 0x51 SWAP3 SWAP2 SWAP1 PUSH3 0x468E JUMP JUMPDEST POP PUSH1 0x40 MLOAD PUSH3 0x8B06 CODESIZE SUB DUP1 PUSH3 0x8B06 DUP4 CODECOPY DUP2 DUP2 ADD PUSH1 0x40 MSTORE DUP2 ADD SWAP1 PUSH3 0x77 SWAP2 SWAP1 PUSH3 0x4783 JUMP JUMPDEST PUSH1 0x0 PUSH3 0x89 PUSH3 0x23DB PUSH1 0x20 SHL PUSH1 0x20 SHR JUMP JUMPDEST SWAP1 POP DUP1 PUSH1 0x0 DUP1 PUSH2 0x100 EXP DUP2 SLOAD DUP2 PUSH20 0xFFFFFFFFFFFFFFFFFFFFFFFFFFFFFFFFFFFFFFFF MUL NOT AND SWAP1 DUP4 PUSH20 0xFFFFFFFFFFFFFFFFFFFFFFFFFFFFFFFFFFFFFFFF AND MUL OR SWAP1 SSTORE POP DUP1 PUSH20 0xFFFFFFFFFFFFFFFFFFFFFFFFFFFFFFFFFFFFFFFF AND PUSH1 0x0 PUSH20 0xFFFFFFFFFFFFFFFFFFFFFFFFFFFFFFFFFFFFFFFF AND PUSH32 0x8BE0079C531659141344CD1FD0A4F28419497F9722A3DAAFE3B4186F6B6457E0 PUSH1 0x40 MLOAD PUSH1 0x40 MLOAD DUP1 SWAP2 SUB SWAP1 LOG3 POP PUSH17 0x1C35FEDD14FFFFFFFFFFFFFFFFFFFFFFFF PUSH1 0x2 PUSH1 0x20 PUSH1 0x80 DUP2 LT PUSH3 0x175 JUMPI PUSH32 0x4E487B7100000000000000000000000000000000000000000000000000000000 PUSH1 0x0 MSTORE PUSH1 0x32 PUSH1 0x4 MSTORE PUSH1 0x24 PUSH1 0x0 REVERT JUMPDEST ADD DUP2 SWAP1 SSTORE POP PUSH17 0x1B0CE43B323FFFFFFFFFFFFFFFFFFFFFFF PUSH1 0x2 PUSH1 0x21 PUSH1 0x80 DUP2 LT PUSH3 0x1C8 JUMPI PUSH32 0x4E487B7100000000000000000000000000000000000000000000000000000000 PUSH1 0x0 MSTORE PUSH1 0x32 PUSH1 0x4 MSTORE PUSH1 0x24 PUSH1 0x0 REVERT JUMPDEST ADD DUP2 SWAP1 SSTORE POP PUSH17 0x19F0028EC1FFFFFFFFFFFFFFFFFFFFFFFF PUSH1 0x2 PUSH1 0x22 PUSH1 0x80 DUP2 LT PUSH3 0x21B JUMPI PUSH32 0x4E487B7100000000000000000000000000000000000000000000000000000000 PUSH1 0x0 MSTORE PUSH1 0x32 PUSH1 0x4 MSTORE PUSH1 0x24 PUSH1 0x0 REVERT JUMPDEST ADD DUP2 SWAP1 SSTORE POP PUSH17 0x18DED91F0E7FFFFFFFFFFFFFFFFFFFFFFF PUSH1 0x2 PUSH1 0x23 PUSH1 0x80 DUP2 LT PUSH3 0x26E JUMPI PUSH32 0x4E487B7100000000000000000000000000000000000000000000000000000000 PUSH1 0x0 MSTORE PUSH1 0x32 PUSH1 0x4 MSTORE PUSH1 0x24 PUSH1 0x0 REVERT JUMPDEST ADD DUP2 SWAP1 SSTORE POP PUSH17 0x17D8EC7F0417FFFFFFFFFFFFFFFFFFFFFF PUSH1 0x2 PUSH1 0x24 PUSH1 0x80 DUP2 LT PUSH3 0x2C1 JUMPI PUSH32 0x4E487B7100000000000000000000000000000000000000000000000000000000 PUSH1 0x0 MSTORE PUSH1 0x32 PUSH1 0x4 MSTORE PUSH1 0x24 PUSH1 0x0 REVERT JUMPDEST ADD DUP2 SWAP1 SSTORE POP PUSH17 0x16DDC6556CDBFFFFFFFFFFFFFFFFFFFFFF PUSH1 0x2 PUSH1 0x25 PUSH1 0x80 DUP2 LT PUSH3 0x314 JUMPI PUSH32 0x4E487B7100000000000000000000000000000000000000000000000000000000 PUSH1 0x0 MSTORE PUSH1 0x32 PUSH1 0x4 MSTORE PUSH1 0x24 PUSH1 0x0 REVERT JUMPDEST ADD DUP2 SWAP1 SSTORE POP PUSH17 0x15ECF52776A1FFFFFFFFFFFFFFFFFFFFFF PUSH1 0x2 PUSH1 0x26 PUSH1 0x80 DUP2 LT PUSH3 0x367 JUMPI PUSH32 0x4E487B7100000000000000000000000000000000000000000000000000000000 PUSH1 0x0 MSTORE PUSH1 0x32 PUSH1 0x4 MSTORE PUSH1 0x24 PUSH1 0x0 REVERT JUMPDEST ADD DUP2 SWAP1 SSTORE POP PUSH17 0x15060C256CB2FFFFFFFFFFFFFFFFFFFFFF PUSH1 0x2 PUSH1 0x27 PUSH1 0x80 DUP2 LT PUSH3 0x3BA JUMPI PUSH32 0x4E487B7100000000000000000000000000000000000000000000000000000000 PUSH1 0x0 MSTORE PUSH1 0x32 PUSH1 0x4 MSTORE PUSH1 0x24 PUSH1 0x0 REVERT JUMPDEST ADD DUP2 SWAP1 SSTORE POP PUSH17 0x1428A2F98D72FFFFFFFFFFFFFFFFFFFFFF PUSH1 0x2 PUSH1 0x28 PUSH1 0x80 DUP2 LT PUSH3 0x40D JUMPI PUSH32 0x4E487B7100000000000000000000000000000000000000000000000000000000 PUSH1 0x0 MSTORE PUSH1 0x32 PUSH1 0x4 MSTORE PUSH1 0x24 PUSH1 0x0 REVERT JUMPDEST ADD DUP2 SWAP1 SSTORE POP PUSH17 0x13545598E5C23FFFFFFFFFFFFFFFFFFFFF PUSH1 0x2 PUSH1 0x29 PUSH1 0x80 DUP2 LT PUSH3 0x460 JUMPI PUSH32 0x4E487B7100000000000000000000000000000000000000000000000000000000 PUSH1 0x0 MSTORE PUSH1 0x32 PUSH1 0x4 MSTORE PUSH1 0x24 PUSH1 0x0 REVERT JUMPDEST ADD DUP2 SWAP1 SSTORE POP PUSH17 0x1288C4161CE1DFFFFFFFFFFFFFFFFFFFFF PUSH1 0x2 PUSH1 0x2A PUSH1 0x80 DUP2 LT PUSH3 0x4B3 JUMPI PUSH32 0x4E487B7100000000000000000000000000000000000000000000000000000000 PUSH1 0x0 MSTORE PUSH1 0x32 PUSH1 0x4 MSTORE PUSH1 0x24 PUSH1 0x0 REVERT JUMPDEST ADD DUP2 SWAP1 SSTORE POP PUSH17 0x11C592761C666FFFFFFFFFFFFFFFFFFFFF PUSH1 0x2 PUSH1 0x2B PUSH1 0x80 DUP2 LT PUSH3 0x506 JUMPI PUSH32 0x4E487B7100000000000000000000000000000000000000000000000000000000 PUSH1 0x0 MSTORE PUSH1 0x32 PUSH1 0x4 MSTORE PUSH1 0x24 PUSH1 0x0 REVERT JUMPDEST ADD DUP2 SWAP1 SSTORE POP PUSH17 0x110A688680A757FFFFFFFFFFFFFFFFFFFF PUSH1 0x2 PUSH1 0x2C PUSH1 0x80 DUP2 LT PUSH3 0x559 JUMPI PUSH32 0x4E487B7100000000000000000000000000000000000000000000000000000000 PUSH1 0x0 MSTORE PUSH1 0x32 PUSH1 0x4 MSTORE PUSH1 0x24 PUSH1 0x0 REVERT JUMPDEST ADD DUP2 SWAP1 SSTORE POP PUSH17 0x1056F1B5BEDF77FFFFFFFFFFFFFFFFFFFF PUSH1 0x2 PUSH1 0x2D PUSH1 0x80 DUP2 LT PUSH3 0x5AC JUMPI PUSH32 0x4E487B7100000000000000000000000000000000000000000000000000000000 PUSH1 0x0 MSTORE PUSH1 0x32 PUSH1 0x4 MSTORE PUSH1 0x24 PUSH1 0x0 REVERT JUMPDEST ADD DUP2 SWAP1 SSTORE POP PUSH17 0xFAADCECEEFF8BFFFFFFFFFFFFFFFFFFFF PUSH1 0x2 PUSH1 0x2E PUSH1 0x80 DUP2 LT PUSH3 0x5FF JUMPI PUSH32 0x4E487B7100000000000000000000000000000000000000000000000000000000 PUSH1 0x0 MSTORE PUSH1 0x32 PUSH1 0x4 MSTORE PUSH1 0x24 PUSH1 0x0 REVERT JUMPDEST ADD DUP2 SWAP1 SSTORE POP PUSH17 0xF05DC6B27EDADFFFFFFFFFFFFFFFFFFFF PUSH1 0x2 PUSH1 0x2F PUSH1 0x80 DUP2 LT PUSH3 0x652 JUMPI PUSH32 0x4E487B7100000000000000000000000000000000000000000000000000000000 PUSH1 0x0 MSTORE PUSH1 0x32 PUSH1 0x4 MSTORE PUSH1 0x24 PUSH1 0x0 REVERT JUMPDEST ADD DUP2 SWAP1 SSTORE POP PUSH17 0xE67A5A25DA4107FFFFFFFFFFFFFFFFFFF PUSH1 0x2 PUSH1 0x30 PUSH1 0x80 DUP2 LT PUSH3 0x6A5 JUMPI PUSH32 0x4E487B7100000000000000000000000000000000000000000000000000000000 PUSH1 0x0 MSTORE PUSH1 0x32 PUSH1 0x4 MSTORE PUSH1 0x24 PUSH1 0x0 REVERT JUMPDEST ADD DUP2 SWAP1 SSTORE POP PUSH17 0xDCFF115B14EEDFFFFFFFFFFFFFFFFFFFF PUSH1 0x2 PUSH1 0x31 PUSH1 0x80 DUP2 LT PUSH3 0x6F8 JUMPI PUSH32 0x4E487B7100000000000000000000000000000000000000000000000000000000 PUSH1 0x0 MSTORE PUSH1 0x32 PUSH1 0x4 MSTORE PUSH1 0x24 PUSH1 0x0 REVERT JUMPDEST ADD DUP2 SWAP1 SSTORE POP PUSH17 0xD3E7A392431239FFFFFFFFFFFFFFFFFFF PUSH1 0x2 PUSH1 0x32 PUSH1 0x80 DUP2 LT PUSH3 0x74B JUMPI PUSH32 0x4E487B7100000000000000000000000000000000000000000000000000000000 PUSH1 0x0 MSTORE PUSH1 0x32 PUSH1 0x4 MSTORE PUSH1 0x24 PUSH1 0x0 REVERT JUMPDEST ADD DUP2 SWAP1 SSTORE POP PUSH17 0xCB2FF529EB71E4FFFFFFFFFFFFFFFFFFF PUSH1 0x2 PUSH1 0x33 PUSH1 0x80 DUP2 LT PUSH3 0x79E JUMPI PUSH32 0x4E487B7100000000000000000000000000000000000000000000000000000000 PUSH1 0x0 MSTORE PUSH1 0x32 PUSH1 0x4 MSTORE PUSH1 0x24 PUSH1 0x0 REVERT JUMPDEST ADD DUP2 SWAP1 SSTORE POP PUSH17 0xC2D415C3DB974AFFFFFFFFFFFFFFFFFFF PUSH1 0x2 PUSH1 0x34 PUSH1 0x80 DUP2 LT PUSH3 0x7F1 JUMPI PUSH32 0x4E487B7100000000000000000000000000000000000000000000000000000000 PUSH1 0x0 MSTORE PUSH1 0x32 PUSH1 0x4 MSTORE PUSH1 0x24 PUSH1 0x0 REVERT JUMPDEST ADD DUP2 SWAP1 SSTORE POP PUSH17 0xBAD03E7D883F69BFFFFFFFFFFFFFFFFFF PUSH1 0x2 PUSH1 0x35 PUSH1 0x80 DUP2 LT PUSH3 0x844 JUMPI PUSH32 0x4E487B7100000000000000000000000000000000000000000000000000000000 PUSH1 0x0 MSTORE PUSH1 0x32 PUSH1 0x4 MSTORE PUSH1 0x24 PUSH1 0x0 REVERT JUMPDEST ADD DUP2 SWAP1 SSTORE POP PUSH17 0xB320D03B2C343D5FFFFFFFFFFFFFFFFFF PUSH1 0x2 PUSH1 0x36 PUSH1 0x80 DUP2 LT PUSH3 0x897 JUMPI PUSH32 0x4E487B7100000000000000000000000000000000000000000000000000000000 PUSH1 0x0 MSTORE PUSH1 0x32 PUSH1 0x4 MSTORE PUSH1 0x24 PUSH1 0x0 REVERT JUMPDEST ADD DUP2 SWAP1 SSTORE POP PUSH17 0xABC25204E02828DFFFFFFFFFFFFFFFFFF PUSH1 0x2 PUSH1 0x37 PUSH1 0x80 DUP2 LT PUSH3 0x8EA JUMPI PUSH32 0x4E487B7100000000000000000000000000000000000000000000000000000000 PUSH1 0x0 MSTORE PUSH1 0x32 PUSH1 0x4 MSTORE PUSH1 0x24 PUSH1 0x0 REVERT JUMPDEST ADD DUP2 SWAP1 SSTORE POP PUSH17 0xA4B16F74EE4BB207FFFFFFFFFFFFFFFFF PUSH1 0x2 PUSH1 0x38 PUSH1 0x80 DUP2 LT PUSH3 0x93D JUMPI PUSH32 0x4E487B7100000000000000000000000000000000000000000000000000000000 PUSH1 0x0 MSTORE PUSH1 0x32 PUSH1 0x4 MSTORE PUSH1 0x24 PUSH1 0x0 REVERT JUMPDEST ADD DUP2 SWAP1 SSTORE POP PUSH17 0x9DEAF736AC1F569FFFFFFFFFFFFFFFFFF PUSH1 0x2 PUSH1 0x39 PUSH1 0x80 DUP2 LT PUSH3 0x990 JUMPI PUSH32 0x4E487B7100000000000000000000000000000000000000000000000000000000 PUSH1 0x0 MSTORE PUSH1 0x32 PUSH1 0x4 MSTORE PUSH1 0x24 PUSH1 0x0 REVERT JUMPDEST ADD DUP2 SWAP1 SSTORE POP PUSH17 0x976BD9952C7AA957FFFFFFFFFFFFFFFFF PUSH1 0x2 PUSH1 0x3A PUSH1 0x80 DUP2 LT PUSH3 0x9E3 JUMPI PUSH32 0x4E487B7100000000000000000000000000000000000000000000000000000000 PUSH1 0x0 MSTORE PUSH1 0x32 PUSH1 0x4 MSTORE PUSH1 0x24 PUSH1 0x0 REVERT JUMPDEST ADD DUP2 SWAP1 SSTORE POP PUSH17 0x9131271922EAA606FFFFFFFFFFFFFFFFF PUSH1 0x2 PUSH1 0x3B PUSH1 0x80 DUP2 LT PUSH3 0xA36 JUMPI PUSH32 0x4E487B7100000000000000000000000000000000000000000000000000000000 PUSH1 0x0 MSTORE PUSH1 0x32 PUSH1 0x4 MSTORE PUSH1 0x24 PUSH1 0x0 REVERT JUMPDEST ADD DUP2 SWAP1 SSTORE POP PUSH17 0x8B380F3558668C46FFFFFFFFFFFFFFFFF PUSH1 0x2 PUSH1 0x3C PUSH1 0x80 DUP2 LT PUSH3 0xA89 JUMPI PUSH32 0x4E487B7100000000000000000000000000000000000000000000000000000000 PUSH1 0x0 MSTORE PUSH1 0x32 PUSH1 0x4 MSTORE PUSH1 0x24 PUSH1 0x0 REVERT JUMPDEST ADD DUP2 SWAP1 SSTORE POP PUSH17 0x857DDF0117EFA215BFFFFFFFFFFFFFFFF PUSH1 0x2 PUSH1 0x3D PUSH1 0x80 DUP2 LT PUSH3 0xADC JUMPI PUSH32 0x4E487B7100000000000000000000000000000000000000000000000000000000 PUSH1 0x0 MSTORE PUSH1 0x32 PUSH1 0x4 MSTORE PUSH1 0x24 PUSH1 0x0 REVERT JUMPDEST ADD DUP2 SWAP1 SSTORE POP PUSH17 0x7FFFFFFFFFFFFFFFFFFFFFFFFFFFFFFFF PUSH1 0x2 PUSH1 0x3E PUSH1 0x80 DUP2 LT PUSH3 0xB2F JUMPI PUSH32 0x4E487B7100000000000000000000000000000000000000000000000000000000 PUSH1 0x0 MSTORE PUSH1 0x32 PUSH1 0x4 MSTORE PUSH1 0x24 PUSH1 0x0 REVERT JUMPDEST ADD DUP2 SWAP1 SSTORE POP PUSH17 0x7ABBF6F6ABB9D087FFFFFFFFFFFFFFFFF PUSH1 0x2 PUSH1 0x3F PUSH1 0x80 DUP2 LT PUSH3 0xB82 JUMPI PUSH32 0x4E487B7100000000000000000000000000000000000000000000000000000000 PUSH1 0x0 MSTORE PUSH1 0x32 PUSH1 0x4 MSTORE PUSH1 0x24 PUSH1 0x0 REVERT JUMPDEST ADD DUP2 SWAP1 SSTORE POP PUSH17 0x75AF62CBAC95F7DFA7FFFFFFFFFFFFFFF PUSH1 0x2 PUSH1 0x40 PUSH1 0x80 DUP2 LT PUSH3 0xBD5 JUMPI PUSH32 0x4E487B7100000000000000000000000000000000000000000000000000000000 PUSH1 0x0 MSTORE PUSH1 0x32 PUSH1 0x4 MSTORE PUSH1 0x24 PUSH1 0x0 REVERT JUMPDEST ADD DUP2 SWAP1 SSTORE POP PUSH17 0x70D7FB7452E187AC13FFFFFFFFFFFFFFF PUSH1 0x2 PUSH1 0x41 PUSH1 0x80 DUP2 LT PUSH3 0xC28 JUMPI PUSH32 0x4E487B7100000000000000000000000000000000000000000000000000000000 PUSH1 0x0 MSTORE PUSH1 0x32 PUSH1 0x4 MSTORE PUSH1 0x24 PUSH1 0x0 REVERT JUMPDEST ADD DUP2 SWAP1 SSTORE POP PUSH17 0x6C3390ECC8AF379295FFFFFFFFFFFFFFF PUSH1 0x2 PUSH1 0x42 PUSH1 0x80 DUP2 LT PUSH3 0xC7B JUMPI PUSH32 0x4E487B7100000000000000000000000000000000000000000000000000000000 PUSH1 0x0 MSTORE PUSH1 0x32 PUSH1 0x4 MSTORE PUSH1 0x24 PUSH1 0x0 REVERT JUMPDEST ADD DUP2 SWAP1 SSTORE POP PUSH17 0x67C00A3B07FFC01FD6FFFFFFFFFFFFFFF PUSH1 0x2 PUSH1 0x43 PUSH1 0x80 DUP2 LT PUSH3 0xCCE JUMPI PUSH32 0x4E487B7100000000000000000000000000000000000000000000000000000000 PUSH1 0x0 MSTORE PUSH1 0x32 PUSH1 0x4 MSTORE PUSH1 0x24 PUSH1 0x0 REVERT JUMPDEST ADD DUP2 SWAP1 SSTORE POP PUSH17 0x637B647C39CBB9D3D27FFFFFFFFFFFFFF PUSH1 0x2 PUSH1 0x44 PUSH1 0x80 DUP2 LT PUSH3 0xD21 JUMPI PUSH32 0x4E487B7100000000000000000000000000000000000000000000000000000000 PUSH1 0x0 MSTORE PUSH1 0x32 PUSH1 0x4 MSTORE PUSH1 0x24 PUSH1 0x0 REVERT JUMPDEST ADD DUP2 SWAP1 SSTORE POP PUSH17 0x5F63B1FC104DBD39587FFFFFFFFFFFFFF PUSH1 0x2 PUSH1 0x45 PUSH1 0x80 DUP2 LT PUSH3 0xD74 JUMPI PUSH32 0x4E487B7100000000000000000000000000000000000000000000000000000000 PUSH1 0x0 MSTORE PUSH1 0x32 PUSH1 0x4 MSTORE PUSH1 0x24 PUSH1 0x0 REVERT JUMPDEST ADD DUP2 SWAP1 SSTORE POP PUSH17 0x5B771955B36E12F7235FFFFFFFFFFFFFF PUSH1 0x2 PUSH1 0x46 PUSH1 0x80 DUP2 LT PUSH3 0xDC7 JUMPI PUSH32 0x4E487B7100000000000000000000000000000000000000000000000000000000 PUSH1 0x0 MSTORE PUSH1 0x32 PUSH1 0x4 MSTORE PUSH1 0x24 PUSH1 0x0 REVERT JUMPDEST ADD DUP2 SWAP1 SSTORE POP PUSH17 0x57B3D49DDA84556D6F6FFFFFFFFFFFFFF PUSH1 0x2 PUSH1 0x47 PUSH1 0x80 DUP2 LT PUSH3 0xE1A JUMPI PUSH32 0x4E487B7100000000000000000000000000000000000000000000000000000000 PUSH1 0x0 MSTORE PUSH1 0x32 PUSH1 0x4 MSTORE PUSH1 0x24 PUSH1 0x0 REVERT JUMPDEST ADD DUP2 SWAP1 SSTORE POP PUSH17 0x54183095B2C8ECECF30FFFFFFFFFFFFFF PUSH1 0x2 PUSH1 0x48 PUSH1 0x80 DUP2 LT PUSH3 0xE6D JUMPI PUSH32 0x4E487B7100000000000000000000000000000000000000000000000000000000 PUSH1 0x0 MSTORE PUSH1 0x32 PUSH1 0x4 MSTORE PUSH1 0x24 PUSH1 0x0 REVERT JUMPDEST ADD DUP2 SWAP1 SSTORE POP PUSH17 0x50A28BE635CA2B888F77FFFFFFFFFFFFF PUSH1 0x2 PUSH1 0x49 PUSH1 0x80 DUP2 LT PUSH3 0xEC0 JUMPI PUSH32 0x4E487B7100000000000000000000000000000000000000000000000000000000 PUSH1 0x0 MSTORE PUSH1 0x32 PUSH1 0x4 MSTORE PUSH1 0x24 PUSH1 0x0 REVERT JUMPDEST ADD DUP2 SWAP1 SSTORE POP PUSH17 0x4D5156639708C9DB33C3FFFFFFFFFFFFF PUSH1 0x2 PUSH1 0x4A PUSH1 0x80 DUP2 LT PUSH3 0xF13 JUMPI PUSH32 0x4E487B7100000000000000000000000000000000000000000000000000000000 PUSH1 0x0 MSTORE PUSH1 0x32 PUSH1 0x4 MSTORE PUSH1 0x24 PUSH1 0x0 REVERT JUMPDEST ADD DUP2 SWAP1 SSTORE POP PUSH17 0x4A23105873875BD52DFDFFFFFFFFFFFFF PUSH1 0x2 PUSH1 0x4B PUSH1 0x80 DUP2 LT PUSH3 0xF66 JUMPI PUSH32 0x4E487B7100000000000000000000000000000000000000000000000000000000 PUSH1 0x0 MSTORE PUSH1 0x32 PUSH1 0x4 MSTORE PUSH1 0x24 PUSH1 0x0 REVERT JUMPDEST ADD DUP2 SWAP1 SSTORE POP PUSH17 0x471649D87199AA990756FFFFFFFFFFFFF PUSH1 0x2 PUSH1 0x4C PUSH1 0x80 DUP2 LT PUSH3 0xFB9 JUMPI PUSH32 0x4E487B7100000000000000000000000000000000000000000000000000000000 PUSH1 0x0 MSTORE PUSH1 0x32 PUSH1 0x4 MSTORE PUSH1 0x24 PUSH1 0x0 REVERT JUMPDEST ADD DUP2 SWAP1 SSTORE POP PUSH17 0x4429A21A029D4C1457CFBFFFFFFFFFFFF PUSH1 0x2 PUSH1 0x4D PUSH1 0x80 DUP2 LT PUSH3 0x100C JUMPI PUSH32 0x4E487B7100000000000000000000000000000000000000000000000000000000 PUSH1 0x0 MSTORE PUSH1 0x32 PUSH1 0x4 MSTORE PUSH1 0x24 PUSH1 0x0 REVERT JUMPDEST ADD DUP2 SWAP1 SSTORE POP PUSH17 0x415BC6D6FB7DD71AF2CB3FFFFFFFFFFFF PUSH1 0x2 PUSH1 0x4E PUSH1 0x80 DUP2 LT PUSH3 0x105F JUMPI PUSH32 0x4E487B7100000000000000000000000000000000000000000000000000000000 PUSH1 0x0 MSTORE PUSH1 0x32 PUSH1 0x4 MSTORE PUSH1 0x24 PUSH1 0x0 REVERT JUMPDEST ADD DUP2 SWAP1 SSTORE POP PUSH17 0x3EAB73B3BBFE282243CE1FFFFFFFFFFFF PUSH1 0x2 PUSH1 0x4F PUSH1 0x80 DUP2 LT PUSH3 0x10B2 JUMPI PUSH32 0x4E487B7100000000000000000000000000000000000000000000000000000000 PUSH1 0x0 MSTORE PUSH1 0x32 PUSH1 0x4 MSTORE PUSH1 0x24 PUSH1 0x0 REVERT JUMPDEST ADD DUP2 SWAP1 SSTORE POP PUSH17 0x3C1771AC9FB6B4C18E229FFFFFFFFFFFF PUSH1 0x2 PUSH1 0x50 PUSH1 0x80 DUP2 LT PUSH3 0x1105 JUMPI PUSH32 0x4E487B7100000000000000000000000000000000000000000000000000000000 PUSH1 0x0 MSTORE PUSH1 0x32 PUSH1 0x4 MSTORE PUSH1 0x24 PUSH1 0x0 REVERT JUMPDEST ADD DUP2 SWAP1 SSTORE POP PUSH17 0x399E96897690418F785257FFFFFFFFFFF PUSH1 0x2 PUSH1 0x51 PUSH1 0x80 DUP2 LT PUSH3 0x1158 JUMPI PUSH32 0x4E487B7100000000000000000000000000000000000000000000000000000000 PUSH1 0x0 MSTORE PUSH1 0x32 PUSH1 0x4 MSTORE PUSH1 0x24 PUSH1 0x0 REVERT JUMPDEST ADD DUP2 SWAP1 SSTORE POP PUSH17 0x373FC456C53BB779BF0EA9FFFFFFFFFFF PUSH1 0x2 PUSH1 0x52 PUSH1 0x80 DUP2 LT PUSH3 0x11AB JUMPI PUSH32 0x4E487B7100000000000000000000000000000000000000000000000000000000 PUSH1 0x0 MSTORE PUSH1 0x32 PUSH1 0x4 MSTORE PUSH1 0x24 PUSH1 0x0 REVERT JUMPDEST ADD DUP2 SWAP1 SSTORE POP PUSH17 0x34F9E8E490C48E67E6AB8BFFFFFFFFFFF PUSH1 0x2 PUSH1 0x53 PUSH1 0x80 DUP2 LT PUSH3 0x11FE JUMPI PUSH32 0x4E487B7100000000000000000000000000000000000000000000000000000000 PUSH1 0x0 MSTORE PUSH1 0x32 PUSH1 0x4 MSTORE PUSH1 0x24 PUSH1 0x0 REVERT JUMPDEST ADD DUP2 SWAP1 SSTORE POP PUSH17 0x32CBFD4A7ADC790560B3337FFFFFFFFFF PUSH1 0x2 PUSH1 0x54 PUSH1 0x80 DUP2 LT PUSH3 0x1251 JUMPI PUSH32 0x4E487B7100000000000000000000000000000000000000000000000000000000 PUSH1 0x0 MSTORE PUSH1 0x32 PUSH1 0x4 MSTORE PUSH1 0x24 PUSH1 0x0 REVERT JUMPDEST ADD DUP2 SWAP1 SSTORE POP PUSH17 0x30B50570F6E5D2ACCA94613FFFFFFFFFF PUSH1 0x2 PUSH1 0x55 PUSH1 0x80 DUP2 LT PUSH3 0x12A4 JUMPI PUSH32 0x4E487B7100000000000000000000000000000000000000000000000000000000 PUSH1 0x0 MSTORE PUSH1 0x32 PUSH1 0x4 MSTORE PUSH1 0x24 PUSH1 0x0 REVERT JUMPDEST ADD DUP2 SWAP1 SSTORE POP PUSH17 0x2EB40F9F620FDA6B56C2861FFFFFFFFFF PUSH1 0x2 PUSH1 0x56 PUSH1 0x80 DUP2 LT PUSH3 0x12F7 JUMPI PUSH32 0x4E487B7100000000000000000000000000000000000000000000000000000000 PUSH1 0x0 MSTORE PUSH1 0x32 PUSH1 0x4 MSTORE PUSH1 0x24 PUSH1 0x0 REVERT JUMPDEST ADD DUP2 SWAP1 SSTORE POP PUSH17 0x2CC8340ECB0D0F520A6AF58FFFFFFFFFF PUSH1 0x2 PUSH1 0x57 PUSH1 0x80 DUP2 LT PUSH3 0x134A JUMPI PUSH32 0x4E487B7100000000000000000000000000000000000000000000000000000000 PUSH1 0x0 MSTORE PUSH1 0x32 PUSH1 0x4 MSTORE PUSH1 0x24 PUSH1 0x0 REVERT JUMPDEST ADD DUP2 SWAP1 SSTORE POP PUSH17 0x2AF09481380A0A35CF1BA02FFFFFFFFFF PUSH1 0x2 PUSH1 0x58 PUSH1 0x80 DUP2 LT PUSH3 0x139D JUMPI PUSH32 0x4E487B7100000000000000000000000000000000000000000000000000000000 PUSH1 0x0 MSTORE PUSH1 0x32 PUSH1 0x4 MSTORE PUSH1 0x24 PUSH1 0x0 REVERT JUMPDEST ADD DUP2 SWAP1 SSTORE POP PUSH17 0x292C5BDD3B92EC810287B1B3FFFFFFFFF PUSH1 0x2 PUSH1 0x59 PUSH1 0x80 DUP2 LT PUSH3 0x13F0 JUMPI PUSH32 0x4E487B7100000000000000000000000000000000000000000000000000000000 PUSH1 0x0 MSTORE PUSH1 0x32 PUSH1 0x4 MSTORE PUSH1 0x24 PUSH1 0x0 REVERT JUMPDEST ADD DUP2 SWAP1 SSTORE POP PUSH17 0x277ABDCDAB07D5A77AC6D6B9FFFFFFFFF PUSH1 0x2 PUSH1 0x5A PUSH1 0x80 DUP2 LT PUSH3 0x1443 JUMPI PUSH32 0x4E487B7100000000000000000000000000000000000000000000000000000000 PUSH1 0x0 MSTORE PUSH1 0x32 PUSH1 0x4 MSTORE PUSH1 0x24 PUSH1 0x0 REVERT JUMPDEST ADD DUP2 SWAP1 SSTORE POP PUSH17 0x25DAF6654B1EAA55FD64DF5EFFFFFFFFF PUSH1 0x2 PUSH1 0x5B PUSH1 0x80 DUP2 LT PUSH3 0x1496 JUMPI PUSH32 0x4E487B7100000000000000000000000000000000000000000000000000000000 PUSH1 0x0 MSTORE PUSH1 0x32 PUSH1 0x4 MSTORE PUSH1 0x24 PUSH1 0x0 REVERT JUMPDEST ADD DUP2 SWAP1 SSTORE POP PUSH17 0x244C49C648BAA98192DCE88B7FFFFFFFF PUSH1 0x2 PUSH1 0x5C PUSH1 0x80 DUP2 LT PUSH3 0x14E9 JUMPI PUSH32 0x4E487B7100000000000000000000000000000000000000000000000000000000 PUSH1 0x0 MSTORE PUSH1 0x32 PUSH1 0x4 MSTORE PUSH1 0x24 PUSH1 0x0 REVERT JUMPDEST ADD DUP2 SWAP1 SSTORE POP PUSH17 0x22CE03CD5619A311B2471268BFFFFFFFF PUSH1 0x2 PUSH1 0x5D PUSH1 0x80 DUP2 LT PUSH3 0x153C JUMPI PUSH32 0x4E487B7100000000000000000000000000000000000000000000000000000000 PUSH1 0x0 MSTORE PUSH1 0x32 PUSH1 0x4 MSTORE PUSH1 0x24 PUSH1 0x0 REVERT JUMPDEST ADD DUP2 SWAP1 SSTORE POP PUSH17 0x215F77C045FBE885654A44A0FFFFFFFFF PUSH1 0x2 PUSH1 0x5E PUSH1 0x80 DUP2 LT PUSH3 0x158F JUMPI PUSH32 0x4E487B7100000000000000000000000000000000000000000000000000000000 PUSH1 0x0 MSTORE PUSH1 0x32 PUSH1 0x4 MSTORE PUSH1 0x24 PUSH1 0x0 REVERT JUMPDEST ADD DUP2 SWAP1 SSTORE POP PUSH17 0x1FFFFFFFFFFFFFFFFFFFFFFFFFFFFFFFF PUSH1 0x2 PUSH1 0x5F PUSH1 0x80 DUP2 LT PUSH3 0x15E2 JUMPI PUSH32 0x4E487B7100000000000000000000000000000000000000000000000000000000 PUSH1 0x0 MSTORE PUSH1 0x32 PUSH1 0x4 MSTORE PUSH1 0x24 PUSH1 0x0 REVERT JUMPDEST ADD DUP2 SWAP1 SSTORE POP PUSH17 0x1EAEFDBDAAEE7421FC4D3EDE5FFFFFFFF PUSH1 0x2 PUSH1 0x60 PUSH1 0x80 DUP2 LT PUSH3 0x1635 JUMPI PUSH32 0x4E487B7100000000000000000000000000000000000000000000000000000000 PUSH1 0x0 MSTORE PUSH1 0x32 PUSH1 0x4 MSTORE PUSH1 0x24 PUSH1 0x0 REVERT JUMPDEST ADD DUP2 SWAP1 SSTORE POP PUSH17 0x1D6BD8B2EB257DF7E8CA57B09BFFFFFFF PUSH1 0x2 PUSH1 0x61 PUSH1 0x80 DUP2 LT PUSH3 0x1688 JUMPI PUSH32 0x4E487B7100000000000000000000000000000000000000000000000000000000 PUSH1 0x0 MSTORE PUSH1 0x32 PUSH1 0x4 MSTORE PUSH1 0x24 PUSH1 0x0 REVERT JUMPDEST ADD DUP2 SWAP1 SSTORE POP PUSH17 0x1C35FEDD14B861EB0443F7F133FFFFFFF PUSH1 0x2 PUSH1 0x62 PUSH1 0x80 DUP2 LT PUSH3 0x16DB JUMPI PUSH32 0x4E487B7100000000000000000000000000000000000000000000000000000000 PUSH1 0x0 MSTORE PUSH1 0x32 PUSH1 0x4 MSTORE PUSH1 0x24 PUSH1 0x0 REVERT JUMPDEST ADD DUP2 SWAP1 SSTORE POP PUSH17 0x1B0CE43B322BCDE4A56E8ADA5AFFFFFFF PUSH1 0x2 PUSH1 0x63 PUSH1 0x80 DUP2 LT PUSH3 0x172E JUMPI PUSH32 0x4E487B7100000000000000000000000000000000000000000000000000000000 PUSH1 0x0 MSTORE PUSH1 0x32 PUSH1 0x4 MSTORE PUSH1 0x24 PUSH1 0x0 REVERT JUMPDEST ADD DUP2 SWAP1 SSTORE POP PUSH17 0x19F0028EC1FFF007F5A195A39DFFFFFFF PUSH1 0x2 PUSH1 0x64 PUSH1 0x80 DUP2 LT PUSH3 0x1781 JUMPI PUSH32 0x4E487B7100000000000000000000000000000000000000000000000000000000 PUSH1 0x0 MSTORE PUSH1 0x32 PUSH1 0x4 MSTORE PUSH1 0x24 PUSH1 0x0 REVERT JUMPDEST ADD DUP2 SWAP1 SSTORE POP PUSH17 0x18DED91F0E72EE74F49B15BA527FFFFFF PUSH1 0x2 PUSH1 0x65 PUSH1 0x80 DUP2 LT PUSH3 0x17D4 JUMPI PUSH32 0x4E487B7100000000000000000000000000000000000000000000000000000000 PUSH1 0x0 MSTORE PUSH1 0x32 PUSH1 0x4 MSTORE PUSH1 0x24 PUSH1 0x0 REVERT JUMPDEST ADD DUP2 SWAP1 SSTORE POP PUSH17 0x17D8EC7F04136F4E5615FD41A63FFFFFF PUSH1 0x2 PUSH1 0x66 PUSH1 0x80 DUP2 LT PUSH3 0x1827 JUMPI PUSH32 0x4E487B7100000000000000000000000000000000000000000000000000000000 PUSH1 0x0 MSTORE PUSH1 0x32 PUSH1 0x4 MSTORE PUSH1 0x24 PUSH1 0x0 REVERT JUMPDEST ADD DUP2 SWAP1 SSTORE POP PUSH17 0x16DDC6556CDB84BDC8D12D22E6FFFFFFF PUSH1 0x2 PUSH1 0x67 PUSH1 0x80 DUP2 LT PUSH3 0x187A JUMPI PUSH32 0x4E487B7100000000000000000000000000000000000000000000000000000000 PUSH1 0x0 MSTORE PUSH1 0x32 PUSH1 0x4 MSTORE PUSH1 0x24 PUSH1 0x0 REVERT JUMPDEST ADD DUP2 SWAP1 SSTORE POP PUSH17 0x15ECF52776A1155B5BD8395814F7FFFFF PUSH1 0x2 PUSH1 0x68 PUSH1 0x80 DUP2 LT PUSH3 0x18CD JUMPI PUSH32 0x4E487B7100000000000000000000000000000000000000000000000000000000 PUSH1 0x0 MSTORE PUSH1 0x32 PUSH1 0x4 MSTORE PUSH1 0x24 PUSH1 0x0 REVERT JUMPDEST ADD DUP2 SWAP1 SSTORE POP PUSH17 0x15060C256CB23B3B3CC3754CF40FFFFFF PUSH1 0x2 PUSH1 0x69 PUSH1 0x80 DUP2 LT PUSH3 0x1920 JUMPI PUSH32 0x4E487B7100000000000000000000000000000000000000000000000000000000 PUSH1 0x0 MSTORE PUSH1 0x32 PUSH1 0x4 MSTORE PUSH1 0x24 PUSH1 0x0 REVERT JUMPDEST ADD DUP2 SWAP1 SSTORE POP PUSH17 0x1428A2F98D728AE223DDAB715BE3FFFFF PUSH1 0x2 PUSH1 0x6A PUSH1 0x80 DUP2 LT PUSH3 0x1973 JUMPI PUSH32 0x4E487B7100000000000000000000000000000000000000000000000000000000 PUSH1 0x0 MSTORE PUSH1 0x32 PUSH1 0x4 MSTORE PUSH1 0x24 PUSH1 0x0 REVERT JUMPDEST ADD DUP2 SWAP1 SSTORE POP PUSH17 0x13545598E5C23276CCF0EDE68034FFFFF PUSH1 0x2 PUSH1 0x6B PUSH1 0x80 DUP2 LT PUSH3 0x19C6 JUMPI PUSH32 0x4E487B7100000000000000000000000000000000000000000000000000000000 PUSH1 0x0 MSTORE PUSH1 0x32 PUSH1 0x4 MSTORE PUSH1 0x24 PUSH1 0x0 REVERT JUMPDEST ADD DUP2 SWAP1 SSTORE POP PUSH17 0x1288C4161CE1D6F54B7F61081194FFFFF PUSH1 0x2 PUSH1 0x6C PUSH1 0x80 DUP2 LT PUSH3 0x1A19 JUMPI PUSH32 0x4E487B7100000000000000000000000000000000000000000000000000000000 PUSH1 0x0 MSTORE PUSH1 0x32 PUSH1 0x4 MSTORE PUSH1 0x24 PUSH1 0x0 REVERT JUMPDEST ADD DUP2 SWAP1 SSTORE POP PUSH17 0x11C592761C666AA641D5A01A40F17FFFF PUSH1 0x2 PUSH1 0x6D PUSH1 0x80 DUP2 LT PUSH3 0x1A6C JUMPI PUSH32 0x4E487B7100000000000000000000000000000000000000000000000000000000 PUSH1 0x0 MSTORE PUSH1 0x32 PUSH1 0x4 MSTORE PUSH1 0x24 PUSH1 0x0 REVERT JUMPDEST ADD DUP2 SWAP1 SSTORE POP PUSH17 0x110A688680A7530515F3E6E6CFDCDFFFF PUSH1 0x2 PUSH1 0x6E PUSH1 0x80 DUP2 LT PUSH3 0x1ABF JUMPI PUSH32 0x4E487B7100000000000000000000000000000000000000000000000000000000 PUSH1 0x0 MSTORE PUSH1 0x32 PUSH1 0x4 MSTORE PUSH1 0x24 PUSH1 0x0 REVERT JUMPDEST ADD DUP2 SWAP1 SSTORE POP PUSH17 0x1056F1B5BEDF75C6BCB2CE8AED428FFFF PUSH1 0x2 PUSH1 0x6F PUSH1 0x80 DUP2 LT PUSH3 0x1B12 JUMPI PUSH32 0x4E487B7100000000000000000000000000000000000000000000000000000000 PUSH1 0x0 MSTORE PUSH1 0x32 PUSH1 0x4 MSTORE PUSH1 0x24 PUSH1 0x0 REVERT JUMPDEST ADD DUP2 SWAP1 SSTORE POP PUSH16 0xFAADCECEEFF8A0890F3875F008277FFF PUSH1 0x2 PUSH1 0x70 PUSH1 0x80 DUP2 LT PUSH3 0x1B64 JUMPI PUSH32 0x4E487B7100000000000000000000000000000000000000000000000000000000 PUSH1 0x0 MSTORE PUSH1 0x32 PUSH1 0x4 MSTORE PUSH1 0x24 PUSH1 0x0 REVERT JUMPDEST ADD DUP2 SWAP1 SSTORE POP PUSH16 0xF05DC6B27EDAD306388A600F6BA0BFFF PUSH1 0x2 PUSH1 0x71 PUSH1 0x80 DUP2 LT PUSH3 0x1BB6 JUMPI PUSH32 0x4E487B7100000000000000000000000000000000000000000000000000000000 PUSH1 0x0 MSTORE PUSH1 0x32 PUSH1 0x4 MSTORE PUSH1 0x24 PUSH1 0x0 REVERT JUMPDEST ADD DUP2 SWAP1 SSTORE POP PUSH16 0xE67A5A25DA41063DE1495D5B18CDBFFF PUSH1 0x2 PUSH1 0x72 PUSH1 0x80 DUP2 LT PUSH3 0x1C08 JUMPI PUSH32 0x4E487B7100000000000000000000000000000000000000000000000000000000 PUSH1 0x0 MSTORE PUSH1 0x32 PUSH1 0x4 MSTORE PUSH1 0x24 PUSH1 0x0 REVERT JUMPDEST ADD DUP2 SWAP1 SSTORE POP PUSH16 0xDCFF115B14EEDDE6FC3AA5353F2E4FFF PUSH1 0x2 PUSH1 0x73 PUSH1 0x80 DUP2 LT PUSH3 0x1C5A JUMPI PUSH32 0x4E487B7100000000000000000000000000000000000000000000000000000000 PUSH1 0x0 MSTORE PUSH1 0x32 PUSH1 0x4 MSTORE PUSH1 0x24 PUSH1 0x0 REVERT JUMPDEST ADD DUP2 SWAP1 SSTORE POP PUSH16 0xD3E7A3924312399F9AAE2E0F868F8FFF PUSH1 0x2 PUSH1 0x74 PUSH1 0x80 DUP2 LT PUSH3 0x1CAC JUMPI PUSH32 0x4E487B7100000000000000000000000000000000000000000000000000000000 PUSH1 0x0 MSTORE PUSH1 0x32 PUSH1 0x4 MSTORE PUSH1 0x24 PUSH1 0x0 REVERT JUMPDEST ADD DUP2 SWAP1 SSTORE POP PUSH16 0xCB2FF529EB71E41582CCCD5A1EE26FFF PUSH1 0x2 PUSH1 0x75 PUSH1 0x80 DUP2 LT PUSH3 0x1CFE JUMPI PUSH32 0x4E487B7100000000000000000000000000000000000000000000000000000000 PUSH1 0x0 MSTORE PUSH1 0x32 PUSH1 0x4 MSTORE PUSH1 0x24 PUSH1 0x0 REVERT JUMPDEST ADD DUP2 SWAP1 SSTORE POP PUSH16 0xC2D415C3DB974AB32A51840C0B67EDFF PUSH1 0x2 PUSH1 0x76 PUSH1 0x80 DUP2 LT PUSH3 0x1D50 JUMPI PUSH32 0x4E487B7100000000000000000000000000000000000000000000000000000000 PUSH1 0x0 MSTORE PUSH1 0x32 PUSH1 0x4 MSTORE PUSH1 0x24 PUSH1 0x0 REVERT JUMPDEST ADD DUP2 SWAP1 SSTORE POP PUSH16 0xBAD03E7D883F69AD5B0A186184E06BFF PUSH1 0x2 PUSH1 0x77 PUSH1 0x80 DUP2 LT PUSH3 0x1DA2 JUMPI PUSH32 0x4E487B7100000000000000000000000000000000000000000000000000000000 PUSH1 0x0 MSTORE PUSH1 0x32 PUSH1 0x4 MSTORE PUSH1 0x24 PUSH1 0x0 REVERT JUMPDEST ADD DUP2 SWAP1 SSTORE POP PUSH16 0xB320D03B2C343D4829ABD6075F0CC5FF PUSH1 0x2 PUSH1 0x78 PUSH1 0x80 DUP2 LT PUSH3 0x1DF4 JUMPI PUSH32 0x4E487B7100000000000000000000000000000000000000000000000000000000 PUSH1 0x0 MSTORE PUSH1 0x32 PUSH1 0x4 MSTORE PUSH1 0x24 PUSH1 0x0 REVERT JUMPDEST ADD DUP2 SWAP1 SSTORE POP PUSH16 0xABC25204E02828D73C6E80BCDB1A95BF PUSH1 0x2 PUSH1 0x79 PUSH1 0x80 DUP2 LT PUSH3 0x1E46 JUMPI PUSH32 0x4E487B7100000000000000000000000000000000000000000000000000000000 PUSH1 0x0 MSTORE PUSH1 0x32 PUSH1 0x4 MSTORE PUSH1 0x24 PUSH1 0x0 REVERT JUMPDEST ADD DUP2 SWAP1 SSTORE POP PUSH16 0xA4B16F74EE4BB2040A1EC6C15FBBF2DF PUSH1 0x2 PUSH1 0x7A PUSH1 0x80 DUP2 LT PUSH3 0x1E98 JUMPI PUSH32 0x4E487B7100000000000000000000000000000000000000000000000000000000 PUSH1 0x0 MSTORE PUSH1 0x32 PUSH1 0x4 MSTORE PUSH1 0x24 PUSH1 0x0 REVERT JUMPDEST ADD DUP2 SWAP1 SSTORE POP PUSH16 0x9DEAF736AC1F569DEB1B5AE3F36C130F PUSH1 0x2 PUSH1 0x7B PUSH1 0x80 DUP2 LT PUSH3 0x1EEA JUMPI PUSH32 0x4E487B7100000000000000000000000000000000000000000000000000000000 PUSH1 0x0 MSTORE PUSH1 0x32 PUSH1 0x4 MSTORE PUSH1 0x24 PUSH1 0x0 REVERT JUMPDEST ADD DUP2 SWAP1 SSTORE POP PUSH16 0x976BD9952C7AA957F5937D790EF65037 PUSH1 0x2 PUSH1 0x7C PUSH1 0x80 DUP2 LT PUSH3 0x1F3C JUMPI PUSH32 0x4E487B7100000000000000000000000000000000000000000000000000000000 PUSH1 0x0 MSTORE PUSH1 0x32 PUSH1 0x4 MSTORE PUSH1 0x24 PUSH1 0x0 REVERT JUMPDEST ADD DUP2 SWAP1 SSTORE POP PUSH16 0x9131271922EAA6064B73A22D0BD4F2BF PUSH1 0x2 PUSH1 0x7D PUSH1 0x80 DUP2 LT PUSH3 0x1F8E JUMPI PUSH32 0x4E487B7100000000000000000000000000000000000000000000000000000000 PUSH1 0x0 MSTORE PUSH1 0x32 PUSH1 0x4 MSTORE PUSH1 0x24 PUSH1 0x0 REVERT JUMPDEST ADD DUP2 SWAP1 SSTORE POP PUSH16 0x8B380F3558668C46C91C49A2F8E967B9 PUSH1 0x2 PUSH1 0x7E PUSH1 0x80 DUP2 LT PUSH3 0x1FE0 JUMPI PUSH32 0x4E487B7100000000000000000000000000000000000000000000000000000000 PUSH1 0x0 MSTORE PUSH1 0x32 PUSH1 0x4 MSTORE PUSH1 0x24 PUSH1 0x0 REVERT JUMPDEST ADD DUP2 SWAP1 SSTORE POP PUSH16 0x857DDF0117EFA215952912839F6473E6 PUSH1 0x2 PUSH1 0x7F PUSH1 0x80 DUP2 LT PUSH3 0x2032 JUMPI PUSH32 0x4E487B7100000000000000000000000000000000000000000000000000000000 PUSH1 0x0 MSTORE PUSH1 0x32 PUSH1 0x4 MSTORE PUSH1 0x24 PUSH1 0x0 REVERT JUMPDEST ADD DUP2 SWAP1 SSTORE POP PUSH3 0xF4240 PUSH1 0x82 PUSH1 0x0 PUSH2 0x100 EXP DUP2 SLOAD DUP2 PUSH4 0xFFFFFFFF MUL NOT AND SWAP1 DUP4 PUSH4 0xFFFFFFFF AND MUL OR SWAP1 SSTORE POP DUP3 PUSH1 0x89 PUSH1 0x0 PUSH2 0x100 EXP DUP2 SLOAD DUP2 PUSH20 0xFFFFFFFFFFFFFFFFFFFFFFFFFFFFFFFFFFFFFFFF MUL NOT AND SWAP1 DUP4 PUSH20 0xFFFFFFFFFFFFFFFFFFFFFFFFFFFFFFFFFFFFFFFF AND MUL OR SWAP1 SSTORE POP DUP4 PUSH1 0x8A PUSH1 0x0 PUSH2 0x100 EXP DUP2 SLOAD DUP2 PUSH20 0xFFFFFFFFFFFFFFFFFFFFFFFFFFFFFFFFFFFFFFFF MUL NOT AND SWAP1 DUP4 PUSH20 0xFFFFFFFFFFFFFFFFFFFFFFFFFFFFFFFFFFFFFFFF AND MUL OR SWAP1 SSTORE POP DUP5 PUSH1 0x8B PUSH1 0x0 PUSH2 0x100 EXP DUP2 SLOAD DUP2 PUSH20 0xFFFFFFFFFFFFFFFFFFFFFFFFFFFFFFFFFFFFFFFF MUL NOT AND SWAP1 DUP4 PUSH20 0xFFFFFFFFFFFFFFFFFFFFFFFFFFFFFFFFFFFFFFFF AND MUL OR SWAP1 SSTORE POP PUSH1 0x0 PUSH1 0x8C PUSH1 0x0 DUP2 SLOAD DUP2 LT PUSH3 0x215C JUMPI PUSH32 0x4E487B7100000000000000000000000000000000000000000000000000000000 PUSH1 0x0 MSTORE PUSH1 0x32 PUSH1 0x4 MSTORE PUSH1 0x24 PUSH1 0x0 REVERT JUMPDEST SWAP1 PUSH1 0x0 MSTORE PUSH1 0x20 PUSH1 0x0 KECCAK256 ADD PUSH1 0x0 PUSH2 0x100 EXP DUP2 SLOAD DUP2 PUSH20 0xFFFFFFFFFFFFFFFFFFFFFFFFFFFFFFFFFFFFFFFF MUL NOT AND SWAP1 DUP4 PUSH20 0xFFFFFFFFFFFFFFFFFFFFFFFFFFFFFFFFFFFFFFFF AND MUL OR SWAP1 SSTORE POP PUSH1 0x89 PUSH1 0x0 SWAP1 SLOAD SWAP1 PUSH2 0x100 EXP SWAP1 DIV PUSH20 0xFFFFFFFFFFFFFFFFFFFFFFFFFFFFFFFFFFFFFFFF AND PUSH1 0x8C PUSH1 0x1 DUP2 SLOAD DUP2 LT PUSH3 0x2203 JUMPI PUSH32 0x4E487B7100000000000000000000000000000000000000000000000000000000 PUSH1 0x0 MSTORE PUSH1 0x32 PUSH1 0x4 MSTORE PUSH1 0x24 PUSH1 0x0 REVERT JUMPDEST SWAP1 PUSH1 0x0 MSTORE PUSH1 0x20 PUSH1 0x0 KECCAK256 ADD PUSH1 0x0 PUSH2 0x100 EXP DUP2 SLOAD DUP2 PUSH20 0xFFFFFFFFFFFFFFFFFFFFFFFFFFFFFFFFFFFFFFFF MUL NOT AND SWAP1 DUP4 PUSH20 0xFFFFFFFFFFFFFFFFFFFFFFFFFFFFFFFFFFFFFFFF AND MUL OR SWAP1 SSTORE POP PUSH1 0x1 PUSH1 0x87 DUP2 SWAP1 SSTORE POP DUP2 PUSH1 0x82 PUSH1 0x4 PUSH2 0x100 EXP DUP2 SLOAD DUP2 PUSH4 0xFFFFFFFF MUL NOT AND SWAP1 DUP4 PUSH4 0xFFFFFFFF AND MUL OR SWAP1 SSTORE POP DUP1 PUSH1 0x84 DUP2 SWAP1 SSTORE POP PUSH1 0x19 PUSH1 0x85 DUP2 SWAP1 SSTORE POP PUSH2 0x2710 PUSH1 0x86 DUP2 SWAP1 SSTORE POP PUSH1 0x2 PUSH1 0x88 DUP2 SWAP1 SSTORE POP PUSH1 0x8B PUSH1 0x0 SWAP1 SLOAD SWAP1 PUSH2 0x100 EXP SWAP1 DIV PUSH20 0xFFFFFFFFFFFFFFFFFFFFFFFFFFFFFFFFFFFFFFFF AND PUSH20 0xFFFFFFFFFFFFFFFFFFFFFFFFFFFFFFFFFFFFFFFF AND PUSH4 0x83AC74F9 ADDRESS CALLVALUE PUSH1 0x40 MLOAD DUP4 PUSH4 0xFFFFFFFF AND PUSH1 0xE0 SHL DUP2 MSTORE PUSH1 0x4 ADD PUSH3 0x22F3 SWAP3 SWAP2 SWAP1 PUSH3 0x48B2 JUMP JUMPDEST PUSH1 0x0 PUSH1 0x40 MLOAD DUP1 DUP4 SUB DUP2 PUSH1 0x0 DUP8 DUP1 EXTCODESIZE ISZERO DUP1 ISZERO PUSH3 0x230E JUMPI PUSH1 0x0 DUP1 REVERT JUMPDEST POP GAS CALL ISZERO DUP1 ISZERO PUSH3 0x2323 JUMPI RETURNDATASIZE PUSH1 0x0 DUP1 RETURNDATACOPY RETURNDATASIZE PUSH1 0x0 REVERT JUMPDEST POP POP POP POP PUSH1 0x0 PUSH3 0x233A CALLVALUE PUSH3 0x23E3 PUSH1 0x20 SHL PUSH1 0x20 SHR JUMP JUMPDEST SWAP1 POP PUSH1 0x8B PUSH1 0x0 SWAP1 SLOAD SWAP1 PUSH2 0x100 EXP SWAP1 DIV PUSH20 0xFFFFFFFFFFFFFFFFFFFFFFFFFFFFFFFFFFFFFFFF AND PUSH20 0xFFFFFFFFFFFFFFFFFFFFFFFFFFFFFFFFFFFFFFFF AND PUSH4 0x82F4F5B4 CALLER DUP4 PUSH1 0x40 MLOAD DUP4 PUSH4 0xFFFFFFFF AND PUSH1 0xE0 SHL DUP2 MSTORE PUSH1 0x4 ADD PUSH3 0x239B SWAP3 SWAP2 SWAP1 PUSH3 0x48B2 JUMP JUMPDEST PUSH1 0x0 PUSH1 0x40 MLOAD DUP1 DUP4 SUB DUP2 PUSH1 0x0 DUP8 DUP1 EXTCODESIZE ISZERO DUP1 ISZERO PUSH3 0x23B6 JUMPI PUSH1 0x0 DUP1 REVERT JUMPDEST POP GAS CALL ISZERO DUP1 ISZERO PUSH3 0x23CB JUMPI RETURNDATASIZE PUSH1 0x0 DUP1 RETURNDATACOPY RETURNDATASIZE PUSH1 0x0 REVERT JUMPDEST POP POP POP POP POP POP POP POP POP POP PUSH3 0x4D15 JUMP JUMPDEST PUSH1 0x0 CALLER SWAP1 POP SWAP1 JUMP JUMPDEST PUSH1 0x0 DUP1 PUSH3 0x23F6 PUSH3 0x24D5 PUSH1 0x20 SHL PUSH1 0x20 SHR JUMP JUMPDEST SWAP1 POP PUSH1 0x0 PUSH1 0x8A PUSH1 0x0 SWAP1 SLOAD SWAP1 PUSH2 0x100 EXP SWAP1 DIV PUSH20 0xFFFFFFFFFFFFFFFFFFFFFFFFFFFFFFFFFFFFFFFF AND PUSH20 0xFFFFFFFFFFFFFFFFFFFFFFFFFFFFFFFFFFFFFFFF AND PUSH4 0x18160DDD PUSH1 0x40 MLOAD DUP2 PUSH4 0xFFFFFFFF AND PUSH1 0xE0 SHL DUP2 MSTORE PUSH1 0x4 ADD PUSH1 0x20 PUSH1 0x40 MLOAD DUP1 DUP4 SUB DUP2 DUP7 DUP1 EXTCODESIZE ISZERO DUP1 ISZERO PUSH3 0x2463 JUMPI PUSH1 0x0 DUP1 REVERT JUMPDEST POP GAS STATICCALL ISZERO DUP1 ISZERO PUSH3 0x2478 JUMPI RETURNDATASIZE PUSH1 0x0 DUP1 RETURNDATACOPY RETURNDATASIZE PUSH1 0x0 REVERT JUMPDEST POP POP POP POP PUSH1 0x40 MLOAD RETURNDATASIZE PUSH1 0x1F NOT PUSH1 0x1F DUP3 ADD AND DUP3 ADD DUP1 PUSH1 0x40 MSTORE POP DUP2 ADD SWAP1 PUSH3 0x249E SWAP2 SWAP1 PUSH3 0x4805 JUMP JUMPDEST SWAP1 POP PUSH1 0x0 PUSH3 0x24C8 DUP3 DUP5 PUSH1 0x82 PUSH1 0x4 SWAP1 SLOAD SWAP1 PUSH2 0x100 EXP SWAP1 DIV PUSH4 0xFFFFFFFF AND DUP9 PUSH3 0x26DD PUSH1 0x20 SHL PUSH1 0x20 SHR JUMP JUMPDEST SWAP1 POP DUP1 SWAP4 POP POP POP POP SWAP2 SWAP1 POP JUMP JUMPDEST PUSH1 0x0 DUP1 PUSH1 0x0 JUMPDEST PUSH1 0x8C DUP1 SLOAD SWAP1 POP DUP2 GT PUSH3 0x26D5 JUMPI PUSH1 0x0 PUSH20 0xFFFFFFFFFFFFFFFFFFFFFFFFFFFFFFFFFFFFFFFF AND PUSH1 0x8C DUP3 DUP2 SLOAD DUP2 LT PUSH3 0x253B JUMPI PUSH32 0x4E487B7100000000000000000000000000000000000000000000000000000000 PUSH1 0x0 MSTORE PUSH1 0x32 PUSH1 0x4 MSTORE PUSH1 0x24 PUSH1 0x0 REVERT JUMPDEST SWAP1 PUSH1 0x0 MSTORE PUSH1 0x20 PUSH1 0x0 KECCAK256 ADD PUSH1 0x0 SWAP1 SLOAD SWAP1 PUSH2 0x100 EXP SWAP1 DIV PUSH20 0xFFFFFFFFFFFFFFFFFFFFFFFFFFFFFFFFFFFFFFFF AND PUSH20 0xFFFFFFFFFFFFFFFFFFFFFFFFFFFFFFFFFFFFFFFF AND EQ ISZERO PUSH3 0x25A5 JUMPI PUSH3 0x259D SELFBALANCE DUP4 PUSH3 0x283D PUSH1 0x20 SHL PUSH3 0x1840 OR SWAP1 SWAP2 SWAP1 PUSH1 0x20 SHR JUMP JUMPDEST SWAP2 POP PUSH3 0x26C1 JUMP JUMPDEST PUSH1 0x0 PUSH1 0x8C DUP3 DUP2 SLOAD DUP2 LT PUSH3 0x25E2 JUMPI PUSH32 0x4E487B7100000000000000000000000000000000000000000000000000000000 PUSH1 0x0 MSTORE PUSH1 0x32 PUSH1 0x4 MSTORE PUSH1 0x24 PUSH1 0x0 REVERT JUMPDEST SWAP1 PUSH1 0x0 MSTORE PUSH1 0x20 PUSH1 0x0 KECCAK256 ADD PUSH1 0x0 SWAP1 SLOAD SWAP1 PUSH2 0x100 EXP SWAP1 DIV PUSH20 0xFFFFFFFFFFFFFFFFFFFFFFFFFFFFFFFFFFFFFFFF AND SWAP1 POP PUSH1 0x0 DUP2 PUSH20 0xFFFFFFFFFFFFFFFFFFFFFFFFFFFFFFFFFFFFFFFF AND PUSH4 0x70A08231 ADDRESS PUSH1 0x40 MLOAD DUP3 PUSH4 0xFFFFFFFF AND PUSH1 0xE0 SHL DUP2 MSTORE PUSH1 0x4 ADD PUSH3 0x264C SWAP2 SWAP1 PUSH3 0x4895 JUMP JUMPDEST PUSH1 0x20 PUSH1 0x40 MLOAD DUP1 DUP4 SUB DUP2 DUP7 DUP1 EXTCODESIZE ISZERO DUP1 ISZERO PUSH3 0x2665 JUMPI PUSH1 0x0 DUP1 REVERT JUMPDEST POP GAS STATICCALL ISZERO DUP1 ISZERO PUSH3 0x267A JUMPI RETURNDATASIZE PUSH1 0x0 DUP1 RETURNDATACOPY RETURNDATASIZE PUSH1 0x0 REVERT JUMPDEST POP POP POP POP PUSH1 0x40 MLOAD RETURNDATASIZE PUSH1 0x1F NOT PUSH1 0x1F DUP3 ADD AND DUP3 ADD DUP1 PUSH1 0x40 MSTORE POP DUP2 ADD SWAP1 PUSH3 0x26A0 SWAP2 SWAP1 PUSH3 0x4805 JUMP JUMPDEST SWAP1 POP PUSH3 0x26BC DUP2 DUP6 PUSH3 0x283D PUSH1 0x20 SHL PUSH3 0x1840 OR SWAP1 SWAP2 SWAP1 PUSH1 0x20 SHR JUMP JUMPDEST SWAP4 POP POP POP JUMPDEST DUP1 PUSH3 0x26CD SWAP1 PUSH3 0x4BB4 JUMP JUMPDEST SWAP1 POP PUSH3 0x24DB JUMP JUMPDEST POP DUP1 SWAP2 POP POP SWAP1 JUMP JUMPDEST PUSH1 0x0 DUP1 DUP6 GT DUP1 ISZERO PUSH3 0x26EF JUMPI POP PUSH1 0x0 DUP5 GT JUMPDEST DUP1 ISZERO PUSH3 0x2702 JUMPI POP PUSH1 0x0 DUP4 PUSH4 0xFFFFFFFF AND GT JUMPDEST DUP1 ISZERO PUSH3 0x272D JUMPI POP PUSH1 0x82 PUSH1 0x0 SWAP1 SLOAD SWAP1 PUSH2 0x100 EXP SWAP1 DIV PUSH4 0xFFFFFFFF AND PUSH4 0xFFFFFFFF AND DUP4 PUSH4 0xFFFFFFFF AND GT ISZERO JUMPDEST PUSH3 0x2737 JUMPI PUSH1 0x0 DUP1 REVERT JUMPDEST PUSH1 0x0 DUP3 EQ ISZERO PUSH3 0x274B JUMPI PUSH1 0x0 SWAP1 POP PUSH3 0x2835 JUMP JUMPDEST PUSH1 0x82 PUSH1 0x0 SWAP1 SLOAD SWAP1 PUSH2 0x100 EXP SWAP1 DIV PUSH4 0xFFFFFFFF AND PUSH4 0xFFFFFFFF AND DUP4 PUSH4 0xFFFFFFFF AND EQ ISZERO PUSH3 0x27AD JUMPI PUSH3 0x27A5 DUP5 PUSH3 0x2791 DUP5 DUP9 PUSH3 0x2855 PUSH1 0x20 SHL PUSH3 0x1856 OR SWAP1 SWAP2 SWAP1 PUSH1 0x20 SHR JUMP JUMPDEST PUSH3 0x286D PUSH1 0x20 SHL PUSH3 0x186C OR SWAP1 SWAP2 SWAP1 PUSH1 0x20 SHR JUMP JUMPDEST SWAP1 POP PUSH3 0x2835 JUMP JUMPDEST PUSH1 0x0 DUP1 PUSH1 0x0 PUSH3 0x27CC DUP8 DUP7 PUSH3 0x283D PUSH1 0x20 SHL PUSH3 0x1840 OR SWAP1 SWAP2 SWAP1 PUSH1 0x20 SHR JUMP JUMPDEST SWAP1 POP PUSH3 0x27F4 DUP2 DUP9 DUP9 PUSH1 0x82 PUSH1 0x0 SWAP1 SLOAD SWAP1 PUSH2 0x100 EXP SWAP1 DIV PUSH4 0xFFFFFFFF AND PUSH3 0x2885 PUSH1 0x20 SHL PUSH1 0x20 SHR JUMP JUMPDEST DUP1 SWAP4 POP DUP2 SWAP5 POP POP POP PUSH1 0x0 DUP3 PUSH1 0xFF AND PUSH3 0x281C DUP6 DUP12 PUSH3 0x2855 PUSH1 0x20 SHL PUSH3 0x1856 OR SWAP1 SWAP2 SWAP1 PUSH1 0x20 SHR JUMP JUMPDEST SWAP1 SHR SWAP1 POP DUP9 DUP2 PUSH3 0x282E SWAP2 SWAP1 PUSH3 0x4A7E JUMP JUMPDEST SWAP5 POP POP POP POP POP JUMPDEST SWAP5 SWAP4 POP POP POP POP JUMP JUMPDEST PUSH1 0x0 DUP2 DUP4 PUSH3 0x284D SWAP2 SWAP1 PUSH3 0x4912 JUMP JUMPDEST SWAP1 POP SWAP3 SWAP2 POP POP JUMP JUMPDEST PUSH1 0x0 DUP2 DUP4 PUSH3 0x2865 SWAP2 SWAP1 PUSH3 0x4A1D JUMP JUMPDEST SWAP1 POP SWAP3 SWAP2 POP POP JUMP JUMPDEST PUSH1 0x0 DUP2 DUP4 PUSH3 0x287D SWAP2 SWAP1 PUSH3 0x49AD JUMP JUMPDEST SWAP1 POP SWAP3 SWAP2 POP POP JUMP JUMPDEST PUSH1 0x0 DUP1 PUSH17 0x200000000000000000000000000000000 DUP7 LT PUSH3 0x28D0 JUMPI PUSH32 0x4E487B7100000000000000000000000000000000000000000000000000000000 PUSH1 0x0 MSTORE PUSH1 0x1 PUSH1 0x4 MSTORE PUSH1 0x24 PUSH1 0x0 REVERT JUMPDEST DUP5 DUP7 LT ISZERO PUSH3 0x2916 JUMPI PUSH1 0x40 MLOAD PUSH32 0x8C379A000000000000000000000000000000000000000000000000000000000 DUP2 MSTORE PUSH1 0x4 ADD PUSH3 0x290D SWAP1 PUSH3 0x48DF JUMP JUMPDEST PUSH1 0x40 MLOAD DUP1 SWAP2 SUB SWAP1 REVERT JUMPDEST PUSH1 0x0 DUP1 DUP7 PUSH16 0x80000000000000000000000000000000 DUP10 PUSH3 0x2938 SWAP2 SWAP1 PUSH3 0x4A1D JUMP JUMPDEST PUSH3 0x2944 SWAP2 SWAP1 PUSH3 0x49AD JUMP JUMPDEST SWAP1 POP PUSH17 0x15BF0A8B1457695355FB8AC404E7A79E3 DUP2 LT ISZERO PUSH3 0x2979 JUMPI PUSH3 0x2971 DUP2 PUSH3 0x2A40 PUSH1 0x20 SHL PUSH1 0x20 SHR JUMP JUMPDEST SWAP2 POP PUSH3 0x298D JUMP JUMPDEST PUSH3 0x298A DUP2 PUSH3 0x3253 PUSH1 0x20 SHL PUSH1 0x20 SHR JUMP JUMPDEST SWAP2 POP JUMPDEST PUSH1 0x0 DUP6 PUSH4 0xFFFFFFFF AND DUP8 PUSH4 0xFFFFFFFF AND DUP5 PUSH3 0x29AA SWAP2 SWAP1 PUSH3 0x4A1D JUMP JUMPDEST PUSH3 0x29B6 SWAP2 SWAP1 PUSH3 0x49AD JUMP JUMPDEST SWAP1 POP PUSH17 0x800000000000000000000000000000000 DUP2 LT ISZERO PUSH3 0x29F2 JUMPI PUSH3 0x29E3 DUP2 PUSH3 0x33D2 PUSH1 0x20 SHL PUSH1 0x20 SHR JUMP JUMPDEST PUSH1 0x7F SWAP5 POP SWAP5 POP POP POP POP PUSH3 0x2A37 JUMP JUMPDEST PUSH1 0x0 PUSH3 0x2A05 DUP3 PUSH3 0x3C99 PUSH1 0x20 SHL PUSH1 0x20 SHR JUMP JUMPDEST SWAP1 POP PUSH3 0x2A2D DUP2 PUSH1 0x7F PUSH3 0x2A1A SWAP2 SWAP1 PUSH3 0x4AB9 JUMP JUMPDEST PUSH1 0xFF AND DUP4 SWAP1 SHR DUP3 PUSH3 0x3E25 PUSH1 0x20 SHL PUSH1 0x20 SHR JUMP JUMPDEST DUP2 SWAP6 POP SWAP6 POP POP POP POP POP JUMPDEST SWAP5 POP SWAP5 SWAP3 POP POP POP JUMP JUMPDEST PUSH1 0x0 DUP1 PUSH1 0x0 SWAP1 POP PUSH1 0x0 DUP1 PUSH1 0x0 PUSH16 0xD3094C70F034DE4B96FF7D5B6F99FCD8 DUP7 LT PUSH3 0x2AC2 JUMPI PUSH16 0x40000000000000000000000000000000 DUP5 PUSH3 0x2A82 SWAP2 SWAP1 PUSH3 0x4912 JUMP JUMPDEST SWAP4 POP PUSH16 0xD3094C70F034DE4B96FF7D5B6F99FCD8 PUSH16 0x80000000000000000000000000000000 DUP8 PUSH3 0x2AB3 SWAP2 SWAP1 PUSH3 0x4A1D JUMP JUMPDEST PUSH3 0x2ABF SWAP2 SWAP1 PUSH3 0x49AD JUMP JUMPDEST SWAP6 POP JUMPDEST PUSH16 0xA45AF1E1F40C333B3DE1DB4DD55F29A7 DUP7 LT PUSH3 0x2B38 JUMPI PUSH16 0x20000000000000000000000000000000 DUP5 PUSH3 0x2AF8 SWAP2 SWAP1 PUSH3 0x4912 JUMP JUMPDEST SWAP4 POP PUSH16 0xA45AF1E1F40C333B3DE1DB4DD55F29A7 PUSH16 0x80000000000000000000000000000000 DUP8 PUSH3 0x2B29 SWAP2 SWAP1 PUSH3 0x4A1D JUMP JUMPDEST PUSH3 0x2B35 SWAP2 SWAP1 PUSH3 0x49AD JUMP JUMPDEST SWAP6 POP JUMPDEST PUSH16 0x910B022DB7AE67CE76B441C27035C6A1 DUP7 LT PUSH3 0x2BAE JUMPI PUSH16 0x10000000000000000000000000000000 DUP5 PUSH3 0x2B6E SWAP2 SWAP1 PUSH3 0x4912 JUMP JUMPDEST SWAP4 POP PUSH16 0x910B022DB7AE67CE76B441C27035C6A1 PUSH16 0x80000000000000000000000000000000 DUP8 PUSH3 0x2B9F SWAP2 SWAP1 PUSH3 0x4A1D JUMP JUMPDEST PUSH3 0x2BAB SWAP2 SWAP1 PUSH3 0x49AD JUMP JUMPDEST SWAP6 POP JUMPDEST PUSH16 0x88415ABBE9A76BEAD8D00CF112E4D4A8 DUP7 LT PUSH3 0x2C24 JUMPI PUSH16 0x8000000000000000000000000000000 DUP5 PUSH3 0x2BE4 SWAP2 SWAP1 PUSH3 0x4912 JUMP JUMPDEST SWAP4 POP PUSH16 0x88415ABBE9A76BEAD8D00CF112E4D4A8 PUSH16 0x80000000000000000000000000000000 DUP8 PUSH3 0x2C15 SWAP2 SWAP1 PUSH3 0x4A1D JUMP JUMPDEST PUSH3 0x2C21 SWAP2 SWAP1 PUSH3 0x49AD JUMP JUMPDEST SWAP6 POP JUMPDEST PUSH16 0x84102B00893F64C705E841D5D4064BD3 DUP7 LT PUSH3 0x2C9A JUMPI PUSH16 0x4000000000000000000000000000000 DUP5 PUSH3 0x2C5A SWAP2 SWAP1 PUSH3 0x4912 JUMP JUMPDEST SWAP4 POP PUSH16 0x84102B00893F64C705E841D5D4064BD3 PUSH16 0x80000000000000000000000000000000 DUP8 PUSH3 0x2C8B SWAP2 SWAP1 PUSH3 0x4A1D JUMP JUMPDEST PUSH3 0x2C97 SWAP2 SWAP1 PUSH3 0x49AD JUMP JUMPDEST SWAP6 POP JUMPDEST PUSH16 0x8204055AAEF1C8BD5C3259F4822735A2 DUP7 LT PUSH3 0x2D10 JUMPI PUSH16 0x2000000000000000000000000000000 DUP5 PUSH3 0x2CD0 SWAP2 SWAP1 PUSH3 0x4912 JUMP JUMPDEST SWAP4 POP PUSH16 0x8204055AAEF1C8BD5C3259F4822735A2 PUSH16 0x80000000000000000000000000000000 DUP8 PUSH3 0x2D01 SWAP2 SWAP1 PUSH3 0x4A1D JUMP JUMPDEST PUSH3 0x2D0D SWAP2 SWAP1 PUSH3 0x49AD JUMP JUMPDEST SWAP6 POP JUMPDEST PUSH16 0x810100AB00222D861931C15E39B44E99 DUP7 LT PUSH3 0x2D86 JUMPI PUSH16 0x1000000000000000000000000000000 DUP5 PUSH3 0x2D46 SWAP2 SWAP1 PUSH3 0x4912 JUMP JUMPDEST SWAP4 POP PUSH16 0x810100AB00222D861931C15E39B44E99 PUSH16 0x80000000000000000000000000000000 DUP8 PUSH3 0x2D77 SWAP2 SWAP1 PUSH3 0x4A1D JUMP JUMPDEST PUSH3 0x2D83 SWAP2 SWAP1 PUSH3 0x49AD JUMP JUMPDEST SWAP6 POP JUMPDEST PUSH16 0x808040155AABBBE9451521693554F733 DUP7 LT PUSH3 0x2DFB JUMPI PUSH15 0x800000000000000000000000000000 DUP5 PUSH3 0x2DBB SWAP2 SWAP1 PUSH3 0x4912 JUMP JUMPDEST SWAP4 POP PUSH16 0x808040155AABBBE9451521693554F733 PUSH16 0x80000000000000000000000000000000 DUP8 PUSH3 0x2DEC SWAP2 SWAP1 PUSH3 0x4A1D JUMP JUMPDEST PUSH3 0x2DF8 SWAP2 SWAP1 PUSH3 0x49AD JUMP JUMPDEST SWAP6 POP JUMPDEST PUSH16 0x80000000000000000000000000000000 DUP7 PUSH3 0x2E19 SWAP2 SWAP1 PUSH3 0x4A7E JUMP JUMPDEST SWAP3 POP DUP3 SWAP2 POP PUSH16 0x80000000000000000000000000000000 DUP4 DUP5 PUSH3 0x2E3D SWAP2 SWAP1 PUSH3 0x4A1D JUMP JUMPDEST PUSH3 0x2E49 SWAP2 SWAP1 PUSH3 0x49AD JUMP JUMPDEST SWAP1 POP PUSH17 0x100000000000000000000000000000000 DUP4 PUSH17 0x100000000000000000000000000000000 PUSH3 0x2E7C SWAP2 SWAP1 PUSH3 0x4A7E JUMP JUMPDEST DUP4 PUSH3 0x2E89 SWAP2 SWAP1 PUSH3 0x4A1D JUMP JUMPDEST PUSH3 0x2E95 SWAP2 SWAP1 PUSH3 0x49AD JUMP JUMPDEST DUP5 PUSH3 0x2EA2 SWAP2 SWAP1 PUSH3 0x4912 JUMP JUMPDEST SWAP4 POP PUSH16 0x80000000000000000000000000000000 DUP2 DUP4 PUSH3 0x2EC3 SWAP2 SWAP1 PUSH3 0x4A1D JUMP JUMPDEST PUSH3 0x2ECF SWAP2 SWAP1 PUSH3 0x49AD JUMP JUMPDEST SWAP2 POP PUSH17 0x200000000000000000000000000000000 DUP4 PUSH16 0xAAAAAAAAAAAAAAAAAAAAAAAAAAAAAAAA PUSH3 0x2F01 SWAP2 SWAP1 PUSH3 0x4A7E JUMP JUMPDEST DUP4 PUSH3 0x2F0E SWAP2 SWAP1 PUSH3 0x4A1D JUMP JUMPDEST PUSH3 0x2F1A SWAP2 SWAP1 PUSH3 0x49AD JUMP JUMPDEST DUP5 PUSH3 0x2F27 SWAP2 SWAP1 PUSH3 0x4912 JUMP JUMPDEST SWAP4 POP PUSH16 0x80000000000000000000000000000000 DUP2 DUP4 PUSH3 0x2F48 SWAP2 SWAP1 PUSH3 0x4A1D JUMP JUMPDEST PUSH3 0x2F54 SWAP2 SWAP1 PUSH3 0x49AD JUMP JUMPDEST SWAP2 POP PUSH17 0x300000000000000000000000000000000 DUP4 PUSH16 0x99999999999999999999999999999999 PUSH3 0x2F86 SWAP2 SWAP1 PUSH3 0x4A7E JUMP JUMPDEST DUP4 PUSH3 0x2F93 SWAP2 SWAP1 PUSH3 0x4A1D JUMP JUMPDEST PUSH3 0x2F9F SWAP2 SWAP1 PUSH3 0x49AD JUMP JUMPDEST DUP5 PUSH3 0x2FAC SWAP2 SWAP1 PUSH3 0x4912 JUMP JUMPDEST SWAP4 POP PUSH16 0x80000000000000000000000000000000 DUP2 DUP4 PUSH3 0x2FCD SWAP2 SWAP1 PUSH3 0x4A1D JUMP JUMPDEST PUSH3 0x2FD9 SWAP2 SWAP1 PUSH3 0x49AD JUMP JUMPDEST SWAP2 POP PUSH17 0x400000000000000000000000000000000 DUP4 PUSH16 0x92492492492492492492492492492492 PUSH3 0x300B SWAP2 SWAP1 PUSH3 0x4A7E JUMP JUMPDEST DUP4 PUSH3 0x3018 SWAP2 SWAP1 PUSH3 0x4A1D JUMP JUMPDEST PUSH3 0x3024 SWAP2 SWAP1 PUSH3 0x49AD JUMP JUMPDEST DUP5 PUSH3 0x3031 SWAP2 SWAP1 PUSH3 0x4912 JUMP JUMPDEST SWAP4 POP PUSH16 0x80000000000000000000000000000000 DUP2 DUP4 PUSH3 0x3052 SWAP2 SWAP1 PUSH3 0x4A1D JUMP JUMPDEST PUSH3 0x305E SWAP2 SWAP1 PUSH3 0x49AD JUMP JUMPDEST SWAP2 POP PUSH17 0x500000000000000000000000000000000 DUP4 PUSH16 0x8E38E38E38E38E38E38E38E38E38E38E PUSH3 0x3090 SWAP2 SWAP1 PUSH3 0x4A7E JUMP JUMPDEST DUP4 PUSH3 0x309D SWAP2 SWAP1 PUSH3 0x4A1D JUMP JUMPDEST PUSH3 0x30A9 SWAP2 SWAP1 PUSH3 0x49AD JUMP JUMPDEST DUP5 PUSH3 0x30B6 SWAP2 SWAP1 PUSH3 0x4912 JUMP JUMPDEST SWAP4 POP PUSH16 0x80000000000000000000000000000000 DUP2 DUP4 PUSH3 0x30D7 SWAP2 SWAP1 PUSH3 0x4A1D JUMP JUMPDEST PUSH3 0x30E3 SWAP2 SWAP1 PUSH3 0x49AD JUMP JUMPDEST SWAP2 POP PUSH17 0x600000000000000000000000000000000 DUP4 PUSH16 0x8BA2E8BA2E8BA2E8BA2E8BA2E8BA2E8B PUSH3 0x3115 SWAP2 SWAP1 PUSH3 0x4A7E JUMP JUMPDEST DUP4 PUSH3 0x3122 SWAP2 SWAP1 PUSH3 0x4A1D JUMP JUMPDEST PUSH3 0x312E SWAP2 SWAP1 PUSH3 0x49AD JUMP JUMPDEST DUP5 PUSH3 0x313B SWAP2 SWAP1 PUSH3 0x4912 JUMP JUMPDEST SWAP4 POP PUSH16 0x80000000000000000000000000000000 DUP2 DUP4 PUSH3 0x315C SWAP2 SWAP1 PUSH3 0x4A1D JUMP JUMPDEST PUSH3 0x3168 SWAP2 SWAP1 PUSH3 0x49AD JUMP JUMPDEST SWAP2 POP PUSH17 0x700000000000000000000000000000000 DUP4 PUSH16 0x89D89D89D89D89D89D89D89D89D89D89 PUSH3 0x319A SWAP2 SWAP1 PUSH3 0x4A7E JUMP JUMPDEST DUP4 PUSH3 0x31A7 SWAP2 SWAP1 PUSH3 0x4A1D JUMP JUMPDEST PUSH3 0x31B3 SWAP2 SWAP1 PUSH3 0x49AD JUMP JUMPDEST DUP5 PUSH3 0x31C0 SWAP2 SWAP1 PUSH3 0x4912 JUMP JUMPDEST SWAP4 POP PUSH16 0x80000000000000000000000000000000 DUP2 DUP4 PUSH3 0x31E1 SWAP2 SWAP1 PUSH3 0x4A1D JUMP JUMPDEST PUSH3 0x31ED SWAP2 SWAP1 PUSH3 0x49AD JUMP JUMPDEST SWAP2 POP PUSH17 0x800000000000000000000000000000000 DUP4 PUSH16 0x88888888888888888888888888888888 PUSH3 0x321F SWAP2 SWAP1 PUSH3 0x4A7E JUMP JUMPDEST DUP4 PUSH3 0x322C SWAP2 SWAP1 PUSH3 0x4A1D JUMP JUMPDEST PUSH3 0x3238 SWAP2 SWAP1 PUSH3 0x49AD JUMP JUMPDEST DUP5 PUSH3 0x3245 SWAP2 SWAP1 PUSH3 0x4912 JUMP JUMPDEST SWAP4 POP DUP4 SWAP5 POP POP POP POP POP SWAP2 SWAP1 POP JUMP JUMPDEST PUSH1 0x0 DUP1 PUSH1 0x0 SWAP1 POP PUSH1 0x0 DUP4 SWAP1 POP PUSH17 0x100000000000000000000000000000000 DUP2 LT PUSH3 0x32D8 JUMPI PUSH1 0x0 PUSH3 0x32A8 PUSH16 0x80000000000000000000000000000000 DUP4 PUSH3 0x329C SWAP2 SWAP1 PUSH3 0x49AD JUMP JUMPDEST PUSH3 0x45FA PUSH1 0x20 SHL PUSH1 0x20 SHR JUMP JUMPDEST SWAP1 POP DUP1 PUSH1 0xFF AND DUP3 SWAP1 SHR SWAP2 POP PUSH16 0x80000000000000000000000000000000 DUP2 PUSH1 0xFF AND PUSH3 0x32D4 SWAP2 SWAP1 PUSH3 0x4A1D JUMP JUMPDEST SWAP3 POP POP JUMPDEST PUSH16 0x80000000000000000000000000000000 DUP2 GT ISZERO PUSH3 0x338E JUMPI PUSH1 0x0 PUSH1 0x7F SWAP1 POP JUMPDEST PUSH1 0x0 DUP2 PUSH1 0xFF AND GT ISZERO PUSH3 0x338C JUMPI PUSH16 0x80000000000000000000000000000000 DUP3 DUP4 PUSH3 0x3324 SWAP2 SWAP1 PUSH3 0x4A1D JUMP JUMPDEST PUSH3 0x3330 SWAP2 SWAP1 PUSH3 0x49AD JUMP JUMPDEST SWAP2 POP PUSH17 0x100000000000000000000000000000000 DUP3 LT PUSH3 0x3378 JUMPI PUSH1 0x1 DUP3 SWAP1 SHR SWAP2 POP PUSH1 0x1 DUP2 PUSH3 0x3361 SWAP2 SWAP1 PUSH3 0x4AB9 JUMP JUMPDEST PUSH1 0xFF AND PUSH1 0x1 SWAP1 SHL DUP4 PUSH3 0x3375 SWAP2 SWAP1 PUSH3 0x4912 JUMP JUMPDEST SWAP3 POP JUMPDEST DUP1 PUSH3 0x3384 SWAP1 PUSH3 0x4B4F JUMP JUMPDEST SWAP1 POP PUSH3 0x32F8 JUMP JUMPDEST POP JUMPDEST PUSH16 0x5B9DE1D10BF4103D647B0955897BA80 PUSH16 0x3F80FE03F80FE03F80FE03F80FE03F8 DUP4 PUSH3 0x33BD SWAP2 SWAP1 PUSH3 0x4A1D JUMP JUMPDEST PUSH3 0x33C9 SWAP2 SWAP1 PUSH3 0x49AD JUMP JUMPDEST SWAP3 POP POP POP SWAP2 SWAP1 POP JUMP JUMPDEST PUSH1 0x0 DUP1 PUSH1 0x0 SWAP1 POP PUSH1 0x0 DUP1 PUSH16 0x10000000000000000000000000000000 DUP6 PUSH3 0x33FA SWAP2 SWAP1 PUSH3 0x4C02 JUMP JUMPDEST SWAP2 POP DUP2 SWAP1 POP PUSH16 0x80000000000000000000000000000000 DUP3 DUP3 PUSH3 0x341E SWAP2 SWAP1 PUSH3 0x4A1D JUMP JUMPDEST PUSH3 0x342A SWAP2 SWAP1 PUSH3 0x49AD JUMP JUMPDEST SWAP1 POP PUSH8 0x10E1B3BE415A0000 DUP2 PUSH3 0x3442 SWAP2 SWAP1 PUSH3 0x4A1D JUMP JUMPDEST DUP4 PUSH3 0x344F SWAP2 SWAP1 PUSH3 0x4912 JUMP JUMPDEST SWAP3 POP PUSH16 0x80000000000000000000000000000000 DUP3 DUP3 PUSH3 0x3470 SWAP2 SWAP1 PUSH3 0x4A1D JUMP JUMPDEST PUSH3 0x347C SWAP2 SWAP1 PUSH3 0x49AD JUMP JUMPDEST SWAP1 POP PUSH8 0x5A0913F6B1E0000 DUP2 PUSH3 0x3494 SWAP2 SWAP1 PUSH3 0x4A1D JUMP JUMPDEST DUP4 PUSH3 0x34A1 SWAP2 SWAP1 PUSH3 0x4912 JUMP JUMPDEST SWAP3 POP PUSH16 0x80000000000000000000000000000000 DUP3 DUP3 PUSH3 0x34C2 SWAP2 SWAP1 PUSH3 0x4A1D JUMP JUMPDEST PUSH3 0x34CE SWAP2 SWAP1 PUSH3 0x49AD JUMP JUMPDEST SWAP1 POP PUSH8 0x168244FDAC78000 DUP2 PUSH3 0x34E6 SWAP2 SWAP1 PUSH3 0x4A1D JUMP JUMPDEST DUP4 PUSH3 0x34F3 SWAP2 SWAP1 PUSH3 0x4912 JUMP JUMPDEST SWAP3 POP PUSH16 0x80000000000000000000000000000000 DUP3 DUP3 PUSH3 0x3514 SWAP2 SWAP1 PUSH3 0x4A1D JUMP JUMPDEST PUSH3 0x3520 SWAP2 SWAP1 PUSH3 0x49AD JUMP JUMPDEST SWAP1 POP PUSH7 0x4807432BC18000 DUP2 PUSH3 0x3537 SWAP2 SWAP1 PUSH3 0x4A1D JUMP JUMPDEST DUP4 PUSH3 0x3544 SWAP2 SWAP1 PUSH3 0x4912 JUMP JUMPDEST SWAP3 POP PUSH16 0x80000000000000000000000000000000 DUP3 DUP3 PUSH3 0x3565 SWAP2 SWAP1 PUSH3 0x4A1D JUMP JUMPDEST PUSH3 0x3571 SWAP2 SWAP1 PUSH3 0x49AD JUMP JUMPDEST SWAP1 POP PUSH7 0xC0135DCA04000 DUP2 PUSH3 0x3588 SWAP2 SWAP1 PUSH3 0x4A1D JUMP JUMPDEST DUP4 PUSH3 0x3595 SWAP2 SWAP1 PUSH3 0x4912 JUMP JUMPDEST SWAP3 POP PUSH16 0x80000000000000000000000000000000 DUP3 DUP3 PUSH3 0x35B6 SWAP2 SWAP1 PUSH3 0x4A1D JUMP JUMPDEST PUSH3 0x35C2 SWAP2 SWAP1 PUSH3 0x49AD JUMP JUMPDEST SWAP1 POP PUSH7 0x1B707B1CDC000 DUP2 PUSH3 0x35D9 SWAP2 SWAP1 PUSH3 0x4A1D JUMP JUMPDEST DUP4 PUSH3 0x35E6 SWAP2 SWAP1 PUSH3 0x4912 JUMP JUMPDEST SWAP3 POP PUSH16 0x80000000000000000000000000000000 DUP3 DUP3 PUSH3 0x3607 SWAP2 SWAP1 PUSH3 0x4A1D JUMP JUMPDEST PUSH3 0x3613 SWAP2 SWAP1 PUSH3 0x49AD JUMP JUMPDEST SWAP1 POP PUSH6 0x36E0F639B800 DUP2 PUSH3 0x3629 SWAP2 SWAP1 PUSH3 0x4A1D JUMP JUMPDEST DUP4 PUSH3 0x3636 SWAP2 SWAP1 PUSH3 0x4912 JUMP JUMPDEST SWAP3 POP PUSH16 0x80000000000000000000000000000000 DUP3 DUP3 PUSH3 0x3657 SWAP2 SWAP1 PUSH3 0x4A1D JUMP JUMPDEST PUSH3 0x3663 SWAP2 SWAP1 PUSH3 0x49AD JUMP JUMPDEST SWAP1 POP PUSH6 0x618FEE9F800 DUP2 PUSH3 0x3679 SWAP2 SWAP1 PUSH3 0x4A1D JUMP JUMPDEST DUP4 PUSH3 0x3686 SWAP2 SWAP1 PUSH3 0x4912 JUMP JUMPDEST SWAP3 POP PUSH16 0x80000000000000000000000000000000 DUP3 DUP3 PUSH3 0x36A7 SWAP2 SWAP1 PUSH3 0x4A1D JUMP JUMPDEST PUSH3 0x36B3 SWAP2 SWAP1 PUSH3 0x49AD JUMP JUMPDEST SWAP1 POP PUSH5 0x9C197DCC00 DUP2 PUSH3 0x36C8 SWAP2 SWAP1 PUSH3 0x4A1D JUMP JUMPDEST DUP4 PUSH3 0x36D5 SWAP2 SWAP1 PUSH3 0x4912 JUMP JUMPDEST SWAP3 POP PUSH16 0x80000000000000000000000000000000 DUP3 DUP3 PUSH3 0x36F6 SWAP2 SWAP1 PUSH3 0x4A1D JUMP JUMPDEST PUSH3 0x3702 SWAP2 SWAP1 PUSH3 0x49AD JUMP JUMPDEST SWAP1 POP PUSH5 0xE30DCE400 DUP2 PUSH3 0x3717 SWAP2 SWAP1 PUSH3 0x4A1D JUMP JUMPDEST DUP4 PUSH3 0x3724 SWAP2 SWAP1 PUSH3 0x4912 JUMP JUMPDEST SWAP3 POP PUSH16 0x80000000000000000000000000000000 DUP3 DUP3 PUSH3 0x3745 SWAP2 SWAP1 PUSH3 0x4A1D JUMP JUMPDEST PUSH3 0x3751 SWAP2 SWAP1 PUSH3 0x49AD JUMP JUMPDEST SWAP1 POP PUSH5 0x12EBD1300 DUP2 PUSH3 0x3766 SWAP2 SWAP1 PUSH3 0x4A1D JUMP JUMPDEST DUP4 PUSH3 0x3773 SWAP2 SWAP1 PUSH3 0x4912 JUMP JUMPDEST SWAP3 POP PUSH16 0x80000000000000000000000000000000 DUP3 DUP3 PUSH3 0x3794 SWAP2 SWAP1 PUSH3 0x4A1D JUMP JUMPDEST PUSH3 0x37A0 SWAP2 SWAP1 PUSH3 0x49AD JUMP JUMPDEST SWAP1 POP PUSH4 0x17499F00 DUP2 PUSH3 0x37B4 SWAP2 SWAP1 PUSH3 0x4A1D JUMP JUMPDEST DUP4 PUSH3 0x37C1 SWAP2 SWAP1 PUSH3 0x4912 JUMP JUMPDEST SWAP3 POP PUSH16 0x80000000000000000000000000000000 DUP3 DUP3 PUSH3 0x37E2 SWAP2 SWAP1 PUSH3 0x4A1D JUMP JUMPDEST PUSH3 0x37EE SWAP2 SWAP1 PUSH3 0x49AD JUMP JUMPDEST SWAP1 POP PUSH4 0x1A9D480 DUP2 PUSH3 0x3802 SWAP2 SWAP1 PUSH3 0x4A1D JUMP JUMPDEST DUP4 PUSH3 0x380F SWAP2 SWAP1 PUSH3 0x4912 JUMP JUMPDEST SWAP3 POP PUSH16 0x80000000000000000000000000000000 DUP3 DUP3 PUSH3 0x3830 SWAP2 SWAP1 PUSH3 0x4A1D JUMP JUMPDEST PUSH3 0x383C SWAP2 SWAP1 PUSH3 0x49AD JUMP JUMPDEST SWAP1 POP PUSH3 0x1C6380 DUP2 PUSH3 0x384F SWAP2 SWAP1 PUSH3 0x4A1D JUMP JUMPDEST DUP4 PUSH3 0x385C SWAP2 SWAP1 PUSH3 0x4912 JUMP JUMPDEST SWAP3 POP PUSH16 0x80000000000000000000000000000000 DUP3 DUP3 PUSH3 0x387D SWAP2 SWAP1 PUSH3 0x4A1D JUMP JUMPDEST PUSH3 0x3889 SWAP2 SWAP1 PUSH3 0x49AD JUMP JUMPDEST SWAP1 POP PUSH3 0x1C638 DUP2 PUSH3 0x389C SWAP2 SWAP1 PUSH3 0x4A1D JUMP JUMPDEST DUP4 PUSH3 0x38A9 SWAP2 SWAP1 PUSH3 0x4912 JUMP JUMPDEST SWAP3 POP PUSH16 0x80000000000000000000000000000000 DUP3 DUP3 PUSH3 0x38CA SWAP2 SWAP1 PUSH3 0x4A1D JUMP JUMPDEST PUSH3 0x38D6 SWAP2 SWAP1 PUSH3 0x49AD JUMP JUMPDEST SWAP1 POP PUSH2 0x1AB8 DUP2 PUSH3 0x38E8 SWAP2 SWAP1 PUSH3 0x4A1D JUMP JUMPDEST DUP4 PUSH3 0x38F5 SWAP2 SWAP1 PUSH3 0x4912 JUMP JUMPDEST SWAP3 POP PUSH16 0x80000000000000000000000000000000 DUP3 DUP3 PUSH3 0x3916 SWAP2 SWAP1 PUSH3 0x4A1D JUMP JUMPDEST PUSH3 0x3922 SWAP2 SWAP1 PUSH3 0x49AD JUMP JUMPDEST SWAP1 POP PUSH2 0x17C DUP2 PUSH3 0x3934 SWAP2 SWAP1 PUSH3 0x4A1D JUMP JUMPDEST DUP4 PUSH3 0x3941 SWAP2 SWAP1 PUSH3 0x4912 JUMP JUMPDEST SWAP3 POP PUSH16 0x80000000000000000000000000000000 DUP3 DUP3 PUSH3 0x3962 SWAP2 SWAP1 PUSH3 0x4A1D JUMP JUMPDEST PUSH3 0x396E SWAP2 SWAP1 PUSH3 0x49AD JUMP JUMPDEST SWAP1 POP PUSH1 0x14 DUP2 PUSH3 0x397F SWAP2 SWAP1 PUSH3 0x4A1D JUMP JUMPDEST DUP4 PUSH3 0x398C SWAP2 SWAP1 PUSH3 0x4912 JUMP JUMPDEST SWAP3 POP PUSH16 0x80000000000000000000000000000000 DUP3 DUP3 PUSH3 0x39AD SWAP2 SWAP1 PUSH3 0x4A1D JUMP JUMPDEST PUSH3 0x39B9 SWAP2 SWAP1 PUSH3 0x49AD JUMP JUMPDEST SWAP1 POP PUSH1 0x1 DUP2 PUSH3 0x39CA SWAP2 SWAP1 PUSH3 0x4A1D JUMP JUMPDEST DUP4 PUSH3 0x39D7 SWAP2 SWAP1 PUSH3 0x4912 JUMP JUMPDEST SWAP3 POP PUSH16 0x80000000000000000000000000000000 DUP3 PUSH8 0x21C3677C82B40000 DUP6 PUSH3 0x3A01 SWAP2 SWAP1 PUSH3 0x49AD JUMP JUMPDEST PUSH3 0x3A0D SWAP2 SWAP1 PUSH3 0x4912 JUMP JUMPDEST PUSH3 0x3A19 SWAP2 SWAP1 PUSH3 0x4912 JUMP JUMPDEST SWAP3 POP PUSH1 0x0 PUSH16 0x10000000000000000000000000000000 DUP7 AND EQ PUSH3 0x3A76 JUMPI PUSH17 0x18EBEF9EAC820AE8682B9793AC6D1E776 PUSH17 0x1C3D6A24ED82218787D624D3E5EBA95F9 DUP5 PUSH3 0x3A67 SWAP2 SWAP1 PUSH3 0x4A1D JUMP JUMPDEST PUSH3 0x3A73 SWAP2 SWAP1 PUSH3 0x49AD JUMP JUMPDEST SWAP3 POP JUMPDEST PUSH1 0x0 PUSH16 0x20000000000000000000000000000000 DUP7 AND EQ PUSH3 0x3AD1 JUMPI PUSH17 0x1368B2FC6F9609FE7ACEB46AA619BAED4 PUSH17 0x18EBEF9EAC820AE8682B9793AC6D1E778 DUP5 PUSH3 0x3AC2 SWAP2 SWAP1 PUSH3 0x4A1D JUMP JUMPDEST PUSH3 0x3ACE SWAP2 SWAP1 PUSH3 0x49AD JUMP JUMPDEST SWAP3 POP JUMPDEST PUSH1 0x0 PUSH16 0x40000000000000000000000000000000 DUP7 AND EQ PUSH3 0x3B2B JUMPI PUSH16 0xBC5AB1B16779BE3575BD8F0520A9F21F PUSH17 0x1368B2FC6F9609FE7ACEB46AA619BAED5 DUP5 PUSH3 0x3B1C SWAP2 SWAP1 PUSH3 0x4A1D JUMP JUMPDEST PUSH3 0x3B28 SWAP2 SWAP1 PUSH3 0x49AD JUMP JUMPDEST SWAP3 POP JUMPDEST PUSH1 0x0 PUSH16 0x80000000000000000000000000000000 DUP7 AND EQ PUSH3 0x3B84 JUMPI PUSH16 0x454AAA8EFE072E7F6DDBAB84B40A55C9 PUSH16 0xBC5AB1B16779BE3575BD8F0520A9F21E DUP5 PUSH3 0x3B75 SWAP2 SWAP1 PUSH3 0x4A1D JUMP JUMPDEST PUSH3 0x3B81 SWAP2 SWAP1 PUSH3 0x49AD JUMP JUMPDEST SWAP3 POP JUMPDEST PUSH1 0x0 PUSH17 0x100000000000000000000000000000000 DUP7 AND EQ PUSH3 0x3BDE JUMPI PUSH16 0x960AADC109E7A3BF4578099615711EA PUSH16 0x454AAA8EFE072E7F6DDBAB84B40A55C5 DUP5 PUSH3 0x3BCF SWAP2 SWAP1 PUSH3 0x4A1D JUMP JUMPDEST PUSH3 0x3BDB SWAP2 SWAP1 PUSH3 0x49AD JUMP JUMPDEST SWAP3 POP JUMPDEST PUSH1 0x0 PUSH17 0x200000000000000000000000000000000 DUP7 AND EQ PUSH3 0x3C37 JUMPI PUSH15 0x2BF84208204F5977F9A8CF01FDCE3D PUSH16 0x960AADC109E7A3BF4578099615711D7 DUP5 PUSH3 0x3C28 SWAP2 SWAP1 PUSH3 0x4A1D JUMP JUMPDEST PUSH3 0x3C34 SWAP2 SWAP1 PUSH3 0x49AD JUMP JUMPDEST SWAP3 POP JUMPDEST PUSH1 0x0 PUSH17 0x400000000000000000000000000000000 DUP7 AND EQ PUSH3 0x3C8E JUMPI PUSH14 0x3C6AB775DD0B95B4CBEE7E65D11 PUSH15 0x2BF84208204F5977F9A8CF01FDC307 DUP5 PUSH3 0x3C7F SWAP2 SWAP1 PUSH3 0x4A1D JUMP JUMPDEST PUSH3 0x3C8B SWAP2 SWAP1 PUSH3 0x49AD JUMP JUMPDEST SWAP3 POP JUMPDEST DUP3 SWAP4 POP POP POP POP SWAP2 SWAP1 POP JUMP JUMPDEST PUSH1 0x0 DUP1 PUSH1 0x20 SWAP1 POP PUSH1 0x0 PUSH1 0x7F SWAP1 POP JUMPDEST DUP1 PUSH1 0xFF AND PUSH1 0x1 DUP4 PUSH3 0x3CBA SWAP2 SWAP1 PUSH3 0x496F JUMP JUMPDEST PUSH1 0xFF AND LT ISZERO PUSH3 0x3D3F JUMPI PUSH1 0x0 PUSH1 0x2 DUP3 DUP5 PUSH3 0x3CD6 SWAP2 SWAP1 PUSH3 0x496F JUMP JUMPDEST PUSH3 0x3CE2 SWAP2 SWAP1 PUSH3 0x49E5 JUMP JUMPDEST SWAP1 POP DUP5 PUSH1 0x2 DUP3 PUSH1 0xFF AND PUSH1 0x80 DUP2 LT PUSH3 0x3D23 JUMPI PUSH32 0x4E487B7100000000000000000000000000000000000000000000000000000000 PUSH1 0x0 MSTORE PUSH1 0x32 PUSH1 0x4 MSTORE PUSH1 0x24 PUSH1 0x0 REVERT JUMPDEST ADD SLOAD LT PUSH3 0x3D34 JUMPI DUP1 SWAP3 POP PUSH3 0x3D38 JUMP JUMPDEST DUP1 SWAP2 POP JUMPDEST POP PUSH3 0x3CA7 JUMP JUMPDEST DUP4 PUSH1 0x2 DUP3 PUSH1 0xFF AND PUSH1 0x80 DUP2 LT PUSH3 0x3D7E JUMPI PUSH32 0x4E487B7100000000000000000000000000000000000000000000000000000000 PUSH1 0x0 MSTORE PUSH1 0x32 PUSH1 0x4 MSTORE PUSH1 0x24 PUSH1 0x0 REVERT JUMPDEST ADD SLOAD LT PUSH3 0x3D91 JUMPI DUP1 SWAP3 POP POP POP PUSH3 0x3E20 JUMP JUMPDEST DUP4 PUSH1 0x2 DUP4 PUSH1 0xFF AND PUSH1 0x80 DUP2 LT PUSH3 0x3DD0 JUMPI PUSH32 0x4E487B7100000000000000000000000000000000000000000000000000000000 PUSH1 0x0 MSTORE PUSH1 0x32 PUSH1 0x4 MSTORE PUSH1 0x24 PUSH1 0x0 REVERT JUMPDEST ADD SLOAD LT PUSH3 0x3DE3 JUMPI DUP2 SWAP3 POP POP POP PUSH3 0x3E20 JUMP JUMPDEST PUSH1 0x0 PUSH3 0x3E19 JUMPI PUSH32 0x4E487B7100000000000000000000000000000000000000000000000000000000 PUSH1 0x0 MSTORE PUSH1 0x1 PUSH1 0x4 MSTORE PUSH1 0x24 PUSH1 0x0 REVERT JUMPDEST PUSH1 0x0 SWAP3 POP POP POP JUMPDEST SWAP2 SWAP1 POP JUMP JUMPDEST PUSH1 0x0 DUP1 DUP4 SWAP1 POP PUSH1 0x0 DUP4 PUSH1 0xFF AND DUP6 DUP4 PUSH3 0x3E3F SWAP2 SWAP1 PUSH3 0x4A1D JUMP JUMPDEST SWAP1 SHR SWAP2 POP PUSH16 0x3442C4E6074A82F1797F72AC0000000 DUP3 PUSH3 0x3E61 SWAP2 SWAP1 PUSH3 0x4A1D JUMP JUMPDEST DUP2 PUSH3 0x3E6E SWAP2 SWAP1 PUSH3 0x4912 JUMP JUMPDEST SWAP1 POP DUP4 PUSH1 0xFF AND DUP6 DUP4 PUSH3 0x3E82 SWAP2 SWAP1 PUSH3 0x4A1D JUMP JUMPDEST SWAP1 SHR SWAP2 POP PUSH16 0x116B96F757C380FB287FD0E40000000 DUP3 PUSH3 0x3EA4 SWAP2 SWAP1 PUSH3 0x4A1D JUMP JUMPDEST DUP2 PUSH3 0x3EB1 SWAP2 SWAP1 PUSH3 0x4912 JUMP JUMPDEST SWAP1 POP DUP4 PUSH1 0xFF AND DUP6 DUP4 PUSH3 0x3EC5 SWAP2 SWAP1 PUSH3 0x4A1D JUMP JUMPDEST SWAP1 SHR SWAP2 POP PUSH15 0x45AE5BDD5F0E03ECA1FF4390000000 DUP3 PUSH3 0x3EE6 SWAP2 SWAP1 PUSH3 0x4A1D JUMP JUMPDEST DUP2 PUSH3 0x3EF3 SWAP2 SWAP1 PUSH3 0x4912 JUMP JUMPDEST SWAP1 POP DUP4 PUSH1 0xFF AND DUP6 DUP4 PUSH3 0x3F07 SWAP2 SWAP1 PUSH3 0x4A1D JUMP JUMPDEST SWAP1 SHR SWAP2 POP PUSH15 0xDEFABF91302CD95B9FFDA50000000 DUP3 PUSH3 0x3F28 SWAP2 SWAP1 PUSH3 0x4A1D JUMP JUMPDEST DUP2 PUSH3 0x3F35 SWAP2 SWAP1 PUSH3 0x4912 JUMP JUMPDEST SWAP1 POP DUP4 PUSH1 0xFF AND DUP6 DUP4 PUSH3 0x3F49 SWAP2 SWAP1 PUSH3 0x4A1D JUMP JUMPDEST SWAP1 SHR SWAP2 POP PUSH15 0x2529CA9832B22439EFFF9B8000000 DUP3 PUSH3 0x3F6A SWAP2 SWAP1 PUSH3 0x4A1D JUMP JUMPDEST DUP2 PUSH3 0x3F77 SWAP2 SWAP1 PUSH3 0x4912 JUMP JUMPDEST SWAP1 POP DUP4 PUSH1 0xFF AND DUP6 DUP4 PUSH3 0x3F8B SWAP2 SWAP1 PUSH3 0x4A1D JUMP JUMPDEST SWAP1 SHR SWAP2 POP PUSH14 0x54F1CF12BD04E516B6DA88000000 DUP3 PUSH3 0x3FAB SWAP2 SWAP1 PUSH3 0x4A1D JUMP JUMPDEST DUP2 PUSH3 0x3FB8 SWAP2 SWAP1 PUSH3 0x4912 JUMP JUMPDEST SWAP1 POP DUP4 PUSH1 0xFF AND DUP6 DUP4 PUSH3 0x3FCC SWAP2 SWAP1 PUSH3 0x4A1D JUMP JUMPDEST SWAP1 SHR SWAP2 POP PUSH14 0xA9E39E257A09CA2D6DB51000000 DUP3 PUSH3 0x3FEC SWAP2 SWAP1 PUSH3 0x4A1D JUMP JUMPDEST DUP2 PUSH3 0x3FF9 SWAP2 SWAP1 PUSH3 0x4912 JUMP JUMPDEST SWAP1 POP DUP4 PUSH1 0xFF AND DUP6 DUP4 PUSH3 0x400D SWAP2 SWAP1 PUSH3 0x4A1D JUMP JUMPDEST SWAP1 SHR SWAP2 POP PUSH14 0x12E066E7B839FA050C309000000 DUP3 PUSH3 0x402D SWAP2 SWAP1 PUSH3 0x4A1D JUMP JUMPDEST DUP2 PUSH3 0x403A SWAP2 SWAP1 PUSH3 0x4912 JUMP JUMPDEST SWAP1 POP DUP4 PUSH1 0xFF AND DUP6 DUP4 PUSH3 0x404E SWAP2 SWAP1 PUSH3 0x4A1D JUMP JUMPDEST SWAP1 SHR SWAP2 POP PUSH13 0x1E33D7D926C329A1AD1A800000 DUP3 PUSH3 0x406D SWAP2 SWAP1 PUSH3 0x4A1D JUMP JUMPDEST DUP2 PUSH3 0x407A SWAP2 SWAP1 PUSH3 0x4912 JUMP JUMPDEST SWAP1 POP DUP4 PUSH1 0xFF AND DUP6 DUP4 PUSH3 0x408E SWAP2 SWAP1 PUSH3 0x4A1D JUMP JUMPDEST SWAP1 SHR SWAP2 POP PUSH13 0x2BEE513BDB4A6B19B5F800000 DUP3 PUSH3 0x40AD SWAP2 SWAP1 PUSH3 0x4A1D JUMP JUMPDEST DUP2 PUSH3 0x40BA SWAP2 SWAP1 PUSH3 0x4912 JUMP JUMPDEST SWAP1 POP DUP4 PUSH1 0xFF AND DUP6 DUP4 PUSH3 0x40CE SWAP2 SWAP1 PUSH3 0x4A1D JUMP JUMPDEST SWAP1 SHR SWAP2 POP PUSH12 0x3A9316FA79B88ECCF2A00000 DUP3 PUSH3 0x40EC SWAP2 SWAP1 PUSH3 0x4A1D JUMP JUMPDEST DUP2 PUSH3 0x40F9 SWAP2 SWAP1 PUSH3 0x4912 JUMP JUMPDEST SWAP1 POP DUP4 PUSH1 0xFF AND DUP6 DUP4 PUSH3 0x410D SWAP2 SWAP1 PUSH3 0x4A1D JUMP JUMPDEST SWAP1 SHR SWAP2 POP PUSH12 0x48177EBE1FA812375200000 DUP3 PUSH3 0x412B SWAP2 SWAP1 PUSH3 0x4A1D JUMP JUMPDEST DUP2 PUSH3 0x4138 SWAP2 SWAP1 PUSH3 0x4912 JUMP JUMPDEST SWAP1 POP DUP4 PUSH1 0xFF AND DUP6 DUP4 PUSH3 0x414C SWAP2 SWAP1 PUSH3 0x4A1D JUMP JUMPDEST SWAP1 SHR SWAP2 POP PUSH11 0x5263FE90242DCBACF00000 DUP3 PUSH3 0x4169 SWAP2 SWAP1 PUSH3 0x4A1D JUMP JUMPDEST DUP2 PUSH3 0x4176 SWAP2 SWAP1 PUSH3 0x4912 JUMP JUMPDEST SWAP1 POP DUP4 PUSH1 0xFF AND DUP6 DUP4 PUSH3 0x418A SWAP2 SWAP1 PUSH3 0x4A1D JUMP JUMPDEST SWAP1 SHR SWAP2 POP PUSH11 0x57E22099C030D94100000 DUP3 PUSH3 0x41A7 SWAP2 SWAP1 PUSH3 0x4A1D JUMP JUMPDEST DUP2 PUSH3 0x41B4 SWAP2 SWAP1 PUSH3 0x4912 JUMP JUMPDEST SWAP1 POP DUP4 PUSH1 0xFF AND DUP6 DUP4 PUSH3 0x41C8 SWAP2 SWAP1 PUSH3 0x4A1D JUMP JUMPDEST SWAP1 SHR SWAP2 POP PUSH10 0x57E22099C030D9410000 DUP3 PUSH3 0x41E4 SWAP2 SWAP1 PUSH3 0x4A1D JUMP JUMPDEST DUP2 PUSH3 0x41F1 SWAP2 SWAP1 PUSH3 0x4912 JUMP JUMPDEST SWAP1 POP DUP4 PUSH1 0xFF AND DUP6 DUP4 PUSH3 0x4205 SWAP2 SWAP1 PUSH3 0x4A1D JUMP JUMPDEST SWAP1 SHR SWAP2 POP PUSH10 0x52B6B54569976310000 DUP3 PUSH3 0x4221 SWAP2 SWAP1 PUSH3 0x4A1D JUMP JUMPDEST DUP2 PUSH3 0x422E SWAP2 SWAP1 PUSH3 0x4912 JUMP JUMPDEST SWAP1 POP DUP4 PUSH1 0xFF AND DUP6 DUP4 PUSH3 0x4242 SWAP2 SWAP1 PUSH3 0x4A1D JUMP JUMPDEST SWAP1 SHR SWAP2 POP PUSH9 0x4985F67696BF748000 DUP3 PUSH3 0x425D SWAP2 SWAP1 PUSH3 0x4A1D JUMP JUMPDEST DUP2 PUSH3 0x426A SWAP2 SWAP1 PUSH3 0x4912 JUMP JUMPDEST SWAP1 POP DUP4 PUSH1 0xFF AND DUP6 DUP4 PUSH3 0x427E SWAP2 SWAP1 PUSH3 0x4A1D JUMP JUMPDEST SWAP1 SHR SWAP2 POP PUSH9 0x3DEA12EA99E498000 DUP3 PUSH3 0x4299 SWAP2 SWAP1 PUSH3 0x4A1D JUMP JUMPDEST DUP2 PUSH3 0x42A6 SWAP2 SWAP1 PUSH3 0x4912 JUMP JUMPDEST SWAP1 POP DUP4 PUSH1 0xFF AND DUP6 DUP4 PUSH3 0x42BA SWAP2 SWAP1 PUSH3 0x4A1D JUMP JUMPDEST SWAP1 SHR SWAP2 POP PUSH8 0x31880F2214B6E000 DUP3 PUSH3 0x42D4 SWAP2 SWAP1 PUSH3 0x4A1D JUMP JUMPDEST DUP2 PUSH3 0x42E1 SWAP2 SWAP1 PUSH3 0x4912 JUMP JUMPDEST SWAP1 POP DUP4 PUSH1 0xFF AND DUP6 DUP4 PUSH3 0x42F5 SWAP2 SWAP1 PUSH3 0x4A1D JUMP JUMPDEST SWAP1 SHR SWAP2 POP PUSH8 0x25BCFF56EB36000 DUP3 PUSH3 0x430F SWAP2 SWAP1 PUSH3 0x4A1D JUMP JUMPDEST DUP2 PUSH3 0x431C SWAP2 SWAP1 PUSH3 0x4912 JUMP JUMPDEST SWAP1 POP DUP4 PUSH1 0xFF AND DUP6 DUP4 PUSH3 0x4330 SWAP2 SWAP1 PUSH3 0x4A1D JUMP JUMPDEST SWAP1 SHR SWAP2 POP PUSH7 0x1B722E10AB1000 DUP3 PUSH3 0x4349 SWAP2 SWAP1 PUSH3 0x4A1D JUMP JUMPDEST DUP2 PUSH3 0x4356 SWAP2 SWAP1 PUSH3 0x4912 JUMP JUMPDEST SWAP1 POP DUP4 PUSH1 0xFF AND DUP6 DUP4 PUSH3 0x436A SWAP2 SWAP1 PUSH3 0x4A1D JUMP JUMPDEST SWAP1 SHR SWAP2 POP PUSH7 0x1317C70077000 DUP3 PUSH3 0x4383 SWAP2 SWAP1 PUSH3 0x4A1D JUMP JUMPDEST DUP2 PUSH3 0x4390 SWAP2 SWAP1 PUSH3 0x4912 JUMP JUMPDEST SWAP1 POP DUP4 PUSH1 0xFF AND DUP6 DUP4 PUSH3 0x43A4 SWAP2 SWAP1 PUSH3 0x4A1D JUMP JUMPDEST SWAP1 SHR SWAP2 POP PUSH6 0xCBA84AAFA00 DUP3 PUSH3 0x43BC SWAP2 SWAP1 PUSH3 0x4A1D JUMP JUMPDEST DUP2 PUSH3 0x43C9 SWAP2 SWAP1 PUSH3 0x4912 JUMP JUMPDEST SWAP1 POP DUP4 PUSH1 0xFF AND DUP6 DUP4 PUSH3 0x43DD SWAP2 SWAP1 PUSH3 0x4A1D JUMP JUMPDEST SWAP1 SHR SWAP2 POP PUSH5 0x82573A0A00 DUP3 PUSH3 0x43F4 SWAP2 SWAP1 PUSH3 0x4A1D JUMP JUMPDEST DUP2 PUSH3 0x4401 SWAP2 SWAP1 PUSH3 0x4912 JUMP JUMPDEST SWAP1 POP DUP4 PUSH1 0xFF AND DUP6 DUP4 PUSH3 0x4415 SWAP2 SWAP1 PUSH3 0x4A1D JUMP JUMPDEST SWAP1 SHR SWAP2 POP PUSH5 0x5035AD900 DUP3 PUSH3 0x442C SWAP2 SWAP1 PUSH3 0x4A1D JUMP JUMPDEST DUP2 PUSH3 0x4439 SWAP2 SWAP1 PUSH3 0x4912 JUMP JUMPDEST SWAP1 POP DUP4 PUSH1 0xFF AND DUP6 DUP4 PUSH3 0x444D SWAP2 SWAP1 PUSH3 0x4A1D JUMP JUMPDEST SWAP1 SHR SWAP2 POP PUSH4 0x2F881B00 DUP3 PUSH3 0x4463 SWAP2 SWAP1 PUSH3 0x4A1D JUMP JUMPDEST DUP2 PUSH3 0x4470 SWAP2 SWAP1 PUSH3 0x4912 JUMP JUMPDEST SWAP1 POP DUP4 PUSH1 0xFF AND DUP6 DUP4 PUSH3 0x4484 SWAP2 SWAP1 PUSH3 0x4A1D JUMP JUMPDEST SWAP1 SHR SWAP2 POP PUSH4 0x1B29340 DUP3 PUSH3 0x449A SWAP2 SWAP1 PUSH3 0x4A1D JUMP JUMPDEST DUP2 PUSH3 0x44A7 SWAP2 SWAP1 PUSH3 0x4912 JUMP JUMPDEST SWAP1 POP DUP4 PUSH1 0xFF AND DUP6 DUP4 PUSH3 0x44BB SWAP2 SWAP1 PUSH3 0x4A1D JUMP JUMPDEST SWAP1 SHR SWAP2 POP PUSH3 0xEFC40 DUP3 PUSH3 0x44D0 SWAP2 SWAP1 PUSH3 0x4A1D JUMP JUMPDEST DUP2 PUSH3 0x44DD SWAP2 SWAP1 PUSH3 0x4912 JUMP JUMPDEST SWAP1 POP DUP4 PUSH1 0xFF AND DUP6 DUP4 PUSH3 0x44F1 SWAP2 SWAP1 PUSH3 0x4A1D JUMP JUMPDEST SWAP1 SHR SWAP2 POP PUSH2 0x7FE0 DUP3 PUSH3 0x4505 SWAP2 SWAP1 PUSH3 0x4A1D JUMP JUMPDEST DUP2 PUSH3 0x4512 SWAP2 SWAP1 PUSH3 0x4912 JUMP JUMPDEST SWAP1 POP DUP4 PUSH1 0xFF AND DUP6 DUP4 PUSH3 0x4526 SWAP2 SWAP1 PUSH3 0x4A1D JUMP JUMPDEST SWAP1 SHR SWAP2 POP PUSH2 0x420 DUP3 PUSH3 0x453A SWAP2 SWAP1 PUSH3 0x4A1D JUMP JUMPDEST DUP2 PUSH3 0x4547 SWAP2 SWAP1 PUSH3 0x4912 JUMP JUMPDEST SWAP1 POP DUP4 PUSH1 0xFF AND DUP6 DUP4 PUSH3 0x455B SWAP2 SWAP1 PUSH3 0x4A1D JUMP JUMPDEST SWAP1 SHR SWAP2 POP PUSH1 0x21 DUP3 PUSH3 0x456E SWAP2 SWAP1 PUSH3 0x4A1D JUMP JUMPDEST DUP2 PUSH3 0x457B SWAP2 SWAP1 PUSH3 0x4912 JUMP JUMPDEST SWAP1 POP DUP4 PUSH1 0xFF AND DUP6 DUP4 PUSH3 0x458F SWAP2 SWAP1 PUSH3 0x4A1D JUMP JUMPDEST SWAP1 SHR SWAP2 POP PUSH1 0x1 DUP3 PUSH3 0x45A2 SWAP2 SWAP1 PUSH3 0x4A1D JUMP JUMPDEST DUP2 PUSH3 0x45AF SWAP2 SWAP1 PUSH3 0x4912 JUMP JUMPDEST SWAP1 POP DUP4 PUSH1 0xFF AND PUSH1 0x1 SWAP1 SHL DUP6 PUSH16 0x688589CC0E9505E2F2FEE5580000000 DUP4 PUSH3 0x45D8 SWAP2 SWAP1 PUSH3 0x49AD JUMP JUMPDEST PUSH3 0x45E4 SWAP2 SWAP1 PUSH3 0x4912 JUMP JUMPDEST PUSH3 0x45F0 SWAP2 SWAP1 PUSH3 0x4912 JUMP JUMPDEST SWAP3 POP POP POP SWAP3 SWAP2 POP POP JUMP JUMPDEST PUSH1 0x0 DUP1 PUSH1 0x0 SWAP1 POP PUSH1 0x0 DUP4 SWAP1 POP PUSH2 0x100 DUP2 LT ISZERO PUSH3 0x4640 JUMPI JUMPDEST PUSH1 0x1 DUP2 GT ISZERO PUSH3 0x463A JUMPI PUSH1 0x1 DUP2 SWAP1 SHR SWAP1 POP PUSH1 0x1 DUP3 PUSH3 0x4632 SWAP2 SWAP1 PUSH3 0x496F JUMP JUMPDEST SWAP2 POP PUSH3 0x4612 JUMP JUMPDEST PUSH3 0x4684 JUMP JUMPDEST PUSH1 0x0 PUSH1 0x80 SWAP1 POP JUMPDEST PUSH1 0x0 DUP2 PUSH1 0xFF AND GT ISZERO PUSH3 0x4682 JUMPI DUP1 PUSH1 0xFF AND PUSH1 0x1 SWAP1 SHL DUP3 LT PUSH3 0x4672 JUMPI DUP1 PUSH1 0xFF AND DUP3 SWAP1 SHR SWAP2 POP DUP1 DUP4 OR SWAP3 POP JUMPDEST PUSH1 0x1 DUP2 PUSH1 0xFF AND SWAP1 SHR SWAP1 POP PUSH3 0x4647 JUMP JUMPDEST POP JUMPDEST DUP2 SWAP3 POP POP POP SWAP2 SWAP1 POP JUMP JUMPDEST DUP3 DUP1 SLOAD PUSH3 0x469C SWAP1 PUSH3 0x4B7E JUMP JUMPDEST SWAP1 PUSH1 0x0 MSTORE PUSH1 0x20 PUSH1 0x0 KECCAK256 SWAP1 PUSH1 0x1F ADD PUSH1 0x20 SWAP1 DIV DUP2 ADD SWAP3 DUP3 PUSH3 0x46C0 JUMPI PUSH1 0x0 DUP6 SSTORE PUSH3 0x470C JUMP JUMPDEST DUP3 PUSH1 0x1F LT PUSH3 0x46DB JUMPI DUP1 MLOAD PUSH1 0xFF NOT AND DUP4 DUP1 ADD OR DUP6 SSTORE PUSH3 0x470C JUMP JUMPDEST DUP3 DUP1 ADD PUSH1 0x1 ADD DUP6 SSTORE DUP3 ISZERO PUSH3 0x470C JUMPI SWAP2 DUP3 ADD JUMPDEST DUP3 DUP2 GT ISZERO PUSH3 0x470B JUMPI DUP3 MLOAD DUP3 SSTORE SWAP2 PUSH1 0x20 ADD SWAP2 SWAP1 PUSH1 0x1 ADD SWAP1 PUSH3 0x46EE JUMP JUMPDEST JUMPDEST POP SWAP1 POP PUSH3 0x471B SWAP2 SWAP1 PUSH3 0x471F JUMP JUMPDEST POP SWAP1 JUMP JUMPDEST JUMPDEST DUP1 DUP3 GT ISZERO PUSH3 0x473A JUMPI PUSH1 0x0 DUP2 PUSH1 0x0 SWAP1 SSTORE POP PUSH1 0x1 ADD PUSH3 0x4720 JUMP JUMPDEST POP SWAP1 JUMP JUMPDEST PUSH1 0x0 DUP2 MLOAD SWAP1 POP PUSH3 0x474F DUP2 PUSH3 0x4CC7 JUMP JUMPDEST SWAP3 SWAP2 POP POP JUMP JUMPDEST PUSH1 0x0 DUP2 MLOAD SWAP1 POP PUSH3 0x4766 DUP2 PUSH3 0x4CE1 JUMP JUMPDEST SWAP3 SWAP2 POP POP JUMP JUMPDEST PUSH1 0x0 DUP2 MLOAD SWAP1 POP PUSH3 0x477D DUP2 PUSH3 0x4CFB JUMP JUMPDEST SWAP3 SWAP2 POP POP JUMP JUMPDEST PUSH1 0x0 DUP1 PUSH1 0x0 DUP1 PUSH1 0x0 PUSH1 0xA0 DUP7 DUP9 SUB SLT ISZERO PUSH3 0x479C JUMPI PUSH1 0x0 DUP1 REVERT JUMPDEST PUSH1 0x0 PUSH3 0x47AC DUP9 DUP3 DUP10 ADD PUSH3 0x473E JUMP JUMPDEST SWAP6 POP POP PUSH1 0x20 PUSH3 0x47BF DUP9 DUP3 DUP10 ADD PUSH3 0x473E JUMP JUMPDEST SWAP5 POP POP PUSH1 0x40 PUSH3 0x47D2 DUP9 DUP3 DUP10 ADD PUSH3 0x473E JUMP JUMPDEST SWAP4 POP POP PUSH1 0x60 PUSH3 0x47E5 DUP9 DUP3 DUP10 ADD PUSH3 0x476C JUMP JUMPDEST SWAP3 POP POP PUSH1 0x80 PUSH3 0x47F8 DUP9 DUP3 DUP10 ADD PUSH3 0x4755 JUMP JUMPDEST SWAP2 POP POP SWAP3 SWAP6 POP SWAP3 SWAP6 SWAP1 SWAP4 POP JUMP JUMPDEST PUSH1 0x0 PUSH1 0x20 DUP3 DUP5 SUB SLT ISZERO PUSH3 0x4818 JUMPI PUSH1 0x0 DUP1 REVERT JUMPDEST PUSH1 0x0 PUSH3 0x4828 DUP5 DUP3 DUP6 ADD PUSH3 0x4755 JUMP JUMPDEST SWAP2 POP POP SWAP3 SWAP2 POP POP JUMP JUMPDEST PUSH3 0x483C DUP2 PUSH3 0x4AF4 JUMP JUMPDEST DUP3 MSTORE POP POP JUMP JUMPDEST PUSH1 0x0 PUSH3 0x4851 PUSH1 0x1C DUP4 PUSH3 0x4901 JUMP JUMPDEST SWAP2 POP PUSH32 0x4261736573203C203120617265206E6F7420737570706F727465642E00000000 PUSH1 0x0 DUP4 ADD MSTORE PUSH1 0x20 DUP3 ADD SWAP1 POP SWAP2 SWAP1 POP JUMP JUMPDEST PUSH3 0x488F DUP2 PUSH3 0x4B28 JUMP JUMPDEST DUP3 MSTORE POP POP JUMP JUMPDEST PUSH1 0x0 PUSH1 0x20 DUP3 ADD SWAP1 POP PUSH3 0x48AC PUSH1 0x0 DUP4 ADD DUP5 PUSH3 0x4831 JUMP JUMPDEST SWAP3 SWAP2 POP POP JUMP JUMPDEST PUSH1 0x0 PUSH1 0x40 DUP3 ADD SWAP1 POP PUSH3 0x48C9 PUSH1 0x0 DUP4 ADD DUP6 PUSH3 0x4831 JUMP JUMPDEST PUSH3 0x48D8 PUSH1 0x20 DUP4 ADD DUP5 PUSH3 0x4884 JUMP JUMPDEST SWAP4 SWAP3 POP POP POP JUMP JUMPDEST PUSH1 0x0 PUSH1 0x20 DUP3 ADD SWAP1 POP DUP2 DUP2 SUB PUSH1 0x0 DUP4 ADD MSTORE PUSH3 0x48FA DUP2 PUSH3 0x4842 JUMP JUMPDEST SWAP1 POP SWAP2 SWAP1 POP JUMP JUMPDEST PUSH1 0x0 DUP3 DUP3 MSTORE PUSH1 0x20 DUP3 ADD SWAP1 POP SWAP3 SWAP2 POP POP JUMP JUMPDEST PUSH1 0x0 PUSH3 0x491F DUP3 PUSH3 0x4B28 JUMP JUMPDEST SWAP2 POP PUSH3 0x492C DUP4 PUSH3 0x4B28 JUMP JUMPDEST SWAP3 POP DUP3 PUSH32 0xFFFFFFFFFFFFFFFFFFFFFFFFFFFFFFFFFFFFFFFFFFFFFFFFFFFFFFFFFFFFFFFF SUB DUP3 GT ISZERO PUSH3 0x4964 JUMPI PUSH3 0x4963 PUSH3 0x4C3A JUMP JUMPDEST JUMPDEST DUP3 DUP3 ADD SWAP1 POP SWAP3 SWAP2 POP POP JUMP JUMPDEST PUSH1 0x0 PUSH3 0x497C DUP3 PUSH3 0x4B42 JUMP JUMPDEST SWAP2 POP PUSH3 0x4989 DUP4 PUSH3 0x4B42 JUMP JUMPDEST SWAP3 POP DUP3 PUSH1 0xFF SUB DUP3 GT ISZERO PUSH3 0x49A2 JUMPI PUSH3 0x49A1 PUSH3 0x4C3A JUMP JUMPDEST JUMPDEST DUP3 DUP3 ADD SWAP1 POP SWAP3 SWAP2 POP POP JUMP JUMPDEST PUSH1 0x0 PUSH3 0x49BA DUP3 PUSH3 0x4B28 JUMP JUMPDEST SWAP2 POP PUSH3 0x49C7 DUP4 PUSH3 0x4B28 JUMP JUMPDEST SWAP3 POP DUP3 PUSH3 0x49DA JUMPI PUSH3 0x49D9 PUSH3 0x4C69 JUMP JUMPDEST JUMPDEST DUP3 DUP3 DIV SWAP1 POP SWAP3 SWAP2 POP POP JUMP JUMPDEST PUSH1 0x0 PUSH3 0x49F2 DUP3 PUSH3 0x4B42 JUMP JUMPDEST SWAP2 POP PUSH3 0x49FF DUP4 PUSH3 0x4B42 JUMP JUMPDEST SWAP3 POP DUP3 PUSH3 0x4A12 JUMPI PUSH3 0x4A11 PUSH3 0x4C69 JUMP JUMPDEST JUMPDEST DUP3 DUP3 DIV SWAP1 POP SWAP3 SWAP2 POP POP JUMP JUMPDEST PUSH1 0x0 PUSH3 0x4A2A DUP3 PUSH3 0x4B28 JUMP JUMPDEST SWAP2 POP PUSH3 0x4A37 DUP4 PUSH3 0x4B28 JUMP JUMPDEST SWAP3 POP DUP2 PUSH32 0xFFFFFFFFFFFFFFFFFFFFFFFFFFFFFFFFFFFFFFFFFFFFFFFFFFFFFFFFFFFFFFFF DIV DUP4 GT DUP3 ISZERO ISZERO AND ISZERO PUSH3 0x4A73 JUMPI PUSH3 0x4A72 PUSH3 0x4C3A JUMP JUMPDEST JUMPDEST DUP3 DUP3 MUL SWAP1 POP SWAP3 SWAP2 POP POP JUMP JUMPDEST PUSH1 0x0 PUSH3 0x4A8B DUP3 PUSH3 0x4B28 JUMP JUMPDEST SWAP2 POP PUSH3 0x4A98 DUP4 PUSH3 0x4B28 JUMP JUMPDEST SWAP3 POP DUP3 DUP3 LT ISZERO PUSH3 0x4AAE JUMPI PUSH3 0x4AAD PUSH3 0x4C3A JUMP JUMPDEST JUMPDEST DUP3 DUP3 SUB SWAP1 POP SWAP3 SWAP2 POP POP JUMP JUMPDEST PUSH1 0x0 PUSH3 0x4AC6 DUP3 PUSH3 0x4B42 JUMP JUMPDEST SWAP2 POP PUSH3 0x4AD3 DUP4 PUSH3 0x4B42 JUMP JUMPDEST SWAP3 POP DUP3 DUP3 LT ISZERO PUSH3 0x4AE9 JUMPI PUSH3 0x4AE8 PUSH3 0x4C3A JUMP JUMPDEST JUMPDEST DUP3 DUP3 SUB SWAP1 POP SWAP3 SWAP2 POP POP JUMP JUMPDEST PUSH1 0x0 PUSH3 0x4B01 DUP3 PUSH3 0x4B08 JUMP JUMPDEST SWAP1 POP SWAP2 SWAP1 POP JUMP JUMPDEST PUSH1 0x0 PUSH20 0xFFFFFFFFFFFFFFFFFFFFFFFFFFFFFFFFFFFFFFFF DUP3 AND SWAP1 POP SWAP2 SWAP1 POP JUMP JUMPDEST PUSH1 0x0 DUP2 SWAP1 POP SWAP2 SWAP1 POP JUMP JUMPDEST PUSH1 0x0 PUSH4 0xFFFFFFFF DUP3 AND SWAP1 POP SWAP2 SWAP1 POP JUMP JUMPDEST PUSH1 0x0 PUSH1 0xFF DUP3 AND SWAP1 POP SWAP2 SWAP1 POP JUMP JUMPDEST PUSH1 0x0 PUSH3 0x4B5C DUP3 PUSH3 0x4B42 JUMP JUMPDEST SWAP2 POP PUSH1 0x0 DUP3 EQ ISZERO PUSH3 0x4B73 JUMPI PUSH3 0x4B72 PUSH3 0x4C3A JUMP JUMPDEST JUMPDEST PUSH1 0x1 DUP3 SUB SWAP1 POP SWAP2 SWAP1 POP JUMP JUMPDEST PUSH1 0x0 PUSH1 0x2 DUP3 DIV SWAP1 POP PUSH1 0x1 DUP3 AND DUP1 PUSH3 0x4B97 JUMPI PUSH1 0x7F DUP3 AND SWAP2 POP JUMPDEST PUSH1 0x20 DUP3 LT DUP2 EQ ISZERO PUSH3 0x4BAE JUMPI PUSH3 0x4BAD PUSH3 0x4C98 JUMP JUMPDEST JUMPDEST POP SWAP2 SWAP1 POP JUMP JUMPDEST PUSH1 0x0 PUSH3 0x4BC1 DUP3 PUSH3 0x4B28 JUMP JUMPDEST SWAP2 POP PUSH32 0xFFFFFFFFFFFFFFFFFFFFFFFFFFFFFFFFFFFFFFFFFFFFFFFFFFFFFFFFFFFFFFFF DUP3 EQ ISZERO PUSH3 0x4BF7 JUMPI PUSH3 0x4BF6 PUSH3 0x4C3A JUMP JUMPDEST JUMPDEST PUSH1 0x1 DUP3 ADD SWAP1 POP SWAP2 SWAP1 POP JUMP JUMPDEST PUSH1 0x0 PUSH3 0x4C0F DUP3 PUSH3 0x4B28 JUMP JUMPDEST SWAP2 POP PUSH3 0x4C1C DUP4 PUSH3 0x4B28 JUMP JUMPDEST SWAP3 POP DUP3 PUSH3 0x4C2F JUMPI PUSH3 0x4C2E PUSH3 0x4C69 JUMP JUMPDEST JUMPDEST DUP3 DUP3 MOD SWAP1 POP SWAP3 SWAP2 POP POP JUMP JUMPDEST PUSH32 0x4E487B7100000000000000000000000000000000000000000000000000000000 PUSH1 0x0 MSTORE PUSH1 0x11 PUSH1 0x4 MSTORE PUSH1 0x24 PUSH1 0x0 REVERT JUMPDEST PUSH32 0x4E487B7100000000000000000000000000000000000000000000000000000000 PUSH1 0x0 MSTORE PUSH1 0x12 PUSH1 0x4 MSTORE PUSH1 0x24 PUSH1 0x0 REVERT JUMPDEST PUSH32 0x4E487B7100000000000000000000000000000000000000000000000000000000 PUSH1 0x0 MSTORE PUSH1 0x22 PUSH1 0x4 MSTORE PUSH1 0x24 PUSH1 0x0 REVERT JUMPDEST PUSH3 0x4CD2 DUP2 PUSH3 0x4AF4 JUMP JUMPDEST DUP2 EQ PUSH3 0x4CDE JUMPI PUSH1 0x0 DUP1 REVERT JUMPDEST POP JUMP JUMPDEST PUSH3 0x4CEC DUP2 PUSH3 0x4B28 JUMP JUMPDEST DUP2 EQ PUSH3 0x4CF8 JUMPI PUSH1 0x0 DUP1 REVERT JUMPDEST POP JUMP JUMPDEST PUSH3 0x4D06 DUP2 PUSH3 0x4B32 JUMP JUMPDEST DUP2 EQ PUSH3 0x4D12 JUMPI PUSH1 0x0 DUP1 REVERT JUMPDEST POP JUMP JUMPDEST PUSH2 0x3DE1 DUP1 PUSH3 0x4D25 PUSH1 0x0 CODECOPY PUSH1 0x0 RETURN INVALID PUSH1 0x80 PUSH1 0x40 MSTORE PUSH1 0x4 CALLDATASIZE LT PUSH2 0x166 JUMPI PUSH1 0x0 CALLDATALOAD PUSH1 0xE0 SHR DUP1 PUSH4 0x7B80889B GT PUSH2 0xD1 JUMPI DUP1 PUSH4 0xCA3E24C9 GT PUSH2 0x8A JUMPI DUP1 PUSH4 0xE4A28A52 GT PUSH2 0x64 JUMPI DUP1 PUSH4 0xE4A28A52 EQ PUSH2 0x511 JUMPI DUP1 PUSH4 0xECCC32F2 EQ PUSH2 0x53C JUMPI DUP1 PUSH4 0xF04B1188 EQ PUSH2 0x567 JUMPI DUP1 PUSH4 0xF2FDE38B EQ PUSH2 0x5A4 JUMPI PUSH2 0x166 JUMP JUMPDEST DUP1 PUSH4 0xCA3E24C9 EQ PUSH2 0x48F JUMPI DUP1 PUSH4 0xD53FFBCF EQ PUSH2 0x4B8 JUMPI DUP1 PUSH4 0xE1F1E902 EQ PUSH2 0x4D4 JUMPI PUSH2 0x166 JUMP JUMPDEST DUP1 PUSH4 0x7B80889B EQ PUSH2 0x37D JUMPI DUP1 PUSH4 0x8DA5CB5B EQ PUSH2 0x3A8 JUMPI DUP1 PUSH4 0x9104C81E EQ PUSH2 0x3D3 JUMPI DUP1 PUSH4 0x918B7CFE EQ PUSH2 0x3FC JUMPI DUP1 PUSH4 0xB586C9A2 EQ PUSH2 0x439 JUMPI DUP1 PUSH4 0xB6FAAF8A EQ PUSH2 0x464 JUMPI PUSH2 0x166 JUMP JUMPDEST DUP1 PUSH4 0x5CF590D9 GT PUSH2 0x123 JUMPI DUP1 PUSH4 0x5CF590D9 EQ PUSH2 0x291 JUMPI DUP1 PUSH4 0x63795D57 EQ PUSH2 0x2BC JUMPI DUP1 PUSH4 0x70BA1113 EQ PUSH2 0x2E7 JUMPI DUP1 PUSH4 0x715018A6 EQ PUSH2 0x312 JUMPI DUP1 PUSH4 0x717AD438 EQ PUSH2 0x329 JUMPI DUP1 PUSH4 0x780249CD EQ PUSH2 0x352 JUMPI PUSH2 0x166 JUMP JUMPDEST DUP1 PUSH4 0x1F2DC5EF EQ PUSH2 0x16B JUMPI DUP1 PUSH4 0x24D69228 EQ PUSH2 0x196 JUMPI DUP1 PUSH4 0x29A00E7C EQ PUSH2 0x1C1 JUMPI DUP1 PUSH4 0x4242BAC0 EQ PUSH2 0x1FE JUMPI DUP1 PUSH4 0x49F9B0F7 EQ PUSH2 0x229 JUMPI DUP1 PUSH4 0x54FD4D50 EQ PUSH2 0x266 JUMPI JUMPDEST PUSH1 0x0 DUP1 REVERT JUMPDEST CALLVALUE DUP1 ISZERO PUSH2 0x177 JUMPI PUSH1 0x0 DUP1 REVERT JUMPDEST POP PUSH2 0x180 PUSH2 0x5CD JUMP JUMPDEST PUSH1 0x40 MLOAD PUSH2 0x18D SWAP2 SWAP1 PUSH2 0x38D4 JUMP JUMPDEST PUSH1 0x40 MLOAD DUP1 SWAP2 SUB SWAP1 RETURN JUMPDEST CALLVALUE DUP1 ISZERO PUSH2 0x1A2 JUMPI PUSH1 0x0 DUP1 REVERT JUMPDEST POP PUSH2 0x1AB PUSH2 0x5D3 JUMP JUMPDEST PUSH1 0x40 MLOAD PUSH2 0x1B8 SWAP2 SWAP1 PUSH2 0x38D4 JUMP JUMPDEST PUSH1 0x40 MLOAD DUP1 SWAP2 SUB SWAP1 RETURN JUMPDEST CALLVALUE DUP1 ISZERO PUSH2 0x1CD JUMPI PUSH1 0x0 DUP1 REVERT JUMPDEST POP PUSH2 0x1E8 PUSH1 0x4 DUP1 CALLDATASIZE SUB DUP2 ADD SWAP1 PUSH2 0x1E3 SWAP2 SWAP1 PUSH2 0x35AA JUMP JUMPDEST PUSH2 0x7BF JUMP JUMPDEST PUSH1 0x40 MLOAD PUSH2 0x1F5 SWAP2 SWAP1 PUSH2 0x38D4 JUMP JUMPDEST PUSH1 0x40 MLOAD DUP1 SWAP2 SUB SWAP1 RETURN JUMPDEST CALLVALUE DUP1 ISZERO PUSH2 0x20A JUMPI PUSH1 0x0 DUP1 REVERT JUMPDEST POP PUSH2 0x213 PUSH2 0x8F1 JUMP JUMPDEST PUSH1 0x40 MLOAD PUSH2 0x220 SWAP2 SWAP1 PUSH2 0x3837 JUMP JUMPDEST PUSH1 0x40 MLOAD DUP1 SWAP2 SUB SWAP1 RETURN JUMPDEST CALLVALUE DUP1 ISZERO PUSH2 0x235 JUMPI PUSH1 0x0 DUP1 REVERT JUMPDEST POP PUSH2 0x250 PUSH1 0x4 DUP1 CALLDATASIZE SUB DUP2 ADD SWAP1 PUSH2 0x24B SWAP2 SWAP1 PUSH2 0x35AA JUMP JUMPDEST PUSH2 0x917 JUMP JUMPDEST PUSH1 0x40 MLOAD PUSH2 0x25D SWAP2 SWAP1 PUSH2 0x38D4 JUMP JUMPDEST PUSH1 0x40 MLOAD DUP1 SWAP2 SUB SWAP1 RETURN JUMPDEST CALLVALUE DUP1 ISZERO PUSH2 0x272 JUMPI PUSH1 0x0 DUP1 REVERT JUMPDEST POP PUSH2 0x27B PUSH2 0xA7D JUMP JUMPDEST PUSH1 0x40 MLOAD PUSH2 0x288 SWAP2 SWAP1 PUSH2 0x3852 JUMP JUMPDEST PUSH1 0x40 MLOAD DUP1 SWAP2 SUB SWAP1 RETURN JUMPDEST CALLVALUE DUP1 ISZERO PUSH2 0x29D JUMPI PUSH1 0x0 DUP1 REVERT JUMPDEST POP PUSH2 0x2A6 PUSH2 0xB0B JUMP JUMPDEST PUSH1 0x40 MLOAD PUSH2 0x2B3 SWAP2 SWAP1 PUSH2 0x38D4 JUMP JUMPDEST PUSH1 0x40 MLOAD DUP1 SWAP2 SUB SWAP1 RETURN JUMPDEST CALLVALUE DUP1 ISZERO PUSH2 0x2C8 JUMPI PUSH1 0x0 DUP1 REVERT JUMPDEST POP PUSH2 0x2D1 PUSH2 0xB11 JUMP JUMPDEST PUSH1 0x40 MLOAD PUSH2 0x2DE SWAP2 SWAP1 PUSH2 0x38D4 JUMP JUMPDEST PUSH1 0x40 MLOAD DUP1 SWAP2 SUB SWAP1 RETURN JUMPDEST CALLVALUE DUP1 ISZERO PUSH2 0x2F3 JUMPI PUSH1 0x0 DUP1 REVERT JUMPDEST POP PUSH2 0x2FC PUSH2 0xB17 JUMP JUMPDEST PUSH1 0x40 MLOAD PUSH2 0x309 SWAP2 SWAP1 PUSH2 0x38D4 JUMP JUMPDEST PUSH1 0x40 MLOAD DUP1 SWAP2 SUB SWAP1 RETURN JUMPDEST CALLVALUE DUP1 ISZERO PUSH2 0x31E JUMPI PUSH1 0x0 DUP1 REVERT JUMPDEST POP PUSH2 0x327 PUSH2 0xB1D JUMP JUMPDEST STOP JUMPDEST CALLVALUE DUP1 ISZERO PUSH2 0x335 JUMPI PUSH1 0x0 DUP1 REVERT JUMPDEST POP PUSH2 0x350 PUSH1 0x4 DUP1 CALLDATASIZE SUB DUP2 ADD SWAP1 PUSH2 0x34B SWAP2 SWAP1 PUSH2 0x34A4 JUMP JUMPDEST PUSH2 0xC57 JUMP JUMPDEST STOP JUMPDEST CALLVALUE DUP1 ISZERO PUSH2 0x35E JUMPI PUSH1 0x0 DUP1 REVERT JUMPDEST POP PUSH2 0x367 PUSH2 0xDD0 JUMP JUMPDEST PUSH1 0x40 MLOAD PUSH2 0x374 SWAP2 SWAP1 PUSH2 0x3801 JUMP JUMPDEST PUSH1 0x40 MLOAD DUP1 SWAP2 SUB SWAP1 RETURN JUMPDEST CALLVALUE DUP1 ISZERO PUSH2 0x389 JUMPI PUSH1 0x0 DUP1 REVERT JUMPDEST POP PUSH2 0x392 PUSH2 0xDF6 JUMP JUMPDEST PUSH1 0x40 MLOAD PUSH2 0x39F SWAP2 SWAP1 PUSH2 0x38D4 JUMP JUMPDEST PUSH1 0x40 MLOAD DUP1 SWAP2 SUB SWAP1 RETURN JUMPDEST CALLVALUE DUP1 ISZERO PUSH2 0x3B4 JUMPI PUSH1 0x0 DUP1 REVERT JUMPDEST POP PUSH2 0x3BD PUSH2 0xDFC JUMP JUMPDEST PUSH1 0x40 MLOAD PUSH2 0x3CA SWAP2 SWAP1 PUSH2 0x3786 JUMP JUMPDEST PUSH1 0x40 MLOAD DUP1 SWAP2 SUB SWAP1 RETURN JUMPDEST CALLVALUE DUP1 ISZERO PUSH2 0x3DF JUMPI PUSH1 0x0 DUP1 REVERT JUMPDEST POP PUSH2 0x3FA PUSH1 0x4 DUP1 CALLDATASIZE SUB DUP2 ADD SWAP1 PUSH2 0x3F5 SWAP2 SWAP1 PUSH2 0x351C JUMP JUMPDEST PUSH2 0xE25 JUMP JUMPDEST STOP JUMPDEST CALLVALUE DUP1 ISZERO PUSH2 0x408 JUMPI PUSH1 0x0 DUP1 REVERT JUMPDEST POP PUSH2 0x423 PUSH1 0x4 DUP1 CALLDATASIZE SUB DUP2 ADD SWAP1 PUSH2 0x41E SWAP2 SWAP1 PUSH2 0x351C JUMP JUMPDEST PUSH2 0x10E7 JUMP JUMPDEST PUSH1 0x40 MLOAD PUSH2 0x430 SWAP2 SWAP1 PUSH2 0x3786 JUMP JUMPDEST PUSH1 0x40 MLOAD DUP1 SWAP2 SUB SWAP1 RETURN JUMPDEST CALLVALUE DUP1 ISZERO PUSH2 0x445 JUMPI PUSH1 0x0 DUP1 REVERT JUMPDEST POP PUSH2 0x44E PUSH2 0x1126 JUMP JUMPDEST PUSH1 0x40 MLOAD PUSH2 0x45B SWAP2 SWAP1 PUSH2 0x38EF JUMP JUMPDEST PUSH1 0x40 MLOAD DUP1 SWAP2 SUB SWAP1 RETURN JUMPDEST CALLVALUE DUP1 ISZERO PUSH2 0x470 JUMPI PUSH1 0x0 DUP1 REVERT JUMPDEST POP PUSH2 0x479 PUSH2 0x113C JUMP JUMPDEST PUSH1 0x40 MLOAD PUSH2 0x486 SWAP2 SWAP1 PUSH2 0x38D4 JUMP JUMPDEST PUSH1 0x40 MLOAD DUP1 SWAP2 SUB SWAP1 RETURN JUMPDEST CALLVALUE DUP1 ISZERO PUSH2 0x49B JUMPI PUSH1 0x0 DUP1 REVERT JUMPDEST POP PUSH2 0x4B6 PUSH1 0x4 DUP1 CALLDATASIZE SUB DUP2 ADD SWAP1 PUSH2 0x4B1 SWAP2 SWAP1 PUSH2 0x347B JUMP JUMPDEST PUSH2 0x1142 JUMP JUMPDEST STOP JUMPDEST PUSH2 0x4D2 PUSH1 0x4 DUP1 CALLDATASIZE SUB DUP2 ADD SWAP1 PUSH2 0x4CD SWAP2 SWAP1 PUSH2 0x356E JUMP JUMPDEST PUSH2 0x125E JUMP JUMPDEST STOP JUMPDEST CALLVALUE DUP1 ISZERO PUSH2 0x4E0 JUMPI PUSH1 0x0 DUP1 REVERT JUMPDEST POP PUSH2 0x4FB PUSH1 0x4 DUP1 CALLDATASIZE SUB DUP2 ADD SWAP1 PUSH2 0x4F6 SWAP2 SWAP1 PUSH2 0x351C JUMP JUMPDEST PUSH2 0x149F JUMP JUMPDEST PUSH1 0x40 MLOAD PUSH2 0x508 SWAP2 SWAP1 PUSH2 0x38D4 JUMP JUMPDEST PUSH1 0x40 MLOAD DUP1 SWAP2 SUB SWAP1 RETURN JUMPDEST CALLVALUE DUP1 ISZERO PUSH2 0x51D JUMPI PUSH1 0x0 DUP1 REVERT JUMPDEST POP PUSH2 0x526 PUSH2 0x157D JUMP JUMPDEST PUSH1 0x40 MLOAD PUSH2 0x533 SWAP2 SWAP1 PUSH2 0x38EF JUMP JUMPDEST PUSH1 0x40 MLOAD DUP1 SWAP2 SUB SWAP1 RETURN JUMPDEST CALLVALUE DUP1 ISZERO PUSH2 0x548 JUMPI PUSH1 0x0 DUP1 REVERT JUMPDEST POP PUSH2 0x551 PUSH2 0x1593 JUMP JUMPDEST PUSH1 0x40 MLOAD PUSH2 0x55E SWAP2 SWAP1 PUSH2 0x381C JUMP JUMPDEST PUSH1 0x40 MLOAD DUP1 SWAP2 SUB SWAP1 RETURN JUMPDEST CALLVALUE DUP1 ISZERO PUSH2 0x573 JUMPI PUSH1 0x0 DUP1 REVERT JUMPDEST POP PUSH2 0x58E PUSH1 0x4 DUP1 CALLDATASIZE SUB DUP2 ADD SWAP1 PUSH2 0x589 SWAP2 SWAP1 PUSH2 0x351C JUMP JUMPDEST PUSH2 0x15B9 JUMP JUMPDEST PUSH1 0x40 MLOAD PUSH2 0x59B SWAP2 SWAP1 PUSH2 0x38D4 JUMP JUMPDEST PUSH1 0x40 MLOAD DUP1 SWAP2 SUB SWAP1 RETURN JUMPDEST CALLVALUE DUP1 ISZERO PUSH2 0x5B0 JUMPI PUSH1 0x0 DUP1 REVERT JUMPDEST POP PUSH2 0x5CB PUSH1 0x4 DUP1 CALLDATASIZE SUB DUP2 ADD SWAP1 PUSH2 0x5C6 SWAP2 SWAP1 PUSH2 0x347B JUMP JUMPDEST PUSH2 0x1697 JUMP JUMPDEST STOP JUMPDEST PUSH1 0x86 SLOAD DUP2 JUMP JUMPDEST PUSH1 0x0 DUP1 PUSH1 0x0 JUMPDEST PUSH1 0x8C DUP1 SLOAD SWAP1 POP DUP2 GT PUSH2 0x7B7 JUMPI PUSH1 0x0 PUSH20 0xFFFFFFFFFFFFFFFFFFFFFFFFFFFFFFFFFFFFFFFF AND PUSH1 0x8C DUP3 DUP2 SLOAD DUP2 LT PUSH2 0x637 JUMPI PUSH32 0x4E487B7100000000000000000000000000000000000000000000000000000000 PUSH1 0x0 MSTORE PUSH1 0x32 PUSH1 0x4 MSTORE PUSH1 0x24 PUSH1 0x0 REVERT JUMPDEST SWAP1 PUSH1 0x0 MSTORE PUSH1 0x20 PUSH1 0x0 KECCAK256 ADD PUSH1 0x0 SWAP1 SLOAD SWAP1 PUSH2 0x100 EXP SWAP1 DIV PUSH20 0xFFFFFFFFFFFFFFFFFFFFFFFFFFFFFFFFFFFFFFFF AND PUSH20 0xFFFFFFFFFFFFFFFFFFFFFFFFFFFFFFFFFFFFFFFF AND EQ ISZERO PUSH2 0x698 JUMPI PUSH2 0x691 SELFBALANCE DUP4 PUSH2 0x1840 SWAP1 SWAP2 SWAP1 PUSH4 0xFFFFFFFF AND JUMP JUMPDEST SWAP2 POP PUSH2 0x7A6 JUMP JUMPDEST PUSH1 0x0 PUSH1 0x8C DUP3 DUP2 SLOAD DUP2 LT PUSH2 0x6D4 JUMPI PUSH32 0x4E487B7100000000000000000000000000000000000000000000000000000000 PUSH1 0x0 MSTORE PUSH1 0x32 PUSH1 0x4 MSTORE PUSH1 0x24 PUSH1 0x0 REVERT JUMPDEST SWAP1 PUSH1 0x0 MSTORE PUSH1 0x20 PUSH1 0x0 KECCAK256 ADD PUSH1 0x0 SWAP1 SLOAD SWAP1 PUSH2 0x100 EXP SWAP1 DIV PUSH20 0xFFFFFFFFFFFFFFFFFFFFFFFFFFFFFFFFFFFFFFFF AND SWAP1 POP PUSH1 0x0 DUP2 PUSH20 0xFFFFFFFFFFFFFFFFFFFFFFFFFFFFFFFFFFFFFFFF AND PUSH4 0x70A08231 ADDRESS PUSH1 0x40 MLOAD DUP3 PUSH4 0xFFFFFFFF AND PUSH1 0xE0 SHL DUP2 MSTORE PUSH1 0x4 ADD PUSH2 0x73C SWAP2 SWAP1 PUSH2 0x3786 JUMP JUMPDEST PUSH1 0x20 PUSH1 0x40 MLOAD DUP1 DUP4 SUB DUP2 DUP7 DUP1 EXTCODESIZE ISZERO DUP1 ISZERO PUSH2 0x754 JUMPI PUSH1 0x0 DUP1 REVERT JUMPDEST POP GAS STATICCALL ISZERO DUP1 ISZERO PUSH2 0x768 JUMPI RETURNDATASIZE PUSH1 0x0 DUP1 RETURNDATACOPY RETURNDATASIZE PUSH1 0x0 REVERT JUMPDEST POP POP POP POP PUSH1 0x40 MLOAD RETURNDATASIZE PUSH1 0x1F NOT PUSH1 0x1F DUP3 ADD AND DUP3 ADD DUP1 PUSH1 0x40 MSTORE POP DUP2 ADD SWAP1 PUSH2 0x78C SWAP2 SWAP1 PUSH2 0x3545 JUMP JUMPDEST SWAP1 POP PUSH2 0x7A1 DUP2 DUP6 PUSH2 0x1840 SWAP1 SWAP2 SWAP1 PUSH4 0xFFFFFFFF AND JUMP JUMPDEST SWAP4 POP POP POP JUMPDEST DUP1 PUSH2 0x7B0 SWAP1 PUSH2 0x3C37 JUMP JUMPDEST SWAP1 POP PUSH2 0x5D9 JUMP JUMPDEST POP DUP1 SWAP2 POP POP SWAP1 JUMP JUMPDEST PUSH1 0x0 DUP1 DUP6 GT DUP1 ISZERO PUSH2 0x7D0 JUMPI POP PUSH1 0x0 DUP5 GT JUMPDEST DUP1 ISZERO PUSH2 0x7E2 JUMPI POP PUSH1 0x0 DUP4 PUSH4 0xFFFFFFFF AND GT JUMPDEST DUP1 ISZERO PUSH2 0x80C JUMPI POP PUSH1 0x82 PUSH1 0x0 SWAP1 SLOAD SWAP1 PUSH2 0x100 EXP SWAP1 DIV PUSH4 0xFFFFFFFF AND PUSH4 0xFFFFFFFF AND DUP4 PUSH4 0xFFFFFFFF AND GT ISZERO JUMPDEST PUSH2 0x815 JUMPI PUSH1 0x0 DUP1 REVERT JUMPDEST PUSH1 0x0 DUP3 EQ ISZERO PUSH2 0x827 JUMPI PUSH1 0x0 SWAP1 POP PUSH2 0x8E9 JUMP JUMPDEST PUSH1 0x82 PUSH1 0x0 SWAP1 SLOAD SWAP1 PUSH2 0x100 EXP SWAP1 DIV PUSH4 0xFFFFFFFF AND PUSH4 0xFFFFFFFF AND DUP4 PUSH4 0xFFFFFFFF AND EQ ISZERO PUSH2 0x879 JUMPI PUSH2 0x872 DUP5 PUSH2 0x864 DUP5 DUP9 PUSH2 0x1856 SWAP1 SWAP2 SWAP1 PUSH4 0xFFFFFFFF AND JUMP JUMPDEST PUSH2 0x186C SWAP1 SWAP2 SWAP1 PUSH4 0xFFFFFFFF AND JUMP JUMPDEST SWAP1 POP PUSH2 0x8E9 JUMP JUMPDEST PUSH1 0x0 DUP1 PUSH1 0x0 PUSH2 0x891 DUP8 DUP7 PUSH2 0x1840 SWAP1 SWAP2 SWAP1 PUSH4 0xFFFFFFFF AND JUMP JUMPDEST SWAP1 POP PUSH2 0x8B1 DUP2 DUP9 DUP9 PUSH1 0x82 PUSH1 0x0 SWAP1 SLOAD SWAP1 PUSH2 0x100 EXP SWAP1 DIV PUSH4 0xFFFFFFFF AND PUSH2 0x1882 JUMP JUMPDEST DUP1 SWAP4 POP DUP2 SWAP5 POP POP POP PUSH1 0x0 DUP3 PUSH1 0xFF AND PUSH2 0x8D2 DUP6 DUP12 PUSH2 0x1856 SWAP1 SWAP2 SWAP1 PUSH4 0xFFFFFFFF AND JUMP JUMPDEST SWAP1 SHR SWAP1 POP DUP9 DUP2 PUSH2 0x8E2 SWAP2 SWAP1 PUSH2 0x3A6F JUMP JUMPDEST SWAP5 POP POP POP POP POP JUMPDEST SWAP5 SWAP4 POP POP POP POP JUMP JUMPDEST PUSH1 0x8A PUSH1 0x0 SWAP1 SLOAD SWAP1 PUSH2 0x100 EXP SWAP1 DIV PUSH20 0xFFFFFFFFFFFFFFFFFFFFFFFFFFFFFFFFFFFFFFFF AND DUP2 JUMP JUMPDEST PUSH1 0x0 DUP1 DUP6 GT DUP1 ISZERO PUSH2 0x928 JUMPI POP PUSH1 0x0 DUP5 GT JUMPDEST DUP1 ISZERO PUSH2 0x93A JUMPI POP PUSH1 0x0 DUP4 PUSH4 0xFFFFFFFF AND GT JUMPDEST DUP1 ISZERO PUSH2 0x964 JUMPI POP PUSH1 0x82 PUSH1 0x0 SWAP1 SLOAD SWAP1 PUSH2 0x100 EXP SWAP1 DIV PUSH4 0xFFFFFFFF AND PUSH4 0xFFFFFFFF AND DUP4 PUSH4 0xFFFFFFFF AND GT ISZERO JUMPDEST DUP1 ISZERO PUSH2 0x970 JUMPI POP DUP5 DUP3 GT ISZERO JUMPDEST PUSH2 0x979 JUMPI PUSH1 0x0 DUP1 REVERT JUMPDEST PUSH1 0x0 DUP3 EQ ISZERO PUSH2 0x98B JUMPI PUSH1 0x0 SWAP1 POP PUSH2 0xA75 JUMP JUMPDEST DUP5 DUP3 EQ ISZERO PUSH2 0x99B JUMPI DUP4 SWAP1 POP PUSH2 0xA75 JUMP JUMPDEST PUSH1 0x82 PUSH1 0x0 SWAP1 SLOAD SWAP1 PUSH2 0x100 EXP SWAP1 DIV PUSH4 0xFFFFFFFF AND PUSH4 0xFFFFFFFF AND DUP4 PUSH4 0xFFFFFFFF AND EQ ISZERO PUSH2 0x9ED JUMPI PUSH2 0x9E6 DUP6 PUSH2 0x9D8 DUP5 DUP8 PUSH2 0x1856 SWAP1 SWAP2 SWAP1 PUSH4 0xFFFFFFFF AND JUMP JUMPDEST PUSH2 0x186C SWAP1 SWAP2 SWAP1 PUSH4 0xFFFFFFFF AND JUMP JUMPDEST SWAP1 POP PUSH2 0xA75 JUMP JUMPDEST PUSH1 0x0 DUP1 PUSH1 0x0 DUP5 DUP9 PUSH2 0x9FE SWAP2 SWAP1 PUSH2 0x3A6F JUMP JUMPDEST SWAP1 POP PUSH2 0xA1E DUP9 DUP3 PUSH1 0x82 PUSH1 0x0 SWAP1 SLOAD SWAP1 PUSH2 0x100 EXP SWAP1 DIV PUSH4 0xFFFFFFFF AND DUP10 PUSH2 0x1882 JUMP JUMPDEST DUP1 SWAP4 POP DUP2 SWAP5 POP POP POP PUSH1 0x0 PUSH2 0xA3B DUP5 DUP10 PUSH2 0x1856 SWAP1 SWAP2 SWAP1 PUSH4 0xFFFFFFFF AND JUMP JUMPDEST SWAP1 POP PUSH1 0x0 DUP4 PUSH1 0xFF AND DUP10 SWAP1 SHL SWAP1 POP PUSH2 0xA6D DUP6 PUSH2 0xA5F DUP4 DUP6 PUSH2 0x1A03 SWAP1 SWAP2 SWAP1 PUSH4 0xFFFFFFFF AND JUMP JUMPDEST PUSH2 0x186C SWAP1 SWAP2 SWAP1 PUSH4 0xFFFFFFFF AND JUMP JUMPDEST SWAP6 POP POP POP POP POP POP JUMPDEST SWAP5 SWAP4 POP POP POP POP JUMP JUMPDEST PUSH1 0x1 DUP1 SLOAD PUSH2 0xA8A SWAP1 PUSH2 0x3C05 JUMP JUMPDEST DUP1 PUSH1 0x1F ADD PUSH1 0x20 DUP1 SWAP2 DIV MUL PUSH1 0x20 ADD PUSH1 0x40 MLOAD SWAP1 DUP2 ADD PUSH1 0x40 MSTORE DUP1 SWAP3 SWAP2 SWAP1 DUP2 DUP2 MSTORE PUSH1 0x20 ADD DUP3 DUP1 SLOAD PUSH2 0xAB6 SWAP1 PUSH2 0x3C05 JUMP JUMPDEST DUP1 ISZERO PUSH2 0xB03 JUMPI DUP1 PUSH1 0x1F LT PUSH2 0xAD8 JUMPI PUSH2 0x100 DUP1 DUP4 SLOAD DIV MUL DUP4 MSTORE SWAP2 PUSH1 0x20 ADD SWAP2 PUSH2 0xB03 JUMP JUMPDEST DUP3 ADD SWAP2 SWAP1 PUSH1 0x0 MSTORE PUSH1 0x20 PUSH1 0x0 KECCAK256 SWAP1 JUMPDEST DUP2 SLOAD DUP2 MSTORE SWAP1 PUSH1 0x1 ADD SWAP1 PUSH1 0x20 ADD DUP1 DUP4 GT PUSH2 0xAE6 JUMPI DUP3 SWAP1 SUB PUSH1 0x1F AND DUP3 ADD SWAP2 JUMPDEST POP POP POP POP POP DUP2 JUMP JUMPDEST PUSH1 0x84 SLOAD DUP2 JUMP JUMPDEST PUSH1 0x88 SLOAD DUP2 JUMP JUMPDEST PUSH1 0x85 SLOAD DUP2 JUMP JUMPDEST PUSH2 0xB25 PUSH2 0x1A19 JUMP JUMPDEST PUSH20 0xFFFFFFFFFFFFFFFFFFFFFFFFFFFFFFFFFFFFFFFF AND PUSH2 0xB43 PUSH2 0xDFC JUMP JUMPDEST PUSH20 0xFFFFFFFFFFFFFFFFFFFFFFFFFFFFFFFFFFFFFFFF AND EQ PUSH2 0xB99 JUMPI PUSH1 0x40 MLOAD PUSH32 0x8C379A000000000000000000000000000000000000000000000000000000000 DUP2 MSTORE PUSH1 0x4 ADD PUSH2 0xB90 SWAP1 PUSH2 0x3894 JUMP JUMPDEST PUSH1 0x40 MLOAD DUP1 SWAP2 SUB SWAP1 REVERT JUMPDEST PUSH1 0x0 PUSH20 0xFFFFFFFFFFFFFFFFFFFFFFFFFFFFFFFFFFFFFFFF AND PUSH1 0x0 DUP1 SLOAD SWAP1 PUSH2 0x100 EXP SWAP1 DIV PUSH20 0xFFFFFFFFFFFFFFFFFFFFFFFFFFFFFFFFFFFFFFFF AND PUSH20 0xFFFFFFFFFFFFFFFFFFFFFFFFFFFFFFFFFFFFFFFF AND PUSH32 0x8BE0079C531659141344CD1FD0A4F28419497F9722A3DAAFE3B4186F6B6457E0 PUSH1 0x40 MLOAD PUSH1 0x40 MLOAD DUP1 SWAP2 SUB SWAP1 LOG3 PUSH1 0x0 DUP1 PUSH1 0x0 PUSH2 0x100 EXP DUP2 SLOAD DUP2 PUSH20 0xFFFFFFFFFFFFFFFFFFFFFFFFFFFFFFFFFFFFFFFF MUL NOT AND SWAP1 DUP4 PUSH20 0xFFFFFFFFFFFFFFFFFFFFFFFFFFFFFFFFFFFFFFFF AND MUL OR SWAP1 SSTORE POP JUMP JUMPDEST PUSH2 0xC5F PUSH2 0x1A19 JUMP JUMPDEST PUSH20 0xFFFFFFFFFFFFFFFFFFFFFFFFFFFFFFFFFFFFFFFF AND PUSH2 0xC7D PUSH2 0xDFC JUMP JUMPDEST PUSH20 0xFFFFFFFFFFFFFFFFFFFFFFFFFFFFFFFFFFFFFFFF AND EQ PUSH2 0xCD3 JUMPI PUSH1 0x40 MLOAD PUSH32 0x8C379A000000000000000000000000000000000000000000000000000000000 DUP2 MSTORE PUSH1 0x4 ADD PUSH2 0xCCA SWAP1 PUSH2 0x3894 JUMP JUMPDEST PUSH1 0x40 MLOAD DUP1 SWAP2 SUB SWAP1 REVERT JUMPDEST PUSH1 0x0 PUSH1 0x8C DUP4 DUP2 SLOAD DUP2 LT PUSH2 0xD0F JUMPI PUSH32 0x4E487B7100000000000000000000000000000000000000000000000000000000 PUSH1 0x0 MSTORE PUSH1 0x32 PUSH1 0x4 MSTORE PUSH1 0x24 PUSH1 0x0 REVERT JUMPDEST SWAP1 PUSH1 0x0 MSTORE PUSH1 0x20 PUSH1 0x0 KECCAK256 ADD PUSH1 0x0 SWAP1 SLOAD SWAP1 PUSH2 0x100 EXP SWAP1 DIV PUSH20 0xFFFFFFFFFFFFFFFFFFFFFFFFFFFFFFFFFFFFFFFF AND SWAP1 POP DUP1 PUSH20 0xFFFFFFFFFFFFFFFFFFFFFFFFFFFFFFFFFFFFFFFF AND PUSH4 0xA9059CBB DUP6 DUP5 PUSH1 0x40 MLOAD DUP4 PUSH4 0xFFFFFFFF AND PUSH1 0xE0 SHL DUP2 MSTORE PUSH1 0x4 ADD PUSH2 0xD77 SWAP3 SWAP2 SWAP1 PUSH2 0x37D8 JUMP JUMPDEST PUSH1 0x20 PUSH1 0x40 MLOAD DUP1 DUP4 SUB DUP2 PUSH1 0x0 DUP8 DUP1 EXTCODESIZE ISZERO DUP1 ISZERO PUSH2 0xD91 JUMPI PUSH1 0x0 DUP1 REVERT JUMPDEST POP GAS CALL ISZERO DUP1 ISZERO PUSH2 0xDA5 JUMPI RETURNDATASIZE PUSH1 0x0 DUP1 RETURNDATACOPY RETURNDATASIZE PUSH1 0x0 REVERT JUMPDEST POP POP POP POP PUSH1 0x40 MLOAD RETURNDATASIZE PUSH1 0x1F NOT PUSH1 0x1F DUP3 ADD AND DUP3 ADD DUP1 PUSH1 0x40 MSTORE POP DUP2 ADD SWAP1 PUSH2 0xDC9 SWAP2 SWAP1 PUSH2 0x34F3 JUMP JUMPDEST POP POP POP POP POP JUMP JUMPDEST PUSH1 0x8B PUSH1 0x0 SWAP1 SLOAD SWAP1 PUSH2 0x100 EXP SWAP1 DIV PUSH20 0xFFFFFFFFFFFFFFFFFFFFFFFFFFFFFFFFFFFFFFFF AND DUP2 JUMP JUMPDEST PUSH1 0x83 SLOAD DUP2 JUMP JUMPDEST PUSH1 0x0 DUP1 PUSH1 0x0 SWAP1 SLOAD SWAP1 PUSH2 0x100 EXP SWAP1 DIV PUSH20 0xFFFFFFFFFFFFFFFFFFFFFFFFFFFFFFFFFFFFFFFF AND SWAP1 POP SWAP1 JUMP JUMPDEST PUSH1 0x0 PUSH2 0xE30 DUP3 PUSH2 0x15B9 JUMP JUMPDEST SWAP1 POP PUSH1 0x8B PUSH1 0x0 SWAP1 SLOAD SWAP1 PUSH2 0x100 EXP SWAP1 DIV PUSH20 0xFFFFFFFFFFFFFFFFFFFFFFFFFFFFFFFFFFFFFFFF AND PUSH20 0xFFFFFFFFFFFFFFFFFFFFFFFFFFFFFFFFFFFFFFFF AND PUSH4 0x9C94F651 CALLER DUP4 PUSH1 0x40 MLOAD DUP4 PUSH4 0xFFFFFFFF AND PUSH1 0xE0 SHL DUP2 MSTORE PUSH1 0x4 ADD PUSH2 0xE8F SWAP3 SWAP2 SWAP1 PUSH2 0x37D8 JUMP JUMPDEST PUSH1 0x0 PUSH1 0x40 MLOAD DUP1 DUP4 SUB DUP2 PUSH1 0x0 DUP8 DUP1 EXTCODESIZE ISZERO DUP1 ISZERO PUSH2 0xEA9 JUMPI PUSH1 0x0 DUP1 REVERT JUMPDEST POP GAS CALL ISZERO DUP1 ISZERO PUSH2 0xEBD JUMPI RETURNDATASIZE PUSH1 0x0 DUP1 RETURNDATACOPY RETURNDATASIZE PUSH1 0x0 REVERT JUMPDEST POP POP POP POP PUSH1 0x0 PUSH1 0x8C DUP1 SLOAD SWAP1 POP SWAP1 POP PUSH1 0x0 PUSH2 0xEE0 DUP3 DUP5 PUSH2 0x186C SWAP1 SWAP2 SWAP1 PUSH4 0xFFFFFFFF AND JUMP JUMPDEST SWAP1 POP PUSH1 0x0 JUMPDEST PUSH1 0x8C DUP1 SLOAD SWAP1 POP DUP2 GT PUSH2 0x10E0 JUMPI PUSH1 0x0 PUSH20 0xFFFFFFFFFFFFFFFFFFFFFFFFFFFFFFFFFFFFFFFF AND PUSH1 0x8C DUP3 DUP2 SLOAD DUP2 LT PUSH2 0xF43 JUMPI PUSH32 0x4E487B7100000000000000000000000000000000000000000000000000000000 PUSH1 0x0 MSTORE PUSH1 0x32 PUSH1 0x4 MSTORE PUSH1 0x24 PUSH1 0x0 REVERT JUMPDEST SWAP1 PUSH1 0x0 MSTORE PUSH1 0x20 PUSH1 0x0 KECCAK256 ADD PUSH1 0x0 SWAP1 SLOAD SWAP1 PUSH2 0x100 EXP SWAP1 DIV PUSH20 0xFFFFFFFFFFFFFFFFFFFFFFFFFFFFFFFFFFFFFFFF AND PUSH20 0xFFFFFFFFFFFFFFFFFFFFFFFFFFFFFFFFFFFFFFFF AND EQ ISZERO PUSH2 0xFD6 JUMPI CALLER PUSH20 0xFFFFFFFFFFFFFFFFFFFFFFFFFFFFFFFFFFFFFFFF AND PUSH2 0x8FC DUP4 SWAP1 DUP2 ISZERO MUL SWAP1 PUSH1 0x40 MLOAD PUSH1 0x0 PUSH1 0x40 MLOAD DUP1 DUP4 SUB DUP2 DUP6 DUP9 DUP9 CALL SWAP4 POP POP POP POP ISZERO DUP1 ISZERO PUSH2 0xFD0 JUMPI RETURNDATASIZE PUSH1 0x0 DUP1 RETURNDATACOPY RETURNDATASIZE PUSH1 0x0 REVERT JUMPDEST POP PUSH2 0x10CF JUMP JUMPDEST PUSH1 0x0 PUSH1 0x8C DUP3 DUP2 SLOAD DUP2 LT PUSH2 0x1012 JUMPI PUSH32 0x4E487B7100000000000000000000000000000000000000000000000000000000 PUSH1 0x0 MSTORE PUSH1 0x32 PUSH1 0x4 MSTORE PUSH1 0x24 PUSH1 0x0 REVERT JUMPDEST SWAP1 PUSH1 0x0 MSTORE PUSH1 0x20 PUSH1 0x0 KECCAK256 ADD PUSH1 0x0 SWAP1 SLOAD SWAP1 PUSH2 0x100 EXP SWAP1 DIV PUSH20 0xFFFFFFFFFFFFFFFFFFFFFFFFFFFFFFFFFFFFFFFF AND SWAP1 POP DUP1 PUSH20 0xFFFFFFFFFFFFFFFFFFFFFFFFFFFFFFFFFFFFFFFF AND PUSH4 0xA9059CBB CALLER DUP6 PUSH1 0x40 MLOAD DUP4 PUSH4 0xFFFFFFFF AND PUSH1 0xE0 SHL DUP2 MSTORE PUSH1 0x4 ADD PUSH2 0x107A SWAP3 SWAP2 SWAP1 PUSH2 0x37D8 JUMP JUMPDEST PUSH1 0x20 PUSH1 0x40 MLOAD DUP1 DUP4 SUB DUP2 PUSH1 0x0 DUP8 DUP1 EXTCODESIZE ISZERO DUP1 ISZERO PUSH2 0x1094 JUMPI PUSH1 0x0 DUP1 REVERT JUMPDEST POP GAS CALL ISZERO DUP1 ISZERO PUSH2 0x10A8 JUMPI RETURNDATASIZE PUSH1 0x0 DUP1 RETURNDATACOPY RETURNDATASIZE PUSH1 0x0 REVERT JUMPDEST POP POP POP POP PUSH1 0x40 MLOAD RETURNDATASIZE PUSH1 0x1F NOT PUSH1 0x1F DUP3 ADD AND DUP3 ADD DUP1 PUSH1 0x40 MSTORE POP DUP2 ADD SWAP1 PUSH2 0x10CC SWAP2 SWAP1 PUSH2 0x34F3 JUMP JUMPDEST POP POP JUMPDEST DUP1 PUSH2 0x10D9 SWAP1 PUSH2 0x3C37 JUMP JUMPDEST SWAP1 POP PUSH2 0xEE5 JUMP JUMPDEST POP POP POP POP POP JUMP JUMPDEST PUSH1 0x8C DUP2 DUP2 SLOAD DUP2 LT PUSH2 0x10F7 JUMPI PUSH1 0x0 DUP1 REVERT JUMPDEST SWAP1 PUSH1 0x0 MSTORE PUSH1 0x20 PUSH1 0x0 KECCAK256 ADD PUSH1 0x0 SWAP2 POP SLOAD SWAP1 PUSH2 0x100 EXP SWAP1 DIV PUSH20 0xFFFFFFFFFFFFFFFFFFFFFFFFFFFFFFFFFFFFFFFF AND DUP2 JUMP JUMPDEST PUSH1 0x82 PUSH1 0x4 SWAP1 SLOAD SWAP1 PUSH2 0x100 EXP SWAP1 DIV PUSH4 0xFFFFFFFF AND DUP2 JUMP JUMPDEST PUSH1 0x87 SLOAD DUP2 JUMP JUMPDEST PUSH2 0x114A PUSH2 0x1A19 JUMP JUMPDEST PUSH20 0xFFFFFFFFFFFFFFFFFFFFFFFFFFFFFFFFFFFFFFFF AND PUSH2 0x1168 PUSH2 0xDFC JUMP JUMPDEST PUSH20 0xFFFFFFFFFFFFFFFFFFFFFFFFFFFFFFFFFFFFFFFF AND EQ PUSH2 0x11BE JUMPI PUSH1 0x40 MLOAD PUSH32 0x8C379A000000000000000000000000000000000000000000000000000000000 DUP2 MSTORE PUSH1 0x4 ADD PUSH2 0x11B5 SWAP1 PUSH2 0x3894 JUMP JUMPDEST PUSH1 0x40 MLOAD DUP1 SWAP2 SUB SWAP1 REVERT JUMPDEST PUSH1 0x87 PUSH1 0x0 DUP2 SLOAD DUP1 SWAP3 SWAP2 SWAP1 PUSH2 0x11D1 SWAP1 PUSH2 0x3C37 JUMP JUMPDEST SWAP2 SWAP1 POP SSTORE POP DUP1 PUSH1 0x8C PUSH1 0x87 SLOAD DUP2 SLOAD DUP2 LT PUSH2 0x1213 JUMPI PUSH32 0x4E487B7100000000000000000000000000000000000000000000000000000000 PUSH1 0x0 MSTORE PUSH1 0x32 PUSH1 0x4 MSTORE PUSH1 0x24 PUSH1 0x0 REVERT JUMPDEST SWAP1 PUSH1 0x0 MSTORE PUSH1 0x20 PUSH1 0x0 KECCAK256 ADD PUSH1 0x0 PUSH2 0x100 EXP DUP2 SLOAD DUP2 PUSH20 0xFFFFFFFFFFFFFFFFFFFFFFFFFFFFFFFFFFFFFFFF MUL NOT AND SWAP1 DUP4 PUSH20 0xFFFFFFFFFFFFFFFFFFFFFFFFFFFFFFFFFFFFFFFF AND MUL OR SWAP1 SSTORE POP POP JUMP JUMPDEST PUSH1 0x0 PUSH2 0x1269 DUP4 PUSH2 0x149F JUMP JUMPDEST SWAP1 POP PUSH1 0x0 DUP1 DUP4 EQ ISZERO PUSH2 0x127D JUMPI CALLVALUE SWAP1 POP PUSH2 0x137B JUMP JUMPDEST PUSH1 0x0 PUSH1 0x8C DUP5 DUP2 SLOAD DUP2 LT PUSH2 0x12B9 JUMPI PUSH32 0x4E487B7100000000000000000000000000000000000000000000000000000000 PUSH1 0x0 MSTORE PUSH1 0x32 PUSH1 0x4 MSTORE PUSH1 0x24 PUSH1 0x0 REVERT JUMPDEST SWAP1 PUSH1 0x0 MSTORE PUSH1 0x20 PUSH1 0x0 KECCAK256 ADD PUSH1 0x0 SWAP1 SLOAD SWAP1 PUSH2 0x100 EXP SWAP1 DIV PUSH20 0xFFFFFFFFFFFFFFFFFFFFFFFFFFFFFFFFFFFFFFFF AND SWAP1 POP DUP5 SWAP2 POP DUP1 PUSH20 0xFFFFFFFFFFFFFFFFFFFFFFFFFFFFFFFFFFFFFFFF AND PUSH4 0x23B872DD CALLER ADDRESS DUP6 PUSH1 0x40 MLOAD DUP5 PUSH4 0xFFFFFFFF AND PUSH1 0xE0 SHL DUP2 MSTORE PUSH1 0x4 ADD PUSH2 0x1326 SWAP4 SWAP3 SWAP2 SWAP1 PUSH2 0x37A1 JUMP JUMPDEST PUSH1 0x20 PUSH1 0x40 MLOAD DUP1 DUP4 SUB DUP2 PUSH1 0x0 DUP8 DUP1 EXTCODESIZE ISZERO DUP1 ISZERO PUSH2 0x1340 JUMPI PUSH1 0x0 DUP1 REVERT JUMPDEST POP GAS CALL ISZERO DUP1 ISZERO PUSH2 0x1354 JUMPI RETURNDATASIZE PUSH1 0x0 DUP1 RETURNDATACOPY RETURNDATASIZE PUSH1 0x0 REVERT JUMPDEST POP POP POP POP PUSH1 0x40 MLOAD RETURNDATASIZE PUSH1 0x1F NOT PUSH1 0x1F DUP3 ADD AND DUP3 ADD DUP1 PUSH1 0x40 MSTORE POP DUP2 ADD SWAP1 PUSH2 0x1378 SWAP2 SWAP1 PUSH2 0x34F3 JUMP JUMPDEST POP POP JUMPDEST PUSH1 0x8B PUSH1 0x0 SWAP1 SLOAD SWAP1 PUSH2 0x100 EXP SWAP1 DIV PUSH20 0xFFFFFFFFFFFFFFFFFFFFFFFFFFFFFFFFFFFFFFFF AND PUSH20 0xFFFFFFFFFFFFFFFFFFFFFFFFFFFFFFFFFFFFFFFF AND PUSH4 0x83AC74F9 ADDRESS DUP4 PUSH1 0x40 MLOAD DUP4 PUSH4 0xFFFFFFFF AND PUSH1 0xE0 SHL DUP2 MSTORE PUSH1 0x4 ADD PUSH2 0x13D8 SWAP3 SWAP2 SWAP1 PUSH2 0x37D8 JUMP JUMPDEST PUSH1 0x0 PUSH1 0x40 MLOAD DUP1 DUP4 SUB DUP2 PUSH1 0x0 DUP8 DUP1 EXTCODESIZE ISZERO DUP1 ISZERO PUSH2 0x13F2 JUMPI PUSH1 0x0 DUP1 REVERT JUMPDEST POP GAS CALL ISZERO DUP1 ISZERO PUSH2 0x1406 JUMPI RETURNDATASIZE PUSH1 0x0 DUP1 RETURNDATACOPY RETURNDATASIZE PUSH1 0x0 REVERT JUMPDEST POP POP POP POP PUSH1 0x8B PUSH1 0x0 SWAP1 SLOAD SWAP1 PUSH2 0x100 EXP SWAP1 DIV PUSH20 0xFFFFFFFFFFFFFFFFFFFFFFFFFFFFFFFFFFFFFFFF AND PUSH20 0xFFFFFFFFFFFFFFFFFFFFFFFFFFFFFFFFFFFFFFFF AND PUSH4 0x82F4F5B4 CALLER DUP5 PUSH1 0x40 MLOAD DUP4 PUSH4 0xFFFFFFFF AND PUSH1 0xE0 SHL DUP2 MSTORE PUSH1 0x4 ADD PUSH2 0x1467 SWAP3 SWAP2 SWAP1 PUSH2 0x37D8 JUMP JUMPDEST PUSH1 0x0 PUSH1 0x40 MLOAD DUP1 DUP4 SUB DUP2 PUSH1 0x0 DUP8 DUP1 EXTCODESIZE ISZERO DUP1 ISZERO PUSH2 0x1481 JUMPI PUSH1 0x0 DUP1 REVERT JUMPDEST POP GAS CALL ISZERO DUP1 ISZERO PUSH2 0x1495 JUMPI RETURNDATASIZE PUSH1 0x0 DUP1 RETURNDATACOPY RETURNDATASIZE PUSH1 0x0 REVERT JUMPDEST POP POP POP POP POP POP POP POP JUMP JUMPDEST PUSH1 0x0 DUP1 PUSH2 0x14AA PUSH2 0x5D3 JUMP JUMPDEST SWAP1 POP PUSH1 0x0 PUSH1 0x8A PUSH1 0x0 SWAP1 SLOAD SWAP1 PUSH2 0x100 EXP SWAP1 DIV PUSH20 0xFFFFFFFFFFFFFFFFFFFFFFFFFFFFFFFFFFFFFFFF AND PUSH20 0xFFFFFFFFFFFFFFFFFFFFFFFFFFFFFFFFFFFFFFFF AND PUSH4 0x18160DDD PUSH1 0x40 MLOAD DUP2 PUSH4 0xFFFFFFFF AND PUSH1 0xE0 SHL DUP2 MSTORE PUSH1 0x4 ADD PUSH1 0x20 PUSH1 0x40 MLOAD DUP1 DUP4 SUB DUP2 DUP7 DUP1 EXTCODESIZE ISZERO DUP1 ISZERO PUSH2 0x1516 JUMPI PUSH1 0x0 DUP1 REVERT JUMPDEST POP GAS STATICCALL ISZERO DUP1 ISZERO PUSH2 0x152A JUMPI RETURNDATASIZE PUSH1 0x0 DUP1 RETURNDATACOPY RETURNDATASIZE PUSH1 0x0 REVERT JUMPDEST POP POP POP POP PUSH1 0x40 MLOAD RETURNDATASIZE PUSH1 0x1F NOT PUSH1 0x1F DUP3 ADD AND DUP3 ADD DUP1 PUSH1 0x40 MSTORE POP DUP2 ADD SWAP1 PUSH2 0x154E SWAP2 SWAP1 PUSH2 0x3545 JUMP JUMPDEST SWAP1 POP PUSH1 0x0 PUSH2 0x1570 DUP3 DUP5 PUSH1 0x82 PUSH1 0x4 SWAP1 SLOAD SWAP1 PUSH2 0x100 EXP SWAP1 DIV PUSH4 0xFFFFFFFF AND DUP9 PUSH2 0x7BF JUMP JUMPDEST SWAP1 POP DUP1 SWAP4 POP POP POP POP SWAP2 SWAP1 POP JUMP JUMPDEST PUSH1 0x82 PUSH1 0x0 SWAP1 SLOAD SWAP1 PUSH2 0x100 EXP SWAP1 DIV PUSH4 0xFFFFFFFF AND DUP2 JUMP JUMPDEST PUSH1 0x89 PUSH1 0x0 SWAP1 SLOAD SWAP1 PUSH2 0x100 EXP SWAP1 DIV PUSH20 0xFFFFFFFFFFFFFFFFFFFFFFFFFFFFFFFFFFFFFFFF AND DUP2 JUMP JUMPDEST PUSH1 0x0 DUP1 PUSH2 0x15C4 PUSH2 0x5D3 JUMP JUMPDEST SWAP1 POP PUSH1 0x0 PUSH1 0x8A PUSH1 0x0 SWAP1 SLOAD SWAP1 PUSH2 0x100 EXP SWAP1 DIV PUSH20 0xFFFFFFFFFFFFFFFFFFFFFFFFFFFFFFFFFFFFFFFF AND PUSH20 0xFFFFFFFFFFFFFFFFFFFFFFFFFFFFFFFFFFFFFFFF AND PUSH4 0x18160DDD PUSH1 0x40 MLOAD DUP2 PUSH4 0xFFFFFFFF AND PUSH1 0xE0 SHL DUP2 MSTORE PUSH1 0x4 ADD PUSH1 0x20 PUSH1 0x40 MLOAD DUP1 DUP4 SUB DUP2 DUP7 DUP1 EXTCODESIZE ISZERO DUP1 ISZERO PUSH2 0x1630 JUMPI PUSH1 0x0 DUP1 REVERT JUMPDEST POP GAS STATICCALL ISZERO DUP1 ISZERO PUSH2 0x1644 JUMPI RETURNDATASIZE PUSH1 0x0 DUP1 RETURNDATACOPY RETURNDATASIZE PUSH1 0x0 REVERT JUMPDEST POP POP POP POP PUSH1 0x40 MLOAD RETURNDATASIZE PUSH1 0x1F NOT PUSH1 0x1F DUP3 ADD AND DUP3 ADD DUP1 PUSH1 0x40 MSTORE POP DUP2 ADD SWAP1 PUSH2 0x1668 SWAP2 SWAP1 PUSH2 0x3545 JUMP JUMPDEST SWAP1 POP PUSH1 0x0 PUSH2 0x168A DUP3 DUP5 PUSH1 0x82 PUSH1 0x4 SWAP1 SLOAD SWAP1 PUSH2 0x100 EXP SWAP1 DIV PUSH4 0xFFFFFFFF AND DUP9 PUSH2 0x917 JUMP JUMPDEST SWAP1 POP DUP1 SWAP4 POP POP POP POP SWAP2 SWAP1 POP JUMP JUMPDEST PUSH2 0x169F PUSH2 0x1A19 JUMP JUMPDEST PUSH20 0xFFFFFFFFFFFFFFFFFFFFFFFFFFFFFFFFFFFFFFFF AND PUSH2 0x16BD PUSH2 0xDFC JUMP JUMPDEST PUSH20 0xFFFFFFFFFFFFFFFFFFFFFFFFFFFFFFFFFFFFFFFF AND EQ PUSH2 0x1713 JUMPI PUSH1 0x40 MLOAD PUSH32 0x8C379A000000000000000000000000000000000000000000000000000000000 DUP2 MSTORE PUSH1 0x4 ADD PUSH2 0x170A SWAP1 PUSH2 0x3894 JUMP JUMPDEST PUSH1 0x40 MLOAD DUP1 SWAP2 SUB SWAP1 REVERT JUMPDEST PUSH1 0x0 PUSH20 0xFFFFFFFFFFFFFFFFFFFFFFFFFFFFFFFFFFFFFFFF AND DUP2 PUSH20 0xFFFFFFFFFFFFFFFFFFFFFFFFFFFFFFFFFFFFFFFF AND EQ ISZERO PUSH2 0x1783 JUMPI PUSH1 0x40 MLOAD PUSH32 0x8C379A000000000000000000000000000000000000000000000000000000000 DUP2 MSTORE PUSH1 0x4 ADD PUSH2 0x177A SWAP1 PUSH2 0x3874 JUMP JUMPDEST PUSH1 0x40 MLOAD DUP1 SWAP2 SUB SWAP1 REVERT JUMPDEST DUP1 PUSH20 0xFFFFFFFFFFFFFFFFFFFFFFFFFFFFFFFFFFFFFFFF AND PUSH1 0x0 DUP1 SLOAD SWAP1 PUSH2 0x100 EXP SWAP1 DIV PUSH20 0xFFFFFFFFFFFFFFFFFFFFFFFFFFFFFFFFFFFFFFFF AND PUSH20 0xFFFFFFFFFFFFFFFFFFFFFFFFFFFFFFFFFFFFFFFF AND PUSH32 0x8BE0079C531659141344CD1FD0A4F28419497F9722A3DAAFE3B4186F6B6457E0 PUSH1 0x40 MLOAD PUSH1 0x40 MLOAD DUP1 SWAP2 SUB SWAP1 LOG3 DUP1 PUSH1 0x0 DUP1 PUSH2 0x100 EXP DUP2 SLOAD DUP2 PUSH20 0xFFFFFFFFFFFFFFFFFFFFFFFFFFFFFFFFFFFFFFFF MUL NOT AND SWAP1 DUP4 PUSH20 0xFFFFFFFFFFFFFFFFFFFFFFFFFFFFFFFFFFFFFFFF AND MUL OR SWAP1 SSTORE POP POP JUMP JUMPDEST PUSH1 0x0 DUP2 DUP4 PUSH2 0x184E SWAP2 SWAP1 PUSH2 0x3926 JUMP JUMPDEST SWAP1 POP SWAP3 SWAP2 POP POP JUMP JUMPDEST PUSH1 0x0 DUP2 DUP4 PUSH2 0x1864 SWAP2 SWAP1 PUSH2 0x3A15 JUMP JUMPDEST SWAP1 POP SWAP3 SWAP2 POP POP JUMP JUMPDEST PUSH1 0x0 DUP2 DUP4 PUSH2 0x187A SWAP2 SWAP1 PUSH2 0x39B3 JUMP JUMPDEST SWAP1 POP SWAP3 SWAP2 POP POP JUMP JUMPDEST PUSH1 0x0 DUP1 PUSH17 0x200000000000000000000000000000000 DUP7 LT PUSH2 0x18CC JUMPI PUSH32 0x4E487B7100000000000000000000000000000000000000000000000000000000 PUSH1 0x0 MSTORE PUSH1 0x1 PUSH1 0x4 MSTORE PUSH1 0x24 PUSH1 0x0 REVERT JUMPDEST DUP5 DUP7 LT ISZERO PUSH2 0x190F JUMPI PUSH1 0x40 MLOAD PUSH32 0x8C379A000000000000000000000000000000000000000000000000000000000 DUP2 MSTORE PUSH1 0x4 ADD PUSH2 0x1906 SWAP1 PUSH2 0x38B4 JUMP JUMPDEST PUSH1 0x40 MLOAD DUP1 SWAP2 SUB SWAP1 REVERT JUMPDEST PUSH1 0x0 DUP1 DUP7 PUSH16 0x80000000000000000000000000000000 DUP10 PUSH2 0x192F SWAP2 SWAP1 PUSH2 0x3A15 JUMP JUMPDEST PUSH2 0x1939 SWAP2 SWAP1 PUSH2 0x39B3 JUMP JUMPDEST SWAP1 POP PUSH17 0x15BF0A8B1457695355FB8AC404E7A79E3 DUP2 LT ISZERO PUSH2 0x1964 JUMPI PUSH2 0x195D DUP2 PUSH2 0x1A21 JUMP JUMPDEST SWAP2 POP PUSH2 0x1970 JUMP JUMPDEST PUSH2 0x196D DUP2 PUSH2 0x219A JUMP JUMPDEST SWAP2 POP JUMPDEST PUSH1 0x0 DUP6 PUSH4 0xFFFFFFFF AND DUP8 PUSH4 0xFFFFFFFF AND DUP5 PUSH2 0x198B SWAP2 SWAP1 PUSH2 0x3A15 JUMP JUMPDEST PUSH2 0x1995 SWAP2 SWAP1 PUSH2 0x39B3 JUMP JUMPDEST SWAP1 POP PUSH17 0x800000000000000000000000000000000 DUP2 LT ISZERO PUSH2 0x19C7 JUMPI PUSH2 0x19B9 DUP2 PUSH2 0x22FA JUMP JUMPDEST PUSH1 0x7F SWAP5 POP SWAP5 POP POP POP POP PUSH2 0x19FA JUMP JUMPDEST PUSH1 0x0 PUSH2 0x19D2 DUP3 PUSH2 0x2AFE JUMP JUMPDEST SWAP1 POP PUSH2 0x19F0 DUP2 PUSH1 0x7F PUSH2 0x19E4 SWAP2 SWAP1 PUSH2 0x3AA3 JUMP JUMPDEST PUSH1 0xFF AND DUP4 SWAP1 SHR DUP3 PUSH2 0x2C78 JUMP JUMPDEST DUP2 SWAP6 POP SWAP6 POP POP POP POP POP JUMPDEST SWAP5 POP SWAP5 SWAP3 POP POP POP JUMP JUMPDEST PUSH1 0x0 DUP2 DUP4 PUSH2 0x1A11 SWAP2 SWAP1 PUSH2 0x3A6F JUMP JUMPDEST SWAP1 POP SWAP3 SWAP2 POP POP JUMP JUMPDEST PUSH1 0x0 CALLER SWAP1 POP SWAP1 JUMP JUMPDEST PUSH1 0x0 DUP1 PUSH1 0x0 SWAP1 POP PUSH1 0x0 DUP1 PUSH1 0x0 PUSH16 0xD3094C70F034DE4B96FF7D5B6F99FCD8 DUP7 LT PUSH2 0x1A9C JUMPI PUSH16 0x40000000000000000000000000000000 DUP5 PUSH2 0x1A60 SWAP2 SWAP1 PUSH2 0x3926 JUMP JUMPDEST SWAP4 POP PUSH16 0xD3094C70F034DE4B96FF7D5B6F99FCD8 PUSH16 0x80000000000000000000000000000000 DUP8 PUSH2 0x1A8F SWAP2 SWAP1 PUSH2 0x3A15 JUMP JUMPDEST PUSH2 0x1A99 SWAP2 SWAP1 PUSH2 0x39B3 JUMP JUMPDEST SWAP6 POP JUMPDEST PUSH16 0xA45AF1E1F40C333B3DE1DB4DD55F29A7 DUP7 LT PUSH2 0x1B0B JUMPI PUSH16 0x20000000000000000000000000000000 DUP5 PUSH2 0x1ACF SWAP2 SWAP1 PUSH2 0x3926 JUMP JUMPDEST SWAP4 POP PUSH16 0xA45AF1E1F40C333B3DE1DB4DD55F29A7 PUSH16 0x80000000000000000000000000000000 DUP8 PUSH2 0x1AFE SWAP2 SWAP1 PUSH2 0x3A15 JUMP JUMPDEST PUSH2 0x1B08 SWAP2 SWAP1 PUSH2 0x39B3 JUMP JUMPDEST SWAP6 POP JUMPDEST PUSH16 0x910B022DB7AE67CE76B441C27035C6A1 DUP7 LT PUSH2 0x1B7A JUMPI PUSH16 0x10000000000000000000000000000000 DUP5 PUSH2 0x1B3E SWAP2 SWAP1 PUSH2 0x3926 JUMP JUMPDEST SWAP4 POP PUSH16 0x910B022DB7AE67CE76B441C27035C6A1 PUSH16 0x80000000000000000000000000000000 DUP8 PUSH2 0x1B6D SWAP2 SWAP1 PUSH2 0x3A15 JUMP JUMPDEST PUSH2 0x1B77 SWAP2 SWAP1 PUSH2 0x39B3 JUMP JUMPDEST SWAP6 POP JUMPDEST PUSH16 0x88415ABBE9A76BEAD8D00CF112E4D4A8 DUP7 LT PUSH2 0x1BE9 JUMPI PUSH16 0x8000000000000000000000000000000 DUP5 PUSH2 0x1BAD SWAP2 SWAP1 PUSH2 0x3926 JUMP JUMPDEST SWAP4 POP PUSH16 0x88415ABBE9A76BEAD8D00CF112E4D4A8 PUSH16 0x80000000000000000000000000000000 DUP8 PUSH2 0x1BDC SWAP2 SWAP1 PUSH2 0x3A15 JUMP JUMPDEST PUSH2 0x1BE6 SWAP2 SWAP1 PUSH2 0x39B3 JUMP JUMPDEST SWAP6 POP JUMPDEST PUSH16 0x84102B00893F64C705E841D5D4064BD3 DUP7 LT PUSH2 0x1C58 JUMPI PUSH16 0x4000000000000000000000000000000 DUP5 PUSH2 0x1C1C SWAP2 SWAP1 PUSH2 0x3926 JUMP JUMPDEST SWAP4 POP PUSH16 0x84102B00893F64C705E841D5D4064BD3 PUSH16 0x80000000000000000000000000000000 DUP8 PUSH2 0x1C4B SWAP2 SWAP1 PUSH2 0x3A15 JUMP JUMPDEST PUSH2 0x1C55 SWAP2 SWAP1 PUSH2 0x39B3 JUMP JUMPDEST SWAP6 POP JUMPDEST PUSH16 0x8204055AAEF1C8BD5C3259F4822735A2 DUP7 LT PUSH2 0x1CC7 JUMPI PUSH16 0x2000000000000000000000000000000 DUP5 PUSH2 0x1C8B SWAP2 SWAP1 PUSH2 0x3926 JUMP JUMPDEST SWAP4 POP PUSH16 0x8204055AAEF1C8BD5C3259F4822735A2 PUSH16 0x80000000000000000000000000000000 DUP8 PUSH2 0x1CBA SWAP2 SWAP1 PUSH2 0x3A15 JUMP JUMPDEST PUSH2 0x1CC4 SWAP2 SWAP1 PUSH2 0x39B3 JUMP JUMPDEST SWAP6 POP JUMPDEST PUSH16 0x810100AB00222D861931C15E39B44E99 DUP7 LT PUSH2 0x1D36 JUMPI PUSH16 0x1000000000000000000000000000000 DUP5 PUSH2 0x1CFA SWAP2 SWAP1 PUSH2 0x3926 JUMP JUMPDEST SWAP4 POP PUSH16 0x810100AB00222D861931C15E39B44E99 PUSH16 0x80000000000000000000000000000000 DUP8 PUSH2 0x1D29 SWAP2 SWAP1 PUSH2 0x3A15 JUMP JUMPDEST PUSH2 0x1D33 SWAP2 SWAP1 PUSH2 0x39B3 JUMP JUMPDEST SWAP6 POP JUMPDEST PUSH16 0x808040155AABBBE9451521693554F733 DUP7 LT PUSH2 0x1DA4 JUMPI PUSH15 0x800000000000000000000000000000 DUP5 PUSH2 0x1D68 SWAP2 SWAP1 PUSH2 0x3926 JUMP JUMPDEST SWAP4 POP PUSH16 0x808040155AABBBE9451521693554F733 PUSH16 0x80000000000000000000000000000000 DUP8 PUSH2 0x1D97 SWAP2 SWAP1 PUSH2 0x3A15 JUMP JUMPDEST PUSH2 0x1DA1 SWAP2 SWAP1 PUSH2 0x39B3 JUMP JUMPDEST SWAP6 POP JUMPDEST PUSH16 0x80000000000000000000000000000000 DUP7 PUSH2 0x1DC0 SWAP2 SWAP1 PUSH2 0x3A6F JUMP JUMPDEST SWAP3 POP DUP3 SWAP2 POP PUSH16 0x80000000000000000000000000000000 DUP4 DUP5 PUSH2 0x1DE2 SWAP2 SWAP1 PUSH2 0x3A15 JUMP JUMPDEST PUSH2 0x1DEC SWAP2 SWAP1 PUSH2 0x39B3 JUMP JUMPDEST SWAP1 POP PUSH17 0x100000000000000000000000000000000 DUP4 PUSH17 0x100000000000000000000000000000000 PUSH2 0x1E1D SWAP2 SWAP1 PUSH2 0x3A6F JUMP JUMPDEST DUP4 PUSH2 0x1E28 SWAP2 SWAP1 PUSH2 0x3A15 JUMP JUMPDEST PUSH2 0x1E32 SWAP2 SWAP1 PUSH2 0x39B3 JUMP JUMPDEST DUP5 PUSH2 0x1E3D SWAP2 SWAP1 PUSH2 0x3926 JUMP JUMPDEST SWAP4 POP PUSH16 0x80000000000000000000000000000000 DUP2 DUP4 PUSH2 0x1E5C SWAP2 SWAP1 PUSH2 0x3A15 JUMP JUMPDEST PUSH2 0x1E66 SWAP2 SWAP1 PUSH2 0x39B3 JUMP JUMPDEST SWAP2 POP PUSH17 0x200000000000000000000000000000000 DUP4 PUSH16 0xAAAAAAAAAAAAAAAAAAAAAAAAAAAAAAAA PUSH2 0x1E96 SWAP2 SWAP1 PUSH2 0x3A6F JUMP JUMPDEST DUP4 PUSH2 0x1EA1 SWAP2 SWAP1 PUSH2 0x3A15 JUMP JUMPDEST PUSH2 0x1EAB SWAP2 SWAP1 PUSH2 0x39B3 JUMP JUMPDEST DUP5 PUSH2 0x1EB6 SWAP2 SWAP1 PUSH2 0x3926 JUMP JUMPDEST SWAP4 POP PUSH16 0x80000000000000000000000000000000 DUP2 DUP4 PUSH2 0x1ED5 SWAP2 SWAP1 PUSH2 0x3A15 JUMP JUMPDEST PUSH2 0x1EDF SWAP2 SWAP1 PUSH2 0x39B3 JUMP JUMPDEST SWAP2 POP PUSH17 0x300000000000000000000000000000000 DUP4 PUSH16 0x99999999999999999999999999999999 PUSH2 0x1F0F SWAP2 SWAP1 PUSH2 0x3A6F JUMP JUMPDEST DUP4 PUSH2 0x1F1A SWAP2 SWAP1 PUSH2 0x3A15 JUMP JUMPDEST PUSH2 0x1F24 SWAP2 SWAP1 PUSH2 0x39B3 JUMP JUMPDEST DUP5 PUSH2 0x1F2F SWAP2 SWAP1 PUSH2 0x3926 JUMP JUMPDEST SWAP4 POP PUSH16 0x80000000000000000000000000000000 DUP2 DUP4 PUSH2 0x1F4E SWAP2 SWAP1 PUSH2 0x3A15 JUMP JUMPDEST PUSH2 0x1F58 SWAP2 SWAP1 PUSH2 0x39B3 JUMP JUMPDEST SWAP2 POP PUSH17 0x400000000000000000000000000000000 DUP4 PUSH16 0x92492492492492492492492492492492 PUSH2 0x1F88 SWAP2 SWAP1 PUSH2 0x3A6F JUMP JUMPDEST DUP4 PUSH2 0x1F93 SWAP2 SWAP1 PUSH2 0x3A15 JUMP JUMPDEST PUSH2 0x1F9D SWAP2 SWAP1 PUSH2 0x39B3 JUMP JUMPDEST DUP5 PUSH2 0x1FA8 SWAP2 SWAP1 PUSH2 0x3926 JUMP JUMPDEST SWAP4 POP PUSH16 0x80000000000000000000000000000000 DUP2 DUP4 PUSH2 0x1FC7 SWAP2 SWAP1 PUSH2 0x3A15 JUMP JUMPDEST PUSH2 0x1FD1 SWAP2 SWAP1 PUSH2 0x39B3 JUMP JUMPDEST SWAP2 POP PUSH17 0x500000000000000000000000000000000 DUP4 PUSH16 0x8E38E38E38E38E38E38E38E38E38E38E PUSH2 0x2001 SWAP2 SWAP1 PUSH2 0x3A6F JUMP JUMPDEST DUP4 PUSH2 0x200C SWAP2 SWAP1 PUSH2 0x3A15 JUMP JUMPDEST PUSH2 0x2016 SWAP2 SWAP1 PUSH2 0x39B3 JUMP JUMPDEST DUP5 PUSH2 0x2021 SWAP2 SWAP1 PUSH2 0x3926 JUMP JUMPDEST SWAP4 POP PUSH16 0x80000000000000000000000000000000 DUP2 DUP4 PUSH2 0x2040 SWAP2 SWAP1 PUSH2 0x3A15 JUMP JUMPDEST PUSH2 0x204A SWAP2 SWAP1 PUSH2 0x39B3 JUMP JUMPDEST SWAP2 POP PUSH17 0x600000000000000000000000000000000 DUP4 PUSH16 0x8BA2E8BA2E8BA2E8BA2E8BA2E8BA2E8B PUSH2 0x207A SWAP2 SWAP1 PUSH2 0x3A6F JUMP JUMPDEST DUP4 PUSH2 0x2085 SWAP2 SWAP1 PUSH2 0x3A15 JUMP JUMPDEST PUSH2 0x208F SWAP2 SWAP1 PUSH2 0x39B3 JUMP JUMPDEST DUP5 PUSH2 0x209A SWAP2 SWAP1 PUSH2 0x3926 JUMP JUMPDEST SWAP4 POP PUSH16 0x80000000000000000000000000000000 DUP2 DUP4 PUSH2 0x20B9 SWAP2 SWAP1 PUSH2 0x3A15 JUMP JUMPDEST PUSH2 0x20C3 SWAP2 SWAP1 PUSH2 0x39B3 JUMP JUMPDEST SWAP2 POP PUSH17 0x700000000000000000000000000000000 DUP4 PUSH16 0x89D89D89D89D89D89D89D89D89D89D89 PUSH2 0x20F3 SWAP2 SWAP1 PUSH2 0x3A6F JUMP JUMPDEST DUP4 PUSH2 0x20FE SWAP2 SWAP1 PUSH2 0x3A15 JUMP JUMPDEST PUSH2 0x2108 SWAP2 SWAP1 PUSH2 0x39B3 JUMP JUMPDEST DUP5 PUSH2 0x2113 SWAP2 SWAP1 PUSH2 0x3926 JUMP JUMPDEST SWAP4 POP PUSH16 0x80000000000000000000000000000000 DUP2 DUP4 PUSH2 0x2132 SWAP2 SWAP1 PUSH2 0x3A15 JUMP JUMPDEST PUSH2 0x213C SWAP2 SWAP1 PUSH2 0x39B3 JUMP JUMPDEST SWAP2 POP PUSH17 0x800000000000000000000000000000000 DUP4 PUSH16 0x88888888888888888888888888888888 PUSH2 0x216C SWAP2 SWAP1 PUSH2 0x3A6F JUMP JUMPDEST DUP4 PUSH2 0x2177 SWAP2 SWAP1 PUSH2 0x3A15 JUMP JUMPDEST PUSH2 0x2181 SWAP2 SWAP1 PUSH2 0x39B3 JUMP JUMPDEST DUP5 PUSH2 0x218C SWAP2 SWAP1 PUSH2 0x3926 JUMP JUMPDEST SWAP4 POP DUP4 SWAP5 POP POP POP POP POP SWAP2 SWAP1 POP JUMP JUMPDEST PUSH1 0x0 DUP1 PUSH1 0x0 SWAP1 POP PUSH1 0x0 DUP4 SWAP1 POP PUSH17 0x100000000000000000000000000000000 DUP2 LT PUSH2 0x2212 JUMPI PUSH1 0x0 PUSH2 0x21E4 PUSH16 0x80000000000000000000000000000000 DUP4 PUSH2 0x21DF SWAP2 SWAP1 PUSH2 0x39B3 JUMP JUMPDEST PUSH2 0x3387 JUMP JUMPDEST SWAP1 POP DUP1 PUSH1 0xFF AND DUP3 SWAP1 SHR SWAP2 POP PUSH16 0x80000000000000000000000000000000 DUP2 PUSH1 0xFF AND PUSH2 0x220E SWAP2 SWAP1 PUSH2 0x3A15 JUMP JUMPDEST SWAP3 POP POP JUMPDEST PUSH16 0x80000000000000000000000000000000 DUP2 GT ISZERO PUSH2 0x22BA JUMPI PUSH1 0x0 PUSH1 0x7F SWAP1 POP JUMPDEST PUSH1 0x0 DUP2 PUSH1 0xFF AND GT ISZERO PUSH2 0x22B8 JUMPI PUSH16 0x80000000000000000000000000000000 DUP3 DUP4 PUSH2 0x225A SWAP2 SWAP1 PUSH2 0x3A15 JUMP JUMPDEST PUSH2 0x2264 SWAP2 SWAP1 PUSH2 0x39B3 JUMP JUMPDEST SWAP2 POP PUSH17 0x100000000000000000000000000000000 DUP3 LT PUSH2 0x22A7 JUMPI PUSH1 0x1 DUP3 SWAP1 SHR SWAP2 POP PUSH1 0x1 DUP2 PUSH2 0x2292 SWAP2 SWAP1 PUSH2 0x3AA3 JUMP JUMPDEST PUSH1 0xFF AND PUSH1 0x1 SWAP1 SHL DUP4 PUSH2 0x22A4 SWAP2 SWAP1 PUSH2 0x3926 JUMP JUMPDEST SWAP3 POP JUMPDEST DUP1 PUSH2 0x22B1 SWAP1 PUSH2 0x3BDB JUMP JUMPDEST SWAP1 POP PUSH2 0x2231 JUMP JUMPDEST POP JUMPDEST PUSH16 0x5B9DE1D10BF4103D647B0955897BA80 PUSH16 0x3F80FE03F80FE03F80FE03F80FE03F8 DUP4 PUSH2 0x22E7 SWAP2 SWAP1 PUSH2 0x3A15 JUMP JUMPDEST PUSH2 0x22F1 SWAP2 SWAP1 PUSH2 0x39B3 JUMP JUMPDEST SWAP3 POP POP POP SWAP2 SWAP1 POP JUMP JUMPDEST PUSH1 0x0 DUP1 PUSH1 0x0 SWAP1 POP PUSH1 0x0 DUP1 PUSH16 0x10000000000000000000000000000000 DUP6 PUSH2 0x2320 SWAP2 SWAP1 PUSH2 0x3C80 JUMP JUMPDEST SWAP2 POP DUP2 SWAP1 POP PUSH16 0x80000000000000000000000000000000 DUP3 DUP3 PUSH2 0x2342 SWAP2 SWAP1 PUSH2 0x3A15 JUMP JUMPDEST PUSH2 0x234C SWAP2 SWAP1 PUSH2 0x39B3 JUMP JUMPDEST SWAP1 POP PUSH8 0x10E1B3BE415A0000 DUP2 PUSH2 0x2362 SWAP2 SWAP1 PUSH2 0x3A15 JUMP JUMPDEST DUP4 PUSH2 0x236D SWAP2 SWAP1 PUSH2 0x3926 JUMP JUMPDEST SWAP3 POP PUSH16 0x80000000000000000000000000000000 DUP3 DUP3 PUSH2 0x238C SWAP2 SWAP1 PUSH2 0x3A15 JUMP JUMPDEST PUSH2 0x2396 SWAP2 SWAP1 PUSH2 0x39B3 JUMP JUMPDEST SWAP1 POP PUSH8 0x5A0913F6B1E0000 DUP2 PUSH2 0x23AC SWAP2 SWAP1 PUSH2 0x3A15 JUMP JUMPDEST DUP4 PUSH2 0x23B7 SWAP2 SWAP1 PUSH2 0x3926 JUMP JUMPDEST SWAP3 POP PUSH16 0x80000000000000000000000000000000 DUP3 DUP3 PUSH2 0x23D6 SWAP2 SWAP1 PUSH2 0x3A15 JUMP JUMPDEST PUSH2 0x23E0 SWAP2 SWAP1 PUSH2 0x39B3 JUMP JUMPDEST SWAP1 POP PUSH8 0x168244FDAC78000 DUP2 PUSH2 0x23F6 SWAP2 SWAP1 PUSH2 0x3A15 JUMP JUMPDEST DUP4 PUSH2 0x2401 SWAP2 SWAP1 PUSH2 0x3926 JUMP JUMPDEST SWAP3 POP PUSH16 0x80000000000000000000000000000000 DUP3 DUP3 PUSH2 0x2420 SWAP2 SWAP1 PUSH2 0x3A15 JUMP JUMPDEST PUSH2 0x242A SWAP2 SWAP1 PUSH2 0x39B3 JUMP JUMPDEST SWAP1 POP PUSH7 0x4807432BC18000 DUP2 PUSH2 0x243F SWAP2 SWAP1 PUSH2 0x3A15 JUMP JUMPDEST DUP4 PUSH2 0x244A SWAP2 SWAP1 PUSH2 0x3926 JUMP JUMPDEST SWAP3 POP PUSH16 0x80000000000000000000000000000000 DUP3 DUP3 PUSH2 0x2469 SWAP2 SWAP1 PUSH2 0x3A15 JUMP JUMPDEST PUSH2 0x2473 SWAP2 SWAP1 PUSH2 0x39B3 JUMP JUMPDEST SWAP1 POP PUSH7 0xC0135DCA04000 DUP2 PUSH2 0x2488 SWAP2 SWAP1 PUSH2 0x3A15 JUMP JUMPDEST DUP4 PUSH2 0x2493 SWAP2 SWAP1 PUSH2 0x3926 JUMP JUMPDEST SWAP3 POP PUSH16 0x80000000000000000000000000000000 DUP3 DUP3 PUSH2 0x24B2 SWAP2 SWAP1 PUSH2 0x3A15 JUMP JUMPDEST PUSH2 0x24BC SWAP2 SWAP1 PUSH2 0x39B3 JUMP JUMPDEST SWAP1 POP PUSH7 0x1B707B1CDC000 DUP2 PUSH2 0x24D1 SWAP2 SWAP1 PUSH2 0x3A15 JUMP JUMPDEST DUP4 PUSH2 0x24DC SWAP2 SWAP1 PUSH2 0x3926 JUMP JUMPDEST SWAP3 POP PUSH16 0x80000000000000000000000000000000 DUP3 DUP3 PUSH2 0x24FB SWAP2 SWAP1 PUSH2 0x3A15 JUMP JUMPDEST PUSH2 0x2505 SWAP2 SWAP1 PUSH2 0x39B3 JUMP JUMPDEST SWAP1 POP PUSH6 0x36E0F639B800 DUP2 PUSH2 0x2519 SWAP2 SWAP1 PUSH2 0x3A15 JUMP JUMPDEST DUP4 PUSH2 0x2524 SWAP2 SWAP1 PUSH2 0x3926 JUMP JUMPDEST SWAP3 POP PUSH16 0x80000000000000000000000000000000 DUP3 DUP3 PUSH2 0x2543 SWAP2 SWAP1 PUSH2 0x3A15 JUMP JUMPDEST PUSH2 0x254D SWAP2 SWAP1 PUSH2 0x39B3 JUMP JUMPDEST SWAP1 POP PUSH6 0x618FEE9F800 DUP2 PUSH2 0x2561 SWAP2 SWAP1 PUSH2 0x3A15 JUMP JUMPDEST DUP4 PUSH2 0x256C SWAP2 SWAP1 PUSH2 0x3926 JUMP JUMPDEST SWAP3 POP PUSH16 0x80000000000000000000000000000000 DUP3 DUP3 PUSH2 0x258B SWAP2 SWAP1 PUSH2 0x3A15 JUMP JUMPDEST PUSH2 0x2595 SWAP2 SWAP1 PUSH2 0x39B3 JUMP JUMPDEST SWAP1 POP PUSH5 0x9C197DCC00 DUP2 PUSH2 0x25A8 SWAP2 SWAP1 PUSH2 0x3A15 JUMP JUMPDEST DUP4 PUSH2 0x25B3 SWAP2 SWAP1 PUSH2 0x3926 JUMP JUMPDEST SWAP3 POP PUSH16 0x80000000000000000000000000000000 DUP3 DUP3 PUSH2 0x25D2 SWAP2 SWAP1 PUSH2 0x3A15 JUMP JUMPDEST PUSH2 0x25DC SWAP2 SWAP1 PUSH2 0x39B3 JUMP JUMPDEST SWAP1 POP PUSH5 0xE30DCE400 DUP2 PUSH2 0x25EF SWAP2 SWAP1 PUSH2 0x3A15 JUMP JUMPDEST DUP4 PUSH2 0x25FA SWAP2 SWAP1 PUSH2 0x3926 JUMP JUMPDEST SWAP3 POP PUSH16 0x80000000000000000000000000000000 DUP3 DUP3 PUSH2 0x2619 SWAP2 SWAP1 PUSH2 0x3A15 JUMP JUMPDEST PUSH2 0x2623 SWAP2 SWAP1 PUSH2 0x39B3 JUMP JUMPDEST SWAP1 POP PUSH5 0x12EBD1300 DUP2 PUSH2 0x2636 SWAP2 SWAP1 PUSH2 0x3A15 JUMP JUMPDEST DUP4 PUSH2 0x2641 SWAP2 SWAP1 PUSH2 0x3926 JUMP JUMPDEST SWAP3 POP PUSH16 0x80000000000000000000000000000000 DUP3 DUP3 PUSH2 0x2660 SWAP2 SWAP1 PUSH2 0x3A15 JUMP JUMPDEST PUSH2 0x266A SWAP2 SWAP1 PUSH2 0x39B3 JUMP JUMPDEST SWAP1 POP PUSH4 0x17499F00 DUP2 PUSH2 0x267C SWAP2 SWAP1 PUSH2 0x3A15 JUMP JUMPDEST DUP4 PUSH2 0x2687 SWAP2 SWAP1 PUSH2 0x3926 JUMP JUMPDEST SWAP3 POP PUSH16 0x80000000000000000000000000000000 DUP3 DUP3 PUSH2 0x26A6 SWAP2 SWAP1 PUSH2 0x3A15 JUMP JUMPDEST PUSH2 0x26B0 SWAP2 SWAP1 PUSH2 0x39B3 JUMP JUMPDEST SWAP1 POP PUSH4 0x1A9D480 DUP2 PUSH2 0x26C2 SWAP2 SWAP1 PUSH2 0x3A15 JUMP JUMPDEST DUP4 PUSH2 0x26CD SWAP2 SWAP1 PUSH2 0x3926 JUMP JUMPDEST SWAP3 POP PUSH16 0x80000000000000000000000000000000 DUP3 DUP3 PUSH2 0x26EC SWAP2 SWAP1 PUSH2 0x3A15 JUMP JUMPDEST PUSH2 0x26F6 SWAP2 SWAP1 PUSH2 0x39B3 JUMP JUMPDEST SWAP1 POP PUSH3 0x1C6380 DUP2 PUSH2 0x2707 SWAP2 SWAP1 PUSH2 0x3A15 JUMP JUMPDEST DUP4 PUSH2 0x2712 SWAP2 SWAP1 PUSH2 0x3926 JUMP JUMPDEST SWAP3 POP PUSH16 0x80000000000000000000000000000000 DUP3 DUP3 PUSH2 0x2731 SWAP2 SWAP1 PUSH2 0x3A15 JUMP JUMPDEST PUSH2 0x273B SWAP2 SWAP1 PUSH2 0x39B3 JUMP JUMPDEST SWAP1 POP PUSH3 0x1C638 DUP2 PUSH2 0x274C SWAP2 SWAP1 PUSH2 0x3A15 JUMP JUMPDEST DUP4 PUSH2 0x2757 SWAP2 SWAP1 PUSH2 0x3926 JUMP JUMPDEST SWAP3 POP PUSH16 0x80000000000000000000000000000000 DUP3 DUP3 PUSH2 0x2776 SWAP2 SWAP1 PUSH2 0x3A15 JUMP JUMPDEST PUSH2 0x2780 SWAP2 SWAP1 PUSH2 0x39B3 JUMP JUMPDEST SWAP1 POP PUSH2 0x1AB8 DUP2 PUSH2 0x2790 SWAP2 SWAP1 PUSH2 0x3A15 JUMP JUMPDEST DUP4 PUSH2 0x279B SWAP2 SWAP1 PUSH2 0x3926 JUMP JUMPDEST SWAP3 POP PUSH16 0x80000000000000000000000000000000 DUP3 DUP3 PUSH2 0x27BA SWAP2 SWAP1 PUSH2 0x3A15 JUMP JUMPDEST PUSH2 0x27C4 SWAP2 SWAP1 PUSH2 0x39B3 JUMP JUMPDEST SWAP1 POP PUSH2 0x17C DUP2 PUSH2 0x27D4 SWAP2 SWAP1 PUSH2 0x3A15 JUMP JUMPDEST DUP4 PUSH2 0x27DF SWAP2 SWAP1 PUSH2 0x3926 JUMP JUMPDEST SWAP3 POP PUSH16 0x80000000000000000000000000000000 DUP3 DUP3 PUSH2 0x27FE SWAP2 SWAP1 PUSH2 0x3A15 JUMP JUMPDEST PUSH2 0x2808 SWAP2 SWAP1 PUSH2 0x39B3 JUMP JUMPDEST SWAP1 POP PUSH1 0x14 DUP2 PUSH2 0x2817 SWAP2 SWAP1 PUSH2 0x3A15 JUMP JUMPDEST DUP4 PUSH2 0x2822 SWAP2 SWAP1 PUSH2 0x3926 JUMP JUMPDEST SWAP3 POP PUSH16 0x80000000000000000000000000000000 DUP3 DUP3 PUSH2 0x2841 SWAP2 SWAP1 PUSH2 0x3A15 JUMP JUMPDEST PUSH2 0x284B SWAP2 SWAP1 PUSH2 0x39B3 JUMP JUMPDEST SWAP1 POP PUSH1 0x1 DUP2 PUSH2 0x285A SWAP2 SWAP1 PUSH2 0x3A15 JUMP JUMPDEST DUP4 PUSH2 0x2865 SWAP2 SWAP1 PUSH2 0x3926 JUMP JUMPDEST SWAP3 POP PUSH16 0x80000000000000000000000000000000 DUP3 PUSH8 0x21C3677C82B40000 DUP6 PUSH2 0x288D SWAP2 SWAP1 PUSH2 0x39B3 JUMP JUMPDEST PUSH2 0x2897 SWAP2 SWAP1 PUSH2 0x3926 JUMP JUMPDEST PUSH2 0x28A1 SWAP2 SWAP1 PUSH2 0x3926 JUMP JUMPDEST SWAP3 POP PUSH1 0x0 PUSH16 0x10000000000000000000000000000000 DUP7 AND EQ PUSH2 0x28F9 JUMPI PUSH17 0x18EBEF9EAC820AE8682B9793AC6D1E776 PUSH17 0x1C3D6A24ED82218787D624D3E5EBA95F9 DUP5 PUSH2 0x28EC SWAP2 SWAP1 PUSH2 0x3A15 JUMP JUMPDEST PUSH2 0x28F6 SWAP2 SWAP1 PUSH2 0x39B3 JUMP JUMPDEST SWAP3 POP JUMPDEST PUSH1 0x0 PUSH16 0x20000000000000000000000000000000 DUP7 AND EQ PUSH2 0x294F JUMPI PUSH17 0x1368B2FC6F9609FE7ACEB46AA619BAED4 PUSH17 0x18EBEF9EAC820AE8682B9793AC6D1E778 DUP5 PUSH2 0x2942 SWAP2 SWAP1 PUSH2 0x3A15 JUMP JUMPDEST PUSH2 0x294C SWAP2 SWAP1 PUSH2 0x39B3 JUMP JUMPDEST SWAP3 POP JUMPDEST PUSH1 0x0 PUSH16 0x40000000000000000000000000000000 DUP7 AND EQ PUSH2 0x29A4 JUMPI PUSH16 0xBC5AB1B16779BE3575BD8F0520A9F21F PUSH17 0x1368B2FC6F9609FE7ACEB46AA619BAED5 DUP5 PUSH2 0x2997 SWAP2 SWAP1 PUSH2 0x3A15 JUMP JUMPDEST PUSH2 0x29A1 SWAP2 SWAP1 PUSH2 0x39B3 JUMP JUMPDEST SWAP3 POP JUMPDEST PUSH1 0x0 PUSH16 0x80000000000000000000000000000000 DUP7 AND EQ PUSH2 0x29F8 JUMPI PUSH16 0x454AAA8EFE072E7F6DDBAB84B40A55C9 PUSH16 0xBC5AB1B16779BE3575BD8F0520A9F21E DUP5 PUSH2 0x29EB SWAP2 SWAP1 PUSH2 0x3A15 JUMP JUMPDEST PUSH2 0x29F5 SWAP2 SWAP1 PUSH2 0x39B3 JUMP JUMPDEST SWAP3 POP JUMPDEST PUSH1 0x0 PUSH17 0x100000000000000000000000000000000 DUP7 AND EQ PUSH2 0x2A4D JUMPI PUSH16 0x960AADC109E7A3BF4578099615711EA PUSH16 0x454AAA8EFE072E7F6DDBAB84B40A55C5 DUP5 PUSH2 0x2A40 SWAP2 SWAP1 PUSH2 0x3A15 JUMP JUMPDEST PUSH2 0x2A4A SWAP2 SWAP1 PUSH2 0x39B3 JUMP JUMPDEST SWAP3 POP JUMPDEST PUSH1 0x0 PUSH17 0x200000000000000000000000000000000 DUP7 AND EQ PUSH2 0x2AA1 JUMPI PUSH15 0x2BF84208204F5977F9A8CF01FDCE3D PUSH16 0x960AADC109E7A3BF4578099615711D7 DUP5 PUSH2 0x2A94 SWAP2 SWAP1 PUSH2 0x3A15 JUMP JUMPDEST PUSH2 0x2A9E SWAP2 SWAP1 PUSH2 0x39B3 JUMP JUMPDEST SWAP3 POP JUMPDEST PUSH1 0x0 PUSH17 0x400000000000000000000000000000000 DUP7 AND EQ PUSH2 0x2AF3 JUMPI PUSH14 0x3C6AB775DD0B95B4CBEE7E65D11 PUSH15 0x2BF84208204F5977F9A8CF01FDC307 DUP5 PUSH2 0x2AE6 SWAP2 SWAP1 PUSH2 0x3A15 JUMP JUMPDEST PUSH2 0x2AF0 SWAP2 SWAP1 PUSH2 0x39B3 JUMP JUMPDEST SWAP3 POP JUMPDEST DUP3 SWAP4 POP POP POP POP SWAP2 SWAP1 POP JUMP JUMPDEST PUSH1 0x0 DUP1 PUSH1 0x20 SWAP1 POP PUSH1 0x0 PUSH1 0x7F SWAP1 POP JUMPDEST DUP1 PUSH1 0xFF AND PUSH1 0x1 DUP4 PUSH2 0x2B1D SWAP2 SWAP1 PUSH2 0x397C JUMP JUMPDEST PUSH1 0xFF AND LT ISZERO PUSH2 0x2B99 JUMPI PUSH1 0x0 PUSH1 0x2 DUP3 DUP5 PUSH2 0x2B36 SWAP2 SWAP1 PUSH2 0x397C JUMP JUMPDEST PUSH2 0x2B40 SWAP2 SWAP1 PUSH2 0x39E4 JUMP JUMPDEST SWAP1 POP DUP5 PUSH1 0x2 DUP3 PUSH1 0xFF AND PUSH1 0x80 DUP2 LT PUSH2 0x2B80 JUMPI PUSH32 0x4E487B7100000000000000000000000000000000000000000000000000000000 PUSH1 0x0 MSTORE PUSH1 0x32 PUSH1 0x4 MSTORE PUSH1 0x24 PUSH1 0x0 REVERT JUMPDEST ADD SLOAD LT PUSH2 0x2B8F JUMPI DUP1 SWAP3 POP PUSH2 0x2B93 JUMP JUMPDEST DUP1 SWAP2 POP JUMPDEST POP PUSH2 0x2B0C JUMP JUMPDEST DUP4 PUSH1 0x2 DUP3 PUSH1 0xFF AND PUSH1 0x80 DUP2 LT PUSH2 0x2BD7 JUMPI PUSH32 0x4E487B7100000000000000000000000000000000000000000000000000000000 PUSH1 0x0 MSTORE PUSH1 0x32 PUSH1 0x4 MSTORE PUSH1 0x24 PUSH1 0x0 REVERT JUMPDEST ADD SLOAD LT PUSH2 0x2BE8 JUMPI DUP1 SWAP3 POP POP POP PUSH2 0x2C73 JUMP JUMPDEST DUP4 PUSH1 0x2 DUP4 PUSH1 0xFF AND PUSH1 0x80 DUP2 LT PUSH2 0x2C26 JUMPI PUSH32 0x4E487B7100000000000000000000000000000000000000000000000000000000 PUSH1 0x0 MSTORE PUSH1 0x32 PUSH1 0x4 MSTORE PUSH1 0x24 PUSH1 0x0 REVERT JUMPDEST ADD SLOAD LT PUSH2 0x2C37 JUMPI DUP2 SWAP3 POP POP POP PUSH2 0x2C73 JUMP JUMPDEST PUSH1 0x0 PUSH2 0x2C6C JUMPI PUSH32 0x4E487B7100000000000000000000000000000000000000000000000000000000 PUSH1 0x0 MSTORE PUSH1 0x1 PUSH1 0x4 MSTORE PUSH1 0x24 PUSH1 0x0 REVERT JUMPDEST PUSH1 0x0 SWAP3 POP POP POP JUMPDEST SWAP2 SWAP1 POP JUMP JUMPDEST PUSH1 0x0 DUP1 DUP4 SWAP1 POP PUSH1 0x0 DUP4 PUSH1 0xFF AND DUP6 DUP4 PUSH2 0x2C90 SWAP2 SWAP1 PUSH2 0x3A15 JUMP JUMPDEST SWAP1 SHR SWAP2 POP PUSH16 0x3442C4E6074A82F1797F72AC0000000 DUP3 PUSH2 0x2CB0 SWAP2 SWAP1 PUSH2 0x3A15 JUMP JUMPDEST DUP2 PUSH2 0x2CBB SWAP2 SWAP1 PUSH2 0x3926 JUMP JUMPDEST SWAP1 POP DUP4 PUSH1 0xFF AND DUP6 DUP4 PUSH2 0x2CCD SWAP2 SWAP1 PUSH2 0x3A15 JUMP JUMPDEST SWAP1 SHR SWAP2 POP PUSH16 0x116B96F757C380FB287FD0E40000000 DUP3 PUSH2 0x2CED SWAP2 SWAP1 PUSH2 0x3A15 JUMP JUMPDEST DUP2 PUSH2 0x2CF8 SWAP2 SWAP1 PUSH2 0x3926 JUMP JUMPDEST SWAP1 POP DUP4 PUSH1 0xFF AND DUP6 DUP4 PUSH2 0x2D0A SWAP2 SWAP1 PUSH2 0x3A15 JUMP JUMPDEST SWAP1 SHR SWAP2 POP PUSH15 0x45AE5BDD5F0E03ECA1FF4390000000 DUP3 PUSH2 0x2D29 SWAP2 SWAP1 PUSH2 0x3A15 JUMP JUMPDEST DUP2 PUSH2 0x2D34 SWAP2 SWAP1 PUSH2 0x3926 JUMP JUMPDEST SWAP1 POP DUP4 PUSH1 0xFF AND DUP6 DUP4 PUSH2 0x2D46 SWAP2 SWAP1 PUSH2 0x3A15 JUMP JUMPDEST SWAP1 SHR SWAP2 POP PUSH15 0xDEFABF91302CD95B9FFDA50000000 DUP3 PUSH2 0x2D65 SWAP2 SWAP1 PUSH2 0x3A15 JUMP JUMPDEST DUP2 PUSH2 0x2D70 SWAP2 SWAP1 PUSH2 0x3926 JUMP JUMPDEST SWAP1 POP DUP4 PUSH1 0xFF AND DUP6 DUP4 PUSH2 0x2D82 SWAP2 SWAP1 PUSH2 0x3A15 JUMP JUMPDEST SWAP1 SHR SWAP2 POP PUSH15 0x2529CA9832B22439EFFF9B8000000 DUP3 PUSH2 0x2DA1 SWAP2 SWAP1 PUSH2 0x3A15 JUMP JUMPDEST DUP2 PUSH2 0x2DAC SWAP2 SWAP1 PUSH2 0x3926 JUMP JUMPDEST SWAP1 POP DUP4 PUSH1 0xFF AND DUP6 DUP4 PUSH2 0x2DBE SWAP2 SWAP1 PUSH2 0x3A15 JUMP JUMPDEST SWAP1 SHR SWAP2 POP PUSH14 0x54F1CF12BD04E516B6DA88000000 DUP3 PUSH2 0x2DDC SWAP2 SWAP1 PUSH2 0x3A15 JUMP JUMPDEST DUP2 PUSH2 0x2DE7 SWAP2 SWAP1 PUSH2 0x3926 JUMP JUMPDEST SWAP1 POP DUP4 PUSH1 0xFF AND DUP6 DUP4 PUSH2 0x2DF9 SWAP2 SWAP1 PUSH2 0x3A15 JUMP JUMPDEST SWAP1 SHR SWAP2 POP PUSH14 0xA9E39E257A09CA2D6DB51000000 DUP3 PUSH2 0x2E17 SWAP2 SWAP1 PUSH2 0x3A15 JUMP JUMPDEST DUP2 PUSH2 0x2E22 SWAP2 SWAP1 PUSH2 0x3926 JUMP JUMPDEST SWAP1 POP DUP4 PUSH1 0xFF AND DUP6 DUP4 PUSH2 0x2E34 SWAP2 SWAP1 PUSH2 0x3A15 JUMP JUMPDEST SWAP1 SHR SWAP2 POP PUSH14 0x12E066E7B839FA050C309000000 DUP3 PUSH2 0x2E52 SWAP2 SWAP1 PUSH2 0x3A15 JUMP JUMPDEST DUP2 PUSH2 0x2E5D SWAP2 SWAP1 PUSH2 0x3926 JUMP JUMPDEST SWAP1 POP DUP4 PUSH1 0xFF AND DUP6 DUP4 PUSH2 0x2E6F SWAP2 SWAP1 PUSH2 0x3A15 JUMP JUMPDEST SWAP1 SHR SWAP2 POP PUSH13 0x1E33D7D926C329A1AD1A800000 DUP3 PUSH2 0x2E8C SWAP2 SWAP1 PUSH2 0x3A15 JUMP JUMPDEST DUP2 PUSH2 0x2E97 SWAP2 SWAP1 PUSH2 0x3926 JUMP JUMPDEST SWAP1 POP DUP4 PUSH1 0xFF AND DUP6 DUP4 PUSH2 0x2EA9 SWAP2 SWAP1 PUSH2 0x3A15 JUMP JUMPDEST SWAP1 SHR SWAP2 POP PUSH13 0x2BEE513BDB4A6B19B5F800000 DUP3 PUSH2 0x2EC6 SWAP2 SWAP1 PUSH2 0x3A15 JUMP JUMPDEST DUP2 PUSH2 0x2ED1 SWAP2 SWAP1 PUSH2 0x3926 JUMP JUMPDEST SWAP1 POP DUP4 PUSH1 0xFF AND DUP6 DUP4 PUSH2 0x2EE3 SWAP2 SWAP1 PUSH2 0x3A15 JUMP JUMPDEST SWAP1 SHR SWAP2 POP PUSH12 0x3A9316FA79B88ECCF2A00000 DUP3 PUSH2 0x2EFF SWAP2 SWAP1 PUSH2 0x3A15 JUMP JUMPDEST DUP2 PUSH2 0x2F0A SWAP2 SWAP1 PUSH2 0x3926 JUMP JUMPDEST SWAP1 POP DUP4 PUSH1 0xFF AND DUP6 DUP4 PUSH2 0x2F1C SWAP2 SWAP1 PUSH2 0x3A15 JUMP JUMPDEST SWAP1 SHR SWAP2 POP PUSH12 0x48177EBE1FA812375200000 DUP3 PUSH2 0x2F38 SWAP2 SWAP1 PUSH2 0x3A15 JUMP JUMPDEST DUP2 PUSH2 0x2F43 SWAP2 SWAP1 PUSH2 0x3926 JUMP JUMPDEST SWAP1 POP DUP4 PUSH1 0xFF AND DUP6 DUP4 PUSH2 0x2F55 SWAP2 SWAP1 PUSH2 0x3A15 JUMP JUMPDEST SWAP1 SHR SWAP2 POP PUSH11 0x5263FE90242DCBACF00000 DUP3 PUSH2 0x2F70 SWAP2 SWAP1 PUSH2 0x3A15 JUMP JUMPDEST DUP2 PUSH2 0x2F7B SWAP2 SWAP1 PUSH2 0x3926 JUMP JUMPDEST SWAP1 POP DUP4 PUSH1 0xFF AND DUP6 DUP4 PUSH2 0x2F8D SWAP2 SWAP1 PUSH2 0x3A15 JUMP JUMPDEST SWAP1 SHR SWAP2 POP PUSH11 0x57E22099C030D94100000 DUP3 PUSH2 0x2FA8 SWAP2 SWAP1 PUSH2 0x3A15 JUMP JUMPDEST DUP2 PUSH2 0x2FB3 SWAP2 SWAP1 PUSH2 0x3926 JUMP JUMPDEST SWAP1 POP DUP4 PUSH1 0xFF AND DUP6 DUP4 PUSH2 0x2FC5 SWAP2 SWAP1 PUSH2 0x3A15 JUMP JUMPDEST SWAP1 SHR SWAP2 POP PUSH10 0x57E22099C030D9410000 DUP3 PUSH2 0x2FDF SWAP2 SWAP1 PUSH2 0x3A15 JUMP JUMPDEST DUP2 PUSH2 0x2FEA SWAP2 SWAP1 PUSH2 0x3926 JUMP JUMPDEST SWAP1 POP DUP4 PUSH1 0xFF AND DUP6 DUP4 PUSH2 0x2FFC SWAP2 SWAP1 PUSH2 0x3A15 JUMP JUMPDEST SWAP1 SHR SWAP2 POP PUSH10 0x52B6B54569976310000 DUP3 PUSH2 0x3016 SWAP2 SWAP1 PUSH2 0x3A15 JUMP JUMPDEST DUP2 PUSH2 0x3021 SWAP2 SWAP1 PUSH2 0x3926 JUMP JUMPDEST SWAP1 POP DUP4 PUSH1 0xFF AND DUP6 DUP4 PUSH2 0x3033 SWAP2 SWAP1 PUSH2 0x3A15 JUMP JUMPDEST SWAP1 SHR SWAP2 POP PUSH9 0x4985F67696BF748000 DUP3 PUSH2 0x304C SWAP2 SWAP1 PUSH2 0x3A15 JUMP JUMPDEST DUP2 PUSH2 0x3057 SWAP2 SWAP1 PUSH2 0x3926 JUMP JUMPDEST SWAP1 POP DUP4 PUSH1 0xFF AND DUP6 DUP4 PUSH2 0x3069 SWAP2 SWAP1 PUSH2 0x3A15 JUMP JUMPDEST SWAP1 SHR SWAP2 POP PUSH9 0x3DEA12EA99E498000 DUP3 PUSH2 0x3082 SWAP2 SWAP1 PUSH2 0x3A15 JUMP JUMPDEST DUP2 PUSH2 0x308D SWAP2 SWAP1 PUSH2 0x3926 JUMP JUMPDEST SWAP1 POP DUP4 PUSH1 0xFF AND DUP6 DUP4 PUSH2 0x309F SWAP2 SWAP1 PUSH2 0x3A15 JUMP JUMPDEST SWAP1 SHR SWAP2 POP PUSH8 0x31880F2214B6E000 DUP3 PUSH2 0x30B7 SWAP2 SWAP1 PUSH2 0x3A15 JUMP JUMPDEST DUP2 PUSH2 0x30C2 SWAP2 SWAP1 PUSH2 0x3926 JUMP JUMPDEST SWAP1 POP DUP4 PUSH1 0xFF AND DUP6 DUP4 PUSH2 0x30D4 SWAP2 SWAP1 PUSH2 0x3A15 JUMP JUMPDEST SWAP1 SHR SWAP2 POP PUSH8 0x25BCFF56EB36000 DUP3 PUSH2 0x30EC SWAP2 SWAP1 PUSH2 0x3A15 JUMP JUMPDEST DUP2 PUSH2 0x30F7 SWAP2 SWAP1 PUSH2 0x3926 JUMP JUMPDEST SWAP1 POP DUP4 PUSH1 0xFF AND DUP6 DUP4 PUSH2 0x3109 SWAP2 SWAP1 PUSH2 0x3A15 JUMP JUMPDEST SWAP1 SHR SWAP2 POP PUSH7 0x1B722E10AB1000 DUP3 PUSH2 0x3120 SWAP2 SWAP1 PUSH2 0x3A15 JUMP JUMPDEST DUP2 PUSH2 0x312B SWAP2 SWAP1 PUSH2 0x3926 JUMP JUMPDEST SWAP1 POP DUP4 PUSH1 0xFF AND DUP6 DUP4 PUSH2 0x313D SWAP2 SWAP1 PUSH2 0x3A15 JUMP JUMPDEST SWAP1 SHR SWAP2 POP PUSH7 0x1317C70077000 DUP3 PUSH2 0x3154 SWAP2 SWAP1 PUSH2 0x3A15 JUMP JUMPDEST DUP2 PUSH2 0x315F SWAP2 SWAP1 PUSH2 0x3926 JUMP JUMPDEST SWAP1 POP DUP4 PUSH1 0xFF AND DUP6 DUP4 PUSH2 0x3171 SWAP2 SWAP1 PUSH2 0x3A15 JUMP JUMPDEST SWAP1 SHR SWAP2 POP PUSH6 0xCBA84AAFA00 DUP3 PUSH2 0x3187 SWAP2 SWAP1 PUSH2 0x3A15 JUMP JUMPDEST DUP2 PUSH2 0x3192 SWAP2 SWAP1 PUSH2 0x3926 JUMP JUMPDEST SWAP1 POP DUP4 PUSH1 0xFF AND DUP6 DUP4 PUSH2 0x31A4 SWAP2 SWAP1 PUSH2 0x3A15 JUMP JUMPDEST SWAP1 SHR SWAP2 POP PUSH5 0x82573A0A00 DUP3 PUSH2 0x31B9 SWAP2 SWAP1 PUSH2 0x3A15 JUMP JUMPDEST DUP2 PUSH2 0x31C4 SWAP2 SWAP1 PUSH2 0x3926 JUMP JUMPDEST SWAP1 POP DUP4 PUSH1 0xFF AND DUP6 DUP4 PUSH2 0x31D6 SWAP2 SWAP1 PUSH2 0x3A15 JUMP JUMPDEST SWAP1 SHR SWAP2 POP PUSH5 0x5035AD900 DUP3 PUSH2 0x31EB SWAP2 SWAP1 PUSH2 0x3A15 JUMP JUMPDEST DUP2 PUSH2 0x31F6 SWAP2 SWAP1 PUSH2 0x3926 JUMP JUMPDEST SWAP1 POP DUP4 PUSH1 0xFF AND DUP6 DUP4 PUSH2 0x3208 SWAP2 SWAP1 PUSH2 0x3A15 JUMP JUMPDEST SWAP1 SHR SWAP2 POP PUSH4 0x2F881B00 DUP3 PUSH2 0x321C SWAP2 SWAP1 PUSH2 0x3A15 JUMP JUMPDEST DUP2 PUSH2 0x3227 SWAP2 SWAP1 PUSH2 0x3926 JUMP JUMPDEST SWAP1 POP DUP4 PUSH1 0xFF AND DUP6 DUP4 PUSH2 0x3239 SWAP2 SWAP1 PUSH2 0x3A15 JUMP JUMPDEST SWAP1 SHR SWAP2 POP PUSH4 0x1B29340 DUP3 PUSH2 0x324D SWAP2 SWAP1 PUSH2 0x3A15 JUMP JUMPDEST DUP2 PUSH2 0x3258 SWAP2 SWAP1 PUSH2 0x3926 JUMP JUMPDEST SWAP1 POP DUP4 PUSH1 0xFF AND DUP6 DUP4 PUSH2 0x326A SWAP2 SWAP1 PUSH2 0x3A15 JUMP JUMPDEST SWAP1 SHR SWAP2 POP PUSH3 0xEFC40 DUP3 PUSH2 0x327D SWAP2 SWAP1 PUSH2 0x3A15 JUMP JUMPDEST DUP2 PUSH2 0x3288 SWAP2 SWAP1 PUSH2 0x3926 JUMP JUMPDEST SWAP1 POP DUP4 PUSH1 0xFF AND DUP6 DUP4 PUSH2 0x329A SWAP2 SWAP1 PUSH2 0x3A15 JUMP JUMPDEST SWAP1 SHR SWAP2 POP PUSH2 0x7FE0 DUP3 PUSH2 0x32AC SWAP2 SWAP1 PUSH2 0x3A15 JUMP JUMPDEST DUP2 PUSH2 0x32B7 SWAP2 SWAP1 PUSH2 0x3926 JUMP JUMPDEST SWAP1 POP DUP4 PUSH1 0xFF AND DUP6 DUP4 PUSH2 0x32C9 SWAP2 SWAP1 PUSH2 0x3A15 JUMP JUMPDEST SWAP1 SHR SWAP2 POP PUSH2 0x420 DUP3 PUSH2 0x32DB SWAP2 SWAP1 PUSH2 0x3A15 JUMP JUMPDEST DUP2 PUSH2 0x32E6 SWAP2 SWAP1 PUSH2 0x3926 JUMP JUMPDEST SWAP1 POP DUP4 PUSH1 0xFF AND DUP6 DUP4 PUSH2 0x32F8 SWAP2 SWAP1 PUSH2 0x3A15 JUMP JUMPDEST SWAP1 SHR SWAP2 POP PUSH1 0x21 DUP3 PUSH2 0x3309 SWAP2 SWAP1 PUSH2 0x3A15 JUMP JUMPDEST DUP2 PUSH2 0x3314 SWAP2 SWAP1 PUSH2 0x3926 JUMP JUMPDEST SWAP1 POP DUP4 PUSH1 0xFF AND DUP6 DUP4 PUSH2 0x3326 SWAP2 SWAP1 PUSH2 0x3A15 JUMP JUMPDEST SWAP1 SHR SWAP2 POP PUSH1 0x1 DUP3 PUSH2 0x3337 SWAP2 SWAP1 PUSH2 0x3A15 JUMP JUMPDEST DUP2 PUSH2 0x3342 SWAP2 SWAP1 PUSH2 0x3926 JUMP JUMPDEST SWAP1 POP DUP4 PUSH1 0xFF AND PUSH1 0x1 SWAP1 SHL DUP6 PUSH16 0x688589CC0E9505E2F2FEE5580000000 DUP4 PUSH2 0x3369 SWAP2 SWAP1 PUSH2 0x39B3 JUMP JUMPDEST PUSH2 0x3373 SWAP2 SWAP1 PUSH2 0x3926 JUMP JUMPDEST PUSH2 0x337D SWAP2 SWAP1 PUSH2 0x3926 JUMP JUMPDEST SWAP3 POP POP POP SWAP3 SWAP2 POP POP JUMP JUMPDEST PUSH1 0x0 DUP1 PUSH1 0x0 SWAP1 POP PUSH1 0x0 DUP4 SWAP1 POP PUSH2 0x100 DUP2 LT ISZERO PUSH2 0x33C7 JUMPI JUMPDEST PUSH1 0x1 DUP2 GT ISZERO PUSH2 0x33C2 JUMPI PUSH1 0x1 DUP2 SWAP1 SHR SWAP1 POP PUSH1 0x1 DUP3 PUSH2 0x33BB SWAP2 SWAP1 PUSH2 0x397C JUMP JUMPDEST SWAP2 POP PUSH2 0x339E JUMP JUMPDEST PUSH2 0x3408 JUMP JUMPDEST PUSH1 0x0 PUSH1 0x80 SWAP1 POP JUMPDEST PUSH1 0x0 DUP2 PUSH1 0xFF AND GT ISZERO PUSH2 0x3406 JUMPI DUP1 PUSH1 0xFF AND PUSH1 0x1 SWAP1 SHL DUP3 LT PUSH2 0x33F7 JUMPI DUP1 PUSH1 0xFF AND DUP3 SWAP1 SHR SWAP2 POP DUP1 DUP4 OR SWAP3 POP JUMPDEST PUSH1 0x1 DUP2 PUSH1 0xFF AND SWAP1 SHR SWAP1 POP PUSH2 0x33CE JUMP JUMPDEST POP JUMPDEST DUP2 SWAP3 POP POP POP SWAP2 SWAP1 POP JUMP JUMPDEST PUSH1 0x0 DUP2 CALLDATALOAD SWAP1 POP PUSH2 0x3421 DUP2 PUSH2 0x3D4F JUMP JUMPDEST SWAP3 SWAP2 POP POP JUMP JUMPDEST PUSH1 0x0 DUP2 MLOAD SWAP1 POP PUSH2 0x3436 DUP2 PUSH2 0x3D66 JUMP JUMPDEST SWAP3 SWAP2 POP POP JUMP JUMPDEST PUSH1 0x0 DUP2 CALLDATALOAD SWAP1 POP PUSH2 0x344B DUP2 PUSH2 0x3D7D JUMP JUMPDEST SWAP3 SWAP2 POP POP JUMP JUMPDEST PUSH1 0x0 DUP2 MLOAD SWAP1 POP PUSH2 0x3460 DUP2 PUSH2 0x3D7D JUMP JUMPDEST SWAP3 SWAP2 POP POP JUMP JUMPDEST PUSH1 0x0 DUP2 CALLDATALOAD SWAP1 POP PUSH2 0x3475 DUP2 PUSH2 0x3D94 JUMP JUMPDEST SWAP3 SWAP2 POP POP JUMP JUMPDEST PUSH1 0x0 PUSH1 0x20 DUP3 DUP5 SUB SLT ISZERO PUSH2 0x348D JUMPI PUSH1 0x0 DUP1 REVERT JUMPDEST PUSH1 0x0 PUSH2 0x349B DUP5 DUP3 DUP6 ADD PUSH2 0x3412 JUMP JUMPDEST SWAP2 POP POP SWAP3 SWAP2 POP POP JUMP JUMPDEST PUSH1 0x0 DUP1 PUSH1 0x0 PUSH1 0x60 DUP5 DUP7 SUB SLT ISZERO PUSH2 0x34B9 JUMPI PUSH1 0x0 DUP1 REVERT JUMPDEST PUSH1 0x0 PUSH2 0x34C7 DUP7 DUP3 DUP8 ADD PUSH2 0x3412 JUMP JUMPDEST SWAP4 POP POP PUSH1 0x20 PUSH2 0x34D8 DUP7 DUP3 DUP8 ADD PUSH2 0x343C JUMP JUMPDEST SWAP3 POP POP PUSH1 0x40 PUSH2 0x34E9 DUP7 DUP3 DUP8 ADD PUSH2 0x343C JUMP JUMPDEST SWAP2 POP POP SWAP3 POP SWAP3 POP SWAP3 JUMP JUMPDEST PUSH1 0x0 PUSH1 0x20 DUP3 DUP5 SUB SLT ISZERO PUSH2 0x3505 JUMPI PUSH1 0x0 DUP1 REVERT JUMPDEST PUSH1 0x0 PUSH2 0x3513 DUP5 DUP3 DUP6 ADD PUSH2 0x3427 JUMP JUMPDEST SWAP2 POP POP SWAP3 SWAP2 POP POP JUMP JUMPDEST PUSH1 0x0 PUSH1 0x20 DUP3 DUP5 SUB SLT ISZERO PUSH2 0x352E JUMPI PUSH1 0x0 DUP1 REVERT JUMPDEST PUSH1 0x0 PUSH2 0x353C DUP5 DUP3 DUP6 ADD PUSH2 0x343C JUMP JUMPDEST SWAP2 POP POP SWAP3 SWAP2 POP POP JUMP JUMPDEST PUSH1 0x0 PUSH1 0x20 DUP3 DUP5 SUB SLT ISZERO PUSH2 0x3557 JUMPI PUSH1 0x0 DUP1 REVERT JUMPDEST PUSH1 0x0 PUSH2 0x3565 DUP5 DUP3 DUP6 ADD PUSH2 0x3451 JUMP JUMPDEST SWAP2 POP POP SWAP3 SWAP2 POP POP JUMP JUMPDEST PUSH1 0x0 DUP1 PUSH1 0x40 DUP4 DUP6 SUB SLT ISZERO PUSH2 0x3581 JUMPI PUSH1 0x0 DUP1 REVERT JUMPDEST PUSH1 0x0 PUSH2 0x358F DUP6 DUP3 DUP7 ADD PUSH2 0x343C JUMP JUMPDEST SWAP3 POP POP PUSH1 0x20 PUSH2 0x35A0 DUP6 DUP3 DUP7 ADD PUSH2 0x343C JUMP JUMPDEST SWAP2 POP POP SWAP3 POP SWAP3 SWAP1 POP JUMP JUMPDEST PUSH1 0x0 DUP1 PUSH1 0x0 DUP1 PUSH1 0x80 DUP6 DUP8 SUB SLT ISZERO PUSH2 0x35C0 JUMPI PUSH1 0x0 DUP1 REVERT JUMPDEST PUSH1 0x0 PUSH2 0x35CE DUP8 DUP3 DUP9 ADD PUSH2 0x343C JUMP JUMPDEST SWAP5 POP POP PUSH1 0x20 PUSH2 0x35DF DUP8 DUP3 DUP9 ADD PUSH2 0x343C JUMP JUMPDEST SWAP4 POP POP PUSH1 0x40 PUSH2 0x35F0 DUP8 DUP3 DUP9 ADD PUSH2 0x3466 JUMP JUMPDEST SWAP3 POP POP PUSH1 0x60 PUSH2 0x3601 DUP8 DUP3 DUP9 ADD PUSH2 0x343C JUMP JUMPDEST SWAP2 POP POP SWAP3 SWAP6 SWAP2 SWAP5 POP SWAP3 POP JUMP JUMPDEST PUSH2 0x3616 DUP2 PUSH2 0x3AD7 JUMP JUMPDEST DUP3 MSTORE POP POP JUMP JUMPDEST PUSH2 0x3625 DUP2 PUSH2 0x3B3C JUMP JUMPDEST DUP3 MSTORE POP POP JUMP JUMPDEST PUSH2 0x3634 DUP2 PUSH2 0x3B60 JUMP JUMPDEST DUP3 MSTORE POP POP JUMP JUMPDEST PUSH2 0x3643 DUP2 PUSH2 0x3B84 JUMP JUMPDEST DUP3 MSTORE POP POP JUMP JUMPDEST PUSH1 0x0 PUSH2 0x3654 DUP3 PUSH2 0x390A JUMP JUMPDEST PUSH2 0x365E DUP2 DUP6 PUSH2 0x3915 JUMP JUMPDEST SWAP4 POP PUSH2 0x366E DUP2 DUP6 PUSH1 0x20 DUP7 ADD PUSH2 0x3BA8 JUMP JUMPDEST PUSH2 0x3677 DUP2 PUSH2 0x3D3E JUMP JUMPDEST DUP5 ADD SWAP2 POP POP SWAP3 SWAP2 POP POP JUMP JUMPDEST PUSH1 0x0 PUSH2 0x368F PUSH1 0x26 DUP4 PUSH2 0x3915 JUMP JUMPDEST SWAP2 POP PUSH32 0x4F776E61626C653A206E6577206F776E657220697320746865207A65726F2061 PUSH1 0x0 DUP4 ADD MSTORE PUSH32 0x6464726573730000000000000000000000000000000000000000000000000000 PUSH1 0x20 DUP4 ADD MSTORE PUSH1 0x40 DUP3 ADD SWAP1 POP SWAP2 SWAP1 POP JUMP JUMPDEST PUSH1 0x0 PUSH2 0x36F5 PUSH1 0x20 DUP4 PUSH2 0x3915 JUMP JUMPDEST SWAP2 POP PUSH32 0x4F776E61626C653A2063616C6C6572206973206E6F7420746865206F776E6572 PUSH1 0x0 DUP4 ADD MSTORE PUSH1 0x20 DUP3 ADD SWAP1 POP SWAP2 SWAP1 POP JUMP JUMPDEST PUSH1 0x0 PUSH2 0x3735 PUSH1 0x1C DUP4 PUSH2 0x3915 JUMP JUMPDEST SWAP2 POP PUSH32 0x4261736573203C203120617265206E6F7420737570706F727465642E00000000 PUSH1 0x0 DUP4 ADD MSTORE PUSH1 0x20 DUP3 ADD SWAP1 POP SWAP2 SWAP1 POP JUMP JUMPDEST PUSH2 0x3771 DUP2 PUSH2 0x3B15 JUMP JUMPDEST DUP3 MSTORE POP POP JUMP JUMPDEST PUSH2 0x3780 DUP2 PUSH2 0x3B1F JUMP JUMPDEST DUP3 MSTORE POP POP JUMP JUMPDEST PUSH1 0x0 PUSH1 0x20 DUP3 ADD SWAP1 POP PUSH2 0x379B PUSH1 0x0 DUP4 ADD DUP5 PUSH2 0x360D JUMP JUMPDEST SWAP3 SWAP2 POP POP JUMP JUMPDEST PUSH1 0x0 PUSH1 0x60 DUP3 ADD SWAP1 POP PUSH2 0x37B6 PUSH1 0x0 DUP4 ADD DUP7 PUSH2 0x360D JUMP JUMPDEST PUSH2 0x37C3 PUSH1 0x20 DUP4 ADD DUP6 PUSH2 0x360D JUMP JUMPDEST PUSH2 0x37D0 PUSH1 0x40 DUP4 ADD DUP5 PUSH2 0x3768 JUMP JUMPDEST SWAP5 SWAP4 POP POP POP POP JUMP JUMPDEST PUSH1 0x0 PUSH1 0x40 DUP3 ADD SWAP1 POP PUSH2 0x37ED PUSH1 0x0 DUP4 ADD DUP6 PUSH2 0x360D JUMP JUMPDEST PUSH2 0x37FA PUSH1 0x20 DUP4 ADD DUP5 PUSH2 0x3768 JUMP JUMPDEST SWAP4 SWAP3 POP POP POP JUMP JUMPDEST PUSH1 0x0 PUSH1 0x20 DUP3 ADD SWAP1 POP PUSH2 0x3816 PUSH1 0x0 DUP4 ADD DUP5 PUSH2 0x361C JUMP JUMPDEST SWAP3 SWAP2 POP POP JUMP JUMPDEST PUSH1 0x0 PUSH1 0x20 DUP3 ADD SWAP1 POP PUSH2 0x3831 PUSH1 0x0 DUP4 ADD DUP5 PUSH2 0x362B JUMP JUMPDEST SWAP3 SWAP2 POP POP JUMP JUMPDEST PUSH1 0x0 PUSH1 0x20 DUP3 ADD SWAP1 POP PUSH2 0x384C PUSH1 0x0 DUP4 ADD DUP5 PUSH2 0x363A JUMP JUMPDEST SWAP3 SWAP2 POP POP JUMP JUMPDEST PUSH1 0x0 PUSH1 0x20 DUP3 ADD SWAP1 POP DUP2 DUP2 SUB PUSH1 0x0 DUP4 ADD MSTORE PUSH2 0x386C DUP2 DUP5 PUSH2 0x3649 JUMP JUMPDEST SWAP1 POP SWAP3 SWAP2 POP POP JUMP JUMPDEST PUSH1 0x0 PUSH1 0x20 DUP3 ADD SWAP1 POP DUP2 DUP2 SUB PUSH1 0x0 DUP4 ADD MSTORE PUSH2 0x388D DUP2 PUSH2 0x3682 JUMP JUMPDEST SWAP1 POP SWAP2 SWAP1 POP JUMP JUMPDEST PUSH1 0x0 PUSH1 0x20 DUP3 ADD SWAP1 POP DUP2 DUP2 SUB PUSH1 0x0 DUP4 ADD MSTORE PUSH2 0x38AD DUP2 PUSH2 0x36E8 JUMP JUMPDEST SWAP1 POP SWAP2 SWAP1 POP JUMP JUMPDEST PUSH1 0x0 PUSH1 0x20 DUP3 ADD SWAP1 POP DUP2 DUP2 SUB PUSH1 0x0 DUP4 ADD MSTORE PUSH2 0x38CD DUP2 PUSH2 0x3728 JUMP JUMPDEST SWAP1 POP SWAP2 SWAP1 POP JUMP JUMPDEST PUSH1 0x0 PUSH1 0x20 DUP3 ADD SWAP1 POP PUSH2 0x38E9 PUSH1 0x0 DUP4 ADD DUP5 PUSH2 0x3768 JUMP JUMPDEST SWAP3 SWAP2 POP POP JUMP JUMPDEST PUSH1 0x0 PUSH1 0x20 DUP3 ADD SWAP1 POP PUSH2 0x3904 PUSH1 0x0 DUP4 ADD DUP5 PUSH2 0x3777 JUMP JUMPDEST SWAP3 SWAP2 POP POP JUMP JUMPDEST PUSH1 0x0 DUP2 MLOAD SWAP1 POP SWAP2 SWAP1 POP JUMP JUMPDEST PUSH1 0x0 DUP3 DUP3 MSTORE PUSH1 0x20 DUP3 ADD SWAP1 POP SWAP3 SWAP2 POP POP JUMP JUMPDEST PUSH1 0x0 PUSH2 0x3931 DUP3 PUSH2 0x3B15 JUMP JUMPDEST SWAP2 POP PUSH2 0x393C DUP4 PUSH2 0x3B15 JUMP JUMPDEST SWAP3 POP DUP3 PUSH32 0xFFFFFFFFFFFFFFFFFFFFFFFFFFFFFFFFFFFFFFFFFFFFFFFFFFFFFFFFFFFFFFFF SUB DUP3 GT ISZERO PUSH2 0x3971 JUMPI PUSH2 0x3970 PUSH2 0x3CB1 JUMP JUMPDEST JUMPDEST DUP3 DUP3 ADD SWAP1 POP SWAP3 SWAP2 POP POP JUMP JUMPDEST PUSH1 0x0 PUSH2 0x3987 DUP3 PUSH2 0x3B2F JUMP JUMPDEST SWAP2 POP PUSH2 0x3992 DUP4 PUSH2 0x3B2F JUMP JUMPDEST SWAP3 POP DUP3 PUSH1 0xFF SUB DUP3 GT ISZERO PUSH2 0x39A8 JUMPI PUSH2 0x39A7 PUSH2 0x3CB1 JUMP JUMPDEST JUMPDEST DUP3 DUP3 ADD SWAP1 POP SWAP3 SWAP2 POP POP JUMP JUMPDEST PUSH1 0x0 PUSH2 0x39BE DUP3 PUSH2 0x3B15 JUMP JUMPDEST SWAP2 POP PUSH2 0x39C9 DUP4 PUSH2 0x3B15 JUMP JUMPDEST SWAP3 POP DUP3 PUSH2 0x39D9 JUMPI PUSH2 0x39D8 PUSH2 0x3CE0 JUMP JUMPDEST JUMPDEST DUP3 DUP3 DIV SWAP1 POP SWAP3 SWAP2 POP POP JUMP JUMPDEST PUSH1 0x0 PUSH2 0x39EF DUP3 PUSH2 0x3B2F JUMP JUMPDEST SWAP2 POP PUSH2 0x39FA DUP4 PUSH2 0x3B2F JUMP JUMPDEST SWAP3 POP DUP3 PUSH2 0x3A0A JUMPI PUSH2 0x3A09 PUSH2 0x3CE0 JUMP JUMPDEST JUMPDEST DUP3 DUP3 DIV SWAP1 POP SWAP3 SWAP2 POP POP JUMP JUMPDEST PUSH1 0x0 PUSH2 0x3A20 DUP3 PUSH2 0x3B15 JUMP JUMPDEST SWAP2 POP PUSH2 0x3A2B DUP4 PUSH2 0x3B15 JUMP JUMPDEST SWAP3 POP DUP2 PUSH32 0xFFFFFFFFFFFFFFFFFFFFFFFFFFFFFFFFFFFFFFFFFFFFFFFFFFFFFFFFFFFFFFFF DIV DUP4 GT DUP3 ISZERO ISZERO AND ISZERO PUSH2 0x3A64 JUMPI PUSH2 0x3A63 PUSH2 0x3CB1 JUMP JUMPDEST JUMPDEST DUP3 DUP3 MUL SWAP1 POP SWAP3 SWAP2 POP POP JUMP JUMPDEST PUSH1 0x0 PUSH2 0x3A7A DUP3 PUSH2 0x3B15 JUMP JUMPDEST SWAP2 POP PUSH2 0x3A85 DUP4 PUSH2 0x3B15 JUMP JUMPDEST SWAP3 POP DUP3 DUP3 LT ISZERO PUSH2 0x3A98 JUMPI PUSH2 0x3A97 PUSH2 0x3CB1 JUMP JUMPDEST JUMPDEST DUP3 DUP3 SUB SWAP1 POP SWAP3 SWAP2 POP POP JUMP JUMPDEST PUSH1 0x0 PUSH2 0x3AAE DUP3 PUSH2 0x3B2F JUMP JUMPDEST SWAP2 POP PUSH2 0x3AB9 DUP4 PUSH2 0x3B2F JUMP JUMPDEST SWAP3 POP DUP3 DUP3 LT ISZERO PUSH2 0x3ACC JUMPI PUSH2 0x3ACB PUSH2 0x3CB1 JUMP JUMPDEST JUMPDEST DUP3 DUP3 SUB SWAP1 POP SWAP3 SWAP2 POP POP JUMP JUMPDEST PUSH1 0x0 PUSH2 0x3AE2 DUP3 PUSH2 0x3AF5 JUMP JUMPDEST SWAP1 POP SWAP2 SWAP1 POP JUMP JUMPDEST PUSH1 0x0 DUP2 ISZERO ISZERO SWAP1 POP SWAP2 SWAP1 POP JUMP JUMPDEST PUSH1 0x0 PUSH20 0xFFFFFFFFFFFFFFFFFFFFFFFFFFFFFFFFFFFFFFFF DUP3 AND SWAP1 POP SWAP2 SWAP1 POP JUMP JUMPDEST PUSH1 0x0 DUP2 SWAP1 POP SWAP2 SWAP1 POP JUMP JUMPDEST PUSH1 0x0 PUSH4 0xFFFFFFFF DUP3 AND SWAP1 POP SWAP2 SWAP1 POP JUMP JUMPDEST PUSH1 0x0 PUSH1 0xFF DUP3 AND SWAP1 POP SWAP2 SWAP1 POP JUMP JUMPDEST PUSH1 0x0 PUSH2 0x3B47 DUP3 PUSH2 0x3B4E JUMP JUMPDEST SWAP1 POP SWAP2 SWAP1 POP JUMP JUMPDEST PUSH1 0x0 PUSH2 0x3B59 DUP3 PUSH2 0x3AF5 JUMP JUMPDEST SWAP1 POP SWAP2 SWAP1 POP JUMP JUMPDEST PUSH1 0x0 PUSH2 0x3B6B DUP3 PUSH2 0x3B72 JUMP JUMPDEST SWAP1 POP SWAP2 SWAP1 POP JUMP JUMPDEST PUSH1 0x0 PUSH2 0x3B7D DUP3 PUSH2 0x3AF5 JUMP JUMPDEST SWAP1 POP SWAP2 SWAP1 POP JUMP JUMPDEST PUSH1 0x0 PUSH2 0x3B8F DUP3 PUSH2 0x3B96 JUMP JUMPDEST SWAP1 POP SWAP2 SWAP1 POP JUMP JUMPDEST PUSH1 0x0 PUSH2 0x3BA1 DUP3 PUSH2 0x3AF5 JUMP JUMPDEST SWAP1 POP SWAP2 SWAP1 POP JUMP JUMPDEST PUSH1 0x0 JUMPDEST DUP4 DUP2 LT ISZERO PUSH2 0x3BC6 JUMPI DUP1 DUP3 ADD MLOAD DUP2 DUP5 ADD MSTORE PUSH1 0x20 DUP2 ADD SWAP1 POP PUSH2 0x3BAB JUMP JUMPDEST DUP4 DUP2 GT ISZERO PUSH2 0x3BD5 JUMPI PUSH1 0x0 DUP5 DUP5 ADD MSTORE JUMPDEST POP POP POP POP JUMP JUMPDEST PUSH1 0x0 PUSH2 0x3BE6 DUP3 PUSH2 0x3B2F JUMP JUMPDEST SWAP2 POP PUSH1 0x0 DUP3 EQ ISZERO PUSH2 0x3BFA JUMPI PUSH2 0x3BF9 PUSH2 0x3CB1 JUMP JUMPDEST JUMPDEST PUSH1 0x1 DUP3 SUB SWAP1 POP SWAP2 SWAP1 POP JUMP JUMPDEST PUSH1 0x0 PUSH1 0x2 DUP3 DIV SWAP1 POP PUSH1 0x1 DUP3 AND DUP1 PUSH2 0x3C1D JUMPI PUSH1 0x7F DUP3 AND SWAP2 POP JUMPDEST PUSH1 0x20 DUP3 LT DUP2 EQ ISZERO PUSH2 0x3C31 JUMPI PUSH2 0x3C30 PUSH2 0x3D0F JUMP JUMPDEST JUMPDEST POP SWAP2 SWAP1 POP JUMP JUMPDEST PUSH1 0x0 PUSH2 0x3C42 DUP3 PUSH2 0x3B15 JUMP JUMPDEST SWAP2 POP PUSH32 0xFFFFFFFFFFFFFFFFFFFFFFFFFFFFFFFFFFFFFFFFFFFFFFFFFFFFFFFFFFFFFFFF DUP3 EQ ISZERO PUSH2 0x3C75 JUMPI PUSH2 0x3C74 PUSH2 0x3CB1 JUMP JUMPDEST JUMPDEST PUSH1 0x1 DUP3 ADD SWAP1 POP SWAP2 SWAP1 POP JUMP JUMPDEST PUSH1 0x0 PUSH2 0x3C8B DUP3 PUSH2 0x3B15 JUMP JUMPDEST SWAP2 POP PUSH2 0x3C96 DUP4 PUSH2 0x3B15 JUMP JUMPDEST SWAP3 POP DUP3 PUSH2 0x3CA6 JUMPI PUSH2 0x3CA5 PUSH2 0x3CE0 JUMP JUMPDEST JUMPDEST DUP3 DUP3 MOD SWAP1 POP SWAP3 SWAP2 POP POP JUMP JUMPDEST PUSH32 0x4E487B7100000000000000000000000000000000000000000000000000000000 PUSH1 0x0 MSTORE PUSH1 0x11 PUSH1 0x4 MSTORE PUSH1 0x24 PUSH1 0x0 REVERT JUMPDEST PUSH32 0x4E487B7100000000000000000000000000000000000000000000000000000000 PUSH1 0x0 MSTORE PUSH1 0x12 PUSH1 0x4 MSTORE PUSH1 0x24 PUSH1 0x0 REVERT JUMPDEST PUSH32 0x4E487B7100000000000000000000000000000000000000000000000000000000 PUSH1 0x0 MSTORE PUSH1 0x22 PUSH1 0x4 MSTORE PUSH1 0x24 PUSH1 0x0 REVERT JUMPDEST PUSH1 0x0 PUSH1 0x1F NOT PUSH1 0x1F DUP4 ADD AND SWAP1 POP SWAP2 SWAP1 POP JUMP JUMPDEST PUSH2 0x3D58 DUP2 PUSH2 0x3AD7 JUMP JUMPDEST DUP2 EQ PUSH2 0x3D63 JUMPI PUSH1 0x0 DUP1 REVERT JUMPDEST POP JUMP JUMPDEST PUSH2 0x3D6F DUP2 PUSH2 0x3AE9 JUMP JUMPDEST DUP2 EQ PUSH2 0x3D7A JUMPI PUSH1 0x0 DUP1 REVERT JUMPDEST POP JUMP JUMPDEST PUSH2 0x3D86 DUP2 PUSH2 0x3B15 JUMP JUMPDEST DUP2 EQ PUSH2 0x3D91 JUMPI PUSH1 0x0 DUP1 REVERT JUMPDEST POP JUMP JUMPDEST PUSH2 0x3D9D DUP2 PUSH2 0x3B1F JUMP JUMPDEST DUP2 EQ PUSH2 0x3DA8 JUMPI PUSH1 0x0 DUP1 REVERT JUMPDEST POP JUMP INVALID LOG2 PUSH5 0x6970667358 0x22 SLT KECCAK256 MULMOD PUSH29 0xDC7B30ACE9AA753B96E1C3E3348C8548276D3C3B8309A14567ABA802E2 0xAF PUSH5 0x736F6C6343 STOP ADDMOD STOP STOP CALLER "
        },
        "methodIdentifiers": {
          "DC()": "780249cd",
          "DD()": "eccc32f2",
          "DS()": "4242bac0",
          "MAX_WEIGHT()": "e4a28a52",
          "addNewCollateralType(address)": "ca3e24c9",
          "calculatePoolBal()": "24d69228",
          "calculatePurchase(uint256)": "e1f1e902",
          "calculatePurchaseReturn(uint256,uint256,uint32,uint256)": "29a00e7c",
          "calculateSale(uint256)": "f04b1188",
          "calculateSaleReturn(uint256,uint256,uint32,uint256)": "49f9b0f7",
          "collateralCount()": "b6faaf8a",
          "collateralTypes(uint256)": "918b7cfe",
          "connectorWeight()": "b586c9a2",
          "divisor()": "1f2dc5ef",
          "fractionalReserveValue()": "63795d57",
          "fundWithdrawl(address,uint256,uint256)": "717ad438",
          "lockedBalance()": "7b80889b",
          "owner()": "8da5cb5b",
          "percent()": "70ba1113",
          "purchaseStock(uint256,uint256)": "d53ffbcf",
          "refundRatio()": "5cf590d9",
          "renounceOwnership()": "715018a6",
          "sellStock(uint256)": "9104c81e",
          "transferOwnership(address)": "f2fde38b",
          "version()": "54fd4d50"
        }
      }
    }
  }
}