{
  "contracts/utils/BancorFormula.sol": {
    "BancorFormula": {
      "abi": [
        {
          "inputs": [],
          "stateMutability": "nonpayable",
          "type": "constructor"
        },
        {
          "inputs": [],
          "name": "MAX_WEIGHT",
          "outputs": [
            {
              "internalType": "uint32",
              "name": "",
              "type": "uint32"
            }
          ],
          "stateMutability": "view",
          "type": "function"
        },
        {
          "inputs": [
            {
              "internalType": "uint256",
              "name": "_supply",
              "type": "uint256"
            },
            {
              "internalType": "uint256",
              "name": "_connectorBalance",
              "type": "uint256"
            },
            {
              "internalType": "uint32",
              "name": "_connectorWeight",
              "type": "uint32"
            },
            {
              "internalType": "uint256",
              "name": "_depositAmount",
              "type": "uint256"
            }
          ],
          "name": "calculatePurchaseReturn",
          "outputs": [
            {
              "internalType": "uint256",
              "name": "",
              "type": "uint256"
            }
          ],
          "stateMutability": "view",
          "type": "function"
        },
        {
          "inputs": [
            {
              "internalType": "uint256",
              "name": "_supply",
              "type": "uint256"
            },
            {
              "internalType": "uint256",
              "name": "_connectorBalance",
              "type": "uint256"
            },
            {
              "internalType": "uint32",
              "name": "_connectorWeight",
              "type": "uint32"
            },
            {
              "internalType": "uint256",
              "name": "_sellAmount",
              "type": "uint256"
            }
          ],
          "name": "calculateSaleReturn",
          "outputs": [
            {
              "internalType": "uint256",
              "name": "",
              "type": "uint256"
            }
          ],
          "stateMutability": "view",
          "type": "function"
        },
        {
          "inputs": [],
          "name": "version",
          "outputs": [
            {
              "internalType": "string",
              "name": "",
              "type": "string"
            }
          ],
          "stateMutability": "view",
          "type": "function"
        }
      ],
      "evm": {
        "bytecode": {
          "linkReferences": {},
          "object": "60806040526040518060400160405280600381526020017f302e330000000000000000000000000000000000000000000000000000000000815250600090805190602001906200005192919062001f9a565b503480156200005f57600080fd5b50701c35fedd14ffffffffffffffffffffffff6001602060808110620000ae577f4e487b7100000000000000000000000000000000000000000000000000000000600052603260045260246000fd5b0181905550701b0ce43b323fffffffffffffffffffffff600160216080811062000101577f4e487b7100000000000000000000000000000000000000000000000000000000600052603260045260246000fd5b01819055507019f0028ec1ffffffffffffffffffffffff600160226080811062000154577f4e487b7100000000000000000000000000000000000000000000000000000000600052603260045260246000fd5b01819055507018ded91f0e7fffffffffffffffffffffff6001602360808110620001a7577f4e487b7100000000000000000000000000000000000000000000000000000000600052603260045260246000fd5b01819055507017d8ec7f0417ffffffffffffffffffffff6001602460808110620001fa577f4e487b7100000000000000000000000000000000000000000000000000000000600052603260045260246000fd5b01819055507016ddc6556cdbffffffffffffffffffffff60016025608081106200024d577f4e487b7100000000000000000000000000000000000000000000000000000000600052603260045260246000fd5b01819055507015ecf52776a1ffffffffffffffffffffff6001602660808110620002a0577f4e487b7100000000000000000000000000000000000000000000000000000000600052603260045260246000fd5b01819055507015060c256cb2ffffffffffffffffffffff6001602760808110620002f3577f4e487b7100000000000000000000000000000000000000000000000000000000600052603260045260246000fd5b0181905550701428a2f98d72ffffffffffffffffffffff600160286080811062000346577f4e487b7100000000000000000000000000000000000000000000000000000000600052603260045260246000fd5b01819055507013545598e5c23fffffffffffffffffffff600160296080811062000399577f4e487b7100000000000000000000000000000000000000000000000000000000600052603260045260246000fd5b0181905550701288c4161ce1dfffffffffffffffffffff6001602a60808110620003ec577f4e487b7100000000000000000000000000000000000000000000000000000000600052603260045260246000fd5b01819055507011c592761c666fffffffffffffffffffff6001602b608081106200043f577f4e487b7100000000000000000000000000000000000000000000000000000000600052603260045260246000fd5b018190555070110a688680a757ffffffffffffffffffff6001602c6080811062000492577f4e487b7100000000000000000000000000000000000000000000000000000000600052603260045260246000fd5b0181905550701056f1b5bedf77ffffffffffffffffffff6001602d60808110620004e5577f4e487b7100000000000000000000000000000000000000000000000000000000600052603260045260246000fd5b0181905550700faadceceeff8bffffffffffffffffffff6001602e6080811062000538577f4e487b7100000000000000000000000000000000000000000000000000000000600052603260045260246000fd5b0181905550700f05dc6b27edadffffffffffffffffffff6001602f608081106200058b577f4e487b7100000000000000000000000000000000000000000000000000000000600052603260045260246000fd5b0181905550700e67a5a25da4107fffffffffffffffffff6001603060808110620005de577f4e487b7100000000000000000000000000000000000000000000000000000000600052603260045260246000fd5b0181905550700dcff115b14eedffffffffffffffffffff600160316080811062000631577f4e487b7100000000000000000000000000000000000000000000000000000000600052603260045260246000fd5b0181905550700d3e7a392431239fffffffffffffffffff600160326080811062000684577f4e487b7100000000000000000000000000000000000000000000000000000000600052603260045260246000fd5b0181905550700cb2ff529eb71e4fffffffffffffffffff6001603360808110620006d7577f4e487b7100000000000000000000000000000000000000000000000000000000600052603260045260246000fd5b0181905550700c2d415c3db974afffffffffffffffffff60016034608081106200072a577f4e487b7100000000000000000000000000000000000000000000000000000000600052603260045260246000fd5b0181905550700bad03e7d883f69bffffffffffffffffff60016035608081106200077d577f4e487b7100000000000000000000000000000000000000000000000000000000600052603260045260246000fd5b0181905550700b320d03b2c343d5ffffffffffffffffff6001603660808110620007d0577f4e487b7100000000000000000000000000000000000000000000000000000000600052603260045260246000fd5b0181905550700abc25204e02828dffffffffffffffffff600160376080811062000823577f4e487b7100000000000000000000000000000000000000000000000000000000600052603260045260246000fd5b0181905550700a4b16f74ee4bb207fffffffffffffffff600160386080811062000876577f4e487b7100000000000000000000000000000000000000000000000000000000600052603260045260246000fd5b01819055507009deaf736ac1f569ffffffffffffffffff6001603960808110620008c9577f4e487b7100000000000000000000000000000000000000000000000000000000600052603260045260246000fd5b0181905550700976bd9952c7aa957fffffffffffffffff6001603a608081106200091c577f4e487b7100000000000000000000000000000000000000000000000000000000600052603260045260246000fd5b01819055507009131271922eaa606fffffffffffffffff6001603b608081106200096f577f4e487b7100000000000000000000000000000000000000000000000000000000600052603260045260246000fd5b01819055507008b380f3558668c46fffffffffffffffff6001603c60808110620009c2577f4e487b7100000000000000000000000000000000000000000000000000000000600052603260045260246000fd5b0181905550700857ddf0117efa215bffffffffffffffff6001603d6080811062000a15577f4e487b7100000000000000000000000000000000000000000000000000000000600052603260045260246000fd5b01819055507007ffffffffffffffffffffffffffffffff6001603e6080811062000a68577f4e487b7100000000000000000000000000000000000000000000000000000000600052603260045260246000fd5b01819055507007abbf6f6abb9d087fffffffffffffffff6001603f6080811062000abb577f4e487b7100000000000000000000000000000000000000000000000000000000600052603260045260246000fd5b018190555070075af62cbac95f7dfa7fffffffffffffff600160406080811062000b0e577f4e487b7100000000000000000000000000000000000000000000000000000000600052603260045260246000fd5b018190555070070d7fb7452e187ac13fffffffffffffff600160416080811062000b61577f4e487b7100000000000000000000000000000000000000000000000000000000600052603260045260246000fd5b01819055507006c3390ecc8af379295fffffffffffffff600160426080811062000bb4577f4e487b7100000000000000000000000000000000000000000000000000000000600052603260045260246000fd5b018190555070067c00a3b07ffc01fd6fffffffffffffff600160436080811062000c07577f4e487b7100000000000000000000000000000000000000000000000000000000600052603260045260246000fd5b0181905550700637b647c39cbb9d3d27ffffffffffffff600160446080811062000c5a577f4e487b7100000000000000000000000000000000000000000000000000000000600052603260045260246000fd5b01819055507005f63b1fc104dbd39587ffffffffffffff600160456080811062000cad577f4e487b7100000000000000000000000000000000000000000000000000000000600052603260045260246000fd5b01819055507005b771955b36e12f7235ffffffffffffff600160466080811062000d00577f4e487b7100000000000000000000000000000000000000000000000000000000600052603260045260246000fd5b018190555070057b3d49dda84556d6f6ffffffffffffff600160476080811062000d53577f4e487b7100000000000000000000000000000000000000000000000000000000600052603260045260246000fd5b018190555070054183095b2c8ececf30ffffffffffffff600160486080811062000da6577f4e487b7100000000000000000000000000000000000000000000000000000000600052603260045260246000fd5b018190555070050a28be635ca2b888f77fffffffffffff600160496080811062000df9577f4e487b7100000000000000000000000000000000000000000000000000000000600052603260045260246000fd5b01819055507004d5156639708c9db33c3fffffffffffff6001604a6080811062000e4c577f4e487b7100000000000000000000000000000000000000000000000000000000600052603260045260246000fd5b01819055507004a23105873875bd52dfdfffffffffffff6001604b6080811062000e9f577f4e487b7100000000000000000000000000000000000000000000000000000000600052603260045260246000fd5b0181905550700471649d87199aa990756fffffffffffff6001604c6080811062000ef2577f4e487b7100000000000000000000000000000000000000000000000000000000600052603260045260246000fd5b01819055507004429a21a029d4c1457cfbffffffffffff6001604d6080811062000f45577f4e487b7100000000000000000000000000000000000000000000000000000000600052603260045260246000fd5b0181905550700415bc6d6fb7dd71af2cb3ffffffffffff6001604e6080811062000f98577f4e487b7100000000000000000000000000000000000000000000000000000000600052603260045260246000fd5b01819055507003eab73b3bbfe282243ce1ffffffffffff6001604f6080811062000feb577f4e487b7100000000000000000000000000000000000000000000000000000000600052603260045260246000fd5b01819055507003c1771ac9fb6b4c18e229ffffffffffff60016050608081106200103e577f4e487b7100000000000000000000000000000000000000000000000000000000600052603260045260246000fd5b0181905550700399e96897690418f785257fffffffffff600160516080811062001091577f4e487b7100000000000000000000000000000000000000000000000000000000600052603260045260246000fd5b0181905550700373fc456c53bb779bf0ea9fffffffffff6001605260808110620010e4577f4e487b7100000000000000000000000000000000000000000000000000000000600052603260045260246000fd5b018190555070034f9e8e490c48e67e6ab8bfffffffffff600160536080811062001137577f4e487b7100000000000000000000000000000000000000000000000000000000600052603260045260246000fd5b018190555070032cbfd4a7adc790560b3337ffffffffff60016054608081106200118a577f4e487b7100000000000000000000000000000000000000000000000000000000600052603260045260246000fd5b018190555070030b50570f6e5d2acca94613ffffffffff6001605560808110620011dd577f4e487b7100000000000000000000000000000000000000000000000000000000600052603260045260246000fd5b01819055507002eb40f9f620fda6b56c2861ffffffffff600160566080811062001230577f4e487b7100000000000000000000000000000000000000000000000000000000600052603260045260246000fd5b01819055507002cc8340ecb0d0f520a6af58ffffffffff600160576080811062001283577f4e487b7100000000000000000000000000000000000000000000000000000000600052603260045260246000fd5b01819055507002af09481380a0a35cf1ba02ffffffffff6001605860808110620012d6577f4e487b7100000000000000000000000000000000000000000000000000000000600052603260045260246000fd5b0181905550700292c5bdd3b92ec810287b1b3fffffffff600160596080811062001329577f4e487b7100000000000000000000000000000000000000000000000000000000600052603260045260246000fd5b0181905550700277abdcdab07d5a77ac6d6b9fffffffff6001605a608081106200137c577f4e487b7100000000000000000000000000000000000000000000000000000000600052603260045260246000fd5b018190555070025daf6654b1eaa55fd64df5efffffffff6001605b60808110620013cf577f4e487b7100000000000000000000000000000000000000000000000000000000600052603260045260246000fd5b0181905550700244c49c648baa98192dce88b7ffffffff6001605c6080811062001422577f4e487b7100000000000000000000000000000000000000000000000000000000600052603260045260246000fd5b018190555070022ce03cd5619a311b2471268bffffffff6001605d6080811062001475577f4e487b7100000000000000000000000000000000000000000000000000000000600052603260045260246000fd5b0181905550700215f77c045fbe885654a44a0fffffffff6001605e60808110620014c8577f4e487b7100000000000000000000000000000000000000000000000000000000600052603260045260246000fd5b01819055507001ffffffffffffffffffffffffffffffff6001605f608081106200151b577f4e487b7100000000000000000000000000000000000000000000000000000000600052603260045260246000fd5b01819055507001eaefdbdaaee7421fc4d3ede5ffffffff60016060608081106200156e577f4e487b7100000000000000000000000000000000000000000000000000000000600052603260045260246000fd5b01819055507001d6bd8b2eb257df7e8ca57b09bfffffff6001606160808110620015c1577f4e487b7100000000000000000000000000000000000000000000000000000000600052603260045260246000fd5b01819055507001c35fedd14b861eb0443f7f133fffffff600160626080811062001614577f4e487b7100000000000000000000000000000000000000000000000000000000600052603260045260246000fd5b01819055507001b0ce43b322bcde4a56e8ada5afffffff600160636080811062001667577f4e487b7100000000000000000000000000000000000000000000000000000000600052603260045260246000fd5b018190555070019f0028ec1fff007f5a195a39dfffffff6001606460808110620016ba577f4e487b7100000000000000000000000000000000000000000000000000000000600052603260045260246000fd5b018190555070018ded91f0e72ee74f49b15ba527ffffff60016065608081106200170d577f4e487b7100000000000000000000000000000000000000000000000000000000600052603260045260246000fd5b018190555070017d8ec7f04136f4e5615fd41a63ffffff600160666080811062001760577f4e487b7100000000000000000000000000000000000000000000000000000000600052603260045260246000fd5b018190555070016ddc6556cdb84bdc8d12d22e6fffffff6001606760808110620017b3577f4e487b7100000000000000000000000000000000000000000000000000000000600052603260045260246000fd5b018190555070015ecf52776a1155b5bd8395814f7fffff600160686080811062001806577f4e487b7100000000000000000000000000000000000000000000000000000000600052603260045260246000fd5b018190555070015060c256cb23b3b3cc3754cf40ffffff600160696080811062001859577f4e487b7100000000000000000000000000000000000000000000000000000000600052603260045260246000fd5b01819055507001428a2f98d728ae223ddab715be3fffff6001606a60808110620018ac577f4e487b7100000000000000000000000000000000000000000000000000000000600052603260045260246000fd5b018190555070013545598e5c23276ccf0ede68034fffff6001606b60808110620018ff577f4e487b7100000000000000000000000000000000000000000000000000000000600052603260045260246000fd5b01819055507001288c4161ce1d6f54b7f61081194fffff6001606c6080811062001952577f4e487b7100000000000000000000000000000000000000000000000000000000600052603260045260246000fd5b018190555070011c592761c666aa641d5a01a40f17ffff6001606d60808110620019a5577f4e487b7100000000000000000000000000000000000000000000000000000000600052603260045260246000fd5b0181905550700110a688680a7530515f3e6e6cfdcdffff6001606e60808110620019f8577f4e487b7100000000000000000000000000000000000000000000000000000000600052603260045260246000fd5b01819055507001056f1b5bedf75c6bcb2ce8aed428ffff6001606f6080811062001a4b577f4e487b7100000000000000000000000000000000000000000000000000000000600052603260045260246000fd5b01819055506ffaadceceeff8a0890f3875f008277fff600160706080811062001a9d577f4e487b7100000000000000000000000000000000000000000000000000000000600052603260045260246000fd5b01819055506ff05dc6b27edad306388a600f6ba0bfff600160716080811062001aef577f4e487b7100000000000000000000000000000000000000000000000000000000600052603260045260246000fd5b01819055506fe67a5a25da41063de1495d5b18cdbfff600160726080811062001b41577f4e487b7100000000000000000000000000000000000000000000000000000000600052603260045260246000fd5b01819055506fdcff115b14eedde6fc3aa5353f2e4fff600160736080811062001b93577f4e487b7100000000000000000000000000000000000000000000000000000000600052603260045260246000fd5b01819055506fd3e7a3924312399f9aae2e0f868f8fff600160746080811062001be5577f4e487b7100000000000000000000000000000000000000000000000000000000600052603260045260246000fd5b01819055506fcb2ff529eb71e41582cccd5a1ee26fff600160756080811062001c37577f4e487b7100000000000000000000000000000000000000000000000000000000600052603260045260246000fd5b01819055506fc2d415c3db974ab32a51840c0b67edff600160766080811062001c89577f4e487b7100000000000000000000000000000000000000000000000000000000600052603260045260246000fd5b01819055506fbad03e7d883f69ad5b0a186184e06bff600160776080811062001cdb577f4e487b7100000000000000000000000000000000000000000000000000000000600052603260045260246000fd5b01819055506fb320d03b2c343d4829abd6075f0cc5ff600160786080811062001d2d577f4e487b7100000000000000000000000000000000000000000000000000000000600052603260045260246000fd5b01819055506fabc25204e02828d73c6e80bcdb1a95bf600160796080811062001d7f577f4e487b7100000000000000000000000000000000000000000000000000000000600052603260045260246000fd5b01819055506fa4b16f74ee4bb2040a1ec6c15fbbf2df6001607a6080811062001dd1577f4e487b7100000000000000000000000000000000000000000000000000000000600052603260045260246000fd5b01819055506f9deaf736ac1f569deb1b5ae3f36c130f6001607b6080811062001e23577f4e487b7100000000000000000000000000000000000000000000000000000000600052603260045260246000fd5b01819055506f976bd9952c7aa957f5937d790ef650376001607c6080811062001e75577f4e487b7100000000000000000000000000000000000000000000000000000000600052603260045260246000fd5b01819055506f9131271922eaa6064b73a22d0bd4f2bf6001607d6080811062001ec7577f4e487b7100000000000000000000000000000000000000000000000000000000600052603260045260246000fd5b01819055506f8b380f3558668c46c91c49a2f8e967b96001607e6080811062001f19577f4e487b7100000000000000000000000000000000000000000000000000000000600052603260045260246000fd5b01819055506f857ddf0117efa215952912839f6473e66001607f6080811062001f6b577f4e487b7100000000000000000000000000000000000000000000000000000000600052603260045260246000fd5b0181905550620f4240608160006101000a81548163ffffffff021916908363ffffffff160217905550620020af565b82805462001fa8906200204a565b90600052602060002090601f01602090048101928262001fcc576000855562002018565b82601f1062001fe757805160ff191683800117855562002018565b8280016001018555821562002018579182015b828111156200201757825182559160200191906001019062001ffa565b5b5090506200202791906200202b565b5090565b5b80821115620020465760008160009055506001016200202c565b5090565b600060028204905060018216806200206357607f821691505b602082108114156200207a576200207962002080565b5b50919050565b7f4e487b7100000000000000000000000000000000000000000000000000000000600052602260045260246000fd5b61254580620020bf6000396000f3fe608060405234801561001057600080fd5b506004361061004c5760003560e01c806329a00e7c1461005157806349f9b0f71461008157806354fd4d50146100b1578063e4a28a52146100cf575b600080fd5b61006b6004803603810190610066919061201d565b6100ed565b6040516100789190612159565b60405180910390f35b61009b6004803603810190610096919061201d565b61021f565b6040516100a89190612159565b60405180910390f35b6100b9610385565b6040516100c69190612117565b60405180910390f35b6100d7610413565b6040516100e49190612174565b60405180910390f35b600080851180156100fe5750600084115b8015610110575060008363ffffffff16115b801561013a5750608160009054906101000a900463ffffffff1663ffffffff168363ffffffff1611155b61014357600080fd5b60008214156101555760009050610217565b608160009054906101000a900463ffffffff1663ffffffff168363ffffffff1614156101a7576101a084610192848861042990919063ffffffff16565b61043f90919063ffffffff16565b9050610217565b60008060006101bf878661045590919063ffffffff16565b90506101df818888608160009054906101000a900463ffffffff1661046b565b809350819450505060008260ff16610200858b61042990919063ffffffff16565b901c9050888161021091906122f4565b9450505050505b949350505050565b600080851180156102305750600084115b8015610242575060008363ffffffff16115b801561026c5750608160009054906101000a900463ffffffff1663ffffffff168363ffffffff1611155b80156102785750848211155b61028157600080fd5b6000821415610293576000905061037d565b848214156102a35783905061037d565b608160009054906101000a900463ffffffff1663ffffffff168363ffffffff1614156102f5576102ee856102e0848761042990919063ffffffff16565b61043f90919063ffffffff16565b905061037d565b6000806000848861030691906122f4565b90506103268882608160009054906101000a900463ffffffff168961046b565b80935081945050506000610343848961042990919063ffffffff16565b905060008360ff1689901b90506103758561036783856105ec90919063ffffffff16565b61043f90919063ffffffff16565b955050505050505b949350505050565b60008054610392906123e0565b80601f01602080910402602001604051908101604052809291908181526020018280546103be906123e0565b801561040b5780601f106103e05761010080835404028352916020019161040b565b820191906000526020600020905b8154815290600101906020018083116103ee57829003601f168201915b505050505081565b608160009054906101000a900463ffffffff1681565b60008183610437919061229a565b905092915050565b6000818361044d9190612238565b905092915050565b6000818361046391906121ab565b905092915050565b60008070020000000000000000000000000000000086106104b5577f4e487b7100000000000000000000000000000000000000000000000000000000600052600160045260246000fd5b848610156104f8576040517f08c379a00000000000000000000000000000000000000000000000000000000081526004016104ef90612139565b60405180910390fd5b600080866f8000000000000000000000000000000089610518919061229a565b6105229190612238565b905070015bf0a8b1457695355fb8ac404e7a79e381101561054d5761054681610602565b9150610559565b61055681610d7b565b91505b60008563ffffffff168763ffffffff1684610574919061229a565b61057e9190612238565b90507008000000000000000000000000000000008110156105b0576105a281610edb565b607f945094505050506105e3565b60006105bb826116df565b90506105d981607f6105cd9190612328565b60ff1683901c82611859565b8195509550505050505b94509492505050565b600081836105fa91906122f4565b905092915050565b6000806000905060008060006fd3094c70f034de4b96ff7d5b6f99fcd8861061067d576f400000000000000000000000000000008461064191906121ab565b93506fd3094c70f034de4b96ff7d5b6f99fcd86f8000000000000000000000000000000087610670919061229a565b61067a9190612238565b95505b6fa45af1e1f40c333b3de1db4dd55f29a786106106ec576f20000000000000000000000000000000846106b091906121ab565b93506fa45af1e1f40c333b3de1db4dd55f29a76f80000000000000000000000000000000876106df919061229a565b6106e99190612238565b95505b6f910b022db7ae67ce76b441c27035c6a1861061075b576f100000000000000000000000000000008461071f91906121ab565b93506f910b022db7ae67ce76b441c27035c6a16f800000000000000000000000000000008761074e919061229a565b6107589190612238565b95505b6f88415abbe9a76bead8d00cf112e4d4a886106107ca576f080000000000000000000000000000008461078e91906121ab565b93506f88415abbe9a76bead8d00cf112e4d4a86f80000000000000000000000000000000876107bd919061229a565b6107c79190612238565b95505b6f84102b00893f64c705e841d5d4064bd38610610839576f04000000000000000000000000000000846107fd91906121ab565b93506f84102b00893f64c705e841d5d4064bd36f800000000000000000000000000000008761082c919061229a565b6108369190612238565b95505b6f8204055aaef1c8bd5c3259f4822735a286106108a8576f020000000000000000000000000000008461086c91906121ab565b93506f8204055aaef1c8bd5c3259f4822735a26f800000000000000000000000000000008761089b919061229a565b6108a59190612238565b95505b6f810100ab00222d861931c15e39b44e998610610917576f01000000000000000000000000000000846108db91906121ab565b93506f810100ab00222d861931c15e39b44e996f800000000000000000000000000000008761090a919061229a565b6109149190612238565b95505b6f808040155aabbbe9451521693554f7338610610985576e8000000000000000000000000000008461094991906121ab565b93506f808040155aabbbe9451521693554f7336f8000000000000000000000000000000087610978919061229a565b6109829190612238565b95505b6f80000000000000000000000000000000866109a191906122f4565b92508291506f8000000000000000000000000000000083846109c3919061229a565b6109cd9190612238565b9050700100000000000000000000000000000000837001000000000000000000000000000000006109fe91906122f4565b83610a09919061229a565b610a139190612238565b84610a1e91906121ab565b93506f800000000000000000000000000000008183610a3d919061229a565b610a479190612238565b9150700200000000000000000000000000000000836faaaaaaaaaaaaaaaaaaaaaaaaaaaaaaaa610a7791906122f4565b83610a82919061229a565b610a8c9190612238565b84610a9791906121ab565b93506f800000000000000000000000000000008183610ab6919061229a565b610ac09190612238565b9150700300000000000000000000000000000000836f99999999999999999999999999999999610af091906122f4565b83610afb919061229a565b610b059190612238565b84610b1091906121ab565b93506f800000000000000000000000000000008183610b2f919061229a565b610b399190612238565b9150700400000000000000000000000000000000836f92492492492492492492492492492492610b6991906122f4565b83610b74919061229a565b610b7e9190612238565b84610b8991906121ab565b93506f800000000000000000000000000000008183610ba8919061229a565b610bb29190612238565b9150700500000000000000000000000000000000836f8e38e38e38e38e38e38e38e38e38e38e610be291906122f4565b83610bed919061229a565b610bf79190612238565b84610c0291906121ab565b93506f800000000000000000000000000000008183610c21919061229a565b610c2b9190612238565b9150700600000000000000000000000000000000836f8ba2e8ba2e8ba2e8ba2e8ba2e8ba2e8b610c5b91906122f4565b83610c66919061229a565b610c709190612238565b84610c7b91906121ab565b93506f800000000000000000000000000000008183610c9a919061229a565b610ca49190612238565b9150700700000000000000000000000000000000836f89d89d89d89d89d89d89d89d89d89d89610cd491906122f4565b83610cdf919061229a565b610ce99190612238565b84610cf491906121ab565b93506f800000000000000000000000000000008183610d13919061229a565b610d1d9190612238565b9150700800000000000000000000000000000000836f88888888888888888888888888888888610d4d91906122f4565b83610d58919061229a565b610d629190612238565b84610d6d91906121ab565b935083945050505050919050565b6000806000905060008390507001000000000000000000000000000000008110610df3576000610dc56f8000000000000000000000000000000083610dc09190612238565b611f68565b90508060ff1682901c91506f800000000000000000000000000000008160ff16610def919061229a565b9250505b6f80000000000000000000000000000000811115610e9b576000607f90505b60008160ff161115610e99576f800000000000000000000000000000008283610e3b919061229a565b610e459190612238565b91507001000000000000000000000000000000008210610e8857600182901c9150600181610e739190612328565b60ff166001901b83610e8591906121ab565b92505b80610e92906123b6565b9050610e12565b505b6f05b9de1d10bf4103d647b0955897ba806f03f80fe03f80fe03f80fe03f80fe03f883610ec8919061229a565b610ed29190612238565b92505050919050565b600080600090506000806f1000000000000000000000000000000085610f019190612412565b91508190506f800000000000000000000000000000008282610f23919061229a565b610f2d9190612238565b90506710e1b3be415a000081610f43919061229a565b83610f4e91906121ab565b92506f800000000000000000000000000000008282610f6d919061229a565b610f779190612238565b90506705a0913f6b1e000081610f8d919061229a565b83610f9891906121ab565b92506f800000000000000000000000000000008282610fb7919061229a565b610fc19190612238565b9050670168244fdac7800081610fd7919061229a565b83610fe291906121ab565b92506f800000000000000000000000000000008282611001919061229a565b61100b9190612238565b9050664807432bc1800081611020919061229a565b8361102b91906121ab565b92506f80000000000000000000000000000000828261104a919061229a565b6110549190612238565b9050660c0135dca0400081611069919061229a565b8361107491906121ab565b92506f800000000000000000000000000000008282611093919061229a565b61109d9190612238565b90506601b707b1cdc000816110b2919061229a565b836110bd91906121ab565b92506f8000000000000000000000000000000082826110dc919061229a565b6110e69190612238565b90506536e0f639b800816110fa919061229a565b8361110591906121ab565b92506f800000000000000000000000000000008282611124919061229a565b61112e9190612238565b9050650618fee9f80081611142919061229a565b8361114d91906121ab565b92506f80000000000000000000000000000000828261116c919061229a565b6111769190612238565b9050649c197dcc0081611189919061229a565b8361119491906121ab565b92506f8000000000000000000000000000000082826111b3919061229a565b6111bd9190612238565b9050640e30dce400816111d0919061229a565b836111db91906121ab565b92506f8000000000000000000000000000000082826111fa919061229a565b6112049190612238565b905064012ebd130081611217919061229a565b8361122291906121ab565b92506f800000000000000000000000000000008282611241919061229a565b61124b9190612238565b90506317499f008161125d919061229a565b8361126891906121ab565b92506f800000000000000000000000000000008282611287919061229a565b6112919190612238565b90506301a9d480816112a3919061229a565b836112ae91906121ab565b92506f8000000000000000000000000000000082826112cd919061229a565b6112d79190612238565b9050621c6380816112e8919061229a565b836112f391906121ab565b92506f800000000000000000000000000000008282611312919061229a565b61131c9190612238565b90506201c6388161132d919061229a565b8361133891906121ab565b92506f800000000000000000000000000000008282611357919061229a565b6113619190612238565b9050611ab881611371919061229a565b8361137c91906121ab565b92506f80000000000000000000000000000000828261139b919061229a565b6113a59190612238565b905061017c816113b5919061229a565b836113c091906121ab565b92506f8000000000000000000000000000000082826113df919061229a565b6113e99190612238565b90506014816113f8919061229a565b8361140391906121ab565b92506f800000000000000000000000000000008282611422919061229a565b61142c9190612238565b905060018161143b919061229a565b8361144691906121ab565b92506f80000000000000000000000000000000826721c3677c82b400008561146e9190612238565b61147891906121ab565b61148291906121ab565b925060006f100000000000000000000000000000008616146114da5770018ebef9eac820ae8682b9793ac6d1e7767001c3d6a24ed82218787d624d3e5eba95f9846114cd919061229a565b6114d79190612238565b92505b60006f20000000000000000000000000000000861614611530577001368b2fc6f9609fe7aceb46aa619baed470018ebef9eac820ae8682b9793ac6d1e77884611523919061229a565b61152d9190612238565b92505b60006f40000000000000000000000000000000861614611585576fbc5ab1b16779be3575bd8f0520a9f21f7001368b2fc6f9609fe7aceb46aa619baed584611578919061229a565b6115829190612238565b92505b60006f800000000000000000000000000000008616146115d9576f454aaa8efe072e7f6ddbab84b40a55c96fbc5ab1b16779be3575bd8f0520a9f21e846115cc919061229a565b6115d69190612238565b92505b600070010000000000000000000000000000000086161461162e576f0960aadc109e7a3bf4578099615711ea6f454aaa8efe072e7f6ddbab84b40a55c584611621919061229a565b61162b9190612238565b92505b6000700200000000000000000000000000000000861614611682576e2bf84208204f5977f9a8cf01fdce3d6f0960aadc109e7a3bf4578099615711d784611675919061229a565b61167f9190612238565b92505b60007004000000000000000000000000000000008616146116d4576d03c6ab775dd0b95b4cbee7e65d116e2bf84208204f5977f9a8cf01fdc307846116c7919061229a565b6116d19190612238565b92505b829350505050919050565b600080602090506000607f90505b8060ff166001836116fe9190612201565b60ff16101561177a576000600282846117179190612201565b6117219190612269565b90508460018260ff1660808110611761577f4e487b7100000000000000000000000000000000000000000000000000000000600052603260045260246000fd5b01541061177057809250611774565b8091505b506116ed565b8360018260ff16608081106117b8577f4e487b7100000000000000000000000000000000000000000000000000000000600052603260045260246000fd5b0154106117c9578092505050611854565b8360018360ff1660808110611807577f4e487b7100000000000000000000000000000000000000000000000000000000600052603260045260246000fd5b015410611818578192505050611854565b600061184d577f4e487b7100000000000000000000000000000000000000000000000000000000600052600160045260246000fd5b6000925050505b919050565b60008083905060008360ff168583611871919061229a565b901c91506f03442c4e6074a82f1797f72ac000000082611891919061229a565b8161189c91906121ab565b90508360ff1685836118ae919061229a565b901c91506f0116b96f757c380fb287fd0e40000000826118ce919061229a565b816118d991906121ab565b90508360ff1685836118eb919061229a565b901c91506e45ae5bdd5f0e03eca1ff43900000008261190a919061229a565b8161191591906121ab565b90508360ff168583611927919061229a565b901c91506e0defabf91302cd95b9ffda5000000082611946919061229a565b8161195191906121ab565b90508360ff168583611963919061229a565b901c91506e02529ca9832b22439efff9b800000082611982919061229a565b8161198d91906121ab565b90508360ff16858361199f919061229a565b901c91506d54f1cf12bd04e516b6da88000000826119bd919061229a565b816119c891906121ab565b90508360ff1685836119da919061229a565b901c91506d0a9e39e257a09ca2d6db51000000826119f8919061229a565b81611a0391906121ab565b90508360ff168583611a15919061229a565b901c91506d012e066e7b839fa050c30900000082611a33919061229a565b81611a3e91906121ab565b90508360ff168583611a50919061229a565b901c91506c1e33d7d926c329a1ad1a80000082611a6d919061229a565b81611a7891906121ab565b90508360ff168583611a8a919061229a565b901c91506c02bee513bdb4a6b19b5f80000082611aa7919061229a565b81611ab291906121ab565b90508360ff168583611ac4919061229a565b901c91506b3a9316fa79b88eccf2a0000082611ae0919061229a565b81611aeb91906121ab565b90508360ff168583611afd919061229a565b901c91506b048177ebe1fa81237520000082611b19919061229a565b81611b2491906121ab565b90508360ff168583611b36919061229a565b901c91506a5263fe90242dcbacf0000082611b51919061229a565b81611b5c91906121ab565b90508360ff168583611b6e919061229a565b901c91506a057e22099c030d9410000082611b89919061229a565b81611b9491906121ab565b90508360ff168583611ba6919061229a565b901c91506957e22099c030d941000082611bc0919061229a565b81611bcb91906121ab565b90508360ff168583611bdd919061229a565b901c915069052b6b5456997631000082611bf7919061229a565b81611c0291906121ab565b90508360ff168583611c14919061229a565b901c9150684985f67696bf74800082611c2d919061229a565b81611c3891906121ab565b90508360ff168583611c4a919061229a565b901c91506803dea12ea99e49800082611c63919061229a565b81611c6e91906121ab565b90508360ff168583611c80919061229a565b901c91506731880f2214b6e00082611c98919061229a565b81611ca391906121ab565b90508360ff168583611cb5919061229a565b901c915067025bcff56eb3600082611ccd919061229a565b81611cd891906121ab565b90508360ff168583611cea919061229a565b901c9150661b722e10ab100082611d01919061229a565b81611d0c91906121ab565b90508360ff168583611d1e919061229a565b901c91506601317c7007700082611d35919061229a565b81611d4091906121ab565b90508360ff168583611d52919061229a565b901c9150650cba84aafa0082611d68919061229a565b81611d7391906121ab565b90508360ff168583611d85919061229a565b901c91506482573a0a0082611d9a919061229a565b81611da591906121ab565b90508360ff168583611db7919061229a565b901c91506405035ad90082611dcc919061229a565b81611dd791906121ab565b90508360ff168583611de9919061229a565b901c9150632f881b0082611dfd919061229a565b81611e0891906121ab565b90508360ff168583611e1a919061229a565b901c91506301b2934082611e2e919061229a565b81611e3991906121ab565b90508360ff168583611e4b919061229a565b901c9150620efc4082611e5e919061229a565b81611e6991906121ab565b90508360ff168583611e7b919061229a565b901c9150617fe082611e8d919061229a565b81611e9891906121ab565b90508360ff168583611eaa919061229a565b901c915061042082611ebc919061229a565b81611ec791906121ab565b90508360ff168583611ed9919061229a565b901c9150602182611eea919061229a565b81611ef591906121ab565b90508360ff168583611f07919061229a565b901c9150600182611f18919061229a565b81611f2391906121ab565b90508360ff166001901b856f0688589cc0e9505e2f2fee558000000083611f4a9190612238565b611f5491906121ab565b611f5e91906121ab565b9250505092915050565b600080600090506000839050610100811015611fa8575b6001811115611fa357600181901c9050600182611f9c9190612201565b9150611f7f565b611fe9565b6000608090505b60008160ff161115611fe7578060ff166001901b8210611fd8578060ff1682901c915080831792505b60018160ff16901c9050611faf565b505b8192505050919050565b600081359050612002816124e1565b92915050565b600081359050612017816124f8565b92915050565b6000806000806080858703121561203357600080fd5b600061204187828801611ff3565b945050602061205287828801611ff3565b935050604061206387828801612008565b925050606061207487828801611ff3565b91505092959194509250565b600061208b8261218f565b612095818561219a565b93506120a5818560208601612383565b6120ae816124d0565b840191505092915050565b60006120c6601c8361219a565b91507f4261736573203c203120617265206e6f7420737570706f727465642e000000006000830152602082019050919050565b6121028161235c565b82525050565b61211181612366565b82525050565b600060208201905081810360008301526121318184612080565b905092915050565b60006020820190508181036000830152612152816120b9565b9050919050565b600060208201905061216e60008301846120f9565b92915050565b60006020820190506121896000830184612108565b92915050565b600081519050919050565b600082825260208201905092915050565b60006121b68261235c565b91506121c18361235c565b9250827fffffffffffffffffffffffffffffffffffffffffffffffffffffffffffffffff038211156121f6576121f5612443565b5b828201905092915050565b600061220c82612376565b915061221783612376565b92508260ff0382111561222d5761222c612443565b5b828201905092915050565b60006122438261235c565b915061224e8361235c565b92508261225e5761225d612472565b5b828204905092915050565b600061227482612376565b915061227f83612376565b92508261228f5761228e612472565b5b828204905092915050565b60006122a58261235c565b91506122b08361235c565b9250817fffffffffffffffffffffffffffffffffffffffffffffffffffffffffffffffff04831182151516156122e9576122e8612443565b5b828202905092915050565b60006122ff8261235c565b915061230a8361235c565b92508282101561231d5761231c612443565b5b828203905092915050565b600061233382612376565b915061233e83612376565b92508282101561235157612350612443565b5b828203905092915050565b6000819050919050565b600063ffffffff82169050919050565b600060ff82169050919050565b60005b838110156123a1578082015181840152602081019050612386565b838111156123b0576000848401525b50505050565b60006123c182612376565b915060008214156123d5576123d4612443565b5b600182039050919050565b600060028204905060018216806123f857607f821691505b6020821081141561240c5761240b6124a1565b5b50919050565b600061241d8261235c565b91506124288361235c565b92508261243857612437612472565b5b828206905092915050565b7f4e487b7100000000000000000000000000000000000000000000000000000000600052601160045260246000fd5b7f4e487b7100000000000000000000000000000000000000000000000000000000600052601260045260246000fd5b7f4e487b7100000000000000000000000000000000000000000000000000000000600052602260045260246000fd5b6000601f19601f8301169050919050565b6124ea8161235c565b81146124f557600080fd5b50565b61250181612366565b811461250c57600080fd5b5056fea264697066735822122061c99d1bd210980966304dc3a7e9b477f5f8cde73b828994362f99dd574193e864736f6c63430008000033",
          "opcodes": "PUSH1 0x80 PUSH1 0x40 MSTORE PUSH1 0x40 MLOAD DUP1 PUSH1 0x40 ADD PUSH1 0x40 MSTORE DUP1 PUSH1 0x3 DUP2 MSTORE PUSH1 0x20 ADD PUSH32 0x302E330000000000000000000000000000000000000000000000000000000000 DUP2 MSTORE POP PUSH1 0x0 SWAP1 DUP1 MLOAD SWAP1 PUSH1 0x20 ADD SWAP1 PUSH3 0x51 SWAP3 SWAP2 SWAP1 PUSH3 0x1F9A JUMP JUMPDEST POP CALLVALUE DUP1 ISZERO PUSH3 0x5F JUMPI PUSH1 0x0 DUP1 REVERT JUMPDEST POP PUSH17 0x1C35FEDD14FFFFFFFFFFFFFFFFFFFFFFFF PUSH1 0x1 PUSH1 0x20 PUSH1 0x80 DUP2 LT PUSH3 0xAE JUMPI PUSH32 0x4E487B7100000000000000000000000000000000000000000000000000000000 PUSH1 0x0 MSTORE PUSH1 0x32 PUSH1 0x4 MSTORE PUSH1 0x24 PUSH1 0x0 REVERT JUMPDEST ADD DUP2 SWAP1 SSTORE POP PUSH17 0x1B0CE43B323FFFFFFFFFFFFFFFFFFFFFFF PUSH1 0x1 PUSH1 0x21 PUSH1 0x80 DUP2 LT PUSH3 0x101 JUMPI PUSH32 0x4E487B7100000000000000000000000000000000000000000000000000000000 PUSH1 0x0 MSTORE PUSH1 0x32 PUSH1 0x4 MSTORE PUSH1 0x24 PUSH1 0x0 REVERT JUMPDEST ADD DUP2 SWAP1 SSTORE POP PUSH17 0x19F0028EC1FFFFFFFFFFFFFFFFFFFFFFFF PUSH1 0x1 PUSH1 0x22 PUSH1 0x80 DUP2 LT PUSH3 0x154 JUMPI PUSH32 0x4E487B7100000000000000000000000000000000000000000000000000000000 PUSH1 0x0 MSTORE PUSH1 0x32 PUSH1 0x4 MSTORE PUSH1 0x24 PUSH1 0x0 REVERT JUMPDEST ADD DUP2 SWAP1 SSTORE POP PUSH17 0x18DED91F0E7FFFFFFFFFFFFFFFFFFFFFFF PUSH1 0x1 PUSH1 0x23 PUSH1 0x80 DUP2 LT PUSH3 0x1A7 JUMPI PUSH32 0x4E487B7100000000000000000000000000000000000000000000000000000000 PUSH1 0x0 MSTORE PUSH1 0x32 PUSH1 0x4 MSTORE PUSH1 0x24 PUSH1 0x0 REVERT JUMPDEST ADD DUP2 SWAP1 SSTORE POP PUSH17 0x17D8EC7F0417FFFFFFFFFFFFFFFFFFFFFF PUSH1 0x1 PUSH1 0x24 PUSH1 0x80 DUP2 LT PUSH3 0x1FA JUMPI PUSH32 0x4E487B7100000000000000000000000000000000000000000000000000000000 PUSH1 0x0 MSTORE PUSH1 0x32 PUSH1 0x4 MSTORE PUSH1 0x24 PUSH1 0x0 REVERT JUMPDEST ADD DUP2 SWAP1 SSTORE POP PUSH17 0x16DDC6556CDBFFFFFFFFFFFFFFFFFFFFFF PUSH1 0x1 PUSH1 0x25 PUSH1 0x80 DUP2 LT PUSH3 0x24D JUMPI PUSH32 0x4E487B7100000000000000000000000000000000000000000000000000000000 PUSH1 0x0 MSTORE PUSH1 0x32 PUSH1 0x4 MSTORE PUSH1 0x24 PUSH1 0x0 REVERT JUMPDEST ADD DUP2 SWAP1 SSTORE POP PUSH17 0x15ECF52776A1FFFFFFFFFFFFFFFFFFFFFF PUSH1 0x1 PUSH1 0x26 PUSH1 0x80 DUP2 LT PUSH3 0x2A0 JUMPI PUSH32 0x4E487B7100000000000000000000000000000000000000000000000000000000 PUSH1 0x0 MSTORE PUSH1 0x32 PUSH1 0x4 MSTORE PUSH1 0x24 PUSH1 0x0 REVERT JUMPDEST ADD DUP2 SWAP1 SSTORE POP PUSH17 0x15060C256CB2FFFFFFFFFFFFFFFFFFFFFF PUSH1 0x1 PUSH1 0x27 PUSH1 0x80 DUP2 LT PUSH3 0x2F3 JUMPI PUSH32 0x4E487B7100000000000000000000000000000000000000000000000000000000 PUSH1 0x0 MSTORE PUSH1 0x32 PUSH1 0x4 MSTORE PUSH1 0x24 PUSH1 0x0 REVERT JUMPDEST ADD DUP2 SWAP1 SSTORE POP PUSH17 0x1428A2F98D72FFFFFFFFFFFFFFFFFFFFFF PUSH1 0x1 PUSH1 0x28 PUSH1 0x80 DUP2 LT PUSH3 0x346 JUMPI PUSH32 0x4E487B7100000000000000000000000000000000000000000000000000000000 PUSH1 0x0 MSTORE PUSH1 0x32 PUSH1 0x4 MSTORE PUSH1 0x24 PUSH1 0x0 REVERT JUMPDEST ADD DUP2 SWAP1 SSTORE POP PUSH17 0x13545598E5C23FFFFFFFFFFFFFFFFFFFFF PUSH1 0x1 PUSH1 0x29 PUSH1 0x80 DUP2 LT PUSH3 0x399 JUMPI PUSH32 0x4E487B7100000000000000000000000000000000000000000000000000000000 PUSH1 0x0 MSTORE PUSH1 0x32 PUSH1 0x4 MSTORE PUSH1 0x24 PUSH1 0x0 REVERT JUMPDEST ADD DUP2 SWAP1 SSTORE POP PUSH17 0x1288C4161CE1DFFFFFFFFFFFFFFFFFFFFF PUSH1 0x1 PUSH1 0x2A PUSH1 0x80 DUP2 LT PUSH3 0x3EC JUMPI PUSH32 0x4E487B7100000000000000000000000000000000000000000000000000000000 PUSH1 0x0 MSTORE PUSH1 0x32 PUSH1 0x4 MSTORE PUSH1 0x24 PUSH1 0x0 REVERT JUMPDEST ADD DUP2 SWAP1 SSTORE POP PUSH17 0x11C592761C666FFFFFFFFFFFFFFFFFFFFF PUSH1 0x1 PUSH1 0x2B PUSH1 0x80 DUP2 LT PUSH3 0x43F JUMPI PUSH32 0x4E487B7100000000000000000000000000000000000000000000000000000000 PUSH1 0x0 MSTORE PUSH1 0x32 PUSH1 0x4 MSTORE PUSH1 0x24 PUSH1 0x0 REVERT JUMPDEST ADD DUP2 SWAP1 SSTORE POP PUSH17 0x110A688680A757FFFFFFFFFFFFFFFFFFFF PUSH1 0x1 PUSH1 0x2C PUSH1 0x80 DUP2 LT PUSH3 0x492 JUMPI PUSH32 0x4E487B7100000000000000000000000000000000000000000000000000000000 PUSH1 0x0 MSTORE PUSH1 0x32 PUSH1 0x4 MSTORE PUSH1 0x24 PUSH1 0x0 REVERT JUMPDEST ADD DUP2 SWAP1 SSTORE POP PUSH17 0x1056F1B5BEDF77FFFFFFFFFFFFFFFFFFFF PUSH1 0x1 PUSH1 0x2D PUSH1 0x80 DUP2 LT PUSH3 0x4E5 JUMPI PUSH32 0x4E487B7100000000000000000000000000000000000000000000000000000000 PUSH1 0x0 MSTORE PUSH1 0x32 PUSH1 0x4 MSTORE PUSH1 0x24 PUSH1 0x0 REVERT JUMPDEST ADD DUP2 SWAP1 SSTORE POP PUSH17 0xFAADCECEEFF8BFFFFFFFFFFFFFFFFFFFF PUSH1 0x1 PUSH1 0x2E PUSH1 0x80 DUP2 LT PUSH3 0x538 JUMPI PUSH32 0x4E487B7100000000000000000000000000000000000000000000000000000000 PUSH1 0x0 MSTORE PUSH1 0x32 PUSH1 0x4 MSTORE PUSH1 0x24 PUSH1 0x0 REVERT JUMPDEST ADD DUP2 SWAP1 SSTORE POP PUSH17 0xF05DC6B27EDADFFFFFFFFFFFFFFFFFFFF PUSH1 0x1 PUSH1 0x2F PUSH1 0x80 DUP2 LT PUSH3 0x58B JUMPI PUSH32 0x4E487B7100000000000000000000000000000000000000000000000000000000 PUSH1 0x0 MSTORE PUSH1 0x32 PUSH1 0x4 MSTORE PUSH1 0x24 PUSH1 0x0 REVERT JUMPDEST ADD DUP2 SWAP1 SSTORE POP PUSH17 0xE67A5A25DA4107FFFFFFFFFFFFFFFFFFF PUSH1 0x1 PUSH1 0x30 PUSH1 0x80 DUP2 LT PUSH3 0x5DE JUMPI PUSH32 0x4E487B7100000000000000000000000000000000000000000000000000000000 PUSH1 0x0 MSTORE PUSH1 0x32 PUSH1 0x4 MSTORE PUSH1 0x24 PUSH1 0x0 REVERT JUMPDEST ADD DUP2 SWAP1 SSTORE POP PUSH17 0xDCFF115B14EEDFFFFFFFFFFFFFFFFFFFF PUSH1 0x1 PUSH1 0x31 PUSH1 0x80 DUP2 LT PUSH3 0x631 JUMPI PUSH32 0x4E487B7100000000000000000000000000000000000000000000000000000000 PUSH1 0x0 MSTORE PUSH1 0x32 PUSH1 0x4 MSTORE PUSH1 0x24 PUSH1 0x0 REVERT JUMPDEST ADD DUP2 SWAP1 SSTORE POP PUSH17 0xD3E7A392431239FFFFFFFFFFFFFFFFFFF PUSH1 0x1 PUSH1 0x32 PUSH1 0x80 DUP2 LT PUSH3 0x684 JUMPI PUSH32 0x4E487B7100000000000000000000000000000000000000000000000000000000 PUSH1 0x0 MSTORE PUSH1 0x32 PUSH1 0x4 MSTORE PUSH1 0x24 PUSH1 0x0 REVERT JUMPDEST ADD DUP2 SWAP1 SSTORE POP PUSH17 0xCB2FF529EB71E4FFFFFFFFFFFFFFFFFFF PUSH1 0x1 PUSH1 0x33 PUSH1 0x80 DUP2 LT PUSH3 0x6D7 JUMPI PUSH32 0x4E487B7100000000000000000000000000000000000000000000000000000000 PUSH1 0x0 MSTORE PUSH1 0x32 PUSH1 0x4 MSTORE PUSH1 0x24 PUSH1 0x0 REVERT JUMPDEST ADD DUP2 SWAP1 SSTORE POP PUSH17 0xC2D415C3DB974AFFFFFFFFFFFFFFFFFFF PUSH1 0x1 PUSH1 0x34 PUSH1 0x80 DUP2 LT PUSH3 0x72A JUMPI PUSH32 0x4E487B7100000000000000000000000000000000000000000000000000000000 PUSH1 0x0 MSTORE PUSH1 0x32 PUSH1 0x4 MSTORE PUSH1 0x24 PUSH1 0x0 REVERT JUMPDEST ADD DUP2 SWAP1 SSTORE POP PUSH17 0xBAD03E7D883F69BFFFFFFFFFFFFFFFFFF PUSH1 0x1 PUSH1 0x35 PUSH1 0x80 DUP2 LT PUSH3 0x77D JUMPI PUSH32 0x4E487B7100000000000000000000000000000000000000000000000000000000 PUSH1 0x0 MSTORE PUSH1 0x32 PUSH1 0x4 MSTORE PUSH1 0x24 PUSH1 0x0 REVERT JUMPDEST ADD DUP2 SWAP1 SSTORE POP PUSH17 0xB320D03B2C343D5FFFFFFFFFFFFFFFFFF PUSH1 0x1 PUSH1 0x36 PUSH1 0x80 DUP2 LT PUSH3 0x7D0 JUMPI PUSH32 0x4E487B7100000000000000000000000000000000000000000000000000000000 PUSH1 0x0 MSTORE PUSH1 0x32 PUSH1 0x4 MSTORE PUSH1 0x24 PUSH1 0x0 REVERT JUMPDEST ADD DUP2 SWAP1 SSTORE POP PUSH17 0xABC25204E02828DFFFFFFFFFFFFFFFFFF PUSH1 0x1 PUSH1 0x37 PUSH1 0x80 DUP2 LT PUSH3 0x823 JUMPI PUSH32 0x4E487B7100000000000000000000000000000000000000000000000000000000 PUSH1 0x0 MSTORE PUSH1 0x32 PUSH1 0x4 MSTORE PUSH1 0x24 PUSH1 0x0 REVERT JUMPDEST ADD DUP2 SWAP1 SSTORE POP PUSH17 0xA4B16F74EE4BB207FFFFFFFFFFFFFFFFF PUSH1 0x1 PUSH1 0x38 PUSH1 0x80 DUP2 LT PUSH3 0x876 JUMPI PUSH32 0x4E487B7100000000000000000000000000000000000000000000000000000000 PUSH1 0x0 MSTORE PUSH1 0x32 PUSH1 0x4 MSTORE PUSH1 0x24 PUSH1 0x0 REVERT JUMPDEST ADD DUP2 SWAP1 SSTORE POP PUSH17 0x9DEAF736AC1F569FFFFFFFFFFFFFFFFFF PUSH1 0x1 PUSH1 0x39 PUSH1 0x80 DUP2 LT PUSH3 0x8C9 JUMPI PUSH32 0x4E487B7100000000000000000000000000000000000000000000000000000000 PUSH1 0x0 MSTORE PUSH1 0x32 PUSH1 0x4 MSTORE PUSH1 0x24 PUSH1 0x0 REVERT JUMPDEST ADD DUP2 SWAP1 SSTORE POP PUSH17 0x976BD9952C7AA957FFFFFFFFFFFFFFFFF PUSH1 0x1 PUSH1 0x3A PUSH1 0x80 DUP2 LT PUSH3 0x91C JUMPI PUSH32 0x4E487B7100000000000000000000000000000000000000000000000000000000 PUSH1 0x0 MSTORE PUSH1 0x32 PUSH1 0x4 MSTORE PUSH1 0x24 PUSH1 0x0 REVERT JUMPDEST ADD DUP2 SWAP1 SSTORE POP PUSH17 0x9131271922EAA606FFFFFFFFFFFFFFFFF PUSH1 0x1 PUSH1 0x3B PUSH1 0x80 DUP2 LT PUSH3 0x96F JUMPI PUSH32 0x4E487B7100000000000000000000000000000000000000000000000000000000 PUSH1 0x0 MSTORE PUSH1 0x32 PUSH1 0x4 MSTORE PUSH1 0x24 PUSH1 0x0 REVERT JUMPDEST ADD DUP2 SWAP1 SSTORE POP PUSH17 0x8B380F3558668C46FFFFFFFFFFFFFFFFF PUSH1 0x1 PUSH1 0x3C PUSH1 0x80 DUP2 LT PUSH3 0x9C2 JUMPI PUSH32 0x4E487B7100000000000000000000000000000000000000000000000000000000 PUSH1 0x0 MSTORE PUSH1 0x32 PUSH1 0x4 MSTORE PUSH1 0x24 PUSH1 0x0 REVERT JUMPDEST ADD DUP2 SWAP1 SSTORE POP PUSH17 0x857DDF0117EFA215BFFFFFFFFFFFFFFFF PUSH1 0x1 PUSH1 0x3D PUSH1 0x80 DUP2 LT PUSH3 0xA15 JUMPI PUSH32 0x4E487B7100000000000000000000000000000000000000000000000000000000 PUSH1 0x0 MSTORE PUSH1 0x32 PUSH1 0x4 MSTORE PUSH1 0x24 PUSH1 0x0 REVERT JUMPDEST ADD DUP2 SWAP1 SSTORE POP PUSH17 0x7FFFFFFFFFFFFFFFFFFFFFFFFFFFFFFFF PUSH1 0x1 PUSH1 0x3E PUSH1 0x80 DUP2 LT PUSH3 0xA68 JUMPI PUSH32 0x4E487B7100000000000000000000000000000000000000000000000000000000 PUSH1 0x0 MSTORE PUSH1 0x32 PUSH1 0x4 MSTORE PUSH1 0x24 PUSH1 0x0 REVERT JUMPDEST ADD DUP2 SWAP1 SSTORE POP PUSH17 0x7ABBF6F6ABB9D087FFFFFFFFFFFFFFFFF PUSH1 0x1 PUSH1 0x3F PUSH1 0x80 DUP2 LT PUSH3 0xABB JUMPI PUSH32 0x4E487B7100000000000000000000000000000000000000000000000000000000 PUSH1 0x0 MSTORE PUSH1 0x32 PUSH1 0x4 MSTORE PUSH1 0x24 PUSH1 0x0 REVERT JUMPDEST ADD DUP2 SWAP1 SSTORE POP PUSH17 0x75AF62CBAC95F7DFA7FFFFFFFFFFFFFFF PUSH1 0x1 PUSH1 0x40 PUSH1 0x80 DUP2 LT PUSH3 0xB0E JUMPI PUSH32 0x4E487B7100000000000000000000000000000000000000000000000000000000 PUSH1 0x0 MSTORE PUSH1 0x32 PUSH1 0x4 MSTORE PUSH1 0x24 PUSH1 0x0 REVERT JUMPDEST ADD DUP2 SWAP1 SSTORE POP PUSH17 0x70D7FB7452E187AC13FFFFFFFFFFFFFFF PUSH1 0x1 PUSH1 0x41 PUSH1 0x80 DUP2 LT PUSH3 0xB61 JUMPI PUSH32 0x4E487B7100000000000000000000000000000000000000000000000000000000 PUSH1 0x0 MSTORE PUSH1 0x32 PUSH1 0x4 MSTORE PUSH1 0x24 PUSH1 0x0 REVERT JUMPDEST ADD DUP2 SWAP1 SSTORE POP PUSH17 0x6C3390ECC8AF379295FFFFFFFFFFFFFFF PUSH1 0x1 PUSH1 0x42 PUSH1 0x80 DUP2 LT PUSH3 0xBB4 JUMPI PUSH32 0x4E487B7100000000000000000000000000000000000000000000000000000000 PUSH1 0x0 MSTORE PUSH1 0x32 PUSH1 0x4 MSTORE PUSH1 0x24 PUSH1 0x0 REVERT JUMPDEST ADD DUP2 SWAP1 SSTORE POP PUSH17 0x67C00A3B07FFC01FD6FFFFFFFFFFFFFFF PUSH1 0x1 PUSH1 0x43 PUSH1 0x80 DUP2 LT PUSH3 0xC07 JUMPI PUSH32 0x4E487B7100000000000000000000000000000000000000000000000000000000 PUSH1 0x0 MSTORE PUSH1 0x32 PUSH1 0x4 MSTORE PUSH1 0x24 PUSH1 0x0 REVERT JUMPDEST ADD DUP2 SWAP1 SSTORE POP PUSH17 0x637B647C39CBB9D3D27FFFFFFFFFFFFFF PUSH1 0x1 PUSH1 0x44 PUSH1 0x80 DUP2 LT PUSH3 0xC5A JUMPI PUSH32 0x4E487B7100000000000000000000000000000000000000000000000000000000 PUSH1 0x0 MSTORE PUSH1 0x32 PUSH1 0x4 MSTORE PUSH1 0x24 PUSH1 0x0 REVERT JUMPDEST ADD DUP2 SWAP1 SSTORE POP PUSH17 0x5F63B1FC104DBD39587FFFFFFFFFFFFFF PUSH1 0x1 PUSH1 0x45 PUSH1 0x80 DUP2 LT PUSH3 0xCAD JUMPI PUSH32 0x4E487B7100000000000000000000000000000000000000000000000000000000 PUSH1 0x0 MSTORE PUSH1 0x32 PUSH1 0x4 MSTORE PUSH1 0x24 PUSH1 0x0 REVERT JUMPDEST ADD DUP2 SWAP1 SSTORE POP PUSH17 0x5B771955B36E12F7235FFFFFFFFFFFFFF PUSH1 0x1 PUSH1 0x46 PUSH1 0x80 DUP2 LT PUSH3 0xD00 JUMPI PUSH32 0x4E487B7100000000000000000000000000000000000000000000000000000000 PUSH1 0x0 MSTORE PUSH1 0x32 PUSH1 0x4 MSTORE PUSH1 0x24 PUSH1 0x0 REVERT JUMPDEST ADD DUP2 SWAP1 SSTORE POP PUSH17 0x57B3D49DDA84556D6F6FFFFFFFFFFFFFF PUSH1 0x1 PUSH1 0x47 PUSH1 0x80 DUP2 LT PUSH3 0xD53 JUMPI PUSH32 0x4E487B7100000000000000000000000000000000000000000000000000000000 PUSH1 0x0 MSTORE PUSH1 0x32 PUSH1 0x4 MSTORE PUSH1 0x24 PUSH1 0x0 REVERT JUMPDEST ADD DUP2 SWAP1 SSTORE POP PUSH17 0x54183095B2C8ECECF30FFFFFFFFFFFFFF PUSH1 0x1 PUSH1 0x48 PUSH1 0x80 DUP2 LT PUSH3 0xDA6 JUMPI PUSH32 0x4E487B7100000000000000000000000000000000000000000000000000000000 PUSH1 0x0 MSTORE PUSH1 0x32 PUSH1 0x4 MSTORE PUSH1 0x24 PUSH1 0x0 REVERT JUMPDEST ADD DUP2 SWAP1 SSTORE POP PUSH17 0x50A28BE635CA2B888F77FFFFFFFFFFFFF PUSH1 0x1 PUSH1 0x49 PUSH1 0x80 DUP2 LT PUSH3 0xDF9 JUMPI PUSH32 0x4E487B7100000000000000000000000000000000000000000000000000000000 PUSH1 0x0 MSTORE PUSH1 0x32 PUSH1 0x4 MSTORE PUSH1 0x24 PUSH1 0x0 REVERT JUMPDEST ADD DUP2 SWAP1 SSTORE POP PUSH17 0x4D5156639708C9DB33C3FFFFFFFFFFFFF PUSH1 0x1 PUSH1 0x4A PUSH1 0x80 DUP2 LT PUSH3 0xE4C JUMPI PUSH32 0x4E487B7100000000000000000000000000000000000000000000000000000000 PUSH1 0x0 MSTORE PUSH1 0x32 PUSH1 0x4 MSTORE PUSH1 0x24 PUSH1 0x0 REVERT JUMPDEST ADD DUP2 SWAP1 SSTORE POP PUSH17 0x4A23105873875BD52DFDFFFFFFFFFFFFF PUSH1 0x1 PUSH1 0x4B PUSH1 0x80 DUP2 LT PUSH3 0xE9F JUMPI PUSH32 0x4E487B7100000000000000000000000000000000000000000000000000000000 PUSH1 0x0 MSTORE PUSH1 0x32 PUSH1 0x4 MSTORE PUSH1 0x24 PUSH1 0x0 REVERT JUMPDEST ADD DUP2 SWAP1 SSTORE POP PUSH17 0x471649D87199AA990756FFFFFFFFFFFFF PUSH1 0x1 PUSH1 0x4C PUSH1 0x80 DUP2 LT PUSH3 0xEF2 JUMPI PUSH32 0x4E487B7100000000000000000000000000000000000000000000000000000000 PUSH1 0x0 MSTORE PUSH1 0x32 PUSH1 0x4 MSTORE PUSH1 0x24 PUSH1 0x0 REVERT JUMPDEST ADD DUP2 SWAP1 SSTORE POP PUSH17 0x4429A21A029D4C1457CFBFFFFFFFFFFFF PUSH1 0x1 PUSH1 0x4D PUSH1 0x80 DUP2 LT PUSH3 0xF45 JUMPI PUSH32 0x4E487B7100000000000000000000000000000000000000000000000000000000 PUSH1 0x0 MSTORE PUSH1 0x32 PUSH1 0x4 MSTORE PUSH1 0x24 PUSH1 0x0 REVERT JUMPDEST ADD DUP2 SWAP1 SSTORE POP PUSH17 0x415BC6D6FB7DD71AF2CB3FFFFFFFFFFFF PUSH1 0x1 PUSH1 0x4E PUSH1 0x80 DUP2 LT PUSH3 0xF98 JUMPI PUSH32 0x4E487B7100000000000000000000000000000000000000000000000000000000 PUSH1 0x0 MSTORE PUSH1 0x32 PUSH1 0x4 MSTORE PUSH1 0x24 PUSH1 0x0 REVERT JUMPDEST ADD DUP2 SWAP1 SSTORE POP PUSH17 0x3EAB73B3BBFE282243CE1FFFFFFFFFFFF PUSH1 0x1 PUSH1 0x4F PUSH1 0x80 DUP2 LT PUSH3 0xFEB JUMPI PUSH32 0x4E487B7100000000000000000000000000000000000000000000000000000000 PUSH1 0x0 MSTORE PUSH1 0x32 PUSH1 0x4 MSTORE PUSH1 0x24 PUSH1 0x0 REVERT JUMPDEST ADD DUP2 SWAP1 SSTORE POP PUSH17 0x3C1771AC9FB6B4C18E229FFFFFFFFFFFF PUSH1 0x1 PUSH1 0x50 PUSH1 0x80 DUP2 LT PUSH3 0x103E JUMPI PUSH32 0x4E487B7100000000000000000000000000000000000000000000000000000000 PUSH1 0x0 MSTORE PUSH1 0x32 PUSH1 0x4 MSTORE PUSH1 0x24 PUSH1 0x0 REVERT JUMPDEST ADD DUP2 SWAP1 SSTORE POP PUSH17 0x399E96897690418F785257FFFFFFFFFFF PUSH1 0x1 PUSH1 0x51 PUSH1 0x80 DUP2 LT PUSH3 0x1091 JUMPI PUSH32 0x4E487B7100000000000000000000000000000000000000000000000000000000 PUSH1 0x0 MSTORE PUSH1 0x32 PUSH1 0x4 MSTORE PUSH1 0x24 PUSH1 0x0 REVERT JUMPDEST ADD DUP2 SWAP1 SSTORE POP PUSH17 0x373FC456C53BB779BF0EA9FFFFFFFFFFF PUSH1 0x1 PUSH1 0x52 PUSH1 0x80 DUP2 LT PUSH3 0x10E4 JUMPI PUSH32 0x4E487B7100000000000000000000000000000000000000000000000000000000 PUSH1 0x0 MSTORE PUSH1 0x32 PUSH1 0x4 MSTORE PUSH1 0x24 PUSH1 0x0 REVERT JUMPDEST ADD DUP2 SWAP1 SSTORE POP PUSH17 0x34F9E8E490C48E67E6AB8BFFFFFFFFFFF PUSH1 0x1 PUSH1 0x53 PUSH1 0x80 DUP2 LT PUSH3 0x1137 JUMPI PUSH32 0x4E487B7100000000000000000000000000000000000000000000000000000000 PUSH1 0x0 MSTORE PUSH1 0x32 PUSH1 0x4 MSTORE PUSH1 0x24 PUSH1 0x0 REVERT JUMPDEST ADD DUP2 SWAP1 SSTORE POP PUSH17 0x32CBFD4A7ADC790560B3337FFFFFFFFFF PUSH1 0x1 PUSH1 0x54 PUSH1 0x80 DUP2 LT PUSH3 0x118A JUMPI PUSH32 0x4E487B7100000000000000000000000000000000000000000000000000000000 PUSH1 0x0 MSTORE PUSH1 0x32 PUSH1 0x4 MSTORE PUSH1 0x24 PUSH1 0x0 REVERT JUMPDEST ADD DUP2 SWAP1 SSTORE POP PUSH17 0x30B50570F6E5D2ACCA94613FFFFFFFFFF PUSH1 0x1 PUSH1 0x55 PUSH1 0x80 DUP2 LT PUSH3 0x11DD JUMPI PUSH32 0x4E487B7100000000000000000000000000000000000000000000000000000000 PUSH1 0x0 MSTORE PUSH1 0x32 PUSH1 0x4 MSTORE PUSH1 0x24 PUSH1 0x0 REVERT JUMPDEST ADD DUP2 SWAP1 SSTORE POP PUSH17 0x2EB40F9F620FDA6B56C2861FFFFFFFFFF PUSH1 0x1 PUSH1 0x56 PUSH1 0x80 DUP2 LT PUSH3 0x1230 JUMPI PUSH32 0x4E487B7100000000000000000000000000000000000000000000000000000000 PUSH1 0x0 MSTORE PUSH1 0x32 PUSH1 0x4 MSTORE PUSH1 0x24 PUSH1 0x0 REVERT JUMPDEST ADD DUP2 SWAP1 SSTORE POP PUSH17 0x2CC8340ECB0D0F520A6AF58FFFFFFFFFF PUSH1 0x1 PUSH1 0x57 PUSH1 0x80 DUP2 LT PUSH3 0x1283 JUMPI PUSH32 0x4E487B7100000000000000000000000000000000000000000000000000000000 PUSH1 0x0 MSTORE PUSH1 0x32 PUSH1 0x4 MSTORE PUSH1 0x24 PUSH1 0x0 REVERT JUMPDEST ADD DUP2 SWAP1 SSTORE POP PUSH17 0x2AF09481380A0A35CF1BA02FFFFFFFFFF PUSH1 0x1 PUSH1 0x58 PUSH1 0x80 DUP2 LT PUSH3 0x12D6 JUMPI PUSH32 0x4E487B7100000000000000000000000000000000000000000000000000000000 PUSH1 0x0 MSTORE PUSH1 0x32 PUSH1 0x4 MSTORE PUSH1 0x24 PUSH1 0x0 REVERT JUMPDEST ADD DUP2 SWAP1 SSTORE POP PUSH17 0x292C5BDD3B92EC810287B1B3FFFFFFFFF PUSH1 0x1 PUSH1 0x59 PUSH1 0x80 DUP2 LT PUSH3 0x1329 JUMPI PUSH32 0x4E487B7100000000000000000000000000000000000000000000000000000000 PUSH1 0x0 MSTORE PUSH1 0x32 PUSH1 0x4 MSTORE PUSH1 0x24 PUSH1 0x0 REVERT JUMPDEST ADD DUP2 SWAP1 SSTORE POP PUSH17 0x277ABDCDAB07D5A77AC6D6B9FFFFFFFFF PUSH1 0x1 PUSH1 0x5A PUSH1 0x80 DUP2 LT PUSH3 0x137C JUMPI PUSH32 0x4E487B7100000000000000000000000000000000000000000000000000000000 PUSH1 0x0 MSTORE PUSH1 0x32 PUSH1 0x4 MSTORE PUSH1 0x24 PUSH1 0x0 REVERT JUMPDEST ADD DUP2 SWAP1 SSTORE POP PUSH17 0x25DAF6654B1EAA55FD64DF5EFFFFFFFFF PUSH1 0x1 PUSH1 0x5B PUSH1 0x80 DUP2 LT PUSH3 0x13CF JUMPI PUSH32 0x4E487B7100000000000000000000000000000000000000000000000000000000 PUSH1 0x0 MSTORE PUSH1 0x32 PUSH1 0x4 MSTORE PUSH1 0x24 PUSH1 0x0 REVERT JUMPDEST ADD DUP2 SWAP1 SSTORE POP PUSH17 0x244C49C648BAA98192DCE88B7FFFFFFFF PUSH1 0x1 PUSH1 0x5C PUSH1 0x80 DUP2 LT PUSH3 0x1422 JUMPI PUSH32 0x4E487B7100000000000000000000000000000000000000000000000000000000 PUSH1 0x0 MSTORE PUSH1 0x32 PUSH1 0x4 MSTORE PUSH1 0x24 PUSH1 0x0 REVERT JUMPDEST ADD DUP2 SWAP1 SSTORE POP PUSH17 0x22CE03CD5619A311B2471268BFFFFFFFF PUSH1 0x1 PUSH1 0x5D PUSH1 0x80 DUP2 LT PUSH3 0x1475 JUMPI PUSH32 0x4E487B7100000000000000000000000000000000000000000000000000000000 PUSH1 0x0 MSTORE PUSH1 0x32 PUSH1 0x4 MSTORE PUSH1 0x24 PUSH1 0x0 REVERT JUMPDEST ADD DUP2 SWAP1 SSTORE POP PUSH17 0x215F77C045FBE885654A44A0FFFFFFFFF PUSH1 0x1 PUSH1 0x5E PUSH1 0x80 DUP2 LT PUSH3 0x14C8 JUMPI PUSH32 0x4E487B7100000000000000000000000000000000000000000000000000000000 PUSH1 0x0 MSTORE PUSH1 0x32 PUSH1 0x4 MSTORE PUSH1 0x24 PUSH1 0x0 REVERT JUMPDEST ADD DUP2 SWAP1 SSTORE POP PUSH17 0x1FFFFFFFFFFFFFFFFFFFFFFFFFFFFFFFF PUSH1 0x1 PUSH1 0x5F PUSH1 0x80 DUP2 LT PUSH3 0x151B JUMPI PUSH32 0x4E487B7100000000000000000000000000000000000000000000000000000000 PUSH1 0x0 MSTORE PUSH1 0x32 PUSH1 0x4 MSTORE PUSH1 0x24 PUSH1 0x0 REVERT JUMPDEST ADD DUP2 SWAP1 SSTORE POP PUSH17 0x1EAEFDBDAAEE7421FC4D3EDE5FFFFFFFF PUSH1 0x1 PUSH1 0x60 PUSH1 0x80 DUP2 LT PUSH3 0x156E JUMPI PUSH32 0x4E487B7100000000000000000000000000000000000000000000000000000000 PUSH1 0x0 MSTORE PUSH1 0x32 PUSH1 0x4 MSTORE PUSH1 0x24 PUSH1 0x0 REVERT JUMPDEST ADD DUP2 SWAP1 SSTORE POP PUSH17 0x1D6BD8B2EB257DF7E8CA57B09BFFFFFFF PUSH1 0x1 PUSH1 0x61 PUSH1 0x80 DUP2 LT PUSH3 0x15C1 JUMPI PUSH32 0x4E487B7100000000000000000000000000000000000000000000000000000000 PUSH1 0x0 MSTORE PUSH1 0x32 PUSH1 0x4 MSTORE PUSH1 0x24 PUSH1 0x0 REVERT JUMPDEST ADD DUP2 SWAP1 SSTORE POP PUSH17 0x1C35FEDD14B861EB0443F7F133FFFFFFF PUSH1 0x1 PUSH1 0x62 PUSH1 0x80 DUP2 LT PUSH3 0x1614 JUMPI PUSH32 0x4E487B7100000000000000000000000000000000000000000000000000000000 PUSH1 0x0 MSTORE PUSH1 0x32 PUSH1 0x4 MSTORE PUSH1 0x24 PUSH1 0x0 REVERT JUMPDEST ADD DUP2 SWAP1 SSTORE POP PUSH17 0x1B0CE43B322BCDE4A56E8ADA5AFFFFFFF PUSH1 0x1 PUSH1 0x63 PUSH1 0x80 DUP2 LT PUSH3 0x1667 JUMPI PUSH32 0x4E487B7100000000000000000000000000000000000000000000000000000000 PUSH1 0x0 MSTORE PUSH1 0x32 PUSH1 0x4 MSTORE PUSH1 0x24 PUSH1 0x0 REVERT JUMPDEST ADD DUP2 SWAP1 SSTORE POP PUSH17 0x19F0028EC1FFF007F5A195A39DFFFFFFF PUSH1 0x1 PUSH1 0x64 PUSH1 0x80 DUP2 LT PUSH3 0x16BA JUMPI PUSH32 0x4E487B7100000000000000000000000000000000000000000000000000000000 PUSH1 0x0 MSTORE PUSH1 0x32 PUSH1 0x4 MSTORE PUSH1 0x24 PUSH1 0x0 REVERT JUMPDEST ADD DUP2 SWAP1 SSTORE POP PUSH17 0x18DED91F0E72EE74F49B15BA527FFFFFF PUSH1 0x1 PUSH1 0x65 PUSH1 0x80 DUP2 LT PUSH3 0x170D JUMPI PUSH32 0x4E487B7100000000000000000000000000000000000000000000000000000000 PUSH1 0x0 MSTORE PUSH1 0x32 PUSH1 0x4 MSTORE PUSH1 0x24 PUSH1 0x0 REVERT JUMPDEST ADD DUP2 SWAP1 SSTORE POP PUSH17 0x17D8EC7F04136F4E5615FD41A63FFFFFF PUSH1 0x1 PUSH1 0x66 PUSH1 0x80 DUP2 LT PUSH3 0x1760 JUMPI PUSH32 0x4E487B7100000000000000000000000000000000000000000000000000000000 PUSH1 0x0 MSTORE PUSH1 0x32 PUSH1 0x4 MSTORE PUSH1 0x24 PUSH1 0x0 REVERT JUMPDEST ADD DUP2 SWAP1 SSTORE POP PUSH17 0x16DDC6556CDB84BDC8D12D22E6FFFFFFF PUSH1 0x1 PUSH1 0x67 PUSH1 0x80 DUP2 LT PUSH3 0x17B3 JUMPI PUSH32 0x4E487B7100000000000000000000000000000000000000000000000000000000 PUSH1 0x0 MSTORE PUSH1 0x32 PUSH1 0x4 MSTORE PUSH1 0x24 PUSH1 0x0 REVERT JUMPDEST ADD DUP2 SWAP1 SSTORE POP PUSH17 0x15ECF52776A1155B5BD8395814F7FFFFF PUSH1 0x1 PUSH1 0x68 PUSH1 0x80 DUP2 LT PUSH3 0x1806 JUMPI PUSH32 0x4E487B7100000000000000000000000000000000000000000000000000000000 PUSH1 0x0 MSTORE PUSH1 0x32 PUSH1 0x4 MSTORE PUSH1 0x24 PUSH1 0x0 REVERT JUMPDEST ADD DUP2 SWAP1 SSTORE POP PUSH17 0x15060C256CB23B3B3CC3754CF40FFFFFF PUSH1 0x1 PUSH1 0x69 PUSH1 0x80 DUP2 LT PUSH3 0x1859 JUMPI PUSH32 0x4E487B7100000000000000000000000000000000000000000000000000000000 PUSH1 0x0 MSTORE PUSH1 0x32 PUSH1 0x4 MSTORE PUSH1 0x24 PUSH1 0x0 REVERT JUMPDEST ADD DUP2 SWAP1 SSTORE POP PUSH17 0x1428A2F98D728AE223DDAB715BE3FFFFF PUSH1 0x1 PUSH1 0x6A PUSH1 0x80 DUP2 LT PUSH3 0x18AC JUMPI PUSH32 0x4E487B7100000000000000000000000000000000000000000000000000000000 PUSH1 0x0 MSTORE PUSH1 0x32 PUSH1 0x4 MSTORE PUSH1 0x24 PUSH1 0x0 REVERT JUMPDEST ADD DUP2 SWAP1 SSTORE POP PUSH17 0x13545598E5C23276CCF0EDE68034FFFFF PUSH1 0x1 PUSH1 0x6B PUSH1 0x80 DUP2 LT PUSH3 0x18FF JUMPI PUSH32 0x4E487B7100000000000000000000000000000000000000000000000000000000 PUSH1 0x0 MSTORE PUSH1 0x32 PUSH1 0x4 MSTORE PUSH1 0x24 PUSH1 0x0 REVERT JUMPDEST ADD DUP2 SWAP1 SSTORE POP PUSH17 0x1288C4161CE1D6F54B7F61081194FFFFF PUSH1 0x1 PUSH1 0x6C PUSH1 0x80 DUP2 LT PUSH3 0x1952 JUMPI PUSH32 0x4E487B7100000000000000000000000000000000000000000000000000000000 PUSH1 0x0 MSTORE PUSH1 0x32 PUSH1 0x4 MSTORE PUSH1 0x24 PUSH1 0x0 REVERT JUMPDEST ADD DUP2 SWAP1 SSTORE POP PUSH17 0x11C592761C666AA641D5A01A40F17FFFF PUSH1 0x1 PUSH1 0x6D PUSH1 0x80 DUP2 LT PUSH3 0x19A5 JUMPI PUSH32 0x4E487B7100000000000000000000000000000000000000000000000000000000 PUSH1 0x0 MSTORE PUSH1 0x32 PUSH1 0x4 MSTORE PUSH1 0x24 PUSH1 0x0 REVERT JUMPDEST ADD DUP2 SWAP1 SSTORE POP PUSH17 0x110A688680A7530515F3E6E6CFDCDFFFF PUSH1 0x1 PUSH1 0x6E PUSH1 0x80 DUP2 LT PUSH3 0x19F8 JUMPI PUSH32 0x4E487B7100000000000000000000000000000000000000000000000000000000 PUSH1 0x0 MSTORE PUSH1 0x32 PUSH1 0x4 MSTORE PUSH1 0x24 PUSH1 0x0 REVERT JUMPDEST ADD DUP2 SWAP1 SSTORE POP PUSH17 0x1056F1B5BEDF75C6BCB2CE8AED428FFFF PUSH1 0x1 PUSH1 0x6F PUSH1 0x80 DUP2 LT PUSH3 0x1A4B JUMPI PUSH32 0x4E487B7100000000000000000000000000000000000000000000000000000000 PUSH1 0x0 MSTORE PUSH1 0x32 PUSH1 0x4 MSTORE PUSH1 0x24 PUSH1 0x0 REVERT JUMPDEST ADD DUP2 SWAP1 SSTORE POP PUSH16 0xFAADCECEEFF8A0890F3875F008277FFF PUSH1 0x1 PUSH1 0x70 PUSH1 0x80 DUP2 LT PUSH3 0x1A9D JUMPI PUSH32 0x4E487B7100000000000000000000000000000000000000000000000000000000 PUSH1 0x0 MSTORE PUSH1 0x32 PUSH1 0x4 MSTORE PUSH1 0x24 PUSH1 0x0 REVERT JUMPDEST ADD DUP2 SWAP1 SSTORE POP PUSH16 0xF05DC6B27EDAD306388A600F6BA0BFFF PUSH1 0x1 PUSH1 0x71 PUSH1 0x80 DUP2 LT PUSH3 0x1AEF JUMPI PUSH32 0x4E487B7100000000000000000000000000000000000000000000000000000000 PUSH1 0x0 MSTORE PUSH1 0x32 PUSH1 0x4 MSTORE PUSH1 0x24 PUSH1 0x0 REVERT JUMPDEST ADD DUP2 SWAP1 SSTORE POP PUSH16 0xE67A5A25DA41063DE1495D5B18CDBFFF PUSH1 0x1 PUSH1 0x72 PUSH1 0x80 DUP2 LT PUSH3 0x1B41 JUMPI PUSH32 0x4E487B7100000000000000000000000000000000000000000000000000000000 PUSH1 0x0 MSTORE PUSH1 0x32 PUSH1 0x4 MSTORE PUSH1 0x24 PUSH1 0x0 REVERT JUMPDEST ADD DUP2 SWAP1 SSTORE POP PUSH16 0xDCFF115B14EEDDE6FC3AA5353F2E4FFF PUSH1 0x1 PUSH1 0x73 PUSH1 0x80 DUP2 LT PUSH3 0x1B93 JUMPI PUSH32 0x4E487B7100000000000000000000000000000000000000000000000000000000 PUSH1 0x0 MSTORE PUSH1 0x32 PUSH1 0x4 MSTORE PUSH1 0x24 PUSH1 0x0 REVERT JUMPDEST ADD DUP2 SWAP1 SSTORE POP PUSH16 0xD3E7A3924312399F9AAE2E0F868F8FFF PUSH1 0x1 PUSH1 0x74 PUSH1 0x80 DUP2 LT PUSH3 0x1BE5 JUMPI PUSH32 0x4E487B7100000000000000000000000000000000000000000000000000000000 PUSH1 0x0 MSTORE PUSH1 0x32 PUSH1 0x4 MSTORE PUSH1 0x24 PUSH1 0x0 REVERT JUMPDEST ADD DUP2 SWAP1 SSTORE POP PUSH16 0xCB2FF529EB71E41582CCCD5A1EE26FFF PUSH1 0x1 PUSH1 0x75 PUSH1 0x80 DUP2 LT PUSH3 0x1C37 JUMPI PUSH32 0x4E487B7100000000000000000000000000000000000000000000000000000000 PUSH1 0x0 MSTORE PUSH1 0x32 PUSH1 0x4 MSTORE PUSH1 0x24 PUSH1 0x0 REVERT JUMPDEST ADD DUP2 SWAP1 SSTORE POP PUSH16 0xC2D415C3DB974AB32A51840C0B67EDFF PUSH1 0x1 PUSH1 0x76 PUSH1 0x80 DUP2 LT PUSH3 0x1C89 JUMPI PUSH32 0x4E487B7100000000000000000000000000000000000000000000000000000000 PUSH1 0x0 MSTORE PUSH1 0x32 PUSH1 0x4 MSTORE PUSH1 0x24 PUSH1 0x0 REVERT JUMPDEST ADD DUP2 SWAP1 SSTORE POP PUSH16 0xBAD03E7D883F69AD5B0A186184E06BFF PUSH1 0x1 PUSH1 0x77 PUSH1 0x80 DUP2 LT PUSH3 0x1CDB JUMPI PUSH32 0x4E487B7100000000000000000000000000000000000000000000000000000000 PUSH1 0x0 MSTORE PUSH1 0x32 PUSH1 0x4 MSTORE PUSH1 0x24 PUSH1 0x0 REVERT JUMPDEST ADD DUP2 SWAP1 SSTORE POP PUSH16 0xB320D03B2C343D4829ABD6075F0CC5FF PUSH1 0x1 PUSH1 0x78 PUSH1 0x80 DUP2 LT PUSH3 0x1D2D JUMPI PUSH32 0x4E487B7100000000000000000000000000000000000000000000000000000000 PUSH1 0x0 MSTORE PUSH1 0x32 PUSH1 0x4 MSTORE PUSH1 0x24 PUSH1 0x0 REVERT JUMPDEST ADD DUP2 SWAP1 SSTORE POP PUSH16 0xABC25204E02828D73C6E80BCDB1A95BF PUSH1 0x1 PUSH1 0x79 PUSH1 0x80 DUP2 LT PUSH3 0x1D7F JUMPI PUSH32 0x4E487B7100000000000000000000000000000000000000000000000000000000 PUSH1 0x0 MSTORE PUSH1 0x32 PUSH1 0x4 MSTORE PUSH1 0x24 PUSH1 0x0 REVERT JUMPDEST ADD DUP2 SWAP1 SSTORE POP PUSH16 0xA4B16F74EE4BB2040A1EC6C15FBBF2DF PUSH1 0x1 PUSH1 0x7A PUSH1 0x80 DUP2 LT PUSH3 0x1DD1 JUMPI PUSH32 0x4E487B7100000000000000000000000000000000000000000000000000000000 PUSH1 0x0 MSTORE PUSH1 0x32 PUSH1 0x4 MSTORE PUSH1 0x24 PUSH1 0x0 REVERT JUMPDEST ADD DUP2 SWAP1 SSTORE POP PUSH16 0x9DEAF736AC1F569DEB1B5AE3F36C130F PUSH1 0x1 PUSH1 0x7B PUSH1 0x80 DUP2 LT PUSH3 0x1E23 JUMPI PUSH32 0x4E487B7100000000000000000000000000000000000000000000000000000000 PUSH1 0x0 MSTORE PUSH1 0x32 PUSH1 0x4 MSTORE PUSH1 0x24 PUSH1 0x0 REVERT JUMPDEST ADD DUP2 SWAP1 SSTORE POP PUSH16 0x976BD9952C7AA957F5937D790EF65037 PUSH1 0x1 PUSH1 0x7C PUSH1 0x80 DUP2 LT PUSH3 0x1E75 JUMPI PUSH32 0x4E487B7100000000000000000000000000000000000000000000000000000000 PUSH1 0x0 MSTORE PUSH1 0x32 PUSH1 0x4 MSTORE PUSH1 0x24 PUSH1 0x0 REVERT JUMPDEST ADD DUP2 SWAP1 SSTORE POP PUSH16 0x9131271922EAA6064B73A22D0BD4F2BF PUSH1 0x1 PUSH1 0x7D PUSH1 0x80 DUP2 LT PUSH3 0x1EC7 JUMPI PUSH32 0x4E487B7100000000000000000000000000000000000000000000000000000000 PUSH1 0x0 MSTORE PUSH1 0x32 PUSH1 0x4 MSTORE PUSH1 0x24 PUSH1 0x0 REVERT JUMPDEST ADD DUP2 SWAP1 SSTORE POP PUSH16 0x8B380F3558668C46C91C49A2F8E967B9 PUSH1 0x1 PUSH1 0x7E PUSH1 0x80 DUP2 LT PUSH3 0x1F19 JUMPI PUSH32 0x4E487B7100000000000000000000000000000000000000000000000000000000 PUSH1 0x0 MSTORE PUSH1 0x32 PUSH1 0x4 MSTORE PUSH1 0x24 PUSH1 0x0 REVERT JUMPDEST ADD DUP2 SWAP1 SSTORE POP PUSH16 0x857DDF0117EFA215952912839F6473E6 PUSH1 0x1 PUSH1 0x7F PUSH1 0x80 DUP2 LT PUSH3 0x1F6B JUMPI PUSH32 0x4E487B7100000000000000000000000000000000000000000000000000000000 PUSH1 0x0 MSTORE PUSH1 0x32 PUSH1 0x4 MSTORE PUSH1 0x24 PUSH1 0x0 REVERT JUMPDEST ADD DUP2 SWAP1 SSTORE POP PUSH3 0xF4240 PUSH1 0x81 PUSH1 0x0 PUSH2 0x100 EXP DUP2 SLOAD DUP2 PUSH4 0xFFFFFFFF MUL NOT AND SWAP1 DUP4 PUSH4 0xFFFFFFFF AND MUL OR SWAP1 SSTORE POP PUSH3 0x20AF JUMP JUMPDEST DUP3 DUP1 SLOAD PUSH3 0x1FA8 SWAP1 PUSH3 0x204A JUMP JUMPDEST SWAP1 PUSH1 0x0 MSTORE PUSH1 0x20 PUSH1 0x0 KECCAK256 SWAP1 PUSH1 0x1F ADD PUSH1 0x20 SWAP1 DIV DUP2 ADD SWAP3 DUP3 PUSH3 0x1FCC JUMPI PUSH1 0x0 DUP6 SSTORE PUSH3 0x2018 JUMP JUMPDEST DUP3 PUSH1 0x1F LT PUSH3 0x1FE7 JUMPI DUP1 MLOAD PUSH1 0xFF NOT AND DUP4 DUP1 ADD OR DUP6 SSTORE PUSH3 0x2018 JUMP JUMPDEST DUP3 DUP1 ADD PUSH1 0x1 ADD DUP6 SSTORE DUP3 ISZERO PUSH3 0x2018 JUMPI SWAP2 DUP3 ADD JUMPDEST DUP3 DUP2 GT ISZERO PUSH3 0x2017 JUMPI DUP3 MLOAD DUP3 SSTORE SWAP2 PUSH1 0x20 ADD SWAP2 SWAP1 PUSH1 0x1 ADD SWAP1 PUSH3 0x1FFA JUMP JUMPDEST JUMPDEST POP SWAP1 POP PUSH3 0x2027 SWAP2 SWAP1 PUSH3 0x202B JUMP JUMPDEST POP SWAP1 JUMP JUMPDEST JUMPDEST DUP1 DUP3 GT ISZERO PUSH3 0x2046 JUMPI PUSH1 0x0 DUP2 PUSH1 0x0 SWAP1 SSTORE POP PUSH1 0x1 ADD PUSH3 0x202C JUMP JUMPDEST POP SWAP1 JUMP JUMPDEST PUSH1 0x0 PUSH1 0x2 DUP3 DIV SWAP1 POP PUSH1 0x1 DUP3 AND DUP1 PUSH3 0x2063 JUMPI PUSH1 0x7F DUP3 AND SWAP2 POP JUMPDEST PUSH1 0x20 DUP3 LT DUP2 EQ ISZERO PUSH3 0x207A JUMPI PUSH3 0x2079 PUSH3 0x2080 JUMP JUMPDEST JUMPDEST POP SWAP2 SWAP1 POP JUMP JUMPDEST PUSH32 0x4E487B7100000000000000000000000000000000000000000000000000000000 PUSH1 0x0 MSTORE PUSH1 0x22 PUSH1 0x4 MSTORE PUSH1 0x24 PUSH1 0x0 REVERT JUMPDEST PUSH2 0x2545 DUP1 PUSH3 0x20BF PUSH1 0x0 CODECOPY PUSH1 0x0 RETURN INVALID PUSH1 0x80 PUSH1 0x40 MSTORE CALLVALUE DUP1 ISZERO PUSH2 0x10 JUMPI PUSH1 0x0 DUP1 REVERT JUMPDEST POP PUSH1 0x4 CALLDATASIZE LT PUSH2 0x4C JUMPI PUSH1 0x0 CALLDATALOAD PUSH1 0xE0 SHR DUP1 PUSH4 0x29A00E7C EQ PUSH2 0x51 JUMPI DUP1 PUSH4 0x49F9B0F7 EQ PUSH2 0x81 JUMPI DUP1 PUSH4 0x54FD4D50 EQ PUSH2 0xB1 JUMPI DUP1 PUSH4 0xE4A28A52 EQ PUSH2 0xCF JUMPI JUMPDEST PUSH1 0x0 DUP1 REVERT JUMPDEST PUSH2 0x6B PUSH1 0x4 DUP1 CALLDATASIZE SUB DUP2 ADD SWAP1 PUSH2 0x66 SWAP2 SWAP1 PUSH2 0x201D JUMP JUMPDEST PUSH2 0xED JUMP JUMPDEST PUSH1 0x40 MLOAD PUSH2 0x78 SWAP2 SWAP1 PUSH2 0x2159 JUMP JUMPDEST PUSH1 0x40 MLOAD DUP1 SWAP2 SUB SWAP1 RETURN JUMPDEST PUSH2 0x9B PUSH1 0x4 DUP1 CALLDATASIZE SUB DUP2 ADD SWAP1 PUSH2 0x96 SWAP2 SWAP1 PUSH2 0x201D JUMP JUMPDEST PUSH2 0x21F JUMP JUMPDEST PUSH1 0x40 MLOAD PUSH2 0xA8 SWAP2 SWAP1 PUSH2 0x2159 JUMP JUMPDEST PUSH1 0x40 MLOAD DUP1 SWAP2 SUB SWAP1 RETURN JUMPDEST PUSH2 0xB9 PUSH2 0x385 JUMP JUMPDEST PUSH1 0x40 MLOAD PUSH2 0xC6 SWAP2 SWAP1 PUSH2 0x2117 JUMP JUMPDEST PUSH1 0x40 MLOAD DUP1 SWAP2 SUB SWAP1 RETURN JUMPDEST PUSH2 0xD7 PUSH2 0x413 JUMP JUMPDEST PUSH1 0x40 MLOAD PUSH2 0xE4 SWAP2 SWAP1 PUSH2 0x2174 JUMP JUMPDEST PUSH1 0x40 MLOAD DUP1 SWAP2 SUB SWAP1 RETURN JUMPDEST PUSH1 0x0 DUP1 DUP6 GT DUP1 ISZERO PUSH2 0xFE JUMPI POP PUSH1 0x0 DUP5 GT JUMPDEST DUP1 ISZERO PUSH2 0x110 JUMPI POP PUSH1 0x0 DUP4 PUSH4 0xFFFFFFFF AND GT JUMPDEST DUP1 ISZERO PUSH2 0x13A JUMPI POP PUSH1 0x81 PUSH1 0x0 SWAP1 SLOAD SWAP1 PUSH2 0x100 EXP SWAP1 DIV PUSH4 0xFFFFFFFF AND PUSH4 0xFFFFFFFF AND DUP4 PUSH4 0xFFFFFFFF AND GT ISZERO JUMPDEST PUSH2 0x143 JUMPI PUSH1 0x0 DUP1 REVERT JUMPDEST PUSH1 0x0 DUP3 EQ ISZERO PUSH2 0x155 JUMPI PUSH1 0x0 SWAP1 POP PUSH2 0x217 JUMP JUMPDEST PUSH1 0x81 PUSH1 0x0 SWAP1 SLOAD SWAP1 PUSH2 0x100 EXP SWAP1 DIV PUSH4 0xFFFFFFFF AND PUSH4 0xFFFFFFFF AND DUP4 PUSH4 0xFFFFFFFF AND EQ ISZERO PUSH2 0x1A7 JUMPI PUSH2 0x1A0 DUP5 PUSH2 0x192 DUP5 DUP9 PUSH2 0x429 SWAP1 SWAP2 SWAP1 PUSH4 0xFFFFFFFF AND JUMP JUMPDEST PUSH2 0x43F SWAP1 SWAP2 SWAP1 PUSH4 0xFFFFFFFF AND JUMP JUMPDEST SWAP1 POP PUSH2 0x217 JUMP JUMPDEST PUSH1 0x0 DUP1 PUSH1 0x0 PUSH2 0x1BF DUP8 DUP7 PUSH2 0x455 SWAP1 SWAP2 SWAP1 PUSH4 0xFFFFFFFF AND JUMP JUMPDEST SWAP1 POP PUSH2 0x1DF DUP2 DUP9 DUP9 PUSH1 0x81 PUSH1 0x0 SWAP1 SLOAD SWAP1 PUSH2 0x100 EXP SWAP1 DIV PUSH4 0xFFFFFFFF AND PUSH2 0x46B JUMP JUMPDEST DUP1 SWAP4 POP DUP2 SWAP5 POP POP POP PUSH1 0x0 DUP3 PUSH1 0xFF AND PUSH2 0x200 DUP6 DUP12 PUSH2 0x429 SWAP1 SWAP2 SWAP1 PUSH4 0xFFFFFFFF AND JUMP JUMPDEST SWAP1 SHR SWAP1 POP DUP9 DUP2 PUSH2 0x210 SWAP2 SWAP1 PUSH2 0x22F4 JUMP JUMPDEST SWAP5 POP POP POP POP POP JUMPDEST SWAP5 SWAP4 POP POP POP POP JUMP JUMPDEST PUSH1 0x0 DUP1 DUP6 GT DUP1 ISZERO PUSH2 0x230 JUMPI POP PUSH1 0x0 DUP5 GT JUMPDEST DUP1 ISZERO PUSH2 0x242 JUMPI POP PUSH1 0x0 DUP4 PUSH4 0xFFFFFFFF AND GT JUMPDEST DUP1 ISZERO PUSH2 0x26C JUMPI POP PUSH1 0x81 PUSH1 0x0 SWAP1 SLOAD SWAP1 PUSH2 0x100 EXP SWAP1 DIV PUSH4 0xFFFFFFFF AND PUSH4 0xFFFFFFFF AND DUP4 PUSH4 0xFFFFFFFF AND GT ISZERO JUMPDEST DUP1 ISZERO PUSH2 0x278 JUMPI POP DUP5 DUP3 GT ISZERO JUMPDEST PUSH2 0x281 JUMPI PUSH1 0x0 DUP1 REVERT JUMPDEST PUSH1 0x0 DUP3 EQ ISZERO PUSH2 0x293 JUMPI PUSH1 0x0 SWAP1 POP PUSH2 0x37D JUMP JUMPDEST DUP5 DUP3 EQ ISZERO PUSH2 0x2A3 JUMPI DUP4 SWAP1 POP PUSH2 0x37D JUMP JUMPDEST PUSH1 0x81 PUSH1 0x0 SWAP1 SLOAD SWAP1 PUSH2 0x100 EXP SWAP1 DIV PUSH4 0xFFFFFFFF AND PUSH4 0xFFFFFFFF AND DUP4 PUSH4 0xFFFFFFFF AND EQ ISZERO PUSH2 0x2F5 JUMPI PUSH2 0x2EE DUP6 PUSH2 0x2E0 DUP5 DUP8 PUSH2 0x429 SWAP1 SWAP2 SWAP1 PUSH4 0xFFFFFFFF AND JUMP JUMPDEST PUSH2 0x43F SWAP1 SWAP2 SWAP1 PUSH4 0xFFFFFFFF AND JUMP JUMPDEST SWAP1 POP PUSH2 0x37D JUMP JUMPDEST PUSH1 0x0 DUP1 PUSH1 0x0 DUP5 DUP9 PUSH2 0x306 SWAP2 SWAP1 PUSH2 0x22F4 JUMP JUMPDEST SWAP1 POP PUSH2 0x326 DUP9 DUP3 PUSH1 0x81 PUSH1 0x0 SWAP1 SLOAD SWAP1 PUSH2 0x100 EXP SWAP1 DIV PUSH4 0xFFFFFFFF AND DUP10 PUSH2 0x46B JUMP JUMPDEST DUP1 SWAP4 POP DUP2 SWAP5 POP POP POP PUSH1 0x0 PUSH2 0x343 DUP5 DUP10 PUSH2 0x429 SWAP1 SWAP2 SWAP1 PUSH4 0xFFFFFFFF AND JUMP JUMPDEST SWAP1 POP PUSH1 0x0 DUP4 PUSH1 0xFF AND DUP10 SWAP1 SHL SWAP1 POP PUSH2 0x375 DUP6 PUSH2 0x367 DUP4 DUP6 PUSH2 0x5EC SWAP1 SWAP2 SWAP1 PUSH4 0xFFFFFFFF AND JUMP JUMPDEST PUSH2 0x43F SWAP1 SWAP2 SWAP1 PUSH4 0xFFFFFFFF AND JUMP JUMPDEST SWAP6 POP POP POP POP POP POP JUMPDEST SWAP5 SWAP4 POP POP POP POP JUMP JUMPDEST PUSH1 0x0 DUP1 SLOAD PUSH2 0x392 SWAP1 PUSH2 0x23E0 JUMP JUMPDEST DUP1 PUSH1 0x1F ADD PUSH1 0x20 DUP1 SWAP2 DIV MUL PUSH1 0x20 ADD PUSH1 0x40 MLOAD SWAP1 DUP2 ADD PUSH1 0x40 MSTORE DUP1 SWAP3 SWAP2 SWAP1 DUP2 DUP2 MSTORE PUSH1 0x20 ADD DUP3 DUP1 SLOAD PUSH2 0x3BE SWAP1 PUSH2 0x23E0 JUMP JUMPDEST DUP1 ISZERO PUSH2 0x40B JUMPI DUP1 PUSH1 0x1F LT PUSH2 0x3E0 JUMPI PUSH2 0x100 DUP1 DUP4 SLOAD DIV MUL DUP4 MSTORE SWAP2 PUSH1 0x20 ADD SWAP2 PUSH2 0x40B JUMP JUMPDEST DUP3 ADD SWAP2 SWAP1 PUSH1 0x0 MSTORE PUSH1 0x20 PUSH1 0x0 KECCAK256 SWAP1 JUMPDEST DUP2 SLOAD DUP2 MSTORE SWAP1 PUSH1 0x1 ADD SWAP1 PUSH1 0x20 ADD DUP1 DUP4 GT PUSH2 0x3EE JUMPI DUP3 SWAP1 SUB PUSH1 0x1F AND DUP3 ADD SWAP2 JUMPDEST POP POP POP POP POP DUP2 JUMP JUMPDEST PUSH1 0x81 PUSH1 0x0 SWAP1 SLOAD SWAP1 PUSH2 0x100 EXP SWAP1 DIV PUSH4 0xFFFFFFFF AND DUP2 JUMP JUMPDEST PUSH1 0x0 DUP2 DUP4 PUSH2 0x437 SWAP2 SWAP1 PUSH2 0x229A JUMP JUMPDEST SWAP1 POP SWAP3 SWAP2 POP POP JUMP JUMPDEST PUSH1 0x0 DUP2 DUP4 PUSH2 0x44D SWAP2 SWAP1 PUSH2 0x2238 JUMP JUMPDEST SWAP1 POP SWAP3 SWAP2 POP POP JUMP JUMPDEST PUSH1 0x0 DUP2 DUP4 PUSH2 0x463 SWAP2 SWAP1 PUSH2 0x21AB JUMP JUMPDEST SWAP1 POP SWAP3 SWAP2 POP POP JUMP JUMPDEST PUSH1 0x0 DUP1 PUSH17 0x200000000000000000000000000000000 DUP7 LT PUSH2 0x4B5 JUMPI PUSH32 0x4E487B7100000000000000000000000000000000000000000000000000000000 PUSH1 0x0 MSTORE PUSH1 0x1 PUSH1 0x4 MSTORE PUSH1 0x24 PUSH1 0x0 REVERT JUMPDEST DUP5 DUP7 LT ISZERO PUSH2 0x4F8 JUMPI PUSH1 0x40 MLOAD PUSH32 0x8C379A000000000000000000000000000000000000000000000000000000000 DUP2 MSTORE PUSH1 0x4 ADD PUSH2 0x4EF SWAP1 PUSH2 0x2139 JUMP JUMPDEST PUSH1 0x40 MLOAD DUP1 SWAP2 SUB SWAP1 REVERT JUMPDEST PUSH1 0x0 DUP1 DUP7 PUSH16 0x80000000000000000000000000000000 DUP10 PUSH2 0x518 SWAP2 SWAP1 PUSH2 0x229A JUMP JUMPDEST PUSH2 0x522 SWAP2 SWAP1 PUSH2 0x2238 JUMP JUMPDEST SWAP1 POP PUSH17 0x15BF0A8B1457695355FB8AC404E7A79E3 DUP2 LT ISZERO PUSH2 0x54D JUMPI PUSH2 0x546 DUP2 PUSH2 0x602 JUMP JUMPDEST SWAP2 POP PUSH2 0x559 JUMP JUMPDEST PUSH2 0x556 DUP2 PUSH2 0xD7B JUMP JUMPDEST SWAP2 POP JUMPDEST PUSH1 0x0 DUP6 PUSH4 0xFFFFFFFF AND DUP8 PUSH4 0xFFFFFFFF AND DUP5 PUSH2 0x574 SWAP2 SWAP1 PUSH2 0x229A JUMP JUMPDEST PUSH2 0x57E SWAP2 SWAP1 PUSH2 0x2238 JUMP JUMPDEST SWAP1 POP PUSH17 0x800000000000000000000000000000000 DUP2 LT ISZERO PUSH2 0x5B0 JUMPI PUSH2 0x5A2 DUP2 PUSH2 0xEDB JUMP JUMPDEST PUSH1 0x7F SWAP5 POP SWAP5 POP POP POP POP PUSH2 0x5E3 JUMP JUMPDEST PUSH1 0x0 PUSH2 0x5BB DUP3 PUSH2 0x16DF JUMP JUMPDEST SWAP1 POP PUSH2 0x5D9 DUP2 PUSH1 0x7F PUSH2 0x5CD SWAP2 SWAP1 PUSH2 0x2328 JUMP JUMPDEST PUSH1 0xFF AND DUP4 SWAP1 SHR DUP3 PUSH2 0x1859 JUMP JUMPDEST DUP2 SWAP6 POP SWAP6 POP POP POP POP POP JUMPDEST SWAP5 POP SWAP5 SWAP3 POP POP POP JUMP JUMPDEST PUSH1 0x0 DUP2 DUP4 PUSH2 0x5FA SWAP2 SWAP1 PUSH2 0x22F4 JUMP JUMPDEST SWAP1 POP SWAP3 SWAP2 POP POP JUMP JUMPDEST PUSH1 0x0 DUP1 PUSH1 0x0 SWAP1 POP PUSH1 0x0 DUP1 PUSH1 0x0 PUSH16 0xD3094C70F034DE4B96FF7D5B6F99FCD8 DUP7 LT PUSH2 0x67D JUMPI PUSH16 0x40000000000000000000000000000000 DUP5 PUSH2 0x641 SWAP2 SWAP1 PUSH2 0x21AB JUMP JUMPDEST SWAP4 POP PUSH16 0xD3094C70F034DE4B96FF7D5B6F99FCD8 PUSH16 0x80000000000000000000000000000000 DUP8 PUSH2 0x670 SWAP2 SWAP1 PUSH2 0x229A JUMP JUMPDEST PUSH2 0x67A SWAP2 SWAP1 PUSH2 0x2238 JUMP JUMPDEST SWAP6 POP JUMPDEST PUSH16 0xA45AF1E1F40C333B3DE1DB4DD55F29A7 DUP7 LT PUSH2 0x6EC JUMPI PUSH16 0x20000000000000000000000000000000 DUP5 PUSH2 0x6B0 SWAP2 SWAP1 PUSH2 0x21AB JUMP JUMPDEST SWAP4 POP PUSH16 0xA45AF1E1F40C333B3DE1DB4DD55F29A7 PUSH16 0x80000000000000000000000000000000 DUP8 PUSH2 0x6DF SWAP2 SWAP1 PUSH2 0x229A JUMP JUMPDEST PUSH2 0x6E9 SWAP2 SWAP1 PUSH2 0x2238 JUMP JUMPDEST SWAP6 POP JUMPDEST PUSH16 0x910B022DB7AE67CE76B441C27035C6A1 DUP7 LT PUSH2 0x75B JUMPI PUSH16 0x10000000000000000000000000000000 DUP5 PUSH2 0x71F SWAP2 SWAP1 PUSH2 0x21AB JUMP JUMPDEST SWAP4 POP PUSH16 0x910B022DB7AE67CE76B441C27035C6A1 PUSH16 0x80000000000000000000000000000000 DUP8 PUSH2 0x74E SWAP2 SWAP1 PUSH2 0x229A JUMP JUMPDEST PUSH2 0x758 SWAP2 SWAP1 PUSH2 0x2238 JUMP JUMPDEST SWAP6 POP JUMPDEST PUSH16 0x88415ABBE9A76BEAD8D00CF112E4D4A8 DUP7 LT PUSH2 0x7CA JUMPI PUSH16 0x8000000000000000000000000000000 DUP5 PUSH2 0x78E SWAP2 SWAP1 PUSH2 0x21AB JUMP JUMPDEST SWAP4 POP PUSH16 0x88415ABBE9A76BEAD8D00CF112E4D4A8 PUSH16 0x80000000000000000000000000000000 DUP8 PUSH2 0x7BD SWAP2 SWAP1 PUSH2 0x229A JUMP JUMPDEST PUSH2 0x7C7 SWAP2 SWAP1 PUSH2 0x2238 JUMP JUMPDEST SWAP6 POP JUMPDEST PUSH16 0x84102B00893F64C705E841D5D4064BD3 DUP7 LT PUSH2 0x839 JUMPI PUSH16 0x4000000000000000000000000000000 DUP5 PUSH2 0x7FD SWAP2 SWAP1 PUSH2 0x21AB JUMP JUMPDEST SWAP4 POP PUSH16 0x84102B00893F64C705E841D5D4064BD3 PUSH16 0x80000000000000000000000000000000 DUP8 PUSH2 0x82C SWAP2 SWAP1 PUSH2 0x229A JUMP JUMPDEST PUSH2 0x836 SWAP2 SWAP1 PUSH2 0x2238 JUMP JUMPDEST SWAP6 POP JUMPDEST PUSH16 0x8204055AAEF1C8BD5C3259F4822735A2 DUP7 LT PUSH2 0x8A8 JUMPI PUSH16 0x2000000000000000000000000000000 DUP5 PUSH2 0x86C SWAP2 SWAP1 PUSH2 0x21AB JUMP JUMPDEST SWAP4 POP PUSH16 0x8204055AAEF1C8BD5C3259F4822735A2 PUSH16 0x80000000000000000000000000000000 DUP8 PUSH2 0x89B SWAP2 SWAP1 PUSH2 0x229A JUMP JUMPDEST PUSH2 0x8A5 SWAP2 SWAP1 PUSH2 0x2238 JUMP JUMPDEST SWAP6 POP JUMPDEST PUSH16 0x810100AB00222D861931C15E39B44E99 DUP7 LT PUSH2 0x917 JUMPI PUSH16 0x1000000000000000000000000000000 DUP5 PUSH2 0x8DB SWAP2 SWAP1 PUSH2 0x21AB JUMP JUMPDEST SWAP4 POP PUSH16 0x810100AB00222D861931C15E39B44E99 PUSH16 0x80000000000000000000000000000000 DUP8 PUSH2 0x90A SWAP2 SWAP1 PUSH2 0x229A JUMP JUMPDEST PUSH2 0x914 SWAP2 SWAP1 PUSH2 0x2238 JUMP JUMPDEST SWAP6 POP JUMPDEST PUSH16 0x808040155AABBBE9451521693554F733 DUP7 LT PUSH2 0x985 JUMPI PUSH15 0x800000000000000000000000000000 DUP5 PUSH2 0x949 SWAP2 SWAP1 PUSH2 0x21AB JUMP JUMPDEST SWAP4 POP PUSH16 0x808040155AABBBE9451521693554F733 PUSH16 0x80000000000000000000000000000000 DUP8 PUSH2 0x978 SWAP2 SWAP1 PUSH2 0x229A JUMP JUMPDEST PUSH2 0x982 SWAP2 SWAP1 PUSH2 0x2238 JUMP JUMPDEST SWAP6 POP JUMPDEST PUSH16 0x80000000000000000000000000000000 DUP7 PUSH2 0x9A1 SWAP2 SWAP1 PUSH2 0x22F4 JUMP JUMPDEST SWAP3 POP DUP3 SWAP2 POP PUSH16 0x80000000000000000000000000000000 DUP4 DUP5 PUSH2 0x9C3 SWAP2 SWAP1 PUSH2 0x229A JUMP JUMPDEST PUSH2 0x9CD SWAP2 SWAP1 PUSH2 0x2238 JUMP JUMPDEST SWAP1 POP PUSH17 0x100000000000000000000000000000000 DUP4 PUSH17 0x100000000000000000000000000000000 PUSH2 0x9FE SWAP2 SWAP1 PUSH2 0x22F4 JUMP JUMPDEST DUP4 PUSH2 0xA09 SWAP2 SWAP1 PUSH2 0x229A JUMP JUMPDEST PUSH2 0xA13 SWAP2 SWAP1 PUSH2 0x2238 JUMP JUMPDEST DUP5 PUSH2 0xA1E SWAP2 SWAP1 PUSH2 0x21AB JUMP JUMPDEST SWAP4 POP PUSH16 0x80000000000000000000000000000000 DUP2 DUP4 PUSH2 0xA3D SWAP2 SWAP1 PUSH2 0x229A JUMP JUMPDEST PUSH2 0xA47 SWAP2 SWAP1 PUSH2 0x2238 JUMP JUMPDEST SWAP2 POP PUSH17 0x200000000000000000000000000000000 DUP4 PUSH16 0xAAAAAAAAAAAAAAAAAAAAAAAAAAAAAAAA PUSH2 0xA77 SWAP2 SWAP1 PUSH2 0x22F4 JUMP JUMPDEST DUP4 PUSH2 0xA82 SWAP2 SWAP1 PUSH2 0x229A JUMP JUMPDEST PUSH2 0xA8C SWAP2 SWAP1 PUSH2 0x2238 JUMP JUMPDEST DUP5 PUSH2 0xA97 SWAP2 SWAP1 PUSH2 0x21AB JUMP JUMPDEST SWAP4 POP PUSH16 0x80000000000000000000000000000000 DUP2 DUP4 PUSH2 0xAB6 SWAP2 SWAP1 PUSH2 0x229A JUMP JUMPDEST PUSH2 0xAC0 SWAP2 SWAP1 PUSH2 0x2238 JUMP JUMPDEST SWAP2 POP PUSH17 0x300000000000000000000000000000000 DUP4 PUSH16 0x99999999999999999999999999999999 PUSH2 0xAF0 SWAP2 SWAP1 PUSH2 0x22F4 JUMP JUMPDEST DUP4 PUSH2 0xAFB SWAP2 SWAP1 PUSH2 0x229A JUMP JUMPDEST PUSH2 0xB05 SWAP2 SWAP1 PUSH2 0x2238 JUMP JUMPDEST DUP5 PUSH2 0xB10 SWAP2 SWAP1 PUSH2 0x21AB JUMP JUMPDEST SWAP4 POP PUSH16 0x80000000000000000000000000000000 DUP2 DUP4 PUSH2 0xB2F SWAP2 SWAP1 PUSH2 0x229A JUMP JUMPDEST PUSH2 0xB39 SWAP2 SWAP1 PUSH2 0x2238 JUMP JUMPDEST SWAP2 POP PUSH17 0x400000000000000000000000000000000 DUP4 PUSH16 0x92492492492492492492492492492492 PUSH2 0xB69 SWAP2 SWAP1 PUSH2 0x22F4 JUMP JUMPDEST DUP4 PUSH2 0xB74 SWAP2 SWAP1 PUSH2 0x229A JUMP JUMPDEST PUSH2 0xB7E SWAP2 SWAP1 PUSH2 0x2238 JUMP JUMPDEST DUP5 PUSH2 0xB89 SWAP2 SWAP1 PUSH2 0x21AB JUMP JUMPDEST SWAP4 POP PUSH16 0x80000000000000000000000000000000 DUP2 DUP4 PUSH2 0xBA8 SWAP2 SWAP1 PUSH2 0x229A JUMP JUMPDEST PUSH2 0xBB2 SWAP2 SWAP1 PUSH2 0x2238 JUMP JUMPDEST SWAP2 POP PUSH17 0x500000000000000000000000000000000 DUP4 PUSH16 0x8E38E38E38E38E38E38E38E38E38E38E PUSH2 0xBE2 SWAP2 SWAP1 PUSH2 0x22F4 JUMP JUMPDEST DUP4 PUSH2 0xBED SWAP2 SWAP1 PUSH2 0x229A JUMP JUMPDEST PUSH2 0xBF7 SWAP2 SWAP1 PUSH2 0x2238 JUMP JUMPDEST DUP5 PUSH2 0xC02 SWAP2 SWAP1 PUSH2 0x21AB JUMP JUMPDEST SWAP4 POP PUSH16 0x80000000000000000000000000000000 DUP2 DUP4 PUSH2 0xC21 SWAP2 SWAP1 PUSH2 0x229A JUMP JUMPDEST PUSH2 0xC2B SWAP2 SWAP1 PUSH2 0x2238 JUMP JUMPDEST SWAP2 POP PUSH17 0x600000000000000000000000000000000 DUP4 PUSH16 0x8BA2E8BA2E8BA2E8BA2E8BA2E8BA2E8B PUSH2 0xC5B SWAP2 SWAP1 PUSH2 0x22F4 JUMP JUMPDEST DUP4 PUSH2 0xC66 SWAP2 SWAP1 PUSH2 0x229A JUMP JUMPDEST PUSH2 0xC70 SWAP2 SWAP1 PUSH2 0x2238 JUMP JUMPDEST DUP5 PUSH2 0xC7B SWAP2 SWAP1 PUSH2 0x21AB JUMP JUMPDEST SWAP4 POP PUSH16 0x80000000000000000000000000000000 DUP2 DUP4 PUSH2 0xC9A SWAP2 SWAP1 PUSH2 0x229A JUMP JUMPDEST PUSH2 0xCA4 SWAP2 SWAP1 PUSH2 0x2238 JUMP JUMPDEST SWAP2 POP PUSH17 0x700000000000000000000000000000000 DUP4 PUSH16 0x89D89D89D89D89D89D89D89D89D89D89 PUSH2 0xCD4 SWAP2 SWAP1 PUSH2 0x22F4 JUMP JUMPDEST DUP4 PUSH2 0xCDF SWAP2 SWAP1 PUSH2 0x229A JUMP JUMPDEST PUSH2 0xCE9 SWAP2 SWAP1 PUSH2 0x2238 JUMP JUMPDEST DUP5 PUSH2 0xCF4 SWAP2 SWAP1 PUSH2 0x21AB JUMP JUMPDEST SWAP4 POP PUSH16 0x80000000000000000000000000000000 DUP2 DUP4 PUSH2 0xD13 SWAP2 SWAP1 PUSH2 0x229A JUMP JUMPDEST PUSH2 0xD1D SWAP2 SWAP1 PUSH2 0x2238 JUMP JUMPDEST SWAP2 POP PUSH17 0x800000000000000000000000000000000 DUP4 PUSH16 0x88888888888888888888888888888888 PUSH2 0xD4D SWAP2 SWAP1 PUSH2 0x22F4 JUMP JUMPDEST DUP4 PUSH2 0xD58 SWAP2 SWAP1 PUSH2 0x229A JUMP JUMPDEST PUSH2 0xD62 SWAP2 SWAP1 PUSH2 0x2238 JUMP JUMPDEST DUP5 PUSH2 0xD6D SWAP2 SWAP1 PUSH2 0x21AB JUMP JUMPDEST SWAP4 POP DUP4 SWAP5 POP POP POP POP POP SWAP2 SWAP1 POP JUMP JUMPDEST PUSH1 0x0 DUP1 PUSH1 0x0 SWAP1 POP PUSH1 0x0 DUP4 SWAP1 POP PUSH17 0x100000000000000000000000000000000 DUP2 LT PUSH2 0xDF3 JUMPI PUSH1 0x0 PUSH2 0xDC5 PUSH16 0x80000000000000000000000000000000 DUP4 PUSH2 0xDC0 SWAP2 SWAP1 PUSH2 0x2238 JUMP JUMPDEST PUSH2 0x1F68 JUMP JUMPDEST SWAP1 POP DUP1 PUSH1 0xFF AND DUP3 SWAP1 SHR SWAP2 POP PUSH16 0x80000000000000000000000000000000 DUP2 PUSH1 0xFF AND PUSH2 0xDEF SWAP2 SWAP1 PUSH2 0x229A JUMP JUMPDEST SWAP3 POP POP JUMPDEST PUSH16 0x80000000000000000000000000000000 DUP2 GT ISZERO PUSH2 0xE9B JUMPI PUSH1 0x0 PUSH1 0x7F SWAP1 POP JUMPDEST PUSH1 0x0 DUP2 PUSH1 0xFF AND GT ISZERO PUSH2 0xE99 JUMPI PUSH16 0x80000000000000000000000000000000 DUP3 DUP4 PUSH2 0xE3B SWAP2 SWAP1 PUSH2 0x229A JUMP JUMPDEST PUSH2 0xE45 SWAP2 SWAP1 PUSH2 0x2238 JUMP JUMPDEST SWAP2 POP PUSH17 0x100000000000000000000000000000000 DUP3 LT PUSH2 0xE88 JUMPI PUSH1 0x1 DUP3 SWAP1 SHR SWAP2 POP PUSH1 0x1 DUP2 PUSH2 0xE73 SWAP2 SWAP1 PUSH2 0x2328 JUMP JUMPDEST PUSH1 0xFF AND PUSH1 0x1 SWAP1 SHL DUP4 PUSH2 0xE85 SWAP2 SWAP1 PUSH2 0x21AB JUMP JUMPDEST SWAP3 POP JUMPDEST DUP1 PUSH2 0xE92 SWAP1 PUSH2 0x23B6 JUMP JUMPDEST SWAP1 POP PUSH2 0xE12 JUMP JUMPDEST POP JUMPDEST PUSH16 0x5B9DE1D10BF4103D647B0955897BA80 PUSH16 0x3F80FE03F80FE03F80FE03F80FE03F8 DUP4 PUSH2 0xEC8 SWAP2 SWAP1 PUSH2 0x229A JUMP JUMPDEST PUSH2 0xED2 SWAP2 SWAP1 PUSH2 0x2238 JUMP JUMPDEST SWAP3 POP POP POP SWAP2 SWAP1 POP JUMP JUMPDEST PUSH1 0x0 DUP1 PUSH1 0x0 SWAP1 POP PUSH1 0x0 DUP1 PUSH16 0x10000000000000000000000000000000 DUP6 PUSH2 0xF01 SWAP2 SWAP1 PUSH2 0x2412 JUMP JUMPDEST SWAP2 POP DUP2 SWAP1 POP PUSH16 0x80000000000000000000000000000000 DUP3 DUP3 PUSH2 0xF23 SWAP2 SWAP1 PUSH2 0x229A JUMP JUMPDEST PUSH2 0xF2D SWAP2 SWAP1 PUSH2 0x2238 JUMP JUMPDEST SWAP1 POP PUSH8 0x10E1B3BE415A0000 DUP2 PUSH2 0xF43 SWAP2 SWAP1 PUSH2 0x229A JUMP JUMPDEST DUP4 PUSH2 0xF4E SWAP2 SWAP1 PUSH2 0x21AB JUMP JUMPDEST SWAP3 POP PUSH16 0x80000000000000000000000000000000 DUP3 DUP3 PUSH2 0xF6D SWAP2 SWAP1 PUSH2 0x229A JUMP JUMPDEST PUSH2 0xF77 SWAP2 SWAP1 PUSH2 0x2238 JUMP JUMPDEST SWAP1 POP PUSH8 0x5A0913F6B1E0000 DUP2 PUSH2 0xF8D SWAP2 SWAP1 PUSH2 0x229A JUMP JUMPDEST DUP4 PUSH2 0xF98 SWAP2 SWAP1 PUSH2 0x21AB JUMP JUMPDEST SWAP3 POP PUSH16 0x80000000000000000000000000000000 DUP3 DUP3 PUSH2 0xFB7 SWAP2 SWAP1 PUSH2 0x229A JUMP JUMPDEST PUSH2 0xFC1 SWAP2 SWAP1 PUSH2 0x2238 JUMP JUMPDEST SWAP1 POP PUSH8 0x168244FDAC78000 DUP2 PUSH2 0xFD7 SWAP2 SWAP1 PUSH2 0x229A JUMP JUMPDEST DUP4 PUSH2 0xFE2 SWAP2 SWAP1 PUSH2 0x21AB JUMP JUMPDEST SWAP3 POP PUSH16 0x80000000000000000000000000000000 DUP3 DUP3 PUSH2 0x1001 SWAP2 SWAP1 PUSH2 0x229A JUMP JUMPDEST PUSH2 0x100B SWAP2 SWAP1 PUSH2 0x2238 JUMP JUMPDEST SWAP1 POP PUSH7 0x4807432BC18000 DUP2 PUSH2 0x1020 SWAP2 SWAP1 PUSH2 0x229A JUMP JUMPDEST DUP4 PUSH2 0x102B SWAP2 SWAP1 PUSH2 0x21AB JUMP JUMPDEST SWAP3 POP PUSH16 0x80000000000000000000000000000000 DUP3 DUP3 PUSH2 0x104A SWAP2 SWAP1 PUSH2 0x229A JUMP JUMPDEST PUSH2 0x1054 SWAP2 SWAP1 PUSH2 0x2238 JUMP JUMPDEST SWAP1 POP PUSH7 0xC0135DCA04000 DUP2 PUSH2 0x1069 SWAP2 SWAP1 PUSH2 0x229A JUMP JUMPDEST DUP4 PUSH2 0x1074 SWAP2 SWAP1 PUSH2 0x21AB JUMP JUMPDEST SWAP3 POP PUSH16 0x80000000000000000000000000000000 DUP3 DUP3 PUSH2 0x1093 SWAP2 SWAP1 PUSH2 0x229A JUMP JUMPDEST PUSH2 0x109D SWAP2 SWAP1 PUSH2 0x2238 JUMP JUMPDEST SWAP1 POP PUSH7 0x1B707B1CDC000 DUP2 PUSH2 0x10B2 SWAP2 SWAP1 PUSH2 0x229A JUMP JUMPDEST DUP4 PUSH2 0x10BD SWAP2 SWAP1 PUSH2 0x21AB JUMP JUMPDEST SWAP3 POP PUSH16 0x80000000000000000000000000000000 DUP3 DUP3 PUSH2 0x10DC SWAP2 SWAP1 PUSH2 0x229A JUMP JUMPDEST PUSH2 0x10E6 SWAP2 SWAP1 PUSH2 0x2238 JUMP JUMPDEST SWAP1 POP PUSH6 0x36E0F639B800 DUP2 PUSH2 0x10FA SWAP2 SWAP1 PUSH2 0x229A JUMP JUMPDEST DUP4 PUSH2 0x1105 SWAP2 SWAP1 PUSH2 0x21AB JUMP JUMPDEST SWAP3 POP PUSH16 0x80000000000000000000000000000000 DUP3 DUP3 PUSH2 0x1124 SWAP2 SWAP1 PUSH2 0x229A JUMP JUMPDEST PUSH2 0x112E SWAP2 SWAP1 PUSH2 0x2238 JUMP JUMPDEST SWAP1 POP PUSH6 0x618FEE9F800 DUP2 PUSH2 0x1142 SWAP2 SWAP1 PUSH2 0x229A JUMP JUMPDEST DUP4 PUSH2 0x114D SWAP2 SWAP1 PUSH2 0x21AB JUMP JUMPDEST SWAP3 POP PUSH16 0x80000000000000000000000000000000 DUP3 DUP3 PUSH2 0x116C SWAP2 SWAP1 PUSH2 0x229A JUMP JUMPDEST PUSH2 0x1176 SWAP2 SWAP1 PUSH2 0x2238 JUMP JUMPDEST SWAP1 POP PUSH5 0x9C197DCC00 DUP2 PUSH2 0x1189 SWAP2 SWAP1 PUSH2 0x229A JUMP JUMPDEST DUP4 PUSH2 0x1194 SWAP2 SWAP1 PUSH2 0x21AB JUMP JUMPDEST SWAP3 POP PUSH16 0x80000000000000000000000000000000 DUP3 DUP3 PUSH2 0x11B3 SWAP2 SWAP1 PUSH2 0x229A JUMP JUMPDEST PUSH2 0x11BD SWAP2 SWAP1 PUSH2 0x2238 JUMP JUMPDEST SWAP1 POP PUSH5 0xE30DCE400 DUP2 PUSH2 0x11D0 SWAP2 SWAP1 PUSH2 0x229A JUMP JUMPDEST DUP4 PUSH2 0x11DB SWAP2 SWAP1 PUSH2 0x21AB JUMP JUMPDEST SWAP3 POP PUSH16 0x80000000000000000000000000000000 DUP3 DUP3 PUSH2 0x11FA SWAP2 SWAP1 PUSH2 0x229A JUMP JUMPDEST PUSH2 0x1204 SWAP2 SWAP1 PUSH2 0x2238 JUMP JUMPDEST SWAP1 POP PUSH5 0x12EBD1300 DUP2 PUSH2 0x1217 SWAP2 SWAP1 PUSH2 0x229A JUMP JUMPDEST DUP4 PUSH2 0x1222 SWAP2 SWAP1 PUSH2 0x21AB JUMP JUMPDEST SWAP3 POP PUSH16 0x80000000000000000000000000000000 DUP3 DUP3 PUSH2 0x1241 SWAP2 SWAP1 PUSH2 0x229A JUMP JUMPDEST PUSH2 0x124B SWAP2 SWAP1 PUSH2 0x2238 JUMP JUMPDEST SWAP1 POP PUSH4 0x17499F00 DUP2 PUSH2 0x125D SWAP2 SWAP1 PUSH2 0x229A JUMP JUMPDEST DUP4 PUSH2 0x1268 SWAP2 SWAP1 PUSH2 0x21AB JUMP JUMPDEST SWAP3 POP PUSH16 0x80000000000000000000000000000000 DUP3 DUP3 PUSH2 0x1287 SWAP2 SWAP1 PUSH2 0x229A JUMP JUMPDEST PUSH2 0x1291 SWAP2 SWAP1 PUSH2 0x2238 JUMP JUMPDEST SWAP1 POP PUSH4 0x1A9D480 DUP2 PUSH2 0x12A3 SWAP2 SWAP1 PUSH2 0x229A JUMP JUMPDEST DUP4 PUSH2 0x12AE SWAP2 SWAP1 PUSH2 0x21AB JUMP JUMPDEST SWAP3 POP PUSH16 0x80000000000000000000000000000000 DUP3 DUP3 PUSH2 0x12CD SWAP2 SWAP1 PUSH2 0x229A JUMP JUMPDEST PUSH2 0x12D7 SWAP2 SWAP1 PUSH2 0x2238 JUMP JUMPDEST SWAP1 POP PUSH3 0x1C6380 DUP2 PUSH2 0x12E8 SWAP2 SWAP1 PUSH2 0x229A JUMP JUMPDEST DUP4 PUSH2 0x12F3 SWAP2 SWAP1 PUSH2 0x21AB JUMP JUMPDEST SWAP3 POP PUSH16 0x80000000000000000000000000000000 DUP3 DUP3 PUSH2 0x1312 SWAP2 SWAP1 PUSH2 0x229A JUMP JUMPDEST PUSH2 0x131C SWAP2 SWAP1 PUSH2 0x2238 JUMP JUMPDEST SWAP1 POP PUSH3 0x1C638 DUP2 PUSH2 0x132D SWAP2 SWAP1 PUSH2 0x229A JUMP JUMPDEST DUP4 PUSH2 0x1338 SWAP2 SWAP1 PUSH2 0x21AB JUMP JUMPDEST SWAP3 POP PUSH16 0x80000000000000000000000000000000 DUP3 DUP3 PUSH2 0x1357 SWAP2 SWAP1 PUSH2 0x229A JUMP JUMPDEST PUSH2 0x1361 SWAP2 SWAP1 PUSH2 0x2238 JUMP JUMPDEST SWAP1 POP PUSH2 0x1AB8 DUP2 PUSH2 0x1371 SWAP2 SWAP1 PUSH2 0x229A JUMP JUMPDEST DUP4 PUSH2 0x137C SWAP2 SWAP1 PUSH2 0x21AB JUMP JUMPDEST SWAP3 POP PUSH16 0x80000000000000000000000000000000 DUP3 DUP3 PUSH2 0x139B SWAP2 SWAP1 PUSH2 0x229A JUMP JUMPDEST PUSH2 0x13A5 SWAP2 SWAP1 PUSH2 0x2238 JUMP JUMPDEST SWAP1 POP PUSH2 0x17C DUP2 PUSH2 0x13B5 SWAP2 SWAP1 PUSH2 0x229A JUMP JUMPDEST DUP4 PUSH2 0x13C0 SWAP2 SWAP1 PUSH2 0x21AB JUMP JUMPDEST SWAP3 POP PUSH16 0x80000000000000000000000000000000 DUP3 DUP3 PUSH2 0x13DF SWAP2 SWAP1 PUSH2 0x229A JUMP JUMPDEST PUSH2 0x13E9 SWAP2 SWAP1 PUSH2 0x2238 JUMP JUMPDEST SWAP1 POP PUSH1 0x14 DUP2 PUSH2 0x13F8 SWAP2 SWAP1 PUSH2 0x229A JUMP JUMPDEST DUP4 PUSH2 0x1403 SWAP2 SWAP1 PUSH2 0x21AB JUMP JUMPDEST SWAP3 POP PUSH16 0x80000000000000000000000000000000 DUP3 DUP3 PUSH2 0x1422 SWAP2 SWAP1 PUSH2 0x229A JUMP JUMPDEST PUSH2 0x142C SWAP2 SWAP1 PUSH2 0x2238 JUMP JUMPDEST SWAP1 POP PUSH1 0x1 DUP2 PUSH2 0x143B SWAP2 SWAP1 PUSH2 0x229A JUMP JUMPDEST DUP4 PUSH2 0x1446 SWAP2 SWAP1 PUSH2 0x21AB JUMP JUMPDEST SWAP3 POP PUSH16 0x80000000000000000000000000000000 DUP3 PUSH8 0x21C3677C82B40000 DUP6 PUSH2 0x146E SWAP2 SWAP1 PUSH2 0x2238 JUMP JUMPDEST PUSH2 0x1478 SWAP2 SWAP1 PUSH2 0x21AB JUMP JUMPDEST PUSH2 0x1482 SWAP2 SWAP1 PUSH2 0x21AB JUMP JUMPDEST SWAP3 POP PUSH1 0x0 PUSH16 0x10000000000000000000000000000000 DUP7 AND EQ PUSH2 0x14DA JUMPI PUSH17 0x18EBEF9EAC820AE8682B9793AC6D1E776 PUSH17 0x1C3D6A24ED82218787D624D3E5EBA95F9 DUP5 PUSH2 0x14CD SWAP2 SWAP1 PUSH2 0x229A JUMP JUMPDEST PUSH2 0x14D7 SWAP2 SWAP1 PUSH2 0x2238 JUMP JUMPDEST SWAP3 POP JUMPDEST PUSH1 0x0 PUSH16 0x20000000000000000000000000000000 DUP7 AND EQ PUSH2 0x1530 JUMPI PUSH17 0x1368B2FC6F9609FE7ACEB46AA619BAED4 PUSH17 0x18EBEF9EAC820AE8682B9793AC6D1E778 DUP5 PUSH2 0x1523 SWAP2 SWAP1 PUSH2 0x229A JUMP JUMPDEST PUSH2 0x152D SWAP2 SWAP1 PUSH2 0x2238 JUMP JUMPDEST SWAP3 POP JUMPDEST PUSH1 0x0 PUSH16 0x40000000000000000000000000000000 DUP7 AND EQ PUSH2 0x1585 JUMPI PUSH16 0xBC5AB1B16779BE3575BD8F0520A9F21F PUSH17 0x1368B2FC6F9609FE7ACEB46AA619BAED5 DUP5 PUSH2 0x1578 SWAP2 SWAP1 PUSH2 0x229A JUMP JUMPDEST PUSH2 0x1582 SWAP2 SWAP1 PUSH2 0x2238 JUMP JUMPDEST SWAP3 POP JUMPDEST PUSH1 0x0 PUSH16 0x80000000000000000000000000000000 DUP7 AND EQ PUSH2 0x15D9 JUMPI PUSH16 0x454AAA8EFE072E7F6DDBAB84B40A55C9 PUSH16 0xBC5AB1B16779BE3575BD8F0520A9F21E DUP5 PUSH2 0x15CC SWAP2 SWAP1 PUSH2 0x229A JUMP JUMPDEST PUSH2 0x15D6 SWAP2 SWAP1 PUSH2 0x2238 JUMP JUMPDEST SWAP3 POP JUMPDEST PUSH1 0x0 PUSH17 0x100000000000000000000000000000000 DUP7 AND EQ PUSH2 0x162E JUMPI PUSH16 0x960AADC109E7A3BF4578099615711EA PUSH16 0x454AAA8EFE072E7F6DDBAB84B40A55C5 DUP5 PUSH2 0x1621 SWAP2 SWAP1 PUSH2 0x229A JUMP JUMPDEST PUSH2 0x162B SWAP2 SWAP1 PUSH2 0x2238 JUMP JUMPDEST SWAP3 POP JUMPDEST PUSH1 0x0 PUSH17 0x200000000000000000000000000000000 DUP7 AND EQ PUSH2 0x1682 JUMPI PUSH15 0x2BF84208204F5977F9A8CF01FDCE3D PUSH16 0x960AADC109E7A3BF4578099615711D7 DUP5 PUSH2 0x1675 SWAP2 SWAP1 PUSH2 0x229A JUMP JUMPDEST PUSH2 0x167F SWAP2 SWAP1 PUSH2 0x2238 JUMP JUMPDEST SWAP3 POP JUMPDEST PUSH1 0x0 PUSH17 0x400000000000000000000000000000000 DUP7 AND EQ PUSH2 0x16D4 JUMPI PUSH14 0x3C6AB775DD0B95B4CBEE7E65D11 PUSH15 0x2BF84208204F5977F9A8CF01FDC307 DUP5 PUSH2 0x16C7 SWAP2 SWAP1 PUSH2 0x229A JUMP JUMPDEST PUSH2 0x16D1 SWAP2 SWAP1 PUSH2 0x2238 JUMP JUMPDEST SWAP3 POP JUMPDEST DUP3 SWAP4 POP POP POP POP SWAP2 SWAP1 POP JUMP JUMPDEST PUSH1 0x0 DUP1 PUSH1 0x20 SWAP1 POP PUSH1 0x0 PUSH1 0x7F SWAP1 POP JUMPDEST DUP1 PUSH1 0xFF AND PUSH1 0x1 DUP4 PUSH2 0x16FE SWAP2 SWAP1 PUSH2 0x2201 JUMP JUMPDEST PUSH1 0xFF AND LT ISZERO PUSH2 0x177A JUMPI PUSH1 0x0 PUSH1 0x2 DUP3 DUP5 PUSH2 0x1717 SWAP2 SWAP1 PUSH2 0x2201 JUMP JUMPDEST PUSH2 0x1721 SWAP2 SWAP1 PUSH2 0x2269 JUMP JUMPDEST SWAP1 POP DUP5 PUSH1 0x1 DUP3 PUSH1 0xFF AND PUSH1 0x80 DUP2 LT PUSH2 0x1761 JUMPI PUSH32 0x4E487B7100000000000000000000000000000000000000000000000000000000 PUSH1 0x0 MSTORE PUSH1 0x32 PUSH1 0x4 MSTORE PUSH1 0x24 PUSH1 0x0 REVERT JUMPDEST ADD SLOAD LT PUSH2 0x1770 JUMPI DUP1 SWAP3 POP PUSH2 0x1774 JUMP JUMPDEST DUP1 SWAP2 POP JUMPDEST POP PUSH2 0x16ED JUMP JUMPDEST DUP4 PUSH1 0x1 DUP3 PUSH1 0xFF AND PUSH1 0x80 DUP2 LT PUSH2 0x17B8 JUMPI PUSH32 0x4E487B7100000000000000000000000000000000000000000000000000000000 PUSH1 0x0 MSTORE PUSH1 0x32 PUSH1 0x4 MSTORE PUSH1 0x24 PUSH1 0x0 REVERT JUMPDEST ADD SLOAD LT PUSH2 0x17C9 JUMPI DUP1 SWAP3 POP POP POP PUSH2 0x1854 JUMP JUMPDEST DUP4 PUSH1 0x1 DUP4 PUSH1 0xFF AND PUSH1 0x80 DUP2 LT PUSH2 0x1807 JUMPI PUSH32 0x4E487B7100000000000000000000000000000000000000000000000000000000 PUSH1 0x0 MSTORE PUSH1 0x32 PUSH1 0x4 MSTORE PUSH1 0x24 PUSH1 0x0 REVERT JUMPDEST ADD SLOAD LT PUSH2 0x1818 JUMPI DUP2 SWAP3 POP POP POP PUSH2 0x1854 JUMP JUMPDEST PUSH1 0x0 PUSH2 0x184D JUMPI PUSH32 0x4E487B7100000000000000000000000000000000000000000000000000000000 PUSH1 0x0 MSTORE PUSH1 0x1 PUSH1 0x4 MSTORE PUSH1 0x24 PUSH1 0x0 REVERT JUMPDEST PUSH1 0x0 SWAP3 POP POP POP JUMPDEST SWAP2 SWAP1 POP JUMP JUMPDEST PUSH1 0x0 DUP1 DUP4 SWAP1 POP PUSH1 0x0 DUP4 PUSH1 0xFF AND DUP6 DUP4 PUSH2 0x1871 SWAP2 SWAP1 PUSH2 0x229A JUMP JUMPDEST SWAP1 SHR SWAP2 POP PUSH16 0x3442C4E6074A82F1797F72AC0000000 DUP3 PUSH2 0x1891 SWAP2 SWAP1 PUSH2 0x229A JUMP JUMPDEST DUP2 PUSH2 0x189C SWAP2 SWAP1 PUSH2 0x21AB JUMP JUMPDEST SWAP1 POP DUP4 PUSH1 0xFF AND DUP6 DUP4 PUSH2 0x18AE SWAP2 SWAP1 PUSH2 0x229A JUMP JUMPDEST SWAP1 SHR SWAP2 POP PUSH16 0x116B96F757C380FB287FD0E40000000 DUP3 PUSH2 0x18CE SWAP2 SWAP1 PUSH2 0x229A JUMP JUMPDEST DUP2 PUSH2 0x18D9 SWAP2 SWAP1 PUSH2 0x21AB JUMP JUMPDEST SWAP1 POP DUP4 PUSH1 0xFF AND DUP6 DUP4 PUSH2 0x18EB SWAP2 SWAP1 PUSH2 0x229A JUMP JUMPDEST SWAP1 SHR SWAP2 POP PUSH15 0x45AE5BDD5F0E03ECA1FF4390000000 DUP3 PUSH2 0x190A SWAP2 SWAP1 PUSH2 0x229A JUMP JUMPDEST DUP2 PUSH2 0x1915 SWAP2 SWAP1 PUSH2 0x21AB JUMP JUMPDEST SWAP1 POP DUP4 PUSH1 0xFF AND DUP6 DUP4 PUSH2 0x1927 SWAP2 SWAP1 PUSH2 0x229A JUMP JUMPDEST SWAP1 SHR SWAP2 POP PUSH15 0xDEFABF91302CD95B9FFDA50000000 DUP3 PUSH2 0x1946 SWAP2 SWAP1 PUSH2 0x229A JUMP JUMPDEST DUP2 PUSH2 0x1951 SWAP2 SWAP1 PUSH2 0x21AB JUMP JUMPDEST SWAP1 POP DUP4 PUSH1 0xFF AND DUP6 DUP4 PUSH2 0x1963 SWAP2 SWAP1 PUSH2 0x229A JUMP JUMPDEST SWAP1 SHR SWAP2 POP PUSH15 0x2529CA9832B22439EFFF9B8000000 DUP3 PUSH2 0x1982 SWAP2 SWAP1 PUSH2 0x229A JUMP JUMPDEST DUP2 PUSH2 0x198D SWAP2 SWAP1 PUSH2 0x21AB JUMP JUMPDEST SWAP1 POP DUP4 PUSH1 0xFF AND DUP6 DUP4 PUSH2 0x199F SWAP2 SWAP1 PUSH2 0x229A JUMP JUMPDEST SWAP1 SHR SWAP2 POP PUSH14 0x54F1CF12BD04E516B6DA88000000 DUP3 PUSH2 0x19BD SWAP2 SWAP1 PUSH2 0x229A JUMP JUMPDEST DUP2 PUSH2 0x19C8 SWAP2 SWAP1 PUSH2 0x21AB JUMP JUMPDEST SWAP1 POP DUP4 PUSH1 0xFF AND DUP6 DUP4 PUSH2 0x19DA SWAP2 SWAP1 PUSH2 0x229A JUMP JUMPDEST SWAP1 SHR SWAP2 POP PUSH14 0xA9E39E257A09CA2D6DB51000000 DUP3 PUSH2 0x19F8 SWAP2 SWAP1 PUSH2 0x229A JUMP JUMPDEST DUP2 PUSH2 0x1A03 SWAP2 SWAP1 PUSH2 0x21AB JUMP JUMPDEST SWAP1 POP DUP4 PUSH1 0xFF AND DUP6 DUP4 PUSH2 0x1A15 SWAP2 SWAP1 PUSH2 0x229A JUMP JUMPDEST SWAP1 SHR SWAP2 POP PUSH14 0x12E066E7B839FA050C309000000 DUP3 PUSH2 0x1A33 SWAP2 SWAP1 PUSH2 0x229A JUMP JUMPDEST DUP2 PUSH2 0x1A3E SWAP2 SWAP1 PUSH2 0x21AB JUMP JUMPDEST SWAP1 POP DUP4 PUSH1 0xFF AND DUP6 DUP4 PUSH2 0x1A50 SWAP2 SWAP1 PUSH2 0x229A JUMP JUMPDEST SWAP1 SHR SWAP2 POP PUSH13 0x1E33D7D926C329A1AD1A800000 DUP3 PUSH2 0x1A6D SWAP2 SWAP1 PUSH2 0x229A JUMP JUMPDEST DUP2 PUSH2 0x1A78 SWAP2 SWAP1 PUSH2 0x21AB JUMP JUMPDEST SWAP1 POP DUP4 PUSH1 0xFF AND DUP6 DUP4 PUSH2 0x1A8A SWAP2 SWAP1 PUSH2 0x229A JUMP JUMPDEST SWAP1 SHR SWAP2 POP PUSH13 0x2BEE513BDB4A6B19B5F800000 DUP3 PUSH2 0x1AA7 SWAP2 SWAP1 PUSH2 0x229A JUMP JUMPDEST DUP2 PUSH2 0x1AB2 SWAP2 SWAP1 PUSH2 0x21AB JUMP JUMPDEST SWAP1 POP DUP4 PUSH1 0xFF AND DUP6 DUP4 PUSH2 0x1AC4 SWAP2 SWAP1 PUSH2 0x229A JUMP JUMPDEST SWAP1 SHR SWAP2 POP PUSH12 0x3A9316FA79B88ECCF2A00000 DUP3 PUSH2 0x1AE0 SWAP2 SWAP1 PUSH2 0x229A JUMP JUMPDEST DUP2 PUSH2 0x1AEB SWAP2 SWAP1 PUSH2 0x21AB JUMP JUMPDEST SWAP1 POP DUP4 PUSH1 0xFF AND DUP6 DUP4 PUSH2 0x1AFD SWAP2 SWAP1 PUSH2 0x229A JUMP JUMPDEST SWAP1 SHR SWAP2 POP PUSH12 0x48177EBE1FA812375200000 DUP3 PUSH2 0x1B19 SWAP2 SWAP1 PUSH2 0x229A JUMP JUMPDEST DUP2 PUSH2 0x1B24 SWAP2 SWAP1 PUSH2 0x21AB JUMP JUMPDEST SWAP1 POP DUP4 PUSH1 0xFF AND DUP6 DUP4 PUSH2 0x1B36 SWAP2 SWAP1 PUSH2 0x229A JUMP JUMPDEST SWAP1 SHR SWAP2 POP PUSH11 0x5263FE90242DCBACF00000 DUP3 PUSH2 0x1B51 SWAP2 SWAP1 PUSH2 0x229A JUMP JUMPDEST DUP2 PUSH2 0x1B5C SWAP2 SWAP1 PUSH2 0x21AB JUMP JUMPDEST SWAP1 POP DUP4 PUSH1 0xFF AND DUP6 DUP4 PUSH2 0x1B6E SWAP2 SWAP1 PUSH2 0x229A JUMP JUMPDEST SWAP1 SHR SWAP2 POP PUSH11 0x57E22099C030D94100000 DUP3 PUSH2 0x1B89 SWAP2 SWAP1 PUSH2 0x229A JUMP JUMPDEST DUP2 PUSH2 0x1B94 SWAP2 SWAP1 PUSH2 0x21AB JUMP JUMPDEST SWAP1 POP DUP4 PUSH1 0xFF AND DUP6 DUP4 PUSH2 0x1BA6 SWAP2 SWAP1 PUSH2 0x229A JUMP JUMPDEST SWAP1 SHR SWAP2 POP PUSH10 0x57E22099C030D9410000 DUP3 PUSH2 0x1BC0 SWAP2 SWAP1 PUSH2 0x229A JUMP JUMPDEST DUP2 PUSH2 0x1BCB SWAP2 SWAP1 PUSH2 0x21AB JUMP JUMPDEST SWAP1 POP DUP4 PUSH1 0xFF AND DUP6 DUP4 PUSH2 0x1BDD SWAP2 SWAP1 PUSH2 0x229A JUMP JUMPDEST SWAP1 SHR SWAP2 POP PUSH10 0x52B6B54569976310000 DUP3 PUSH2 0x1BF7 SWAP2 SWAP1 PUSH2 0x229A JUMP JUMPDEST DUP2 PUSH2 0x1C02 SWAP2 SWAP1 PUSH2 0x21AB JUMP JUMPDEST SWAP1 POP DUP4 PUSH1 0xFF AND DUP6 DUP4 PUSH2 0x1C14 SWAP2 SWAP1 PUSH2 0x229A JUMP JUMPDEST SWAP1 SHR SWAP2 POP PUSH9 0x4985F67696BF748000 DUP3 PUSH2 0x1C2D SWAP2 SWAP1 PUSH2 0x229A JUMP JUMPDEST DUP2 PUSH2 0x1C38 SWAP2 SWAP1 PUSH2 0x21AB JUMP JUMPDEST SWAP1 POP DUP4 PUSH1 0xFF AND DUP6 DUP4 PUSH2 0x1C4A SWAP2 SWAP1 PUSH2 0x229A JUMP JUMPDEST SWAP1 SHR SWAP2 POP PUSH9 0x3DEA12EA99E498000 DUP3 PUSH2 0x1C63 SWAP2 SWAP1 PUSH2 0x229A JUMP JUMPDEST DUP2 PUSH2 0x1C6E SWAP2 SWAP1 PUSH2 0x21AB JUMP JUMPDEST SWAP1 POP DUP4 PUSH1 0xFF AND DUP6 DUP4 PUSH2 0x1C80 SWAP2 SWAP1 PUSH2 0x229A JUMP JUMPDEST SWAP1 SHR SWAP2 POP PUSH8 0x31880F2214B6E000 DUP3 PUSH2 0x1C98 SWAP2 SWAP1 PUSH2 0x229A JUMP JUMPDEST DUP2 PUSH2 0x1CA3 SWAP2 SWAP1 PUSH2 0x21AB JUMP JUMPDEST SWAP1 POP DUP4 PUSH1 0xFF AND DUP6 DUP4 PUSH2 0x1CB5 SWAP2 SWAP1 PUSH2 0x229A JUMP JUMPDEST SWAP1 SHR SWAP2 POP PUSH8 0x25BCFF56EB36000 DUP3 PUSH2 0x1CCD SWAP2 SWAP1 PUSH2 0x229A JUMP JUMPDEST DUP2 PUSH2 0x1CD8 SWAP2 SWAP1 PUSH2 0x21AB JUMP JUMPDEST SWAP1 POP DUP4 PUSH1 0xFF AND DUP6 DUP4 PUSH2 0x1CEA SWAP2 SWAP1 PUSH2 0x229A JUMP JUMPDEST SWAP1 SHR SWAP2 POP PUSH7 0x1B722E10AB1000 DUP3 PUSH2 0x1D01 SWAP2 SWAP1 PUSH2 0x229A JUMP JUMPDEST DUP2 PUSH2 0x1D0C SWAP2 SWAP1 PUSH2 0x21AB JUMP JUMPDEST SWAP1 POP DUP4 PUSH1 0xFF AND DUP6 DUP4 PUSH2 0x1D1E SWAP2 SWAP1 PUSH2 0x229A JUMP JUMPDEST SWAP1 SHR SWAP2 POP PUSH7 0x1317C70077000 DUP3 PUSH2 0x1D35 SWAP2 SWAP1 PUSH2 0x229A JUMP JUMPDEST DUP2 PUSH2 0x1D40 SWAP2 SWAP1 PUSH2 0x21AB JUMP JUMPDEST SWAP1 POP DUP4 PUSH1 0xFF AND DUP6 DUP4 PUSH2 0x1D52 SWAP2 SWAP1 PUSH2 0x229A JUMP JUMPDEST SWAP1 SHR SWAP2 POP PUSH6 0xCBA84AAFA00 DUP3 PUSH2 0x1D68 SWAP2 SWAP1 PUSH2 0x229A JUMP JUMPDEST DUP2 PUSH2 0x1D73 SWAP2 SWAP1 PUSH2 0x21AB JUMP JUMPDEST SWAP1 POP DUP4 PUSH1 0xFF AND DUP6 DUP4 PUSH2 0x1D85 SWAP2 SWAP1 PUSH2 0x229A JUMP JUMPDEST SWAP1 SHR SWAP2 POP PUSH5 0x82573A0A00 DUP3 PUSH2 0x1D9A SWAP2 SWAP1 PUSH2 0x229A JUMP JUMPDEST DUP2 PUSH2 0x1DA5 SWAP2 SWAP1 PUSH2 0x21AB JUMP JUMPDEST SWAP1 POP DUP4 PUSH1 0xFF AND DUP6 DUP4 PUSH2 0x1DB7 SWAP2 SWAP1 PUSH2 0x229A JUMP JUMPDEST SWAP1 SHR SWAP2 POP PUSH5 0x5035AD900 DUP3 PUSH2 0x1DCC SWAP2 SWAP1 PUSH2 0x229A JUMP JUMPDEST DUP2 PUSH2 0x1DD7 SWAP2 SWAP1 PUSH2 0x21AB JUMP JUMPDEST SWAP1 POP DUP4 PUSH1 0xFF AND DUP6 DUP4 PUSH2 0x1DE9 SWAP2 SWAP1 PUSH2 0x229A JUMP JUMPDEST SWAP1 SHR SWAP2 POP PUSH4 0x2F881B00 DUP3 PUSH2 0x1DFD SWAP2 SWAP1 PUSH2 0x229A JUMP JUMPDEST DUP2 PUSH2 0x1E08 SWAP2 SWAP1 PUSH2 0x21AB JUMP JUMPDEST SWAP1 POP DUP4 PUSH1 0xFF AND DUP6 DUP4 PUSH2 0x1E1A SWAP2 SWAP1 PUSH2 0x229A JUMP JUMPDEST SWAP1 SHR SWAP2 POP PUSH4 0x1B29340 DUP3 PUSH2 0x1E2E SWAP2 SWAP1 PUSH2 0x229A JUMP JUMPDEST DUP2 PUSH2 0x1E39 SWAP2 SWAP1 PUSH2 0x21AB JUMP JUMPDEST SWAP1 POP DUP4 PUSH1 0xFF AND DUP6 DUP4 PUSH2 0x1E4B SWAP2 SWAP1 PUSH2 0x229A JUMP JUMPDEST SWAP1 SHR SWAP2 POP PUSH3 0xEFC40 DUP3 PUSH2 0x1E5E SWAP2 SWAP1 PUSH2 0x229A JUMP JUMPDEST DUP2 PUSH2 0x1E69 SWAP2 SWAP1 PUSH2 0x21AB JUMP JUMPDEST SWAP1 POP DUP4 PUSH1 0xFF AND DUP6 DUP4 PUSH2 0x1E7B SWAP2 SWAP1 PUSH2 0x229A JUMP JUMPDEST SWAP1 SHR SWAP2 POP PUSH2 0x7FE0 DUP3 PUSH2 0x1E8D SWAP2 SWAP1 PUSH2 0x229A JUMP JUMPDEST DUP2 PUSH2 0x1E98 SWAP2 SWAP1 PUSH2 0x21AB JUMP JUMPDEST SWAP1 POP DUP4 PUSH1 0xFF AND DUP6 DUP4 PUSH2 0x1EAA SWAP2 SWAP1 PUSH2 0x229A JUMP JUMPDEST SWAP1 SHR SWAP2 POP PUSH2 0x420 DUP3 PUSH2 0x1EBC SWAP2 SWAP1 PUSH2 0x229A JUMP JUMPDEST DUP2 PUSH2 0x1EC7 SWAP2 SWAP1 PUSH2 0x21AB JUMP JUMPDEST SWAP1 POP DUP4 PUSH1 0xFF AND DUP6 DUP4 PUSH2 0x1ED9 SWAP2 SWAP1 PUSH2 0x229A JUMP JUMPDEST SWAP1 SHR SWAP2 POP PUSH1 0x21 DUP3 PUSH2 0x1EEA SWAP2 SWAP1 PUSH2 0x229A JUMP JUMPDEST DUP2 PUSH2 0x1EF5 SWAP2 SWAP1 PUSH2 0x21AB JUMP JUMPDEST SWAP1 POP DUP4 PUSH1 0xFF AND DUP6 DUP4 PUSH2 0x1F07 SWAP2 SWAP1 PUSH2 0x229A JUMP JUMPDEST SWAP1 SHR SWAP2 POP PUSH1 0x1 DUP3 PUSH2 0x1F18 SWAP2 SWAP1 PUSH2 0x229A JUMP JUMPDEST DUP2 PUSH2 0x1F23 SWAP2 SWAP1 PUSH2 0x21AB JUMP JUMPDEST SWAP1 POP DUP4 PUSH1 0xFF AND PUSH1 0x1 SWAP1 SHL DUP6 PUSH16 0x688589CC0E9505E2F2FEE5580000000 DUP4 PUSH2 0x1F4A SWAP2 SWAP1 PUSH2 0x2238 JUMP JUMPDEST PUSH2 0x1F54 SWAP2 SWAP1 PUSH2 0x21AB JUMP JUMPDEST PUSH2 0x1F5E SWAP2 SWAP1 PUSH2 0x21AB JUMP JUMPDEST SWAP3 POP POP POP SWAP3 SWAP2 POP POP JUMP JUMPDEST PUSH1 0x0 DUP1 PUSH1 0x0 SWAP1 POP PUSH1 0x0 DUP4 SWAP1 POP PUSH2 0x100 DUP2 LT ISZERO PUSH2 0x1FA8 JUMPI JUMPDEST PUSH1 0x1 DUP2 GT ISZERO PUSH2 0x1FA3 JUMPI PUSH1 0x1 DUP2 SWAP1 SHR SWAP1 POP PUSH1 0x1 DUP3 PUSH2 0x1F9C SWAP2 SWAP1 PUSH2 0x2201 JUMP JUMPDEST SWAP2 POP PUSH2 0x1F7F JUMP JUMPDEST PUSH2 0x1FE9 JUMP JUMPDEST PUSH1 0x0 PUSH1 0x80 SWAP1 POP JUMPDEST PUSH1 0x0 DUP2 PUSH1 0xFF AND GT ISZERO PUSH2 0x1FE7 JUMPI DUP1 PUSH1 0xFF AND PUSH1 0x1 SWAP1 SHL DUP3 LT PUSH2 0x1FD8 JUMPI DUP1 PUSH1 0xFF AND DUP3 SWAP1 SHR SWAP2 POP DUP1 DUP4 OR SWAP3 POP JUMPDEST PUSH1 0x1 DUP2 PUSH1 0xFF AND SWAP1 SHR SWAP1 POP PUSH2 0x1FAF JUMP JUMPDEST POP JUMPDEST DUP2 SWAP3 POP POP POP SWAP2 SWAP1 POP JUMP JUMPDEST PUSH1 0x0 DUP2 CALLDATALOAD SWAP1 POP PUSH2 0x2002 DUP2 PUSH2 0x24E1 JUMP JUMPDEST SWAP3 SWAP2 POP POP JUMP JUMPDEST PUSH1 0x0 DUP2 CALLDATALOAD SWAP1 POP PUSH2 0x2017 DUP2 PUSH2 0x24F8 JUMP JUMPDEST SWAP3 SWAP2 POP POP JUMP JUMPDEST PUSH1 0x0 DUP1 PUSH1 0x0 DUP1 PUSH1 0x80 DUP6 DUP8 SUB SLT ISZERO PUSH2 0x2033 JUMPI PUSH1 0x0 DUP1 REVERT JUMPDEST PUSH1 0x0 PUSH2 0x2041 DUP8 DUP3 DUP9 ADD PUSH2 0x1FF3 JUMP JUMPDEST SWAP5 POP POP PUSH1 0x20 PUSH2 0x2052 DUP8 DUP3 DUP9 ADD PUSH2 0x1FF3 JUMP JUMPDEST SWAP4 POP POP PUSH1 0x40 PUSH2 0x2063 DUP8 DUP3 DUP9 ADD PUSH2 0x2008 JUMP JUMPDEST SWAP3 POP POP PUSH1 0x60 PUSH2 0x2074 DUP8 DUP3 DUP9 ADD PUSH2 0x1FF3 JUMP JUMPDEST SWAP2 POP POP SWAP3 SWAP6 SWAP2 SWAP5 POP SWAP3 POP JUMP JUMPDEST PUSH1 0x0 PUSH2 0x208B DUP3 PUSH2 0x218F JUMP JUMPDEST PUSH2 0x2095 DUP2 DUP6 PUSH2 0x219A JUMP JUMPDEST SWAP4 POP PUSH2 0x20A5 DUP2 DUP6 PUSH1 0x20 DUP7 ADD PUSH2 0x2383 JUMP JUMPDEST PUSH2 0x20AE DUP2 PUSH2 0x24D0 JUMP JUMPDEST DUP5 ADD SWAP2 POP POP SWAP3 SWAP2 POP POP JUMP JUMPDEST PUSH1 0x0 PUSH2 0x20C6 PUSH1 0x1C DUP4 PUSH2 0x219A JUMP JUMPDEST SWAP2 POP PUSH32 0x4261736573203C203120617265206E6F7420737570706F727465642E00000000 PUSH1 0x0 DUP4 ADD MSTORE PUSH1 0x20 DUP3 ADD SWAP1 POP SWAP2 SWAP1 POP JUMP JUMPDEST PUSH2 0x2102 DUP2 PUSH2 0x235C JUMP JUMPDEST DUP3 MSTORE POP POP JUMP JUMPDEST PUSH2 0x2111 DUP2 PUSH2 0x2366 JUMP JUMPDEST DUP3 MSTORE POP POP JUMP JUMPDEST PUSH1 0x0 PUSH1 0x20 DUP3 ADD SWAP1 POP DUP2 DUP2 SUB PUSH1 0x0 DUP4 ADD MSTORE PUSH2 0x2131 DUP2 DUP5 PUSH2 0x2080 JUMP JUMPDEST SWAP1 POP SWAP3 SWAP2 POP POP JUMP JUMPDEST PUSH1 0x0 PUSH1 0x20 DUP3 ADD SWAP1 POP DUP2 DUP2 SUB PUSH1 0x0 DUP4 ADD MSTORE PUSH2 0x2152 DUP2 PUSH2 0x20B9 JUMP JUMPDEST SWAP1 POP SWAP2 SWAP1 POP JUMP JUMPDEST PUSH1 0x0 PUSH1 0x20 DUP3 ADD SWAP1 POP PUSH2 0x216E PUSH1 0x0 DUP4 ADD DUP5 PUSH2 0x20F9 JUMP JUMPDEST SWAP3 SWAP2 POP POP JUMP JUMPDEST PUSH1 0x0 PUSH1 0x20 DUP3 ADD SWAP1 POP PUSH2 0x2189 PUSH1 0x0 DUP4 ADD DUP5 PUSH2 0x2108 JUMP JUMPDEST SWAP3 SWAP2 POP POP JUMP JUMPDEST PUSH1 0x0 DUP2 MLOAD SWAP1 POP SWAP2 SWAP1 POP JUMP JUMPDEST PUSH1 0x0 DUP3 DUP3 MSTORE PUSH1 0x20 DUP3 ADD SWAP1 POP SWAP3 SWAP2 POP POP JUMP JUMPDEST PUSH1 0x0 PUSH2 0x21B6 DUP3 PUSH2 0x235C JUMP JUMPDEST SWAP2 POP PUSH2 0x21C1 DUP4 PUSH2 0x235C JUMP JUMPDEST SWAP3 POP DUP3 PUSH32 0xFFFFFFFFFFFFFFFFFFFFFFFFFFFFFFFFFFFFFFFFFFFFFFFFFFFFFFFFFFFFFFFF SUB DUP3 GT ISZERO PUSH2 0x21F6 JUMPI PUSH2 0x21F5 PUSH2 0x2443 JUMP JUMPDEST JUMPDEST DUP3 DUP3 ADD SWAP1 POP SWAP3 SWAP2 POP POP JUMP JUMPDEST PUSH1 0x0 PUSH2 0x220C DUP3 PUSH2 0x2376 JUMP JUMPDEST SWAP2 POP PUSH2 0x2217 DUP4 PUSH2 0x2376 JUMP JUMPDEST SWAP3 POP DUP3 PUSH1 0xFF SUB DUP3 GT ISZERO PUSH2 0x222D JUMPI PUSH2 0x222C PUSH2 0x2443 JUMP JUMPDEST JUMPDEST DUP3 DUP3 ADD SWAP1 POP SWAP3 SWAP2 POP POP JUMP JUMPDEST PUSH1 0x0 PUSH2 0x2243 DUP3 PUSH2 0x235C JUMP JUMPDEST SWAP2 POP PUSH2 0x224E DUP4 PUSH2 0x235C JUMP JUMPDEST SWAP3 POP DUP3 PUSH2 0x225E JUMPI PUSH2 0x225D PUSH2 0x2472 JUMP JUMPDEST JUMPDEST DUP3 DUP3 DIV SWAP1 POP SWAP3 SWAP2 POP POP JUMP JUMPDEST PUSH1 0x0 PUSH2 0x2274 DUP3 PUSH2 0x2376 JUMP JUMPDEST SWAP2 POP PUSH2 0x227F DUP4 PUSH2 0x2376 JUMP JUMPDEST SWAP3 POP DUP3 PUSH2 0x228F JUMPI PUSH2 0x228E PUSH2 0x2472 JUMP JUMPDEST JUMPDEST DUP3 DUP3 DIV SWAP1 POP SWAP3 SWAP2 POP POP JUMP JUMPDEST PUSH1 0x0 PUSH2 0x22A5 DUP3 PUSH2 0x235C JUMP JUMPDEST SWAP2 POP PUSH2 0x22B0 DUP4 PUSH2 0x235C JUMP JUMPDEST SWAP3 POP DUP2 PUSH32 0xFFFFFFFFFFFFFFFFFFFFFFFFFFFFFFFFFFFFFFFFFFFFFFFFFFFFFFFFFFFFFFFF DIV DUP4 GT DUP3 ISZERO ISZERO AND ISZERO PUSH2 0x22E9 JUMPI PUSH2 0x22E8 PUSH2 0x2443 JUMP JUMPDEST JUMPDEST DUP3 DUP3 MUL SWAP1 POP SWAP3 SWAP2 POP POP JUMP JUMPDEST PUSH1 0x0 PUSH2 0x22FF DUP3 PUSH2 0x235C JUMP JUMPDEST SWAP2 POP PUSH2 0x230A DUP4 PUSH2 0x235C JUMP JUMPDEST SWAP3 POP DUP3 DUP3 LT ISZERO PUSH2 0x231D JUMPI PUSH2 0x231C PUSH2 0x2443 JUMP JUMPDEST JUMPDEST DUP3 DUP3 SUB SWAP1 POP SWAP3 SWAP2 POP POP JUMP JUMPDEST PUSH1 0x0 PUSH2 0x2333 DUP3 PUSH2 0x2376 JUMP JUMPDEST SWAP2 POP PUSH2 0x233E DUP4 PUSH2 0x2376 JUMP JUMPDEST SWAP3 POP DUP3 DUP3 LT ISZERO PUSH2 0x2351 JUMPI PUSH2 0x2350 PUSH2 0x2443 JUMP JUMPDEST JUMPDEST DUP3 DUP3 SUB SWAP1 POP SWAP3 SWAP2 POP POP JUMP JUMPDEST PUSH1 0x0 DUP2 SWAP1 POP SWAP2 SWAP1 POP JUMP JUMPDEST PUSH1 0x0 PUSH4 0xFFFFFFFF DUP3 AND SWAP1 POP SWAP2 SWAP1 POP JUMP JUMPDEST PUSH1 0x0 PUSH1 0xFF DUP3 AND SWAP1 POP SWAP2 SWAP1 POP JUMP JUMPDEST PUSH1 0x0 JUMPDEST DUP4 DUP2 LT ISZERO PUSH2 0x23A1 JUMPI DUP1 DUP3 ADD MLOAD DUP2 DUP5 ADD MSTORE PUSH1 0x20 DUP2 ADD SWAP1 POP PUSH2 0x2386 JUMP JUMPDEST DUP4 DUP2 GT ISZERO PUSH2 0x23B0 JUMPI PUSH1 0x0 DUP5 DUP5 ADD MSTORE JUMPDEST POP POP POP POP JUMP JUMPDEST PUSH1 0x0 PUSH2 0x23C1 DUP3 PUSH2 0x2376 JUMP JUMPDEST SWAP2 POP PUSH1 0x0 DUP3 EQ ISZERO PUSH2 0x23D5 JUMPI PUSH2 0x23D4 PUSH2 0x2443 JUMP JUMPDEST JUMPDEST PUSH1 0x1 DUP3 SUB SWAP1 POP SWAP2 SWAP1 POP JUMP JUMPDEST PUSH1 0x0 PUSH1 0x2 DUP3 DIV SWAP1 POP PUSH1 0x1 DUP3 AND DUP1 PUSH2 0x23F8 JUMPI PUSH1 0x7F DUP3 AND SWAP2 POP JUMPDEST PUSH1 0x20 DUP3 LT DUP2 EQ ISZERO PUSH2 0x240C JUMPI PUSH2 0x240B PUSH2 0x24A1 JUMP JUMPDEST JUMPDEST POP SWAP2 SWAP1 POP JUMP JUMPDEST PUSH1 0x0 PUSH2 0x241D DUP3 PUSH2 0x235C JUMP JUMPDEST SWAP2 POP PUSH2 0x2428 DUP4 PUSH2 0x235C JUMP JUMPDEST SWAP3 POP DUP3 PUSH2 0x2438 JUMPI PUSH2 0x2437 PUSH2 0x2472 JUMP JUMPDEST JUMPDEST DUP3 DUP3 MOD SWAP1 POP SWAP3 SWAP2 POP POP JUMP JUMPDEST PUSH32 0x4E487B7100000000000000000000000000000000000000000000000000000000 PUSH1 0x0 MSTORE PUSH1 0x11 PUSH1 0x4 MSTORE PUSH1 0x24 PUSH1 0x0 REVERT JUMPDEST PUSH32 0x4E487B7100000000000000000000000000000000000000000000000000000000 PUSH1 0x0 MSTORE PUSH1 0x12 PUSH1 0x4 MSTORE PUSH1 0x24 PUSH1 0x0 REVERT JUMPDEST PUSH32 0x4E487B7100000000000000000000000000000000000000000000000000000000 PUSH1 0x0 MSTORE PUSH1 0x22 PUSH1 0x4 MSTORE PUSH1 0x24 PUSH1 0x0 REVERT JUMPDEST PUSH1 0x0 PUSH1 0x1F NOT PUSH1 0x1F DUP4 ADD AND SWAP1 POP SWAP2 SWAP1 POP JUMP JUMPDEST PUSH2 0x24EA DUP2 PUSH2 0x235C JUMP JUMPDEST DUP2 EQ PUSH2 0x24F5 JUMPI PUSH1 0x0 DUP1 REVERT JUMPDEST POP JUMP JUMPDEST PUSH2 0x2501 DUP2 PUSH2 0x2366 JUMP JUMPDEST DUP2 EQ PUSH2 0x250C JUMPI PUSH1 0x0 DUP1 REVERT JUMPDEST POP JUMP INVALID LOG2 PUSH5 0x6970667358 0x22 SLT KECCAK256 PUSH2 0xC99D SHL 0xD2 LT SWAP9 MULMOD PUSH7 0x304DC3A7E9B477 CREATE2 0xF8 0xCD 0xE7 EXTCODESIZE DUP3 DUP10 SWAP5 CALLDATASIZE 0x2F SWAP10 0xDD JUMPI COINBASE SWAP4 0xE8 PUSH5 0x736F6C6343 STOP ADDMOD STOP STOP CALLER "
        },
        "methodIdentifiers": {
          "MAX_WEIGHT()": "e4a28a52",
          "calculatePurchaseReturn(uint256,uint256,uint32,uint256)": "29a00e7c",
          "calculateSaleReturn(uint256,uint256,uint32,uint256)": "49f9b0f7",
          "version()": "54fd4d50"
        }
      }
    }
  }
}