{
  "contracts/DecentraBank.sol": {
    "DecentraBank": {
      "abi": [
        {
          "inputs": [
            {
              "internalType": "address",
              "name": "_Dcore",
              "type": "address"
            },
            {
              "internalType": "address",
              "name": "_Dstock",
              "type": "address"
            },
            {
              "internalType": "address",
              "name": "_Ddollar",
              "type": "address"
            },
            {
              "internalType": "uint32",
              "name": "_connectorWeight",
              "type": "uint32"
            },
            {
              "internalType": "uint256",
              "name": "_refundRatio",
              "type": "uint256"
            }
          ],
          "stateMutability": "nonpayable",
          "type": "constructor"
        },
        {
          "anonymous": false,
          "inputs": [
            {
              "indexed": false,
              "internalType": "uint256",
              "name": "dollarAmount",
              "type": "uint256"
            },
            {
              "indexed": false,
              "internalType": "address",
              "name": "tokenType",
              "type": "address"
            }
          ],
          "name": "FundWithdrawl",
          "type": "event"
        },
        {
          "anonymous": false,
          "inputs": [
            {
              "indexed": false,
              "internalType": "address",
              "name": "collateral",
              "type": "address"
            }
          ],
          "name": "NewCollateral",
          "type": "event"
        },
        {
          "anonymous": false,
          "inputs": [
            {
              "indexed": true,
              "internalType": "address",
              "name": "previousOwner",
              "type": "address"
            },
            {
              "indexed": true,
              "internalType": "address",
              "name": "newOwner",
              "type": "address"
            }
          ],
          "name": "OwnershipTransferred",
          "type": "event"
        },
        {
          "anonymous": false,
          "inputs": [
            {
              "indexed": false,
              "internalType": "uint256",
              "name": "dollarAmount",
              "type": "uint256"
            },
            {
              "indexed": false,
              "internalType": "uint256",
              "name": "stockAmount",
              "type": "uint256"
            },
            {
              "indexed": false,
              "internalType": "address",
              "name": "buyer",
              "type": "address"
            }
          ],
          "name": "StockPurchased",
          "type": "event"
        },
        {
          "anonymous": false,
          "inputs": [
            {
              "indexed": false,
              "internalType": "uint256",
              "name": "dollarAmount",
              "type": "uint256"
            },
            {
              "indexed": false,
              "internalType": "uint256",
              "name": "stockAmount",
              "type": "uint256"
            },
            {
              "indexed": false,
              "internalType": "uint256",
              "name": "reserveAmountAdded",
              "type": "uint256"
            },
            {
              "indexed": false,
              "internalType": "address",
              "name": "seller",
              "type": "address"
            }
          ],
          "name": "StockSold",
          "type": "event"
        },
        {
          "inputs": [],
          "name": "DC",
          "outputs": [
            {
              "internalType": "contract IDecentraCore",
              "name": "",
              "type": "address"
            }
          ],
          "stateMutability": "view",
          "type": "function"
        },
        {
          "inputs": [],
          "name": "DD",
          "outputs": [
            {
              "internalType": "contract IDecentraDollar",
              "name": "",
              "type": "address"
            }
          ],
          "stateMutability": "view",
          "type": "function"
        },
        {
          "inputs": [],
          "name": "DS",
          "outputs": [
            {
              "internalType": "contract IDecentraStock",
              "name": "",
              "type": "address"
            }
          ],
          "stateMutability": "view",
          "type": "function"
        },
        {
          "inputs": [],
          "name": "MAX_WEIGHT",
          "outputs": [
            {
              "internalType": "uint32",
              "name": "",
              "type": "uint32"
            }
          ],
          "stateMutability": "view",
          "type": "function"
        },
        {
          "inputs": [
            {
              "internalType": "address",
              "name": "_collateral",
              "type": "address"
            }
          ],
          "name": "addNewCollateralType",
          "outputs": [],
          "stateMutability": "nonpayable",
          "type": "function"
        },
        {
          "inputs": [],
          "name": "calculatePoolBal",
          "outputs": [
            {
              "internalType": "uint256",
              "name": "",
              "type": "uint256"
            }
          ],
          "stateMutability": "view",
          "type": "function"
        },
        {
          "inputs": [
            {
              "internalType": "uint256",
              "name": "_dollarAmount",
              "type": "uint256"
            }
          ],
          "name": "calculatePurchase",
          "outputs": [
            {
              "internalType": "uint256",
              "name": "",
              "type": "uint256"
            }
          ],
          "stateMutability": "view",
          "type": "function"
        },
        {
          "inputs": [
            {
              "internalType": "uint256",
              "name": "_supply",
              "type": "uint256"
            },
            {
              "internalType": "uint256",
              "name": "_connectorBalance",
              "type": "uint256"
            },
            {
              "internalType": "uint32",
              "name": "_connectorWeight",
              "type": "uint32"
            },
            {
              "internalType": "uint256",
              "name": "_depositAmount",
              "type": "uint256"
            }
          ],
          "name": "calculatePurchaseReturn",
          "outputs": [
            {
              "internalType": "uint256",
              "name": "",
              "type": "uint256"
            }
          ],
          "stateMutability": "view",
          "type": "function"
        },
        {
          "inputs": [
            {
              "internalType": "uint256",
              "name": "_stockAmount",
              "type": "uint256"
            }
          ],
          "name": "calculateSale",
          "outputs": [
            {
              "internalType": "uint256",
              "name": "",
              "type": "uint256"
            }
          ],
          "stateMutability": "view",
          "type": "function"
        },
        {
          "inputs": [
            {
              "internalType": "uint256",
              "name": "_supply",
              "type": "uint256"
            },
            {
              "internalType": "uint256",
              "name": "_connectorBalance",
              "type": "uint256"
            },
            {
              "internalType": "uint32",
              "name": "_connectorWeight",
              "type": "uint32"
            },
            {
              "internalType": "uint256",
              "name": "_sellAmount",
              "type": "uint256"
            }
          ],
          "name": "calculateSaleReturn",
          "outputs": [
            {
              "internalType": "uint256",
              "name": "",
              "type": "uint256"
            }
          ],
          "stateMutability": "view",
          "type": "function"
        },
        {
          "inputs": [],
          "name": "collateralCount",
          "outputs": [
            {
              "internalType": "uint256",
              "name": "",
              "type": "uint256"
            }
          ],
          "stateMutability": "view",
          "type": "function"
        },
        {
          "inputs": [
            {
              "internalType": "uint256",
              "name": "",
              "type": "uint256"
            }
          ],
          "name": "collateralTypes",
          "outputs": [
            {
              "internalType": "address",
              "name": "",
              "type": "address"
            }
          ],
          "stateMutability": "view",
          "type": "function"
        },
        {
          "inputs": [],
          "name": "connectorWeight",
          "outputs": [
            {
              "internalType": "uint32",
              "name": "",
              "type": "uint32"
            }
          ],
          "stateMutability": "view",
          "type": "function"
        },
        {
          "inputs": [],
          "name": "divisor",
          "outputs": [
            {
              "internalType": "uint256",
              "name": "",
              "type": "uint256"
            }
          ],
          "stateMutability": "view",
          "type": "function"
        },
        {
          "inputs": [],
          "name": "fractionalReserveValue",
          "outputs": [
            {
              "internalType": "uint256",
              "name": "",
              "type": "uint256"
            }
          ],
          "stateMutability": "view",
          "type": "function"
        },
        {
          "inputs": [
            {
              "internalType": "address",
              "name": "_to",
              "type": "address"
            },
            {
              "internalType": "uint256",
              "name": "_type",
              "type": "uint256"
            },
            {
              "internalType": "uint256",
              "name": "_amount",
              "type": "uint256"
            }
          ],
          "name": "fundWithdrawl",
          "outputs": [],
          "stateMutability": "nonpayable",
          "type": "function"
        },
        {
          "inputs": [],
          "name": "lockedBalance",
          "outputs": [
            {
              "internalType": "uint256",
              "name": "",
              "type": "uint256"
            }
          ],
          "stateMutability": "view",
          "type": "function"
        },
        {
          "inputs": [],
          "name": "owner",
          "outputs": [
            {
              "internalType": "address",
              "name": "",
              "type": "address"
            }
          ],
          "stateMutability": "view",
          "type": "function"
        },
        {
          "inputs": [],
          "name": "percent",
          "outputs": [
            {
              "internalType": "uint256",
              "name": "",
              "type": "uint256"
            }
          ],
          "stateMutability": "view",
          "type": "function"
        },
        {
          "inputs": [
            {
              "internalType": "uint256",
              "name": "_amount",
              "type": "uint256"
            },
            {
              "internalType": "uint256",
              "name": "_tokenType",
              "type": "uint256"
            }
          ],
          "name": "purchaseStock",
          "outputs": [],
          "stateMutability": "payable",
          "type": "function"
        },
        {
          "inputs": [],
          "name": "refundRatio",
          "outputs": [
            {
              "internalType": "uint256",
              "name": "",
              "type": "uint256"
            }
          ],
          "stateMutability": "view",
          "type": "function"
        },
        {
          "inputs": [],
          "name": "renounceOwnership",
          "outputs": [],
          "stateMutability": "nonpayable",
          "type": "function"
        },
        {
          "inputs": [
            {
              "internalType": "uint256",
              "name": "_amount",
              "type": "uint256"
            }
          ],
          "name": "sellStock",
          "outputs": [],
          "stateMutability": "nonpayable",
          "type": "function"
        },
        {
          "inputs": [],
          "name": "setUp",
          "outputs": [],
          "stateMutability": "nonpayable",
          "type": "function"
        },
        {
          "inputs": [
            {
              "internalType": "address",
              "name": "newOwner",
              "type": "address"
            }
          ],
          "name": "transferOwnership",
          "outputs": [],
          "stateMutability": "nonpayable",
          "type": "function"
        },
        {
          "inputs": [],
          "name": "version",
          "outputs": [
            {
              "internalType": "string",
              "name": "",
              "type": "string"
            }
          ],
          "stateMutability": "view",
          "type": "function"
        }
      ],
      "evm": {
        "bytecode": {
          "linkReferences": {},
          "object": "60806040526040518060400160405280600381526020017f302e330000000000000000000000000000000000000000000000000000000000815250600190805190602001906200005192919062002271565b503480156200005f57600080fd5b506040516200654238038062006542833981810160405281019062000085919062002366565b6000620000976200226960201b60201c565b9050806000806101000a81548173ffffffffffffffffffffffffffffffffffffffff021916908373ffffffffffffffffffffffffffffffffffffffff1602179055508073ffffffffffffffffffffffffffffffffffffffff16600073ffffffffffffffffffffffffffffffffffffffff167f8be0079c531659141344cd1fd0a4f28419497f9722a3daafe3b4186f6b6457e060405160405180910390a350701c35fedd14ffffffffffffffffffffffff600260206080811062000183577f4e487b7100000000000000000000000000000000000000000000000000000000600052603260045260246000fd5b0181905550701b0ce43b323fffffffffffffffffffffff6002602160808110620001d6577f4e487b7100000000000000000000000000000000000000000000000000000000600052603260045260246000fd5b01819055507019f0028ec1ffffffffffffffffffffffff600260226080811062000229577f4e487b7100000000000000000000000000000000000000000000000000000000600052603260045260246000fd5b01819055507018ded91f0e7fffffffffffffffffffffff60026023608081106200027c577f4e487b7100000000000000000000000000000000000000000000000000000000600052603260045260246000fd5b01819055507017d8ec7f0417ffffffffffffffffffffff6002602460808110620002cf577f4e487b7100000000000000000000000000000000000000000000000000000000600052603260045260246000fd5b01819055507016ddc6556cdbffffffffffffffffffffff600260256080811062000322577f4e487b7100000000000000000000000000000000000000000000000000000000600052603260045260246000fd5b01819055507015ecf52776a1ffffffffffffffffffffff600260266080811062000375577f4e487b7100000000000000000000000000000000000000000000000000000000600052603260045260246000fd5b01819055507015060c256cb2ffffffffffffffffffffff6002602760808110620003c8577f4e487b7100000000000000000000000000000000000000000000000000000000600052603260045260246000fd5b0181905550701428a2f98d72ffffffffffffffffffffff60026028608081106200041b577f4e487b7100000000000000000000000000000000000000000000000000000000600052603260045260246000fd5b01819055507013545598e5c23fffffffffffffffffffff60026029608081106200046e577f4e487b7100000000000000000000000000000000000000000000000000000000600052603260045260246000fd5b0181905550701288c4161ce1dfffffffffffffffffffff6002602a60808110620004c1577f4e487b7100000000000000000000000000000000000000000000000000000000600052603260045260246000fd5b01819055507011c592761c666fffffffffffffffffffff6002602b6080811062000514577f4e487b7100000000000000000000000000000000000000000000000000000000600052603260045260246000fd5b018190555070110a688680a757ffffffffffffffffffff6002602c6080811062000567577f4e487b7100000000000000000000000000000000000000000000000000000000600052603260045260246000fd5b0181905550701056f1b5bedf77ffffffffffffffffffff6002602d60808110620005ba577f4e487b7100000000000000000000000000000000000000000000000000000000600052603260045260246000fd5b0181905550700faadceceeff8bffffffffffffffffffff6002602e608081106200060d577f4e487b7100000000000000000000000000000000000000000000000000000000600052603260045260246000fd5b0181905550700f05dc6b27edadffffffffffffffffffff6002602f6080811062000660577f4e487b7100000000000000000000000000000000000000000000000000000000600052603260045260246000fd5b0181905550700e67a5a25da4107fffffffffffffffffff6002603060808110620006b3577f4e487b7100000000000000000000000000000000000000000000000000000000600052603260045260246000fd5b0181905550700dcff115b14eedffffffffffffffffffff600260316080811062000706577f4e487b7100000000000000000000000000000000000000000000000000000000600052603260045260246000fd5b0181905550700d3e7a392431239fffffffffffffffffff600260326080811062000759577f4e487b7100000000000000000000000000000000000000000000000000000000600052603260045260246000fd5b0181905550700cb2ff529eb71e4fffffffffffffffffff6002603360808110620007ac577f4e487b7100000000000000000000000000000000000000000000000000000000600052603260045260246000fd5b0181905550700c2d415c3db974afffffffffffffffffff6002603460808110620007ff577f4e487b7100000000000000000000000000000000000000000000000000000000600052603260045260246000fd5b0181905550700bad03e7d883f69bffffffffffffffffff600260356080811062000852577f4e487b7100000000000000000000000000000000000000000000000000000000600052603260045260246000fd5b0181905550700b320d03b2c343d5ffffffffffffffffff6002603660808110620008a5577f4e487b7100000000000000000000000000000000000000000000000000000000600052603260045260246000fd5b0181905550700abc25204e02828dffffffffffffffffff6002603760808110620008f8577f4e487b7100000000000000000000000000000000000000000000000000000000600052603260045260246000fd5b0181905550700a4b16f74ee4bb207fffffffffffffffff60026038608081106200094b577f4e487b7100000000000000000000000000000000000000000000000000000000600052603260045260246000fd5b01819055507009deaf736ac1f569ffffffffffffffffff60026039608081106200099e577f4e487b7100000000000000000000000000000000000000000000000000000000600052603260045260246000fd5b0181905550700976bd9952c7aa957fffffffffffffffff6002603a60808110620009f1577f4e487b7100000000000000000000000000000000000000000000000000000000600052603260045260246000fd5b01819055507009131271922eaa606fffffffffffffffff6002603b6080811062000a44577f4e487b7100000000000000000000000000000000000000000000000000000000600052603260045260246000fd5b01819055507008b380f3558668c46fffffffffffffffff6002603c6080811062000a97577f4e487b7100000000000000000000000000000000000000000000000000000000600052603260045260246000fd5b0181905550700857ddf0117efa215bffffffffffffffff6002603d6080811062000aea577f4e487b7100000000000000000000000000000000000000000000000000000000600052603260045260246000fd5b01819055507007ffffffffffffffffffffffffffffffff6002603e6080811062000b3d577f4e487b7100000000000000000000000000000000000000000000000000000000600052603260045260246000fd5b01819055507007abbf6f6abb9d087fffffffffffffffff6002603f6080811062000b90577f4e487b7100000000000000000000000000000000000000000000000000000000600052603260045260246000fd5b018190555070075af62cbac95f7dfa7fffffffffffffff600260406080811062000be3577f4e487b7100000000000000000000000000000000000000000000000000000000600052603260045260246000fd5b018190555070070d7fb7452e187ac13fffffffffffffff600260416080811062000c36577f4e487b7100000000000000000000000000000000000000000000000000000000600052603260045260246000fd5b01819055507006c3390ecc8af379295fffffffffffffff600260426080811062000c89577f4e487b7100000000000000000000000000000000000000000000000000000000600052603260045260246000fd5b018190555070067c00a3b07ffc01fd6fffffffffffffff600260436080811062000cdc577f4e487b7100000000000000000000000000000000000000000000000000000000600052603260045260246000fd5b0181905550700637b647c39cbb9d3d27ffffffffffffff600260446080811062000d2f577f4e487b7100000000000000000000000000000000000000000000000000000000600052603260045260246000fd5b01819055507005f63b1fc104dbd39587ffffffffffffff600260456080811062000d82577f4e487b7100000000000000000000000000000000000000000000000000000000600052603260045260246000fd5b01819055507005b771955b36e12f7235ffffffffffffff600260466080811062000dd5577f4e487b7100000000000000000000000000000000000000000000000000000000600052603260045260246000fd5b018190555070057b3d49dda84556d6f6ffffffffffffff600260476080811062000e28577f4e487b7100000000000000000000000000000000000000000000000000000000600052603260045260246000fd5b018190555070054183095b2c8ececf30ffffffffffffff600260486080811062000e7b577f4e487b7100000000000000000000000000000000000000000000000000000000600052603260045260246000fd5b018190555070050a28be635ca2b888f77fffffffffffff600260496080811062000ece577f4e487b7100000000000000000000000000000000000000000000000000000000600052603260045260246000fd5b01819055507004d5156639708c9db33c3fffffffffffff6002604a6080811062000f21577f4e487b7100000000000000000000000000000000000000000000000000000000600052603260045260246000fd5b01819055507004a23105873875bd52dfdfffffffffffff6002604b6080811062000f74577f4e487b7100000000000000000000000000000000000000000000000000000000600052603260045260246000fd5b0181905550700471649d87199aa990756fffffffffffff6002604c6080811062000fc7577f4e487b7100000000000000000000000000000000000000000000000000000000600052603260045260246000fd5b01819055507004429a21a029d4c1457cfbffffffffffff6002604d608081106200101a577f4e487b7100000000000000000000000000000000000000000000000000000000600052603260045260246000fd5b0181905550700415bc6d6fb7dd71af2cb3ffffffffffff6002604e608081106200106d577f4e487b7100000000000000000000000000000000000000000000000000000000600052603260045260246000fd5b01819055507003eab73b3bbfe282243ce1ffffffffffff6002604f60808110620010c0577f4e487b7100000000000000000000000000000000000000000000000000000000600052603260045260246000fd5b01819055507003c1771ac9fb6b4c18e229ffffffffffff600260506080811062001113577f4e487b7100000000000000000000000000000000000000000000000000000000600052603260045260246000fd5b0181905550700399e96897690418f785257fffffffffff600260516080811062001166577f4e487b7100000000000000000000000000000000000000000000000000000000600052603260045260246000fd5b0181905550700373fc456c53bb779bf0ea9fffffffffff6002605260808110620011b9577f4e487b7100000000000000000000000000000000000000000000000000000000600052603260045260246000fd5b018190555070034f9e8e490c48e67e6ab8bfffffffffff60026053608081106200120c577f4e487b7100000000000000000000000000000000000000000000000000000000600052603260045260246000fd5b018190555070032cbfd4a7adc790560b3337ffffffffff60026054608081106200125f577f4e487b7100000000000000000000000000000000000000000000000000000000600052603260045260246000fd5b018190555070030b50570f6e5d2acca94613ffffffffff6002605560808110620012b2577f4e487b7100000000000000000000000000000000000000000000000000000000600052603260045260246000fd5b01819055507002eb40f9f620fda6b56c2861ffffffffff600260566080811062001305577f4e487b7100000000000000000000000000000000000000000000000000000000600052603260045260246000fd5b01819055507002cc8340ecb0d0f520a6af58ffffffffff600260576080811062001358577f4e487b7100000000000000000000000000000000000000000000000000000000600052603260045260246000fd5b01819055507002af09481380a0a35cf1ba02ffffffffff6002605860808110620013ab577f4e487b7100000000000000000000000000000000000000000000000000000000600052603260045260246000fd5b0181905550700292c5bdd3b92ec810287b1b3fffffffff6002605960808110620013fe577f4e487b7100000000000000000000000000000000000000000000000000000000600052603260045260246000fd5b0181905550700277abdcdab07d5a77ac6d6b9fffffffff6002605a6080811062001451577f4e487b7100000000000000000000000000000000000000000000000000000000600052603260045260246000fd5b018190555070025daf6654b1eaa55fd64df5efffffffff6002605b60808110620014a4577f4e487b7100000000000000000000000000000000000000000000000000000000600052603260045260246000fd5b0181905550700244c49c648baa98192dce88b7ffffffff6002605c60808110620014f7577f4e487b7100000000000000000000000000000000000000000000000000000000600052603260045260246000fd5b018190555070022ce03cd5619a311b2471268bffffffff6002605d608081106200154a577f4e487b7100000000000000000000000000000000000000000000000000000000600052603260045260246000fd5b0181905550700215f77c045fbe885654a44a0fffffffff6002605e608081106200159d577f4e487b7100000000000000000000000000000000000000000000000000000000600052603260045260246000fd5b01819055507001ffffffffffffffffffffffffffffffff6002605f60808110620015f0577f4e487b7100000000000000000000000000000000000000000000000000000000600052603260045260246000fd5b01819055507001eaefdbdaaee7421fc4d3ede5ffffffff600260606080811062001643577f4e487b7100000000000000000000000000000000000000000000000000000000600052603260045260246000fd5b01819055507001d6bd8b2eb257df7e8ca57b09bfffffff600260616080811062001696577f4e487b7100000000000000000000000000000000000000000000000000000000600052603260045260246000fd5b01819055507001c35fedd14b861eb0443f7f133fffffff6002606260808110620016e9577f4e487b7100000000000000000000000000000000000000000000000000000000600052603260045260246000fd5b01819055507001b0ce43b322bcde4a56e8ada5afffffff60026063608081106200173c577f4e487b7100000000000000000000000000000000000000000000000000000000600052603260045260246000fd5b018190555070019f0028ec1fff007f5a195a39dfffffff60026064608081106200178f577f4e487b7100000000000000000000000000000000000000000000000000000000600052603260045260246000fd5b018190555070018ded91f0e72ee74f49b15ba527ffffff6002606560808110620017e2577f4e487b7100000000000000000000000000000000000000000000000000000000600052603260045260246000fd5b018190555070017d8ec7f04136f4e5615fd41a63ffffff600260666080811062001835577f4e487b7100000000000000000000000000000000000000000000000000000000600052603260045260246000fd5b018190555070016ddc6556cdb84bdc8d12d22e6fffffff600260676080811062001888577f4e487b7100000000000000000000000000000000000000000000000000000000600052603260045260246000fd5b018190555070015ecf52776a1155b5bd8395814f7fffff6002606860808110620018db577f4e487b7100000000000000000000000000000000000000000000000000000000600052603260045260246000fd5b018190555070015060c256cb23b3b3cc3754cf40ffffff60026069608081106200192e577f4e487b7100000000000000000000000000000000000000000000000000000000600052603260045260246000fd5b01819055507001428a2f98d728ae223ddab715be3fffff6002606a6080811062001981577f4e487b7100000000000000000000000000000000000000000000000000000000600052603260045260246000fd5b018190555070013545598e5c23276ccf0ede68034fffff6002606b60808110620019d4577f4e487b7100000000000000000000000000000000000000000000000000000000600052603260045260246000fd5b01819055507001288c4161ce1d6f54b7f61081194fffff6002606c6080811062001a27577f4e487b7100000000000000000000000000000000000000000000000000000000600052603260045260246000fd5b018190555070011c592761c666aa641d5a01a40f17ffff6002606d6080811062001a7a577f4e487b7100000000000000000000000000000000000000000000000000000000600052603260045260246000fd5b0181905550700110a688680a7530515f3e6e6cfdcdffff6002606e6080811062001acd577f4e487b7100000000000000000000000000000000000000000000000000000000600052603260045260246000fd5b01819055507001056f1b5bedf75c6bcb2ce8aed428ffff6002606f6080811062001b20577f4e487b7100000000000000000000000000000000000000000000000000000000600052603260045260246000fd5b01819055506ffaadceceeff8a0890f3875f008277fff600260706080811062001b72577f4e487b7100000000000000000000000000000000000000000000000000000000600052603260045260246000fd5b01819055506ff05dc6b27edad306388a600f6ba0bfff600260716080811062001bc4577f4e487b7100000000000000000000000000000000000000000000000000000000600052603260045260246000fd5b01819055506fe67a5a25da41063de1495d5b18cdbfff600260726080811062001c16577f4e487b7100000000000000000000000000000000000000000000000000000000600052603260045260246000fd5b01819055506fdcff115b14eedde6fc3aa5353f2e4fff600260736080811062001c68577f4e487b7100000000000000000000000000000000000000000000000000000000600052603260045260246000fd5b01819055506fd3e7a3924312399f9aae2e0f868f8fff600260746080811062001cba577f4e487b7100000000000000000000000000000000000000000000000000000000600052603260045260246000fd5b01819055506fcb2ff529eb71e41582cccd5a1ee26fff600260756080811062001d0c577f4e487b7100000000000000000000000000000000000000000000000000000000600052603260045260246000fd5b01819055506fc2d415c3db974ab32a51840c0b67edff600260766080811062001d5e577f4e487b7100000000000000000000000000000000000000000000000000000000600052603260045260246000fd5b01819055506fbad03e7d883f69ad5b0a186184e06bff600260776080811062001db0577f4e487b7100000000000000000000000000000000000000000000000000000000600052603260045260246000fd5b01819055506fb320d03b2c343d4829abd6075f0cc5ff600260786080811062001e02577f4e487b7100000000000000000000000000000000000000000000000000000000600052603260045260246000fd5b01819055506fabc25204e02828d73c6e80bcdb1a95bf600260796080811062001e54577f4e487b7100000000000000000000000000000000000000000000000000000000600052603260045260246000fd5b01819055506fa4b16f74ee4bb2040a1ec6c15fbbf2df6002607a6080811062001ea6577f4e487b7100000000000000000000000000000000000000000000000000000000600052603260045260246000fd5b01819055506f9deaf736ac1f569deb1b5ae3f36c130f6002607b6080811062001ef8577f4e487b7100000000000000000000000000000000000000000000000000000000600052603260045260246000fd5b01819055506f976bd9952c7aa957f5937d790ef650376002607c6080811062001f4a577f4e487b7100000000000000000000000000000000000000000000000000000000600052603260045260246000fd5b01819055506f9131271922eaa6064b73a22d0bd4f2bf6002607d6080811062001f9c577f4e487b7100000000000000000000000000000000000000000000000000000000600052603260045260246000fd5b01819055506f8b380f3558668c46c91c49a2f8e967b96002607e6080811062001fee577f4e487b7100000000000000000000000000000000000000000000000000000000600052603260045260246000fd5b01819055506f857ddf0117efa215952912839f6473e66002607f6080811062002040577f4e487b7100000000000000000000000000000000000000000000000000000000600052603260045260246000fd5b0181905550620f4240608260006101000a81548163ffffffff021916908363ffffffff16021790555082608960006101000a81548173ffffffffffffffffffffffffffffffffffffffff021916908373ffffffffffffffffffffffffffffffffffffffff16021790555083608a60006101000a81548173ffffffffffffffffffffffffffffffffffffffff021916908373ffffffffffffffffffffffffffffffffffffffff16021790555084608b60006101000a81548173ffffffffffffffffffffffffffffffffffffffff021916908373ffffffffffffffffffffffffffffffffffffffff160217905550608c60009080600181540180825580915050600190039060005260206000200160009091909190916101000a81548173ffffffffffffffffffffffffffffffffffffffff021916908373ffffffffffffffffffffffffffffffffffffffff160217905550608c608960009054906101000a900473ffffffffffffffffffffffffffffffffffffffff169080600181540180825580915050600190039060005260206000200160009091909190916101000a81548173ffffffffffffffffffffffffffffffffffffffff021916908373ffffffffffffffffffffffffffffffffffffffff160217905550600160878190555081608260046101000a81548163ffffffff021916908363ffffffff16021790555080608481905550601960858190555061271060868190555060026088819055505050505050620024e9565b600033905090565b8280546200227f9062002436565b90600052602060002090601f016020900481019282620022a35760008555620022ef565b82601f10620022be57805160ff1916838001178555620022ef565b82800160010185558215620022ef579182015b82811115620022ee578251825591602001919060010190620022d1565b5b509050620022fe919062002302565b5090565b5b808211156200231d57600081600090555060010162002303565b5090565b60008151905062002332816200249b565b92915050565b6000815190506200234981620024b5565b92915050565b6000815190506200236081620024cf565b92915050565b600080600080600060a086880312156200237f57600080fd5b60006200238f8882890162002321565b9550506020620023a28882890162002321565b9450506040620023b58882890162002321565b9350506060620023c8888289016200234f565b9250506080620023db8882890162002338565b9150509295509295909350565b6000620023f582620023fc565b9050919050565b600073ffffffffffffffffffffffffffffffffffffffff82169050919050565b6000819050919050565b600063ffffffff82169050919050565b600060028204905060018216806200244f57607f821691505b602082108114156200246657620024656200246c565b5b50919050565b7f4e487b7100000000000000000000000000000000000000000000000000000000600052602260045260246000fd5b620024a681620023e8565b8114620024b257600080fd5b50565b620024c0816200241c565b8114620024cc57600080fd5b50565b620024da8162002426565b8114620024e657600080fd5b50565b61404980620024f96000396000f3fe6080604052600436106101815760003560e01c80637b80889b116100d1578063ca3e24c91161008a578063e4a28a5211610064578063e4a28a5214610543578063eccc32f21461056e578063f04b118814610599578063f2fde38b146105d657610181565b8063ca3e24c9146104c1578063d53ffbcf146104ea578063e1f1e9021461050657610181565b80637b80889b146103af5780638da5cb5b146103da5780639104c81e14610405578063918b7cfe1461042e578063b586c9a21461046b578063b6faaf8a1461049657610181565b806354fd4d501161013e57806370ba11131161011857806370ba111314610319578063715018a614610344578063717ad4381461035b578063780249cd1461038457610181565b806354fd4d50146102985780635cf590d9146102c357806363795d57146102ee57610181565b80630a9254e4146101865780631f2dc5ef1461019d57806324d69228146101c857806329a00e7c146101f35780634242bac01461023057806349f9b0f71461025b575b600080fd5b34801561019257600080fd5b5061019b6105ff565b005b3480156101a957600080fd5b506101b26107c1565b6040516101bf9190613b2a565b60405180910390f35b3480156101d457600080fd5b506101dd6107c7565b6040516101ea9190613b2a565b60405180910390f35b3480156101ff57600080fd5b5061021a600480360381019061021591906137c8565b6109b3565b6040516102279190613b2a565b60405180910390f35b34801561023c57600080fd5b50610245610ae5565b6040516102529190613a8d565b60405180910390f35b34801561026757600080fd5b50610282600480360381019061027d91906137c8565b610b0b565b60405161028f9190613b2a565b60405180910390f35b3480156102a457600080fd5b506102ad610c71565b6040516102ba9190613aa8565b60405180910390f35b3480156102cf57600080fd5b506102d8610cff565b6040516102e59190613b2a565b60405180910390f35b3480156102fa57600080fd5b50610303610d05565b6040516103109190613b2a565b60405180910390f35b34801561032557600080fd5b5061032e610d0b565b60405161033b9190613b2a565b60405180910390f35b34801561035057600080fd5b50610359610d11565b005b34801561036757600080fd5b50610382600480360381019061037d91906136c2565b610e4b565b005b34801561039057600080fd5b50610399610fc4565b6040516103a69190613a57565b60405180910390f35b3480156103bb57600080fd5b506103c4610fea565b6040516103d19190613b2a565b60405180910390f35b3480156103e657600080fd5b506103ef610ff0565b6040516103fc91906139b3565b60405180910390f35b34801561041157600080fd5b5061042c6004803603810190610427919061373a565b611019565b005b34801561043a57600080fd5b506104556004803603810190610450919061373a565b6112db565b60405161046291906139b3565b60405180910390f35b34801561047757600080fd5b5061048061131a565b60405161048d9190613b45565b60405180910390f35b3480156104a257600080fd5b506104ab611330565b6040516104b89190613b2a565b60405180910390f35b3480156104cd57600080fd5b506104e860048036038101906104e39190613699565b611336565b005b61050460048036038101906104ff919061378c565b611452565b005b34801561051257600080fd5b5061052d6004803603810190610528919061373a565b611693565b60405161053a9190613b2a565b60405180910390f35b34801561054f57600080fd5b50610558611771565b6040516105659190613b45565b60405180910390f35b34801561057a57600080fd5b50610583611787565b6040516105909190613a72565b60405180910390f35b3480156105a557600080fd5b506105c060048036038101906105bb919061373a565b6117ad565b6040516105cd9190613b2a565b60405180910390f35b3480156105e257600080fd5b506105fd60048036038101906105f89190613699565b6118b5565b005b610607611a5e565b73ffffffffffffffffffffffffffffffffffffffff16610625610ff0565b73ffffffffffffffffffffffffffffffffffffffff161461067b576040517f08c379a000000000000000000000000000000000000000000000000000000000815260040161067290613aea565b60405180910390fd5b608b60009054906101000a900473ffffffffffffffffffffffffffffffffffffffff1673ffffffffffffffffffffffffffffffffffffffff166383ac74f9306b204fce5e3e250261100000006040518363ffffffff1660e01b81526004016106e4929190613a05565b600060405180830381600087803b1580156106fe57600080fd5b505af1158015610712573d6000803e3d6000fd5b50505050600061072d6b204fce5e3e25026110000000611693565b9050608b60009054906101000a900473ffffffffffffffffffffffffffffffffffffffff1673ffffffffffffffffffffffffffffffffffffffff166382f4f5b433836040518363ffffffff1660e01b815260040161078c929190613a2e565b600060405180830381600087803b1580156107a657600080fd5b505af11580156107ba573d6000803e3d6000fd5b5050505050565b60865481565b60008060005b608c8054905081116109ab57600073ffffffffffffffffffffffffffffffffffffffff16608c828154811061082b577f4e487b7100000000000000000000000000000000000000000000000000000000600052603260045260246000fd5b9060005260206000200160009054906101000a900473ffffffffffffffffffffffffffffffffffffffff1673ffffffffffffffffffffffffffffffffffffffff16141561088c576108854783611a6690919063ffffffff16565b915061099a565b6000608c82815481106108c8577f4e487b7100000000000000000000000000000000000000000000000000000000600052603260045260246000fd5b9060005260206000200160009054906101000a900473ffffffffffffffffffffffffffffffffffffffff16905060008173ffffffffffffffffffffffffffffffffffffffff166370a08231306040518263ffffffff1660e01b815260040161093091906139b3565b60206040518083038186803b15801561094857600080fd5b505afa15801561095c573d6000803e3d6000fd5b505050506040513d601f19601f820116820180604052508101906109809190613763565b90506109958185611a6690919063ffffffff16565b935050505b806109a490613e9f565b90506107cd565b508091505090565b600080851180156109c45750600084115b80156109d6575060008363ffffffff16115b8015610a005750608260009054906101000a900463ffffffff1663ffffffff168363ffffffff1611155b610a0957600080fd5b6000821415610a1b5760009050610add565b608260009054906101000a900463ffffffff1663ffffffff168363ffffffff161415610a6d57610a6684610a588488611a7c90919063ffffffff16565b611a9290919063ffffffff16565b9050610add565b6000806000610a858786611a6690919063ffffffff16565b9050610aa5818888608260009054906101000a900463ffffffff16611aa8565b809350819450505060008260ff16610ac6858b611a7c90919063ffffffff16565b901c90508881610ad69190613cc5565b9450505050505b949350505050565b608a60009054906101000a900473ffffffffffffffffffffffffffffffffffffffff1681565b60008085118015610b1c5750600084115b8015610b2e575060008363ffffffff16115b8015610b585750608260009054906101000a900463ffffffff1663ffffffff168363ffffffff1611155b8015610b645750848211155b610b6d57600080fd5b6000821415610b7f5760009050610c69565b84821415610b8f57839050610c69565b608260009054906101000a900463ffffffff1663ffffffff168363ffffffff161415610be157610bda85610bcc8487611a7c90919063ffffffff16565b611a9290919063ffffffff16565b9050610c69565b60008060008488610bf29190613cc5565b9050610c128882608260009054906101000a900463ffffffff1689611aa8565b80935081945050506000610c2f8489611a7c90919063ffffffff16565b905060008360ff1689901b9050610c6185610c538385611c2990919063ffffffff16565b611a9290919063ffffffff16565b955050505050505b949350505050565b60018054610c7e90613e6d565b80601f0160208091040260200160405190810160405280929190818152602001828054610caa90613e6d565b8015610cf75780601f10610ccc57610100808354040283529160200191610cf7565b820191906000526020600020905b815481529060010190602001808311610cda57829003601f168201915b505050505081565b60845481565b60885481565b60855481565b610d19611a5e565b73ffffffffffffffffffffffffffffffffffffffff16610d37610ff0565b73ffffffffffffffffffffffffffffffffffffffff1614610d8d576040517f08c379a0000000000000000000000000000000000000000000000000000000008152600401610d8490613aea565b60405180910390fd5b600073ffffffffffffffffffffffffffffffffffffffff1660008054906101000a900473ffffffffffffffffffffffffffffffffffffffff1673ffffffffffffffffffffffffffffffffffffffff167f8be0079c531659141344cd1fd0a4f28419497f9722a3daafe3b4186f6b6457e060405160405180910390a360008060006101000a81548173ffffffffffffffffffffffffffffffffffffffff021916908373ffffffffffffffffffffffffffffffffffffffff160217905550565b610e53611a5e565b73ffffffffffffffffffffffffffffffffffffffff16610e71610ff0565b73ffffffffffffffffffffffffffffffffffffffff1614610ec7576040517f08c379a0000000000000000000000000000000000000000000000000000000008152600401610ebe90613aea565b60405180910390fd5b6000608c8381548110610f03577f4e487b7100000000000000000000000000000000000000000000000000000000600052603260045260246000fd5b9060005260206000200160009054906101000a900473ffffffffffffffffffffffffffffffffffffffff1690508073ffffffffffffffffffffffffffffffffffffffff1663a9059cbb85846040518363ffffffff1660e01b8152600401610f6b929190613a2e565b602060405180830381600087803b158015610f8557600080fd5b505af1158015610f99573d6000803e3d6000fd5b505050506040513d601f19601f82011682018060405250810190610fbd9190613711565b5050505050565b608b60009054906101000a900473ffffffffffffffffffffffffffffffffffffffff1681565b60835481565b60008060009054906101000a900473ffffffffffffffffffffffffffffffffffffffff16905090565b6000611024826117ad565b9050608b60009054906101000a900473ffffffffffffffffffffffffffffffffffffffff1673ffffffffffffffffffffffffffffffffffffffff16639c94f65133836040518363ffffffff1660e01b8152600401611083929190613a2e565b600060405180830381600087803b15801561109d57600080fd5b505af11580156110b1573d6000803e3d6000fd5b505050506000608c80549050905060006110d48284611a9290919063ffffffff16565b905060005b608c8054905081116112d457600073ffffffffffffffffffffffffffffffffffffffff16608c8281548110611137577f4e487b7100000000000000000000000000000000000000000000000000000000600052603260045260246000fd5b9060005260206000200160009054906101000a900473ffffffffffffffffffffffffffffffffffffffff1673ffffffffffffffffffffffffffffffffffffffff1614156111ca573373ffffffffffffffffffffffffffffffffffffffff166108fc839081150290604051600060405180830381858888f193505050501580156111c4573d6000803e3d6000fd5b506112c3565b6000608c8281548110611206577f4e487b7100000000000000000000000000000000000000000000000000000000600052603260045260246000fd5b9060005260206000200160009054906101000a900473ffffffffffffffffffffffffffffffffffffffff1690508073ffffffffffffffffffffffffffffffffffffffff1663a9059cbb33856040518363ffffffff1660e01b815260040161126e929190613a2e565b602060405180830381600087803b15801561128857600080fd5b505af115801561129c573d6000803e3d6000fd5b505050506040513d601f19601f820116820180604052508101906112c09190613711565b50505b806112cd90613e9f565b90506110d9565b5050505050565b608c81815481106112eb57600080fd5b906000526020600020016000915054906101000a900473ffffffffffffffffffffffffffffffffffffffff1681565b608260049054906101000a900463ffffffff1681565b60875481565b61133e611a5e565b73ffffffffffffffffffffffffffffffffffffffff1661135c610ff0565b73ffffffffffffffffffffffffffffffffffffffff16146113b2576040517f08c379a00000000000000000000000000000000000000000000000000000000081526004016113a990613aea565b60405180910390fd5b608760008154809291906113c590613e9f565b919050555080608c60875481548110611407577f4e487b7100000000000000000000000000000000000000000000000000000000600052603260045260246000fd5b9060005260206000200160006101000a81548173ffffffffffffffffffffffffffffffffffffffff021916908373ffffffffffffffffffffffffffffffffffffffff16021790555050565b600061145d83611693565b90506000808314156114715734905061156f565b6000608c84815481106114ad577f4e487b7100000000000000000000000000000000000000000000000000000000600052603260045260246000fd5b9060005260206000200160009054906101000a900473ffffffffffffffffffffffffffffffffffffffff1690508491508073ffffffffffffffffffffffffffffffffffffffff166323b872dd3330856040518463ffffffff1660e01b815260040161151a939291906139ce565b602060405180830381600087803b15801561153457600080fd5b505af1158015611548573d6000803e3d6000fd5b505050506040513d601f19601f8201168201806040525081019061156c9190613711565b50505b608b60009054906101000a900473ffffffffffffffffffffffffffffffffffffffff1673ffffffffffffffffffffffffffffffffffffffff166383ac74f930836040518363ffffffff1660e01b81526004016115cc929190613a2e565b600060405180830381600087803b1580156115e657600080fd5b505af11580156115fa573d6000803e3d6000fd5b50505050608b60009054906101000a900473ffffffffffffffffffffffffffffffffffffffff1673ffffffffffffffffffffffffffffffffffffffff166382f4f5b433846040518363ffffffff1660e01b815260040161165b929190613a2e565b600060405180830381600087803b15801561167557600080fd5b505af1158015611689573d6000803e3d6000fd5b5050505050505050565b60008061169e6107c7565b90506000608a60009054906101000a900473ffffffffffffffffffffffffffffffffffffffff1673ffffffffffffffffffffffffffffffffffffffff166318160ddd6040518163ffffffff1660e01b815260040160206040518083038186803b15801561170a57600080fd5b505afa15801561171e573d6000803e3d6000fd5b505050506040513d601f19601f820116820180604052508101906117429190613763565b905060006117648284608260049054906101000a900463ffffffff16886109b3565b9050809350505050919050565b608260009054906101000a900463ffffffff1681565b608960009054906101000a900473ffffffffffffffffffffffffffffffffffffffff1681565b6000806117b86107c7565b90506000608a60009054906101000a900473ffffffffffffffffffffffffffffffffffffffff1673ffffffffffffffffffffffffffffffffffffffff166318160ddd6040518163ffffffff1660e01b815260040160206040518083038186803b15801561182457600080fd5b505afa158015611838573d6000803e3d6000fd5b505050506040513d601f19601f8201168201806040525081019061185c9190613763565b9050600061187e8284608260049054906101000a900463ffffffff1688610b0b565b90506118a8606461189a60845484611a7c90919063ffffffff16565b611a9290919063ffffffff16565b9050809350505050919050565b6118bd611a5e565b73ffffffffffffffffffffffffffffffffffffffff166118db610ff0565b73ffffffffffffffffffffffffffffffffffffffff1614611931576040517f08c379a000000000000000000000000000000000000000000000000000000000815260040161192890613aea565b60405180910390fd5b600073ffffffffffffffffffffffffffffffffffffffff168173ffffffffffffffffffffffffffffffffffffffff1614156119a1576040517f08c379a000000000000000000000000000000000000000000000000000000000815260040161199890613aca565b60405180910390fd5b8073ffffffffffffffffffffffffffffffffffffffff1660008054906101000a900473ffffffffffffffffffffffffffffffffffffffff1673ffffffffffffffffffffffffffffffffffffffff167f8be0079c531659141344cd1fd0a4f28419497f9722a3daafe3b4186f6b6457e060405160405180910390a3806000806101000a81548173ffffffffffffffffffffffffffffffffffffffff021916908373ffffffffffffffffffffffffffffffffffffffff16021790555050565b600033905090565b60008183611a749190613b7c565b905092915050565b60008183611a8a9190613c6b565b905092915050565b60008183611aa09190613c09565b905092915050565b6000807002000000000000000000000000000000008610611af2577f4e487b7100000000000000000000000000000000000000000000000000000000600052600160045260246000fd5b84861015611b35576040517f08c379a0000000000000000000000000000000000000000000000000000000008152600401611b2c90613b0a565b60405180910390fd5b600080866f8000000000000000000000000000000089611b559190613c6b565b611b5f9190613c09565b905070015bf0a8b1457695355fb8ac404e7a79e3811015611b8a57611b8381611c3f565b9150611b96565b611b93816123b8565b91505b60008563ffffffff168763ffffffff1684611bb19190613c6b565b611bbb9190613c09565b9050700800000000000000000000000000000000811015611bed57611bdf81612518565b607f94509450505050611c20565b6000611bf882612d1c565b9050611c1681607f611c0a9190613cf9565b60ff1683901c82612e96565b8195509550505050505b94509492505050565b60008183611c379190613cc5565b905092915050565b6000806000905060008060006fd3094c70f034de4b96ff7d5b6f99fcd88610611cba576f4000000000000000000000000000000084611c7e9190613b7c565b93506fd3094c70f034de4b96ff7d5b6f99fcd86f8000000000000000000000000000000087611cad9190613c6b565b611cb79190613c09565b95505b6fa45af1e1f40c333b3de1db4dd55f29a78610611d29576f2000000000000000000000000000000084611ced9190613b7c565b93506fa45af1e1f40c333b3de1db4dd55f29a76f8000000000000000000000000000000087611d1c9190613c6b565b611d269190613c09565b95505b6f910b022db7ae67ce76b441c27035c6a18610611d98576f1000000000000000000000000000000084611d5c9190613b7c565b93506f910b022db7ae67ce76b441c27035c6a16f8000000000000000000000000000000087611d8b9190613c6b565b611d959190613c09565b95505b6f88415abbe9a76bead8d00cf112e4d4a88610611e07576f0800000000000000000000000000000084611dcb9190613b7c565b93506f88415abbe9a76bead8d00cf112e4d4a86f8000000000000000000000000000000087611dfa9190613c6b565b611e049190613c09565b95505b6f84102b00893f64c705e841d5d4064bd38610611e76576f0400000000000000000000000000000084611e3a9190613b7c565b93506f84102b00893f64c705e841d5d4064bd36f8000000000000000000000000000000087611e699190613c6b565b611e739190613c09565b95505b6f8204055aaef1c8bd5c3259f4822735a28610611ee5576f0200000000000000000000000000000084611ea99190613b7c565b93506f8204055aaef1c8bd5c3259f4822735a26f8000000000000000000000000000000087611ed89190613c6b565b611ee29190613c09565b95505b6f810100ab00222d861931c15e39b44e998610611f54576f0100000000000000000000000000000084611f189190613b7c565b93506f810100ab00222d861931c15e39b44e996f8000000000000000000000000000000087611f479190613c6b565b611f519190613c09565b95505b6f808040155aabbbe9451521693554f7338610611fc2576e80000000000000000000000000000084611f869190613b7c565b93506f808040155aabbbe9451521693554f7336f8000000000000000000000000000000087611fb59190613c6b565b611fbf9190613c09565b95505b6f8000000000000000000000000000000086611fde9190613cc5565b92508291506f8000000000000000000000000000000083846120009190613c6b565b61200a9190613c09565b90507001000000000000000000000000000000008370010000000000000000000000000000000061203b9190613cc5565b836120469190613c6b565b6120509190613c09565b8461205b9190613b7c565b93506f80000000000000000000000000000000818361207a9190613c6b565b6120849190613c09565b9150700200000000000000000000000000000000836faaaaaaaaaaaaaaaaaaaaaaaaaaaaaaaa6120b49190613cc5565b836120bf9190613c6b565b6120c99190613c09565b846120d49190613b7c565b93506f8000000000000000000000000000000081836120f39190613c6b565b6120fd9190613c09565b9150700300000000000000000000000000000000836f9999999999999999999999999999999961212d9190613cc5565b836121389190613c6b565b6121429190613c09565b8461214d9190613b7c565b93506f80000000000000000000000000000000818361216c9190613c6b565b6121769190613c09565b9150700400000000000000000000000000000000836f924924924924924924924924924924926121a69190613cc5565b836121b19190613c6b565b6121bb9190613c09565b846121c69190613b7c565b93506f8000000000000000000000000000000081836121e59190613c6b565b6121ef9190613c09565b9150700500000000000000000000000000000000836f8e38e38e38e38e38e38e38e38e38e38e61221f9190613cc5565b8361222a9190613c6b565b6122349190613c09565b8461223f9190613b7c565b93506f80000000000000000000000000000000818361225e9190613c6b565b6122689190613c09565b9150700600000000000000000000000000000000836f8ba2e8ba2e8ba2e8ba2e8ba2e8ba2e8b6122989190613cc5565b836122a39190613c6b565b6122ad9190613c09565b846122b89190613b7c565b93506f8000000000000000000000000000000081836122d79190613c6b565b6122e19190613c09565b9150700700000000000000000000000000000000836f89d89d89d89d89d89d89d89d89d89d896123119190613cc5565b8361231c9190613c6b565b6123269190613c09565b846123319190613b7c565b93506f8000000000000000000000000000000081836123509190613c6b565b61235a9190613c09565b9150700800000000000000000000000000000000836f8888888888888888888888888888888861238a9190613cc5565b836123959190613c6b565b61239f9190613c09565b846123aa9190613b7c565b935083945050505050919050565b60008060009050600083905070010000000000000000000000000000000081106124305760006124026f80000000000000000000000000000000836123fd9190613c09565b6135a5565b90508060ff1682901c91506f800000000000000000000000000000008160ff1661242c9190613c6b565b9250505b6f800000000000000000000000000000008111156124d8576000607f90505b60008160ff1611156124d6576f8000000000000000000000000000000082836124789190613c6b565b6124829190613c09565b915070010000000000000000000000000000000082106124c557600182901c91506001816124b09190613cf9565b60ff166001901b836124c29190613b7c565b92505b806124cf90613e43565b905061244f565b505b6f05b9de1d10bf4103d647b0955897ba806f03f80fe03f80fe03f80fe03f80fe03f8836125059190613c6b565b61250f9190613c09565b92505050919050565b600080600090506000806f100000000000000000000000000000008561253e9190613ee8565b91508190506f8000000000000000000000000000000082826125609190613c6b565b61256a9190613c09565b90506710e1b3be415a0000816125809190613c6b565b8361258b9190613b7c565b92506f8000000000000000000000000000000082826125aa9190613c6b565b6125b49190613c09565b90506705a0913f6b1e0000816125ca9190613c6b565b836125d59190613b7c565b92506f8000000000000000000000000000000082826125f49190613c6b565b6125fe9190613c09565b9050670168244fdac78000816126149190613c6b565b8361261f9190613b7c565b92506f80000000000000000000000000000000828261263e9190613c6b565b6126489190613c09565b9050664807432bc180008161265d9190613c6b565b836126689190613b7c565b92506f8000000000000000000000000000000082826126879190613c6b565b6126919190613c09565b9050660c0135dca04000816126a69190613c6b565b836126b19190613b7c565b92506f8000000000000000000000000000000082826126d09190613c6b565b6126da9190613c09565b90506601b707b1cdc000816126ef9190613c6b565b836126fa9190613b7c565b92506f8000000000000000000000000000000082826127199190613c6b565b6127239190613c09565b90506536e0f639b800816127379190613c6b565b836127429190613b7c565b92506f8000000000000000000000000000000082826127619190613c6b565b61276b9190613c09565b9050650618fee9f8008161277f9190613c6b565b8361278a9190613b7c565b92506f8000000000000000000000000000000082826127a99190613c6b565b6127b39190613c09565b9050649c197dcc00816127c69190613c6b565b836127d19190613b7c565b92506f8000000000000000000000000000000082826127f09190613c6b565b6127fa9190613c09565b9050640e30dce4008161280d9190613c6b565b836128189190613b7c565b92506f8000000000000000000000000000000082826128379190613c6b565b6128419190613c09565b905064012ebd1300816128549190613c6b565b8361285f9190613b7c565b92506f80000000000000000000000000000000828261287e9190613c6b565b6128889190613c09565b90506317499f008161289a9190613c6b565b836128a59190613b7c565b92506f8000000000000000000000000000000082826128c49190613c6b565b6128ce9190613c09565b90506301a9d480816128e09190613c6b565b836128eb9190613b7c565b92506f80000000000000000000000000000000828261290a9190613c6b565b6129149190613c09565b9050621c6380816129259190613c6b565b836129309190613b7c565b92506f80000000000000000000000000000000828261294f9190613c6b565b6129599190613c09565b90506201c6388161296a9190613c6b565b836129759190613b7c565b92506f8000000000000000000000000000000082826129949190613c6b565b61299e9190613c09565b9050611ab8816129ae9190613c6b565b836129b99190613b7c565b92506f8000000000000000000000000000000082826129d89190613c6b565b6129e29190613c09565b905061017c816129f29190613c6b565b836129fd9190613b7c565b92506f800000000000000000000000000000008282612a1c9190613c6b565b612a269190613c09565b9050601481612a359190613c6b565b83612a409190613b7c565b92506f800000000000000000000000000000008282612a5f9190613c6b565b612a699190613c09565b9050600181612a789190613c6b565b83612a839190613b7c565b92506f80000000000000000000000000000000826721c3677c82b4000085612aab9190613c09565b612ab59190613b7c565b612abf9190613b7c565b925060006f10000000000000000000000000000000861614612b175770018ebef9eac820ae8682b9793ac6d1e7767001c3d6a24ed82218787d624d3e5eba95f984612b0a9190613c6b565b612b149190613c09565b92505b60006f20000000000000000000000000000000861614612b6d577001368b2fc6f9609fe7aceb46aa619baed470018ebef9eac820ae8682b9793ac6d1e77884612b609190613c6b565b612b6a9190613c09565b92505b60006f40000000000000000000000000000000861614612bc2576fbc5ab1b16779be3575bd8f0520a9f21f7001368b2fc6f9609fe7aceb46aa619baed584612bb59190613c6b565b612bbf9190613c09565b92505b60006f80000000000000000000000000000000861614612c16576f454aaa8efe072e7f6ddbab84b40a55c96fbc5ab1b16779be3575bd8f0520a9f21e84612c099190613c6b565b612c139190613c09565b92505b6000700100000000000000000000000000000000861614612c6b576f0960aadc109e7a3bf4578099615711ea6f454aaa8efe072e7f6ddbab84b40a55c584612c5e9190613c6b565b612c689190613c09565b92505b6000700200000000000000000000000000000000861614612cbf576e2bf84208204f5977f9a8cf01fdce3d6f0960aadc109e7a3bf4578099615711d784612cb29190613c6b565b612cbc9190613c09565b92505b6000700400000000000000000000000000000000861614612d11576d03c6ab775dd0b95b4cbee7e65d116e2bf84208204f5977f9a8cf01fdc30784612d049190613c6b565b612d0e9190613c09565b92505b829350505050919050565b600080602090506000607f90505b8060ff16600183612d3b9190613bd2565b60ff161015612db757600060028284612d549190613bd2565b612d5e9190613c3a565b90508460028260ff1660808110612d9e577f4e487b7100000000000000000000000000000000000000000000000000000000600052603260045260246000fd5b015410612dad57809250612db1565b8091505b50612d2a565b8360028260ff1660808110612df5577f4e487b7100000000000000000000000000000000000000000000000000000000600052603260045260246000fd5b015410612e06578092505050612e91565b8360028360ff1660808110612e44577f4e487b7100000000000000000000000000000000000000000000000000000000600052603260045260246000fd5b015410612e55578192505050612e91565b6000612e8a577f4e487b7100000000000000000000000000000000000000000000000000000000600052600160045260246000fd5b6000925050505b919050565b60008083905060008360ff168583612eae9190613c6b565b901c91506f03442c4e6074a82f1797f72ac000000082612ece9190613c6b565b81612ed99190613b7c565b90508360ff168583612eeb9190613c6b565b901c91506f0116b96f757c380fb287fd0e4000000082612f0b9190613c6b565b81612f169190613b7c565b90508360ff168583612f289190613c6b565b901c91506e45ae5bdd5f0e03eca1ff439000000082612f479190613c6b565b81612f529190613b7c565b90508360ff168583612f649190613c6b565b901c91506e0defabf91302cd95b9ffda5000000082612f839190613c6b565b81612f8e9190613b7c565b90508360ff168583612fa09190613c6b565b901c91506e02529ca9832b22439efff9b800000082612fbf9190613c6b565b81612fca9190613b7c565b90508360ff168583612fdc9190613c6b565b901c91506d54f1cf12bd04e516b6da8800000082612ffa9190613c6b565b816130059190613b7c565b90508360ff1685836130179190613c6b565b901c91506d0a9e39e257a09ca2d6db51000000826130359190613c6b565b816130409190613b7c565b90508360ff1685836130529190613c6b565b901c91506d012e066e7b839fa050c309000000826130709190613c6b565b8161307b9190613b7c565b90508360ff16858361308d9190613c6b565b901c91506c1e33d7d926c329a1ad1a800000826130aa9190613c6b565b816130b59190613b7c565b90508360ff1685836130c79190613c6b565b901c91506c02bee513bdb4a6b19b5f800000826130e49190613c6b565b816130ef9190613b7c565b90508360ff1685836131019190613c6b565b901c91506b3a9316fa79b88eccf2a000008261311d9190613c6b565b816131289190613b7c565b90508360ff16858361313a9190613c6b565b901c91506b048177ebe1fa812375200000826131569190613c6b565b816131619190613b7c565b90508360ff1685836131739190613c6b565b901c91506a5263fe90242dcbacf000008261318e9190613c6b565b816131999190613b7c565b90508360ff1685836131ab9190613c6b565b901c91506a057e22099c030d94100000826131c69190613c6b565b816131d19190613b7c565b90508360ff1685836131e39190613c6b565b901c91506957e22099c030d9410000826131fd9190613c6b565b816132089190613b7c565b90508360ff16858361321a9190613c6b565b901c915069052b6b54569976310000826132349190613c6b565b8161323f9190613b7c565b90508360ff1685836132519190613c6b565b901c9150684985f67696bf7480008261326a9190613c6b565b816132759190613b7c565b90508360ff1685836132879190613c6b565b901c91506803dea12ea99e498000826132a09190613c6b565b816132ab9190613b7c565b90508360ff1685836132bd9190613c6b565b901c91506731880f2214b6e000826132d59190613c6b565b816132e09190613b7c565b90508360ff1685836132f29190613c6b565b901c915067025bcff56eb360008261330a9190613c6b565b816133159190613b7c565b90508360ff1685836133279190613c6b565b901c9150661b722e10ab10008261333e9190613c6b565b816133499190613b7c565b90508360ff16858361335b9190613c6b565b901c91506601317c70077000826133729190613c6b565b8161337d9190613b7c565b90508360ff16858361338f9190613c6b565b901c9150650cba84aafa00826133a59190613c6b565b816133b09190613b7c565b90508360ff1685836133c29190613c6b565b901c91506482573a0a00826133d79190613c6b565b816133e29190613b7c565b90508360ff1685836133f49190613c6b565b901c91506405035ad900826134099190613c6b565b816134149190613b7c565b90508360ff1685836134269190613c6b565b901c9150632f881b008261343a9190613c6b565b816134459190613b7c565b90508360ff1685836134579190613c6b565b901c91506301b293408261346b9190613c6b565b816134769190613b7c565b90508360ff1685836134889190613c6b565b901c9150620efc408261349b9190613c6b565b816134a69190613b7c565b90508360ff1685836134b89190613c6b565b901c9150617fe0826134ca9190613c6b565b816134d59190613b7c565b90508360ff1685836134e79190613c6b565b901c9150610420826134f99190613c6b565b816135049190613b7c565b90508360ff1685836135169190613c6b565b901c91506021826135279190613c6b565b816135329190613b7c565b90508360ff1685836135449190613c6b565b901c91506001826135559190613c6b565b816135609190613b7c565b90508360ff166001901b856f0688589cc0e9505e2f2fee5580000000836135879190613c09565b6135919190613b7c565b61359b9190613b7c565b9250505092915050565b6000806000905060008390506101008110156135e5575b60018111156135e057600181901c90506001826135d99190613bd2565b91506135bc565b613626565b6000608090505b60008160ff161115613624578060ff166001901b8210613615578060ff1682901c915080831792505b60018160ff16901c90506135ec565b505b8192505050919050565b60008135905061363f81613fb7565b92915050565b60008151905061365481613fce565b92915050565b60008135905061366981613fe5565b92915050565b60008151905061367e81613fe5565b92915050565b60008135905061369381613ffc565b92915050565b6000602082840312156136ab57600080fd5b60006136b984828501613630565b91505092915050565b6000806000606084860312156136d757600080fd5b60006136e586828701613630565b93505060206136f68682870161365a565b92505060406137078682870161365a565b9150509250925092565b60006020828403121561372357600080fd5b600061373184828501613645565b91505092915050565b60006020828403121561374c57600080fd5b600061375a8482850161365a565b91505092915050565b60006020828403121561377557600080fd5b60006137838482850161366f565b91505092915050565b6000806040838503121561379f57600080fd5b60006137ad8582860161365a565b92505060206137be8582860161365a565b9150509250929050565b600080600080608085870312156137de57600080fd5b60006137ec8782880161365a565b94505060206137fd8782880161365a565b935050604061380e87828801613684565b925050606061381f8782880161365a565b91505092959194509250565b61383481613d2d565b82525050565b61384381613d92565b82525050565b61385281613db6565b82525050565b61386181613dda565b82525050565b61387081613dfe565b82525050565b600061388182613b60565b61388b8185613b6b565b935061389b818560208601613e10565b6138a481613fa6565b840191505092915050565b60006138bc602683613b6b565b91507f4f776e61626c653a206e6577206f776e657220697320746865207a65726f206160008301527f64647265737300000000000000000000000000000000000000000000000000006020830152604082019050919050565b6000613922602083613b6b565b91507f4f776e61626c653a2063616c6c6572206973206e6f7420746865206f776e65726000830152602082019050919050565b6000613962601c83613b6b565b91507f4261736573203c203120617265206e6f7420737570706f727465642e000000006000830152602082019050919050565b61399e81613d6b565b82525050565b6139ad81613d75565b82525050565b60006020820190506139c8600083018461382b565b92915050565b60006060820190506139e3600083018661382b565b6139f0602083018561382b565b6139fd6040830184613995565b949350505050565b6000604082019050613a1a600083018561382b565b613a276020830184613867565b9392505050565b6000604082019050613a43600083018561382b565b613a506020830184613995565b9392505050565b6000602082019050613a6c600083018461383a565b92915050565b6000602082019050613a876000830184613849565b92915050565b6000602082019050613aa26000830184613858565b92915050565b60006020820190508181036000830152613ac28184613876565b905092915050565b60006020820190508181036000830152613ae3816138af565b9050919050565b60006020820190508181036000830152613b0381613915565b9050919050565b60006020820190508181036000830152613b2381613955565b9050919050565b6000602082019050613b3f6000830184613995565b92915050565b6000602082019050613b5a60008301846139a4565b92915050565b600081519050919050565b600082825260208201905092915050565b6000613b8782613d6b565b9150613b9283613d6b565b9250827fffffffffffffffffffffffffffffffffffffffffffffffffffffffffffffffff03821115613bc757613bc6613f19565b5b828201905092915050565b6000613bdd82613d85565b9150613be883613d85565b92508260ff03821115613bfe57613bfd613f19565b5b828201905092915050565b6000613c1482613d6b565b9150613c1f83613d6b565b925082613c2f57613c2e613f48565b5b828204905092915050565b6000613c4582613d85565b9150613c5083613d85565b925082613c6057613c5f613f48565b5b828204905092915050565b6000613c7682613d6b565b9150613c8183613d6b565b9250817fffffffffffffffffffffffffffffffffffffffffffffffffffffffffffffffff0483118215151615613cba57613cb9613f19565b5b828202905092915050565b6000613cd082613d6b565b9150613cdb83613d6b565b925082821015613cee57613ced613f19565b5b828203905092915050565b6000613d0482613d85565b9150613d0f83613d85565b925082821015613d2257613d21613f19565b5b828203905092915050565b6000613d3882613d4b565b9050919050565b60008115159050919050565b600073ffffffffffffffffffffffffffffffffffffffff82169050919050565b6000819050919050565b600063ffffffff82169050919050565b600060ff82169050919050565b6000613d9d82613da4565b9050919050565b6000613daf82613d4b565b9050919050565b6000613dc182613dc8565b9050919050565b6000613dd382613d4b565b9050919050565b6000613de582613dec565b9050919050565b6000613df782613d4b565b9050919050565b6000613e0982613d6b565b9050919050565b60005b83811015613e2e578082015181840152602081019050613e13565b83811115613e3d576000848401525b50505050565b6000613e4e82613d85565b91506000821415613e6257613e61613f19565b5b600182039050919050565b60006002820490506001821680613e8557607f821691505b60208210811415613e9957613e98613f77565b5b50919050565b6000613eaa82613d6b565b91507fffffffffffffffffffffffffffffffffffffffffffffffffffffffffffffffff821415613edd57613edc613f19565b5b600182019050919050565b6000613ef382613d6b565b9150613efe83613d6b565b925082613f0e57613f0d613f48565b5b828206905092915050565b7f4e487b7100000000000000000000000000000000000000000000000000000000600052601160045260246000fd5b7f4e487b7100000000000000000000000000000000000000000000000000000000600052601260045260246000fd5b7f4e487b7100000000000000000000000000000000000000000000000000000000600052602260045260246000fd5b6000601f19601f8301169050919050565b613fc081613d2d565b8114613fcb57600080fd5b50565b613fd781613d3f565b8114613fe257600080fd5b50565b613fee81613d6b565b8114613ff957600080fd5b50565b61400581613d75565b811461401057600080fd5b5056fea2646970667358221220628646dd00159a4d1745fd277ba17b2a6ed1241adbd247489c84569891b0ceab64736f6c63430008000033",
          "opcodes": "PUSH1 0x80 PUSH1 0x40 MSTORE PUSH1 0x40 MLOAD DUP1 PUSH1 0x40 ADD PUSH1 0x40 MSTORE DUP1 PUSH1 0x3 DUP2 MSTORE PUSH1 0x20 ADD PUSH32 0x302E330000000000000000000000000000000000000000000000000000000000 DUP2 MSTORE POP PUSH1 0x1 SWAP1 DUP1 MLOAD SWAP1 PUSH1 0x20 ADD SWAP1 PUSH3 0x51 SWAP3 SWAP2 SWAP1 PUSH3 0x2271 JUMP JUMPDEST POP CALLVALUE DUP1 ISZERO PUSH3 0x5F JUMPI PUSH1 0x0 DUP1 REVERT JUMPDEST POP PUSH1 0x40 MLOAD PUSH3 0x6542 CODESIZE SUB DUP1 PUSH3 0x6542 DUP4 CODECOPY DUP2 DUP2 ADD PUSH1 0x40 MSTORE DUP2 ADD SWAP1 PUSH3 0x85 SWAP2 SWAP1 PUSH3 0x2366 JUMP JUMPDEST PUSH1 0x0 PUSH3 0x97 PUSH3 0x2269 PUSH1 0x20 SHL PUSH1 0x20 SHR JUMP JUMPDEST SWAP1 POP DUP1 PUSH1 0x0 DUP1 PUSH2 0x100 EXP DUP2 SLOAD DUP2 PUSH20 0xFFFFFFFFFFFFFFFFFFFFFFFFFFFFFFFFFFFFFFFF MUL NOT AND SWAP1 DUP4 PUSH20 0xFFFFFFFFFFFFFFFFFFFFFFFFFFFFFFFFFFFFFFFF AND MUL OR SWAP1 SSTORE POP DUP1 PUSH20 0xFFFFFFFFFFFFFFFFFFFFFFFFFFFFFFFFFFFFFFFF AND PUSH1 0x0 PUSH20 0xFFFFFFFFFFFFFFFFFFFFFFFFFFFFFFFFFFFFFFFF AND PUSH32 0x8BE0079C531659141344CD1FD0A4F28419497F9722A3DAAFE3B4186F6B6457E0 PUSH1 0x40 MLOAD PUSH1 0x40 MLOAD DUP1 SWAP2 SUB SWAP1 LOG3 POP PUSH17 0x1C35FEDD14FFFFFFFFFFFFFFFFFFFFFFFF PUSH1 0x2 PUSH1 0x20 PUSH1 0x80 DUP2 LT PUSH3 0x183 JUMPI PUSH32 0x4E487B7100000000000000000000000000000000000000000000000000000000 PUSH1 0x0 MSTORE PUSH1 0x32 PUSH1 0x4 MSTORE PUSH1 0x24 PUSH1 0x0 REVERT JUMPDEST ADD DUP2 SWAP1 SSTORE POP PUSH17 0x1B0CE43B323FFFFFFFFFFFFFFFFFFFFFFF PUSH1 0x2 PUSH1 0x21 PUSH1 0x80 DUP2 LT PUSH3 0x1D6 JUMPI PUSH32 0x4E487B7100000000000000000000000000000000000000000000000000000000 PUSH1 0x0 MSTORE PUSH1 0x32 PUSH1 0x4 MSTORE PUSH1 0x24 PUSH1 0x0 REVERT JUMPDEST ADD DUP2 SWAP1 SSTORE POP PUSH17 0x19F0028EC1FFFFFFFFFFFFFFFFFFFFFFFF PUSH1 0x2 PUSH1 0x22 PUSH1 0x80 DUP2 LT PUSH3 0x229 JUMPI PUSH32 0x4E487B7100000000000000000000000000000000000000000000000000000000 PUSH1 0x0 MSTORE PUSH1 0x32 PUSH1 0x4 MSTORE PUSH1 0x24 PUSH1 0x0 REVERT JUMPDEST ADD DUP2 SWAP1 SSTORE POP PUSH17 0x18DED91F0E7FFFFFFFFFFFFFFFFFFFFFFF PUSH1 0x2 PUSH1 0x23 PUSH1 0x80 DUP2 LT PUSH3 0x27C JUMPI PUSH32 0x4E487B7100000000000000000000000000000000000000000000000000000000 PUSH1 0x0 MSTORE PUSH1 0x32 PUSH1 0x4 MSTORE PUSH1 0x24 PUSH1 0x0 REVERT JUMPDEST ADD DUP2 SWAP1 SSTORE POP PUSH17 0x17D8EC7F0417FFFFFFFFFFFFFFFFFFFFFF PUSH1 0x2 PUSH1 0x24 PUSH1 0x80 DUP2 LT PUSH3 0x2CF JUMPI PUSH32 0x4E487B7100000000000000000000000000000000000000000000000000000000 PUSH1 0x0 MSTORE PUSH1 0x32 PUSH1 0x4 MSTORE PUSH1 0x24 PUSH1 0x0 REVERT JUMPDEST ADD DUP2 SWAP1 SSTORE POP PUSH17 0x16DDC6556CDBFFFFFFFFFFFFFFFFFFFFFF PUSH1 0x2 PUSH1 0x25 PUSH1 0x80 DUP2 LT PUSH3 0x322 JUMPI PUSH32 0x4E487B7100000000000000000000000000000000000000000000000000000000 PUSH1 0x0 MSTORE PUSH1 0x32 PUSH1 0x4 MSTORE PUSH1 0x24 PUSH1 0x0 REVERT JUMPDEST ADD DUP2 SWAP1 SSTORE POP PUSH17 0x15ECF52776A1FFFFFFFFFFFFFFFFFFFFFF PUSH1 0x2 PUSH1 0x26 PUSH1 0x80 DUP2 LT PUSH3 0x375 JUMPI PUSH32 0x4E487B7100000000000000000000000000000000000000000000000000000000 PUSH1 0x0 MSTORE PUSH1 0x32 PUSH1 0x4 MSTORE PUSH1 0x24 PUSH1 0x0 REVERT JUMPDEST ADD DUP2 SWAP1 SSTORE POP PUSH17 0x15060C256CB2FFFFFFFFFFFFFFFFFFFFFF PUSH1 0x2 PUSH1 0x27 PUSH1 0x80 DUP2 LT PUSH3 0x3C8 JUMPI PUSH32 0x4E487B7100000000000000000000000000000000000000000000000000000000 PUSH1 0x0 MSTORE PUSH1 0x32 PUSH1 0x4 MSTORE PUSH1 0x24 PUSH1 0x0 REVERT JUMPDEST ADD DUP2 SWAP1 SSTORE POP PUSH17 0x1428A2F98D72FFFFFFFFFFFFFFFFFFFFFF PUSH1 0x2 PUSH1 0x28 PUSH1 0x80 DUP2 LT PUSH3 0x41B JUMPI PUSH32 0x4E487B7100000000000000000000000000000000000000000000000000000000 PUSH1 0x0 MSTORE PUSH1 0x32 PUSH1 0x4 MSTORE PUSH1 0x24 PUSH1 0x0 REVERT JUMPDEST ADD DUP2 SWAP1 SSTORE POP PUSH17 0x13545598E5C23FFFFFFFFFFFFFFFFFFFFF PUSH1 0x2 PUSH1 0x29 PUSH1 0x80 DUP2 LT PUSH3 0x46E JUMPI PUSH32 0x4E487B7100000000000000000000000000000000000000000000000000000000 PUSH1 0x0 MSTORE PUSH1 0x32 PUSH1 0x4 MSTORE PUSH1 0x24 PUSH1 0x0 REVERT JUMPDEST ADD DUP2 SWAP1 SSTORE POP PUSH17 0x1288C4161CE1DFFFFFFFFFFFFFFFFFFFFF PUSH1 0x2 PUSH1 0x2A PUSH1 0x80 DUP2 LT PUSH3 0x4C1 JUMPI PUSH32 0x4E487B7100000000000000000000000000000000000000000000000000000000 PUSH1 0x0 MSTORE PUSH1 0x32 PUSH1 0x4 MSTORE PUSH1 0x24 PUSH1 0x0 REVERT JUMPDEST ADD DUP2 SWAP1 SSTORE POP PUSH17 0x11C592761C666FFFFFFFFFFFFFFFFFFFFF PUSH1 0x2 PUSH1 0x2B PUSH1 0x80 DUP2 LT PUSH3 0x514 JUMPI PUSH32 0x4E487B7100000000000000000000000000000000000000000000000000000000 PUSH1 0x0 MSTORE PUSH1 0x32 PUSH1 0x4 MSTORE PUSH1 0x24 PUSH1 0x0 REVERT JUMPDEST ADD DUP2 SWAP1 SSTORE POP PUSH17 0x110A688680A757FFFFFFFFFFFFFFFFFFFF PUSH1 0x2 PUSH1 0x2C PUSH1 0x80 DUP2 LT PUSH3 0x567 JUMPI PUSH32 0x4E487B7100000000000000000000000000000000000000000000000000000000 PUSH1 0x0 MSTORE PUSH1 0x32 PUSH1 0x4 MSTORE PUSH1 0x24 PUSH1 0x0 REVERT JUMPDEST ADD DUP2 SWAP1 SSTORE POP PUSH17 0x1056F1B5BEDF77FFFFFFFFFFFFFFFFFFFF PUSH1 0x2 PUSH1 0x2D PUSH1 0x80 DUP2 LT PUSH3 0x5BA JUMPI PUSH32 0x4E487B7100000000000000000000000000000000000000000000000000000000 PUSH1 0x0 MSTORE PUSH1 0x32 PUSH1 0x4 MSTORE PUSH1 0x24 PUSH1 0x0 REVERT JUMPDEST ADD DUP2 SWAP1 SSTORE POP PUSH17 0xFAADCECEEFF8BFFFFFFFFFFFFFFFFFFFF PUSH1 0x2 PUSH1 0x2E PUSH1 0x80 DUP2 LT PUSH3 0x60D JUMPI PUSH32 0x4E487B7100000000000000000000000000000000000000000000000000000000 PUSH1 0x0 MSTORE PUSH1 0x32 PUSH1 0x4 MSTORE PUSH1 0x24 PUSH1 0x0 REVERT JUMPDEST ADD DUP2 SWAP1 SSTORE POP PUSH17 0xF05DC6B27EDADFFFFFFFFFFFFFFFFFFFF PUSH1 0x2 PUSH1 0x2F PUSH1 0x80 DUP2 LT PUSH3 0x660 JUMPI PUSH32 0x4E487B7100000000000000000000000000000000000000000000000000000000 PUSH1 0x0 MSTORE PUSH1 0x32 PUSH1 0x4 MSTORE PUSH1 0x24 PUSH1 0x0 REVERT JUMPDEST ADD DUP2 SWAP1 SSTORE POP PUSH17 0xE67A5A25DA4107FFFFFFFFFFFFFFFFFFF PUSH1 0x2 PUSH1 0x30 PUSH1 0x80 DUP2 LT PUSH3 0x6B3 JUMPI PUSH32 0x4E487B7100000000000000000000000000000000000000000000000000000000 PUSH1 0x0 MSTORE PUSH1 0x32 PUSH1 0x4 MSTORE PUSH1 0x24 PUSH1 0x0 REVERT JUMPDEST ADD DUP2 SWAP1 SSTORE POP PUSH17 0xDCFF115B14EEDFFFFFFFFFFFFFFFFFFFF PUSH1 0x2 PUSH1 0x31 PUSH1 0x80 DUP2 LT PUSH3 0x706 JUMPI PUSH32 0x4E487B7100000000000000000000000000000000000000000000000000000000 PUSH1 0x0 MSTORE PUSH1 0x32 PUSH1 0x4 MSTORE PUSH1 0x24 PUSH1 0x0 REVERT JUMPDEST ADD DUP2 SWAP1 SSTORE POP PUSH17 0xD3E7A392431239FFFFFFFFFFFFFFFFFFF PUSH1 0x2 PUSH1 0x32 PUSH1 0x80 DUP2 LT PUSH3 0x759 JUMPI PUSH32 0x4E487B7100000000000000000000000000000000000000000000000000000000 PUSH1 0x0 MSTORE PUSH1 0x32 PUSH1 0x4 MSTORE PUSH1 0x24 PUSH1 0x0 REVERT JUMPDEST ADD DUP2 SWAP1 SSTORE POP PUSH17 0xCB2FF529EB71E4FFFFFFFFFFFFFFFFFFF PUSH1 0x2 PUSH1 0x33 PUSH1 0x80 DUP2 LT PUSH3 0x7AC JUMPI PUSH32 0x4E487B7100000000000000000000000000000000000000000000000000000000 PUSH1 0x0 MSTORE PUSH1 0x32 PUSH1 0x4 MSTORE PUSH1 0x24 PUSH1 0x0 REVERT JUMPDEST ADD DUP2 SWAP1 SSTORE POP PUSH17 0xC2D415C3DB974AFFFFFFFFFFFFFFFFFFF PUSH1 0x2 PUSH1 0x34 PUSH1 0x80 DUP2 LT PUSH3 0x7FF JUMPI PUSH32 0x4E487B7100000000000000000000000000000000000000000000000000000000 PUSH1 0x0 MSTORE PUSH1 0x32 PUSH1 0x4 MSTORE PUSH1 0x24 PUSH1 0x0 REVERT JUMPDEST ADD DUP2 SWAP1 SSTORE POP PUSH17 0xBAD03E7D883F69BFFFFFFFFFFFFFFFFFF PUSH1 0x2 PUSH1 0x35 PUSH1 0x80 DUP2 LT PUSH3 0x852 JUMPI PUSH32 0x4E487B7100000000000000000000000000000000000000000000000000000000 PUSH1 0x0 MSTORE PUSH1 0x32 PUSH1 0x4 MSTORE PUSH1 0x24 PUSH1 0x0 REVERT JUMPDEST ADD DUP2 SWAP1 SSTORE POP PUSH17 0xB320D03B2C343D5FFFFFFFFFFFFFFFFFF PUSH1 0x2 PUSH1 0x36 PUSH1 0x80 DUP2 LT PUSH3 0x8A5 JUMPI PUSH32 0x4E487B7100000000000000000000000000000000000000000000000000000000 PUSH1 0x0 MSTORE PUSH1 0x32 PUSH1 0x4 MSTORE PUSH1 0x24 PUSH1 0x0 REVERT JUMPDEST ADD DUP2 SWAP1 SSTORE POP PUSH17 0xABC25204E02828DFFFFFFFFFFFFFFFFFF PUSH1 0x2 PUSH1 0x37 PUSH1 0x80 DUP2 LT PUSH3 0x8F8 JUMPI PUSH32 0x4E487B7100000000000000000000000000000000000000000000000000000000 PUSH1 0x0 MSTORE PUSH1 0x32 PUSH1 0x4 MSTORE PUSH1 0x24 PUSH1 0x0 REVERT JUMPDEST ADD DUP2 SWAP1 SSTORE POP PUSH17 0xA4B16F74EE4BB207FFFFFFFFFFFFFFFFF PUSH1 0x2 PUSH1 0x38 PUSH1 0x80 DUP2 LT PUSH3 0x94B JUMPI PUSH32 0x4E487B7100000000000000000000000000000000000000000000000000000000 PUSH1 0x0 MSTORE PUSH1 0x32 PUSH1 0x4 MSTORE PUSH1 0x24 PUSH1 0x0 REVERT JUMPDEST ADD DUP2 SWAP1 SSTORE POP PUSH17 0x9DEAF736AC1F569FFFFFFFFFFFFFFFFFF PUSH1 0x2 PUSH1 0x39 PUSH1 0x80 DUP2 LT PUSH3 0x99E JUMPI PUSH32 0x4E487B7100000000000000000000000000000000000000000000000000000000 PUSH1 0x0 MSTORE PUSH1 0x32 PUSH1 0x4 MSTORE PUSH1 0x24 PUSH1 0x0 REVERT JUMPDEST ADD DUP2 SWAP1 SSTORE POP PUSH17 0x976BD9952C7AA957FFFFFFFFFFFFFFFFF PUSH1 0x2 PUSH1 0x3A PUSH1 0x80 DUP2 LT PUSH3 0x9F1 JUMPI PUSH32 0x4E487B7100000000000000000000000000000000000000000000000000000000 PUSH1 0x0 MSTORE PUSH1 0x32 PUSH1 0x4 MSTORE PUSH1 0x24 PUSH1 0x0 REVERT JUMPDEST ADD DUP2 SWAP1 SSTORE POP PUSH17 0x9131271922EAA606FFFFFFFFFFFFFFFFF PUSH1 0x2 PUSH1 0x3B PUSH1 0x80 DUP2 LT PUSH3 0xA44 JUMPI PUSH32 0x4E487B7100000000000000000000000000000000000000000000000000000000 PUSH1 0x0 MSTORE PUSH1 0x32 PUSH1 0x4 MSTORE PUSH1 0x24 PUSH1 0x0 REVERT JUMPDEST ADD DUP2 SWAP1 SSTORE POP PUSH17 0x8B380F3558668C46FFFFFFFFFFFFFFFFF PUSH1 0x2 PUSH1 0x3C PUSH1 0x80 DUP2 LT PUSH3 0xA97 JUMPI PUSH32 0x4E487B7100000000000000000000000000000000000000000000000000000000 PUSH1 0x0 MSTORE PUSH1 0x32 PUSH1 0x4 MSTORE PUSH1 0x24 PUSH1 0x0 REVERT JUMPDEST ADD DUP2 SWAP1 SSTORE POP PUSH17 0x857DDF0117EFA215BFFFFFFFFFFFFFFFF PUSH1 0x2 PUSH1 0x3D PUSH1 0x80 DUP2 LT PUSH3 0xAEA JUMPI PUSH32 0x4E487B7100000000000000000000000000000000000000000000000000000000 PUSH1 0x0 MSTORE PUSH1 0x32 PUSH1 0x4 MSTORE PUSH1 0x24 PUSH1 0x0 REVERT JUMPDEST ADD DUP2 SWAP1 SSTORE POP PUSH17 0x7FFFFFFFFFFFFFFFFFFFFFFFFFFFFFFFF PUSH1 0x2 PUSH1 0x3E PUSH1 0x80 DUP2 LT PUSH3 0xB3D JUMPI PUSH32 0x4E487B7100000000000000000000000000000000000000000000000000000000 PUSH1 0x0 MSTORE PUSH1 0x32 PUSH1 0x4 MSTORE PUSH1 0x24 PUSH1 0x0 REVERT JUMPDEST ADD DUP2 SWAP1 SSTORE POP PUSH17 0x7ABBF6F6ABB9D087FFFFFFFFFFFFFFFFF PUSH1 0x2 PUSH1 0x3F PUSH1 0x80 DUP2 LT PUSH3 0xB90 JUMPI PUSH32 0x4E487B7100000000000000000000000000000000000000000000000000000000 PUSH1 0x0 MSTORE PUSH1 0x32 PUSH1 0x4 MSTORE PUSH1 0x24 PUSH1 0x0 REVERT JUMPDEST ADD DUP2 SWAP1 SSTORE POP PUSH17 0x75AF62CBAC95F7DFA7FFFFFFFFFFFFFFF PUSH1 0x2 PUSH1 0x40 PUSH1 0x80 DUP2 LT PUSH3 0xBE3 JUMPI PUSH32 0x4E487B7100000000000000000000000000000000000000000000000000000000 PUSH1 0x0 MSTORE PUSH1 0x32 PUSH1 0x4 MSTORE PUSH1 0x24 PUSH1 0x0 REVERT JUMPDEST ADD DUP2 SWAP1 SSTORE POP PUSH17 0x70D7FB7452E187AC13FFFFFFFFFFFFFFF PUSH1 0x2 PUSH1 0x41 PUSH1 0x80 DUP2 LT PUSH3 0xC36 JUMPI PUSH32 0x4E487B7100000000000000000000000000000000000000000000000000000000 PUSH1 0x0 MSTORE PUSH1 0x32 PUSH1 0x4 MSTORE PUSH1 0x24 PUSH1 0x0 REVERT JUMPDEST ADD DUP2 SWAP1 SSTORE POP PUSH17 0x6C3390ECC8AF379295FFFFFFFFFFFFFFF PUSH1 0x2 PUSH1 0x42 PUSH1 0x80 DUP2 LT PUSH3 0xC89 JUMPI PUSH32 0x4E487B7100000000000000000000000000000000000000000000000000000000 PUSH1 0x0 MSTORE PUSH1 0x32 PUSH1 0x4 MSTORE PUSH1 0x24 PUSH1 0x0 REVERT JUMPDEST ADD DUP2 SWAP1 SSTORE POP PUSH17 0x67C00A3B07FFC01FD6FFFFFFFFFFFFFFF PUSH1 0x2 PUSH1 0x43 PUSH1 0x80 DUP2 LT PUSH3 0xCDC JUMPI PUSH32 0x4E487B7100000000000000000000000000000000000000000000000000000000 PUSH1 0x0 MSTORE PUSH1 0x32 PUSH1 0x4 MSTORE PUSH1 0x24 PUSH1 0x0 REVERT JUMPDEST ADD DUP2 SWAP1 SSTORE POP PUSH17 0x637B647C39CBB9D3D27FFFFFFFFFFFFFF PUSH1 0x2 PUSH1 0x44 PUSH1 0x80 DUP2 LT PUSH3 0xD2F JUMPI PUSH32 0x4E487B7100000000000000000000000000000000000000000000000000000000 PUSH1 0x0 MSTORE PUSH1 0x32 PUSH1 0x4 MSTORE PUSH1 0x24 PUSH1 0x0 REVERT JUMPDEST ADD DUP2 SWAP1 SSTORE POP PUSH17 0x5F63B1FC104DBD39587FFFFFFFFFFFFFF PUSH1 0x2 PUSH1 0x45 PUSH1 0x80 DUP2 LT PUSH3 0xD82 JUMPI PUSH32 0x4E487B7100000000000000000000000000000000000000000000000000000000 PUSH1 0x0 MSTORE PUSH1 0x32 PUSH1 0x4 MSTORE PUSH1 0x24 PUSH1 0x0 REVERT JUMPDEST ADD DUP2 SWAP1 SSTORE POP PUSH17 0x5B771955B36E12F7235FFFFFFFFFFFFFF PUSH1 0x2 PUSH1 0x46 PUSH1 0x80 DUP2 LT PUSH3 0xDD5 JUMPI PUSH32 0x4E487B7100000000000000000000000000000000000000000000000000000000 PUSH1 0x0 MSTORE PUSH1 0x32 PUSH1 0x4 MSTORE PUSH1 0x24 PUSH1 0x0 REVERT JUMPDEST ADD DUP2 SWAP1 SSTORE POP PUSH17 0x57B3D49DDA84556D6F6FFFFFFFFFFFFFF PUSH1 0x2 PUSH1 0x47 PUSH1 0x80 DUP2 LT PUSH3 0xE28 JUMPI PUSH32 0x4E487B7100000000000000000000000000000000000000000000000000000000 PUSH1 0x0 MSTORE PUSH1 0x32 PUSH1 0x4 MSTORE PUSH1 0x24 PUSH1 0x0 REVERT JUMPDEST ADD DUP2 SWAP1 SSTORE POP PUSH17 0x54183095B2C8ECECF30FFFFFFFFFFFFFF PUSH1 0x2 PUSH1 0x48 PUSH1 0x80 DUP2 LT PUSH3 0xE7B JUMPI PUSH32 0x4E487B7100000000000000000000000000000000000000000000000000000000 PUSH1 0x0 MSTORE PUSH1 0x32 PUSH1 0x4 MSTORE PUSH1 0x24 PUSH1 0x0 REVERT JUMPDEST ADD DUP2 SWAP1 SSTORE POP PUSH17 0x50A28BE635CA2B888F77FFFFFFFFFFFFF PUSH1 0x2 PUSH1 0x49 PUSH1 0x80 DUP2 LT PUSH3 0xECE JUMPI PUSH32 0x4E487B7100000000000000000000000000000000000000000000000000000000 PUSH1 0x0 MSTORE PUSH1 0x32 PUSH1 0x4 MSTORE PUSH1 0x24 PUSH1 0x0 REVERT JUMPDEST ADD DUP2 SWAP1 SSTORE POP PUSH17 0x4D5156639708C9DB33C3FFFFFFFFFFFFF PUSH1 0x2 PUSH1 0x4A PUSH1 0x80 DUP2 LT PUSH3 0xF21 JUMPI PUSH32 0x4E487B7100000000000000000000000000000000000000000000000000000000 PUSH1 0x0 MSTORE PUSH1 0x32 PUSH1 0x4 MSTORE PUSH1 0x24 PUSH1 0x0 REVERT JUMPDEST ADD DUP2 SWAP1 SSTORE POP PUSH17 0x4A23105873875BD52DFDFFFFFFFFFFFFF PUSH1 0x2 PUSH1 0x4B PUSH1 0x80 DUP2 LT PUSH3 0xF74 JUMPI PUSH32 0x4E487B7100000000000000000000000000000000000000000000000000000000 PUSH1 0x0 MSTORE PUSH1 0x32 PUSH1 0x4 MSTORE PUSH1 0x24 PUSH1 0x0 REVERT JUMPDEST ADD DUP2 SWAP1 SSTORE POP PUSH17 0x471649D87199AA990756FFFFFFFFFFFFF PUSH1 0x2 PUSH1 0x4C PUSH1 0x80 DUP2 LT PUSH3 0xFC7 JUMPI PUSH32 0x4E487B7100000000000000000000000000000000000000000000000000000000 PUSH1 0x0 MSTORE PUSH1 0x32 PUSH1 0x4 MSTORE PUSH1 0x24 PUSH1 0x0 REVERT JUMPDEST ADD DUP2 SWAP1 SSTORE POP PUSH17 0x4429A21A029D4C1457CFBFFFFFFFFFFFF PUSH1 0x2 PUSH1 0x4D PUSH1 0x80 DUP2 LT PUSH3 0x101A JUMPI PUSH32 0x4E487B7100000000000000000000000000000000000000000000000000000000 PUSH1 0x0 MSTORE PUSH1 0x32 PUSH1 0x4 MSTORE PUSH1 0x24 PUSH1 0x0 REVERT JUMPDEST ADD DUP2 SWAP1 SSTORE POP PUSH17 0x415BC6D6FB7DD71AF2CB3FFFFFFFFFFFF PUSH1 0x2 PUSH1 0x4E PUSH1 0x80 DUP2 LT PUSH3 0x106D JUMPI PUSH32 0x4E487B7100000000000000000000000000000000000000000000000000000000 PUSH1 0x0 MSTORE PUSH1 0x32 PUSH1 0x4 MSTORE PUSH1 0x24 PUSH1 0x0 REVERT JUMPDEST ADD DUP2 SWAP1 SSTORE POP PUSH17 0x3EAB73B3BBFE282243CE1FFFFFFFFFFFF PUSH1 0x2 PUSH1 0x4F PUSH1 0x80 DUP2 LT PUSH3 0x10C0 JUMPI PUSH32 0x4E487B7100000000000000000000000000000000000000000000000000000000 PUSH1 0x0 MSTORE PUSH1 0x32 PUSH1 0x4 MSTORE PUSH1 0x24 PUSH1 0x0 REVERT JUMPDEST ADD DUP2 SWAP1 SSTORE POP PUSH17 0x3C1771AC9FB6B4C18E229FFFFFFFFFFFF PUSH1 0x2 PUSH1 0x50 PUSH1 0x80 DUP2 LT PUSH3 0x1113 JUMPI PUSH32 0x4E487B7100000000000000000000000000000000000000000000000000000000 PUSH1 0x0 MSTORE PUSH1 0x32 PUSH1 0x4 MSTORE PUSH1 0x24 PUSH1 0x0 REVERT JUMPDEST ADD DUP2 SWAP1 SSTORE POP PUSH17 0x399E96897690418F785257FFFFFFFFFFF PUSH1 0x2 PUSH1 0x51 PUSH1 0x80 DUP2 LT PUSH3 0x1166 JUMPI PUSH32 0x4E487B7100000000000000000000000000000000000000000000000000000000 PUSH1 0x0 MSTORE PUSH1 0x32 PUSH1 0x4 MSTORE PUSH1 0x24 PUSH1 0x0 REVERT JUMPDEST ADD DUP2 SWAP1 SSTORE POP PUSH17 0x373FC456C53BB779BF0EA9FFFFFFFFFFF PUSH1 0x2 PUSH1 0x52 PUSH1 0x80 DUP2 LT PUSH3 0x11B9 JUMPI PUSH32 0x4E487B7100000000000000000000000000000000000000000000000000000000 PUSH1 0x0 MSTORE PUSH1 0x32 PUSH1 0x4 MSTORE PUSH1 0x24 PUSH1 0x0 REVERT JUMPDEST ADD DUP2 SWAP1 SSTORE POP PUSH17 0x34F9E8E490C48E67E6AB8BFFFFFFFFFFF PUSH1 0x2 PUSH1 0x53 PUSH1 0x80 DUP2 LT PUSH3 0x120C JUMPI PUSH32 0x4E487B7100000000000000000000000000000000000000000000000000000000 PUSH1 0x0 MSTORE PUSH1 0x32 PUSH1 0x4 MSTORE PUSH1 0x24 PUSH1 0x0 REVERT JUMPDEST ADD DUP2 SWAP1 SSTORE POP PUSH17 0x32CBFD4A7ADC790560B3337FFFFFFFFFF PUSH1 0x2 PUSH1 0x54 PUSH1 0x80 DUP2 LT PUSH3 0x125F JUMPI PUSH32 0x4E487B7100000000000000000000000000000000000000000000000000000000 PUSH1 0x0 MSTORE PUSH1 0x32 PUSH1 0x4 MSTORE PUSH1 0x24 PUSH1 0x0 REVERT JUMPDEST ADD DUP2 SWAP1 SSTORE POP PUSH17 0x30B50570F6E5D2ACCA94613FFFFFFFFFF PUSH1 0x2 PUSH1 0x55 PUSH1 0x80 DUP2 LT PUSH3 0x12B2 JUMPI PUSH32 0x4E487B7100000000000000000000000000000000000000000000000000000000 PUSH1 0x0 MSTORE PUSH1 0x32 PUSH1 0x4 MSTORE PUSH1 0x24 PUSH1 0x0 REVERT JUMPDEST ADD DUP2 SWAP1 SSTORE POP PUSH17 0x2EB40F9F620FDA6B56C2861FFFFFFFFFF PUSH1 0x2 PUSH1 0x56 PUSH1 0x80 DUP2 LT PUSH3 0x1305 JUMPI PUSH32 0x4E487B7100000000000000000000000000000000000000000000000000000000 PUSH1 0x0 MSTORE PUSH1 0x32 PUSH1 0x4 MSTORE PUSH1 0x24 PUSH1 0x0 REVERT JUMPDEST ADD DUP2 SWAP1 SSTORE POP PUSH17 0x2CC8340ECB0D0F520A6AF58FFFFFFFFFF PUSH1 0x2 PUSH1 0x57 PUSH1 0x80 DUP2 LT PUSH3 0x1358 JUMPI PUSH32 0x4E487B7100000000000000000000000000000000000000000000000000000000 PUSH1 0x0 MSTORE PUSH1 0x32 PUSH1 0x4 MSTORE PUSH1 0x24 PUSH1 0x0 REVERT JUMPDEST ADD DUP2 SWAP1 SSTORE POP PUSH17 0x2AF09481380A0A35CF1BA02FFFFFFFFFF PUSH1 0x2 PUSH1 0x58 PUSH1 0x80 DUP2 LT PUSH3 0x13AB JUMPI PUSH32 0x4E487B7100000000000000000000000000000000000000000000000000000000 PUSH1 0x0 MSTORE PUSH1 0x32 PUSH1 0x4 MSTORE PUSH1 0x24 PUSH1 0x0 REVERT JUMPDEST ADD DUP2 SWAP1 SSTORE POP PUSH17 0x292C5BDD3B92EC810287B1B3FFFFFFFFF PUSH1 0x2 PUSH1 0x59 PUSH1 0x80 DUP2 LT PUSH3 0x13FE JUMPI PUSH32 0x4E487B7100000000000000000000000000000000000000000000000000000000 PUSH1 0x0 MSTORE PUSH1 0x32 PUSH1 0x4 MSTORE PUSH1 0x24 PUSH1 0x0 REVERT JUMPDEST ADD DUP2 SWAP1 SSTORE POP PUSH17 0x277ABDCDAB07D5A77AC6D6B9FFFFFFFFF PUSH1 0x2 PUSH1 0x5A PUSH1 0x80 DUP2 LT PUSH3 0x1451 JUMPI PUSH32 0x4E487B7100000000000000000000000000000000000000000000000000000000 PUSH1 0x0 MSTORE PUSH1 0x32 PUSH1 0x4 MSTORE PUSH1 0x24 PUSH1 0x0 REVERT JUMPDEST ADD DUP2 SWAP1 SSTORE POP PUSH17 0x25DAF6654B1EAA55FD64DF5EFFFFFFFFF PUSH1 0x2 PUSH1 0x5B PUSH1 0x80 DUP2 LT PUSH3 0x14A4 JUMPI PUSH32 0x4E487B7100000000000000000000000000000000000000000000000000000000 PUSH1 0x0 MSTORE PUSH1 0x32 PUSH1 0x4 MSTORE PUSH1 0x24 PUSH1 0x0 REVERT JUMPDEST ADD DUP2 SWAP1 SSTORE POP PUSH17 0x244C49C648BAA98192DCE88B7FFFFFFFF PUSH1 0x2 PUSH1 0x5C PUSH1 0x80 DUP2 LT PUSH3 0x14F7 JUMPI PUSH32 0x4E487B7100000000000000000000000000000000000000000000000000000000 PUSH1 0x0 MSTORE PUSH1 0x32 PUSH1 0x4 MSTORE PUSH1 0x24 PUSH1 0x0 REVERT JUMPDEST ADD DUP2 SWAP1 SSTORE POP PUSH17 0x22CE03CD5619A311B2471268BFFFFFFFF PUSH1 0x2 PUSH1 0x5D PUSH1 0x80 DUP2 LT PUSH3 0x154A JUMPI PUSH32 0x4E487B7100000000000000000000000000000000000000000000000000000000 PUSH1 0x0 MSTORE PUSH1 0x32 PUSH1 0x4 MSTORE PUSH1 0x24 PUSH1 0x0 REVERT JUMPDEST ADD DUP2 SWAP1 SSTORE POP PUSH17 0x215F77C045FBE885654A44A0FFFFFFFFF PUSH1 0x2 PUSH1 0x5E PUSH1 0x80 DUP2 LT PUSH3 0x159D JUMPI PUSH32 0x4E487B7100000000000000000000000000000000000000000000000000000000 PUSH1 0x0 MSTORE PUSH1 0x32 PUSH1 0x4 MSTORE PUSH1 0x24 PUSH1 0x0 REVERT JUMPDEST ADD DUP2 SWAP1 SSTORE POP PUSH17 0x1FFFFFFFFFFFFFFFFFFFFFFFFFFFFFFFF PUSH1 0x2 PUSH1 0x5F PUSH1 0x80 DUP2 LT PUSH3 0x15F0 JUMPI PUSH32 0x4E487B7100000000000000000000000000000000000000000000000000000000 PUSH1 0x0 MSTORE PUSH1 0x32 PUSH1 0x4 MSTORE PUSH1 0x24 PUSH1 0x0 REVERT JUMPDEST ADD DUP2 SWAP1 SSTORE POP PUSH17 0x1EAEFDBDAAEE7421FC4D3EDE5FFFFFFFF PUSH1 0x2 PUSH1 0x60 PUSH1 0x80 DUP2 LT PUSH3 0x1643 JUMPI PUSH32 0x4E487B7100000000000000000000000000000000000000000000000000000000 PUSH1 0x0 MSTORE PUSH1 0x32 PUSH1 0x4 MSTORE PUSH1 0x24 PUSH1 0x0 REVERT JUMPDEST ADD DUP2 SWAP1 SSTORE POP PUSH17 0x1D6BD8B2EB257DF7E8CA57B09BFFFFFFF PUSH1 0x2 PUSH1 0x61 PUSH1 0x80 DUP2 LT PUSH3 0x1696 JUMPI PUSH32 0x4E487B7100000000000000000000000000000000000000000000000000000000 PUSH1 0x0 MSTORE PUSH1 0x32 PUSH1 0x4 MSTORE PUSH1 0x24 PUSH1 0x0 REVERT JUMPDEST ADD DUP2 SWAP1 SSTORE POP PUSH17 0x1C35FEDD14B861EB0443F7F133FFFFFFF PUSH1 0x2 PUSH1 0x62 PUSH1 0x80 DUP2 LT PUSH3 0x16E9 JUMPI PUSH32 0x4E487B7100000000000000000000000000000000000000000000000000000000 PUSH1 0x0 MSTORE PUSH1 0x32 PUSH1 0x4 MSTORE PUSH1 0x24 PUSH1 0x0 REVERT JUMPDEST ADD DUP2 SWAP1 SSTORE POP PUSH17 0x1B0CE43B322BCDE4A56E8ADA5AFFFFFFF PUSH1 0x2 PUSH1 0x63 PUSH1 0x80 DUP2 LT PUSH3 0x173C JUMPI PUSH32 0x4E487B7100000000000000000000000000000000000000000000000000000000 PUSH1 0x0 MSTORE PUSH1 0x32 PUSH1 0x4 MSTORE PUSH1 0x24 PUSH1 0x0 REVERT JUMPDEST ADD DUP2 SWAP1 SSTORE POP PUSH17 0x19F0028EC1FFF007F5A195A39DFFFFFFF PUSH1 0x2 PUSH1 0x64 PUSH1 0x80 DUP2 LT PUSH3 0x178F JUMPI PUSH32 0x4E487B7100000000000000000000000000000000000000000000000000000000 PUSH1 0x0 MSTORE PUSH1 0x32 PUSH1 0x4 MSTORE PUSH1 0x24 PUSH1 0x0 REVERT JUMPDEST ADD DUP2 SWAP1 SSTORE POP PUSH17 0x18DED91F0E72EE74F49B15BA527FFFFFF PUSH1 0x2 PUSH1 0x65 PUSH1 0x80 DUP2 LT PUSH3 0x17E2 JUMPI PUSH32 0x4E487B7100000000000000000000000000000000000000000000000000000000 PUSH1 0x0 MSTORE PUSH1 0x32 PUSH1 0x4 MSTORE PUSH1 0x24 PUSH1 0x0 REVERT JUMPDEST ADD DUP2 SWAP1 SSTORE POP PUSH17 0x17D8EC7F04136F4E5615FD41A63FFFFFF PUSH1 0x2 PUSH1 0x66 PUSH1 0x80 DUP2 LT PUSH3 0x1835 JUMPI PUSH32 0x4E487B7100000000000000000000000000000000000000000000000000000000 PUSH1 0x0 MSTORE PUSH1 0x32 PUSH1 0x4 MSTORE PUSH1 0x24 PUSH1 0x0 REVERT JUMPDEST ADD DUP2 SWAP1 SSTORE POP PUSH17 0x16DDC6556CDB84BDC8D12D22E6FFFFFFF PUSH1 0x2 PUSH1 0x67 PUSH1 0x80 DUP2 LT PUSH3 0x1888 JUMPI PUSH32 0x4E487B7100000000000000000000000000000000000000000000000000000000 PUSH1 0x0 MSTORE PUSH1 0x32 PUSH1 0x4 MSTORE PUSH1 0x24 PUSH1 0x0 REVERT JUMPDEST ADD DUP2 SWAP1 SSTORE POP PUSH17 0x15ECF52776A1155B5BD8395814F7FFFFF PUSH1 0x2 PUSH1 0x68 PUSH1 0x80 DUP2 LT PUSH3 0x18DB JUMPI PUSH32 0x4E487B7100000000000000000000000000000000000000000000000000000000 PUSH1 0x0 MSTORE PUSH1 0x32 PUSH1 0x4 MSTORE PUSH1 0x24 PUSH1 0x0 REVERT JUMPDEST ADD DUP2 SWAP1 SSTORE POP PUSH17 0x15060C256CB23B3B3CC3754CF40FFFFFF PUSH1 0x2 PUSH1 0x69 PUSH1 0x80 DUP2 LT PUSH3 0x192E JUMPI PUSH32 0x4E487B7100000000000000000000000000000000000000000000000000000000 PUSH1 0x0 MSTORE PUSH1 0x32 PUSH1 0x4 MSTORE PUSH1 0x24 PUSH1 0x0 REVERT JUMPDEST ADD DUP2 SWAP1 SSTORE POP PUSH17 0x1428A2F98D728AE223DDAB715BE3FFFFF PUSH1 0x2 PUSH1 0x6A PUSH1 0x80 DUP2 LT PUSH3 0x1981 JUMPI PUSH32 0x4E487B7100000000000000000000000000000000000000000000000000000000 PUSH1 0x0 MSTORE PUSH1 0x32 PUSH1 0x4 MSTORE PUSH1 0x24 PUSH1 0x0 REVERT JUMPDEST ADD DUP2 SWAP1 SSTORE POP PUSH17 0x13545598E5C23276CCF0EDE68034FFFFF PUSH1 0x2 PUSH1 0x6B PUSH1 0x80 DUP2 LT PUSH3 0x19D4 JUMPI PUSH32 0x4E487B7100000000000000000000000000000000000000000000000000000000 PUSH1 0x0 MSTORE PUSH1 0x32 PUSH1 0x4 MSTORE PUSH1 0x24 PUSH1 0x0 REVERT JUMPDEST ADD DUP2 SWAP1 SSTORE POP PUSH17 0x1288C4161CE1D6F54B7F61081194FFFFF PUSH1 0x2 PUSH1 0x6C PUSH1 0x80 DUP2 LT PUSH3 0x1A27 JUMPI PUSH32 0x4E487B7100000000000000000000000000000000000000000000000000000000 PUSH1 0x0 MSTORE PUSH1 0x32 PUSH1 0x4 MSTORE PUSH1 0x24 PUSH1 0x0 REVERT JUMPDEST ADD DUP2 SWAP1 SSTORE POP PUSH17 0x11C592761C666AA641D5A01A40F17FFFF PUSH1 0x2 PUSH1 0x6D PUSH1 0x80 DUP2 LT PUSH3 0x1A7A JUMPI PUSH32 0x4E487B7100000000000000000000000000000000000000000000000000000000 PUSH1 0x0 MSTORE PUSH1 0x32 PUSH1 0x4 MSTORE PUSH1 0x24 PUSH1 0x0 REVERT JUMPDEST ADD DUP2 SWAP1 SSTORE POP PUSH17 0x110A688680A7530515F3E6E6CFDCDFFFF PUSH1 0x2 PUSH1 0x6E PUSH1 0x80 DUP2 LT PUSH3 0x1ACD JUMPI PUSH32 0x4E487B7100000000000000000000000000000000000000000000000000000000 PUSH1 0x0 MSTORE PUSH1 0x32 PUSH1 0x4 MSTORE PUSH1 0x24 PUSH1 0x0 REVERT JUMPDEST ADD DUP2 SWAP1 SSTORE POP PUSH17 0x1056F1B5BEDF75C6BCB2CE8AED428FFFF PUSH1 0x2 PUSH1 0x6F PUSH1 0x80 DUP2 LT PUSH3 0x1B20 JUMPI PUSH32 0x4E487B7100000000000000000000000000000000000000000000000000000000 PUSH1 0x0 MSTORE PUSH1 0x32 PUSH1 0x4 MSTORE PUSH1 0x24 PUSH1 0x0 REVERT JUMPDEST ADD DUP2 SWAP1 SSTORE POP PUSH16 0xFAADCECEEFF8A0890F3875F008277FFF PUSH1 0x2 PUSH1 0x70 PUSH1 0x80 DUP2 LT PUSH3 0x1B72 JUMPI PUSH32 0x4E487B7100000000000000000000000000000000000000000000000000000000 PUSH1 0x0 MSTORE PUSH1 0x32 PUSH1 0x4 MSTORE PUSH1 0x24 PUSH1 0x0 REVERT JUMPDEST ADD DUP2 SWAP1 SSTORE POP PUSH16 0xF05DC6B27EDAD306388A600F6BA0BFFF PUSH1 0x2 PUSH1 0x71 PUSH1 0x80 DUP2 LT PUSH3 0x1BC4 JUMPI PUSH32 0x4E487B7100000000000000000000000000000000000000000000000000000000 PUSH1 0x0 MSTORE PUSH1 0x32 PUSH1 0x4 MSTORE PUSH1 0x24 PUSH1 0x0 REVERT JUMPDEST ADD DUP2 SWAP1 SSTORE POP PUSH16 0xE67A5A25DA41063DE1495D5B18CDBFFF PUSH1 0x2 PUSH1 0x72 PUSH1 0x80 DUP2 LT PUSH3 0x1C16 JUMPI PUSH32 0x4E487B7100000000000000000000000000000000000000000000000000000000 PUSH1 0x0 MSTORE PUSH1 0x32 PUSH1 0x4 MSTORE PUSH1 0x24 PUSH1 0x0 REVERT JUMPDEST ADD DUP2 SWAP1 SSTORE POP PUSH16 0xDCFF115B14EEDDE6FC3AA5353F2E4FFF PUSH1 0x2 PUSH1 0x73 PUSH1 0x80 DUP2 LT PUSH3 0x1C68 JUMPI PUSH32 0x4E487B7100000000000000000000000000000000000000000000000000000000 PUSH1 0x0 MSTORE PUSH1 0x32 PUSH1 0x4 MSTORE PUSH1 0x24 PUSH1 0x0 REVERT JUMPDEST ADD DUP2 SWAP1 SSTORE POP PUSH16 0xD3E7A3924312399F9AAE2E0F868F8FFF PUSH1 0x2 PUSH1 0x74 PUSH1 0x80 DUP2 LT PUSH3 0x1CBA JUMPI PUSH32 0x4E487B7100000000000000000000000000000000000000000000000000000000 PUSH1 0x0 MSTORE PUSH1 0x32 PUSH1 0x4 MSTORE PUSH1 0x24 PUSH1 0x0 REVERT JUMPDEST ADD DUP2 SWAP1 SSTORE POP PUSH16 0xCB2FF529EB71E41582CCCD5A1EE26FFF PUSH1 0x2 PUSH1 0x75 PUSH1 0x80 DUP2 LT PUSH3 0x1D0C JUMPI PUSH32 0x4E487B7100000000000000000000000000000000000000000000000000000000 PUSH1 0x0 MSTORE PUSH1 0x32 PUSH1 0x4 MSTORE PUSH1 0x24 PUSH1 0x0 REVERT JUMPDEST ADD DUP2 SWAP1 SSTORE POP PUSH16 0xC2D415C3DB974AB32A51840C0B67EDFF PUSH1 0x2 PUSH1 0x76 PUSH1 0x80 DUP2 LT PUSH3 0x1D5E JUMPI PUSH32 0x4E487B7100000000000000000000000000000000000000000000000000000000 PUSH1 0x0 MSTORE PUSH1 0x32 PUSH1 0x4 MSTORE PUSH1 0x24 PUSH1 0x0 REVERT JUMPDEST ADD DUP2 SWAP1 SSTORE POP PUSH16 0xBAD03E7D883F69AD5B0A186184E06BFF PUSH1 0x2 PUSH1 0x77 PUSH1 0x80 DUP2 LT PUSH3 0x1DB0 JUMPI PUSH32 0x4E487B7100000000000000000000000000000000000000000000000000000000 PUSH1 0x0 MSTORE PUSH1 0x32 PUSH1 0x4 MSTORE PUSH1 0x24 PUSH1 0x0 REVERT JUMPDEST ADD DUP2 SWAP1 SSTORE POP PUSH16 0xB320D03B2C343D4829ABD6075F0CC5FF PUSH1 0x2 PUSH1 0x78 PUSH1 0x80 DUP2 LT PUSH3 0x1E02 JUMPI PUSH32 0x4E487B7100000000000000000000000000000000000000000000000000000000 PUSH1 0x0 MSTORE PUSH1 0x32 PUSH1 0x4 MSTORE PUSH1 0x24 PUSH1 0x0 REVERT JUMPDEST ADD DUP2 SWAP1 SSTORE POP PUSH16 0xABC25204E02828D73C6E80BCDB1A95BF PUSH1 0x2 PUSH1 0x79 PUSH1 0x80 DUP2 LT PUSH3 0x1E54 JUMPI PUSH32 0x4E487B7100000000000000000000000000000000000000000000000000000000 PUSH1 0x0 MSTORE PUSH1 0x32 PUSH1 0x4 MSTORE PUSH1 0x24 PUSH1 0x0 REVERT JUMPDEST ADD DUP2 SWAP1 SSTORE POP PUSH16 0xA4B16F74EE4BB2040A1EC6C15FBBF2DF PUSH1 0x2 PUSH1 0x7A PUSH1 0x80 DUP2 LT PUSH3 0x1EA6 JUMPI PUSH32 0x4E487B7100000000000000000000000000000000000000000000000000000000 PUSH1 0x0 MSTORE PUSH1 0x32 PUSH1 0x4 MSTORE PUSH1 0x24 PUSH1 0x0 REVERT JUMPDEST ADD DUP2 SWAP1 SSTORE POP PUSH16 0x9DEAF736AC1F569DEB1B5AE3F36C130F PUSH1 0x2 PUSH1 0x7B PUSH1 0x80 DUP2 LT PUSH3 0x1EF8 JUMPI PUSH32 0x4E487B7100000000000000000000000000000000000000000000000000000000 PUSH1 0x0 MSTORE PUSH1 0x32 PUSH1 0x4 MSTORE PUSH1 0x24 PUSH1 0x0 REVERT JUMPDEST ADD DUP2 SWAP1 SSTORE POP PUSH16 0x976BD9952C7AA957F5937D790EF65037 PUSH1 0x2 PUSH1 0x7C PUSH1 0x80 DUP2 LT PUSH3 0x1F4A JUMPI PUSH32 0x4E487B7100000000000000000000000000000000000000000000000000000000 PUSH1 0x0 MSTORE PUSH1 0x32 PUSH1 0x4 MSTORE PUSH1 0x24 PUSH1 0x0 REVERT JUMPDEST ADD DUP2 SWAP1 SSTORE POP PUSH16 0x9131271922EAA6064B73A22D0BD4F2BF PUSH1 0x2 PUSH1 0x7D PUSH1 0x80 DUP2 LT PUSH3 0x1F9C JUMPI PUSH32 0x4E487B7100000000000000000000000000000000000000000000000000000000 PUSH1 0x0 MSTORE PUSH1 0x32 PUSH1 0x4 MSTORE PUSH1 0x24 PUSH1 0x0 REVERT JUMPDEST ADD DUP2 SWAP1 SSTORE POP PUSH16 0x8B380F3558668C46C91C49A2F8E967B9 PUSH1 0x2 PUSH1 0x7E PUSH1 0x80 DUP2 LT PUSH3 0x1FEE JUMPI PUSH32 0x4E487B7100000000000000000000000000000000000000000000000000000000 PUSH1 0x0 MSTORE PUSH1 0x32 PUSH1 0x4 MSTORE PUSH1 0x24 PUSH1 0x0 REVERT JUMPDEST ADD DUP2 SWAP1 SSTORE POP PUSH16 0x857DDF0117EFA215952912839F6473E6 PUSH1 0x2 PUSH1 0x7F PUSH1 0x80 DUP2 LT PUSH3 0x2040 JUMPI PUSH32 0x4E487B7100000000000000000000000000000000000000000000000000000000 PUSH1 0x0 MSTORE PUSH1 0x32 PUSH1 0x4 MSTORE PUSH1 0x24 PUSH1 0x0 REVERT JUMPDEST ADD DUP2 SWAP1 SSTORE POP PUSH3 0xF4240 PUSH1 0x82 PUSH1 0x0 PUSH2 0x100 EXP DUP2 SLOAD DUP2 PUSH4 0xFFFFFFFF MUL NOT AND SWAP1 DUP4 PUSH4 0xFFFFFFFF AND MUL OR SWAP1 SSTORE POP DUP3 PUSH1 0x89 PUSH1 0x0 PUSH2 0x100 EXP DUP2 SLOAD DUP2 PUSH20 0xFFFFFFFFFFFFFFFFFFFFFFFFFFFFFFFFFFFFFFFF MUL NOT AND SWAP1 DUP4 PUSH20 0xFFFFFFFFFFFFFFFFFFFFFFFFFFFFFFFFFFFFFFFF AND MUL OR SWAP1 SSTORE POP DUP4 PUSH1 0x8A PUSH1 0x0 PUSH2 0x100 EXP DUP2 SLOAD DUP2 PUSH20 0xFFFFFFFFFFFFFFFFFFFFFFFFFFFFFFFFFFFFFFFF MUL NOT AND SWAP1 DUP4 PUSH20 0xFFFFFFFFFFFFFFFFFFFFFFFFFFFFFFFFFFFFFFFF AND MUL OR SWAP1 SSTORE POP DUP5 PUSH1 0x8B PUSH1 0x0 PUSH2 0x100 EXP DUP2 SLOAD DUP2 PUSH20 0xFFFFFFFFFFFFFFFFFFFFFFFFFFFFFFFFFFFFFFFF MUL NOT AND SWAP1 DUP4 PUSH20 0xFFFFFFFFFFFFFFFFFFFFFFFFFFFFFFFFFFFFFFFF AND MUL OR SWAP1 SSTORE POP PUSH1 0x8C PUSH1 0x0 SWAP1 DUP1 PUSH1 0x1 DUP2 SLOAD ADD DUP1 DUP3 SSTORE DUP1 SWAP2 POP POP PUSH1 0x1 SWAP1 SUB SWAP1 PUSH1 0x0 MSTORE PUSH1 0x20 PUSH1 0x0 KECCAK256 ADD PUSH1 0x0 SWAP1 SWAP2 SWAP1 SWAP2 SWAP1 SWAP2 PUSH2 0x100 EXP DUP2 SLOAD DUP2 PUSH20 0xFFFFFFFFFFFFFFFFFFFFFFFFFFFFFFFFFFFFFFFF MUL NOT AND SWAP1 DUP4 PUSH20 0xFFFFFFFFFFFFFFFFFFFFFFFFFFFFFFFFFFFFFFFF AND MUL OR SWAP1 SSTORE POP PUSH1 0x8C PUSH1 0x89 PUSH1 0x0 SWAP1 SLOAD SWAP1 PUSH2 0x100 EXP SWAP1 DIV PUSH20 0xFFFFFFFFFFFFFFFFFFFFFFFFFFFFFFFFFFFFFFFF AND SWAP1 DUP1 PUSH1 0x1 DUP2 SLOAD ADD DUP1 DUP3 SSTORE DUP1 SWAP2 POP POP PUSH1 0x1 SWAP1 SUB SWAP1 PUSH1 0x0 MSTORE PUSH1 0x20 PUSH1 0x0 KECCAK256 ADD PUSH1 0x0 SWAP1 SWAP2 SWAP1 SWAP2 SWAP1 SWAP2 PUSH2 0x100 EXP DUP2 SLOAD DUP2 PUSH20 0xFFFFFFFFFFFFFFFFFFFFFFFFFFFFFFFFFFFFFFFF MUL NOT AND SWAP1 DUP4 PUSH20 0xFFFFFFFFFFFFFFFFFFFFFFFFFFFFFFFFFFFFFFFF AND MUL OR SWAP1 SSTORE POP PUSH1 0x1 PUSH1 0x87 DUP2 SWAP1 SSTORE POP DUP2 PUSH1 0x82 PUSH1 0x4 PUSH2 0x100 EXP DUP2 SLOAD DUP2 PUSH4 0xFFFFFFFF MUL NOT AND SWAP1 DUP4 PUSH4 0xFFFFFFFF AND MUL OR SWAP1 SSTORE POP DUP1 PUSH1 0x84 DUP2 SWAP1 SSTORE POP PUSH1 0x19 PUSH1 0x85 DUP2 SWAP1 SSTORE POP PUSH2 0x2710 PUSH1 0x86 DUP2 SWAP1 SSTORE POP PUSH1 0x2 PUSH1 0x88 DUP2 SWAP1 SSTORE POP POP POP POP POP POP PUSH3 0x24E9 JUMP JUMPDEST PUSH1 0x0 CALLER SWAP1 POP SWAP1 JUMP JUMPDEST DUP3 DUP1 SLOAD PUSH3 0x227F SWAP1 PUSH3 0x2436 JUMP JUMPDEST SWAP1 PUSH1 0x0 MSTORE PUSH1 0x20 PUSH1 0x0 KECCAK256 SWAP1 PUSH1 0x1F ADD PUSH1 0x20 SWAP1 DIV DUP2 ADD SWAP3 DUP3 PUSH3 0x22A3 JUMPI PUSH1 0x0 DUP6 SSTORE PUSH3 0x22EF JUMP JUMPDEST DUP3 PUSH1 0x1F LT PUSH3 0x22BE JUMPI DUP1 MLOAD PUSH1 0xFF NOT AND DUP4 DUP1 ADD OR DUP6 SSTORE PUSH3 0x22EF JUMP JUMPDEST DUP3 DUP1 ADD PUSH1 0x1 ADD DUP6 SSTORE DUP3 ISZERO PUSH3 0x22EF JUMPI SWAP2 DUP3 ADD JUMPDEST DUP3 DUP2 GT ISZERO PUSH3 0x22EE JUMPI DUP3 MLOAD DUP3 SSTORE SWAP2 PUSH1 0x20 ADD SWAP2 SWAP1 PUSH1 0x1 ADD SWAP1 PUSH3 0x22D1 JUMP JUMPDEST JUMPDEST POP SWAP1 POP PUSH3 0x22FE SWAP2 SWAP1 PUSH3 0x2302 JUMP JUMPDEST POP SWAP1 JUMP JUMPDEST JUMPDEST DUP1 DUP3 GT ISZERO PUSH3 0x231D JUMPI PUSH1 0x0 DUP2 PUSH1 0x0 SWAP1 SSTORE POP PUSH1 0x1 ADD PUSH3 0x2303 JUMP JUMPDEST POP SWAP1 JUMP JUMPDEST PUSH1 0x0 DUP2 MLOAD SWAP1 POP PUSH3 0x2332 DUP2 PUSH3 0x249B JUMP JUMPDEST SWAP3 SWAP2 POP POP JUMP JUMPDEST PUSH1 0x0 DUP2 MLOAD SWAP1 POP PUSH3 0x2349 DUP2 PUSH3 0x24B5 JUMP JUMPDEST SWAP3 SWAP2 POP POP JUMP JUMPDEST PUSH1 0x0 DUP2 MLOAD SWAP1 POP PUSH3 0x2360 DUP2 PUSH3 0x24CF JUMP JUMPDEST SWAP3 SWAP2 POP POP JUMP JUMPDEST PUSH1 0x0 DUP1 PUSH1 0x0 DUP1 PUSH1 0x0 PUSH1 0xA0 DUP7 DUP9 SUB SLT ISZERO PUSH3 0x237F JUMPI PUSH1 0x0 DUP1 REVERT JUMPDEST PUSH1 0x0 PUSH3 0x238F DUP9 DUP3 DUP10 ADD PUSH3 0x2321 JUMP JUMPDEST SWAP6 POP POP PUSH1 0x20 PUSH3 0x23A2 DUP9 DUP3 DUP10 ADD PUSH3 0x2321 JUMP JUMPDEST SWAP5 POP POP PUSH1 0x40 PUSH3 0x23B5 DUP9 DUP3 DUP10 ADD PUSH3 0x2321 JUMP JUMPDEST SWAP4 POP POP PUSH1 0x60 PUSH3 0x23C8 DUP9 DUP3 DUP10 ADD PUSH3 0x234F JUMP JUMPDEST SWAP3 POP POP PUSH1 0x80 PUSH3 0x23DB DUP9 DUP3 DUP10 ADD PUSH3 0x2338 JUMP JUMPDEST SWAP2 POP POP SWAP3 SWAP6 POP SWAP3 SWAP6 SWAP1 SWAP4 POP JUMP JUMPDEST PUSH1 0x0 PUSH3 0x23F5 DUP3 PUSH3 0x23FC JUMP JUMPDEST SWAP1 POP SWAP2 SWAP1 POP JUMP JUMPDEST PUSH1 0x0 PUSH20 0xFFFFFFFFFFFFFFFFFFFFFFFFFFFFFFFFFFFFFFFF DUP3 AND SWAP1 POP SWAP2 SWAP1 POP JUMP JUMPDEST PUSH1 0x0 DUP2 SWAP1 POP SWAP2 SWAP1 POP JUMP JUMPDEST PUSH1 0x0 PUSH4 0xFFFFFFFF DUP3 AND SWAP1 POP SWAP2 SWAP1 POP JUMP JUMPDEST PUSH1 0x0 PUSH1 0x2 DUP3 DIV SWAP1 POP PUSH1 0x1 DUP3 AND DUP1 PUSH3 0x244F JUMPI PUSH1 0x7F DUP3 AND SWAP2 POP JUMPDEST PUSH1 0x20 DUP3 LT DUP2 EQ ISZERO PUSH3 0x2466 JUMPI PUSH3 0x2465 PUSH3 0x246C JUMP JUMPDEST JUMPDEST POP SWAP2 SWAP1 POP JUMP JUMPDEST PUSH32 0x4E487B7100000000000000000000000000000000000000000000000000000000 PUSH1 0x0 MSTORE PUSH1 0x22 PUSH1 0x4 MSTORE PUSH1 0x24 PUSH1 0x0 REVERT JUMPDEST PUSH3 0x24A6 DUP2 PUSH3 0x23E8 JUMP JUMPDEST DUP2 EQ PUSH3 0x24B2 JUMPI PUSH1 0x0 DUP1 REVERT JUMPDEST POP JUMP JUMPDEST PUSH3 0x24C0 DUP2 PUSH3 0x241C JUMP JUMPDEST DUP2 EQ PUSH3 0x24CC JUMPI PUSH1 0x0 DUP1 REVERT JUMPDEST POP JUMP JUMPDEST PUSH3 0x24DA DUP2 PUSH3 0x2426 JUMP JUMPDEST DUP2 EQ PUSH3 0x24E6 JUMPI PUSH1 0x0 DUP1 REVERT JUMPDEST POP JUMP JUMPDEST PUSH2 0x4049 DUP1 PUSH3 0x24F9 PUSH1 0x0 CODECOPY PUSH1 0x0 RETURN INVALID PUSH1 0x80 PUSH1 0x40 MSTORE PUSH1 0x4 CALLDATASIZE LT PUSH2 0x181 JUMPI PUSH1 0x0 CALLDATALOAD PUSH1 0xE0 SHR DUP1 PUSH4 0x7B80889B GT PUSH2 0xD1 JUMPI DUP1 PUSH4 0xCA3E24C9 GT PUSH2 0x8A JUMPI DUP1 PUSH4 0xE4A28A52 GT PUSH2 0x64 JUMPI DUP1 PUSH4 0xE4A28A52 EQ PUSH2 0x543 JUMPI DUP1 PUSH4 0xECCC32F2 EQ PUSH2 0x56E JUMPI DUP1 PUSH4 0xF04B1188 EQ PUSH2 0x599 JUMPI DUP1 PUSH4 0xF2FDE38B EQ PUSH2 0x5D6 JUMPI PUSH2 0x181 JUMP JUMPDEST DUP1 PUSH4 0xCA3E24C9 EQ PUSH2 0x4C1 JUMPI DUP1 PUSH4 0xD53FFBCF EQ PUSH2 0x4EA JUMPI DUP1 PUSH4 0xE1F1E902 EQ PUSH2 0x506 JUMPI PUSH2 0x181 JUMP JUMPDEST DUP1 PUSH4 0x7B80889B EQ PUSH2 0x3AF JUMPI DUP1 PUSH4 0x8DA5CB5B EQ PUSH2 0x3DA JUMPI DUP1 PUSH4 0x9104C81E EQ PUSH2 0x405 JUMPI DUP1 PUSH4 0x918B7CFE EQ PUSH2 0x42E JUMPI DUP1 PUSH4 0xB586C9A2 EQ PUSH2 0x46B JUMPI DUP1 PUSH4 0xB6FAAF8A EQ PUSH2 0x496 JUMPI PUSH2 0x181 JUMP JUMPDEST DUP1 PUSH4 0x54FD4D50 GT PUSH2 0x13E JUMPI DUP1 PUSH4 0x70BA1113 GT PUSH2 0x118 JUMPI DUP1 PUSH4 0x70BA1113 EQ PUSH2 0x319 JUMPI DUP1 PUSH4 0x715018A6 EQ PUSH2 0x344 JUMPI DUP1 PUSH4 0x717AD438 EQ PUSH2 0x35B JUMPI DUP1 PUSH4 0x780249CD EQ PUSH2 0x384 JUMPI PUSH2 0x181 JUMP JUMPDEST DUP1 PUSH4 0x54FD4D50 EQ PUSH2 0x298 JUMPI DUP1 PUSH4 0x5CF590D9 EQ PUSH2 0x2C3 JUMPI DUP1 PUSH4 0x63795D57 EQ PUSH2 0x2EE JUMPI PUSH2 0x181 JUMP JUMPDEST DUP1 PUSH4 0xA9254E4 EQ PUSH2 0x186 JUMPI DUP1 PUSH4 0x1F2DC5EF EQ PUSH2 0x19D JUMPI DUP1 PUSH4 0x24D69228 EQ PUSH2 0x1C8 JUMPI DUP1 PUSH4 0x29A00E7C EQ PUSH2 0x1F3 JUMPI DUP1 PUSH4 0x4242BAC0 EQ PUSH2 0x230 JUMPI DUP1 PUSH4 0x49F9B0F7 EQ PUSH2 0x25B JUMPI JUMPDEST PUSH1 0x0 DUP1 REVERT JUMPDEST CALLVALUE DUP1 ISZERO PUSH2 0x192 JUMPI PUSH1 0x0 DUP1 REVERT JUMPDEST POP PUSH2 0x19B PUSH2 0x5FF JUMP JUMPDEST STOP JUMPDEST CALLVALUE DUP1 ISZERO PUSH2 0x1A9 JUMPI PUSH1 0x0 DUP1 REVERT JUMPDEST POP PUSH2 0x1B2 PUSH2 0x7C1 JUMP JUMPDEST PUSH1 0x40 MLOAD PUSH2 0x1BF SWAP2 SWAP1 PUSH2 0x3B2A JUMP JUMPDEST PUSH1 0x40 MLOAD DUP1 SWAP2 SUB SWAP1 RETURN JUMPDEST CALLVALUE DUP1 ISZERO PUSH2 0x1D4 JUMPI PUSH1 0x0 DUP1 REVERT JUMPDEST POP PUSH2 0x1DD PUSH2 0x7C7 JUMP JUMPDEST PUSH1 0x40 MLOAD PUSH2 0x1EA SWAP2 SWAP1 PUSH2 0x3B2A JUMP JUMPDEST PUSH1 0x40 MLOAD DUP1 SWAP2 SUB SWAP1 RETURN JUMPDEST CALLVALUE DUP1 ISZERO PUSH2 0x1FF JUMPI PUSH1 0x0 DUP1 REVERT JUMPDEST POP PUSH2 0x21A PUSH1 0x4 DUP1 CALLDATASIZE SUB DUP2 ADD SWAP1 PUSH2 0x215 SWAP2 SWAP1 PUSH2 0x37C8 JUMP JUMPDEST PUSH2 0x9B3 JUMP JUMPDEST PUSH1 0x40 MLOAD PUSH2 0x227 SWAP2 SWAP1 PUSH2 0x3B2A JUMP JUMPDEST PUSH1 0x40 MLOAD DUP1 SWAP2 SUB SWAP1 RETURN JUMPDEST CALLVALUE DUP1 ISZERO PUSH2 0x23C JUMPI PUSH1 0x0 DUP1 REVERT JUMPDEST POP PUSH2 0x245 PUSH2 0xAE5 JUMP JUMPDEST PUSH1 0x40 MLOAD PUSH2 0x252 SWAP2 SWAP1 PUSH2 0x3A8D JUMP JUMPDEST PUSH1 0x40 MLOAD DUP1 SWAP2 SUB SWAP1 RETURN JUMPDEST CALLVALUE DUP1 ISZERO PUSH2 0x267 JUMPI PUSH1 0x0 DUP1 REVERT JUMPDEST POP PUSH2 0x282 PUSH1 0x4 DUP1 CALLDATASIZE SUB DUP2 ADD SWAP1 PUSH2 0x27D SWAP2 SWAP1 PUSH2 0x37C8 JUMP JUMPDEST PUSH2 0xB0B JUMP JUMPDEST PUSH1 0x40 MLOAD PUSH2 0x28F SWAP2 SWAP1 PUSH2 0x3B2A JUMP JUMPDEST PUSH1 0x40 MLOAD DUP1 SWAP2 SUB SWAP1 RETURN JUMPDEST CALLVALUE DUP1 ISZERO PUSH2 0x2A4 JUMPI PUSH1 0x0 DUP1 REVERT JUMPDEST POP PUSH2 0x2AD PUSH2 0xC71 JUMP JUMPDEST PUSH1 0x40 MLOAD PUSH2 0x2BA SWAP2 SWAP1 PUSH2 0x3AA8 JUMP JUMPDEST PUSH1 0x40 MLOAD DUP1 SWAP2 SUB SWAP1 RETURN JUMPDEST CALLVALUE DUP1 ISZERO PUSH2 0x2CF JUMPI PUSH1 0x0 DUP1 REVERT JUMPDEST POP PUSH2 0x2D8 PUSH2 0xCFF JUMP JUMPDEST PUSH1 0x40 MLOAD PUSH2 0x2E5 SWAP2 SWAP1 PUSH2 0x3B2A JUMP JUMPDEST PUSH1 0x40 MLOAD DUP1 SWAP2 SUB SWAP1 RETURN JUMPDEST CALLVALUE DUP1 ISZERO PUSH2 0x2FA JUMPI PUSH1 0x0 DUP1 REVERT JUMPDEST POP PUSH2 0x303 PUSH2 0xD05 JUMP JUMPDEST PUSH1 0x40 MLOAD PUSH2 0x310 SWAP2 SWAP1 PUSH2 0x3B2A JUMP JUMPDEST PUSH1 0x40 MLOAD DUP1 SWAP2 SUB SWAP1 RETURN JUMPDEST CALLVALUE DUP1 ISZERO PUSH2 0x325 JUMPI PUSH1 0x0 DUP1 REVERT JUMPDEST POP PUSH2 0x32E PUSH2 0xD0B JUMP JUMPDEST PUSH1 0x40 MLOAD PUSH2 0x33B SWAP2 SWAP1 PUSH2 0x3B2A JUMP JUMPDEST PUSH1 0x40 MLOAD DUP1 SWAP2 SUB SWAP1 RETURN JUMPDEST CALLVALUE DUP1 ISZERO PUSH2 0x350 JUMPI PUSH1 0x0 DUP1 REVERT JUMPDEST POP PUSH2 0x359 PUSH2 0xD11 JUMP JUMPDEST STOP JUMPDEST CALLVALUE DUP1 ISZERO PUSH2 0x367 JUMPI PUSH1 0x0 DUP1 REVERT JUMPDEST POP PUSH2 0x382 PUSH1 0x4 DUP1 CALLDATASIZE SUB DUP2 ADD SWAP1 PUSH2 0x37D SWAP2 SWAP1 PUSH2 0x36C2 JUMP JUMPDEST PUSH2 0xE4B JUMP JUMPDEST STOP JUMPDEST CALLVALUE DUP1 ISZERO PUSH2 0x390 JUMPI PUSH1 0x0 DUP1 REVERT JUMPDEST POP PUSH2 0x399 PUSH2 0xFC4 JUMP JUMPDEST PUSH1 0x40 MLOAD PUSH2 0x3A6 SWAP2 SWAP1 PUSH2 0x3A57 JUMP JUMPDEST PUSH1 0x40 MLOAD DUP1 SWAP2 SUB SWAP1 RETURN JUMPDEST CALLVALUE DUP1 ISZERO PUSH2 0x3BB JUMPI PUSH1 0x0 DUP1 REVERT JUMPDEST POP PUSH2 0x3C4 PUSH2 0xFEA JUMP JUMPDEST PUSH1 0x40 MLOAD PUSH2 0x3D1 SWAP2 SWAP1 PUSH2 0x3B2A JUMP JUMPDEST PUSH1 0x40 MLOAD DUP1 SWAP2 SUB SWAP1 RETURN JUMPDEST CALLVALUE DUP1 ISZERO PUSH2 0x3E6 JUMPI PUSH1 0x0 DUP1 REVERT JUMPDEST POP PUSH2 0x3EF PUSH2 0xFF0 JUMP JUMPDEST PUSH1 0x40 MLOAD PUSH2 0x3FC SWAP2 SWAP1 PUSH2 0x39B3 JUMP JUMPDEST PUSH1 0x40 MLOAD DUP1 SWAP2 SUB SWAP1 RETURN JUMPDEST CALLVALUE DUP1 ISZERO PUSH2 0x411 JUMPI PUSH1 0x0 DUP1 REVERT JUMPDEST POP PUSH2 0x42C PUSH1 0x4 DUP1 CALLDATASIZE SUB DUP2 ADD SWAP1 PUSH2 0x427 SWAP2 SWAP1 PUSH2 0x373A JUMP JUMPDEST PUSH2 0x1019 JUMP JUMPDEST STOP JUMPDEST CALLVALUE DUP1 ISZERO PUSH2 0x43A JUMPI PUSH1 0x0 DUP1 REVERT JUMPDEST POP PUSH2 0x455 PUSH1 0x4 DUP1 CALLDATASIZE SUB DUP2 ADD SWAP1 PUSH2 0x450 SWAP2 SWAP1 PUSH2 0x373A JUMP JUMPDEST PUSH2 0x12DB JUMP JUMPDEST PUSH1 0x40 MLOAD PUSH2 0x462 SWAP2 SWAP1 PUSH2 0x39B3 JUMP JUMPDEST PUSH1 0x40 MLOAD DUP1 SWAP2 SUB SWAP1 RETURN JUMPDEST CALLVALUE DUP1 ISZERO PUSH2 0x477 JUMPI PUSH1 0x0 DUP1 REVERT JUMPDEST POP PUSH2 0x480 PUSH2 0x131A JUMP JUMPDEST PUSH1 0x40 MLOAD PUSH2 0x48D SWAP2 SWAP1 PUSH2 0x3B45 JUMP JUMPDEST PUSH1 0x40 MLOAD DUP1 SWAP2 SUB SWAP1 RETURN JUMPDEST CALLVALUE DUP1 ISZERO PUSH2 0x4A2 JUMPI PUSH1 0x0 DUP1 REVERT JUMPDEST POP PUSH2 0x4AB PUSH2 0x1330 JUMP JUMPDEST PUSH1 0x40 MLOAD PUSH2 0x4B8 SWAP2 SWAP1 PUSH2 0x3B2A JUMP JUMPDEST PUSH1 0x40 MLOAD DUP1 SWAP2 SUB SWAP1 RETURN JUMPDEST CALLVALUE DUP1 ISZERO PUSH2 0x4CD JUMPI PUSH1 0x0 DUP1 REVERT JUMPDEST POP PUSH2 0x4E8 PUSH1 0x4 DUP1 CALLDATASIZE SUB DUP2 ADD SWAP1 PUSH2 0x4E3 SWAP2 SWAP1 PUSH2 0x3699 JUMP JUMPDEST PUSH2 0x1336 JUMP JUMPDEST STOP JUMPDEST PUSH2 0x504 PUSH1 0x4 DUP1 CALLDATASIZE SUB DUP2 ADD SWAP1 PUSH2 0x4FF SWAP2 SWAP1 PUSH2 0x378C JUMP JUMPDEST PUSH2 0x1452 JUMP JUMPDEST STOP JUMPDEST CALLVALUE DUP1 ISZERO PUSH2 0x512 JUMPI PUSH1 0x0 DUP1 REVERT JUMPDEST POP PUSH2 0x52D PUSH1 0x4 DUP1 CALLDATASIZE SUB DUP2 ADD SWAP1 PUSH2 0x528 SWAP2 SWAP1 PUSH2 0x373A JUMP JUMPDEST PUSH2 0x1693 JUMP JUMPDEST PUSH1 0x40 MLOAD PUSH2 0x53A SWAP2 SWAP1 PUSH2 0x3B2A JUMP JUMPDEST PUSH1 0x40 MLOAD DUP1 SWAP2 SUB SWAP1 RETURN JUMPDEST CALLVALUE DUP1 ISZERO PUSH2 0x54F JUMPI PUSH1 0x0 DUP1 REVERT JUMPDEST POP PUSH2 0x558 PUSH2 0x1771 JUMP JUMPDEST PUSH1 0x40 MLOAD PUSH2 0x565 SWAP2 SWAP1 PUSH2 0x3B45 JUMP JUMPDEST PUSH1 0x40 MLOAD DUP1 SWAP2 SUB SWAP1 RETURN JUMPDEST CALLVALUE DUP1 ISZERO PUSH2 0x57A JUMPI PUSH1 0x0 DUP1 REVERT JUMPDEST POP PUSH2 0x583 PUSH2 0x1787 JUMP JUMPDEST PUSH1 0x40 MLOAD PUSH2 0x590 SWAP2 SWAP1 PUSH2 0x3A72 JUMP JUMPDEST PUSH1 0x40 MLOAD DUP1 SWAP2 SUB SWAP1 RETURN JUMPDEST CALLVALUE DUP1 ISZERO PUSH2 0x5A5 JUMPI PUSH1 0x0 DUP1 REVERT JUMPDEST POP PUSH2 0x5C0 PUSH1 0x4 DUP1 CALLDATASIZE SUB DUP2 ADD SWAP1 PUSH2 0x5BB SWAP2 SWAP1 PUSH2 0x373A JUMP JUMPDEST PUSH2 0x17AD JUMP JUMPDEST PUSH1 0x40 MLOAD PUSH2 0x5CD SWAP2 SWAP1 PUSH2 0x3B2A JUMP JUMPDEST PUSH1 0x40 MLOAD DUP1 SWAP2 SUB SWAP1 RETURN JUMPDEST CALLVALUE DUP1 ISZERO PUSH2 0x5E2 JUMPI PUSH1 0x0 DUP1 REVERT JUMPDEST POP PUSH2 0x5FD PUSH1 0x4 DUP1 CALLDATASIZE SUB DUP2 ADD SWAP1 PUSH2 0x5F8 SWAP2 SWAP1 PUSH2 0x3699 JUMP JUMPDEST PUSH2 0x18B5 JUMP JUMPDEST STOP JUMPDEST PUSH2 0x607 PUSH2 0x1A5E JUMP JUMPDEST PUSH20 0xFFFFFFFFFFFFFFFFFFFFFFFFFFFFFFFFFFFFFFFF AND PUSH2 0x625 PUSH2 0xFF0 JUMP JUMPDEST PUSH20 0xFFFFFFFFFFFFFFFFFFFFFFFFFFFFFFFFFFFFFFFF AND EQ PUSH2 0x67B JUMPI PUSH1 0x40 MLOAD PUSH32 0x8C379A000000000000000000000000000000000000000000000000000000000 DUP2 MSTORE PUSH1 0x4 ADD PUSH2 0x672 SWAP1 PUSH2 0x3AEA JUMP JUMPDEST PUSH1 0x40 MLOAD DUP1 SWAP2 SUB SWAP1 REVERT JUMPDEST PUSH1 0x8B PUSH1 0x0 SWAP1 SLOAD SWAP1 PUSH2 0x100 EXP SWAP1 DIV PUSH20 0xFFFFFFFFFFFFFFFFFFFFFFFFFFFFFFFFFFFFFFFF AND PUSH20 0xFFFFFFFFFFFFFFFFFFFFFFFFFFFFFFFFFFFFFFFF AND PUSH4 0x83AC74F9 ADDRESS PUSH12 0x204FCE5E3E25026110000000 PUSH1 0x40 MLOAD DUP4 PUSH4 0xFFFFFFFF AND PUSH1 0xE0 SHL DUP2 MSTORE PUSH1 0x4 ADD PUSH2 0x6E4 SWAP3 SWAP2 SWAP1 PUSH2 0x3A05 JUMP JUMPDEST PUSH1 0x0 PUSH1 0x40 MLOAD DUP1 DUP4 SUB DUP2 PUSH1 0x0 DUP8 DUP1 EXTCODESIZE ISZERO DUP1 ISZERO PUSH2 0x6FE JUMPI PUSH1 0x0 DUP1 REVERT JUMPDEST POP GAS CALL ISZERO DUP1 ISZERO PUSH2 0x712 JUMPI RETURNDATASIZE PUSH1 0x0 DUP1 RETURNDATACOPY RETURNDATASIZE PUSH1 0x0 REVERT JUMPDEST POP POP POP POP PUSH1 0x0 PUSH2 0x72D PUSH12 0x204FCE5E3E25026110000000 PUSH2 0x1693 JUMP JUMPDEST SWAP1 POP PUSH1 0x8B PUSH1 0x0 SWAP1 SLOAD SWAP1 PUSH2 0x100 EXP SWAP1 DIV PUSH20 0xFFFFFFFFFFFFFFFFFFFFFFFFFFFFFFFFFFFFFFFF AND PUSH20 0xFFFFFFFFFFFFFFFFFFFFFFFFFFFFFFFFFFFFFFFF AND PUSH4 0x82F4F5B4 CALLER DUP4 PUSH1 0x40 MLOAD DUP4 PUSH4 0xFFFFFFFF AND PUSH1 0xE0 SHL DUP2 MSTORE PUSH1 0x4 ADD PUSH2 0x78C SWAP3 SWAP2 SWAP1 PUSH2 0x3A2E JUMP JUMPDEST PUSH1 0x0 PUSH1 0x40 MLOAD DUP1 DUP4 SUB DUP2 PUSH1 0x0 DUP8 DUP1 EXTCODESIZE ISZERO DUP1 ISZERO PUSH2 0x7A6 JUMPI PUSH1 0x0 DUP1 REVERT JUMPDEST POP GAS CALL ISZERO DUP1 ISZERO PUSH2 0x7BA JUMPI RETURNDATASIZE PUSH1 0x0 DUP1 RETURNDATACOPY RETURNDATASIZE PUSH1 0x0 REVERT JUMPDEST POP POP POP POP POP JUMP JUMPDEST PUSH1 0x86 SLOAD DUP2 JUMP JUMPDEST PUSH1 0x0 DUP1 PUSH1 0x0 JUMPDEST PUSH1 0x8C DUP1 SLOAD SWAP1 POP DUP2 GT PUSH2 0x9AB JUMPI PUSH1 0x0 PUSH20 0xFFFFFFFFFFFFFFFFFFFFFFFFFFFFFFFFFFFFFFFF AND PUSH1 0x8C DUP3 DUP2 SLOAD DUP2 LT PUSH2 0x82B JUMPI PUSH32 0x4E487B7100000000000000000000000000000000000000000000000000000000 PUSH1 0x0 MSTORE PUSH1 0x32 PUSH1 0x4 MSTORE PUSH1 0x24 PUSH1 0x0 REVERT JUMPDEST SWAP1 PUSH1 0x0 MSTORE PUSH1 0x20 PUSH1 0x0 KECCAK256 ADD PUSH1 0x0 SWAP1 SLOAD SWAP1 PUSH2 0x100 EXP SWAP1 DIV PUSH20 0xFFFFFFFFFFFFFFFFFFFFFFFFFFFFFFFFFFFFFFFF AND PUSH20 0xFFFFFFFFFFFFFFFFFFFFFFFFFFFFFFFFFFFFFFFF AND EQ ISZERO PUSH2 0x88C JUMPI PUSH2 0x885 SELFBALANCE DUP4 PUSH2 0x1A66 SWAP1 SWAP2 SWAP1 PUSH4 0xFFFFFFFF AND JUMP JUMPDEST SWAP2 POP PUSH2 0x99A JUMP JUMPDEST PUSH1 0x0 PUSH1 0x8C DUP3 DUP2 SLOAD DUP2 LT PUSH2 0x8C8 JUMPI PUSH32 0x4E487B7100000000000000000000000000000000000000000000000000000000 PUSH1 0x0 MSTORE PUSH1 0x32 PUSH1 0x4 MSTORE PUSH1 0x24 PUSH1 0x0 REVERT JUMPDEST SWAP1 PUSH1 0x0 MSTORE PUSH1 0x20 PUSH1 0x0 KECCAK256 ADD PUSH1 0x0 SWAP1 SLOAD SWAP1 PUSH2 0x100 EXP SWAP1 DIV PUSH20 0xFFFFFFFFFFFFFFFFFFFFFFFFFFFFFFFFFFFFFFFF AND SWAP1 POP PUSH1 0x0 DUP2 PUSH20 0xFFFFFFFFFFFFFFFFFFFFFFFFFFFFFFFFFFFFFFFF AND PUSH4 0x70A08231 ADDRESS PUSH1 0x40 MLOAD DUP3 PUSH4 0xFFFFFFFF AND PUSH1 0xE0 SHL DUP2 MSTORE PUSH1 0x4 ADD PUSH2 0x930 SWAP2 SWAP1 PUSH2 0x39B3 JUMP JUMPDEST PUSH1 0x20 PUSH1 0x40 MLOAD DUP1 DUP4 SUB DUP2 DUP7 DUP1 EXTCODESIZE ISZERO DUP1 ISZERO PUSH2 0x948 JUMPI PUSH1 0x0 DUP1 REVERT JUMPDEST POP GAS STATICCALL ISZERO DUP1 ISZERO PUSH2 0x95C JUMPI RETURNDATASIZE PUSH1 0x0 DUP1 RETURNDATACOPY RETURNDATASIZE PUSH1 0x0 REVERT JUMPDEST POP POP POP POP PUSH1 0x40 MLOAD RETURNDATASIZE PUSH1 0x1F NOT PUSH1 0x1F DUP3 ADD AND DUP3 ADD DUP1 PUSH1 0x40 MSTORE POP DUP2 ADD SWAP1 PUSH2 0x980 SWAP2 SWAP1 PUSH2 0x3763 JUMP JUMPDEST SWAP1 POP PUSH2 0x995 DUP2 DUP6 PUSH2 0x1A66 SWAP1 SWAP2 SWAP1 PUSH4 0xFFFFFFFF AND JUMP JUMPDEST SWAP4 POP POP POP JUMPDEST DUP1 PUSH2 0x9A4 SWAP1 PUSH2 0x3E9F JUMP JUMPDEST SWAP1 POP PUSH2 0x7CD JUMP JUMPDEST POP DUP1 SWAP2 POP POP SWAP1 JUMP JUMPDEST PUSH1 0x0 DUP1 DUP6 GT DUP1 ISZERO PUSH2 0x9C4 JUMPI POP PUSH1 0x0 DUP5 GT JUMPDEST DUP1 ISZERO PUSH2 0x9D6 JUMPI POP PUSH1 0x0 DUP4 PUSH4 0xFFFFFFFF AND GT JUMPDEST DUP1 ISZERO PUSH2 0xA00 JUMPI POP PUSH1 0x82 PUSH1 0x0 SWAP1 SLOAD SWAP1 PUSH2 0x100 EXP SWAP1 DIV PUSH4 0xFFFFFFFF AND PUSH4 0xFFFFFFFF AND DUP4 PUSH4 0xFFFFFFFF AND GT ISZERO JUMPDEST PUSH2 0xA09 JUMPI PUSH1 0x0 DUP1 REVERT JUMPDEST PUSH1 0x0 DUP3 EQ ISZERO PUSH2 0xA1B JUMPI PUSH1 0x0 SWAP1 POP PUSH2 0xADD JUMP JUMPDEST PUSH1 0x82 PUSH1 0x0 SWAP1 SLOAD SWAP1 PUSH2 0x100 EXP SWAP1 DIV PUSH4 0xFFFFFFFF AND PUSH4 0xFFFFFFFF AND DUP4 PUSH4 0xFFFFFFFF AND EQ ISZERO PUSH2 0xA6D JUMPI PUSH2 0xA66 DUP5 PUSH2 0xA58 DUP5 DUP9 PUSH2 0x1A7C SWAP1 SWAP2 SWAP1 PUSH4 0xFFFFFFFF AND JUMP JUMPDEST PUSH2 0x1A92 SWAP1 SWAP2 SWAP1 PUSH4 0xFFFFFFFF AND JUMP JUMPDEST SWAP1 POP PUSH2 0xADD JUMP JUMPDEST PUSH1 0x0 DUP1 PUSH1 0x0 PUSH2 0xA85 DUP8 DUP7 PUSH2 0x1A66 SWAP1 SWAP2 SWAP1 PUSH4 0xFFFFFFFF AND JUMP JUMPDEST SWAP1 POP PUSH2 0xAA5 DUP2 DUP9 DUP9 PUSH1 0x82 PUSH1 0x0 SWAP1 SLOAD SWAP1 PUSH2 0x100 EXP SWAP1 DIV PUSH4 0xFFFFFFFF AND PUSH2 0x1AA8 JUMP JUMPDEST DUP1 SWAP4 POP DUP2 SWAP5 POP POP POP PUSH1 0x0 DUP3 PUSH1 0xFF AND PUSH2 0xAC6 DUP6 DUP12 PUSH2 0x1A7C SWAP1 SWAP2 SWAP1 PUSH4 0xFFFFFFFF AND JUMP JUMPDEST SWAP1 SHR SWAP1 POP DUP9 DUP2 PUSH2 0xAD6 SWAP2 SWAP1 PUSH2 0x3CC5 JUMP JUMPDEST SWAP5 POP POP POP POP POP JUMPDEST SWAP5 SWAP4 POP POP POP POP JUMP JUMPDEST PUSH1 0x8A PUSH1 0x0 SWAP1 SLOAD SWAP1 PUSH2 0x100 EXP SWAP1 DIV PUSH20 0xFFFFFFFFFFFFFFFFFFFFFFFFFFFFFFFFFFFFFFFF AND DUP2 JUMP JUMPDEST PUSH1 0x0 DUP1 DUP6 GT DUP1 ISZERO PUSH2 0xB1C JUMPI POP PUSH1 0x0 DUP5 GT JUMPDEST DUP1 ISZERO PUSH2 0xB2E JUMPI POP PUSH1 0x0 DUP4 PUSH4 0xFFFFFFFF AND GT JUMPDEST DUP1 ISZERO PUSH2 0xB58 JUMPI POP PUSH1 0x82 PUSH1 0x0 SWAP1 SLOAD SWAP1 PUSH2 0x100 EXP SWAP1 DIV PUSH4 0xFFFFFFFF AND PUSH4 0xFFFFFFFF AND DUP4 PUSH4 0xFFFFFFFF AND GT ISZERO JUMPDEST DUP1 ISZERO PUSH2 0xB64 JUMPI POP DUP5 DUP3 GT ISZERO JUMPDEST PUSH2 0xB6D JUMPI PUSH1 0x0 DUP1 REVERT JUMPDEST PUSH1 0x0 DUP3 EQ ISZERO PUSH2 0xB7F JUMPI PUSH1 0x0 SWAP1 POP PUSH2 0xC69 JUMP JUMPDEST DUP5 DUP3 EQ ISZERO PUSH2 0xB8F JUMPI DUP4 SWAP1 POP PUSH2 0xC69 JUMP JUMPDEST PUSH1 0x82 PUSH1 0x0 SWAP1 SLOAD SWAP1 PUSH2 0x100 EXP SWAP1 DIV PUSH4 0xFFFFFFFF AND PUSH4 0xFFFFFFFF AND DUP4 PUSH4 0xFFFFFFFF AND EQ ISZERO PUSH2 0xBE1 JUMPI PUSH2 0xBDA DUP6 PUSH2 0xBCC DUP5 DUP8 PUSH2 0x1A7C SWAP1 SWAP2 SWAP1 PUSH4 0xFFFFFFFF AND JUMP JUMPDEST PUSH2 0x1A92 SWAP1 SWAP2 SWAP1 PUSH4 0xFFFFFFFF AND JUMP JUMPDEST SWAP1 POP PUSH2 0xC69 JUMP JUMPDEST PUSH1 0x0 DUP1 PUSH1 0x0 DUP5 DUP9 PUSH2 0xBF2 SWAP2 SWAP1 PUSH2 0x3CC5 JUMP JUMPDEST SWAP1 POP PUSH2 0xC12 DUP9 DUP3 PUSH1 0x82 PUSH1 0x0 SWAP1 SLOAD SWAP1 PUSH2 0x100 EXP SWAP1 DIV PUSH4 0xFFFFFFFF AND DUP10 PUSH2 0x1AA8 JUMP JUMPDEST DUP1 SWAP4 POP DUP2 SWAP5 POP POP POP PUSH1 0x0 PUSH2 0xC2F DUP5 DUP10 PUSH2 0x1A7C SWAP1 SWAP2 SWAP1 PUSH4 0xFFFFFFFF AND JUMP JUMPDEST SWAP1 POP PUSH1 0x0 DUP4 PUSH1 0xFF AND DUP10 SWAP1 SHL SWAP1 POP PUSH2 0xC61 DUP6 PUSH2 0xC53 DUP4 DUP6 PUSH2 0x1C29 SWAP1 SWAP2 SWAP1 PUSH4 0xFFFFFFFF AND JUMP JUMPDEST PUSH2 0x1A92 SWAP1 SWAP2 SWAP1 PUSH4 0xFFFFFFFF AND JUMP JUMPDEST SWAP6 POP POP POP POP POP POP JUMPDEST SWAP5 SWAP4 POP POP POP POP JUMP JUMPDEST PUSH1 0x1 DUP1 SLOAD PUSH2 0xC7E SWAP1 PUSH2 0x3E6D JUMP JUMPDEST DUP1 PUSH1 0x1F ADD PUSH1 0x20 DUP1 SWAP2 DIV MUL PUSH1 0x20 ADD PUSH1 0x40 MLOAD SWAP1 DUP2 ADD PUSH1 0x40 MSTORE DUP1 SWAP3 SWAP2 SWAP1 DUP2 DUP2 MSTORE PUSH1 0x20 ADD DUP3 DUP1 SLOAD PUSH2 0xCAA SWAP1 PUSH2 0x3E6D JUMP JUMPDEST DUP1 ISZERO PUSH2 0xCF7 JUMPI DUP1 PUSH1 0x1F LT PUSH2 0xCCC JUMPI PUSH2 0x100 DUP1 DUP4 SLOAD DIV MUL DUP4 MSTORE SWAP2 PUSH1 0x20 ADD SWAP2 PUSH2 0xCF7 JUMP JUMPDEST DUP3 ADD SWAP2 SWAP1 PUSH1 0x0 MSTORE PUSH1 0x20 PUSH1 0x0 KECCAK256 SWAP1 JUMPDEST DUP2 SLOAD DUP2 MSTORE SWAP1 PUSH1 0x1 ADD SWAP1 PUSH1 0x20 ADD DUP1 DUP4 GT PUSH2 0xCDA JUMPI DUP3 SWAP1 SUB PUSH1 0x1F AND DUP3 ADD SWAP2 JUMPDEST POP POP POP POP POP DUP2 JUMP JUMPDEST PUSH1 0x84 SLOAD DUP2 JUMP JUMPDEST PUSH1 0x88 SLOAD DUP2 JUMP JUMPDEST PUSH1 0x85 SLOAD DUP2 JUMP JUMPDEST PUSH2 0xD19 PUSH2 0x1A5E JUMP JUMPDEST PUSH20 0xFFFFFFFFFFFFFFFFFFFFFFFFFFFFFFFFFFFFFFFF AND PUSH2 0xD37 PUSH2 0xFF0 JUMP JUMPDEST PUSH20 0xFFFFFFFFFFFFFFFFFFFFFFFFFFFFFFFFFFFFFFFF AND EQ PUSH2 0xD8D JUMPI PUSH1 0x40 MLOAD PUSH32 0x8C379A000000000000000000000000000000000000000000000000000000000 DUP2 MSTORE PUSH1 0x4 ADD PUSH2 0xD84 SWAP1 PUSH2 0x3AEA JUMP JUMPDEST PUSH1 0x40 MLOAD DUP1 SWAP2 SUB SWAP1 REVERT JUMPDEST PUSH1 0x0 PUSH20 0xFFFFFFFFFFFFFFFFFFFFFFFFFFFFFFFFFFFFFFFF AND PUSH1 0x0 DUP1 SLOAD SWAP1 PUSH2 0x100 EXP SWAP1 DIV PUSH20 0xFFFFFFFFFFFFFFFFFFFFFFFFFFFFFFFFFFFFFFFF AND PUSH20 0xFFFFFFFFFFFFFFFFFFFFFFFFFFFFFFFFFFFFFFFF AND PUSH32 0x8BE0079C531659141344CD1FD0A4F28419497F9722A3DAAFE3B4186F6B6457E0 PUSH1 0x40 MLOAD PUSH1 0x40 MLOAD DUP1 SWAP2 SUB SWAP1 LOG3 PUSH1 0x0 DUP1 PUSH1 0x0 PUSH2 0x100 EXP DUP2 SLOAD DUP2 PUSH20 0xFFFFFFFFFFFFFFFFFFFFFFFFFFFFFFFFFFFFFFFF MUL NOT AND SWAP1 DUP4 PUSH20 0xFFFFFFFFFFFFFFFFFFFFFFFFFFFFFFFFFFFFFFFF AND MUL OR SWAP1 SSTORE POP JUMP JUMPDEST PUSH2 0xE53 PUSH2 0x1A5E JUMP JUMPDEST PUSH20 0xFFFFFFFFFFFFFFFFFFFFFFFFFFFFFFFFFFFFFFFF AND PUSH2 0xE71 PUSH2 0xFF0 JUMP JUMPDEST PUSH20 0xFFFFFFFFFFFFFFFFFFFFFFFFFFFFFFFFFFFFFFFF AND EQ PUSH2 0xEC7 JUMPI PUSH1 0x40 MLOAD PUSH32 0x8C379A000000000000000000000000000000000000000000000000000000000 DUP2 MSTORE PUSH1 0x4 ADD PUSH2 0xEBE SWAP1 PUSH2 0x3AEA JUMP JUMPDEST PUSH1 0x40 MLOAD DUP1 SWAP2 SUB SWAP1 REVERT JUMPDEST PUSH1 0x0 PUSH1 0x8C DUP4 DUP2 SLOAD DUP2 LT PUSH2 0xF03 JUMPI PUSH32 0x4E487B7100000000000000000000000000000000000000000000000000000000 PUSH1 0x0 MSTORE PUSH1 0x32 PUSH1 0x4 MSTORE PUSH1 0x24 PUSH1 0x0 REVERT JUMPDEST SWAP1 PUSH1 0x0 MSTORE PUSH1 0x20 PUSH1 0x0 KECCAK256 ADD PUSH1 0x0 SWAP1 SLOAD SWAP1 PUSH2 0x100 EXP SWAP1 DIV PUSH20 0xFFFFFFFFFFFFFFFFFFFFFFFFFFFFFFFFFFFFFFFF AND SWAP1 POP DUP1 PUSH20 0xFFFFFFFFFFFFFFFFFFFFFFFFFFFFFFFFFFFFFFFF AND PUSH4 0xA9059CBB DUP6 DUP5 PUSH1 0x40 MLOAD DUP4 PUSH4 0xFFFFFFFF AND PUSH1 0xE0 SHL DUP2 MSTORE PUSH1 0x4 ADD PUSH2 0xF6B SWAP3 SWAP2 SWAP1 PUSH2 0x3A2E JUMP JUMPDEST PUSH1 0x20 PUSH1 0x40 MLOAD DUP1 DUP4 SUB DUP2 PUSH1 0x0 DUP8 DUP1 EXTCODESIZE ISZERO DUP1 ISZERO PUSH2 0xF85 JUMPI PUSH1 0x0 DUP1 REVERT JUMPDEST POP GAS CALL ISZERO DUP1 ISZERO PUSH2 0xF99 JUMPI RETURNDATASIZE PUSH1 0x0 DUP1 RETURNDATACOPY RETURNDATASIZE PUSH1 0x0 REVERT JUMPDEST POP POP POP POP PUSH1 0x40 MLOAD RETURNDATASIZE PUSH1 0x1F NOT PUSH1 0x1F DUP3 ADD AND DUP3 ADD DUP1 PUSH1 0x40 MSTORE POP DUP2 ADD SWAP1 PUSH2 0xFBD SWAP2 SWAP1 PUSH2 0x3711 JUMP JUMPDEST POP POP POP POP POP JUMP JUMPDEST PUSH1 0x8B PUSH1 0x0 SWAP1 SLOAD SWAP1 PUSH2 0x100 EXP SWAP1 DIV PUSH20 0xFFFFFFFFFFFFFFFFFFFFFFFFFFFFFFFFFFFFFFFF AND DUP2 JUMP JUMPDEST PUSH1 0x83 SLOAD DUP2 JUMP JUMPDEST PUSH1 0x0 DUP1 PUSH1 0x0 SWAP1 SLOAD SWAP1 PUSH2 0x100 EXP SWAP1 DIV PUSH20 0xFFFFFFFFFFFFFFFFFFFFFFFFFFFFFFFFFFFFFFFF AND SWAP1 POP SWAP1 JUMP JUMPDEST PUSH1 0x0 PUSH2 0x1024 DUP3 PUSH2 0x17AD JUMP JUMPDEST SWAP1 POP PUSH1 0x8B PUSH1 0x0 SWAP1 SLOAD SWAP1 PUSH2 0x100 EXP SWAP1 DIV PUSH20 0xFFFFFFFFFFFFFFFFFFFFFFFFFFFFFFFFFFFFFFFF AND PUSH20 0xFFFFFFFFFFFFFFFFFFFFFFFFFFFFFFFFFFFFFFFF AND PUSH4 0x9C94F651 CALLER DUP4 PUSH1 0x40 MLOAD DUP4 PUSH4 0xFFFFFFFF AND PUSH1 0xE0 SHL DUP2 MSTORE PUSH1 0x4 ADD PUSH2 0x1083 SWAP3 SWAP2 SWAP1 PUSH2 0x3A2E JUMP JUMPDEST PUSH1 0x0 PUSH1 0x40 MLOAD DUP1 DUP4 SUB DUP2 PUSH1 0x0 DUP8 DUP1 EXTCODESIZE ISZERO DUP1 ISZERO PUSH2 0x109D JUMPI PUSH1 0x0 DUP1 REVERT JUMPDEST POP GAS CALL ISZERO DUP1 ISZERO PUSH2 0x10B1 JUMPI RETURNDATASIZE PUSH1 0x0 DUP1 RETURNDATACOPY RETURNDATASIZE PUSH1 0x0 REVERT JUMPDEST POP POP POP POP PUSH1 0x0 PUSH1 0x8C DUP1 SLOAD SWAP1 POP SWAP1 POP PUSH1 0x0 PUSH2 0x10D4 DUP3 DUP5 PUSH2 0x1A92 SWAP1 SWAP2 SWAP1 PUSH4 0xFFFFFFFF AND JUMP JUMPDEST SWAP1 POP PUSH1 0x0 JUMPDEST PUSH1 0x8C DUP1 SLOAD SWAP1 POP DUP2 GT PUSH2 0x12D4 JUMPI PUSH1 0x0 PUSH20 0xFFFFFFFFFFFFFFFFFFFFFFFFFFFFFFFFFFFFFFFF AND PUSH1 0x8C DUP3 DUP2 SLOAD DUP2 LT PUSH2 0x1137 JUMPI PUSH32 0x4E487B7100000000000000000000000000000000000000000000000000000000 PUSH1 0x0 MSTORE PUSH1 0x32 PUSH1 0x4 MSTORE PUSH1 0x24 PUSH1 0x0 REVERT JUMPDEST SWAP1 PUSH1 0x0 MSTORE PUSH1 0x20 PUSH1 0x0 KECCAK256 ADD PUSH1 0x0 SWAP1 SLOAD SWAP1 PUSH2 0x100 EXP SWAP1 DIV PUSH20 0xFFFFFFFFFFFFFFFFFFFFFFFFFFFFFFFFFFFFFFFF AND PUSH20 0xFFFFFFFFFFFFFFFFFFFFFFFFFFFFFFFFFFFFFFFF AND EQ ISZERO PUSH2 0x11CA JUMPI CALLER PUSH20 0xFFFFFFFFFFFFFFFFFFFFFFFFFFFFFFFFFFFFFFFF AND PUSH2 0x8FC DUP4 SWAP1 DUP2 ISZERO MUL SWAP1 PUSH1 0x40 MLOAD PUSH1 0x0 PUSH1 0x40 MLOAD DUP1 DUP4 SUB DUP2 DUP6 DUP9 DUP9 CALL SWAP4 POP POP POP POP ISZERO DUP1 ISZERO PUSH2 0x11C4 JUMPI RETURNDATASIZE PUSH1 0x0 DUP1 RETURNDATACOPY RETURNDATASIZE PUSH1 0x0 REVERT JUMPDEST POP PUSH2 0x12C3 JUMP JUMPDEST PUSH1 0x0 PUSH1 0x8C DUP3 DUP2 SLOAD DUP2 LT PUSH2 0x1206 JUMPI PUSH32 0x4E487B7100000000000000000000000000000000000000000000000000000000 PUSH1 0x0 MSTORE PUSH1 0x32 PUSH1 0x4 MSTORE PUSH1 0x24 PUSH1 0x0 REVERT JUMPDEST SWAP1 PUSH1 0x0 MSTORE PUSH1 0x20 PUSH1 0x0 KECCAK256 ADD PUSH1 0x0 SWAP1 SLOAD SWAP1 PUSH2 0x100 EXP SWAP1 DIV PUSH20 0xFFFFFFFFFFFFFFFFFFFFFFFFFFFFFFFFFFFFFFFF AND SWAP1 POP DUP1 PUSH20 0xFFFFFFFFFFFFFFFFFFFFFFFFFFFFFFFFFFFFFFFF AND PUSH4 0xA9059CBB CALLER DUP6 PUSH1 0x40 MLOAD DUP4 PUSH4 0xFFFFFFFF AND PUSH1 0xE0 SHL DUP2 MSTORE PUSH1 0x4 ADD PUSH2 0x126E SWAP3 SWAP2 SWAP1 PUSH2 0x3A2E JUMP JUMPDEST PUSH1 0x20 PUSH1 0x40 MLOAD DUP1 DUP4 SUB DUP2 PUSH1 0x0 DUP8 DUP1 EXTCODESIZE ISZERO DUP1 ISZERO PUSH2 0x1288 JUMPI PUSH1 0x0 DUP1 REVERT JUMPDEST POP GAS CALL ISZERO DUP1 ISZERO PUSH2 0x129C JUMPI RETURNDATASIZE PUSH1 0x0 DUP1 RETURNDATACOPY RETURNDATASIZE PUSH1 0x0 REVERT JUMPDEST POP POP POP POP PUSH1 0x40 MLOAD RETURNDATASIZE PUSH1 0x1F NOT PUSH1 0x1F DUP3 ADD AND DUP3 ADD DUP1 PUSH1 0x40 MSTORE POP DUP2 ADD SWAP1 PUSH2 0x12C0 SWAP2 SWAP1 PUSH2 0x3711 JUMP JUMPDEST POP POP JUMPDEST DUP1 PUSH2 0x12CD SWAP1 PUSH2 0x3E9F JUMP JUMPDEST SWAP1 POP PUSH2 0x10D9 JUMP JUMPDEST POP POP POP POP POP JUMP JUMPDEST PUSH1 0x8C DUP2 DUP2 SLOAD DUP2 LT PUSH2 0x12EB JUMPI PUSH1 0x0 DUP1 REVERT JUMPDEST SWAP1 PUSH1 0x0 MSTORE PUSH1 0x20 PUSH1 0x0 KECCAK256 ADD PUSH1 0x0 SWAP2 POP SLOAD SWAP1 PUSH2 0x100 EXP SWAP1 DIV PUSH20 0xFFFFFFFFFFFFFFFFFFFFFFFFFFFFFFFFFFFFFFFF AND DUP2 JUMP JUMPDEST PUSH1 0x82 PUSH1 0x4 SWAP1 SLOAD SWAP1 PUSH2 0x100 EXP SWAP1 DIV PUSH4 0xFFFFFFFF AND DUP2 JUMP JUMPDEST PUSH1 0x87 SLOAD DUP2 JUMP JUMPDEST PUSH2 0x133E PUSH2 0x1A5E JUMP JUMPDEST PUSH20 0xFFFFFFFFFFFFFFFFFFFFFFFFFFFFFFFFFFFFFFFF AND PUSH2 0x135C PUSH2 0xFF0 JUMP JUMPDEST PUSH20 0xFFFFFFFFFFFFFFFFFFFFFFFFFFFFFFFFFFFFFFFF AND EQ PUSH2 0x13B2 JUMPI PUSH1 0x40 MLOAD PUSH32 0x8C379A000000000000000000000000000000000000000000000000000000000 DUP2 MSTORE PUSH1 0x4 ADD PUSH2 0x13A9 SWAP1 PUSH2 0x3AEA JUMP JUMPDEST PUSH1 0x40 MLOAD DUP1 SWAP2 SUB SWAP1 REVERT JUMPDEST PUSH1 0x87 PUSH1 0x0 DUP2 SLOAD DUP1 SWAP3 SWAP2 SWAP1 PUSH2 0x13C5 SWAP1 PUSH2 0x3E9F JUMP JUMPDEST SWAP2 SWAP1 POP SSTORE POP DUP1 PUSH1 0x8C PUSH1 0x87 SLOAD DUP2 SLOAD DUP2 LT PUSH2 0x1407 JUMPI PUSH32 0x4E487B7100000000000000000000000000000000000000000000000000000000 PUSH1 0x0 MSTORE PUSH1 0x32 PUSH1 0x4 MSTORE PUSH1 0x24 PUSH1 0x0 REVERT JUMPDEST SWAP1 PUSH1 0x0 MSTORE PUSH1 0x20 PUSH1 0x0 KECCAK256 ADD PUSH1 0x0 PUSH2 0x100 EXP DUP2 SLOAD DUP2 PUSH20 0xFFFFFFFFFFFFFFFFFFFFFFFFFFFFFFFFFFFFFFFF MUL NOT AND SWAP1 DUP4 PUSH20 0xFFFFFFFFFFFFFFFFFFFFFFFFFFFFFFFFFFFFFFFF AND MUL OR SWAP1 SSTORE POP POP JUMP JUMPDEST PUSH1 0x0 PUSH2 0x145D DUP4 PUSH2 0x1693 JUMP JUMPDEST SWAP1 POP PUSH1 0x0 DUP1 DUP4 EQ ISZERO PUSH2 0x1471 JUMPI CALLVALUE SWAP1 POP PUSH2 0x156F JUMP JUMPDEST PUSH1 0x0 PUSH1 0x8C DUP5 DUP2 SLOAD DUP2 LT PUSH2 0x14AD JUMPI PUSH32 0x4E487B7100000000000000000000000000000000000000000000000000000000 PUSH1 0x0 MSTORE PUSH1 0x32 PUSH1 0x4 MSTORE PUSH1 0x24 PUSH1 0x0 REVERT JUMPDEST SWAP1 PUSH1 0x0 MSTORE PUSH1 0x20 PUSH1 0x0 KECCAK256 ADD PUSH1 0x0 SWAP1 SLOAD SWAP1 PUSH2 0x100 EXP SWAP1 DIV PUSH20 0xFFFFFFFFFFFFFFFFFFFFFFFFFFFFFFFFFFFFFFFF AND SWAP1 POP DUP5 SWAP2 POP DUP1 PUSH20 0xFFFFFFFFFFFFFFFFFFFFFFFFFFFFFFFFFFFFFFFF AND PUSH4 0x23B872DD CALLER ADDRESS DUP6 PUSH1 0x40 MLOAD DUP5 PUSH4 0xFFFFFFFF AND PUSH1 0xE0 SHL DUP2 MSTORE PUSH1 0x4 ADD PUSH2 0x151A SWAP4 SWAP3 SWAP2 SWAP1 PUSH2 0x39CE JUMP JUMPDEST PUSH1 0x20 PUSH1 0x40 MLOAD DUP1 DUP4 SUB DUP2 PUSH1 0x0 DUP8 DUP1 EXTCODESIZE ISZERO DUP1 ISZERO PUSH2 0x1534 JUMPI PUSH1 0x0 DUP1 REVERT JUMPDEST POP GAS CALL ISZERO DUP1 ISZERO PUSH2 0x1548 JUMPI RETURNDATASIZE PUSH1 0x0 DUP1 RETURNDATACOPY RETURNDATASIZE PUSH1 0x0 REVERT JUMPDEST POP POP POP POP PUSH1 0x40 MLOAD RETURNDATASIZE PUSH1 0x1F NOT PUSH1 0x1F DUP3 ADD AND DUP3 ADD DUP1 PUSH1 0x40 MSTORE POP DUP2 ADD SWAP1 PUSH2 0x156C SWAP2 SWAP1 PUSH2 0x3711 JUMP JUMPDEST POP POP JUMPDEST PUSH1 0x8B PUSH1 0x0 SWAP1 SLOAD SWAP1 PUSH2 0x100 EXP SWAP1 DIV PUSH20 0xFFFFFFFFFFFFFFFFFFFFFFFFFFFFFFFFFFFFFFFF AND PUSH20 0xFFFFFFFFFFFFFFFFFFFFFFFFFFFFFFFFFFFFFFFF AND PUSH4 0x83AC74F9 ADDRESS DUP4 PUSH1 0x40 MLOAD DUP4 PUSH4 0xFFFFFFFF AND PUSH1 0xE0 SHL DUP2 MSTORE PUSH1 0x4 ADD PUSH2 0x15CC SWAP3 SWAP2 SWAP1 PUSH2 0x3A2E JUMP JUMPDEST PUSH1 0x0 PUSH1 0x40 MLOAD DUP1 DUP4 SUB DUP2 PUSH1 0x0 DUP8 DUP1 EXTCODESIZE ISZERO DUP1 ISZERO PUSH2 0x15E6 JUMPI PUSH1 0x0 DUP1 REVERT JUMPDEST POP GAS CALL ISZERO DUP1 ISZERO PUSH2 0x15FA JUMPI RETURNDATASIZE PUSH1 0x0 DUP1 RETURNDATACOPY RETURNDATASIZE PUSH1 0x0 REVERT JUMPDEST POP POP POP POP PUSH1 0x8B PUSH1 0x0 SWAP1 SLOAD SWAP1 PUSH2 0x100 EXP SWAP1 DIV PUSH20 0xFFFFFFFFFFFFFFFFFFFFFFFFFFFFFFFFFFFFFFFF AND PUSH20 0xFFFFFFFFFFFFFFFFFFFFFFFFFFFFFFFFFFFFFFFF AND PUSH4 0x82F4F5B4 CALLER DUP5 PUSH1 0x40 MLOAD DUP4 PUSH4 0xFFFFFFFF AND PUSH1 0xE0 SHL DUP2 MSTORE PUSH1 0x4 ADD PUSH2 0x165B SWAP3 SWAP2 SWAP1 PUSH2 0x3A2E JUMP JUMPDEST PUSH1 0x0 PUSH1 0x40 MLOAD DUP1 DUP4 SUB DUP2 PUSH1 0x0 DUP8 DUP1 EXTCODESIZE ISZERO DUP1 ISZERO PUSH2 0x1675 JUMPI PUSH1 0x0 DUP1 REVERT JUMPDEST POP GAS CALL ISZERO DUP1 ISZERO PUSH2 0x1689 JUMPI RETURNDATASIZE PUSH1 0x0 DUP1 RETURNDATACOPY RETURNDATASIZE PUSH1 0x0 REVERT JUMPDEST POP POP POP POP POP POP POP POP JUMP JUMPDEST PUSH1 0x0 DUP1 PUSH2 0x169E PUSH2 0x7C7 JUMP JUMPDEST SWAP1 POP PUSH1 0x0 PUSH1 0x8A PUSH1 0x0 SWAP1 SLOAD SWAP1 PUSH2 0x100 EXP SWAP1 DIV PUSH20 0xFFFFFFFFFFFFFFFFFFFFFFFFFFFFFFFFFFFFFFFF AND PUSH20 0xFFFFFFFFFFFFFFFFFFFFFFFFFFFFFFFFFFFFFFFF AND PUSH4 0x18160DDD PUSH1 0x40 MLOAD DUP2 PUSH4 0xFFFFFFFF AND PUSH1 0xE0 SHL DUP2 MSTORE PUSH1 0x4 ADD PUSH1 0x20 PUSH1 0x40 MLOAD DUP1 DUP4 SUB DUP2 DUP7 DUP1 EXTCODESIZE ISZERO DUP1 ISZERO PUSH2 0x170A JUMPI PUSH1 0x0 DUP1 REVERT JUMPDEST POP GAS STATICCALL ISZERO DUP1 ISZERO PUSH2 0x171E JUMPI RETURNDATASIZE PUSH1 0x0 DUP1 RETURNDATACOPY RETURNDATASIZE PUSH1 0x0 REVERT JUMPDEST POP POP POP POP PUSH1 0x40 MLOAD RETURNDATASIZE PUSH1 0x1F NOT PUSH1 0x1F DUP3 ADD AND DUP3 ADD DUP1 PUSH1 0x40 MSTORE POP DUP2 ADD SWAP1 PUSH2 0x1742 SWAP2 SWAP1 PUSH2 0x3763 JUMP JUMPDEST SWAP1 POP PUSH1 0x0 PUSH2 0x1764 DUP3 DUP5 PUSH1 0x82 PUSH1 0x4 SWAP1 SLOAD SWAP1 PUSH2 0x100 EXP SWAP1 DIV PUSH4 0xFFFFFFFF AND DUP9 PUSH2 0x9B3 JUMP JUMPDEST SWAP1 POP DUP1 SWAP4 POP POP POP POP SWAP2 SWAP1 POP JUMP JUMPDEST PUSH1 0x82 PUSH1 0x0 SWAP1 SLOAD SWAP1 PUSH2 0x100 EXP SWAP1 DIV PUSH4 0xFFFFFFFF AND DUP2 JUMP JUMPDEST PUSH1 0x89 PUSH1 0x0 SWAP1 SLOAD SWAP1 PUSH2 0x100 EXP SWAP1 DIV PUSH20 0xFFFFFFFFFFFFFFFFFFFFFFFFFFFFFFFFFFFFFFFF AND DUP2 JUMP JUMPDEST PUSH1 0x0 DUP1 PUSH2 0x17B8 PUSH2 0x7C7 JUMP JUMPDEST SWAP1 POP PUSH1 0x0 PUSH1 0x8A PUSH1 0x0 SWAP1 SLOAD SWAP1 PUSH2 0x100 EXP SWAP1 DIV PUSH20 0xFFFFFFFFFFFFFFFFFFFFFFFFFFFFFFFFFFFFFFFF AND PUSH20 0xFFFFFFFFFFFFFFFFFFFFFFFFFFFFFFFFFFFFFFFF AND PUSH4 0x18160DDD PUSH1 0x40 MLOAD DUP2 PUSH4 0xFFFFFFFF AND PUSH1 0xE0 SHL DUP2 MSTORE PUSH1 0x4 ADD PUSH1 0x20 PUSH1 0x40 MLOAD DUP1 DUP4 SUB DUP2 DUP7 DUP1 EXTCODESIZE ISZERO DUP1 ISZERO PUSH2 0x1824 JUMPI PUSH1 0x0 DUP1 REVERT JUMPDEST POP GAS STATICCALL ISZERO DUP1 ISZERO PUSH2 0x1838 JUMPI RETURNDATASIZE PUSH1 0x0 DUP1 RETURNDATACOPY RETURNDATASIZE PUSH1 0x0 REVERT JUMPDEST POP POP POP POP PUSH1 0x40 MLOAD RETURNDATASIZE PUSH1 0x1F NOT PUSH1 0x1F DUP3 ADD AND DUP3 ADD DUP1 PUSH1 0x40 MSTORE POP DUP2 ADD SWAP1 PUSH2 0x185C SWAP2 SWAP1 PUSH2 0x3763 JUMP JUMPDEST SWAP1 POP PUSH1 0x0 PUSH2 0x187E DUP3 DUP5 PUSH1 0x82 PUSH1 0x4 SWAP1 SLOAD SWAP1 PUSH2 0x100 EXP SWAP1 DIV PUSH4 0xFFFFFFFF AND DUP9 PUSH2 0xB0B JUMP JUMPDEST SWAP1 POP PUSH2 0x18A8 PUSH1 0x64 PUSH2 0x189A PUSH1 0x84 SLOAD DUP5 PUSH2 0x1A7C SWAP1 SWAP2 SWAP1 PUSH4 0xFFFFFFFF AND JUMP JUMPDEST PUSH2 0x1A92 SWAP1 SWAP2 SWAP1 PUSH4 0xFFFFFFFF AND JUMP JUMPDEST SWAP1 POP DUP1 SWAP4 POP POP POP POP SWAP2 SWAP1 POP JUMP JUMPDEST PUSH2 0x18BD PUSH2 0x1A5E JUMP JUMPDEST PUSH20 0xFFFFFFFFFFFFFFFFFFFFFFFFFFFFFFFFFFFFFFFF AND PUSH2 0x18DB PUSH2 0xFF0 JUMP JUMPDEST PUSH20 0xFFFFFFFFFFFFFFFFFFFFFFFFFFFFFFFFFFFFFFFF AND EQ PUSH2 0x1931 JUMPI PUSH1 0x40 MLOAD PUSH32 0x8C379A000000000000000000000000000000000000000000000000000000000 DUP2 MSTORE PUSH1 0x4 ADD PUSH2 0x1928 SWAP1 PUSH2 0x3AEA JUMP JUMPDEST PUSH1 0x40 MLOAD DUP1 SWAP2 SUB SWAP1 REVERT JUMPDEST PUSH1 0x0 PUSH20 0xFFFFFFFFFFFFFFFFFFFFFFFFFFFFFFFFFFFFFFFF AND DUP2 PUSH20 0xFFFFFFFFFFFFFFFFFFFFFFFFFFFFFFFFFFFFFFFF AND EQ ISZERO PUSH2 0x19A1 JUMPI PUSH1 0x40 MLOAD PUSH32 0x8C379A000000000000000000000000000000000000000000000000000000000 DUP2 MSTORE PUSH1 0x4 ADD PUSH2 0x1998 SWAP1 PUSH2 0x3ACA JUMP JUMPDEST PUSH1 0x40 MLOAD DUP1 SWAP2 SUB SWAP1 REVERT JUMPDEST DUP1 PUSH20 0xFFFFFFFFFFFFFFFFFFFFFFFFFFFFFFFFFFFFFFFF AND PUSH1 0x0 DUP1 SLOAD SWAP1 PUSH2 0x100 EXP SWAP1 DIV PUSH20 0xFFFFFFFFFFFFFFFFFFFFFFFFFFFFFFFFFFFFFFFF AND PUSH20 0xFFFFFFFFFFFFFFFFFFFFFFFFFFFFFFFFFFFFFFFF AND PUSH32 0x8BE0079C531659141344CD1FD0A4F28419497F9722A3DAAFE3B4186F6B6457E0 PUSH1 0x40 MLOAD PUSH1 0x40 MLOAD DUP1 SWAP2 SUB SWAP1 LOG3 DUP1 PUSH1 0x0 DUP1 PUSH2 0x100 EXP DUP2 SLOAD DUP2 PUSH20 0xFFFFFFFFFFFFFFFFFFFFFFFFFFFFFFFFFFFFFFFF MUL NOT AND SWAP1 DUP4 PUSH20 0xFFFFFFFFFFFFFFFFFFFFFFFFFFFFFFFFFFFFFFFF AND MUL OR SWAP1 SSTORE POP POP JUMP JUMPDEST PUSH1 0x0 CALLER SWAP1 POP SWAP1 JUMP JUMPDEST PUSH1 0x0 DUP2 DUP4 PUSH2 0x1A74 SWAP2 SWAP1 PUSH2 0x3B7C JUMP JUMPDEST SWAP1 POP SWAP3 SWAP2 POP POP JUMP JUMPDEST PUSH1 0x0 DUP2 DUP4 PUSH2 0x1A8A SWAP2 SWAP1 PUSH2 0x3C6B JUMP JUMPDEST SWAP1 POP SWAP3 SWAP2 POP POP JUMP JUMPDEST PUSH1 0x0 DUP2 DUP4 PUSH2 0x1AA0 SWAP2 SWAP1 PUSH2 0x3C09 JUMP JUMPDEST SWAP1 POP SWAP3 SWAP2 POP POP JUMP JUMPDEST PUSH1 0x0 DUP1 PUSH17 0x200000000000000000000000000000000 DUP7 LT PUSH2 0x1AF2 JUMPI PUSH32 0x4E487B7100000000000000000000000000000000000000000000000000000000 PUSH1 0x0 MSTORE PUSH1 0x1 PUSH1 0x4 MSTORE PUSH1 0x24 PUSH1 0x0 REVERT JUMPDEST DUP5 DUP7 LT ISZERO PUSH2 0x1B35 JUMPI PUSH1 0x40 MLOAD PUSH32 0x8C379A000000000000000000000000000000000000000000000000000000000 DUP2 MSTORE PUSH1 0x4 ADD PUSH2 0x1B2C SWAP1 PUSH2 0x3B0A JUMP JUMPDEST PUSH1 0x40 MLOAD DUP1 SWAP2 SUB SWAP1 REVERT JUMPDEST PUSH1 0x0 DUP1 DUP7 PUSH16 0x80000000000000000000000000000000 DUP10 PUSH2 0x1B55 SWAP2 SWAP1 PUSH2 0x3C6B JUMP JUMPDEST PUSH2 0x1B5F SWAP2 SWAP1 PUSH2 0x3C09 JUMP JUMPDEST SWAP1 POP PUSH17 0x15BF0A8B1457695355FB8AC404E7A79E3 DUP2 LT ISZERO PUSH2 0x1B8A JUMPI PUSH2 0x1B83 DUP2 PUSH2 0x1C3F JUMP JUMPDEST SWAP2 POP PUSH2 0x1B96 JUMP JUMPDEST PUSH2 0x1B93 DUP2 PUSH2 0x23B8 JUMP JUMPDEST SWAP2 POP JUMPDEST PUSH1 0x0 DUP6 PUSH4 0xFFFFFFFF AND DUP8 PUSH4 0xFFFFFFFF AND DUP5 PUSH2 0x1BB1 SWAP2 SWAP1 PUSH2 0x3C6B JUMP JUMPDEST PUSH2 0x1BBB SWAP2 SWAP1 PUSH2 0x3C09 JUMP JUMPDEST SWAP1 POP PUSH17 0x800000000000000000000000000000000 DUP2 LT ISZERO PUSH2 0x1BED JUMPI PUSH2 0x1BDF DUP2 PUSH2 0x2518 JUMP JUMPDEST PUSH1 0x7F SWAP5 POP SWAP5 POP POP POP POP PUSH2 0x1C20 JUMP JUMPDEST PUSH1 0x0 PUSH2 0x1BF8 DUP3 PUSH2 0x2D1C JUMP JUMPDEST SWAP1 POP PUSH2 0x1C16 DUP2 PUSH1 0x7F PUSH2 0x1C0A SWAP2 SWAP1 PUSH2 0x3CF9 JUMP JUMPDEST PUSH1 0xFF AND DUP4 SWAP1 SHR DUP3 PUSH2 0x2E96 JUMP JUMPDEST DUP2 SWAP6 POP SWAP6 POP POP POP POP POP JUMPDEST SWAP5 POP SWAP5 SWAP3 POP POP POP JUMP JUMPDEST PUSH1 0x0 DUP2 DUP4 PUSH2 0x1C37 SWAP2 SWAP1 PUSH2 0x3CC5 JUMP JUMPDEST SWAP1 POP SWAP3 SWAP2 POP POP JUMP JUMPDEST PUSH1 0x0 DUP1 PUSH1 0x0 SWAP1 POP PUSH1 0x0 DUP1 PUSH1 0x0 PUSH16 0xD3094C70F034DE4B96FF7D5B6F99FCD8 DUP7 LT PUSH2 0x1CBA JUMPI PUSH16 0x40000000000000000000000000000000 DUP5 PUSH2 0x1C7E SWAP2 SWAP1 PUSH2 0x3B7C JUMP JUMPDEST SWAP4 POP PUSH16 0xD3094C70F034DE4B96FF7D5B6F99FCD8 PUSH16 0x80000000000000000000000000000000 DUP8 PUSH2 0x1CAD SWAP2 SWAP1 PUSH2 0x3C6B JUMP JUMPDEST PUSH2 0x1CB7 SWAP2 SWAP1 PUSH2 0x3C09 JUMP JUMPDEST SWAP6 POP JUMPDEST PUSH16 0xA45AF1E1F40C333B3DE1DB4DD55F29A7 DUP7 LT PUSH2 0x1D29 JUMPI PUSH16 0x20000000000000000000000000000000 DUP5 PUSH2 0x1CED SWAP2 SWAP1 PUSH2 0x3B7C JUMP JUMPDEST SWAP4 POP PUSH16 0xA45AF1E1F40C333B3DE1DB4DD55F29A7 PUSH16 0x80000000000000000000000000000000 DUP8 PUSH2 0x1D1C SWAP2 SWAP1 PUSH2 0x3C6B JUMP JUMPDEST PUSH2 0x1D26 SWAP2 SWAP1 PUSH2 0x3C09 JUMP JUMPDEST SWAP6 POP JUMPDEST PUSH16 0x910B022DB7AE67CE76B441C27035C6A1 DUP7 LT PUSH2 0x1D98 JUMPI PUSH16 0x10000000000000000000000000000000 DUP5 PUSH2 0x1D5C SWAP2 SWAP1 PUSH2 0x3B7C JUMP JUMPDEST SWAP4 POP PUSH16 0x910B022DB7AE67CE76B441C27035C6A1 PUSH16 0x80000000000000000000000000000000 DUP8 PUSH2 0x1D8B SWAP2 SWAP1 PUSH2 0x3C6B JUMP JUMPDEST PUSH2 0x1D95 SWAP2 SWAP1 PUSH2 0x3C09 JUMP JUMPDEST SWAP6 POP JUMPDEST PUSH16 0x88415ABBE9A76BEAD8D00CF112E4D4A8 DUP7 LT PUSH2 0x1E07 JUMPI PUSH16 0x8000000000000000000000000000000 DUP5 PUSH2 0x1DCB SWAP2 SWAP1 PUSH2 0x3B7C JUMP JUMPDEST SWAP4 POP PUSH16 0x88415ABBE9A76BEAD8D00CF112E4D4A8 PUSH16 0x80000000000000000000000000000000 DUP8 PUSH2 0x1DFA SWAP2 SWAP1 PUSH2 0x3C6B JUMP JUMPDEST PUSH2 0x1E04 SWAP2 SWAP1 PUSH2 0x3C09 JUMP JUMPDEST SWAP6 POP JUMPDEST PUSH16 0x84102B00893F64C705E841D5D4064BD3 DUP7 LT PUSH2 0x1E76 JUMPI PUSH16 0x4000000000000000000000000000000 DUP5 PUSH2 0x1E3A SWAP2 SWAP1 PUSH2 0x3B7C JUMP JUMPDEST SWAP4 POP PUSH16 0x84102B00893F64C705E841D5D4064BD3 PUSH16 0x80000000000000000000000000000000 DUP8 PUSH2 0x1E69 SWAP2 SWAP1 PUSH2 0x3C6B JUMP JUMPDEST PUSH2 0x1E73 SWAP2 SWAP1 PUSH2 0x3C09 JUMP JUMPDEST SWAP6 POP JUMPDEST PUSH16 0x8204055AAEF1C8BD5C3259F4822735A2 DUP7 LT PUSH2 0x1EE5 JUMPI PUSH16 0x2000000000000000000000000000000 DUP5 PUSH2 0x1EA9 SWAP2 SWAP1 PUSH2 0x3B7C JUMP JUMPDEST SWAP4 POP PUSH16 0x8204055AAEF1C8BD5C3259F4822735A2 PUSH16 0x80000000000000000000000000000000 DUP8 PUSH2 0x1ED8 SWAP2 SWAP1 PUSH2 0x3C6B JUMP JUMPDEST PUSH2 0x1EE2 SWAP2 SWAP1 PUSH2 0x3C09 JUMP JUMPDEST SWAP6 POP JUMPDEST PUSH16 0x810100AB00222D861931C15E39B44E99 DUP7 LT PUSH2 0x1F54 JUMPI PUSH16 0x1000000000000000000000000000000 DUP5 PUSH2 0x1F18 SWAP2 SWAP1 PUSH2 0x3B7C JUMP JUMPDEST SWAP4 POP PUSH16 0x810100AB00222D861931C15E39B44E99 PUSH16 0x80000000000000000000000000000000 DUP8 PUSH2 0x1F47 SWAP2 SWAP1 PUSH2 0x3C6B JUMP JUMPDEST PUSH2 0x1F51 SWAP2 SWAP1 PUSH2 0x3C09 JUMP JUMPDEST SWAP6 POP JUMPDEST PUSH16 0x808040155AABBBE9451521693554F733 DUP7 LT PUSH2 0x1FC2 JUMPI PUSH15 0x800000000000000000000000000000 DUP5 PUSH2 0x1F86 SWAP2 SWAP1 PUSH2 0x3B7C JUMP JUMPDEST SWAP4 POP PUSH16 0x808040155AABBBE9451521693554F733 PUSH16 0x80000000000000000000000000000000 DUP8 PUSH2 0x1FB5 SWAP2 SWAP1 PUSH2 0x3C6B JUMP JUMPDEST PUSH2 0x1FBF SWAP2 SWAP1 PUSH2 0x3C09 JUMP JUMPDEST SWAP6 POP JUMPDEST PUSH16 0x80000000000000000000000000000000 DUP7 PUSH2 0x1FDE SWAP2 SWAP1 PUSH2 0x3CC5 JUMP JUMPDEST SWAP3 POP DUP3 SWAP2 POP PUSH16 0x80000000000000000000000000000000 DUP4 DUP5 PUSH2 0x2000 SWAP2 SWAP1 PUSH2 0x3C6B JUMP JUMPDEST PUSH2 0x200A SWAP2 SWAP1 PUSH2 0x3C09 JUMP JUMPDEST SWAP1 POP PUSH17 0x100000000000000000000000000000000 DUP4 PUSH17 0x100000000000000000000000000000000 PUSH2 0x203B SWAP2 SWAP1 PUSH2 0x3CC5 JUMP JUMPDEST DUP4 PUSH2 0x2046 SWAP2 SWAP1 PUSH2 0x3C6B JUMP JUMPDEST PUSH2 0x2050 SWAP2 SWAP1 PUSH2 0x3C09 JUMP JUMPDEST DUP5 PUSH2 0x205B SWAP2 SWAP1 PUSH2 0x3B7C JUMP JUMPDEST SWAP4 POP PUSH16 0x80000000000000000000000000000000 DUP2 DUP4 PUSH2 0x207A SWAP2 SWAP1 PUSH2 0x3C6B JUMP JUMPDEST PUSH2 0x2084 SWAP2 SWAP1 PUSH2 0x3C09 JUMP JUMPDEST SWAP2 POP PUSH17 0x200000000000000000000000000000000 DUP4 PUSH16 0xAAAAAAAAAAAAAAAAAAAAAAAAAAAAAAAA PUSH2 0x20B4 SWAP2 SWAP1 PUSH2 0x3CC5 JUMP JUMPDEST DUP4 PUSH2 0x20BF SWAP2 SWAP1 PUSH2 0x3C6B JUMP JUMPDEST PUSH2 0x20C9 SWAP2 SWAP1 PUSH2 0x3C09 JUMP JUMPDEST DUP5 PUSH2 0x20D4 SWAP2 SWAP1 PUSH2 0x3B7C JUMP JUMPDEST SWAP4 POP PUSH16 0x80000000000000000000000000000000 DUP2 DUP4 PUSH2 0x20F3 SWAP2 SWAP1 PUSH2 0x3C6B JUMP JUMPDEST PUSH2 0x20FD SWAP2 SWAP1 PUSH2 0x3C09 JUMP JUMPDEST SWAP2 POP PUSH17 0x300000000000000000000000000000000 DUP4 PUSH16 0x99999999999999999999999999999999 PUSH2 0x212D SWAP2 SWAP1 PUSH2 0x3CC5 JUMP JUMPDEST DUP4 PUSH2 0x2138 SWAP2 SWAP1 PUSH2 0x3C6B JUMP JUMPDEST PUSH2 0x2142 SWAP2 SWAP1 PUSH2 0x3C09 JUMP JUMPDEST DUP5 PUSH2 0x214D SWAP2 SWAP1 PUSH2 0x3B7C JUMP JUMPDEST SWAP4 POP PUSH16 0x80000000000000000000000000000000 DUP2 DUP4 PUSH2 0x216C SWAP2 SWAP1 PUSH2 0x3C6B JUMP JUMPDEST PUSH2 0x2176 SWAP2 SWAP1 PUSH2 0x3C09 JUMP JUMPDEST SWAP2 POP PUSH17 0x400000000000000000000000000000000 DUP4 PUSH16 0x92492492492492492492492492492492 PUSH2 0x21A6 SWAP2 SWAP1 PUSH2 0x3CC5 JUMP JUMPDEST DUP4 PUSH2 0x21B1 SWAP2 SWAP1 PUSH2 0x3C6B JUMP JUMPDEST PUSH2 0x21BB SWAP2 SWAP1 PUSH2 0x3C09 JUMP JUMPDEST DUP5 PUSH2 0x21C6 SWAP2 SWAP1 PUSH2 0x3B7C JUMP JUMPDEST SWAP4 POP PUSH16 0x80000000000000000000000000000000 DUP2 DUP4 PUSH2 0x21E5 SWAP2 SWAP1 PUSH2 0x3C6B JUMP JUMPDEST PUSH2 0x21EF SWAP2 SWAP1 PUSH2 0x3C09 JUMP JUMPDEST SWAP2 POP PUSH17 0x500000000000000000000000000000000 DUP4 PUSH16 0x8E38E38E38E38E38E38E38E38E38E38E PUSH2 0x221F SWAP2 SWAP1 PUSH2 0x3CC5 JUMP JUMPDEST DUP4 PUSH2 0x222A SWAP2 SWAP1 PUSH2 0x3C6B JUMP JUMPDEST PUSH2 0x2234 SWAP2 SWAP1 PUSH2 0x3C09 JUMP JUMPDEST DUP5 PUSH2 0x223F SWAP2 SWAP1 PUSH2 0x3B7C JUMP JUMPDEST SWAP4 POP PUSH16 0x80000000000000000000000000000000 DUP2 DUP4 PUSH2 0x225E SWAP2 SWAP1 PUSH2 0x3C6B JUMP JUMPDEST PUSH2 0x2268 SWAP2 SWAP1 PUSH2 0x3C09 JUMP JUMPDEST SWAP2 POP PUSH17 0x600000000000000000000000000000000 DUP4 PUSH16 0x8BA2E8BA2E8BA2E8BA2E8BA2E8BA2E8B PUSH2 0x2298 SWAP2 SWAP1 PUSH2 0x3CC5 JUMP JUMPDEST DUP4 PUSH2 0x22A3 SWAP2 SWAP1 PUSH2 0x3C6B JUMP JUMPDEST PUSH2 0x22AD SWAP2 SWAP1 PUSH2 0x3C09 JUMP JUMPDEST DUP5 PUSH2 0x22B8 SWAP2 SWAP1 PUSH2 0x3B7C JUMP JUMPDEST SWAP4 POP PUSH16 0x80000000000000000000000000000000 DUP2 DUP4 PUSH2 0x22D7 SWAP2 SWAP1 PUSH2 0x3C6B JUMP JUMPDEST PUSH2 0x22E1 SWAP2 SWAP1 PUSH2 0x3C09 JUMP JUMPDEST SWAP2 POP PUSH17 0x700000000000000000000000000000000 DUP4 PUSH16 0x89D89D89D89D89D89D89D89D89D89D89 PUSH2 0x2311 SWAP2 SWAP1 PUSH2 0x3CC5 JUMP JUMPDEST DUP4 PUSH2 0x231C SWAP2 SWAP1 PUSH2 0x3C6B JUMP JUMPDEST PUSH2 0x2326 SWAP2 SWAP1 PUSH2 0x3C09 JUMP JUMPDEST DUP5 PUSH2 0x2331 SWAP2 SWAP1 PUSH2 0x3B7C JUMP JUMPDEST SWAP4 POP PUSH16 0x80000000000000000000000000000000 DUP2 DUP4 PUSH2 0x2350 SWAP2 SWAP1 PUSH2 0x3C6B JUMP JUMPDEST PUSH2 0x235A SWAP2 SWAP1 PUSH2 0x3C09 JUMP JUMPDEST SWAP2 POP PUSH17 0x800000000000000000000000000000000 DUP4 PUSH16 0x88888888888888888888888888888888 PUSH2 0x238A SWAP2 SWAP1 PUSH2 0x3CC5 JUMP JUMPDEST DUP4 PUSH2 0x2395 SWAP2 SWAP1 PUSH2 0x3C6B JUMP JUMPDEST PUSH2 0x239F SWAP2 SWAP1 PUSH2 0x3C09 JUMP JUMPDEST DUP5 PUSH2 0x23AA SWAP2 SWAP1 PUSH2 0x3B7C JUMP JUMPDEST SWAP4 POP DUP4 SWAP5 POP POP POP POP POP SWAP2 SWAP1 POP JUMP JUMPDEST PUSH1 0x0 DUP1 PUSH1 0x0 SWAP1 POP PUSH1 0x0 DUP4 SWAP1 POP PUSH17 0x100000000000000000000000000000000 DUP2 LT PUSH2 0x2430 JUMPI PUSH1 0x0 PUSH2 0x2402 PUSH16 0x80000000000000000000000000000000 DUP4 PUSH2 0x23FD SWAP2 SWAP1 PUSH2 0x3C09 JUMP JUMPDEST PUSH2 0x35A5 JUMP JUMPDEST SWAP1 POP DUP1 PUSH1 0xFF AND DUP3 SWAP1 SHR SWAP2 POP PUSH16 0x80000000000000000000000000000000 DUP2 PUSH1 0xFF AND PUSH2 0x242C SWAP2 SWAP1 PUSH2 0x3C6B JUMP JUMPDEST SWAP3 POP POP JUMPDEST PUSH16 0x80000000000000000000000000000000 DUP2 GT ISZERO PUSH2 0x24D8 JUMPI PUSH1 0x0 PUSH1 0x7F SWAP1 POP JUMPDEST PUSH1 0x0 DUP2 PUSH1 0xFF AND GT ISZERO PUSH2 0x24D6 JUMPI PUSH16 0x80000000000000000000000000000000 DUP3 DUP4 PUSH2 0x2478 SWAP2 SWAP1 PUSH2 0x3C6B JUMP JUMPDEST PUSH2 0x2482 SWAP2 SWAP1 PUSH2 0x3C09 JUMP JUMPDEST SWAP2 POP PUSH17 0x100000000000000000000000000000000 DUP3 LT PUSH2 0x24C5 JUMPI PUSH1 0x1 DUP3 SWAP1 SHR SWAP2 POP PUSH1 0x1 DUP2 PUSH2 0x24B0 SWAP2 SWAP1 PUSH2 0x3CF9 JUMP JUMPDEST PUSH1 0xFF AND PUSH1 0x1 SWAP1 SHL DUP4 PUSH2 0x24C2 SWAP2 SWAP1 PUSH2 0x3B7C JUMP JUMPDEST SWAP3 POP JUMPDEST DUP1 PUSH2 0x24CF SWAP1 PUSH2 0x3E43 JUMP JUMPDEST SWAP1 POP PUSH2 0x244F JUMP JUMPDEST POP JUMPDEST PUSH16 0x5B9DE1D10BF4103D647B0955897BA80 PUSH16 0x3F80FE03F80FE03F80FE03F80FE03F8 DUP4 PUSH2 0x2505 SWAP2 SWAP1 PUSH2 0x3C6B JUMP JUMPDEST PUSH2 0x250F SWAP2 SWAP1 PUSH2 0x3C09 JUMP JUMPDEST SWAP3 POP POP POP SWAP2 SWAP1 POP JUMP JUMPDEST PUSH1 0x0 DUP1 PUSH1 0x0 SWAP1 POP PUSH1 0x0 DUP1 PUSH16 0x10000000000000000000000000000000 DUP6 PUSH2 0x253E SWAP2 SWAP1 PUSH2 0x3EE8 JUMP JUMPDEST SWAP2 POP DUP2 SWAP1 POP PUSH16 0x80000000000000000000000000000000 DUP3 DUP3 PUSH2 0x2560 SWAP2 SWAP1 PUSH2 0x3C6B JUMP JUMPDEST PUSH2 0x256A SWAP2 SWAP1 PUSH2 0x3C09 JUMP JUMPDEST SWAP1 POP PUSH8 0x10E1B3BE415A0000 DUP2 PUSH2 0x2580 SWAP2 SWAP1 PUSH2 0x3C6B JUMP JUMPDEST DUP4 PUSH2 0x258B SWAP2 SWAP1 PUSH2 0x3B7C JUMP JUMPDEST SWAP3 POP PUSH16 0x80000000000000000000000000000000 DUP3 DUP3 PUSH2 0x25AA SWAP2 SWAP1 PUSH2 0x3C6B JUMP JUMPDEST PUSH2 0x25B4 SWAP2 SWAP1 PUSH2 0x3C09 JUMP JUMPDEST SWAP1 POP PUSH8 0x5A0913F6B1E0000 DUP2 PUSH2 0x25CA SWAP2 SWAP1 PUSH2 0x3C6B JUMP JUMPDEST DUP4 PUSH2 0x25D5 SWAP2 SWAP1 PUSH2 0x3B7C JUMP JUMPDEST SWAP3 POP PUSH16 0x80000000000000000000000000000000 DUP3 DUP3 PUSH2 0x25F4 SWAP2 SWAP1 PUSH2 0x3C6B JUMP JUMPDEST PUSH2 0x25FE SWAP2 SWAP1 PUSH2 0x3C09 JUMP JUMPDEST SWAP1 POP PUSH8 0x168244FDAC78000 DUP2 PUSH2 0x2614 SWAP2 SWAP1 PUSH2 0x3C6B JUMP JUMPDEST DUP4 PUSH2 0x261F SWAP2 SWAP1 PUSH2 0x3B7C JUMP JUMPDEST SWAP3 POP PUSH16 0x80000000000000000000000000000000 DUP3 DUP3 PUSH2 0x263E SWAP2 SWAP1 PUSH2 0x3C6B JUMP JUMPDEST PUSH2 0x2648 SWAP2 SWAP1 PUSH2 0x3C09 JUMP JUMPDEST SWAP1 POP PUSH7 0x4807432BC18000 DUP2 PUSH2 0x265D SWAP2 SWAP1 PUSH2 0x3C6B JUMP JUMPDEST DUP4 PUSH2 0x2668 SWAP2 SWAP1 PUSH2 0x3B7C JUMP JUMPDEST SWAP3 POP PUSH16 0x80000000000000000000000000000000 DUP3 DUP3 PUSH2 0x2687 SWAP2 SWAP1 PUSH2 0x3C6B JUMP JUMPDEST PUSH2 0x2691 SWAP2 SWAP1 PUSH2 0x3C09 JUMP JUMPDEST SWAP1 POP PUSH7 0xC0135DCA04000 DUP2 PUSH2 0x26A6 SWAP2 SWAP1 PUSH2 0x3C6B JUMP JUMPDEST DUP4 PUSH2 0x26B1 SWAP2 SWAP1 PUSH2 0x3B7C JUMP JUMPDEST SWAP3 POP PUSH16 0x80000000000000000000000000000000 DUP3 DUP3 PUSH2 0x26D0 SWAP2 SWAP1 PUSH2 0x3C6B JUMP JUMPDEST PUSH2 0x26DA SWAP2 SWAP1 PUSH2 0x3C09 JUMP JUMPDEST SWAP1 POP PUSH7 0x1B707B1CDC000 DUP2 PUSH2 0x26EF SWAP2 SWAP1 PUSH2 0x3C6B JUMP JUMPDEST DUP4 PUSH2 0x26FA SWAP2 SWAP1 PUSH2 0x3B7C JUMP JUMPDEST SWAP3 POP PUSH16 0x80000000000000000000000000000000 DUP3 DUP3 PUSH2 0x2719 SWAP2 SWAP1 PUSH2 0x3C6B JUMP JUMPDEST PUSH2 0x2723 SWAP2 SWAP1 PUSH2 0x3C09 JUMP JUMPDEST SWAP1 POP PUSH6 0x36E0F639B800 DUP2 PUSH2 0x2737 SWAP2 SWAP1 PUSH2 0x3C6B JUMP JUMPDEST DUP4 PUSH2 0x2742 SWAP2 SWAP1 PUSH2 0x3B7C JUMP JUMPDEST SWAP3 POP PUSH16 0x80000000000000000000000000000000 DUP3 DUP3 PUSH2 0x2761 SWAP2 SWAP1 PUSH2 0x3C6B JUMP JUMPDEST PUSH2 0x276B SWAP2 SWAP1 PUSH2 0x3C09 JUMP JUMPDEST SWAP1 POP PUSH6 0x618FEE9F800 DUP2 PUSH2 0x277F SWAP2 SWAP1 PUSH2 0x3C6B JUMP JUMPDEST DUP4 PUSH2 0x278A SWAP2 SWAP1 PUSH2 0x3B7C JUMP JUMPDEST SWAP3 POP PUSH16 0x80000000000000000000000000000000 DUP3 DUP3 PUSH2 0x27A9 SWAP2 SWAP1 PUSH2 0x3C6B JUMP JUMPDEST PUSH2 0x27B3 SWAP2 SWAP1 PUSH2 0x3C09 JUMP JUMPDEST SWAP1 POP PUSH5 0x9C197DCC00 DUP2 PUSH2 0x27C6 SWAP2 SWAP1 PUSH2 0x3C6B JUMP JUMPDEST DUP4 PUSH2 0x27D1 SWAP2 SWAP1 PUSH2 0x3B7C JUMP JUMPDEST SWAP3 POP PUSH16 0x80000000000000000000000000000000 DUP3 DUP3 PUSH2 0x27F0 SWAP2 SWAP1 PUSH2 0x3C6B JUMP JUMPDEST PUSH2 0x27FA SWAP2 SWAP1 PUSH2 0x3C09 JUMP JUMPDEST SWAP1 POP PUSH5 0xE30DCE400 DUP2 PUSH2 0x280D SWAP2 SWAP1 PUSH2 0x3C6B JUMP JUMPDEST DUP4 PUSH2 0x2818 SWAP2 SWAP1 PUSH2 0x3B7C JUMP JUMPDEST SWAP3 POP PUSH16 0x80000000000000000000000000000000 DUP3 DUP3 PUSH2 0x2837 SWAP2 SWAP1 PUSH2 0x3C6B JUMP JUMPDEST PUSH2 0x2841 SWAP2 SWAP1 PUSH2 0x3C09 JUMP JUMPDEST SWAP1 POP PUSH5 0x12EBD1300 DUP2 PUSH2 0x2854 SWAP2 SWAP1 PUSH2 0x3C6B JUMP JUMPDEST DUP4 PUSH2 0x285F SWAP2 SWAP1 PUSH2 0x3B7C JUMP JUMPDEST SWAP3 POP PUSH16 0x80000000000000000000000000000000 DUP3 DUP3 PUSH2 0x287E SWAP2 SWAP1 PUSH2 0x3C6B JUMP JUMPDEST PUSH2 0x2888 SWAP2 SWAP1 PUSH2 0x3C09 JUMP JUMPDEST SWAP1 POP PUSH4 0x17499F00 DUP2 PUSH2 0x289A SWAP2 SWAP1 PUSH2 0x3C6B JUMP JUMPDEST DUP4 PUSH2 0x28A5 SWAP2 SWAP1 PUSH2 0x3B7C JUMP JUMPDEST SWAP3 POP PUSH16 0x80000000000000000000000000000000 DUP3 DUP3 PUSH2 0x28C4 SWAP2 SWAP1 PUSH2 0x3C6B JUMP JUMPDEST PUSH2 0x28CE SWAP2 SWAP1 PUSH2 0x3C09 JUMP JUMPDEST SWAP1 POP PUSH4 0x1A9D480 DUP2 PUSH2 0x28E0 SWAP2 SWAP1 PUSH2 0x3C6B JUMP JUMPDEST DUP4 PUSH2 0x28EB SWAP2 SWAP1 PUSH2 0x3B7C JUMP JUMPDEST SWAP3 POP PUSH16 0x80000000000000000000000000000000 DUP3 DUP3 PUSH2 0x290A SWAP2 SWAP1 PUSH2 0x3C6B JUMP JUMPDEST PUSH2 0x2914 SWAP2 SWAP1 PUSH2 0x3C09 JUMP JUMPDEST SWAP1 POP PUSH3 0x1C6380 DUP2 PUSH2 0x2925 SWAP2 SWAP1 PUSH2 0x3C6B JUMP JUMPDEST DUP4 PUSH2 0x2930 SWAP2 SWAP1 PUSH2 0x3B7C JUMP JUMPDEST SWAP3 POP PUSH16 0x80000000000000000000000000000000 DUP3 DUP3 PUSH2 0x294F SWAP2 SWAP1 PUSH2 0x3C6B JUMP JUMPDEST PUSH2 0x2959 SWAP2 SWAP1 PUSH2 0x3C09 JUMP JUMPDEST SWAP1 POP PUSH3 0x1C638 DUP2 PUSH2 0x296A SWAP2 SWAP1 PUSH2 0x3C6B JUMP JUMPDEST DUP4 PUSH2 0x2975 SWAP2 SWAP1 PUSH2 0x3B7C JUMP JUMPDEST SWAP3 POP PUSH16 0x80000000000000000000000000000000 DUP3 DUP3 PUSH2 0x2994 SWAP2 SWAP1 PUSH2 0x3C6B JUMP JUMPDEST PUSH2 0x299E SWAP2 SWAP1 PUSH2 0x3C09 JUMP JUMPDEST SWAP1 POP PUSH2 0x1AB8 DUP2 PUSH2 0x29AE SWAP2 SWAP1 PUSH2 0x3C6B JUMP JUMPDEST DUP4 PUSH2 0x29B9 SWAP2 SWAP1 PUSH2 0x3B7C JUMP JUMPDEST SWAP3 POP PUSH16 0x80000000000000000000000000000000 DUP3 DUP3 PUSH2 0x29D8 SWAP2 SWAP1 PUSH2 0x3C6B JUMP JUMPDEST PUSH2 0x29E2 SWAP2 SWAP1 PUSH2 0x3C09 JUMP JUMPDEST SWAP1 POP PUSH2 0x17C DUP2 PUSH2 0x29F2 SWAP2 SWAP1 PUSH2 0x3C6B JUMP JUMPDEST DUP4 PUSH2 0x29FD SWAP2 SWAP1 PUSH2 0x3B7C JUMP JUMPDEST SWAP3 POP PUSH16 0x80000000000000000000000000000000 DUP3 DUP3 PUSH2 0x2A1C SWAP2 SWAP1 PUSH2 0x3C6B JUMP JUMPDEST PUSH2 0x2A26 SWAP2 SWAP1 PUSH2 0x3C09 JUMP JUMPDEST SWAP1 POP PUSH1 0x14 DUP2 PUSH2 0x2A35 SWAP2 SWAP1 PUSH2 0x3C6B JUMP JUMPDEST DUP4 PUSH2 0x2A40 SWAP2 SWAP1 PUSH2 0x3B7C JUMP JUMPDEST SWAP3 POP PUSH16 0x80000000000000000000000000000000 DUP3 DUP3 PUSH2 0x2A5F SWAP2 SWAP1 PUSH2 0x3C6B JUMP JUMPDEST PUSH2 0x2A69 SWAP2 SWAP1 PUSH2 0x3C09 JUMP JUMPDEST SWAP1 POP PUSH1 0x1 DUP2 PUSH2 0x2A78 SWAP2 SWAP1 PUSH2 0x3C6B JUMP JUMPDEST DUP4 PUSH2 0x2A83 SWAP2 SWAP1 PUSH2 0x3B7C JUMP JUMPDEST SWAP3 POP PUSH16 0x80000000000000000000000000000000 DUP3 PUSH8 0x21C3677C82B40000 DUP6 PUSH2 0x2AAB SWAP2 SWAP1 PUSH2 0x3C09 JUMP JUMPDEST PUSH2 0x2AB5 SWAP2 SWAP1 PUSH2 0x3B7C JUMP JUMPDEST PUSH2 0x2ABF SWAP2 SWAP1 PUSH2 0x3B7C JUMP JUMPDEST SWAP3 POP PUSH1 0x0 PUSH16 0x10000000000000000000000000000000 DUP7 AND EQ PUSH2 0x2B17 JUMPI PUSH17 0x18EBEF9EAC820AE8682B9793AC6D1E776 PUSH17 0x1C3D6A24ED82218787D624D3E5EBA95F9 DUP5 PUSH2 0x2B0A SWAP2 SWAP1 PUSH2 0x3C6B JUMP JUMPDEST PUSH2 0x2B14 SWAP2 SWAP1 PUSH2 0x3C09 JUMP JUMPDEST SWAP3 POP JUMPDEST PUSH1 0x0 PUSH16 0x20000000000000000000000000000000 DUP7 AND EQ PUSH2 0x2B6D JUMPI PUSH17 0x1368B2FC6F9609FE7ACEB46AA619BAED4 PUSH17 0x18EBEF9EAC820AE8682B9793AC6D1E778 DUP5 PUSH2 0x2B60 SWAP2 SWAP1 PUSH2 0x3C6B JUMP JUMPDEST PUSH2 0x2B6A SWAP2 SWAP1 PUSH2 0x3C09 JUMP JUMPDEST SWAP3 POP JUMPDEST PUSH1 0x0 PUSH16 0x40000000000000000000000000000000 DUP7 AND EQ PUSH2 0x2BC2 JUMPI PUSH16 0xBC5AB1B16779BE3575BD8F0520A9F21F PUSH17 0x1368B2FC6F9609FE7ACEB46AA619BAED5 DUP5 PUSH2 0x2BB5 SWAP2 SWAP1 PUSH2 0x3C6B JUMP JUMPDEST PUSH2 0x2BBF SWAP2 SWAP1 PUSH2 0x3C09 JUMP JUMPDEST SWAP3 POP JUMPDEST PUSH1 0x0 PUSH16 0x80000000000000000000000000000000 DUP7 AND EQ PUSH2 0x2C16 JUMPI PUSH16 0x454AAA8EFE072E7F6DDBAB84B40A55C9 PUSH16 0xBC5AB1B16779BE3575BD8F0520A9F21E DUP5 PUSH2 0x2C09 SWAP2 SWAP1 PUSH2 0x3C6B JUMP JUMPDEST PUSH2 0x2C13 SWAP2 SWAP1 PUSH2 0x3C09 JUMP JUMPDEST SWAP3 POP JUMPDEST PUSH1 0x0 PUSH17 0x100000000000000000000000000000000 DUP7 AND EQ PUSH2 0x2C6B JUMPI PUSH16 0x960AADC109E7A3BF4578099615711EA PUSH16 0x454AAA8EFE072E7F6DDBAB84B40A55C5 DUP5 PUSH2 0x2C5E SWAP2 SWAP1 PUSH2 0x3C6B JUMP JUMPDEST PUSH2 0x2C68 SWAP2 SWAP1 PUSH2 0x3C09 JUMP JUMPDEST SWAP3 POP JUMPDEST PUSH1 0x0 PUSH17 0x200000000000000000000000000000000 DUP7 AND EQ PUSH2 0x2CBF JUMPI PUSH15 0x2BF84208204F5977F9A8CF01FDCE3D PUSH16 0x960AADC109E7A3BF4578099615711D7 DUP5 PUSH2 0x2CB2 SWAP2 SWAP1 PUSH2 0x3C6B JUMP JUMPDEST PUSH2 0x2CBC SWAP2 SWAP1 PUSH2 0x3C09 JUMP JUMPDEST SWAP3 POP JUMPDEST PUSH1 0x0 PUSH17 0x400000000000000000000000000000000 DUP7 AND EQ PUSH2 0x2D11 JUMPI PUSH14 0x3C6AB775DD0B95B4CBEE7E65D11 PUSH15 0x2BF84208204F5977F9A8CF01FDC307 DUP5 PUSH2 0x2D04 SWAP2 SWAP1 PUSH2 0x3C6B JUMP JUMPDEST PUSH2 0x2D0E SWAP2 SWAP1 PUSH2 0x3C09 JUMP JUMPDEST SWAP3 POP JUMPDEST DUP3 SWAP4 POP POP POP POP SWAP2 SWAP1 POP JUMP JUMPDEST PUSH1 0x0 DUP1 PUSH1 0x20 SWAP1 POP PUSH1 0x0 PUSH1 0x7F SWAP1 POP JUMPDEST DUP1 PUSH1 0xFF AND PUSH1 0x1 DUP4 PUSH2 0x2D3B SWAP2 SWAP1 PUSH2 0x3BD2 JUMP JUMPDEST PUSH1 0xFF AND LT ISZERO PUSH2 0x2DB7 JUMPI PUSH1 0x0 PUSH1 0x2 DUP3 DUP5 PUSH2 0x2D54 SWAP2 SWAP1 PUSH2 0x3BD2 JUMP JUMPDEST PUSH2 0x2D5E SWAP2 SWAP1 PUSH2 0x3C3A JUMP JUMPDEST SWAP1 POP DUP5 PUSH1 0x2 DUP3 PUSH1 0xFF AND PUSH1 0x80 DUP2 LT PUSH2 0x2D9E JUMPI PUSH32 0x4E487B7100000000000000000000000000000000000000000000000000000000 PUSH1 0x0 MSTORE PUSH1 0x32 PUSH1 0x4 MSTORE PUSH1 0x24 PUSH1 0x0 REVERT JUMPDEST ADD SLOAD LT PUSH2 0x2DAD JUMPI DUP1 SWAP3 POP PUSH2 0x2DB1 JUMP JUMPDEST DUP1 SWAP2 POP JUMPDEST POP PUSH2 0x2D2A JUMP JUMPDEST DUP4 PUSH1 0x2 DUP3 PUSH1 0xFF AND PUSH1 0x80 DUP2 LT PUSH2 0x2DF5 JUMPI PUSH32 0x4E487B7100000000000000000000000000000000000000000000000000000000 PUSH1 0x0 MSTORE PUSH1 0x32 PUSH1 0x4 MSTORE PUSH1 0x24 PUSH1 0x0 REVERT JUMPDEST ADD SLOAD LT PUSH2 0x2E06 JUMPI DUP1 SWAP3 POP POP POP PUSH2 0x2E91 JUMP JUMPDEST DUP4 PUSH1 0x2 DUP4 PUSH1 0xFF AND PUSH1 0x80 DUP2 LT PUSH2 0x2E44 JUMPI PUSH32 0x4E487B7100000000000000000000000000000000000000000000000000000000 PUSH1 0x0 MSTORE PUSH1 0x32 PUSH1 0x4 MSTORE PUSH1 0x24 PUSH1 0x0 REVERT JUMPDEST ADD SLOAD LT PUSH2 0x2E55 JUMPI DUP2 SWAP3 POP POP POP PUSH2 0x2E91 JUMP JUMPDEST PUSH1 0x0 PUSH2 0x2E8A JUMPI PUSH32 0x4E487B7100000000000000000000000000000000000000000000000000000000 PUSH1 0x0 MSTORE PUSH1 0x1 PUSH1 0x4 MSTORE PUSH1 0x24 PUSH1 0x0 REVERT JUMPDEST PUSH1 0x0 SWAP3 POP POP POP JUMPDEST SWAP2 SWAP1 POP JUMP JUMPDEST PUSH1 0x0 DUP1 DUP4 SWAP1 POP PUSH1 0x0 DUP4 PUSH1 0xFF AND DUP6 DUP4 PUSH2 0x2EAE SWAP2 SWAP1 PUSH2 0x3C6B JUMP JUMPDEST SWAP1 SHR SWAP2 POP PUSH16 0x3442C4E6074A82F1797F72AC0000000 DUP3 PUSH2 0x2ECE SWAP2 SWAP1 PUSH2 0x3C6B JUMP JUMPDEST DUP2 PUSH2 0x2ED9 SWAP2 SWAP1 PUSH2 0x3B7C JUMP JUMPDEST SWAP1 POP DUP4 PUSH1 0xFF AND DUP6 DUP4 PUSH2 0x2EEB SWAP2 SWAP1 PUSH2 0x3C6B JUMP JUMPDEST SWAP1 SHR SWAP2 POP PUSH16 0x116B96F757C380FB287FD0E40000000 DUP3 PUSH2 0x2F0B SWAP2 SWAP1 PUSH2 0x3C6B JUMP JUMPDEST DUP2 PUSH2 0x2F16 SWAP2 SWAP1 PUSH2 0x3B7C JUMP JUMPDEST SWAP1 POP DUP4 PUSH1 0xFF AND DUP6 DUP4 PUSH2 0x2F28 SWAP2 SWAP1 PUSH2 0x3C6B JUMP JUMPDEST SWAP1 SHR SWAP2 POP PUSH15 0x45AE5BDD5F0E03ECA1FF4390000000 DUP3 PUSH2 0x2F47 SWAP2 SWAP1 PUSH2 0x3C6B JUMP JUMPDEST DUP2 PUSH2 0x2F52 SWAP2 SWAP1 PUSH2 0x3B7C JUMP JUMPDEST SWAP1 POP DUP4 PUSH1 0xFF AND DUP6 DUP4 PUSH2 0x2F64 SWAP2 SWAP1 PUSH2 0x3C6B JUMP JUMPDEST SWAP1 SHR SWAP2 POP PUSH15 0xDEFABF91302CD95B9FFDA50000000 DUP3 PUSH2 0x2F83 SWAP2 SWAP1 PUSH2 0x3C6B JUMP JUMPDEST DUP2 PUSH2 0x2F8E SWAP2 SWAP1 PUSH2 0x3B7C JUMP JUMPDEST SWAP1 POP DUP4 PUSH1 0xFF AND DUP6 DUP4 PUSH2 0x2FA0 SWAP2 SWAP1 PUSH2 0x3C6B JUMP JUMPDEST SWAP1 SHR SWAP2 POP PUSH15 0x2529CA9832B22439EFFF9B8000000 DUP3 PUSH2 0x2FBF SWAP2 SWAP1 PUSH2 0x3C6B JUMP JUMPDEST DUP2 PUSH2 0x2FCA SWAP2 SWAP1 PUSH2 0x3B7C JUMP JUMPDEST SWAP1 POP DUP4 PUSH1 0xFF AND DUP6 DUP4 PUSH2 0x2FDC SWAP2 SWAP1 PUSH2 0x3C6B JUMP JUMPDEST SWAP1 SHR SWAP2 POP PUSH14 0x54F1CF12BD04E516B6DA88000000 DUP3 PUSH2 0x2FFA SWAP2 SWAP1 PUSH2 0x3C6B JUMP JUMPDEST DUP2 PUSH2 0x3005 SWAP2 SWAP1 PUSH2 0x3B7C JUMP JUMPDEST SWAP1 POP DUP4 PUSH1 0xFF AND DUP6 DUP4 PUSH2 0x3017 SWAP2 SWAP1 PUSH2 0x3C6B JUMP JUMPDEST SWAP1 SHR SWAP2 POP PUSH14 0xA9E39E257A09CA2D6DB51000000 DUP3 PUSH2 0x3035 SWAP2 SWAP1 PUSH2 0x3C6B JUMP JUMPDEST DUP2 PUSH2 0x3040 SWAP2 SWAP1 PUSH2 0x3B7C JUMP JUMPDEST SWAP1 POP DUP4 PUSH1 0xFF AND DUP6 DUP4 PUSH2 0x3052 SWAP2 SWAP1 PUSH2 0x3C6B JUMP JUMPDEST SWAP1 SHR SWAP2 POP PUSH14 0x12E066E7B839FA050C309000000 DUP3 PUSH2 0x3070 SWAP2 SWAP1 PUSH2 0x3C6B JUMP JUMPDEST DUP2 PUSH2 0x307B SWAP2 SWAP1 PUSH2 0x3B7C JUMP JUMPDEST SWAP1 POP DUP4 PUSH1 0xFF AND DUP6 DUP4 PUSH2 0x308D SWAP2 SWAP1 PUSH2 0x3C6B JUMP JUMPDEST SWAP1 SHR SWAP2 POP PUSH13 0x1E33D7D926C329A1AD1A800000 DUP3 PUSH2 0x30AA SWAP2 SWAP1 PUSH2 0x3C6B JUMP JUMPDEST DUP2 PUSH2 0x30B5 SWAP2 SWAP1 PUSH2 0x3B7C JUMP JUMPDEST SWAP1 POP DUP4 PUSH1 0xFF AND DUP6 DUP4 PUSH2 0x30C7 SWAP2 SWAP1 PUSH2 0x3C6B JUMP JUMPDEST SWAP1 SHR SWAP2 POP PUSH13 0x2BEE513BDB4A6B19B5F800000 DUP3 PUSH2 0x30E4 SWAP2 SWAP1 PUSH2 0x3C6B JUMP JUMPDEST DUP2 PUSH2 0x30EF SWAP2 SWAP1 PUSH2 0x3B7C JUMP JUMPDEST SWAP1 POP DUP4 PUSH1 0xFF AND DUP6 DUP4 PUSH2 0x3101 SWAP2 SWAP1 PUSH2 0x3C6B JUMP JUMPDEST SWAP1 SHR SWAP2 POP PUSH12 0x3A9316FA79B88ECCF2A00000 DUP3 PUSH2 0x311D SWAP2 SWAP1 PUSH2 0x3C6B JUMP JUMPDEST DUP2 PUSH2 0x3128 SWAP2 SWAP1 PUSH2 0x3B7C JUMP JUMPDEST SWAP1 POP DUP4 PUSH1 0xFF AND DUP6 DUP4 PUSH2 0x313A SWAP2 SWAP1 PUSH2 0x3C6B JUMP JUMPDEST SWAP1 SHR SWAP2 POP PUSH12 0x48177EBE1FA812375200000 DUP3 PUSH2 0x3156 SWAP2 SWAP1 PUSH2 0x3C6B JUMP JUMPDEST DUP2 PUSH2 0x3161 SWAP2 SWAP1 PUSH2 0x3B7C JUMP JUMPDEST SWAP1 POP DUP4 PUSH1 0xFF AND DUP6 DUP4 PUSH2 0x3173 SWAP2 SWAP1 PUSH2 0x3C6B JUMP JUMPDEST SWAP1 SHR SWAP2 POP PUSH11 0x5263FE90242DCBACF00000 DUP3 PUSH2 0x318E SWAP2 SWAP1 PUSH2 0x3C6B JUMP JUMPDEST DUP2 PUSH2 0x3199 SWAP2 SWAP1 PUSH2 0x3B7C JUMP JUMPDEST SWAP1 POP DUP4 PUSH1 0xFF AND DUP6 DUP4 PUSH2 0x31AB SWAP2 SWAP1 PUSH2 0x3C6B JUMP JUMPDEST SWAP1 SHR SWAP2 POP PUSH11 0x57E22099C030D94100000 DUP3 PUSH2 0x31C6 SWAP2 SWAP1 PUSH2 0x3C6B JUMP JUMPDEST DUP2 PUSH2 0x31D1 SWAP2 SWAP1 PUSH2 0x3B7C JUMP JUMPDEST SWAP1 POP DUP4 PUSH1 0xFF AND DUP6 DUP4 PUSH2 0x31E3 SWAP2 SWAP1 PUSH2 0x3C6B JUMP JUMPDEST SWAP1 SHR SWAP2 POP PUSH10 0x57E22099C030D9410000 DUP3 PUSH2 0x31FD SWAP2 SWAP1 PUSH2 0x3C6B JUMP JUMPDEST DUP2 PUSH2 0x3208 SWAP2 SWAP1 PUSH2 0x3B7C JUMP JUMPDEST SWAP1 POP DUP4 PUSH1 0xFF AND DUP6 DUP4 PUSH2 0x321A SWAP2 SWAP1 PUSH2 0x3C6B JUMP JUMPDEST SWAP1 SHR SWAP2 POP PUSH10 0x52B6B54569976310000 DUP3 PUSH2 0x3234 SWAP2 SWAP1 PUSH2 0x3C6B JUMP JUMPDEST DUP2 PUSH2 0x323F SWAP2 SWAP1 PUSH2 0x3B7C JUMP JUMPDEST SWAP1 POP DUP4 PUSH1 0xFF AND DUP6 DUP4 PUSH2 0x3251 SWAP2 SWAP1 PUSH2 0x3C6B JUMP JUMPDEST SWAP1 SHR SWAP2 POP PUSH9 0x4985F67696BF748000 DUP3 PUSH2 0x326A SWAP2 SWAP1 PUSH2 0x3C6B JUMP JUMPDEST DUP2 PUSH2 0x3275 SWAP2 SWAP1 PUSH2 0x3B7C JUMP JUMPDEST SWAP1 POP DUP4 PUSH1 0xFF AND DUP6 DUP4 PUSH2 0x3287 SWAP2 SWAP1 PUSH2 0x3C6B JUMP JUMPDEST SWAP1 SHR SWAP2 POP PUSH9 0x3DEA12EA99E498000 DUP3 PUSH2 0x32A0 SWAP2 SWAP1 PUSH2 0x3C6B JUMP JUMPDEST DUP2 PUSH2 0x32AB SWAP2 SWAP1 PUSH2 0x3B7C JUMP JUMPDEST SWAP1 POP DUP4 PUSH1 0xFF AND DUP6 DUP4 PUSH2 0x32BD SWAP2 SWAP1 PUSH2 0x3C6B JUMP JUMPDEST SWAP1 SHR SWAP2 POP PUSH8 0x31880F2214B6E000 DUP3 PUSH2 0x32D5 SWAP2 SWAP1 PUSH2 0x3C6B JUMP JUMPDEST DUP2 PUSH2 0x32E0 SWAP2 SWAP1 PUSH2 0x3B7C JUMP JUMPDEST SWAP1 POP DUP4 PUSH1 0xFF AND DUP6 DUP4 PUSH2 0x32F2 SWAP2 SWAP1 PUSH2 0x3C6B JUMP JUMPDEST SWAP1 SHR SWAP2 POP PUSH8 0x25BCFF56EB36000 DUP3 PUSH2 0x330A SWAP2 SWAP1 PUSH2 0x3C6B JUMP JUMPDEST DUP2 PUSH2 0x3315 SWAP2 SWAP1 PUSH2 0x3B7C JUMP JUMPDEST SWAP1 POP DUP4 PUSH1 0xFF AND DUP6 DUP4 PUSH2 0x3327 SWAP2 SWAP1 PUSH2 0x3C6B JUMP JUMPDEST SWAP1 SHR SWAP2 POP PUSH7 0x1B722E10AB1000 DUP3 PUSH2 0x333E SWAP2 SWAP1 PUSH2 0x3C6B JUMP JUMPDEST DUP2 PUSH2 0x3349 SWAP2 SWAP1 PUSH2 0x3B7C JUMP JUMPDEST SWAP1 POP DUP4 PUSH1 0xFF AND DUP6 DUP4 PUSH2 0x335B SWAP2 SWAP1 PUSH2 0x3C6B JUMP JUMPDEST SWAP1 SHR SWAP2 POP PUSH7 0x1317C70077000 DUP3 PUSH2 0x3372 SWAP2 SWAP1 PUSH2 0x3C6B JUMP JUMPDEST DUP2 PUSH2 0x337D SWAP2 SWAP1 PUSH2 0x3B7C JUMP JUMPDEST SWAP1 POP DUP4 PUSH1 0xFF AND DUP6 DUP4 PUSH2 0x338F SWAP2 SWAP1 PUSH2 0x3C6B JUMP JUMPDEST SWAP1 SHR SWAP2 POP PUSH6 0xCBA84AAFA00 DUP3 PUSH2 0x33A5 SWAP2 SWAP1 PUSH2 0x3C6B JUMP JUMPDEST DUP2 PUSH2 0x33B0 SWAP2 SWAP1 PUSH2 0x3B7C JUMP JUMPDEST SWAP1 POP DUP4 PUSH1 0xFF AND DUP6 DUP4 PUSH2 0x33C2 SWAP2 SWAP1 PUSH2 0x3C6B JUMP JUMPDEST SWAP1 SHR SWAP2 POP PUSH5 0x82573A0A00 DUP3 PUSH2 0x33D7 SWAP2 SWAP1 PUSH2 0x3C6B JUMP JUMPDEST DUP2 PUSH2 0x33E2 SWAP2 SWAP1 PUSH2 0x3B7C JUMP JUMPDEST SWAP1 POP DUP4 PUSH1 0xFF AND DUP6 DUP4 PUSH2 0x33F4 SWAP2 SWAP1 PUSH2 0x3C6B JUMP JUMPDEST SWAP1 SHR SWAP2 POP PUSH5 0x5035AD900 DUP3 PUSH2 0x3409 SWAP2 SWAP1 PUSH2 0x3C6B JUMP JUMPDEST DUP2 PUSH2 0x3414 SWAP2 SWAP1 PUSH2 0x3B7C JUMP JUMPDEST SWAP1 POP DUP4 PUSH1 0xFF AND DUP6 DUP4 PUSH2 0x3426 SWAP2 SWAP1 PUSH2 0x3C6B JUMP JUMPDEST SWAP1 SHR SWAP2 POP PUSH4 0x2F881B00 DUP3 PUSH2 0x343A SWAP2 SWAP1 PUSH2 0x3C6B JUMP JUMPDEST DUP2 PUSH2 0x3445 SWAP2 SWAP1 PUSH2 0x3B7C JUMP JUMPDEST SWAP1 POP DUP4 PUSH1 0xFF AND DUP6 DUP4 PUSH2 0x3457 SWAP2 SWAP1 PUSH2 0x3C6B JUMP JUMPDEST SWAP1 SHR SWAP2 POP PUSH4 0x1B29340 DUP3 PUSH2 0x346B SWAP2 SWAP1 PUSH2 0x3C6B JUMP JUMPDEST DUP2 PUSH2 0x3476 SWAP2 SWAP1 PUSH2 0x3B7C JUMP JUMPDEST SWAP1 POP DUP4 PUSH1 0xFF AND DUP6 DUP4 PUSH2 0x3488 SWAP2 SWAP1 PUSH2 0x3C6B JUMP JUMPDEST SWAP1 SHR SWAP2 POP PUSH3 0xEFC40 DUP3 PUSH2 0x349B SWAP2 SWAP1 PUSH2 0x3C6B JUMP JUMPDEST DUP2 PUSH2 0x34A6 SWAP2 SWAP1 PUSH2 0x3B7C JUMP JUMPDEST SWAP1 POP DUP4 PUSH1 0xFF AND DUP6 DUP4 PUSH2 0x34B8 SWAP2 SWAP1 PUSH2 0x3C6B JUMP JUMPDEST SWAP1 SHR SWAP2 POP PUSH2 0x7FE0 DUP3 PUSH2 0x34CA SWAP2 SWAP1 PUSH2 0x3C6B JUMP JUMPDEST DUP2 PUSH2 0x34D5 SWAP2 SWAP1 PUSH2 0x3B7C JUMP JUMPDEST SWAP1 POP DUP4 PUSH1 0xFF AND DUP6 DUP4 PUSH2 0x34E7 SWAP2 SWAP1 PUSH2 0x3C6B JUMP JUMPDEST SWAP1 SHR SWAP2 POP PUSH2 0x420 DUP3 PUSH2 0x34F9 SWAP2 SWAP1 PUSH2 0x3C6B JUMP JUMPDEST DUP2 PUSH2 0x3504 SWAP2 SWAP1 PUSH2 0x3B7C JUMP JUMPDEST SWAP1 POP DUP4 PUSH1 0xFF AND DUP6 DUP4 PUSH2 0x3516 SWAP2 SWAP1 PUSH2 0x3C6B JUMP JUMPDEST SWAP1 SHR SWAP2 POP PUSH1 0x21 DUP3 PUSH2 0x3527 SWAP2 SWAP1 PUSH2 0x3C6B JUMP JUMPDEST DUP2 PUSH2 0x3532 SWAP2 SWAP1 PUSH2 0x3B7C JUMP JUMPDEST SWAP1 POP DUP4 PUSH1 0xFF AND DUP6 DUP4 PUSH2 0x3544 SWAP2 SWAP1 PUSH2 0x3C6B JUMP JUMPDEST SWAP1 SHR SWAP2 POP PUSH1 0x1 DUP3 PUSH2 0x3555 SWAP2 SWAP1 PUSH2 0x3C6B JUMP JUMPDEST DUP2 PUSH2 0x3560 SWAP2 SWAP1 PUSH2 0x3B7C JUMP JUMPDEST SWAP1 POP DUP4 PUSH1 0xFF AND PUSH1 0x1 SWAP1 SHL DUP6 PUSH16 0x688589CC0E9505E2F2FEE5580000000 DUP4 PUSH2 0x3587 SWAP2 SWAP1 PUSH2 0x3C09 JUMP JUMPDEST PUSH2 0x3591 SWAP2 SWAP1 PUSH2 0x3B7C JUMP JUMPDEST PUSH2 0x359B SWAP2 SWAP1 PUSH2 0x3B7C JUMP JUMPDEST SWAP3 POP POP POP SWAP3 SWAP2 POP POP JUMP JUMPDEST PUSH1 0x0 DUP1 PUSH1 0x0 SWAP1 POP PUSH1 0x0 DUP4 SWAP1 POP PUSH2 0x100 DUP2 LT ISZERO PUSH2 0x35E5 JUMPI JUMPDEST PUSH1 0x1 DUP2 GT ISZERO PUSH2 0x35E0 JUMPI PUSH1 0x1 DUP2 SWAP1 SHR SWAP1 POP PUSH1 0x1 DUP3 PUSH2 0x35D9 SWAP2 SWAP1 PUSH2 0x3BD2 JUMP JUMPDEST SWAP2 POP PUSH2 0x35BC JUMP JUMPDEST PUSH2 0x3626 JUMP JUMPDEST PUSH1 0x0 PUSH1 0x80 SWAP1 POP JUMPDEST PUSH1 0x0 DUP2 PUSH1 0xFF AND GT ISZERO PUSH2 0x3624 JUMPI DUP1 PUSH1 0xFF AND PUSH1 0x1 SWAP1 SHL DUP3 LT PUSH2 0x3615 JUMPI DUP1 PUSH1 0xFF AND DUP3 SWAP1 SHR SWAP2 POP DUP1 DUP4 OR SWAP3 POP JUMPDEST PUSH1 0x1 DUP2 PUSH1 0xFF AND SWAP1 SHR SWAP1 POP PUSH2 0x35EC JUMP JUMPDEST POP JUMPDEST DUP2 SWAP3 POP POP POP SWAP2 SWAP1 POP JUMP JUMPDEST PUSH1 0x0 DUP2 CALLDATALOAD SWAP1 POP PUSH2 0x363F DUP2 PUSH2 0x3FB7 JUMP JUMPDEST SWAP3 SWAP2 POP POP JUMP JUMPDEST PUSH1 0x0 DUP2 MLOAD SWAP1 POP PUSH2 0x3654 DUP2 PUSH2 0x3FCE JUMP JUMPDEST SWAP3 SWAP2 POP POP JUMP JUMPDEST PUSH1 0x0 DUP2 CALLDATALOAD SWAP1 POP PUSH2 0x3669 DUP2 PUSH2 0x3FE5 JUMP JUMPDEST SWAP3 SWAP2 POP POP JUMP JUMPDEST PUSH1 0x0 DUP2 MLOAD SWAP1 POP PUSH2 0x367E DUP2 PUSH2 0x3FE5 JUMP JUMPDEST SWAP3 SWAP2 POP POP JUMP JUMPDEST PUSH1 0x0 DUP2 CALLDATALOAD SWAP1 POP PUSH2 0x3693 DUP2 PUSH2 0x3FFC JUMP JUMPDEST SWAP3 SWAP2 POP POP JUMP JUMPDEST PUSH1 0x0 PUSH1 0x20 DUP3 DUP5 SUB SLT ISZERO PUSH2 0x36AB JUMPI PUSH1 0x0 DUP1 REVERT JUMPDEST PUSH1 0x0 PUSH2 0x36B9 DUP5 DUP3 DUP6 ADD PUSH2 0x3630 JUMP JUMPDEST SWAP2 POP POP SWAP3 SWAP2 POP POP JUMP JUMPDEST PUSH1 0x0 DUP1 PUSH1 0x0 PUSH1 0x60 DUP5 DUP7 SUB SLT ISZERO PUSH2 0x36D7 JUMPI PUSH1 0x0 DUP1 REVERT JUMPDEST PUSH1 0x0 PUSH2 0x36E5 DUP7 DUP3 DUP8 ADD PUSH2 0x3630 JUMP JUMPDEST SWAP4 POP POP PUSH1 0x20 PUSH2 0x36F6 DUP7 DUP3 DUP8 ADD PUSH2 0x365A JUMP JUMPDEST SWAP3 POP POP PUSH1 0x40 PUSH2 0x3707 DUP7 DUP3 DUP8 ADD PUSH2 0x365A JUMP JUMPDEST SWAP2 POP POP SWAP3 POP SWAP3 POP SWAP3 JUMP JUMPDEST PUSH1 0x0 PUSH1 0x20 DUP3 DUP5 SUB SLT ISZERO PUSH2 0x3723 JUMPI PUSH1 0x0 DUP1 REVERT JUMPDEST PUSH1 0x0 PUSH2 0x3731 DUP5 DUP3 DUP6 ADD PUSH2 0x3645 JUMP JUMPDEST SWAP2 POP POP SWAP3 SWAP2 POP POP JUMP JUMPDEST PUSH1 0x0 PUSH1 0x20 DUP3 DUP5 SUB SLT ISZERO PUSH2 0x374C JUMPI PUSH1 0x0 DUP1 REVERT JUMPDEST PUSH1 0x0 PUSH2 0x375A DUP5 DUP3 DUP6 ADD PUSH2 0x365A JUMP JUMPDEST SWAP2 POP POP SWAP3 SWAP2 POP POP JUMP JUMPDEST PUSH1 0x0 PUSH1 0x20 DUP3 DUP5 SUB SLT ISZERO PUSH2 0x3775 JUMPI PUSH1 0x0 DUP1 REVERT JUMPDEST PUSH1 0x0 PUSH2 0x3783 DUP5 DUP3 DUP6 ADD PUSH2 0x366F JUMP JUMPDEST SWAP2 POP POP SWAP3 SWAP2 POP POP JUMP JUMPDEST PUSH1 0x0 DUP1 PUSH1 0x40 DUP4 DUP6 SUB SLT ISZERO PUSH2 0x379F JUMPI PUSH1 0x0 DUP1 REVERT JUMPDEST PUSH1 0x0 PUSH2 0x37AD DUP6 DUP3 DUP7 ADD PUSH2 0x365A JUMP JUMPDEST SWAP3 POP POP PUSH1 0x20 PUSH2 0x37BE DUP6 DUP3 DUP7 ADD PUSH2 0x365A JUMP JUMPDEST SWAP2 POP POP SWAP3 POP SWAP3 SWAP1 POP JUMP JUMPDEST PUSH1 0x0 DUP1 PUSH1 0x0 DUP1 PUSH1 0x80 DUP6 DUP8 SUB SLT ISZERO PUSH2 0x37DE JUMPI PUSH1 0x0 DUP1 REVERT JUMPDEST PUSH1 0x0 PUSH2 0x37EC DUP8 DUP3 DUP9 ADD PUSH2 0x365A JUMP JUMPDEST SWAP5 POP POP PUSH1 0x20 PUSH2 0x37FD DUP8 DUP3 DUP9 ADD PUSH2 0x365A JUMP JUMPDEST SWAP4 POP POP PUSH1 0x40 PUSH2 0x380E DUP8 DUP3 DUP9 ADD PUSH2 0x3684 JUMP JUMPDEST SWAP3 POP POP PUSH1 0x60 PUSH2 0x381F DUP8 DUP3 DUP9 ADD PUSH2 0x365A JUMP JUMPDEST SWAP2 POP POP SWAP3 SWAP6 SWAP2 SWAP5 POP SWAP3 POP JUMP JUMPDEST PUSH2 0x3834 DUP2 PUSH2 0x3D2D JUMP JUMPDEST DUP3 MSTORE POP POP JUMP JUMPDEST PUSH2 0x3843 DUP2 PUSH2 0x3D92 JUMP JUMPDEST DUP3 MSTORE POP POP JUMP JUMPDEST PUSH2 0x3852 DUP2 PUSH2 0x3DB6 JUMP JUMPDEST DUP3 MSTORE POP POP JUMP JUMPDEST PUSH2 0x3861 DUP2 PUSH2 0x3DDA JUMP JUMPDEST DUP3 MSTORE POP POP JUMP JUMPDEST PUSH2 0x3870 DUP2 PUSH2 0x3DFE JUMP JUMPDEST DUP3 MSTORE POP POP JUMP JUMPDEST PUSH1 0x0 PUSH2 0x3881 DUP3 PUSH2 0x3B60 JUMP JUMPDEST PUSH2 0x388B DUP2 DUP6 PUSH2 0x3B6B JUMP JUMPDEST SWAP4 POP PUSH2 0x389B DUP2 DUP6 PUSH1 0x20 DUP7 ADD PUSH2 0x3E10 JUMP JUMPDEST PUSH2 0x38A4 DUP2 PUSH2 0x3FA6 JUMP JUMPDEST DUP5 ADD SWAP2 POP POP SWAP3 SWAP2 POP POP JUMP JUMPDEST PUSH1 0x0 PUSH2 0x38BC PUSH1 0x26 DUP4 PUSH2 0x3B6B JUMP JUMPDEST SWAP2 POP PUSH32 0x4F776E61626C653A206E6577206F776E657220697320746865207A65726F2061 PUSH1 0x0 DUP4 ADD MSTORE PUSH32 0x6464726573730000000000000000000000000000000000000000000000000000 PUSH1 0x20 DUP4 ADD MSTORE PUSH1 0x40 DUP3 ADD SWAP1 POP SWAP2 SWAP1 POP JUMP JUMPDEST PUSH1 0x0 PUSH2 0x3922 PUSH1 0x20 DUP4 PUSH2 0x3B6B JUMP JUMPDEST SWAP2 POP PUSH32 0x4F776E61626C653A2063616C6C6572206973206E6F7420746865206F776E6572 PUSH1 0x0 DUP4 ADD MSTORE PUSH1 0x20 DUP3 ADD SWAP1 POP SWAP2 SWAP1 POP JUMP JUMPDEST PUSH1 0x0 PUSH2 0x3962 PUSH1 0x1C DUP4 PUSH2 0x3B6B JUMP JUMPDEST SWAP2 POP PUSH32 0x4261736573203C203120617265206E6F7420737570706F727465642E00000000 PUSH1 0x0 DUP4 ADD MSTORE PUSH1 0x20 DUP3 ADD SWAP1 POP SWAP2 SWAP1 POP JUMP JUMPDEST PUSH2 0x399E DUP2 PUSH2 0x3D6B JUMP JUMPDEST DUP3 MSTORE POP POP JUMP JUMPDEST PUSH2 0x39AD DUP2 PUSH2 0x3D75 JUMP JUMPDEST DUP3 MSTORE POP POP JUMP JUMPDEST PUSH1 0x0 PUSH1 0x20 DUP3 ADD SWAP1 POP PUSH2 0x39C8 PUSH1 0x0 DUP4 ADD DUP5 PUSH2 0x382B JUMP JUMPDEST SWAP3 SWAP2 POP POP JUMP JUMPDEST PUSH1 0x0 PUSH1 0x60 DUP3 ADD SWAP1 POP PUSH2 0x39E3 PUSH1 0x0 DUP4 ADD DUP7 PUSH2 0x382B JUMP JUMPDEST PUSH2 0x39F0 PUSH1 0x20 DUP4 ADD DUP6 PUSH2 0x382B JUMP JUMPDEST PUSH2 0x39FD PUSH1 0x40 DUP4 ADD DUP5 PUSH2 0x3995 JUMP JUMPDEST SWAP5 SWAP4 POP POP POP POP JUMP JUMPDEST PUSH1 0x0 PUSH1 0x40 DUP3 ADD SWAP1 POP PUSH2 0x3A1A PUSH1 0x0 DUP4 ADD DUP6 PUSH2 0x382B JUMP JUMPDEST PUSH2 0x3A27 PUSH1 0x20 DUP4 ADD DUP5 PUSH2 0x3867 JUMP JUMPDEST SWAP4 SWAP3 POP POP POP JUMP JUMPDEST PUSH1 0x0 PUSH1 0x40 DUP3 ADD SWAP1 POP PUSH2 0x3A43 PUSH1 0x0 DUP4 ADD DUP6 PUSH2 0x382B JUMP JUMPDEST PUSH2 0x3A50 PUSH1 0x20 DUP4 ADD DUP5 PUSH2 0x3995 JUMP JUMPDEST SWAP4 SWAP3 POP POP POP JUMP JUMPDEST PUSH1 0x0 PUSH1 0x20 DUP3 ADD SWAP1 POP PUSH2 0x3A6C PUSH1 0x0 DUP4 ADD DUP5 PUSH2 0x383A JUMP JUMPDEST SWAP3 SWAP2 POP POP JUMP JUMPDEST PUSH1 0x0 PUSH1 0x20 DUP3 ADD SWAP1 POP PUSH2 0x3A87 PUSH1 0x0 DUP4 ADD DUP5 PUSH2 0x3849 JUMP JUMPDEST SWAP3 SWAP2 POP POP JUMP JUMPDEST PUSH1 0x0 PUSH1 0x20 DUP3 ADD SWAP1 POP PUSH2 0x3AA2 PUSH1 0x0 DUP4 ADD DUP5 PUSH2 0x3858 JUMP JUMPDEST SWAP3 SWAP2 POP POP JUMP JUMPDEST PUSH1 0x0 PUSH1 0x20 DUP3 ADD SWAP1 POP DUP2 DUP2 SUB PUSH1 0x0 DUP4 ADD MSTORE PUSH2 0x3AC2 DUP2 DUP5 PUSH2 0x3876 JUMP JUMPDEST SWAP1 POP SWAP3 SWAP2 POP POP JUMP JUMPDEST PUSH1 0x0 PUSH1 0x20 DUP3 ADD SWAP1 POP DUP2 DUP2 SUB PUSH1 0x0 DUP4 ADD MSTORE PUSH2 0x3AE3 DUP2 PUSH2 0x38AF JUMP JUMPDEST SWAP1 POP SWAP2 SWAP1 POP JUMP JUMPDEST PUSH1 0x0 PUSH1 0x20 DUP3 ADD SWAP1 POP DUP2 DUP2 SUB PUSH1 0x0 DUP4 ADD MSTORE PUSH2 0x3B03 DUP2 PUSH2 0x3915 JUMP JUMPDEST SWAP1 POP SWAP2 SWAP1 POP JUMP JUMPDEST PUSH1 0x0 PUSH1 0x20 DUP3 ADD SWAP1 POP DUP2 DUP2 SUB PUSH1 0x0 DUP4 ADD MSTORE PUSH2 0x3B23 DUP2 PUSH2 0x3955 JUMP JUMPDEST SWAP1 POP SWAP2 SWAP1 POP JUMP JUMPDEST PUSH1 0x0 PUSH1 0x20 DUP3 ADD SWAP1 POP PUSH2 0x3B3F PUSH1 0x0 DUP4 ADD DUP5 PUSH2 0x3995 JUMP JUMPDEST SWAP3 SWAP2 POP POP JUMP JUMPDEST PUSH1 0x0 PUSH1 0x20 DUP3 ADD SWAP1 POP PUSH2 0x3B5A PUSH1 0x0 DUP4 ADD DUP5 PUSH2 0x39A4 JUMP JUMPDEST SWAP3 SWAP2 POP POP JUMP JUMPDEST PUSH1 0x0 DUP2 MLOAD SWAP1 POP SWAP2 SWAP1 POP JUMP JUMPDEST PUSH1 0x0 DUP3 DUP3 MSTORE PUSH1 0x20 DUP3 ADD SWAP1 POP SWAP3 SWAP2 POP POP JUMP JUMPDEST PUSH1 0x0 PUSH2 0x3B87 DUP3 PUSH2 0x3D6B JUMP JUMPDEST SWAP2 POP PUSH2 0x3B92 DUP4 PUSH2 0x3D6B JUMP JUMPDEST SWAP3 POP DUP3 PUSH32 0xFFFFFFFFFFFFFFFFFFFFFFFFFFFFFFFFFFFFFFFFFFFFFFFFFFFFFFFFFFFFFFFF SUB DUP3 GT ISZERO PUSH2 0x3BC7 JUMPI PUSH2 0x3BC6 PUSH2 0x3F19 JUMP JUMPDEST JUMPDEST DUP3 DUP3 ADD SWAP1 POP SWAP3 SWAP2 POP POP JUMP JUMPDEST PUSH1 0x0 PUSH2 0x3BDD DUP3 PUSH2 0x3D85 JUMP JUMPDEST SWAP2 POP PUSH2 0x3BE8 DUP4 PUSH2 0x3D85 JUMP JUMPDEST SWAP3 POP DUP3 PUSH1 0xFF SUB DUP3 GT ISZERO PUSH2 0x3BFE JUMPI PUSH2 0x3BFD PUSH2 0x3F19 JUMP JUMPDEST JUMPDEST DUP3 DUP3 ADD SWAP1 POP SWAP3 SWAP2 POP POP JUMP JUMPDEST PUSH1 0x0 PUSH2 0x3C14 DUP3 PUSH2 0x3D6B JUMP JUMPDEST SWAP2 POP PUSH2 0x3C1F DUP4 PUSH2 0x3D6B JUMP JUMPDEST SWAP3 POP DUP3 PUSH2 0x3C2F JUMPI PUSH2 0x3C2E PUSH2 0x3F48 JUMP JUMPDEST JUMPDEST DUP3 DUP3 DIV SWAP1 POP SWAP3 SWAP2 POP POP JUMP JUMPDEST PUSH1 0x0 PUSH2 0x3C45 DUP3 PUSH2 0x3D85 JUMP JUMPDEST SWAP2 POP PUSH2 0x3C50 DUP4 PUSH2 0x3D85 JUMP JUMPDEST SWAP3 POP DUP3 PUSH2 0x3C60 JUMPI PUSH2 0x3C5F PUSH2 0x3F48 JUMP JUMPDEST JUMPDEST DUP3 DUP3 DIV SWAP1 POP SWAP3 SWAP2 POP POP JUMP JUMPDEST PUSH1 0x0 PUSH2 0x3C76 DUP3 PUSH2 0x3D6B JUMP JUMPDEST SWAP2 POP PUSH2 0x3C81 DUP4 PUSH2 0x3D6B JUMP JUMPDEST SWAP3 POP DUP2 PUSH32 0xFFFFFFFFFFFFFFFFFFFFFFFFFFFFFFFFFFFFFFFFFFFFFFFFFFFFFFFFFFFFFFFF DIV DUP4 GT DUP3 ISZERO ISZERO AND ISZERO PUSH2 0x3CBA JUMPI PUSH2 0x3CB9 PUSH2 0x3F19 JUMP JUMPDEST JUMPDEST DUP3 DUP3 MUL SWAP1 POP SWAP3 SWAP2 POP POP JUMP JUMPDEST PUSH1 0x0 PUSH2 0x3CD0 DUP3 PUSH2 0x3D6B JUMP JUMPDEST SWAP2 POP PUSH2 0x3CDB DUP4 PUSH2 0x3D6B JUMP JUMPDEST SWAP3 POP DUP3 DUP3 LT ISZERO PUSH2 0x3CEE JUMPI PUSH2 0x3CED PUSH2 0x3F19 JUMP JUMPDEST JUMPDEST DUP3 DUP3 SUB SWAP1 POP SWAP3 SWAP2 POP POP JUMP JUMPDEST PUSH1 0x0 PUSH2 0x3D04 DUP3 PUSH2 0x3D85 JUMP JUMPDEST SWAP2 POP PUSH2 0x3D0F DUP4 PUSH2 0x3D85 JUMP JUMPDEST SWAP3 POP DUP3 DUP3 LT ISZERO PUSH2 0x3D22 JUMPI PUSH2 0x3D21 PUSH2 0x3F19 JUMP JUMPDEST JUMPDEST DUP3 DUP3 SUB SWAP1 POP SWAP3 SWAP2 POP POP JUMP JUMPDEST PUSH1 0x0 PUSH2 0x3D38 DUP3 PUSH2 0x3D4B JUMP JUMPDEST SWAP1 POP SWAP2 SWAP1 POP JUMP JUMPDEST PUSH1 0x0 DUP2 ISZERO ISZERO SWAP1 POP SWAP2 SWAP1 POP JUMP JUMPDEST PUSH1 0x0 PUSH20 0xFFFFFFFFFFFFFFFFFFFFFFFFFFFFFFFFFFFFFFFF DUP3 AND SWAP1 POP SWAP2 SWAP1 POP JUMP JUMPDEST PUSH1 0x0 DUP2 SWAP1 POP SWAP2 SWAP1 POP JUMP JUMPDEST PUSH1 0x0 PUSH4 0xFFFFFFFF DUP3 AND SWAP1 POP SWAP2 SWAP1 POP JUMP JUMPDEST PUSH1 0x0 PUSH1 0xFF DUP3 AND SWAP1 POP SWAP2 SWAP1 POP JUMP JUMPDEST PUSH1 0x0 PUSH2 0x3D9D DUP3 PUSH2 0x3DA4 JUMP JUMPDEST SWAP1 POP SWAP2 SWAP1 POP JUMP JUMPDEST PUSH1 0x0 PUSH2 0x3DAF DUP3 PUSH2 0x3D4B JUMP JUMPDEST SWAP1 POP SWAP2 SWAP1 POP JUMP JUMPDEST PUSH1 0x0 PUSH2 0x3DC1 DUP3 PUSH2 0x3DC8 JUMP JUMPDEST SWAP1 POP SWAP2 SWAP1 POP JUMP JUMPDEST PUSH1 0x0 PUSH2 0x3DD3 DUP3 PUSH2 0x3D4B JUMP JUMPDEST SWAP1 POP SWAP2 SWAP1 POP JUMP JUMPDEST PUSH1 0x0 PUSH2 0x3DE5 DUP3 PUSH2 0x3DEC JUMP JUMPDEST SWAP1 POP SWAP2 SWAP1 POP JUMP JUMPDEST PUSH1 0x0 PUSH2 0x3DF7 DUP3 PUSH2 0x3D4B JUMP JUMPDEST SWAP1 POP SWAP2 SWAP1 POP JUMP JUMPDEST PUSH1 0x0 PUSH2 0x3E09 DUP3 PUSH2 0x3D6B JUMP JUMPDEST SWAP1 POP SWAP2 SWAP1 POP JUMP JUMPDEST PUSH1 0x0 JUMPDEST DUP4 DUP2 LT ISZERO PUSH2 0x3E2E JUMPI DUP1 DUP3 ADD MLOAD DUP2 DUP5 ADD MSTORE PUSH1 0x20 DUP2 ADD SWAP1 POP PUSH2 0x3E13 JUMP JUMPDEST DUP4 DUP2 GT ISZERO PUSH2 0x3E3D JUMPI PUSH1 0x0 DUP5 DUP5 ADD MSTORE JUMPDEST POP POP POP POP JUMP JUMPDEST PUSH1 0x0 PUSH2 0x3E4E DUP3 PUSH2 0x3D85 JUMP JUMPDEST SWAP2 POP PUSH1 0x0 DUP3 EQ ISZERO PUSH2 0x3E62 JUMPI PUSH2 0x3E61 PUSH2 0x3F19 JUMP JUMPDEST JUMPDEST PUSH1 0x1 DUP3 SUB SWAP1 POP SWAP2 SWAP1 POP JUMP JUMPDEST PUSH1 0x0 PUSH1 0x2 DUP3 DIV SWAP1 POP PUSH1 0x1 DUP3 AND DUP1 PUSH2 0x3E85 JUMPI PUSH1 0x7F DUP3 AND SWAP2 POP JUMPDEST PUSH1 0x20 DUP3 LT DUP2 EQ ISZERO PUSH2 0x3E99 JUMPI PUSH2 0x3E98 PUSH2 0x3F77 JUMP JUMPDEST JUMPDEST POP SWAP2 SWAP1 POP JUMP JUMPDEST PUSH1 0x0 PUSH2 0x3EAA DUP3 PUSH2 0x3D6B JUMP JUMPDEST SWAP2 POP PUSH32 0xFFFFFFFFFFFFFFFFFFFFFFFFFFFFFFFFFFFFFFFFFFFFFFFFFFFFFFFFFFFFFFFF DUP3 EQ ISZERO PUSH2 0x3EDD JUMPI PUSH2 0x3EDC PUSH2 0x3F19 JUMP JUMPDEST JUMPDEST PUSH1 0x1 DUP3 ADD SWAP1 POP SWAP2 SWAP1 POP JUMP JUMPDEST PUSH1 0x0 PUSH2 0x3EF3 DUP3 PUSH2 0x3D6B JUMP JUMPDEST SWAP2 POP PUSH2 0x3EFE DUP4 PUSH2 0x3D6B JUMP JUMPDEST SWAP3 POP DUP3 PUSH2 0x3F0E JUMPI PUSH2 0x3F0D PUSH2 0x3F48 JUMP JUMPDEST JUMPDEST DUP3 DUP3 MOD SWAP1 POP SWAP3 SWAP2 POP POP JUMP JUMPDEST PUSH32 0x4E487B7100000000000000000000000000000000000000000000000000000000 PUSH1 0x0 MSTORE PUSH1 0x11 PUSH1 0x4 MSTORE PUSH1 0x24 PUSH1 0x0 REVERT JUMPDEST PUSH32 0x4E487B7100000000000000000000000000000000000000000000000000000000 PUSH1 0x0 MSTORE PUSH1 0x12 PUSH1 0x4 MSTORE PUSH1 0x24 PUSH1 0x0 REVERT JUMPDEST PUSH32 0x4E487B7100000000000000000000000000000000000000000000000000000000 PUSH1 0x0 MSTORE PUSH1 0x22 PUSH1 0x4 MSTORE PUSH1 0x24 PUSH1 0x0 REVERT JUMPDEST PUSH1 0x0 PUSH1 0x1F NOT PUSH1 0x1F DUP4 ADD AND SWAP1 POP SWAP2 SWAP1 POP JUMP JUMPDEST PUSH2 0x3FC0 DUP2 PUSH2 0x3D2D JUMP JUMPDEST DUP2 EQ PUSH2 0x3FCB JUMPI PUSH1 0x0 DUP1 REVERT JUMPDEST POP JUMP JUMPDEST PUSH2 0x3FD7 DUP2 PUSH2 0x3D3F JUMP JUMPDEST DUP2 EQ PUSH2 0x3FE2 JUMPI PUSH1 0x0 DUP1 REVERT JUMPDEST POP JUMP JUMPDEST PUSH2 0x3FEE DUP2 PUSH2 0x3D6B JUMP JUMPDEST DUP2 EQ PUSH2 0x3FF9 JUMPI PUSH1 0x0 DUP1 REVERT JUMPDEST POP JUMP JUMPDEST PUSH2 0x4005 DUP2 PUSH2 0x3D75 JUMP JUMPDEST DUP2 EQ PUSH2 0x4010 JUMPI PUSH1 0x0 DUP1 REVERT JUMPDEST POP JUMP INVALID LOG2 PUSH5 0x6970667358 0x22 SLT KECCAK256 PUSH3 0x8646DD STOP ISZERO SWAP11 0x4D OR GASLIMIT REVERT 0x27 PUSH28 0xA17B2A6ED1241ADBD247489C84569891B0CEAB64736F6C6343000800 STOP CALLER "
        },
        "methodIdentifiers": {
          "DC()": "780249cd",
          "DD()": "eccc32f2",
          "DS()": "4242bac0",
          "MAX_WEIGHT()": "e4a28a52",
          "addNewCollateralType(address)": "ca3e24c9",
          "calculatePoolBal()": "24d69228",
          "calculatePurchase(uint256)": "e1f1e902",
          "calculatePurchaseReturn(uint256,uint256,uint32,uint256)": "29a00e7c",
          "calculateSale(uint256)": "f04b1188",
          "calculateSaleReturn(uint256,uint256,uint32,uint256)": "49f9b0f7",
          "collateralCount()": "b6faaf8a",
          "collateralTypes(uint256)": "918b7cfe",
          "connectorWeight()": "b586c9a2",
          "divisor()": "1f2dc5ef",
          "fractionalReserveValue()": "63795d57",
          "fundWithdrawl(address,uint256,uint256)": "717ad438",
          "lockedBalance()": "7b80889b",
          "owner()": "8da5cb5b",
          "percent()": "70ba1113",
          "purchaseStock(uint256,uint256)": "d53ffbcf",
          "refundRatio()": "5cf590d9",
          "renounceOwnership()": "715018a6",
          "sellStock(uint256)": "9104c81e",
          "setUp()": "0a9254e4",
          "transferOwnership(address)": "f2fde38b",
          "version()": "54fd4d50"
        }
      }
    }
  }
}