{
  "_format": "hh-sol-artifact-1",
  "contractName": "DScore",
  "sourceName": "contracts/DScore.sol",
  "abi": [
    {
      "anonymous": false,
      "inputs": [
        {
          "indexed": false,
          "internalType": "address",
          "name": "member",
          "type": "address"
        },
        {
          "indexed": false,
          "internalType": "uint256",
          "name": "factor",
          "type": "uint256"
        },
        {
          "indexed": false,
          "internalType": "uint256",
          "name": "amountDecreased",
          "type": "uint256"
        }
      ],
      "name": "DScoreDecreased",
      "type": "event"
    },
    {
      "anonymous": false,
      "inputs": [
        {
          "indexed": false,
          "internalType": "address",
          "name": "member",
          "type": "address"
        },
        {
          "indexed": false,
          "internalType": "uint256",
          "name": "factor",
          "type": "uint256"
        },
        {
          "indexed": false,
          "internalType": "uint256",
          "name": "amountIncreased",
          "type": "uint256"
        }
      ],
      "name": "DScoreIncreased",
      "type": "event"
    },
    {
      "anonymous": false,
      "inputs": [
        {
          "indexed": false,
          "internalType": "address",
          "name": "member",
          "type": "address"
        },
        {
          "indexed": false,
          "internalType": "uint256",
          "name": "timeFrozen",
          "type": "uint256"
        }
      ],
      "name": "Memberfrozen",
      "type": "event"
    },
    {
      "anonymous": false,
      "inputs": [
        {
          "indexed": false,
          "internalType": "address",
          "name": "member",
          "type": "address"
        },
        {
          "indexed": false,
          "internalType": "uint256",
          "name": "amountStaked",
          "type": "uint256"
        }
      ],
      "name": "MembershipStaked",
      "type": "event"
    },
    {
      "anonymous": false,
      "inputs": [
        {
          "indexed": true,
          "internalType": "address",
          "name": "previousOwner",
          "type": "address"
        },
        {
          "indexed": true,
          "internalType": "address",
          "name": "newOwner",
          "type": "address"
        }
      ],
      "name": "OwnershipTransferred",
      "type": "event"
    },
    {
      "inputs": [
        {
          "internalType": "address",
          "name": "_member",
          "type": "address"
        }
      ],
      "name": "calculateVotingPower",
      "outputs": [
        {
          "internalType": "uint256",
          "name": "",
          "type": "uint256"
        }
      ],
      "stateMutability": "view",
      "type": "function"
    },
    {
      "inputs": [
        {
          "internalType": "address",
          "name": "_member",
          "type": "address"
        }
      ],
      "name": "checkStaked",
      "outputs": [
        {
          "internalType": "bool",
          "name": "",
          "type": "bool"
        }
      ],
      "stateMutability": "view",
      "type": "function"
    },
    {
      "inputs": [],
      "name": "dc",
      "outputs": [
        {
          "internalType": "contract IDecentraCore",
          "name": "",
          "type": "address"
        }
      ],
      "stateMutability": "view",
      "type": "function"
    },
    {
      "inputs": [
        {
          "internalType": "address",
          "name": "_member",
          "type": "address"
        },
        {
          "internalType": "uint256",
          "name": "_factor",
          "type": "uint256"
        },
        {
          "internalType": "uint256",
          "name": "_amount",
          "type": "uint256"
        }
      ],
      "name": "decreaseDScore",
      "outputs": [],
      "stateMutability": "nonpayable",
      "type": "function"
    },
    {
      "inputs": [],
      "name": "ds",
      "outputs": [
        {
          "internalType": "contract IDecentraStock",
          "name": "",
          "type": "address"
        }
      ],
      "stateMutability": "view",
      "type": "function"
    },
    {
      "inputs": [
        {
          "internalType": "address",
          "name": "_member",
          "type": "address"
        },
        {
          "internalType": "uint256",
          "name": "_factor",
          "type": "uint256"
        },
        {
          "internalType": "uint256",
          "name": "_amount",
          "type": "uint256"
        }
      ],
      "name": "increaseDScore",
      "outputs": [],
      "stateMutability": "nonpayable",
      "type": "function"
    },
    {
      "inputs": [
        {
          "internalType": "address",
          "name": "",
          "type": "address"
        }
      ],
      "name": "members",
      "outputs": [
        {
          "internalType": "uint256",
          "name": "level",
          "type": "uint256"
        },
        {
          "internalType": "uint256",
          "name": "jobs",
          "type": "uint256"
        },
        {
          "internalType": "uint256",
          "name": "votes",
          "type": "uint256"
        },
        {
          "internalType": "uint256",
          "name": "reputation",
          "type": "uint256"
        },
        {
          "internalType": "uint256",
          "name": "staked",
          "type": "uint256"
        },
        {
          "internalType": "uint256",
          "name": "verified",
          "type": "uint256"
        },
        {
          "internalType": "uint256",
          "name": "audit",
          "type": "uint256"
        }
      ],
      "stateMutability": "view",
      "type": "function"
    },
    {
      "inputs": [],
      "name": "owner",
      "outputs": [
        {
          "internalType": "address",
          "name": "",
          "type": "address"
        }
      ],
      "stateMutability": "view",
      "type": "function"
    },
    {
      "inputs": [],
      "name": "renounceOwnership",
      "outputs": [],
      "stateMutability": "nonpayable",
      "type": "function"
    },
    {
      "inputs": [
        {
          "internalType": "uint256",
          "name": "_stakeAmount",
          "type": "uint256"
        }
      ],
      "name": "stakeMembership",
      "outputs": [],
      "stateMutability": "nonpayable",
      "type": "function"
    },
    {
      "inputs": [],
      "name": "stakedCounter",
      "outputs": [
        {
          "internalType": "uint256",
          "name": "",
          "type": "uint256"
        }
      ],
      "stateMutability": "view",
      "type": "function"
    },
    {
      "inputs": [
        {
          "internalType": "address",
          "name": "newOwner",
          "type": "address"
        }
      ],
      "name": "transferOwnership",
      "outputs": [],
      "stateMutability": "nonpayable",
      "type": "function"
    }
  ],
  "bytecode": "0x608060405234801561001057600080fd5b5060006100216100c460201b60201c565b9050806000806101000a81548173ffffffffffffffffffffffffffffffffffffffff021916908373ffffffffffffffffffffffffffffffffffffffff1602179055508073ffffffffffffffffffffffffffffffffffffffff16600073ffffffffffffffffffffffffffffffffffffffff167f8be0079c531659141344cd1fd0a4f28419497f9722a3daafe3b4186f6b6457e060405160405180910390a3506100cc565b600033905090565b6114e9806100db6000396000f3fe608060405234801561001057600080fd5b50600436106100b45760003560e01c80638da5cb5b116100715780638da5cb5b14610195578063a2314bea146101b3578063c0ecce95146101cf578063d40ef772146101eb578063d8a531a614610207578063f2fde38b14610225576100b4565b806308ae4b0c146100b957806315b1df4b146100ef578063247f8e141461010d57806330dce62b1461013d57806359d177e61461015b578063715018a61461018b575b600080fd5b6100d360048036038101906100ce9190610e83565b610241565b6040516100e6979695949392919061124b565b60405180910390f35b6100f7610283565b6040516101049190611230565b60405180910390f35b61012760048036038101906101229190610e83565b610289565b604051610134919061115f565b60405180910390f35b6101456102ef565b6040516101529190611195565b60405180910390f35b61017560048036038101906101709190610e83565b610315565b6040516101829190611230565b60405180910390f35b6101936103f6565b005b61019d610530565b6040516101aa91906110e4565b60405180910390f35b6101cd60048036038101906101c89190610f24565b610559565b005b6101e960048036038101906101e49190610eac565b610687565b005b61020560048036038101906102009190610eac565b610959565b005b61020f610c2b565b60405161021c919061117a565b60405180910390f35b61023f600480360381019061023a9190610e83565b610c51565b005b60046020528060005260406000206000915090508060000154908060010154908060020154908060030154908060040154908060050154908060060154905087565b60015481565b600080600460008473ffffffffffffffffffffffffffffffffffffffff1673ffffffffffffffffffffffffffffffffffffffff16815260200190815260200160002090506000816004015411156102e45760019150506102ea565b60009150505b919050565b600260009054906101000a900473ffffffffffffffffffffffffffffffffffffffff1681565b600080600460008473ffffffffffffffffffffffffffffffffffffffff1673ffffffffffffffffffffffffffffffffffffffff168152602001908152602001600020905060006103b882600201546103aa846004015461039c866006015461038e88600301548960040154610dfa90919063ffffffff16565b610dfa90919063ffffffff16565b610dfa90919063ffffffff16565b610dfa90919063ffffffff16565b905060006103d783600101548460000154610dfa90919063ffffffff16565b90506103ec8183610e1090919063ffffffff16565b9350505050919050565b6103fe610e26565b73ffffffffffffffffffffffffffffffffffffffff1661041c610530565b73ffffffffffffffffffffffffffffffffffffffff1614610472576040517f08c379a000000000000000000000000000000000000000000000000000000000815260040161046990611210565b60405180910390fd5b600073ffffffffffffffffffffffffffffffffffffffff1660008054906101000a900473ffffffffffffffffffffffffffffffffffffffff1673ffffffffffffffffffffffffffffffffffffffff167f8be0079c531659141344cd1fd0a4f28419497f9722a3daafe3b4186f6b6457e060405160405180910390a360008060006101000a81548173ffffffffffffffffffffffffffffffffffffffff021916908373ffffffffffffffffffffffffffffffffffffffff160217905550565b60008060009054906101000a900473ffffffffffffffffffffffffffffffffffffffff16905090565b600360009054906101000a900473ffffffffffffffffffffffffffffffffffffffff1673ffffffffffffffffffffffffffffffffffffffff16639c94f65133836040518363ffffffff1660e01b81526004016105b69291906110ff565b600060405180830381600087803b1580156105d057600080fd5b505af11580156105e4573d6000803e3d6000fd5b505050506000600460003373ffffffffffffffffffffffffffffffffffffffff1673ffffffffffffffffffffffffffffffffffffffff1681526020019081526020016000209050610642828260040154610dfa90919063ffffffff16565b81600401819055507fe443293be86edd1535235d0a55b4df4a1b3497ac403e639fdd681555cdadcc97338360405161067b9291906110ff565b60405180910390a15050565b600360009054906101000a900473ffffffffffffffffffffffffffffffffffffffff1673ffffffffffffffffffffffffffffffffffffffff166351bcc28b336040518263ffffffff1660e01b81526004016106e291906110e4565b602060405180830381600087803b1580156106fc57600080fd5b505af1158015610710573d6000803e3d6000fd5b505050506040513d601f19601f820116820180604052508101906107349190610efb565b610773576040517f08c379a000000000000000000000000000000000000000000000000000000000815260040161076a906111d0565b60405180910390fd5b600782106107b6576040517f08c379a00000000000000000000000000000000000000000000000000000000081526004016107ad906111f0565b60405180910390fd5b6000600460003373ffffffffffffffffffffffffffffffffffffffff1673ffffffffffffffffffffffffffffffffffffffff1681526020019081526020016000209050600083141561082257610819828260000154610dfa90919063ffffffff16565b81600001819055505b600183141561084b57610842828260010154610dfa90919063ffffffff16565b81600101819055505b60028314156108745761086b828260020154610dfa90919063ffffffff16565b81600201819055505b600383141561089d57610894828260030154610dfa90919063ffffffff16565b81600301819055505b60048314156108c6576108bd828260040154610dfa90919063ffffffff16565b81600401819055505b60058314156108ef576108e6828260050154610dfa90919063ffffffff16565b81600501819055505b60068314156109185761090f828260060154610dfa90919063ffffffff16565b81600601819055505b7fdf228da87e37580239a03771810d458fff73ec821c301ac40689149189fc8ba884848460405161094b93929190611128565b60405180910390a150505050565b600360009054906101000a900473ffffffffffffffffffffffffffffffffffffffff1673ffffffffffffffffffffffffffffffffffffffff166351bcc28b336040518263ffffffff1660e01b81526004016109b491906110e4565b602060405180830381600087803b1580156109ce57600080fd5b505af11580156109e2573d6000803e3d6000fd5b505050506040513d601f19601f82011682018060405250810190610a069190610efb565b610a45576040517f08c379a0000000000000000000000000000000000000000000000000000000008152600401610a3c906111d0565b60405180910390fd5b60078210610a88576040517f08c379a0000000000000000000000000000000000000000000000000000000008152600401610a7f906111f0565b60405180910390fd5b6000600460003373ffffffffffffffffffffffffffffffffffffffff1673ffffffffffffffffffffffffffffffffffffffff16815260200190815260200160002090506000831415610af457610aeb828260000154610e2e90919063ffffffff16565b81600001819055505b6001831415610b1d57610b14828260010154610e2e90919063ffffffff16565b81600101819055505b6002831415610b4657610b3d828260020154610e2e90919063ffffffff16565b81600201819055505b6003831415610b6f57610b66828260030154610e2e90919063ffffffff16565b81600301819055505b6004831415610b9857610b8f828260040154610e2e90919063ffffffff16565b81600401819055505b6005831415610bc157610bb8828260050154610e2e90919063ffffffff16565b81600501819055505b6006831415610bea57610be1828260060154610e2e90919063ffffffff16565b81600601819055505b7ff4e547d62ee5a63fb3f2b656ddc8394bc03decc510602ae6149f260a7f5ac096848484604051610c1d93929190611128565b60405180910390a150505050565b600360009054906101000a900473ffffffffffffffffffffffffffffffffffffffff1681565b610c59610e26565b73ffffffffffffffffffffffffffffffffffffffff16610c77610530565b73ffffffffffffffffffffffffffffffffffffffff1614610ccd576040517f08c379a0000000000000000000000000000000000000000000000000000000008152600401610cc490611210565b60405180910390fd5b600073ffffffffffffffffffffffffffffffffffffffff168173ffffffffffffffffffffffffffffffffffffffff161415610d3d576040517f08c379a0000000000000000000000000000000000000000000000000000000008152600401610d34906111b0565b60405180910390fd5b8073ffffffffffffffffffffffffffffffffffffffff1660008054906101000a900473ffffffffffffffffffffffffffffffffffffffff1673ffffffffffffffffffffffffffffffffffffffff167f8be0079c531659141344cd1fd0a4f28419497f9722a3daafe3b4186f6b6457e060405160405180910390a3806000806101000a81548173ffffffffffffffffffffffffffffffffffffffff021916908373ffffffffffffffffffffffffffffffffffffffff16021790555050565b60008183610e0891906112cb565b905092915050565b60008183610e1e9190611321565b905092915050565b600033905090565b60008183610e3c919061137b565b905092915050565b600081359050610e538161146e565b92915050565b600081519050610e6881611485565b92915050565b600081359050610e7d8161149c565b92915050565b600060208284031215610e9557600080fd5b6000610ea384828501610e44565b91505092915050565b600080600060608486031215610ec157600080fd5b6000610ecf86828701610e44565b9350506020610ee086828701610e6e565b9250506040610ef186828701610e6e565b9150509250925092565b600060208284031215610f0d57600080fd5b6000610f1b84828501610e59565b91505092915050565b600060208284031215610f3657600080fd5b6000610f4484828501610e6e565b91505092915050565b610f56816113af565b82525050565b610f65816113c1565b82525050565b610f74816113f7565b82525050565b610f838161141b565b82525050565b6000610f966026836112ba565b91507f4f776e61626c653a206e6577206f776e657220697320746865207a65726f206160008301527f64647265737300000000000000000000000000000000000000000000000000006020830152604082019050919050565b6000610ffc6028836112ba565b91507f446563656e747261436f72653a2043616c6c6572206973206e6f74206120445360008301527f636f7265204d4f440000000000000000000000000000000000000000000000006020830152604082019050919050565b60006110626017836112ba565b91507f442d53636f72653a20496e76616c696420666163746f720000000000000000006000830152602082019050919050565b60006110a26020836112ba565b91507f4f776e61626c653a2063616c6c6572206973206e6f7420746865206f776e65726000830152602082019050919050565b6110de816113ed565b82525050565b60006020820190506110f96000830184610f4d565b92915050565b60006040820190506111146000830185610f4d565b61112160208301846110d5565b9392505050565b600060608201905061113d6000830186610f4d565b61114a60208301856110d5565b61115760408301846110d5565b949350505050565b60006020820190506111746000830184610f5c565b92915050565b600060208201905061118f6000830184610f6b565b92915050565b60006020820190506111aa6000830184610f7a565b92915050565b600060208201905081810360008301526111c981610f89565b9050919050565b600060208201905081810360008301526111e981610fef565b9050919050565b6000602082019050818103600083015261120981611055565b9050919050565b6000602082019050818103600083015261122981611095565b9050919050565b600060208201905061124560008301846110d5565b92915050565b600060e082019050611260600083018a6110d5565b61126d60208301896110d5565b61127a60408301886110d5565b61128760608301876110d5565b61129460808301866110d5565b6112a160a08301856110d5565b6112ae60c08301846110d5565b98975050505050505050565b600082825260208201905092915050565b60006112d6826113ed565b91506112e1836113ed565b9250827fffffffffffffffffffffffffffffffffffffffffffffffffffffffffffffffff038211156113165761131561143f565b5b828201905092915050565b600061132c826113ed565b9150611337836113ed565b9250817fffffffffffffffffffffffffffffffffffffffffffffffffffffffffffffffff04831182151516156113705761136f61143f565b5b828202905092915050565b6000611386826113ed565b9150611391836113ed565b9250828210156113a4576113a361143f565b5b828203905092915050565b60006113ba826113cd565b9050919050565b60008115159050919050565b600073ffffffffffffffffffffffffffffffffffffffff82169050919050565b6000819050919050565b600061140282611409565b9050919050565b6000611414826113cd565b9050919050565b60006114268261142d565b9050919050565b6000611438826113cd565b9050919050565b7f4e487b7100000000000000000000000000000000000000000000000000000000600052601160045260246000fd5b611477816113af565b811461148257600080fd5b50565b61148e816113c1565b811461149957600080fd5b50565b6114a5816113ed565b81146114b057600080fd5b5056fea264697066735822122032f05e38feefb673b2c17d3c0b26aa222023f53ba9accb8c7d46a448c7bd8d5b64736f6c63430008000033",
  "linkReferences": {},
  "deployedLinkReferences": {}
}