{
  "_format": "hh-sol-artifact-1",
  "contractName": "DScore",
  "sourceName": "contracts/DScore.sol",
  "abi": [
    {
      "inputs": [
        {
          "internalType": "address",
          "name": "_dStock",
          "type": "address"
        }
      ],
      "stateMutability": "nonpayable",
      "type": "constructor"
    },
    {
      "anonymous": false,
      "inputs": [
        {
          "indexed": false,
          "internalType": "address",
          "name": "member",
          "type": "address"
        },
        {
          "indexed": false,
          "internalType": "uint256",
          "name": "factor",
          "type": "uint256"
        },
        {
          "indexed": false,
          "internalType": "uint256",
          "name": "amountDecreased",
          "type": "uint256"
        }
      ],
      "name": "DScoreDecreased",
      "type": "event"
    },
    {
      "anonymous": false,
      "inputs": [
        {
          "indexed": false,
          "internalType": "address",
          "name": "member",
          "type": "address"
        },
        {
          "indexed": false,
          "internalType": "uint256",
          "name": "factor",
          "type": "uint256"
        },
        {
          "indexed": false,
          "internalType": "uint256",
          "name": "amountIncreased",
          "type": "uint256"
        }
      ],
      "name": "DScoreIncreased",
      "type": "event"
    },
    {
      "anonymous": false,
      "inputs": [
        {
          "indexed": false,
          "internalType": "address",
          "name": "member",
          "type": "address"
        },
        {
          "indexed": false,
          "internalType": "uint256",
          "name": "timeFrozen",
          "type": "uint256"
        }
      ],
      "name": "Memberfrozen",
      "type": "event"
    },
    {
      "anonymous": false,
      "inputs": [
        {
          "indexed": false,
          "internalType": "address",
          "name": "member",
          "type": "address"
        },
        {
          "indexed": false,
          "internalType": "uint256",
          "name": "amountStaked",
          "type": "uint256"
        }
      ],
      "name": "MembershipStaked",
      "type": "event"
    },
    {
      "anonymous": false,
      "inputs": [
        {
          "indexed": true,
          "internalType": "address",
          "name": "previousOwner",
          "type": "address"
        },
        {
          "indexed": true,
          "internalType": "address",
          "name": "newOwner",
          "type": "address"
        }
      ],
      "name": "OwnershipTransferred",
      "type": "event"
    },
    {
      "inputs": [
        {
          "internalType": "address",
          "name": "_member",
          "type": "address"
        }
      ],
      "name": "calculateVotingPower",
      "outputs": [
        {
          "internalType": "uint256",
          "name": "",
          "type": "uint256"
        }
      ],
      "stateMutability": "view",
      "type": "function"
    },
    {
      "inputs": [
        {
          "internalType": "address",
          "name": "_member",
          "type": "address"
        }
      ],
      "name": "checkStaked",
      "outputs": [
        {
          "internalType": "bool",
          "name": "",
          "type": "bool"
        }
      ],
      "stateMutability": "view",
      "type": "function"
    },
    {
      "inputs": [],
      "name": "dc",
      "outputs": [
        {
          "internalType": "contract IDecentraCore",
          "name": "",
          "type": "address"
        }
      ],
      "stateMutability": "view",
      "type": "function"
    },
    {
      "inputs": [
        {
          "internalType": "address",
          "name": "_member",
          "type": "address"
        },
        {
          "internalType": "uint256",
          "name": "_factor",
          "type": "uint256"
        },
        {
          "internalType": "uint256",
          "name": "_amount",
          "type": "uint256"
        }
      ],
      "name": "decreaseDScore",
      "outputs": [],
      "stateMutability": "nonpayable",
      "type": "function"
    },
    {
      "inputs": [],
      "name": "ds",
      "outputs": [
        {
          "internalType": "contract IDecentraStock",
          "name": "",
          "type": "address"
        }
      ],
      "stateMutability": "view",
      "type": "function"
    },
    {
      "inputs": [
        {
          "internalType": "address",
          "name": "_member",
          "type": "address"
        },
        {
          "internalType": "uint256",
          "name": "_factor",
          "type": "uint256"
        },
        {
          "internalType": "uint256",
          "name": "_amount",
          "type": "uint256"
        }
      ],
      "name": "increaseDScore",
      "outputs": [],
      "stateMutability": "nonpayable",
      "type": "function"
    },
    {
      "inputs": [
        {
          "internalType": "address",
          "name": "",
          "type": "address"
        }
      ],
      "name": "members",
      "outputs": [
        {
          "internalType": "uint256",
          "name": "level",
          "type": "uint256"
        },
        {
          "internalType": "uint256",
          "name": "jobs",
          "type": "uint256"
        },
        {
          "internalType": "uint256",
          "name": "votes",
          "type": "uint256"
        },
        {
          "internalType": "uint256",
          "name": "reputation",
          "type": "uint256"
        },
        {
          "internalType": "uint256",
          "name": "staked",
          "type": "uint256"
        },
        {
          "internalType": "uint256",
          "name": "verified",
          "type": "uint256"
        },
        {
          "internalType": "uint256",
          "name": "audit",
          "type": "uint256"
        }
      ],
      "stateMutability": "view",
      "type": "function"
    },
    {
      "inputs": [],
      "name": "owner",
      "outputs": [
        {
          "internalType": "address",
          "name": "",
          "type": "address"
        }
      ],
      "stateMutability": "view",
      "type": "function"
    },
    {
      "inputs": [],
      "name": "renounceOwnership",
      "outputs": [],
      "stateMutability": "nonpayable",
      "type": "function"
    },
    {
      "inputs": [
        {
          "internalType": "address",
          "name": "_dCore",
          "type": "address"
        }
      ],
      "name": "setDC",
      "outputs": [],
      "stateMutability": "nonpayable",
      "type": "function"
    },
    {
      "inputs": [
        {
          "internalType": "uint256",
          "name": "_stakeAmount",
          "type": "uint256"
        }
      ],
      "name": "stakeMembership",
      "outputs": [],
      "stateMutability": "nonpayable",
      "type": "function"
    },
    {
      "inputs": [],
      "name": "stakedCounter",
      "outputs": [
        {
          "internalType": "uint256",
          "name": "",
          "type": "uint256"
        }
      ],
      "stateMutability": "view",
      "type": "function"
    },
    {
      "inputs": [
        {
          "internalType": "address",
          "name": "newOwner",
          "type": "address"
        }
      ],
      "name": "transferOwnership",
      "outputs": [],
      "stateMutability": "nonpayable",
      "type": "function"
    }
  ],
  "bytecode": "0x60806040523480156200001157600080fd5b50604051620019ea380380620019ea83398181016040528101906200003791906200014e565b6000620000496200012f60201b60201c565b9050806000806101000a81548173ffffffffffffffffffffffffffffffffffffffff021916908373ffffffffffffffffffffffffffffffffffffffff1602179055508073ffffffffffffffffffffffffffffffffffffffff16600073ffffffffffffffffffffffffffffffffffffffff167f8be0079c531659141344cd1fd0a4f28419497f9722a3daafe3b4186f6b6457e060405160405180910390a35080600260006101000a81548173ffffffffffffffffffffffffffffffffffffffff021916908373ffffffffffffffffffffffffffffffffffffffff16021790555050620001c8565b600033905090565b6000815190506200014881620001ae565b92915050565b6000602082840312156200016157600080fd5b6000620001718482850162000137565b91505092915050565b600062000187826200018e565b9050919050565b600073ffffffffffffffffffffffffffffffffffffffff82169050919050565b620001b9816200017a565b8114620001c557600080fd5b50565b61181280620001d86000396000f3fe608060405234801561001057600080fd5b50600436106100cf5760003560e01c80637673a7d81161008c578063c0ecce9511610066578063c0ecce9514610206578063d40ef77214610222578063d8a531a61461023e578063f2fde38b1461025c576100cf565b80637673a7d8146101b05780638da5cb5b146101cc578063a2314bea146101ea576100cf565b806308ae4b0c146100d457806315b1df4b1461010a578063247f8e141461012857806330dce62b1461015857806359d177e614610176578063715018a6146101a6575b600080fd5b6100ee60048036038101906100e99190611123565b610278565b6040516101019796959493929190611514565b60405180910390f35b6101126102ba565b60405161011f91906114f9565b60405180910390f35b610142600480360381019061013d9190611123565b6102c0565b60405161014f9190611428565b60405180910390f35b610160610326565b60405161016d919061145e565b60405180910390f35b610190600480360381019061018b9190611123565b61034c565b60405161019d91906114f9565b60405180910390f35b6101ae610591565b005b6101ca60048036038101906101c59190611123565b6106cb565b005b6101d461078b565b6040516101e191906113ad565b60405180910390f35b61020460048036038101906101ff91906111c4565b6107b4565b005b610220600480360381019061021b919061114c565b6108e2565b005b61023c6004803603810190610237919061114c565b610bb4565b005b610246610e86565b6040516102539190611443565b60405180910390f35b61027660048036038101906102719190611123565b610eac565b005b60046020528060005260406000206000915090508060000154908060010154908060020154908060030154908060040154908060050154908060060154905087565b60015481565b600080600460008473ffffffffffffffffffffffffffffffffffffffff1673ffffffffffffffffffffffffffffffffffffffff168152602001908152602001600020905060008160040154111561031b576001915050610321565b60009150505b919050565b600260009054906101000a900473ffffffffffffffffffffffffffffffffffffffff1681565b600080600460008473ffffffffffffffffffffffffffffffffffffffff1673ffffffffffffffffffffffffffffffffffffffff16815260200190815260200160002090506000600260009054906101000a900473ffffffffffffffffffffffffffffffffffffffff1673ffffffffffffffffffffffffffffffffffffffff166370a08231856040518263ffffffff1660e01b81526004016103ed91906113ad565b60206040518083038186803b15801561040557600080fd5b505afa158015610419573d6000803e3d6000fd5b505050506040513d601f19601f8201168201806040525081019061043d91906111ed565b90506000600260009054906101000a900473ffffffffffffffffffffffffffffffffffffffff1673ffffffffffffffffffffffffffffffffffffffff166318160ddd6040518163ffffffff1660e01b815260040160206040518083038186803b1580156104a957600080fd5b505afa1580156104bd573d6000803e3d6000fd5b505050506040513d601f19601f820116820180604052508101906104e191906111ed565b905060006104ef8383611055565b90506000600a82111561050557600a9050610509565b8190505b600061054e866004015461054088600601546105328a600301548761109b90919063ffffffff16565b61109b90919063ffffffff16565b61109b90919063ffffffff16565b905061058186600101546105738860000154896002015461109b90919063ffffffff16565b61109b90919063ffffffff16565b9050809650505050505050919050565b6105996110b1565b73ffffffffffffffffffffffffffffffffffffffff166105b761078b565b73ffffffffffffffffffffffffffffffffffffffff161461060d576040517f08c379a0000000000000000000000000000000000000000000000000000000008152600401610604906114d9565b60405180910390fd5b600073ffffffffffffffffffffffffffffffffffffffff1660008054906101000a900473ffffffffffffffffffffffffffffffffffffffff1673ffffffffffffffffffffffffffffffffffffffff167f8be0079c531659141344cd1fd0a4f28419497f9722a3daafe3b4186f6b6457e060405160405180910390a360008060006101000a81548173ffffffffffffffffffffffffffffffffffffffff021916908373ffffffffffffffffffffffffffffffffffffffff160217905550565b6106d36110b1565b73ffffffffffffffffffffffffffffffffffffffff166106f161078b565b73ffffffffffffffffffffffffffffffffffffffff1614610747576040517f08c379a000000000000000000000000000000000000000000000000000000000815260040161073e906114d9565b60405180910390fd5b80600360006101000a81548173ffffffffffffffffffffffffffffffffffffffff021916908373ffffffffffffffffffffffffffffffffffffffff16021790555050565b60008060009054906101000a900473ffffffffffffffffffffffffffffffffffffffff16905090565b600360009054906101000a900473ffffffffffffffffffffffffffffffffffffffff1673ffffffffffffffffffffffffffffffffffffffff16639c94f65133836040518363ffffffff1660e01b81526004016108119291906113c8565b600060405180830381600087803b15801561082b57600080fd5b505af115801561083f573d6000803e3d6000fd5b505050506000600460003373ffffffffffffffffffffffffffffffffffffffff1673ffffffffffffffffffffffffffffffffffffffff168152602001908152602001600020905061089d82826004015461109b90919063ffffffff16565b81600401819055507fe443293be86edd1535235d0a55b4df4a1b3497ac403e639fdd681555cdadcc9733836040516108d69291906113c8565b60405180910390a15050565b600360009054906101000a900473ffffffffffffffffffffffffffffffffffffffff1673ffffffffffffffffffffffffffffffffffffffff166351bcc28b336040518263ffffffff1660e01b815260040161093d91906113ad565b602060405180830381600087803b15801561095757600080fd5b505af115801561096b573d6000803e3d6000fd5b505050506040513d601f19601f8201168201806040525081019061098f919061119b565b6109ce576040517f08c379a00000000000000000000000000000000000000000000000000000000081526004016109c590611499565b60405180910390fd5b60078210610a11576040517f08c379a0000000000000000000000000000000000000000000000000000000008152600401610a08906114b9565b60405180910390fd5b6000600460003373ffffffffffffffffffffffffffffffffffffffff1673ffffffffffffffffffffffffffffffffffffffff16815260200190815260200160002090506000831415610a7d57610a7482826000015461109b90919063ffffffff16565b81600001819055505b6001831415610aa657610a9d82826001015461109b90919063ffffffff16565b81600101819055505b6002831415610acf57610ac682826002015461109b90919063ffffffff16565b81600201819055505b6003831415610af857610aef82826003015461109b90919063ffffffff16565b81600301819055505b6004831415610b2157610b1882826004015461109b90919063ffffffff16565b81600401819055505b6005831415610b4a57610b4182826005015461109b90919063ffffffff16565b81600501819055505b6006831415610b7357610b6a82826006015461109b90919063ffffffff16565b81600601819055505b7fdf228da87e37580239a03771810d458fff73ec821c301ac40689149189fc8ba8848484604051610ba6939291906113f1565b60405180910390a150505050565b600360009054906101000a900473ffffffffffffffffffffffffffffffffffffffff1673ffffffffffffffffffffffffffffffffffffffff166351bcc28b336040518263ffffffff1660e01b8152600401610c0f91906113ad565b602060405180830381600087803b158015610c2957600080fd5b505af1158015610c3d573d6000803e3d6000fd5b505050506040513d601f19601f82011682018060405250810190610c61919061119b565b610ca0576040517f08c379a0000000000000000000000000000000000000000000000000000000008152600401610c9790611499565b60405180910390fd5b60078210610ce3576040517f08c379a0000000000000000000000000000000000000000000000000000000008152600401610cda906114b9565b60405180910390fd5b6000600460003373ffffffffffffffffffffffffffffffffffffffff1673ffffffffffffffffffffffffffffffffffffffff16815260200190815260200160002090506000831415610d4f57610d468282600001546110b990919063ffffffff16565b81600001819055505b6001831415610d7857610d6f8282600101546110b990919063ffffffff16565b81600101819055505b6002831415610da157610d988282600201546110b990919063ffffffff16565b81600201819055505b6003831415610dca57610dc18282600301546110b990919063ffffffff16565b81600301819055505b6004831415610df357610dea8282600401546110b990919063ffffffff16565b81600401819055505b6005831415610e1c57610e138282600501546110b990919063ffffffff16565b81600501819055505b6006831415610e4557610e3c8282600601546110b990919063ffffffff16565b81600601819055505b7ff4e547d62ee5a63fb3f2b656ddc8394bc03decc510602ae6149f260a7f5ac096848484604051610e78939291906113f1565b60405180910390a150505050565b600360009054906101000a900473ffffffffffffffffffffffffffffffffffffffff1681565b610eb46110b1565b73ffffffffffffffffffffffffffffffffffffffff16610ed261078b565b73ffffffffffffffffffffffffffffffffffffffff1614610f28576040517f08c379a0000000000000000000000000000000000000000000000000000000008152600401610f1f906114d9565b60405180910390fd5b600073ffffffffffffffffffffffffffffffffffffffff168173ffffffffffffffffffffffffffffffffffffffff161415610f98576040517f08c379a0000000000000000000000000000000000000000000000000000000008152600401610f8f90611479565b60405180910390fd5b8073ffffffffffffffffffffffffffffffffffffffff1660008054906101000a900473ffffffffffffffffffffffffffffffffffffffff1673ffffffffffffffffffffffffffffffffffffffff167f8be0079c531659141344cd1fd0a4f28419497f9722a3daafe3b4186f6b6457e060405160405180910390a3806000806101000a81548173ffffffffffffffffffffffffffffffffffffffff021916908373ffffffffffffffffffffffffffffffffffffffff16021790555050565b6000806103e884611066919061161b565b90506000600a6005858461107a91906115ea565b6110849190611594565b61108e91906115ea565b9050809250505092915050565b600081836110a99190611594565b905092915050565b600033905090565b600081836110c79190611675565b905092915050565b6000813590506110de81611797565b92915050565b6000815190506110f3816117ae565b92915050565b600081359050611108816117c5565b92915050565b60008151905061111d816117c5565b92915050565b60006020828403121561113557600080fd5b6000611143848285016110cf565b91505092915050565b60008060006060848603121561116157600080fd5b600061116f868287016110cf565b9350506020611180868287016110f9565b9250506040611191868287016110f9565b9150509250925092565b6000602082840312156111ad57600080fd5b60006111bb848285016110e4565b91505092915050565b6000602082840312156111d657600080fd5b60006111e4848285016110f9565b91505092915050565b6000602082840312156111ff57600080fd5b600061120d8482850161110e565b91505092915050565b61121f816116a9565b82525050565b61122e816116bb565b82525050565b61123d816116f1565b82525050565b61124c81611715565b82525050565b600061125f602683611583565b91507f4f776e61626c653a206e6577206f776e657220697320746865207a65726f206160008301527f64647265737300000000000000000000000000000000000000000000000000006020830152604082019050919050565b60006112c5602883611583565b91507f446563656e747261436f72653a2043616c6c6572206973206e6f74206120445360008301527f636f7265204d4f440000000000000000000000000000000000000000000000006020830152604082019050919050565b600061132b601783611583565b91507f442d53636f72653a20496e76616c696420666163746f720000000000000000006000830152602082019050919050565b600061136b602083611583565b91507f4f776e61626c653a2063616c6c6572206973206e6f7420746865206f776e65726000830152602082019050919050565b6113a7816116e7565b82525050565b60006020820190506113c26000830184611216565b92915050565b60006040820190506113dd6000830185611216565b6113ea602083018461139e565b9392505050565b60006060820190506114066000830186611216565b611413602083018561139e565b611420604083018461139e565b949350505050565b600060208201905061143d6000830184611225565b92915050565b60006020820190506114586000830184611234565b92915050565b60006020820190506114736000830184611243565b92915050565b6000602082019050818103600083015261149281611252565b9050919050565b600060208201905081810360008301526114b2816112b8565b9050919050565b600060208201905081810360008301526114d28161131e565b9050919050565b600060208201905081810360008301526114f28161135e565b9050919050565b600060208201905061150e600083018461139e565b92915050565b600060e082019050611529600083018a61139e565b611536602083018961139e565b611543604083018861139e565b611550606083018761139e565b61155d608083018661139e565b61156a60a083018561139e565b61157760c083018461139e565b98975050505050505050565b600082825260208201905092915050565b600061159f826116e7565b91506115aa836116e7565b9250827fffffffffffffffffffffffffffffffffffffffffffffffffffffffffffffffff038211156115df576115de611739565b5b828201905092915050565b60006115f5826116e7565b9150611600836116e7565b9250826116105761160f611768565b5b828204905092915050565b6000611626826116e7565b9150611631836116e7565b9250817fffffffffffffffffffffffffffffffffffffffffffffffffffffffffffffffff048311821515161561166a57611669611739565b5b828202905092915050565b6000611680826116e7565b915061168b836116e7565b92508282101561169e5761169d611739565b5b828203905092915050565b60006116b4826116c7565b9050919050565b60008115159050919050565b600073ffffffffffffffffffffffffffffffffffffffff82169050919050565b6000819050919050565b60006116fc82611703565b9050919050565b600061170e826116c7565b9050919050565b600061172082611727565b9050919050565b6000611732826116c7565b9050919050565b7f4e487b7100000000000000000000000000000000000000000000000000000000600052601160045260246000fd5b7f4e487b7100000000000000000000000000000000000000000000000000000000600052601260045260246000fd5b6117a0816116a9565b81146117ab57600080fd5b50565b6117b7816116bb565b81146117c257600080fd5b50565b6117ce816116e7565b81146117d957600080fd5b5056fea26469706673582212203e6c295817a61ac3bd5b8df6476b722c80ffd4bb2069746ff42852ea46173e9b64736f6c63430008000033",
  "linkReferences": {},
  "deployedLinkReferences": {}
}