{
  "_format": "hh-sol-artifact-1",
  "contractName": "Power",
  "sourceName": "contracts/utils/Power.sol",
  "abi": [
    {
      "inputs": [],
      "stateMutability": "nonpayable",
      "type": "constructor"
    },
    {
      "inputs": [],
      "name": "version",
      "outputs": [
        {
          "internalType": "string",
          "name": "",
          "type": "string"
        }
      ],
      "stateMutability": "view",
      "type": "function"
    }
  ],
  "bytecode": "0x60806040526040518060400160405280600381526020017f302e3300000000000000000000000000000000000000000000000000000000008152506000908051906020019062000051929190620011f6565b503480156200005f57600080fd5b50701c35fedd14ffffffffffffffffffffffff60016020608081106200008a57620000896200130b565b5b0181905550701b0ce43b323fffffffffffffffffffffff6001602160808110620000b957620000b86200130b565b5b01819055507019f0028ec1ffffffffffffffffffffffff6001602260808110620000e857620000e76200130b565b5b01819055507018ded91f0e7fffffffffffffffffffffff60016023608081106200011757620001166200130b565b5b01819055507017d8ec7f0417ffffffffffffffffffffff60016024608081106200014657620001456200130b565b5b01819055507016ddc6556cdbffffffffffffffffffffff60016025608081106200017557620001746200130b565b5b01819055507015ecf52776a1ffffffffffffffffffffff6001602660808110620001a457620001a36200130b565b5b01819055507015060c256cb2ffffffffffffffffffffff6001602760808110620001d357620001d26200130b565b5b0181905550701428a2f98d72ffffffffffffffffffffff60016028608081106200020257620002016200130b565b5b01819055507013545598e5c23fffffffffffffffffffff60016029608081106200023157620002306200130b565b5b0181905550701288c4161ce1dfffffffffffffffffffff6001602a6080811062000260576200025f6200130b565b5b01819055507011c592761c666fffffffffffffffffffff6001602b608081106200028f576200028e6200130b565b5b018190555070110a688680a757ffffffffffffffffffff6001602c60808110620002be57620002bd6200130b565b5b0181905550701056f1b5bedf77ffffffffffffffffffff6001602d60808110620002ed57620002ec6200130b565b5b0181905550700faadceceeff8bffffffffffffffffffff6001602e608081106200031c576200031b6200130b565b5b0181905550700f05dc6b27edadffffffffffffffffffff6001602f608081106200034b576200034a6200130b565b5b0181905550700e67a5a25da4107fffffffffffffffffff60016030608081106200037a57620003796200130b565b5b0181905550700dcff115b14eedffffffffffffffffffff6001603160808110620003a957620003a86200130b565b5b0181905550700d3e7a392431239fffffffffffffffffff6001603260808110620003d857620003d76200130b565b5b0181905550700cb2ff529eb71e4fffffffffffffffffff60016033608081106200040757620004066200130b565b5b0181905550700c2d415c3db974afffffffffffffffffff60016034608081106200043657620004356200130b565b5b0181905550700bad03e7d883f69bffffffffffffffffff60016035608081106200046557620004646200130b565b5b0181905550700b320d03b2c343d5ffffffffffffffffff60016036608081106200049457620004936200130b565b5b0181905550700abc25204e02828dffffffffffffffffff6001603760808110620004c357620004c26200130b565b5b0181905550700a4b16f74ee4bb207fffffffffffffffff6001603860808110620004f257620004f16200130b565b5b01819055507009deaf736ac1f569ffffffffffffffffff60016039608081106200052157620005206200130b565b5b0181905550700976bd9952c7aa957fffffffffffffffff6001603a6080811062000550576200054f6200130b565b5b01819055507009131271922eaa606fffffffffffffffff6001603b608081106200057f576200057e6200130b565b5b01819055507008b380f3558668c46fffffffffffffffff6001603c60808110620005ae57620005ad6200130b565b5b0181905550700857ddf0117efa215bffffffffffffffff6001603d60808110620005dd57620005dc6200130b565b5b01819055507007ffffffffffffffffffffffffffffffff6001603e608081106200060c576200060b6200130b565b5b01819055507007abbf6f6abb9d087fffffffffffffffff6001603f608081106200063b576200063a6200130b565b5b018190555070075af62cbac95f7dfa7fffffffffffffff60016040608081106200066a57620006696200130b565b5b018190555070070d7fb7452e187ac13fffffffffffffff60016041608081106200069957620006986200130b565b5b01819055507006c3390ecc8af379295fffffffffffffff6001604260808110620006c857620006c76200130b565b5b018190555070067c00a3b07ffc01fd6fffffffffffffff6001604360808110620006f757620006f66200130b565b5b0181905550700637b647c39cbb9d3d27ffffffffffffff60016044608081106200072657620007256200130b565b5b01819055507005f63b1fc104dbd39587ffffffffffffff60016045608081106200075557620007546200130b565b5b01819055507005b771955b36e12f7235ffffffffffffff60016046608081106200078457620007836200130b565b5b018190555070057b3d49dda84556d6f6ffffffffffffff6001604760808110620007b357620007b26200130b565b5b018190555070054183095b2c8ececf30ffffffffffffff6001604860808110620007e257620007e16200130b565b5b018190555070050a28be635ca2b888f77fffffffffffff60016049608081106200081157620008106200130b565b5b01819055507004d5156639708c9db33c3fffffffffffff6001604a6080811062000840576200083f6200130b565b5b01819055507004a23105873875bd52dfdfffffffffffff6001604b608081106200086f576200086e6200130b565b5b0181905550700471649d87199aa990756fffffffffffff6001604c608081106200089e576200089d6200130b565b5b01819055507004429a21a029d4c1457cfbffffffffffff6001604d60808110620008cd57620008cc6200130b565b5b0181905550700415bc6d6fb7dd71af2cb3ffffffffffff6001604e60808110620008fc57620008fb6200130b565b5b01819055507003eab73b3bbfe282243ce1ffffffffffff6001604f608081106200092b576200092a6200130b565b5b01819055507003c1771ac9fb6b4c18e229ffffffffffff60016050608081106200095a57620009596200130b565b5b0181905550700399e96897690418f785257fffffffffff60016051608081106200098957620009886200130b565b5b0181905550700373fc456c53bb779bf0ea9fffffffffff6001605260808110620009b857620009b76200130b565b5b018190555070034f9e8e490c48e67e6ab8bfffffffffff6001605360808110620009e757620009e66200130b565b5b018190555070032cbfd4a7adc790560b3337ffffffffff600160546080811062000a165762000a156200130b565b5b018190555070030b50570f6e5d2acca94613ffffffffff600160556080811062000a455762000a446200130b565b5b01819055507002eb40f9f620fda6b56c2861ffffffffff600160566080811062000a745762000a736200130b565b5b01819055507002cc8340ecb0d0f520a6af58ffffffffff600160576080811062000aa35762000aa26200130b565b5b01819055507002af09481380a0a35cf1ba02ffffffffff600160586080811062000ad25762000ad16200130b565b5b0181905550700292c5bdd3b92ec810287b1b3fffffffff600160596080811062000b015762000b006200130b565b5b0181905550700277abdcdab07d5a77ac6d6b9fffffffff6001605a6080811062000b305762000b2f6200130b565b5b018190555070025daf6654b1eaa55fd64df5efffffffff6001605b6080811062000b5f5762000b5e6200130b565b5b0181905550700244c49c648baa98192dce88b7ffffffff6001605c6080811062000b8e5762000b8d6200130b565b5b018190555070022ce03cd5619a311b2471268bffffffff6001605d6080811062000bbd5762000bbc6200130b565b5b0181905550700215f77c045fbe885654a44a0fffffffff6001605e6080811062000bec5762000beb6200130b565b5b01819055507001ffffffffffffffffffffffffffffffff6001605f6080811062000c1b5762000c1a6200130b565b5b01819055507001eaefdbdaaee7421fc4d3ede5ffffffff600160606080811062000c4a5762000c496200130b565b5b01819055507001d6bd8b2eb257df7e8ca57b09bfffffff600160616080811062000c795762000c786200130b565b5b01819055507001c35fedd14b861eb0443f7f133fffffff600160626080811062000ca85762000ca76200130b565b5b01819055507001b0ce43b322bcde4a56e8ada5afffffff600160636080811062000cd75762000cd66200130b565b5b018190555070019f0028ec1fff007f5a195a39dfffffff600160646080811062000d065762000d056200130b565b5b018190555070018ded91f0e72ee74f49b15ba527ffffff600160656080811062000d355762000d346200130b565b5b018190555070017d8ec7f04136f4e5615fd41a63ffffff600160666080811062000d645762000d636200130b565b5b018190555070016ddc6556cdb84bdc8d12d22e6fffffff600160676080811062000d935762000d926200130b565b5b018190555070015ecf52776a1155b5bd8395814f7fffff600160686080811062000dc25762000dc16200130b565b5b018190555070015060c256cb23b3b3cc3754cf40ffffff600160696080811062000df15762000df06200130b565b5b01819055507001428a2f98d728ae223ddab715be3fffff6001606a6080811062000e205762000e1f6200130b565b5b018190555070013545598e5c23276ccf0ede68034fffff6001606b6080811062000e4f5762000e4e6200130b565b5b01819055507001288c4161ce1d6f54b7f61081194fffff6001606c6080811062000e7e5762000e7d6200130b565b5b018190555070011c592761c666aa641d5a01a40f17ffff6001606d6080811062000ead5762000eac6200130b565b5b0181905550700110a688680a7530515f3e6e6cfdcdffff6001606e6080811062000edc5762000edb6200130b565b5b01819055507001056f1b5bedf75c6bcb2ce8aed428ffff6001606f6080811062000f0b5762000f0a6200130b565b5b01819055506ffaadceceeff8a0890f3875f008277fff600160706080811062000f395762000f386200130b565b5b01819055506ff05dc6b27edad306388a600f6ba0bfff600160716080811062000f675762000f666200130b565b5b01819055506fe67a5a25da41063de1495d5b18cdbfff600160726080811062000f955762000f946200130b565b5b01819055506fdcff115b14eedde6fc3aa5353f2e4fff600160736080811062000fc35762000fc26200130b565b5b01819055506fd3e7a3924312399f9aae2e0f868f8fff600160746080811062000ff15762000ff06200130b565b5b01819055506fcb2ff529eb71e41582cccd5a1ee26fff60016075608081106200101f576200101e6200130b565b5b01819055506fc2d415c3db974ab32a51840c0b67edff60016076608081106200104d576200104c6200130b565b5b01819055506fbad03e7d883f69ad5b0a186184e06bff60016077608081106200107b576200107a6200130b565b5b01819055506fb320d03b2c343d4829abd6075f0cc5ff6001607860808110620010a957620010a86200130b565b5b01819055506fabc25204e02828d73c6e80bcdb1a95bf6001607960808110620010d757620010d66200130b565b5b01819055506fa4b16f74ee4bb2040a1ec6c15fbbf2df6001607a608081106200110557620011046200130b565b5b01819055506f9deaf736ac1f569deb1b5ae3f36c130f6001607b608081106200113357620011326200130b565b5b01819055506f976bd9952c7aa957f5937d790ef650376001607c608081106200116157620011606200130b565b5b01819055506f9131271922eaa6064b73a22d0bd4f2bf6001607d608081106200118f576200118e6200130b565b5b01819055506f8b380f3558668c46c91c49a2f8e967b96001607e60808110620011bd57620011bc6200130b565b5b01819055506f857ddf0117efa215952912839f6473e66001607f60808110620011eb57620011ea6200130b565b5b01819055506200133a565b8280546200120490620012a6565b90600052602060002090601f01602090048101928262001228576000855562001274565b82601f106200124357805160ff191683800117855562001274565b8280016001018555821562001274579182015b828111156200127357825182559160200191906001019062001256565b5b50905062001283919062001287565b5090565b5b80821115620012a257600081600090555060010162001288565b5090565b60006002820490506001821680620012bf57607f821691505b60208210811415620012d657620012d5620012dc565b5b50919050565b7f4e487b7100000000000000000000000000000000000000000000000000000000600052602260045260246000fd5b7f4e487b7100000000000000000000000000000000000000000000000000000000600052603260045260246000fd5b61022e806200134a6000396000f3fe608060405234801561001057600080fd5b506004361061002b5760003560e01c806354fd4d5014610030575b600080fd5b61003861004e565b6040516100459190610115565b60405180910390f35b6000805461005b90610186565b80601f016020809104026020016040519081016040528092919081815260200182805461008790610186565b80156100d45780601f106100a9576101008083540402835291602001916100d4565b820191906000526020600020905b8154815290600101906020018083116100b757829003601f168201915b505050505081565b60006100e782610137565b6100f18185610142565b9350610101818560208601610153565b61010a816101e7565b840191505092915050565b6000602082019050818103600083015261012f81846100dc565b905092915050565b600081519050919050565b600082825260208201905092915050565b60005b83811015610171578082015181840152602081019050610156565b83811115610180576000848401525b50505050565b6000600282049050600182168061019e57607f821691505b602082108114156101b2576101b16101b8565b5b50919050565b7f4e487b7100000000000000000000000000000000000000000000000000000000600052602260045260246000fd5b6000601f19601f830116905091905056fea2646970667358221220c64cfab67deef2cf9a231a988407d301bfd883caa753d3811bdb051b1b148d5f64736f6c63430008060033",
  "linkReferences": {},
  "deployedLinkReferences": {}
}