{
  "_format": "hh-sol-artifact-1",
  "contractName": "DecentraCore",
  "sourceName": "contracts/DecentraCore.sol",
  "abi": [
    {
      "inputs": [
        {
          "internalType": "address",
          "name": "_dDollar",
          "type": "address"
        },
        {
          "internalType": "address",
          "name": "_dStock",
          "type": "address"
        },
        {
          "internalType": "address",
          "name": "_dScore",
          "type": "address"
        }
      ],
      "stateMutability": "nonpayable",
      "type": "constructor"
    },
    {
      "anonymous": false,
      "inputs": [
        {
          "indexed": false,
          "internalType": "address",
          "name": "target",
          "type": "address"
        },
        {
          "indexed": false,
          "internalType": "bytes",
          "name": "call_data",
          "type": "bytes"
        }
      ],
      "name": "FunctionCallDelegated",
      "type": "event"
    },
    {
      "anonymous": false,
      "inputs": [
        {
          "indexed": false,
          "internalType": "uint256",
          "name": "proposalId",
          "type": "uint256"
        },
        {
          "indexed": false,
          "internalType": "uint256",
          "name": "proposalAmount",
          "type": "uint256"
        },
        {
          "indexed": false,
          "internalType": "address",
          "name": "target",
          "type": "address"
        },
        {
          "indexed": false,
          "internalType": "bytes",
          "name": "call_data",
          "type": "bytes"
        }
      ],
      "name": "NewProposal",
      "type": "event"
    },
    {
      "anonymous": false,
      "inputs": [
        {
          "indexed": false,
          "internalType": "uint256",
          "name": "proposalId",
          "type": "uint256"
        },
        {
          "indexed": false,
          "internalType": "address",
          "name": "voter",
          "type": "address"
        },
        {
          "indexed": false,
          "internalType": "bool",
          "name": "vote",
          "type": "bool"
        }
      ],
      "name": "NewVote",
      "type": "event"
    },
    {
      "anonymous": false,
      "inputs": [
        {
          "indexed": true,
          "internalType": "address",
          "name": "previousOwner",
          "type": "address"
        },
        {
          "indexed": true,
          "internalType": "address",
          "name": "newOwner",
          "type": "address"
        }
      ],
      "name": "OwnershipTransferred",
      "type": "event"
    },
    {
      "anonymous": false,
      "inputs": [
        {
          "indexed": false,
          "internalType": "uint256",
          "name": "proposalId",
          "type": "uint256"
        },
        {
          "indexed": false,
          "internalType": "bool",
          "name": "success",
          "type": "bool"
        }
      ],
      "name": "ProposalApproved",
      "type": "event"
    },
    {
      "inputs": [
        {
          "internalType": "address",
          "name": "",
          "type": "address"
        }
      ],
      "name": "burners",
      "outputs": [
        {
          "internalType": "bool",
          "name": "",
          "type": "bool"
        }
      ],
      "stateMutability": "view",
      "type": "function"
    },
    {
      "inputs": [],
      "name": "dScore",
      "outputs": [
        {
          "internalType": "contract IDScore",
          "name": "",
          "type": "address"
        }
      ],
      "stateMutability": "view",
      "type": "function"
    },
    {
      "inputs": [
        {
          "internalType": "address",
          "name": "",
          "type": "address"
        }
      ],
      "name": "dScoreMod",
      "outputs": [
        {
          "internalType": "bool",
          "name": "",
          "type": "bool"
        }
      ],
      "stateMutability": "view",
      "type": "function"
    },
    {
      "inputs": [],
      "name": "dd",
      "outputs": [
        {
          "internalType": "contract IDecentraDollar",
          "name": "",
          "type": "address"
        }
      ],
      "stateMutability": "view",
      "type": "function"
    },
    {
      "inputs": [
        {
          "internalType": "address payable",
          "name": "_target",
          "type": "address"
        },
        {
          "internalType": "bytes",
          "name": "call_data",
          "type": "bytes"
        }
      ],
      "name": "delegateFunctionCall",
      "outputs": [],
      "stateMutability": "nonpayable",
      "type": "function"
    },
    {
      "inputs": [
        {
          "internalType": "address",
          "name": "",
          "type": "address"
        }
      ],
      "name": "delegators",
      "outputs": [
        {
          "internalType": "bool",
          "name": "",
          "type": "bool"
        }
      ],
      "stateMutability": "view",
      "type": "function"
    },
    {
      "inputs": [],
      "name": "ds",
      "outputs": [
        {
          "internalType": "contract IDecentraStock",
          "name": "",
          "type": "address"
        }
      ],
      "stateMutability": "view",
      "type": "function"
    },
    {
      "inputs": [
        {
          "internalType": "address",
          "name": "",
          "type": "address"
        }
      ],
      "name": "freezeFrame",
      "outputs": [
        {
          "internalType": "uint256",
          "name": "",
          "type": "uint256"
        }
      ],
      "stateMutability": "view",
      "type": "function"
    },
    {
      "inputs": [
        {
          "internalType": "address",
          "name": "_member",
          "type": "address"
        }
      ],
      "name": "freezeMember",
      "outputs": [],
      "stateMutability": "nonpayable",
      "type": "function"
    },
    {
      "inputs": [
        {
          "internalType": "address",
          "name": "",
          "type": "address"
        }
      ],
      "name": "frozenAccounts",
      "outputs": [
        {
          "internalType": "bool",
          "name": "",
          "type": "bool"
        }
      ],
      "stateMutability": "view",
      "type": "function"
    },
    {
      "inputs": [
        {
          "internalType": "address",
          "name": "",
          "type": "address"
        }
      ],
      "name": "minters",
      "outputs": [
        {
          "internalType": "bool",
          "name": "",
          "type": "bool"
        }
      ],
      "stateMutability": "view",
      "type": "function"
    },
    {
      "inputs": [
        {
          "internalType": "address payable",
          "name": "_target",
          "type": "address"
        },
        {
          "internalType": "uint256",
          "name": "_amount",
          "type": "uint256"
        },
        {
          "internalType": "string",
          "name": "_proposalHash",
          "type": "string"
        },
        {
          "internalType": "bytes",
          "name": "_calldata",
          "type": "bytes"
        }
      ],
      "name": "newProposal",
      "outputs": [
        {
          "internalType": "uint256",
          "name": "",
          "type": "uint256"
        }
      ],
      "stateMutability": "payable",
      "type": "function"
    },
    {
      "inputs": [],
      "name": "owner",
      "outputs": [
        {
          "internalType": "address",
          "name": "",
          "type": "address"
        }
      ],
      "stateMutability": "view",
      "type": "function"
    },
    {
      "inputs": [],
      "name": "proposalID",
      "outputs": [
        {
          "internalType": "uint256",
          "name": "",
          "type": "uint256"
        }
      ],
      "stateMutability": "view",
      "type": "function"
    },
    {
      "inputs": [],
      "name": "proposalTime",
      "outputs": [
        {
          "internalType": "uint256",
          "name": "",
          "type": "uint256"
        }
      ],
      "stateMutability": "view",
      "type": "function"
    },
    {
      "inputs": [
        {
          "internalType": "uint256",
          "name": "",
          "type": "uint256"
        }
      ],
      "name": "proposals",
      "outputs": [
        {
          "internalType": "address",
          "name": "maker",
          "type": "address"
        },
        {
          "internalType": "address payable",
          "name": "target",
          "type": "address"
        },
        {
          "internalType": "uint256",
          "name": "timeCreated",
          "type": "uint256"
        },
        {
          "internalType": "uint256",
          "name": "voteWeights",
          "type": "uint256"
        },
        {
          "internalType": "uint256",
          "name": "voteID",
          "type": "uint256"
        },
        {
          "internalType": "uint256",
          "name": "amount",
          "type": "uint256"
        },
        {
          "internalType": "bool",
          "name": "executed",
          "type": "bool"
        },
        {
          "internalType": "bool",
          "name": "proposalPassed",
          "type": "bool"
        },
        {
          "internalType": "string",
          "name": "proposalHash",
          "type": "string"
        },
        {
          "internalType": "bytes",
          "name": "call_data",
          "type": "bytes"
        }
      ],
      "stateMutability": "view",
      "type": "function"
    },
    {
      "inputs": [
        {
          "internalType": "address",
          "name": "_from",
          "type": "address"
        },
        {
          "internalType": "uint256",
          "name": "_amount",
          "type": "uint256"
        }
      ],
      "name": "proxyBurnDD",
      "outputs": [],
      "stateMutability": "nonpayable",
      "type": "function"
    },
    {
      "inputs": [
        {
          "internalType": "address",
          "name": "_from",
          "type": "address"
        },
        {
          "internalType": "uint256",
          "name": "_amount",
          "type": "uint256"
        }
      ],
      "name": "proxyBurnDS",
      "outputs": [],
      "stateMutability": "nonpayable",
      "type": "function"
    },
    {
      "inputs": [
        {
          "internalType": "address",
          "name": "_to",
          "type": "address"
        },
        {
          "internalType": "uint256",
          "name": "_amount",
          "type": "uint256"
        }
      ],
      "name": "proxyMintDD",
      "outputs": [],
      "stateMutability": "nonpayable",
      "type": "function"
    },
    {
      "inputs": [
        {
          "internalType": "address",
          "name": "_to",
          "type": "address"
        },
        {
          "internalType": "uint256",
          "name": "_amount",
          "type": "uint256"
        }
      ],
      "name": "proxyMintDS",
      "outputs": [],
      "stateMutability": "nonpayable",
      "type": "function"
    },
    {
      "inputs": [],
      "name": "quorum",
      "outputs": [
        {
          "internalType": "uint256",
          "name": "",
          "type": "uint256"
        }
      ],
      "stateMutability": "view",
      "type": "function"
    },
    {
      "inputs": [],
      "name": "renounceOwnership",
      "outputs": [],
      "stateMutability": "nonpayable",
      "type": "function"
    },
    {
      "inputs": [
        {
          "internalType": "address",
          "name": "_contract",
          "type": "address"
        },
        {
          "internalType": "uint256",
          "name": "_privledge",
          "type": "uint256"
        }
      ],
      "name": "setApprovedContract",
      "outputs": [],
      "stateMutability": "nonpayable",
      "type": "function"
    },
    {
      "inputs": [
        {
          "internalType": "uint256",
          "name": "_quorum",
          "type": "uint256"
        }
      ],
      "name": "setQuorum",
      "outputs": [],
      "stateMutability": "nonpayable",
      "type": "function"
    },
    {
      "inputs": [
        {
          "internalType": "address",
          "name": "newOwner",
          "type": "address"
        }
      ],
      "name": "transferOwnership",
      "outputs": [],
      "stateMutability": "nonpayable",
      "type": "function"
    },
    {
      "inputs": [
        {
          "internalType": "address payable",
          "name": "_to",
          "type": "address"
        },
        {
          "internalType": "uint256",
          "name": "_amount",
          "type": "uint256"
        }
      ],
      "name": "transferxDAI",
      "outputs": [],
      "stateMutability": "nonpayable",
      "type": "function"
    },
    {
      "inputs": [
        {
          "internalType": "uint256",
          "name": "_ProposalID",
          "type": "uint256"
        },
        {
          "internalType": "bool",
          "name": "supportsProposal",
          "type": "bool"
        }
      ],
      "name": "vote",
      "outputs": [],
      "stateMutability": "nonpayable",
      "type": "function"
    }
  ],
  "bytecode": "0x60806040523480156200001157600080fd5b5060405162003701380380620037018339818101604052810190620000379190620001d2565b600062000049620001b360201b60201c565b9050806000806101000a81548173ffffffffffffffffffffffffffffffffffffffff021916908373ffffffffffffffffffffffffffffffffffffffff1602179055508073ffffffffffffffffffffffffffffffffffffffff16600073ffffffffffffffffffffffffffffffffffffffff167f8be0079c531659141344cd1fd0a4f28419497f9722a3daafe3b4186f6b6457e060405160405180910390a35082600460006101000a81548173ffffffffffffffffffffffffffffffffffffffff021916908373ffffffffffffffffffffffffffffffffffffffff16021790555081600560006101000a81548173ffffffffffffffffffffffffffffffffffffffff021916908373ffffffffffffffffffffffffffffffffffffffff16021790555080600660006101000a81548173ffffffffffffffffffffffffffffffffffffffff021916908373ffffffffffffffffffffffffffffffffffffffff16021790555050505062000276565b600033905090565b600081519050620001cc816200025c565b92915050565b600080600060608486031215620001e857600080fd5b6000620001f886828701620001bb565b93505060206200020b86828701620001bb565b92505060406200021e86828701620001bb565b9150509250925092565b600062000235826200023c565b9050919050565b600073ffffffffffffffffffffffffffffffffffffffff82169050919050565b620002678162000228565b81146200027357600080fd5b50565b61347b80620002866000396000f3fe60806040526004361061019c5760003560e01c806383ac74f9116100ec578063bd621fa31161008a578063c9d27afe11610064578063c9d27afe146105d4578063d7c93180146105fd578063f2fde38b14610626578063f46eccc41461064f5761019c565b8063bd621fa314610545578063c1ba4e591461056e578063c3396bdc146105975761019c565b80638da5cb5b116100c65780638da5cb5b146104965780639c94f651146104c1578063a120c14f146104ea578063b1050da5146105155761019c565b806383ac74f9146103f3578063860838a51461041c5780638d23fc61146104595761019c565b8063371fa854116101595780636122698f116101335780636122698f1461035f578063715018a61461038a5780637563dd54146103a157806382f4f5b4146103ca5761019c565b8063371fa854146102ce5780633e410717146102f957806351bcc28b146103225761019c565b8063013cf08b146101a157806303d41e0e146101e75780631268b7d2146102245780631703a0181461024d578063184a0ae91461027857806330dce62b146102a3575b600080fd5b3480156101ad57600080fd5b506101c860048036038101906101c391906125a7565b61068c565b6040516101de9a99989796959493929190612b62565b60405180910390f35b3480156101f357600080fd5b5061020e600480360381019061020991906123f6565b61084a565b60405161021b9190612c35565b60405180910390f35b34801561023057600080fd5b5061024b60048036038101906102469190612542565b61086a565b005b34801561025957600080fd5b50610262610a5f565b60405161026f9190612de1565b60405180910390f35b34801561028457600080fd5b5061028d610a65565b60405161029a9190612de1565b60405180910390f35b3480156102af57600080fd5b506102b8610a6b565b6040516102c59190612c86565b60405180910390f35b3480156102da57600080fd5b506102e3610a91565b6040516102f09190612de1565b60405180910390f35b34801561030557600080fd5b50610320600480360381019061031b91906123f6565b610a97565b005b34801561032e57600080fd5b50610349600480360381019061034491906123f6565b610c62565b6040516103569190612c35565b60405180910390f35b34801561036b57600080fd5b50610374610c82565b6040516103819190612c50565b60405180910390f35b34801561039657600080fd5b5061039f610ca8565b005b3480156103ad57600080fd5b506103c860048036038101906103c39190612473565b610de2565b005b3480156103d657600080fd5b506103f160048036038101906103ec9190612542565b610ea9565b005b3480156103ff57600080fd5b5061041a60048036038101906104159190612542565b610fc8565b005b34801561042857600080fd5b50610443600480360381019061043e91906123f6565b6110e7565b6040516104509190612c35565b60405180910390f35b34801561046557600080fd5b50610480600480360381019061047b91906123f6565b611107565b60405161048d9190612c35565b60405180910390f35b3480156104a257600080fd5b506104ab611127565b6040516104b89190612b17565b60405180910390f35b3480156104cd57600080fd5b506104e860048036038101906104e39190612542565b611150565b005b3480156104f657600080fd5b506104ff61126f565b60405161050c9190612c6b565b60405180910390f35b61052f600480360381019061052a91906124af565b611295565b60405161053c9190612de1565b60405180910390f35b34801561055157600080fd5b5061056c6004803603810190610567919061241f565b6114a8565b005b34801561057a57600080fd5b50610595600480360381019061059091906125a7565b611622565b005b3480156105a357600080fd5b506105be60048036038101906105b991906123f6565b6116a8565b6040516105cb9190612de1565b60405180910390f35b3480156105e057600080fd5b506105fb60048036038101906105f691906125f9565b6116c0565b005b34801561060957600080fd5b50610624600480360381019061061f9190612542565b611b2e565b005b34801561063257600080fd5b5061064d600480360381019061064891906123f6565b611c4d565b005b34801561065b57600080fd5b50610676600480360381019061067191906123f6565b611df6565b6040516106839190612c35565b60405180910390f35b60096020528060005260406000206000915090508060000160009054906101000a900473ffffffffffffffffffffffffffffffffffffffff16908060010160009054906101000a900473ffffffffffffffffffffffffffffffffffffffff16908060020154908060030154908060040154908060050154908060060160009054906101000a900460ff16908060060160019054906101000a900460ff169080600701805461073990613294565b80601f016020809104026020016040519081016040528092919081815260200182805461076590613294565b80156107b25780601f10610787576101008083540402835291602001916107b2565b820191906000526020600020905b81548152906001019060200180831161079557829003601f168201915b5050505050908060080180546107c790613294565b80601f01602080910402602001604051908101604052809291908181526020018280546107f390613294565b80156108405780601f1061081557610100808354040283529160200191610840565b820191906000526020600020905b81548152906001019060200180831161082357829003601f168201915b505050505090508a565b600b6020528060005260406000206000915054906101000a900460ff1681565b610872611e16565b73ffffffffffffffffffffffffffffffffffffffff16610890611127565b73ffffffffffffffffffffffffffffffffffffffff16146108e6576040517f08c379a00000000000000000000000000000000000000000000000000000000081526004016108dd90612d61565b60405180910390fd5b6000811180156108f65750600481105b610935576040517f08c379a000000000000000000000000000000000000000000000000000000000815260040161092c90612d21565b60405180910390fd5b6001811415610997576001600a60008473ffffffffffffffffffffffffffffffffffffffff1673ffffffffffffffffffffffffffffffffffffffff16815260200190815260200160002060006101000a81548160ff0219169083151502179055505b60028114156109f9576001600b60008473ffffffffffffffffffffffffffffffffffffffff1673ffffffffffffffffffffffffffffffffffffffff16815260200190815260200160002060006101000a81548160ff0219169083151502179055505b6003811415610a5b576001600c60008473ffffffffffffffffffffffffffffffffffffffff1673ffffffffffffffffffffffffffffffffffffffff16815260200190815260200160002060006101000a81548160ff0219169083151502179055505b5050565b60035481565b60025481565b600560009054906101000a900473ffffffffffffffffffffffffffffffffffffffff1681565b60015481565b610a9f611e16565b73ffffffffffffffffffffffffffffffffffffffff16610abd611127565b73ffffffffffffffffffffffffffffffffffffffff1614610b13576040517f08c379a0000000000000000000000000000000000000000000000000000000008152600401610b0a90612d61565b60405180910390fd5b600760008273ffffffffffffffffffffffffffffffffffffffff1673ffffffffffffffffffffffffffffffffffffffff16815260200190815260200160002060009054906101000a900460ff1615610bc2576000600760008373ffffffffffffffffffffffffffffffffffffffff1673ffffffffffffffffffffffffffffffffffffffff16815260200190815260200160002060006101000a81548160ff021916908315150217905550610c5f565b6001600760008373ffffffffffffffffffffffffffffffffffffffff1673ffffffffffffffffffffffffffffffffffffffff16815260200190815260200160002060006101000a81548160ff02191690831515021790555042600860008373ffffffffffffffffffffffffffffffffffffffff1673ffffffffffffffffffffffffffffffffffffffff168152602001908152602001600020819055505b50565b600c6020528060005260406000206000915054906101000a900460ff1681565b600660009054906101000a900473ffffffffffffffffffffffffffffffffffffffff1681565b610cb0611e16565b73ffffffffffffffffffffffffffffffffffffffff16610cce611127565b73ffffffffffffffffffffffffffffffffffffffff1614610d24576040517f08c379a0000000000000000000000000000000000000000000000000000000008152600401610d1b90612d61565b60405180910390fd5b600073ffffffffffffffffffffffffffffffffffffffff1660008054906101000a900473ffffffffffffffffffffffffffffffffffffffff1673ffffffffffffffffffffffffffffffffffffffff167f8be0079c531659141344cd1fd0a4f28419497f9722a3daafe3b4186f6b6457e060405160405180910390a360008060006101000a81548173ffffffffffffffffffffffffffffffffffffffff021916908373ffffffffffffffffffffffffffffffffffffffff160217905550565b610dea611e16565b73ffffffffffffffffffffffffffffffffffffffff16610e08611127565b73ffffffffffffffffffffffffffffffffffffffff1614610e5e576040517f08c379a0000000000000000000000000000000000000000000000000000000008152600401610e5590612d61565b60405180910390fd5b8173ffffffffffffffffffffffffffffffffffffffff166108fc829081150290604051600060405180830381858888f19350505050158015610ea4573d6000803e3d6000fd5b505050565b600a60003373ffffffffffffffffffffffffffffffffffffffff1673ffffffffffffffffffffffffffffffffffffffff16815260200190815260200160002060009054906101000a900460ff16610f35576040517f08c379a0000000000000000000000000000000000000000000000000000000008152600401610f2c90612cc1565b60405180910390fd5b600560009054906101000a900473ffffffffffffffffffffffffffffffffffffffff1673ffffffffffffffffffffffffffffffffffffffff16638896637e83836040518363ffffffff1660e01b8152600401610f92929190612c0c565b600060405180830381600087803b158015610fac57600080fd5b505af1158015610fc0573d6000803e3d6000fd5b505050505050565b600a60003373ffffffffffffffffffffffffffffffffffffffff1673ffffffffffffffffffffffffffffffffffffffff16815260200190815260200160002060009054906101000a900460ff16611054576040517f08c379a000000000000000000000000000000000000000000000000000000000815260040161104b90612cc1565b60405180910390fd5b600460009054906101000a900473ffffffffffffffffffffffffffffffffffffffff1673ffffffffffffffffffffffffffffffffffffffff16637daf440d83836040518363ffffffff1660e01b81526004016110b1929190612c0c565b600060405180830381600087803b1580156110cb57600080fd5b505af11580156110df573d6000803e3d6000fd5b505050505050565b60076020528060005260406000206000915054906101000a900460ff1681565b600d6020528060005260406000206000915054906101000a900460ff1681565b60008060009054906101000a900473ffffffffffffffffffffffffffffffffffffffff16905090565b600b60003373ffffffffffffffffffffffffffffffffffffffff1673ffffffffffffffffffffffffffffffffffffffff16815260200190815260200160002060009054906101000a900460ff166111dc576040517f08c379a00000000000000000000000000000000000000000000000000000000081526004016111d390612d41565b60405180910390fd5b600560009054906101000a900473ffffffffffffffffffffffffffffffffffffffff1673ffffffffffffffffffffffffffffffffffffffff16637468b9ba83836040518363ffffffff1660e01b8152600401611239929190612c0c565b600060405180830381600087803b15801561125357600080fd5b505af1158015611267573d6000803e3d6000fd5b505050505050565b600460009054906101000a900473ffffffffffffffffffffffffffffffffffffffff1681565b6000600660009054906101000a900473ffffffffffffffffffffffffffffffffffffffff1673ffffffffffffffffffffffffffffffffffffffff1663247f8e14336040518263ffffffff1660e01b81526004016112f29190612b17565b60206040518083038186803b15801561130a57600080fd5b505afa15801561131e573d6000803e3d6000fd5b505050506040513d601f19601f82011682018060405250810190611342919061257e565b611381576040517f08c379a000000000000000000000000000000000000000000000000000000000815260040161137890612d01565b60405180910390fd5b60016000815480929190611394906132c6565b919050555060006009600060015481526020019081526020016000209050338160000160006101000a81548173ffffffffffffffffffffffffffffffffffffffff021916908373ffffffffffffffffffffffffffffffffffffffff160217905550858160010160006101000a81548173ffffffffffffffffffffffffffffffffffffffff021916908373ffffffffffffffffffffffffffffffffffffffff1602179055508481600501819055506000816003018190555060008160040181905550600081600501819055504281600201819055508381600701908051906020019061148092919061217f565b5082816008019080519060200190611499929190612205565b50600154915050949350505050565b600d60003373ffffffffffffffffffffffffffffffffffffffff1673ffffffffffffffffffffffffffffffffffffffff16815260200190815260200160002060009054906101000a900460ff16611534576040517f08c379a000000000000000000000000000000000000000000000000000000000815260040161152b90612d81565b60405180910390fd5b6000808373ffffffffffffffffffffffffffffffffffffffff168360405161155c9190612b00565b6000604051808303816000865af19150503d8060008114611599576040519150601f19603f3d011682016040523d82523d6000602084013e61159e565b606091505b5091509150816115e3576040517f08c379a00000000000000000000000000000000000000000000000000000000081526004016115da90612ca1565b60405180910390fd5b7f0d655f469da3540d6d1544bc544b2b76944af903f3df556b9666822dbebc85f58482604051611614929190612b32565b60405180910390a150505050565b61162a611e16565b73ffffffffffffffffffffffffffffffffffffffff16611648611127565b73ffffffffffffffffffffffffffffffffffffffff161461169e576040517f08c379a000000000000000000000000000000000000000000000000000000000815260040161169590612d61565b60405180910390fd5b8060038190555050565b60086020528060005260406000206000915090505481565b600660009054906101000a900473ffffffffffffffffffffffffffffffffffffffff1673ffffffffffffffffffffffffffffffffffffffff1663247f8e14336040518263ffffffff1660e01b815260040161171b9190612b17565b60206040518083038186803b15801561173357600080fd5b505afa158015611747573d6000803e3d6000fd5b505050506040513d601f19601f8201168201806040525081019061176b919061257e565b6117aa576040517f08c379a00000000000000000000000000000000000000000000000000000000081526004016117a190612d01565b60405180910390fd5b60006009600084815260200190815260200160002090506001151581600a0160003373ffffffffffffffffffffffffffffffffffffffff1673ffffffffffffffffffffffffffffffffffffffff16815260200190815260200160002060009054906101000a900460ff1615151415611857576040517f08c379a000000000000000000000000000000000000000000000000000000000815260040161184e90612da1565b60405180910390fd5b6000600660009054906101000a900473ffffffffffffffffffffffffffffffffffffffff1673ffffffffffffffffffffffffffffffffffffffff166359d177e6336040518263ffffffff1660e01b81526004016118b49190612b17565b60206040518083038186803b1580156118cc57600080fd5b505afa1580156118e0573d6000803e3d6000fd5b505050506040513d601f19601f8201168201806040525081019061190491906125d0565b905081600401600081548092919061191b906132c6565b919050558260040181905550604051806060016040528084151581526020013373ffffffffffffffffffffffffffffffffffffffff168152602001828152508260090160008460040154815260200190815260200160002060008201518160000160006101000a81548160ff02191690831515021790555060208201518160000160016101000a81548173ffffffffffffffffffffffffffffffffffffffff021916908373ffffffffffffffffffffffffffffffffffffffff160217905550604082015181600101559050506119fe818360030154611e1e90919063ffffffff16565b8260030181905550600182600a0160003373ffffffffffffffffffffffffffffffffffffffff1673ffffffffffffffffffffffffffffffffffffffff16815260200190815260200160002060006101000a81548160ff0219169083151502179055506000600560009054906101000a900473ffffffffffffffffffffffffffffffffffffffff1673ffffffffffffffffffffffffffffffffffffffff166318160ddd6040518163ffffffff1660e01b815260040160206040518083038186803b158015611aca57600080fd5b505afa158015611ade573d6000803e3d6000fd5b505050506040513d601f19601f82011682018060405250810190611b0291906125d0565b90506000611b14846003015483611e34565b90508015611b2657611b2586611e76565b5b505050505050565b600b60003373ffffffffffffffffffffffffffffffffffffffff1673ffffffffffffffffffffffffffffffffffffffff16815260200190815260200160002060009054906101000a900460ff16611bba576040517f08c379a0000000000000000000000000000000000000000000000000000000008152600401611bb190612d41565b60405180910390fd5b600460009054906101000a900473ffffffffffffffffffffffffffffffffffffffff1673ffffffffffffffffffffffffffffffffffffffff1663eb97781583836040518363ffffffff1660e01b8152600401611c17929190612c0c565b600060405180830381600087803b158015611c3157600080fd5b505af1158015611c45573d6000803e3d6000fd5b505050505050565b611c55611e16565b73ffffffffffffffffffffffffffffffffffffffff16611c73611127565b73ffffffffffffffffffffffffffffffffffffffff1614611cc9576040517f08c379a0000000000000000000000000000000000000000000000000000000008152600401611cc090612d61565b60405180910390fd5b600073ffffffffffffffffffffffffffffffffffffffff168173ffffffffffffffffffffffffffffffffffffffff161415611d39576040517f08c379a0000000000000000000000000000000000000000000000000000000008152600401611d3090612ce1565b60405180910390fd5b8073ffffffffffffffffffffffffffffffffffffffff1660008054906101000a900473ffffffffffffffffffffffffffffffffffffffff1673ffffffffffffffffffffffffffffffffffffffff167f8be0079c531659141344cd1fd0a4f28419497f9722a3daafe3b4186f6b6457e060405160405180910390a3806000806101000a81548173ffffffffffffffffffffffffffffffffffffffff021916908373ffffffffffffffffffffffffffffffffffffffff16021790555050565b600a6020528060005260406000206000915054906101000a900460ff1681565b600033905090565b60008183611e2c9190612ed0565b905092915050565b600080611e438484600261210c565b905082841415611e57576001915050611e70565b6003548110611e6a576001915050611e70565b60009150505b92915050565b6000600960008381526020019081526020016000209050600254611ea782600201544261216990919063ffffffff16565b10611eeb5760018160060160006101000a81548160ff02191690831515021790555060008160060160016101000a81548160ff021916908315150217905550612108565b8060060160009054906101000a900460ff1615611f3d576040517f08c379a0000000000000000000000000000000000000000000000000000000008152600401611f3490612dc1565b60405180910390fd5b60008060005b83600401548111611fc857600084600901600083815260200190815260200160002090508060000160009054906101000a900460ff1615611f9c57611f95816001015485611e1e90919063ffffffff16565b9350611fb6565b611fb3816001015484611e1e90919063ffffffff16565b92505b5080611fc1906132c6565b9050611f43565b50808211156120ca5761208b8360010160009054906101000a900473ffffffffffffffffffffffffffffffffffffffff1684600801805461200890613294565b80601f016020809104026020016040519081016040528092919081815260200182805461203490613294565b80156120815780601f1061205657610100808354040283529160200191612081565b820191906000526020600020905b81548152906001019060200180831161206457829003601f168201915b50505050506114a8565b60018360060160006101000a81548160ff02191690831515021790555060018360060160016101000a81548160ff021916908315150217905550612105565b60018360060160006101000a81548160ff02191690831515021790555060008360060160016101000a81548160ff0219169083151502179055505b50505b5050565b60008060018361211c9190612ed0565b600a6121289190612faa565b8561213391906130c8565b90506000600a600586846121479190612f26565b6121519190612ed0565b61215b9190612f26565b905080925050509392505050565b600081836121779190613122565b905092915050565b82805461218b90613294565b90600052602060002090601f0160209004810192826121ad57600085556121f4565b82601f106121c657805160ff19168380011785556121f4565b828001600101855582156121f4579182015b828111156121f35782518255916020019190600101906121d8565b5b509050612201919061228b565b5090565b82805461221190613294565b90600052602060002090601f016020900481019282612233576000855561227a565b82601f1061224c57805160ff191683800117855561227a565b8280016001018555821561227a579182015b8281111561227957825182559160200191906001019061225e565b5b509050612287919061228b565b5090565b5b808211156122a457600081600090555060010161228c565b5090565b60006122bb6122b684612e2d565b612dfc565b9050828152602081018484840111156122d357600080fd5b6122de848285613252565b509392505050565b60006122f96122f484612e5d565b612dfc565b90508281526020810184848401111561231157600080fd5b61231c848285613252565b509392505050565b600081359050612333816133e9565b92915050565b60008135905061234881613400565b92915050565b60008135905061235d81613417565b92915050565b60008151905061237281613417565b92915050565b600082601f83011261238957600080fd5b81356123998482602086016122a8565b91505092915050565b600082601f8301126123b357600080fd5b81356123c38482602086016122e6565b91505092915050565b6000813590506123db8161342e565b92915050565b6000815190506123f08161342e565b92915050565b60006020828403121561240857600080fd5b600061241684828501612324565b91505092915050565b6000806040838503121561243257600080fd5b600061244085828601612339565b925050602083013567ffffffffffffffff81111561245d57600080fd5b61246985828601612378565b9150509250929050565b6000806040838503121561248657600080fd5b600061249485828601612339565b92505060206124a5858286016123cc565b9150509250929050565b600080600080608085870312156124c557600080fd5b60006124d387828801612339565b94505060206124e4878288016123cc565b935050604085013567ffffffffffffffff81111561250157600080fd5b61250d878288016123a2565b925050606085013567ffffffffffffffff81111561252a57600080fd5b61253687828801612378565b91505092959194509250565b6000806040838503121561255557600080fd5b600061256385828601612324565b9250506020612574858286016123cc565b9150509250929050565b60006020828403121561259057600080fd5b600061259e84828501612363565b91505092915050565b6000602082840312156125b957600080fd5b60006125c7848285016123cc565b91505092915050565b6000602082840312156125e257600080fd5b60006125f0848285016123e1565b91505092915050565b6000806040838503121561260c57600080fd5b600061261a858286016123cc565b925050602061262b8582860161234e565b9150509250929050565b61263e816131b0565b82525050565b61264d81613168565b82525050565b61265c81613156565b82525050565b61266b8161317a565b82525050565b600061267c82612e8d565b6126868185612ea3565b9350612696818560208601613261565b61269f816133cb565b840191505092915050565b60006126b582612e8d565b6126bf8185612eb4565b93506126cf818560208601613261565b80840191505092915050565b6126e4816131c2565b82525050565b6126f3816131e6565b82525050565b6127028161320a565b82525050565b600061271382612e98565b61271d8185612ebf565b935061272d818560208601613261565b612736816133cb565b840191505092915050565b600061274e601b83612ebf565b91507f64656c656761746546756e6374696f6e43616c6c204661696c656400000000006000830152602082019050919050565b600061278e602483612ebf565b91507f446563656e747261436f72653a2043616c6c6572206973206e6f742061206d6960008301527f6e746572000000000000000000000000000000000000000000000000000000006020830152604082019050919050565b60006127f4602683612ebf565b91507f4f776e61626c653a206e6577206f776e657220697320746865207a65726f206160008301527f64647265737300000000000000000000000000000000000000000000000000006020830152604082019050919050565b600061285a602c83612ebf565b91507f446563656e747261436f72653a2043616c6c6572206973206e6f7420616e206160008301527f6374697665206d656d62657200000000000000000000000000000000000000006020830152604082019050919050565b60006128c0602583612ebf565b91507f446563656e747261436f72653a20496e76616c696420496e707574205072697660008301527f6c656467650000000000000000000000000000000000000000000000000000006020830152604082019050919050565b6000612926602483612ebf565b91507f446563656e747261436f72653a2043616c6c6572206973206e6f74206120627560008301527f726e6572000000000000000000000000000000000000000000000000000000006020830152604082019050919050565b600061298c602083612ebf565b91507f4f776e61626c653a2063616c6c6572206973206e6f7420746865206f776e65726000830152602082019050919050565b60006129cc602783612ebf565b91507f446563656e747261436f72653a2043616c6c6572206973206e6f74206120646560008301527f6c656761746f72000000000000000000000000000000000000000000000000006020830152604082019050919050565b6000612a32602783612ebf565b91507f596f75204861766520616c726561647920766f746564206f6e2074686973207060008301527f726f706f73616c000000000000000000000000000000000000000000000000006020830152604082019050919050565b6000612a98602783612ebf565b91507f546869732070726f706f73616c2068617320616c7265616479206265656e206560008301527f78656375746564000000000000000000000000000000000000000000000000006020830152604082019050919050565b612afa816131a6565b82525050565b6000612b0c82846126aa565b915081905092915050565b6000602082019050612b2c6000830184612653565b92915050565b6000604082019050612b476000830185612635565b8181036020830152612b598184612671565b90509392505050565b600061014082019050612b78600083018d612653565b612b85602083018c612644565b612b92604083018b612af1565b612b9f606083018a612af1565b612bac6080830189612af1565b612bb960a0830188612af1565b612bc660c0830187612662565b612bd360e0830186612662565b818103610100830152612be68185612708565b9050818103610120830152612bfb8184612671565b90509b9a5050505050505050505050565b6000604082019050612c216000830185612653565b612c2e6020830184612af1565b9392505050565b6000602082019050612c4a6000830184612662565b92915050565b6000602082019050612c6560008301846126db565b92915050565b6000602082019050612c8060008301846126ea565b92915050565b6000602082019050612c9b60008301846126f9565b92915050565b60006020820190508181036000830152612cba81612741565b9050919050565b60006020820190508181036000830152612cda81612781565b9050919050565b60006020820190508181036000830152612cfa816127e7565b9050919050565b60006020820190508181036000830152612d1a8161284d565b9050919050565b60006020820190508181036000830152612d3a816128b3565b9050919050565b60006020820190508181036000830152612d5a81612919565b9050919050565b60006020820190508181036000830152612d7a8161297f565b9050919050565b60006020820190508181036000830152612d9a816129bf565b9050919050565b60006020820190508181036000830152612dba81612a25565b9050919050565b60006020820190508181036000830152612dda81612a8b565b9050919050565b6000602082019050612df66000830184612af1565b92915050565b6000604051905081810181811067ffffffffffffffff82111715612e2357612e2261339c565b5b8060405250919050565b600067ffffffffffffffff821115612e4857612e4761339c565b5b601f19601f8301169050602081019050919050565b600067ffffffffffffffff821115612e7857612e7761339c565b5b601f19601f8301169050602081019050919050565b600081519050919050565b600081519050919050565b600082825260208201905092915050565b600081905092915050565b600082825260208201905092915050565b6000612edb826131a6565b9150612ee6836131a6565b9250827fffffffffffffffffffffffffffffffffffffffffffffffffffffffffffffffff03821115612f1b57612f1a61330f565b5b828201905092915050565b6000612f31826131a6565b9150612f3c836131a6565b925082612f4c57612f4b61333e565b5b828204905092915050565b6000808291508390505b6001851115612fa157808604811115612f7d57612f7c61330f565b5b6001851615612f8c5780820291505b8081029050612f9a856133dc565b9450612f61565b94509492505050565b6000612fb5826131a6565b9150612fc0836131a6565b9250612fed7fffffffffffffffffffffffffffffffffffffffffffffffffffffffffffffffff8484612ff5565b905092915050565b60008261300557600190506130c1565b8161301357600090506130c1565b8160018114613029576002811461303357613062565b60019150506130c1565b60ff8411156130455761304461330f565b5b8360020a91508482111561305c5761305b61330f565b5b506130c1565b5060208310610133831016604e8410600b84101617156130975782820a9050838111156130925761309161330f565b5b6130c1565b6130a48484846001612f57565b925090508184048111156130bb576130ba61330f565b5b81810290505b9392505050565b60006130d3826131a6565b91506130de836131a6565b9250817fffffffffffffffffffffffffffffffffffffffffffffffffffffffffffffffff04831182151516156131175761311661330f565b5b828202905092915050565b600061312d826131a6565b9150613138836131a6565b92508282101561314b5761314a61330f565b5b828203905092915050565b600061316182613186565b9050919050565b600061317382613186565b9050919050565b60008115159050919050565b600073ffffffffffffffffffffffffffffffffffffffff82169050919050565b6000819050919050565b60006131bb8261322e565b9050919050565b60006131cd826131d4565b9050919050565b60006131df82613186565b9050919050565b60006131f1826131f8565b9050919050565b600061320382613186565b9050919050565b60006132158261321c565b9050919050565b600061322782613186565b9050919050565b600061323982613240565b9050919050565b600061324b82613186565b9050919050565b82818337600083830152505050565b60005b8381101561327f578082015181840152602081019050613264565b8381111561328e576000848401525b50505050565b600060028204905060018216806132ac57607f821691505b602082108114156132c0576132bf61336d565b5b50919050565b60006132d1826131a6565b91507fffffffffffffffffffffffffffffffffffffffffffffffffffffffffffffffff8214156133045761330361330f565b5b600182019050919050565b7f4e487b7100000000000000000000000000000000000000000000000000000000600052601160045260246000fd5b7f4e487b7100000000000000000000000000000000000000000000000000000000600052601260045260246000fd5b7f4e487b7100000000000000000000000000000000000000000000000000000000600052602260045260246000fd5b7f4e487b7100000000000000000000000000000000000000000000000000000000600052604160045260246000fd5b6000601f19601f8301169050919050565b60008160011c9050919050565b6133f281613156565b81146133fd57600080fd5b50565b61340981613168565b811461341457600080fd5b50565b6134208161317a565b811461342b57600080fd5b50565b613437816131a6565b811461344257600080fd5b5056fea264697066735822122085fa4f984247cfc2d370943e481a1a051ed3620a1d67ba313dee2fcaf4cca64864736f6c63430008000033",
  "linkReferences": {},
  "deployedLinkReferences": {}
}