{
  "_format": "hh-sol-artifact-1",
  "contractName": "DecentraCore",
  "sourceName": "contracts/DecentraCore.sol",
  "abi": [
    {
      "inputs": [
        {
          "internalType": "address",
          "name": "_dDollar",
          "type": "address"
        },
        {
          "internalType": "address",
          "name": "_dStock",
          "type": "address"
        },
        {
          "internalType": "address",
          "name": "_dScore",
          "type": "address"
        }
      ],
      "stateMutability": "nonpayable",
      "type": "constructor"
    },
    {
      "anonymous": false,
      "inputs": [
        {
          "indexed": false,
          "internalType": "address",
          "name": "target",
          "type": "address"
        },
        {
          "indexed": false,
          "internalType": "uint256",
          "name": "amount",
          "type": "uint256"
        },
        {
          "indexed": false,
          "internalType": "bytes",
          "name": "call_data",
          "type": "bytes"
        }
      ],
      "name": "FunctionCallDelegated",
      "type": "event"
    },
    {
      "anonymous": false,
      "inputs": [
        {
          "indexed": false,
          "internalType": "uint256",
          "name": "proposalId",
          "type": "uint256"
        },
        {
          "indexed": false,
          "internalType": "uint256",
          "name": "proposalAmount",
          "type": "uint256"
        },
        {
          "indexed": false,
          "internalType": "address",
          "name": "target",
          "type": "address"
        },
        {
          "indexed": false,
          "internalType": "bytes",
          "name": "call_data",
          "type": "bytes"
        }
      ],
      "name": "NewProposal",
      "type": "event"
    },
    {
      "anonymous": false,
      "inputs": [
        {
          "indexed": false,
          "internalType": "uint256",
          "name": "proposalId",
          "type": "uint256"
        },
        {
          "indexed": false,
          "internalType": "address",
          "name": "voter",
          "type": "address"
        },
        {
          "indexed": false,
          "internalType": "bool",
          "name": "vote",
          "type": "bool"
        }
      ],
      "name": "NewVote",
      "type": "event"
    },
    {
      "anonymous": false,
      "inputs": [
        {
          "indexed": true,
          "internalType": "address",
          "name": "previousOwner",
          "type": "address"
        },
        {
          "indexed": true,
          "internalType": "address",
          "name": "newOwner",
          "type": "address"
        }
      ],
      "name": "OwnershipTransferred",
      "type": "event"
    },
    {
      "anonymous": false,
      "inputs": [
        {
          "indexed": false,
          "internalType": "uint256",
          "name": "proposalId",
          "type": "uint256"
        },
        {
          "indexed": false,
          "internalType": "bool",
          "name": "success",
          "type": "bool"
        }
      ],
      "name": "ProposalApproved",
      "type": "event"
    },
    {
      "stateMutability": "payable",
      "type": "fallback"
    },
    {
      "inputs": [
        {
          "internalType": "address",
          "name": "",
          "type": "address"
        }
      ],
      "name": "burners",
      "outputs": [
        {
          "internalType": "bool",
          "name": "",
          "type": "bool"
        }
      ],
      "stateMutability": "view",
      "type": "function"
    },
    {
      "inputs": [],
      "name": "dScore",
      "outputs": [
        {
          "internalType": "contract IDScore",
          "name": "",
          "type": "address"
        }
      ],
      "stateMutability": "view",
      "type": "function"
    },
    {
      "inputs": [
        {
          "internalType": "address",
          "name": "",
          "type": "address"
        }
      ],
      "name": "dScoreMod",
      "outputs": [
        {
          "internalType": "bool",
          "name": "",
          "type": "bool"
        }
      ],
      "stateMutability": "view",
      "type": "function"
    },
    {
      "inputs": [],
      "name": "dd",
      "outputs": [
        {
          "internalType": "contract IDecentraDollar",
          "name": "",
          "type": "address"
        }
      ],
      "stateMutability": "view",
      "type": "function"
    },
    {
      "inputs": [
        {
          "internalType": "address payable",
          "name": "_target",
          "type": "address"
        },
        {
          "internalType": "uint256",
          "name": "_amount",
          "type": "uint256"
        },
        {
          "internalType": "bytes",
          "name": "call_data",
          "type": "bytes"
        }
      ],
      "name": "delegateFunctionCall",
      "outputs": [],
      "stateMutability": "nonpayable",
      "type": "function"
    },
    {
      "inputs": [
        {
          "internalType": "address",
          "name": "",
          "type": "address"
        }
      ],
      "name": "delegators",
      "outputs": [
        {
          "internalType": "bool",
          "name": "",
          "type": "bool"
        }
      ],
      "stateMutability": "view",
      "type": "function"
    },
    {
      "inputs": [],
      "name": "ds",
      "outputs": [
        {
          "internalType": "contract IDecentraStock",
          "name": "",
          "type": "address"
        }
      ],
      "stateMutability": "view",
      "type": "function"
    },
    {
      "inputs": [
        {
          "internalType": "address",
          "name": "",
          "type": "address"
        }
      ],
      "name": "freezeFrame",
      "outputs": [
        {
          "internalType": "uint256",
          "name": "",
          "type": "uint256"
        }
      ],
      "stateMutability": "view",
      "type": "function"
    },
    {
      "inputs": [
        {
          "internalType": "address",
          "name": "_member",
          "type": "address"
        }
      ],
      "name": "freezeMember",
      "outputs": [],
      "stateMutability": "nonpayable",
      "type": "function"
    },
    {
      "inputs": [
        {
          "internalType": "address",
          "name": "",
          "type": "address"
        }
      ],
      "name": "frozenAccounts",
      "outputs": [
        {
          "internalType": "bool",
          "name": "",
          "type": "bool"
        }
      ],
      "stateMutability": "view",
      "type": "function"
    },
    {
      "inputs": [
        {
          "internalType": "address",
          "name": "",
          "type": "address"
        }
      ],
      "name": "minters",
      "outputs": [
        {
          "internalType": "bool",
          "name": "",
          "type": "bool"
        }
      ],
      "stateMutability": "view",
      "type": "function"
    },
    {
      "inputs": [
        {
          "internalType": "address payable",
          "name": "_target",
          "type": "address"
        },
        {
          "internalType": "uint256",
          "name": "_amount",
          "type": "uint256"
        },
        {
          "internalType": "string",
          "name": "_proposalHash",
          "type": "string"
        },
        {
          "internalType": "bytes",
          "name": "_calldata",
          "type": "bytes"
        }
      ],
      "name": "newProposal",
      "outputs": [
        {
          "internalType": "uint256",
          "name": "",
          "type": "uint256"
        }
      ],
      "stateMutability": "payable",
      "type": "function"
    },
    {
      "inputs": [],
      "name": "owner",
      "outputs": [
        {
          "internalType": "address",
          "name": "",
          "type": "address"
        }
      ],
      "stateMutability": "view",
      "type": "function"
    },
    {
      "inputs": [],
      "name": "proposalID",
      "outputs": [
        {
          "internalType": "uint256",
          "name": "",
          "type": "uint256"
        }
      ],
      "stateMutability": "view",
      "type": "function"
    },
    {
      "inputs": [],
      "name": "proposalTime",
      "outputs": [
        {
          "internalType": "uint256",
          "name": "",
          "type": "uint256"
        }
      ],
      "stateMutability": "view",
      "type": "function"
    },
    {
      "inputs": [
        {
          "internalType": "uint256",
          "name": "",
          "type": "uint256"
        }
      ],
      "name": "proposals",
      "outputs": [
        {
          "internalType": "address",
          "name": "maker",
          "type": "address"
        },
        {
          "internalType": "address payable",
          "name": "target",
          "type": "address"
        },
        {
          "internalType": "uint256",
          "name": "timeCreated",
          "type": "uint256"
        },
        {
          "internalType": "uint256",
          "name": "voteWeights",
          "type": "uint256"
        },
        {
          "internalType": "uint256",
          "name": "voteID",
          "type": "uint256"
        },
        {
          "internalType": "uint256",
          "name": "amount",
          "type": "uint256"
        },
        {
          "internalType": "bool",
          "name": "executed",
          "type": "bool"
        },
        {
          "internalType": "bool",
          "name": "proposalPassed",
          "type": "bool"
        },
        {
          "internalType": "string",
          "name": "proposalHash",
          "type": "string"
        },
        {
          "internalType": "bytes",
          "name": "call_data",
          "type": "bytes"
        }
      ],
      "stateMutability": "view",
      "type": "function"
    },
    {
      "inputs": [
        {
          "internalType": "address",
          "name": "_from",
          "type": "address"
        },
        {
          "internalType": "uint256",
          "name": "_amount",
          "type": "uint256"
        }
      ],
      "name": "proxyBurnDD",
      "outputs": [],
      "stateMutability": "nonpayable",
      "type": "function"
    },
    {
      "inputs": [
        {
          "internalType": "address",
          "name": "_from",
          "type": "address"
        },
        {
          "internalType": "uint256",
          "name": "_amount",
          "type": "uint256"
        }
      ],
      "name": "proxyBurnDS",
      "outputs": [],
      "stateMutability": "nonpayable",
      "type": "function"
    },
    {
      "inputs": [
        {
          "internalType": "address",
          "name": "_to",
          "type": "address"
        },
        {
          "internalType": "uint256",
          "name": "_amount",
          "type": "uint256"
        }
      ],
      "name": "proxyMintDD",
      "outputs": [],
      "stateMutability": "nonpayable",
      "type": "function"
    },
    {
      "inputs": [
        {
          "internalType": "address",
          "name": "_to",
          "type": "address"
        },
        {
          "internalType": "uint256",
          "name": "_amount",
          "type": "uint256"
        }
      ],
      "name": "proxyMintDS",
      "outputs": [],
      "stateMutability": "nonpayable",
      "type": "function"
    },
    {
      "inputs": [],
      "name": "quorum",
      "outputs": [
        {
          "internalType": "uint256",
          "name": "",
          "type": "uint256"
        }
      ],
      "stateMutability": "view",
      "type": "function"
    },
    {
      "inputs": [],
      "name": "renounceOwnership",
      "outputs": [],
      "stateMutability": "nonpayable",
      "type": "function"
    },
    {
      "inputs": [
        {
          "internalType": "address",
          "name": "_contract",
          "type": "address"
        },
        {
          "internalType": "uint256",
          "name": "_privledge",
          "type": "uint256"
        }
      ],
      "name": "setApprovedContract",
      "outputs": [],
      "stateMutability": "nonpayable",
      "type": "function"
    },
    {
      "inputs": [
        {
          "internalType": "uint256",
          "name": "_quorum",
          "type": "uint256"
        }
      ],
      "name": "setQuorum",
      "outputs": [],
      "stateMutability": "nonpayable",
      "type": "function"
    },
    {
      "inputs": [
        {
          "internalType": "address",
          "name": "newOwner",
          "type": "address"
        }
      ],
      "name": "transferOwnership",
      "outputs": [],
      "stateMutability": "nonpayable",
      "type": "function"
    },
    {
      "inputs": [
        {
          "internalType": "address payable",
          "name": "_to",
          "type": "address"
        },
        {
          "internalType": "uint256",
          "name": "_amount",
          "type": "uint256"
        }
      ],
      "name": "transferxDAI",
      "outputs": [],
      "stateMutability": "nonpayable",
      "type": "function"
    },
    {
      "inputs": [
        {
          "internalType": "uint256",
          "name": "_ProposalID",
          "type": "uint256"
        },
        {
          "internalType": "bool",
          "name": "supportsProposal",
          "type": "bool"
        }
      ],
      "name": "vote",
      "outputs": [],
      "stateMutability": "nonpayable",
      "type": "function"
    }
  ],
  "bytecode": "0x60806040523480156200001157600080fd5b506040516200366e3803806200366e8339818101604052810190620000379190620001d2565b600062000049620001b360201b60201c565b9050806000806101000a81548173ffffffffffffffffffffffffffffffffffffffff021916908373ffffffffffffffffffffffffffffffffffffffff1602179055508073ffffffffffffffffffffffffffffffffffffffff16600073ffffffffffffffffffffffffffffffffffffffff167f8be0079c531659141344cd1fd0a4f28419497f9722a3daafe3b4186f6b6457e060405160405180910390a35082600460006101000a81548173ffffffffffffffffffffffffffffffffffffffff021916908373ffffffffffffffffffffffffffffffffffffffff16021790555081600560006101000a81548173ffffffffffffffffffffffffffffffffffffffff021916908373ffffffffffffffffffffffffffffffffffffffff16021790555080600660006101000a81548173ffffffffffffffffffffffffffffffffffffffff021916908373ffffffffffffffffffffffffffffffffffffffff16021790555050505062000276565b600033905090565b600081519050620001cc816200025c565b92915050565b600080600060608486031215620001e857600080fd5b6000620001f886828701620001bb565b93505060206200020b86828701620001bb565b92505060406200021e86828701620001bb565b9150509250925092565b600062000235826200023c565b9050919050565b600073ffffffffffffffffffffffffffffffffffffffff82169050919050565b620002678162000228565b81146200027357600080fd5b50565b6133e880620002866000396000f3fe6080604052600436106101a05760003560e01c806383ac74f9116100ec578063b1050da51161008a578063c9d27afe11610064578063c9d27afe146105d6578063d7c93180146105ff578063f2fde38b14610628578063f46eccc414610651576101a1565b8063b1050da514610540578063c1ba4e5914610570578063c3396bdc14610599576101a1565b80638da5cb5b116100c65780638da5cb5b1461049857806392bd66c0146104c35780639c94f651146104ec578063a120c14f14610515576101a1565b806383ac74f9146103f5578063860838a51461041e5780638d23fc611461045b576101a1565b8063371fa854116101595780636122698f116101335780636122698f14610361578063715018a61461038c5780637563dd54146103a357806382f4f5b4146103cc576101a1565b8063371fa854146102d05780633e410717146102fb57806351bcc28b14610324576101a1565b8063013cf08b146101a357806303d41e0e146101e95780631268b7d2146102265780631703a0181461024f578063184a0ae91461027a57806330dce62b146102a5576101a1565b5b005b3480156101af57600080fd5b506101ca60048036038101906101c59190612589565b61068e565b6040516101e09a99989796959493929190612b05565b60405180910390f35b3480156101f557600080fd5b50610210600480360381019061020b91906123c5565b61084c565b60405161021d9190612bd8565b60405180910390f35b34801561023257600080fd5b5061024d60048036038101906102489190612524565b61086c565b005b34801561025b57600080fd5b50610264610a61565b6040516102719190612d84565b60405180910390f35b34801561028657600080fd5b5061028f610a67565b60405161029c9190612d84565b60405180910390f35b3480156102b157600080fd5b506102ba610a6d565b6040516102c79190612c29565b60405180910390f35b3480156102dc57600080fd5b506102e5610a93565b6040516102f29190612d84565b60405180910390f35b34801561030757600080fd5b50610322600480360381019061031d91906123c5565b610a99565b005b34801561033057600080fd5b5061034b600480360381019061034691906123c5565b610c64565b6040516103589190612bd8565b60405180910390f35b34801561036d57600080fd5b50610376610c84565b6040516103839190612bf3565b60405180910390f35b34801561039857600080fd5b506103a1610caa565b005b3480156103af57600080fd5b506103ca60048036038101906103c591906123ee565b610de4565b005b3480156103d857600080fd5b506103f360048036038101906103ee9190612524565b610eab565b005b34801561040157600080fd5b5061041c60048036038101906104179190612524565b610fca565b005b34801561042a57600080fd5b50610445600480360381019061044091906123c5565b6110e9565b6040516104529190612bd8565b60405180910390f35b34801561046757600080fd5b50610482600480360381019061047d91906123c5565b611109565b60405161048f9190612bd8565b60405180910390f35b3480156104a457600080fd5b506104ad611129565b6040516104ba9190612aea565b60405180910390f35b3480156104cf57600080fd5b506104ea60048036038101906104e5919061242a565b611152565b005b3480156104f857600080fd5b50610513600480360381019061050e9190612524565b611294565b005b34801561052157600080fd5b5061052a6113b3565b6040516105379190612c0e565b60405180910390f35b61055a60048036038101906105559190612491565b6113d9565b6040516105679190612d84565b60405180910390f35b34801561057c57600080fd5b5061059760048036038101906105929190612589565b6115ec565b005b3480156105a557600080fd5b506105c060048036038101906105bb91906123c5565b611672565b6040516105cd9190612d84565b60405180910390f35b3480156105e257600080fd5b506105fd60048036038101906105f891906125db565b61168a565b005b34801561060b57600080fd5b5061062660048036038101906106219190612524565b611af8565b005b34801561063457600080fd5b5061064f600480360381019061064a91906123c5565b611c17565b005b34801561065d57600080fd5b50610678600480360381019061067391906123c5565b611dc0565b6040516106859190612bd8565b60405180910390f35b60096020528060005260406000206000915090508060000160009054906101000a900473ffffffffffffffffffffffffffffffffffffffff16908060010160009054906101000a900473ffffffffffffffffffffffffffffffffffffffff16908060020154908060030154908060040154908060050154908060060160009054906101000a900460ff16908060060160019054906101000a900460ff169080600701805461073b90613201565b80601f016020809104026020016040519081016040528092919081815260200182805461076790613201565b80156107b45780601f10610789576101008083540402835291602001916107b4565b820191906000526020600020905b81548152906001019060200180831161079757829003601f168201915b5050505050908060080180546107c990613201565b80601f01602080910402602001604051908101604052809291908181526020018280546107f590613201565b80156108425780601f1061081757610100808354040283529160200191610842565b820191906000526020600020905b81548152906001019060200180831161082557829003601f168201915b505050505090508a565b600b6020528060005260406000206000915054906101000a900460ff1681565b610874611de0565b73ffffffffffffffffffffffffffffffffffffffff16610892611129565b73ffffffffffffffffffffffffffffffffffffffff16146108e8576040517f08c379a00000000000000000000000000000000000000000000000000000000081526004016108df90612d04565b60405180910390fd5b6000811180156108f85750600481105b610937576040517f08c379a000000000000000000000000000000000000000000000000000000000815260040161092e90612cc4565b60405180910390fd5b6001811415610999576001600a60008473ffffffffffffffffffffffffffffffffffffffff1673ffffffffffffffffffffffffffffffffffffffff16815260200190815260200160002060006101000a81548160ff0219169083151502179055505b60028114156109fb576001600b60008473ffffffffffffffffffffffffffffffffffffffff1673ffffffffffffffffffffffffffffffffffffffff16815260200190815260200160002060006101000a81548160ff0219169083151502179055505b6003811415610a5d576001600c60008473ffffffffffffffffffffffffffffffffffffffff1673ffffffffffffffffffffffffffffffffffffffff16815260200190815260200160002060006101000a81548160ff0219169083151502179055505b5050565b60035481565b60025481565b600560009054906101000a900473ffffffffffffffffffffffffffffffffffffffff1681565b60015481565b610aa1611de0565b73ffffffffffffffffffffffffffffffffffffffff16610abf611129565b73ffffffffffffffffffffffffffffffffffffffff1614610b15576040517f08c379a0000000000000000000000000000000000000000000000000000000008152600401610b0c90612d04565b60405180910390fd5b600760008273ffffffffffffffffffffffffffffffffffffffff1673ffffffffffffffffffffffffffffffffffffffff16815260200190815260200160002060009054906101000a900460ff1615610bc4576000600760008373ffffffffffffffffffffffffffffffffffffffff1673ffffffffffffffffffffffffffffffffffffffff16815260200190815260200160002060006101000a81548160ff021916908315150217905550610c61565b6001600760008373ffffffffffffffffffffffffffffffffffffffff1673ffffffffffffffffffffffffffffffffffffffff16815260200190815260200160002060006101000a81548160ff02191690831515021790555042600860008373ffffffffffffffffffffffffffffffffffffffff1673ffffffffffffffffffffffffffffffffffffffff168152602001908152602001600020819055505b50565b600c6020528060005260406000206000915054906101000a900460ff1681565b600660009054906101000a900473ffffffffffffffffffffffffffffffffffffffff1681565b610cb2611de0565b73ffffffffffffffffffffffffffffffffffffffff16610cd0611129565b73ffffffffffffffffffffffffffffffffffffffff1614610d26576040517f08c379a0000000000000000000000000000000000000000000000000000000008152600401610d1d90612d04565b60405180910390fd5b600073ffffffffffffffffffffffffffffffffffffffff1660008054906101000a900473ffffffffffffffffffffffffffffffffffffffff1673ffffffffffffffffffffffffffffffffffffffff167f8be0079c531659141344cd1fd0a4f28419497f9722a3daafe3b4186f6b6457e060405160405180910390a360008060006101000a81548173ffffffffffffffffffffffffffffffffffffffff021916908373ffffffffffffffffffffffffffffffffffffffff160217905550565b610dec611de0565b73ffffffffffffffffffffffffffffffffffffffff16610e0a611129565b73ffffffffffffffffffffffffffffffffffffffff1614610e60576040517f08c379a0000000000000000000000000000000000000000000000000000000008152600401610e5790612d04565b60405180910390fd5b8173ffffffffffffffffffffffffffffffffffffffff166108fc829081150290604051600060405180830381858888f19350505050158015610ea6573d6000803e3d6000fd5b505050565b600a60003373ffffffffffffffffffffffffffffffffffffffff1673ffffffffffffffffffffffffffffffffffffffff16815260200190815260200160002060009054906101000a900460ff16610f37576040517f08c379a0000000000000000000000000000000000000000000000000000000008152600401610f2e90612c64565b60405180910390fd5b600560009054906101000a900473ffffffffffffffffffffffffffffffffffffffff1673ffffffffffffffffffffffffffffffffffffffff16638896637e83836040518363ffffffff1660e01b8152600401610f94929190612baf565b600060405180830381600087803b158015610fae57600080fd5b505af1158015610fc2573d6000803e3d6000fd5b505050505050565b600a60003373ffffffffffffffffffffffffffffffffffffffff1673ffffffffffffffffffffffffffffffffffffffff16815260200190815260200160002060009054906101000a900460ff16611056576040517f08c379a000000000000000000000000000000000000000000000000000000000815260040161104d90612c64565b60405180910390fd5b600460009054906101000a900473ffffffffffffffffffffffffffffffffffffffff1673ffffffffffffffffffffffffffffffffffffffff16637daf440d83836040518363ffffffff1660e01b81526004016110b3929190612baf565b600060405180830381600087803b1580156110cd57600080fd5b505af11580156110e1573d6000803e3d6000fd5b505050505050565b60076020528060005260406000206000915054906101000a900460ff1681565b600d6020528060005260406000206000915054906101000a900460ff1681565b60008060009054906101000a900473ffffffffffffffffffffffffffffffffffffffff16905090565b600d60003373ffffffffffffffffffffffffffffffffffffffff1673ffffffffffffffffffffffffffffffffffffffff16815260200190815260200160002060009054906101000a900460ff166111de576040517f08c379a00000000000000000000000000000000000000000000000000000000081526004016111d590612d24565b60405180910390fd5b6000808473ffffffffffffffffffffffffffffffffffffffff16836040516112069190612ad3565b6000604051808303816000865af19150503d8060008114611243576040519150601f19603f3d011682016040523d82523d6000602084013e611248565b606091505b50915091508161128d576040517f08c379a000000000000000000000000000000000000000000000000000000000815260040161128490612c44565b60405180910390fd5b5050505050565b600b60003373ffffffffffffffffffffffffffffffffffffffff1673ffffffffffffffffffffffffffffffffffffffff16815260200190815260200160002060009054906101000a900460ff16611320576040517f08c379a000000000000000000000000000000000000000000000000000000000815260040161131790612ce4565b60405180910390fd5b600560009054906101000a900473ffffffffffffffffffffffffffffffffffffffff1673ffffffffffffffffffffffffffffffffffffffff16637468b9ba83836040518363ffffffff1660e01b815260040161137d929190612baf565b600060405180830381600087803b15801561139757600080fd5b505af11580156113ab573d6000803e3d6000fd5b505050505050565b600460009054906101000a900473ffffffffffffffffffffffffffffffffffffffff1681565b6000600660009054906101000a900473ffffffffffffffffffffffffffffffffffffffff1673ffffffffffffffffffffffffffffffffffffffff1663247f8e14336040518263ffffffff1660e01b81526004016114369190612aea565b60206040518083038186803b15801561144e57600080fd5b505afa158015611462573d6000803e3d6000fd5b505050506040513d601f19601f820116820180604052508101906114869190612560565b6114c5576040517f08c379a00000000000000000000000000000000000000000000000000000000081526004016114bc90612ca4565b60405180910390fd5b600160008154809291906114d890613233565b919050555060006009600060015481526020019081526020016000209050338160000160006101000a81548173ffffffffffffffffffffffffffffffffffffffff021916908373ffffffffffffffffffffffffffffffffffffffff160217905550858160010160006101000a81548173ffffffffffffffffffffffffffffffffffffffff021916908373ffffffffffffffffffffffffffffffffffffffff160217905550848160050181905550600081600301819055506000816004018190555060008160050181905550428160020181905550838160070190805190602001906115c492919061214e565b50828160080190805190602001906115dd9291906121d4565b50600154915050949350505050565b6115f4611de0565b73ffffffffffffffffffffffffffffffffffffffff16611612611129565b73ffffffffffffffffffffffffffffffffffffffff1614611668576040517f08c379a000000000000000000000000000000000000000000000000000000000815260040161165f90612d04565b60405180910390fd5b8060038190555050565b60086020528060005260406000206000915090505481565b600660009054906101000a900473ffffffffffffffffffffffffffffffffffffffff1673ffffffffffffffffffffffffffffffffffffffff1663247f8e14336040518263ffffffff1660e01b81526004016116e59190612aea565b60206040518083038186803b1580156116fd57600080fd5b505afa158015611711573d6000803e3d6000fd5b505050506040513d601f19601f820116820180604052508101906117359190612560565b611774576040517f08c379a000000000000000000000000000000000000000000000000000000000815260040161176b90612ca4565b60405180910390fd5b60006009600084815260200190815260200160002090506001151581600a0160003373ffffffffffffffffffffffffffffffffffffffff1673ffffffffffffffffffffffffffffffffffffffff16815260200190815260200160002060009054906101000a900460ff1615151415611821576040517f08c379a000000000000000000000000000000000000000000000000000000000815260040161181890612d44565b60405180910390fd5b6000600560009054906101000a900473ffffffffffffffffffffffffffffffffffffffff1673ffffffffffffffffffffffffffffffffffffffff166370a08231336040518263ffffffff1660e01b815260040161187e9190612aea565b60206040518083038186803b15801561189657600080fd5b505afa1580156118aa573d6000803e3d6000fd5b505050506040513d601f19601f820116820180604052508101906118ce91906125b2565b90508160040160008154809291906118e590613233565b919050558260040181905550604051806060016040528084151581526020013373ffffffffffffffffffffffffffffffffffffffff168152602001828152508260090160008460040154815260200190815260200160002060008201518160000160006101000a81548160ff02191690831515021790555060208201518160000160016101000a81548173ffffffffffffffffffffffffffffffffffffffff021916908373ffffffffffffffffffffffffffffffffffffffff160217905550604082015181600101559050506119c8818360030154611de890919063ffffffff16565b8260030181905550600182600a0160003373ffffffffffffffffffffffffffffffffffffffff1673ffffffffffffffffffffffffffffffffffffffff16815260200190815260200160002060006101000a81548160ff0219169083151502179055506000600560009054906101000a900473ffffffffffffffffffffffffffffffffffffffff1673ffffffffffffffffffffffffffffffffffffffff166318160ddd6040518163ffffffff1660e01b815260040160206040518083038186803b158015611a9457600080fd5b505afa158015611aa8573d6000803e3d6000fd5b505050506040513d601f19601f82011682018060405250810190611acc91906125b2565b90506000611ade846003015483611dfe565b90508015611af057611aef86611e40565b5b505050505050565b600b60003373ffffffffffffffffffffffffffffffffffffffff1673ffffffffffffffffffffffffffffffffffffffff16815260200190815260200160002060009054906101000a900460ff16611b84576040517f08c379a0000000000000000000000000000000000000000000000000000000008152600401611b7b90612ce4565b60405180910390fd5b600460009054906101000a900473ffffffffffffffffffffffffffffffffffffffff1673ffffffffffffffffffffffffffffffffffffffff1663eb97781583836040518363ffffffff1660e01b8152600401611be1929190612baf565b600060405180830381600087803b158015611bfb57600080fd5b505af1158015611c0f573d6000803e3d6000fd5b505050505050565b611c1f611de0565b73ffffffffffffffffffffffffffffffffffffffff16611c3d611129565b73ffffffffffffffffffffffffffffffffffffffff1614611c93576040517f08c379a0000000000000000000000000000000000000000000000000000000008152600401611c8a90612d04565b60405180910390fd5b600073ffffffffffffffffffffffffffffffffffffffff168173ffffffffffffffffffffffffffffffffffffffff161415611d03576040517f08c379a0000000000000000000000000000000000000000000000000000000008152600401611cfa90612c84565b60405180910390fd5b8073ffffffffffffffffffffffffffffffffffffffff1660008054906101000a900473ffffffffffffffffffffffffffffffffffffffff1673ffffffffffffffffffffffffffffffffffffffff167f8be0079c531659141344cd1fd0a4f28419497f9722a3daafe3b4186f6b6457e060405160405180910390a3806000806101000a81548173ffffffffffffffffffffffffffffffffffffffff021916908373ffffffffffffffffffffffffffffffffffffffff16021790555050565b600a6020528060005260406000206000915054906101000a900460ff1681565b600033905090565b60008183611df69190612e73565b905092915050565b600080611e0d848460026120db565b905082841415611e21576001915050611e3a565b6003548110611e34576001915050611e3a565b60009150505b92915050565b6000600960008381526020019081526020016000209050600254611e7182600201544261213890919063ffffffff16565b10611eb55760018160060160006101000a81548160ff02191690831515021790555060008160060160016101000a81548160ff0219169083151502179055506120d7565b8060060160009054906101000a900460ff1615611f07576040517f08c379a0000000000000000000000000000000000000000000000000000000008152600401611efe90612d64565b60405180910390fd5b60008060005b83600401548111611f9257600084600901600083815260200190815260200160002090508060000160009054906101000a900460ff1615611f6657611f5f816001015485611de890919063ffffffff16565b9350611f80565b611f7d816001015484611de890919063ffffffff16565b92505b5080611f8b90613233565b9050611f0d565b50808211156120995761205a8360010160009054906101000a900473ffffffffffffffffffffffffffffffffffffffff168460050154856008018054611fd790613201565b80601f016020809104026020016040519081016040528092919081815260200182805461200390613201565b80156120505780601f1061202557610100808354040283529160200191612050565b820191906000526020600020905b81548152906001019060200180831161203357829003601f168201915b5050505050611152565b60018360060160006101000a81548160ff02191690831515021790555060018360060160016101000a81548160ff0219169083151502179055506120d4565b60018360060160006101000a81548160ff02191690831515021790555060008360060160016101000a81548160ff0219169083151502179055505b50505b5050565b6000806001836120eb9190612e73565b600a6120f79190612f4d565b85612102919061306b565b90506000600a600586846121169190612ec9565b6121209190612e73565b61212a9190612ec9565b905080925050509392505050565b6000818361214691906130c5565b905092915050565b82805461215a90613201565b90600052602060002090601f01602090048101928261217c57600085556121c3565b82601f1061219557805160ff19168380011785556121c3565b828001600101855582156121c3579182015b828111156121c25782518255916020019190600101906121a7565b5b5090506121d0919061225a565b5090565b8280546121e090613201565b90600052602060002090601f0160209004810192826122025760008555612249565b82601f1061221b57805160ff1916838001178555612249565b82800160010185558215612249579182015b8281111561224857825182559160200191906001019061222d565b5b509050612256919061225a565b5090565b5b8082111561227357600081600090555060010161225b565b5090565b600061228a61228584612dd0565b612d9f565b9050828152602081018484840111156122a257600080fd5b6122ad8482856131bf565b509392505050565b60006122c86122c384612e00565b612d9f565b9050828152602081018484840111156122e057600080fd5b6122eb8482856131bf565b509392505050565b60008135905061230281613356565b92915050565b6000813590506123178161336d565b92915050565b60008135905061232c81613384565b92915050565b60008151905061234181613384565b92915050565b600082601f83011261235857600080fd5b8135612368848260208601612277565b91505092915050565b600082601f83011261238257600080fd5b81356123928482602086016122b5565b91505092915050565b6000813590506123aa8161339b565b92915050565b6000815190506123bf8161339b565b92915050565b6000602082840312156123d757600080fd5b60006123e5848285016122f3565b91505092915050565b6000806040838503121561240157600080fd5b600061240f85828601612308565b92505060206124208582860161239b565b9150509250929050565b60008060006060848603121561243f57600080fd5b600061244d86828701612308565b935050602061245e8682870161239b565b925050604084013567ffffffffffffffff81111561247b57600080fd5b61248786828701612347565b9150509250925092565b600080600080608085870312156124a757600080fd5b60006124b587828801612308565b94505060206124c68782880161239b565b935050604085013567ffffffffffffffff8111156124e357600080fd5b6124ef87828801612371565b925050606085013567ffffffffffffffff81111561250c57600080fd5b61251887828801612347565b91505092959194509250565b6000806040838503121561253757600080fd5b6000612545858286016122f3565b92505060206125568582860161239b565b9150509250929050565b60006020828403121561257257600080fd5b600061258084828501612332565b91505092915050565b60006020828403121561259b57600080fd5b60006125a98482850161239b565b91505092915050565b6000602082840312156125c457600080fd5b60006125d2848285016123b0565b91505092915050565b600080604083850312156125ee57600080fd5b60006125fc8582860161239b565b925050602061260d8582860161231d565b9150509250929050565b6126208161310b565b82525050565b61262f816130f9565b82525050565b61263e8161311d565b82525050565b600061264f82612e30565b6126598185612e46565b93506126698185602086016131ce565b61267281613338565b840191505092915050565b600061268882612e30565b6126928185612e57565b93506126a28185602086016131ce565b80840191505092915050565b6126b781613153565b82525050565b6126c681613177565b82525050565b6126d58161319b565b82525050565b60006126e682612e3b565b6126f08185612e62565b93506127008185602086016131ce565b61270981613338565b840191505092915050565b6000612721601b83612e62565b91507f64656c656761746546756e6374696f6e43616c6c204661696c656400000000006000830152602082019050919050565b6000612761602483612e62565b91507f446563656e747261436f72653a2043616c6c6572206973206e6f742061206d6960008301527f6e746572000000000000000000000000000000000000000000000000000000006020830152604082019050919050565b60006127c7602683612e62565b91507f4f776e61626c653a206e6577206f776e657220697320746865207a65726f206160008301527f64647265737300000000000000000000000000000000000000000000000000006020830152604082019050919050565b600061282d602c83612e62565b91507f446563656e747261436f72653a2043616c6c6572206973206e6f7420616e206160008301527f6374697665206d656d62657200000000000000000000000000000000000000006020830152604082019050919050565b6000612893602583612e62565b91507f446563656e747261436f72653a20496e76616c696420496e707574205072697660008301527f6c656467650000000000000000000000000000000000000000000000000000006020830152604082019050919050565b60006128f9602483612e62565b91507f446563656e747261436f72653a2043616c6c6572206973206e6f74206120627560008301527f726e6572000000000000000000000000000000000000000000000000000000006020830152604082019050919050565b600061295f602083612e62565b91507f4f776e61626c653a2063616c6c6572206973206e6f7420746865206f776e65726000830152602082019050919050565b600061299f602783612e62565b91507f446563656e747261436f72653a2043616c6c6572206973206e6f74206120646560008301527f6c656761746f72000000000000000000000000000000000000000000000000006020830152604082019050919050565b6000612a05602783612e62565b91507f596f75204861766520616c726561647920766f746564206f6e2074686973207060008301527f726f706f73616c000000000000000000000000000000000000000000000000006020830152604082019050919050565b6000612a6b602783612e62565b91507f546869732070726f706f73616c2068617320616c7265616479206265656e206560008301527f78656375746564000000000000000000000000000000000000000000000000006020830152604082019050919050565b612acd81613149565b82525050565b6000612adf828461267d565b915081905092915050565b6000602082019050612aff6000830184612626565b92915050565b600061014082019050612b1b600083018d612626565b612b28602083018c612617565b612b35604083018b612ac4565b612b42606083018a612ac4565b612b4f6080830189612ac4565b612b5c60a0830188612ac4565b612b6960c0830187612635565b612b7660e0830186612635565b818103610100830152612b8981856126db565b9050818103610120830152612b9e8184612644565b90509b9a5050505050505050505050565b6000604082019050612bc46000830185612626565b612bd16020830184612ac4565b9392505050565b6000602082019050612bed6000830184612635565b92915050565b6000602082019050612c0860008301846126ae565b92915050565b6000602082019050612c2360008301846126bd565b92915050565b6000602082019050612c3e60008301846126cc565b92915050565b60006020820190508181036000830152612c5d81612714565b9050919050565b60006020820190508181036000830152612c7d81612754565b9050919050565b60006020820190508181036000830152612c9d816127ba565b9050919050565b60006020820190508181036000830152612cbd81612820565b9050919050565b60006020820190508181036000830152612cdd81612886565b9050919050565b60006020820190508181036000830152612cfd816128ec565b9050919050565b60006020820190508181036000830152612d1d81612952565b9050919050565b60006020820190508181036000830152612d3d81612992565b9050919050565b60006020820190508181036000830152612d5d816129f8565b9050919050565b60006020820190508181036000830152612d7d81612a5e565b9050919050565b6000602082019050612d996000830184612ac4565b92915050565b6000604051905081810181811067ffffffffffffffff82111715612dc657612dc5613309565b5b8060405250919050565b600067ffffffffffffffff821115612deb57612dea613309565b5b601f19601f8301169050602081019050919050565b600067ffffffffffffffff821115612e1b57612e1a613309565b5b601f19601f8301169050602081019050919050565b600081519050919050565b600081519050919050565b600082825260208201905092915050565b600081905092915050565b600082825260208201905092915050565b6000612e7e82613149565b9150612e8983613149565b9250827fffffffffffffffffffffffffffffffffffffffffffffffffffffffffffffffff03821115612ebe57612ebd61327c565b5b828201905092915050565b6000612ed482613149565b9150612edf83613149565b925082612eef57612eee6132ab565b5b828204905092915050565b6000808291508390505b6001851115612f4457808604811115612f2057612f1f61327c565b5b6001851615612f2f5780820291505b8081029050612f3d85613349565b9450612f04565b94509492505050565b6000612f5882613149565b9150612f6383613149565b9250612f907fffffffffffffffffffffffffffffffffffffffffffffffffffffffffffffffff8484612f98565b905092915050565b600082612fa85760019050613064565b81612fb65760009050613064565b8160018114612fcc5760028114612fd657613005565b6001915050613064565b60ff841115612fe857612fe761327c565b5b8360020a915084821115612fff57612ffe61327c565b5b50613064565b5060208310610133831016604e8410600b841016171561303a5782820a9050838111156130355761303461327c565b5b613064565b6130478484846001612efa565b9250905081840481111561305e5761305d61327c565b5b81810290505b9392505050565b600061307682613149565b915061308183613149565b9250817fffffffffffffffffffffffffffffffffffffffffffffffffffffffffffffffff04831182151516156130ba576130b961327c565b5b828202905092915050565b60006130d082613149565b91506130db83613149565b9250828210156130ee576130ed61327c565b5b828203905092915050565b600061310482613129565b9050919050565b600061311682613129565b9050919050565b60008115159050919050565b600073ffffffffffffffffffffffffffffffffffffffff82169050919050565b6000819050919050565b600061315e82613165565b9050919050565b600061317082613129565b9050919050565b600061318282613189565b9050919050565b600061319482613129565b9050919050565b60006131a6826131ad565b9050919050565b60006131b882613129565b9050919050565b82818337600083830152505050565b60005b838110156131ec5780820151818401526020810190506131d1565b838111156131fb576000848401525b50505050565b6000600282049050600182168061321957607f821691505b6020821081141561322d5761322c6132da565b5b50919050565b600061323e82613149565b91507fffffffffffffffffffffffffffffffffffffffffffffffffffffffffffffffff8214156132715761327061327c565b5b600182019050919050565b7f4e487b7100000000000000000000000000000000000000000000000000000000600052601160045260246000fd5b7f4e487b7100000000000000000000000000000000000000000000000000000000600052601260045260246000fd5b7f4e487b7100000000000000000000000000000000000000000000000000000000600052602260045260246000fd5b7f4e487b7100000000000000000000000000000000000000000000000000000000600052604160045260246000fd5b6000601f19601f8301169050919050565b60008160011c9050919050565b61335f816130f9565b811461336a57600080fd5b50565b6133768161310b565b811461338157600080fd5b50565b61338d8161311d565b811461339857600080fd5b50565b6133a481613149565b81146133af57600080fd5b5056fea26469706673582212208ec44410ceb4f7bda0c22872fcefa1ee1e18d7ebc4ad148be20ff8111d839a2464736f6c63430008000033",
  "linkReferences": {},
  "deployedLinkReferences": {}
}