{
  "_format": "hh-sol-artifact-1",
  "contractName": "DecentraCore",
  "sourceName": "contracts/DecentraCore.sol",
  "abi": [
    {
      "inputs": [
        {
          "internalType": "address",
          "name": "_dDollar",
          "type": "address"
        },
        {
          "internalType": "address",
          "name": "_dStock",
          "type": "address"
        },
        {
          "internalType": "address",
          "name": "_dScore",
          "type": "address"
        }
      ],
      "stateMutability": "nonpayable",
      "type": "constructor"
    },
    {
      "anonymous": false,
      "inputs": [
        {
          "indexed": false,
          "internalType": "address",
          "name": "target",
          "type": "address"
        },
        {
          "indexed": false,
          "internalType": "bytes",
          "name": "call_data",
          "type": "bytes"
        }
      ],
      "name": "FunctionCallDelegated",
      "type": "event"
    },
    {
      "anonymous": false,
      "inputs": [
        {
          "indexed": false,
          "internalType": "uint256",
          "name": "proposalId",
          "type": "uint256"
        },
        {
          "indexed": false,
          "internalType": "uint256",
          "name": "proposalAmount",
          "type": "uint256"
        },
        {
          "indexed": false,
          "internalType": "address",
          "name": "target",
          "type": "address"
        },
        {
          "indexed": false,
          "internalType": "bytes",
          "name": "call_data",
          "type": "bytes"
        }
      ],
      "name": "NewProposal",
      "type": "event"
    },
    {
      "anonymous": false,
      "inputs": [
        {
          "indexed": false,
          "internalType": "uint256",
          "name": "proposalId",
          "type": "uint256"
        },
        {
          "indexed": false,
          "internalType": "address",
          "name": "voter",
          "type": "address"
        },
        {
          "indexed": false,
          "internalType": "bool",
          "name": "vote",
          "type": "bool"
        }
      ],
      "name": "NewVote",
      "type": "event"
    },
    {
      "anonymous": false,
      "inputs": [
        {
          "indexed": true,
          "internalType": "address",
          "name": "previousOwner",
          "type": "address"
        },
        {
          "indexed": true,
          "internalType": "address",
          "name": "newOwner",
          "type": "address"
        }
      ],
      "name": "OwnershipTransferred",
      "type": "event"
    },
    {
      "anonymous": false,
      "inputs": [
        {
          "indexed": false,
          "internalType": "uint256",
          "name": "proposalId",
          "type": "uint256"
        },
        {
          "indexed": false,
          "internalType": "bool",
          "name": "success",
          "type": "bool"
        }
      ],
      "name": "ProposalApproved",
      "type": "event"
    },
    {
      "inputs": [
        {
          "internalType": "address",
          "name": "",
          "type": "address"
        }
      ],
      "name": "burners",
      "outputs": [
        {
          "internalType": "bool",
          "name": "",
          "type": "bool"
        }
      ],
      "stateMutability": "view",
      "type": "function"
    },
    {
      "inputs": [],
      "name": "dScore",
      "outputs": [
        {
          "internalType": "contract IDScore",
          "name": "",
          "type": "address"
        }
      ],
      "stateMutability": "view",
      "type": "function"
    },
    {
      "inputs": [
        {
          "internalType": "address",
          "name": "",
          "type": "address"
        }
      ],
      "name": "dScoreMod",
      "outputs": [
        {
          "internalType": "bool",
          "name": "",
          "type": "bool"
        }
      ],
      "stateMutability": "view",
      "type": "function"
    },
    {
      "inputs": [],
      "name": "dd",
      "outputs": [
        {
          "internalType": "contract IDecentraDollar",
          "name": "",
          "type": "address"
        }
      ],
      "stateMutability": "view",
      "type": "function"
    },
    {
      "inputs": [
        {
          "internalType": "address payable",
          "name": "_target",
          "type": "address"
        },
        {
          "internalType": "bytes",
          "name": "call_data",
          "type": "bytes"
        }
      ],
      "name": "delegateFunctionCall",
      "outputs": [],
      "stateMutability": "nonpayable",
      "type": "function"
    },
    {
      "inputs": [
        {
          "internalType": "address",
          "name": "",
          "type": "address"
        }
      ],
      "name": "delegators",
      "outputs": [
        {
          "internalType": "bool",
          "name": "",
          "type": "bool"
        }
      ],
      "stateMutability": "view",
      "type": "function"
    },
    {
      "inputs": [],
      "name": "ds",
      "outputs": [
        {
          "internalType": "contract IDecentraStock",
          "name": "",
          "type": "address"
        }
      ],
      "stateMutability": "view",
      "type": "function"
    },
    {
      "inputs": [
        {
          "internalType": "address",
          "name": "",
          "type": "address"
        }
      ],
      "name": "freezeFrame",
      "outputs": [
        {
          "internalType": "uint256",
          "name": "",
          "type": "uint256"
        }
      ],
      "stateMutability": "view",
      "type": "function"
    },
    {
      "inputs": [
        {
          "internalType": "address",
          "name": "_member",
          "type": "address"
        }
      ],
      "name": "freezeMember",
      "outputs": [],
      "stateMutability": "nonpayable",
      "type": "function"
    },
    {
      "inputs": [
        {
          "internalType": "address",
          "name": "",
          "type": "address"
        }
      ],
      "name": "frozenAccounts",
      "outputs": [
        {
          "internalType": "bool",
          "name": "",
          "type": "bool"
        }
      ],
      "stateMutability": "view",
      "type": "function"
    },
    {
      "inputs": [
        {
          "internalType": "uint256",
          "name": "_id",
          "type": "uint256"
        }
      ],
      "name": "getProposal",
      "outputs": [
        {
          "internalType": "address",
          "name": "maker",
          "type": "address"
        },
        {
          "internalType": "address",
          "name": "target",
          "type": "address"
        },
        {
          "internalType": "uint256",
          "name": "voteWeights",
          "type": "uint256"
        },
        {
          "internalType": "uint256",
          "name": "voteID",
          "type": "uint256"
        },
        {
          "internalType": "uint256",
          "name": "timeCreated",
          "type": "uint256"
        },
        {
          "internalType": "string",
          "name": "proposalHash",
          "type": "string"
        },
        {
          "internalType": "bytes",
          "name": "call_data",
          "type": "bytes"
        }
      ],
      "stateMutability": "view",
      "type": "function"
    },
    {
      "inputs": [
        {
          "internalType": "address",
          "name": "",
          "type": "address"
        }
      ],
      "name": "minters",
      "outputs": [
        {
          "internalType": "bool",
          "name": "",
          "type": "bool"
        }
      ],
      "stateMutability": "view",
      "type": "function"
    },
    {
      "inputs": [
        {
          "internalType": "address payable",
          "name": "_target",
          "type": "address"
        },
        {
          "internalType": "string",
          "name": "_proposalHash",
          "type": "string"
        },
        {
          "internalType": "bytes",
          "name": "_calldata",
          "type": "bytes"
        }
      ],
      "name": "newProposal",
      "outputs": [
        {
          "internalType": "uint256",
          "name": "",
          "type": "uint256"
        }
      ],
      "stateMutability": "payable",
      "type": "function"
    },
    {
      "inputs": [],
      "name": "owner",
      "outputs": [
        {
          "internalType": "address",
          "name": "",
          "type": "address"
        }
      ],
      "stateMutability": "view",
      "type": "function"
    },
    {
      "inputs": [],
      "name": "proposalID",
      "outputs": [
        {
          "internalType": "uint256",
          "name": "",
          "type": "uint256"
        }
      ],
      "stateMutability": "view",
      "type": "function"
    },
    {
      "inputs": [],
      "name": "proposalTime",
      "outputs": [
        {
          "internalType": "uint256",
          "name": "",
          "type": "uint256"
        }
      ],
      "stateMutability": "view",
      "type": "function"
    },
    {
      "inputs": [
        {
          "internalType": "uint256",
          "name": "",
          "type": "uint256"
        }
      ],
      "name": "proposals",
      "outputs": [
        {
          "internalType": "address",
          "name": "maker",
          "type": "address"
        },
        {
          "internalType": "address payable",
          "name": "target",
          "type": "address"
        },
        {
          "internalType": "uint256",
          "name": "timeCreated",
          "type": "uint256"
        },
        {
          "internalType": "uint256",
          "name": "voteWeights",
          "type": "uint256"
        },
        {
          "internalType": "uint256",
          "name": "voteID",
          "type": "uint256"
        },
        {
          "internalType": "bool",
          "name": "executed",
          "type": "bool"
        },
        {
          "internalType": "bool",
          "name": "proposalPassed",
          "type": "bool"
        },
        {
          "internalType": "string",
          "name": "proposalHash",
          "type": "string"
        },
        {
          "internalType": "bytes",
          "name": "call_data",
          "type": "bytes"
        }
      ],
      "stateMutability": "view",
      "type": "function"
    },
    {
      "inputs": [
        {
          "internalType": "address",
          "name": "_from",
          "type": "address"
        },
        {
          "internalType": "uint256",
          "name": "_amount",
          "type": "uint256"
        }
      ],
      "name": "proxyBurnDD",
      "outputs": [],
      "stateMutability": "nonpayable",
      "type": "function"
    },
    {
      "inputs": [
        {
          "internalType": "address",
          "name": "_from",
          "type": "address"
        },
        {
          "internalType": "uint256",
          "name": "_amount",
          "type": "uint256"
        }
      ],
      "name": "proxyBurnDS",
      "outputs": [],
      "stateMutability": "nonpayable",
      "type": "function"
    },
    {
      "inputs": [
        {
          "internalType": "address",
          "name": "_to",
          "type": "address"
        },
        {
          "internalType": "uint256",
          "name": "_amount",
          "type": "uint256"
        }
      ],
      "name": "proxyMintDD",
      "outputs": [],
      "stateMutability": "nonpayable",
      "type": "function"
    },
    {
      "inputs": [
        {
          "internalType": "address",
          "name": "_to",
          "type": "address"
        },
        {
          "internalType": "uint256",
          "name": "_amount",
          "type": "uint256"
        }
      ],
      "name": "proxyMintDS",
      "outputs": [],
      "stateMutability": "nonpayable",
      "type": "function"
    },
    {
      "inputs": [],
      "name": "quorum",
      "outputs": [
        {
          "internalType": "uint256",
          "name": "",
          "type": "uint256"
        }
      ],
      "stateMutability": "view",
      "type": "function"
    },
    {
      "inputs": [],
      "name": "renounceOwnership",
      "outputs": [],
      "stateMutability": "nonpayable",
      "type": "function"
    },
    {
      "inputs": [
        {
          "internalType": "address",
          "name": "_contract",
          "type": "address"
        },
        {
          "internalType": "uint256",
          "name": "_privledge",
          "type": "uint256"
        }
      ],
      "name": "setApprovedContract",
      "outputs": [],
      "stateMutability": "nonpayable",
      "type": "function"
    },
    {
      "inputs": [
        {
          "internalType": "uint256",
          "name": "_quorum",
          "type": "uint256"
        }
      ],
      "name": "setQuorum",
      "outputs": [],
      "stateMutability": "nonpayable",
      "type": "function"
    },
    {
      "inputs": [
        {
          "internalType": "address",
          "name": "newOwner",
          "type": "address"
        }
      ],
      "name": "transferOwnership",
      "outputs": [],
      "stateMutability": "nonpayable",
      "type": "function"
    },
    {
      "inputs": [
        {
          "internalType": "address payable",
          "name": "_to",
          "type": "address"
        },
        {
          "internalType": "uint256",
          "name": "_amount",
          "type": "uint256"
        }
      ],
      "name": "transferxDAI",
      "outputs": [],
      "stateMutability": "nonpayable",
      "type": "function"
    },
    {
      "inputs": [
        {
          "internalType": "uint256",
          "name": "_ProposalID",
          "type": "uint256"
        },
        {
          "internalType": "bool",
          "name": "supportsProposal",
          "type": "bool"
        }
      ],
      "name": "vote",
      "outputs": [],
      "stateMutability": "nonpayable",
      "type": "function"
    }
  ],
  "bytecode": "0x60806040523480156200001157600080fd5b506040516200394d3803806200394d8339818101604052810190620000379190620001d2565b600062000049620001b360201b60201c565b9050806000806101000a81548173ffffffffffffffffffffffffffffffffffffffff021916908373ffffffffffffffffffffffffffffffffffffffff1602179055508073ffffffffffffffffffffffffffffffffffffffff16600073ffffffffffffffffffffffffffffffffffffffff167f8be0079c531659141344cd1fd0a4f28419497f9722a3daafe3b4186f6b6457e060405160405180910390a35082600460006101000a81548173ffffffffffffffffffffffffffffffffffffffff021916908373ffffffffffffffffffffffffffffffffffffffff16021790555081600560006101000a81548173ffffffffffffffffffffffffffffffffffffffff021916908373ffffffffffffffffffffffffffffffffffffffff16021790555080600660006101000a81548173ffffffffffffffffffffffffffffffffffffffff021916908373ffffffffffffffffffffffffffffffffffffffff16021790555050505062000276565b600033905090565b600081519050620001cc816200025c565b92915050565b600080600060608486031215620001e857600080fd5b6000620001f886828701620001bb565b93505060206200020b86828701620001bb565b92505060406200021e86828701620001bb565b9150509250925092565b600062000235826200023c565b9050919050565b600073ffffffffffffffffffffffffffffffffffffffff82169050919050565b620002678162000228565b81146200027357600080fd5b50565b6136c780620002866000396000f3fe6080604052600436106101b75760003560e01c8063860838a5116100ec578063c1ba4e591161008a578063c9d27afe11610064578063c9d27afe14610631578063d7c931801461065a578063f2fde38b14610683578063f46eccc4146106ac576101b7565b8063c1ba4e5914610588578063c3396bdc146105b1578063c7f758a8146105ee576101b7565b80639c94f651116100c65780639c94f651146104db578063a120c14f14610504578063bd621fa31461052f578063c079c0c314610558576101b7565b8063860838a5146104365780638d23fc61146104735780638da5cb5b146104b0576101b7565b80633e41071711610159578063715018a611610133578063715018a6146103a45780637563dd54146103bb57806382f4f5b4146103e457806383ac74f91461040d576101b7565b80633e4107171461031357806351bcc28b1461033c5780636122698f14610379576101b7565b80631703a018116101955780631703a01814610267578063184a0ae91461029257806330dce62b146102bd578063371fa854146102e8576101b7565b8063013cf08b146101bc57806303d41e0e146102015780631268b7d21461023e575b600080fd5b3480156101c857600080fd5b506101e360048036038101906101de9190612785565b6106e9565b6040516101f899989796959493929190612d40565b60405180910390f35b34801561020d57600080fd5b50610228600480360381019061022391906125e8565b6108a1565b6040516102359190612e81565b60405180910390f35b34801561024a57600080fd5b5061026560048036038101906102609190612720565b6108c1565b005b34801561027357600080fd5b5061027c610ab6565b604051610289919061302d565b60405180910390f35b34801561029e57600080fd5b506102a7610abc565b6040516102b4919061302d565b60405180910390f35b3480156102c957600080fd5b506102d2610ac2565b6040516102df9190612ed2565b60405180910390f35b3480156102f457600080fd5b506102fd610ae8565b60405161030a919061302d565b60405180910390f35b34801561031f57600080fd5b5061033a600480360381019061033591906125e8565b610aee565b005b34801561034857600080fd5b50610363600480360381019061035e91906125e8565b610cb9565b6040516103709190612e81565b60405180910390f35b34801561038557600080fd5b5061038e610cd9565b60405161039b9190612e9c565b60405180910390f35b3480156103b057600080fd5b506103b9610cff565b005b3480156103c757600080fd5b506103e260048036038101906103dd91906126e4565b610e39565b005b3480156103f057600080fd5b5061040b60048036038101906104069190612720565b610f00565b005b34801561041957600080fd5b50610434600480360381019061042f9190612720565b61101f565b005b34801561044257600080fd5b5061045d600480360381019061045891906125e8565b61113e565b60405161046a9190612e81565b60405180910390f35b34801561047f57600080fd5b5061049a600480360381019061049591906125e8565b61115e565b6040516104a79190612e81565b60405180910390f35b3480156104bc57600080fd5b506104c561117e565b6040516104d29190612cf5565b60405180910390f35b3480156104e757600080fd5b5061050260048036038101906104fd9190612720565b6111a7565b005b34801561051057600080fd5b506105196112c6565b6040516105269190612eb7565b60405180910390f35b34801561053b57600080fd5b5061055660048036038101906105519190612611565b6112ec565b005b610572600480360381019061056d9190612665565b611466565b60405161057f919061302d565b60405180910390f35b34801561059457600080fd5b506105af60048036038101906105aa9190612785565b611665565b005b3480156105bd57600080fd5b506105d860048036038101906105d391906125e8565b6116eb565b6040516105e5919061302d565b60405180910390f35b3480156105fa57600080fd5b5061061560048036038101906106109190612785565b611703565b6040516106289796959493929190612ddb565b60405180910390f35b34801561063d57600080fd5b50610658600480360381019061065391906127d7565b6118b2565b005b34801561066657600080fd5b50610681600480360381019061067c9190612720565b611d20565b005b34801561068f57600080fd5b506106aa60048036038101906106a591906125e8565b611e3f565b005b3480156106b857600080fd5b506106d360048036038101906106ce91906125e8565b611fe8565b6040516106e09190612e81565b60405180910390f35b60096020528060005260406000206000915090508060000160009054906101000a900473ffffffffffffffffffffffffffffffffffffffff16908060010160009054906101000a900473ffffffffffffffffffffffffffffffffffffffff16908060020154908060030154908060040154908060050160009054906101000a900460ff16908060050160019054906101000a900460ff1690806006018054610790906134e0565b80601f01602080910402602001604051908101604052809291908181526020018280546107bc906134e0565b80156108095780601f106107de57610100808354040283529160200191610809565b820191906000526020600020905b8154815290600101906020018083116107ec57829003601f168201915b50505050509080600701805461081e906134e0565b80601f016020809104026020016040519081016040528092919081815260200182805461084a906134e0565b80156108975780601f1061086c57610100808354040283529160200191610897565b820191906000526020600020905b81548152906001019060200180831161087a57829003601f168201915b5050505050905089565b600b6020528060005260406000206000915054906101000a900460ff1681565b6108c9612008565b73ffffffffffffffffffffffffffffffffffffffff166108e761117e565b73ffffffffffffffffffffffffffffffffffffffff161461093d576040517f08c379a000000000000000000000000000000000000000000000000000000000815260040161093490612fad565b60405180910390fd5b60008111801561094d5750600481105b61098c576040517f08c379a000000000000000000000000000000000000000000000000000000000815260040161098390612f6d565b60405180910390fd5b60018114156109ee576001600a60008473ffffffffffffffffffffffffffffffffffffffff1673ffffffffffffffffffffffffffffffffffffffff16815260200190815260200160002060006101000a81548160ff0219169083151502179055505b6002811415610a50576001600b60008473ffffffffffffffffffffffffffffffffffffffff1673ffffffffffffffffffffffffffffffffffffffff16815260200190815260200160002060006101000a81548160ff0219169083151502179055505b6003811415610ab2576001600c60008473ffffffffffffffffffffffffffffffffffffffff1673ffffffffffffffffffffffffffffffffffffffff16815260200190815260200160002060006101000a81548160ff0219169083151502179055505b5050565b60035481565b60025481565b600560009054906101000a900473ffffffffffffffffffffffffffffffffffffffff1681565b60015481565b610af6612008565b73ffffffffffffffffffffffffffffffffffffffff16610b1461117e565b73ffffffffffffffffffffffffffffffffffffffff1614610b6a576040517f08c379a0000000000000000000000000000000000000000000000000000000008152600401610b6190612fad565b60405180910390fd5b600760008273ffffffffffffffffffffffffffffffffffffffff1673ffffffffffffffffffffffffffffffffffffffff16815260200190815260200160002060009054906101000a900460ff1615610c19576000600760008373ffffffffffffffffffffffffffffffffffffffff1673ffffffffffffffffffffffffffffffffffffffff16815260200190815260200160002060006101000a81548160ff021916908315150217905550610cb6565b6001600760008373ffffffffffffffffffffffffffffffffffffffff1673ffffffffffffffffffffffffffffffffffffffff16815260200190815260200160002060006101000a81548160ff02191690831515021790555042600860008373ffffffffffffffffffffffffffffffffffffffff1673ffffffffffffffffffffffffffffffffffffffff168152602001908152602001600020819055505b50565b600c6020528060005260406000206000915054906101000a900460ff1681565b600660009054906101000a900473ffffffffffffffffffffffffffffffffffffffff1681565b610d07612008565b73ffffffffffffffffffffffffffffffffffffffff16610d2561117e565b73ffffffffffffffffffffffffffffffffffffffff1614610d7b576040517f08c379a0000000000000000000000000000000000000000000000000000000008152600401610d7290612fad565b60405180910390fd5b600073ffffffffffffffffffffffffffffffffffffffff1660008054906101000a900473ffffffffffffffffffffffffffffffffffffffff1673ffffffffffffffffffffffffffffffffffffffff167f8be0079c531659141344cd1fd0a4f28419497f9722a3daafe3b4186f6b6457e060405160405180910390a360008060006101000a81548173ffffffffffffffffffffffffffffffffffffffff021916908373ffffffffffffffffffffffffffffffffffffffff160217905550565b610e41612008565b73ffffffffffffffffffffffffffffffffffffffff16610e5f61117e565b73ffffffffffffffffffffffffffffffffffffffff1614610eb5576040517f08c379a0000000000000000000000000000000000000000000000000000000008152600401610eac90612fad565b60405180910390fd5b8173ffffffffffffffffffffffffffffffffffffffff166108fc829081150290604051600060405180830381858888f19350505050158015610efb573d6000803e3d6000fd5b505050565b600a60003373ffffffffffffffffffffffffffffffffffffffff1673ffffffffffffffffffffffffffffffffffffffff16815260200190815260200160002060009054906101000a900460ff16610f8c576040517f08c379a0000000000000000000000000000000000000000000000000000000008152600401610f8390612f0d565b60405180910390fd5b600560009054906101000a900473ffffffffffffffffffffffffffffffffffffffff1673ffffffffffffffffffffffffffffffffffffffff16638896637e83836040518363ffffffff1660e01b8152600401610fe9929190612e58565b600060405180830381600087803b15801561100357600080fd5b505af1158015611017573d6000803e3d6000fd5b505050505050565b600a60003373ffffffffffffffffffffffffffffffffffffffff1673ffffffffffffffffffffffffffffffffffffffff16815260200190815260200160002060009054906101000a900460ff166110ab576040517f08c379a00000000000000000000000000000000000000000000000000000000081526004016110a290612f0d565b60405180910390fd5b600460009054906101000a900473ffffffffffffffffffffffffffffffffffffffff1673ffffffffffffffffffffffffffffffffffffffff16637daf440d83836040518363ffffffff1660e01b8152600401611108929190612e58565b600060405180830381600087803b15801561112257600080fd5b505af1158015611136573d6000803e3d6000fd5b505050505050565b60076020528060005260406000206000915054906101000a900460ff1681565b600d6020528060005260406000206000915054906101000a900460ff1681565b60008060009054906101000a900473ffffffffffffffffffffffffffffffffffffffff16905090565b600b60003373ffffffffffffffffffffffffffffffffffffffff1673ffffffffffffffffffffffffffffffffffffffff16815260200190815260200160002060009054906101000a900460ff16611233576040517f08c379a000000000000000000000000000000000000000000000000000000000815260040161122a90612f8d565b60405180910390fd5b600560009054906101000a900473ffffffffffffffffffffffffffffffffffffffff1673ffffffffffffffffffffffffffffffffffffffff16637468b9ba83836040518363ffffffff1660e01b8152600401611290929190612e58565b600060405180830381600087803b1580156112aa57600080fd5b505af11580156112be573d6000803e3d6000fd5b505050505050565b600460009054906101000a900473ffffffffffffffffffffffffffffffffffffffff1681565b600d60003373ffffffffffffffffffffffffffffffffffffffff1673ffffffffffffffffffffffffffffffffffffffff16815260200190815260200160002060009054906101000a900460ff16611378576040517f08c379a000000000000000000000000000000000000000000000000000000000815260040161136f90612fcd565b60405180910390fd5b6000808373ffffffffffffffffffffffffffffffffffffffff16836040516113a09190612cde565b6000604051808303816000865af19150503d80600081146113dd576040519150601f19603f3d011682016040523d82523d6000602084013e6113e2565b606091505b509150915081611427576040517f08c379a000000000000000000000000000000000000000000000000000000000815260040161141e90612eed565b60405180910390fd5b7f0d655f469da3540d6d1544bc544b2b76944af903f3df556b9666822dbebc85f58482604051611458929190612d10565b60405180910390a150505050565b6000600660009054906101000a900473ffffffffffffffffffffffffffffffffffffffff1673ffffffffffffffffffffffffffffffffffffffff1663247f8e14336040518263ffffffff1660e01b81526004016114c39190612cf5565b60206040518083038186803b1580156114db57600080fd5b505afa1580156114ef573d6000803e3d6000fd5b505050506040513d601f19601f82011682018060405250810190611513919061275c565b611552576040517f08c379a000000000000000000000000000000000000000000000000000000000815260040161154990612f4d565b60405180910390fd5b6001600081548092919061156590613512565b919050555060006009600060015481526020019081526020016000209050338160000160006101000a81548173ffffffffffffffffffffffffffffffffffffffff021916908373ffffffffffffffffffffffffffffffffffffffff160217905550848160010160006101000a81548173ffffffffffffffffffffffffffffffffffffffff021916908373ffffffffffffffffffffffffffffffffffffffff16021790555060008160030181905550600081600401819055504281600201819055508381600601908051906020019061163e929190612371565b50828160070190805190602001906116579291906123f7565b506001549150509392505050565b61166d612008565b73ffffffffffffffffffffffffffffffffffffffff1661168b61117e565b73ffffffffffffffffffffffffffffffffffffffff16146116e1576040517f08c379a00000000000000000000000000000000000000000000000000000000081526004016116d890612fad565b60405180910390fd5b8060038190555050565b60086020528060005260406000206000915090505481565b60008060008060006060806000600960008a815260200190815260200160002090508060000160009054906101000a900473ffffffffffffffffffffffffffffffffffffffff1697508060010160009054906101000a900473ffffffffffffffffffffffffffffffffffffffff169650806003015495508060040154945080600201549350806006018054611797906134e0565b80601f01602080910402602001604051908101604052809291908181526020018280546117c3906134e0565b80156118105780601f106117e557610100808354040283529160200191611810565b820191906000526020600020905b8154815290600101906020018083116117f357829003601f168201915b50505050509250806007018054611826906134e0565b80601f0160208091040260200160405190810160405280929190818152602001828054611852906134e0565b801561189f5780601f106118745761010080835404028352916020019161189f565b820191906000526020600020905b81548152906001019060200180831161188257829003601f168201915b5050505050915050919395979092949650565b600660009054906101000a900473ffffffffffffffffffffffffffffffffffffffff1673ffffffffffffffffffffffffffffffffffffffff1663247f8e14336040518263ffffffff1660e01b815260040161190d9190612cf5565b60206040518083038186803b15801561192557600080fd5b505afa158015611939573d6000803e3d6000fd5b505050506040513d601f19601f8201168201806040525081019061195d919061275c565b61199c576040517f08c379a000000000000000000000000000000000000000000000000000000000815260040161199390612f4d565b60405180910390fd5b6000600960008481526020019081526020016000209050600115158160090160003373ffffffffffffffffffffffffffffffffffffffff1673ffffffffffffffffffffffffffffffffffffffff16815260200190815260200160002060009054906101000a900460ff1615151415611a49576040517f08c379a0000000000000000000000000000000000000000000000000000000008152600401611a4090612fed565b60405180910390fd5b6000600660009054906101000a900473ffffffffffffffffffffffffffffffffffffffff1673ffffffffffffffffffffffffffffffffffffffff166359d177e6336040518263ffffffff1660e01b8152600401611aa69190612cf5565b60206040518083038186803b158015611abe57600080fd5b505afa158015611ad2573d6000803e3d6000fd5b505050506040513d601f19601f82011682018060405250810190611af691906127ae565b9050816004016000815480929190611b0d90613512565b919050558260040181905550604051806060016040528084151581526020013373ffffffffffffffffffffffffffffffffffffffff168152602001828152508260080160008460040154815260200190815260200160002060008201518160000160006101000a81548160ff02191690831515021790555060208201518160000160016101000a81548173ffffffffffffffffffffffffffffffffffffffff021916908373ffffffffffffffffffffffffffffffffffffffff16021790555060408201518160010155905050611bf081836003015461201090919063ffffffff16565b826003018190555060018260090160003373ffffffffffffffffffffffffffffffffffffffff1673ffffffffffffffffffffffffffffffffffffffff16815260200190815260200160002060006101000a81548160ff0219169083151502179055506000600560009054906101000a900473ffffffffffffffffffffffffffffffffffffffff1673ffffffffffffffffffffffffffffffffffffffff166318160ddd6040518163ffffffff1660e01b815260040160206040518083038186803b158015611cbc57600080fd5b505afa158015611cd0573d6000803e3d6000fd5b505050506040513d601f19601f82011682018060405250810190611cf491906127ae565b90506000611d06846003015483612026565b90508015611d1857611d1786612068565b5b505050505050565b600b60003373ffffffffffffffffffffffffffffffffffffffff1673ffffffffffffffffffffffffffffffffffffffff16815260200190815260200160002060009054906101000a900460ff16611dac576040517f08c379a0000000000000000000000000000000000000000000000000000000008152600401611da390612f8d565b60405180910390fd5b600460009054906101000a900473ffffffffffffffffffffffffffffffffffffffff1673ffffffffffffffffffffffffffffffffffffffff1663eb97781583836040518363ffffffff1660e01b8152600401611e09929190612e58565b600060405180830381600087803b158015611e2357600080fd5b505af1158015611e37573d6000803e3d6000fd5b505050505050565b611e47612008565b73ffffffffffffffffffffffffffffffffffffffff16611e6561117e565b73ffffffffffffffffffffffffffffffffffffffff1614611ebb576040517f08c379a0000000000000000000000000000000000000000000000000000000008152600401611eb290612fad565b60405180910390fd5b600073ffffffffffffffffffffffffffffffffffffffff168173ffffffffffffffffffffffffffffffffffffffff161415611f2b576040517f08c379a0000000000000000000000000000000000000000000000000000000008152600401611f2290612f2d565b60405180910390fd5b8073ffffffffffffffffffffffffffffffffffffffff1660008054906101000a900473ffffffffffffffffffffffffffffffffffffffff1673ffffffffffffffffffffffffffffffffffffffff167f8be0079c531659141344cd1fd0a4f28419497f9722a3daafe3b4186f6b6457e060405160405180910390a3806000806101000a81548173ffffffffffffffffffffffffffffffffffffffff021916908373ffffffffffffffffffffffffffffffffffffffff16021790555050565b600a6020528060005260406000206000915054906101000a900460ff1681565b600033905090565b6000818361201e919061311c565b905092915050565b600080612035848460026122fe565b905082841415612049576001915050612062565b600354811061205c576001915050612062565b60009150505b92915050565b600060096000838152602001908152602001600020905060025461209982600201544261235b90919063ffffffff16565b106120dd5760018160050160006101000a81548160ff02191690831515021790555060008160050160016101000a81548160ff0219169083151502179055506122fa565b8060050160009054906101000a900460ff161561212f576040517f08c379a00000000000000000000000000000000000000000000000000000000081526004016121269061300d565b60405180910390fd5b60008060005b836004015481116121ba57600084600801600083815260200190815260200160002090508060000160009054906101000a900460ff161561218e5761218781600101548561201090919063ffffffff16565b93506121a8565b6121a581600101548461201090919063ffffffff16565b92505b50806121b390613512565b9050612135565b50808211156122bc5761227d8360010160009054906101000a900473ffffffffffffffffffffffffffffffffffffffff168460070180546121fa906134e0565b80601f0160208091040260200160405190810160405280929190818152602001828054612226906134e0565b80156122735780601f1061224857610100808354040283529160200191612273565b820191906000526020600020905b81548152906001019060200180831161225657829003601f168201915b50505050506112ec565b60018360050160006101000a81548160ff02191690831515021790555060018360050160016101000a81548160ff0219169083151502179055506122f7565b60018360050160006101000a81548160ff02191690831515021790555060008360050160016101000a81548160ff0219169083151502179055505b50505b5050565b60008060018361230e919061311c565b600a61231a91906131f6565b856123259190613314565b90506000600a600586846123399190613172565b612343919061311c565b61234d9190613172565b905080925050509392505050565b60008183612369919061336e565b905092915050565b82805461237d906134e0565b90600052602060002090601f01602090048101928261239f57600085556123e6565b82601f106123b857805160ff19168380011785556123e6565b828001600101855582156123e6579182015b828111156123e55782518255916020019190600101906123ca565b5b5090506123f3919061247d565b5090565b828054612403906134e0565b90600052602060002090601f016020900481019282612425576000855561246c565b82601f1061243e57805160ff191683800117855561246c565b8280016001018555821561246c579182015b8281111561246b578251825591602001919060010190612450565b5b509050612479919061247d565b5090565b5b8082111561249657600081600090555060010161247e565b5090565b60006124ad6124a884613079565b613048565b9050828152602081018484840111156124c557600080fd5b6124d084828561349e565b509392505050565b60006124eb6124e6846130a9565b613048565b90508281526020810184848401111561250357600080fd5b61250e84828561349e565b509392505050565b60008135905061252581613635565b92915050565b60008135905061253a8161364c565b92915050565b60008135905061254f81613663565b92915050565b60008151905061256481613663565b92915050565b600082601f83011261257b57600080fd5b813561258b84826020860161249a565b91505092915050565b600082601f8301126125a557600080fd5b81356125b58482602086016124d8565b91505092915050565b6000813590506125cd8161367a565b92915050565b6000815190506125e28161367a565b92915050565b6000602082840312156125fa57600080fd5b600061260884828501612516565b91505092915050565b6000806040838503121561262457600080fd5b60006126328582860161252b565b925050602083013567ffffffffffffffff81111561264f57600080fd5b61265b8582860161256a565b9150509250929050565b60008060006060848603121561267a57600080fd5b60006126888682870161252b565b935050602084013567ffffffffffffffff8111156126a557600080fd5b6126b186828701612594565b925050604084013567ffffffffffffffff8111156126ce57600080fd5b6126da8682870161256a565b9150509250925092565b600080604083850312156126f757600080fd5b60006127058582860161252b565b9250506020612716858286016125be565b9150509250929050565b6000806040838503121561273357600080fd5b600061274185828601612516565b9250506020612752858286016125be565b9150509250929050565b60006020828403121561276e57600080fd5b600061277c84828501612555565b91505092915050565b60006020828403121561279757600080fd5b60006127a5848285016125be565b91505092915050565b6000602082840312156127c057600080fd5b60006127ce848285016125d3565b91505092915050565b600080604083850312156127ea57600080fd5b60006127f8858286016125be565b925050602061280985828601612540565b9150509250929050565b61281c816133fc565b82525050565b61282b816133b4565b82525050565b61283a816133a2565b82525050565b612849816133c6565b82525050565b600061285a826130d9565b61286481856130ef565b93506128748185602086016134ad565b61287d81613617565b840191505092915050565b6000612893826130d9565b61289d8185613100565b93506128ad8185602086016134ad565b80840191505092915050565b6128c28161340e565b82525050565b6128d181613432565b82525050565b6128e081613456565b82525050565b60006128f1826130e4565b6128fb818561310b565b935061290b8185602086016134ad565b61291481613617565b840191505092915050565b600061292c601b8361310b565b91507f64656c656761746546756e6374696f6e43616c6c204661696c656400000000006000830152602082019050919050565b600061296c60248361310b565b91507f446563656e747261436f72653a2043616c6c6572206973206e6f742061206d6960008301527f6e746572000000000000000000000000000000000000000000000000000000006020830152604082019050919050565b60006129d260268361310b565b91507f4f776e61626c653a206e6577206f776e657220697320746865207a65726f206160008301527f64647265737300000000000000000000000000000000000000000000000000006020830152604082019050919050565b6000612a38602c8361310b565b91507f446563656e747261436f72653a2043616c6c6572206973206e6f7420616e206160008301527f6374697665206d656d62657200000000000000000000000000000000000000006020830152604082019050919050565b6000612a9e60258361310b565b91507f446563656e747261436f72653a20496e76616c696420496e707574205072697660008301527f6c656467650000000000000000000000000000000000000000000000000000006020830152604082019050919050565b6000612b0460248361310b565b91507f446563656e747261436f72653a2043616c6c6572206973206e6f74206120627560008301527f726e6572000000000000000000000000000000000000000000000000000000006020830152604082019050919050565b6000612b6a60208361310b565b91507f4f776e61626c653a2063616c6c6572206973206e6f7420746865206f776e65726000830152602082019050919050565b6000612baa60278361310b565b91507f446563656e747261436f72653a2043616c6c6572206973206e6f74206120646560008301527f6c656761746f72000000000000000000000000000000000000000000000000006020830152604082019050919050565b6000612c1060278361310b565b91507f596f75204861766520616c726561647920766f746564206f6e2074686973207060008301527f726f706f73616c000000000000000000000000000000000000000000000000006020830152604082019050919050565b6000612c7660278361310b565b91507f546869732070726f706f73616c2068617320616c7265616479206265656e206560008301527f78656375746564000000000000000000000000000000000000000000000000006020830152604082019050919050565b612cd8816133f2565b82525050565b6000612cea8284612888565b915081905092915050565b6000602082019050612d0a6000830184612831565b92915050565b6000604082019050612d256000830185612813565b8181036020830152612d37818461284f565b90509392505050565b600061012082019050612d56600083018c612831565b612d63602083018b612822565b612d70604083018a612ccf565b612d7d6060830189612ccf565b612d8a6080830188612ccf565b612d9760a0830187612840565b612da460c0830186612840565b81810360e0830152612db681856128e6565b9050818103610100830152612dcb818461284f565b90509a9950505050505050505050565b600060e082019050612df0600083018a612831565b612dfd6020830189612831565b612e0a6040830188612ccf565b612e176060830187612ccf565b612e246080830186612ccf565b81810360a0830152612e3681856128e6565b905081810360c0830152612e4a818461284f565b905098975050505050505050565b6000604082019050612e6d6000830185612831565b612e7a6020830184612ccf565b9392505050565b6000602082019050612e966000830184612840565b92915050565b6000602082019050612eb160008301846128b9565b92915050565b6000602082019050612ecc60008301846128c8565b92915050565b6000602082019050612ee760008301846128d7565b92915050565b60006020820190508181036000830152612f068161291f565b9050919050565b60006020820190508181036000830152612f268161295f565b9050919050565b60006020820190508181036000830152612f46816129c5565b9050919050565b60006020820190508181036000830152612f6681612a2b565b9050919050565b60006020820190508181036000830152612f8681612a91565b9050919050565b60006020820190508181036000830152612fa681612af7565b9050919050565b60006020820190508181036000830152612fc681612b5d565b9050919050565b60006020820190508181036000830152612fe681612b9d565b9050919050565b6000602082019050818103600083015261300681612c03565b9050919050565b6000602082019050818103600083015261302681612c69565b9050919050565b60006020820190506130426000830184612ccf565b92915050565b6000604051905081810181811067ffffffffffffffff8211171561306f5761306e6135e8565b5b8060405250919050565b600067ffffffffffffffff821115613094576130936135e8565b5b601f19601f8301169050602081019050919050565b600067ffffffffffffffff8211156130c4576130c36135e8565b5b601f19601f8301169050602081019050919050565b600081519050919050565b600081519050919050565b600082825260208201905092915050565b600081905092915050565b600082825260208201905092915050565b6000613127826133f2565b9150613132836133f2565b9250827fffffffffffffffffffffffffffffffffffffffffffffffffffffffffffffffff038211156131675761316661355b565b5b828201905092915050565b600061317d826133f2565b9150613188836133f2565b9250826131985761319761358a565b5b828204905092915050565b6000808291508390505b60018511156131ed578086048111156131c9576131c861355b565b5b60018516156131d85780820291505b80810290506131e685613628565b94506131ad565b94509492505050565b6000613201826133f2565b915061320c836133f2565b92506132397fffffffffffffffffffffffffffffffffffffffffffffffffffffffffffffffff8484613241565b905092915050565b600082613251576001905061330d565b8161325f576000905061330d565b8160018114613275576002811461327f576132ae565b600191505061330d565b60ff8411156132915761329061355b565b5b8360020a9150848211156132a8576132a761355b565b5b5061330d565b5060208310610133831016604e8410600b84101617156132e35782820a9050838111156132de576132dd61355b565b5b61330d565b6132f084848460016131a3565b925090508184048111156133075761330661355b565b5b81810290505b9392505050565b600061331f826133f2565b915061332a836133f2565b9250817fffffffffffffffffffffffffffffffffffffffffffffffffffffffffffffffff04831182151516156133635761336261355b565b5b828202905092915050565b6000613379826133f2565b9150613384836133f2565b9250828210156133975761339661355b565b5b828203905092915050565b60006133ad826133d2565b9050919050565b60006133bf826133d2565b9050919050565b60008115159050919050565b600073ffffffffffffffffffffffffffffffffffffffff82169050919050565b6000819050919050565b60006134078261347a565b9050919050565b600061341982613420565b9050919050565b600061342b826133d2565b9050919050565b600061343d82613444565b9050919050565b600061344f826133d2565b9050919050565b600061346182613468565b9050919050565b6000613473826133d2565b9050919050565b60006134858261348c565b9050919050565b6000613497826133d2565b9050919050565b82818337600083830152505050565b60005b838110156134cb5780820151818401526020810190506134b0565b838111156134da576000848401525b50505050565b600060028204905060018216806134f857607f821691505b6020821081141561350c5761350b6135b9565b5b50919050565b600061351d826133f2565b91507fffffffffffffffffffffffffffffffffffffffffffffffffffffffffffffffff8214156135505761354f61355b565b5b600182019050919050565b7f4e487b7100000000000000000000000000000000000000000000000000000000600052601160045260246000fd5b7f4e487b7100000000000000000000000000000000000000000000000000000000600052601260045260246000fd5b7f4e487b7100000000000000000000000000000000000000000000000000000000600052602260045260246000fd5b7f4e487b7100000000000000000000000000000000000000000000000000000000600052604160045260246000fd5b6000601f19601f8301169050919050565b60008160011c9050919050565b61363e816133a2565b811461364957600080fd5b50565b613655816133b4565b811461366057600080fd5b50565b61366c816133c6565b811461367757600080fd5b50565b613683816133f2565b811461368e57600080fd5b5056fea26469706673582212209a188555b2a59fb5e129d7c97730c48336d0a2da5bf6a033ce30706e99282e5864736f6c63430008000033",
  "linkReferences": {},
  "deployedLinkReferences": {}
}