{
  "_format": "hh-sol-artifact-1",
  "contractName": "DecentraBank",
  "sourceName": "contracts/DecentraBank.sol",
  "abi": [
    {
      "inputs": [
        {
          "internalType": "address",
          "name": "_Dcore",
          "type": "address"
        },
        {
          "internalType": "address",
          "name": "_Dstock",
          "type": "address"
        },
        {
          "internalType": "address",
          "name": "_Ddollar",
          "type": "address"
        },
        {
          "internalType": "uint32",
          "name": "_connectorWeight",
          "type": "uint32"
        },
        {
          "internalType": "uint256",
          "name": "_refundRatio",
          "type": "uint256"
        }
      ],
      "stateMutability": "nonpayable",
      "type": "constructor"
    },
    {
      "anonymous": false,
      "inputs": [
        {
          "indexed": false,
          "internalType": "uint256",
          "name": "dollarAmount",
          "type": "uint256"
        },
        {
          "indexed": false,
          "internalType": "address",
          "name": "tokenType",
          "type": "address"
        }
      ],
      "name": "FundWithdrawl",
      "type": "event"
    },
    {
      "anonymous": false,
      "inputs": [
        {
          "indexed": false,
          "internalType": "address",
          "name": "collateral",
          "type": "address"
        }
      ],
      "name": "NewCollateral",
      "type": "event"
    },
    {
      "anonymous": false,
      "inputs": [
        {
          "indexed": true,
          "internalType": "address",
          "name": "previousOwner",
          "type": "address"
        },
        {
          "indexed": true,
          "internalType": "address",
          "name": "newOwner",
          "type": "address"
        }
      ],
      "name": "OwnershipTransferred",
      "type": "event"
    },
    {
      "anonymous": false,
      "inputs": [
        {
          "indexed": false,
          "internalType": "uint256",
          "name": "dollarAmount",
          "type": "uint256"
        },
        {
          "indexed": false,
          "internalType": "uint256",
          "name": "stockAmount",
          "type": "uint256"
        },
        {
          "indexed": false,
          "internalType": "address",
          "name": "buyer",
          "type": "address"
        }
      ],
      "name": "StockPurchased",
      "type": "event"
    },
    {
      "anonymous": false,
      "inputs": [
        {
          "indexed": false,
          "internalType": "uint256",
          "name": "dollarAmount",
          "type": "uint256"
        },
        {
          "indexed": false,
          "internalType": "uint256",
          "name": "stockAmount",
          "type": "uint256"
        },
        {
          "indexed": false,
          "internalType": "uint256",
          "name": "reserveAmountAdded",
          "type": "uint256"
        },
        {
          "indexed": false,
          "internalType": "address",
          "name": "seller",
          "type": "address"
        }
      ],
      "name": "StockSold",
      "type": "event"
    },
    {
      "inputs": [],
      "name": "DC",
      "outputs": [
        {
          "internalType": "contract IDecentraCore",
          "name": "",
          "type": "address"
        }
      ],
      "stateMutability": "view",
      "type": "function"
    },
    {
      "inputs": [],
      "name": "DD",
      "outputs": [
        {
          "internalType": "contract IDecentraDollar",
          "name": "",
          "type": "address"
        }
      ],
      "stateMutability": "view",
      "type": "function"
    },
    {
      "inputs": [],
      "name": "DS",
      "outputs": [
        {
          "internalType": "contract IDecentraStock",
          "name": "",
          "type": "address"
        }
      ],
      "stateMutability": "view",
      "type": "function"
    },
    {
      "inputs": [],
      "name": "MAX_WEIGHT",
      "outputs": [
        {
          "internalType": "uint32",
          "name": "",
          "type": "uint32"
        }
      ],
      "stateMutability": "view",
      "type": "function"
    },
    {
      "inputs": [
        {
          "internalType": "address",
          "name": "_collateral",
          "type": "address"
        }
      ],
      "name": "addNewCollateralType",
      "outputs": [],
      "stateMutability": "nonpayable",
      "type": "function"
    },
    {
      "inputs": [],
      "name": "calculatePoolBal",
      "outputs": [
        {
          "internalType": "uint256",
          "name": "",
          "type": "uint256"
        }
      ],
      "stateMutability": "view",
      "type": "function"
    },
    {
      "inputs": [
        {
          "internalType": "uint256",
          "name": "_dollarAmount",
          "type": "uint256"
        }
      ],
      "name": "calculatePurchase",
      "outputs": [
        {
          "internalType": "uint256",
          "name": "",
          "type": "uint256"
        }
      ],
      "stateMutability": "view",
      "type": "function"
    },
    {
      "inputs": [
        {
          "internalType": "uint256",
          "name": "_supply",
          "type": "uint256"
        },
        {
          "internalType": "uint256",
          "name": "_connectorBalance",
          "type": "uint256"
        },
        {
          "internalType": "uint32",
          "name": "_connectorWeight",
          "type": "uint32"
        },
        {
          "internalType": "uint256",
          "name": "_depositAmount",
          "type": "uint256"
        }
      ],
      "name": "calculatePurchaseReturn",
      "outputs": [
        {
          "internalType": "uint256",
          "name": "",
          "type": "uint256"
        }
      ],
      "stateMutability": "view",
      "type": "function"
    },
    {
      "inputs": [
        {
          "internalType": "uint256",
          "name": "_stockAmount",
          "type": "uint256"
        }
      ],
      "name": "calculateSale",
      "outputs": [
        {
          "internalType": "uint256",
          "name": "",
          "type": "uint256"
        }
      ],
      "stateMutability": "view",
      "type": "function"
    },
    {
      "inputs": [
        {
          "internalType": "uint256",
          "name": "_supply",
          "type": "uint256"
        },
        {
          "internalType": "uint256",
          "name": "_connectorBalance",
          "type": "uint256"
        },
        {
          "internalType": "uint32",
          "name": "_connectorWeight",
          "type": "uint32"
        },
        {
          "internalType": "uint256",
          "name": "_sellAmount",
          "type": "uint256"
        }
      ],
      "name": "calculateSaleReturn",
      "outputs": [
        {
          "internalType": "uint256",
          "name": "",
          "type": "uint256"
        }
      ],
      "stateMutability": "view",
      "type": "function"
    },
    {
      "inputs": [],
      "name": "collateralCount",
      "outputs": [
        {
          "internalType": "uint256",
          "name": "",
          "type": "uint256"
        }
      ],
      "stateMutability": "view",
      "type": "function"
    },
    {
      "inputs": [
        {
          "internalType": "uint256",
          "name": "",
          "type": "uint256"
        }
      ],
      "name": "collateralTypes",
      "outputs": [
        {
          "internalType": "address",
          "name": "",
          "type": "address"
        }
      ],
      "stateMutability": "view",
      "type": "function"
    },
    {
      "inputs": [],
      "name": "connectorWeight",
      "outputs": [
        {
          "internalType": "uint32",
          "name": "",
          "type": "uint32"
        }
      ],
      "stateMutability": "view",
      "type": "function"
    },
    {
      "inputs": [],
      "name": "divisor",
      "outputs": [
        {
          "internalType": "uint256",
          "name": "",
          "type": "uint256"
        }
      ],
      "stateMutability": "view",
      "type": "function"
    },
    {
      "inputs": [],
      "name": "fractionalReserveValue",
      "outputs": [
        {
          "internalType": "uint256",
          "name": "",
          "type": "uint256"
        }
      ],
      "stateMutability": "view",
      "type": "function"
    },
    {
      "inputs": [
        {
          "internalType": "address",
          "name": "_to",
          "type": "address"
        },
        {
          "internalType": "uint256",
          "name": "_type",
          "type": "uint256"
        },
        {
          "internalType": "uint256",
          "name": "_amount",
          "type": "uint256"
        }
      ],
      "name": "fundWithdrawl",
      "outputs": [],
      "stateMutability": "nonpayable",
      "type": "function"
    },
    {
      "inputs": [],
      "name": "lockedBalance",
      "outputs": [
        {
          "internalType": "uint256",
          "name": "",
          "type": "uint256"
        }
      ],
      "stateMutability": "view",
      "type": "function"
    },
    {
      "inputs": [],
      "name": "owner",
      "outputs": [
        {
          "internalType": "address",
          "name": "",
          "type": "address"
        }
      ],
      "stateMutability": "view",
      "type": "function"
    },
    {
      "inputs": [],
      "name": "percent",
      "outputs": [
        {
          "internalType": "uint256",
          "name": "",
          "type": "uint256"
        }
      ],
      "stateMutability": "view",
      "type": "function"
    },
    {
      "inputs": [
        {
          "internalType": "uint256",
          "name": "_amount",
          "type": "uint256"
        },
        {
          "internalType": "uint256",
          "name": "_tokenType",
          "type": "uint256"
        }
      ],
      "name": "purchaseStock",
      "outputs": [],
      "stateMutability": "payable",
      "type": "function"
    },
    {
      "inputs": [],
      "name": "refundRatio",
      "outputs": [
        {
          "internalType": "uint256",
          "name": "",
          "type": "uint256"
        }
      ],
      "stateMutability": "view",
      "type": "function"
    },
    {
      "inputs": [],
      "name": "renounceOwnership",
      "outputs": [],
      "stateMutability": "nonpayable",
      "type": "function"
    },
    {
      "inputs": [
        {
          "internalType": "uint256",
          "name": "_amount",
          "type": "uint256"
        }
      ],
      "name": "sellStock",
      "outputs": [],
      "stateMutability": "nonpayable",
      "type": "function"
    },
    {
      "inputs": [],
      "name": "setUp",
      "outputs": [],
      "stateMutability": "nonpayable",
      "type": "function"
    },
    {
      "inputs": [
        {
          "internalType": "address",
          "name": "newOwner",
          "type": "address"
        }
      ],
      "name": "transferOwnership",
      "outputs": [],
      "stateMutability": "nonpayable",
      "type": "function"
    },
    {
      "inputs": [],
      "name": "version",
      "outputs": [
        {
          "internalType": "string",
          "name": "",
          "type": "string"
        }
      ],
      "stateMutability": "view",
      "type": "function"
    }
  ],
  "bytecode": "0x60806040526040518060400160405280600381526020017f302e330000000000000000000000000000000000000000000000000000000000815250600190805190602001906200005192919062002271565b503480156200005f57600080fd5b506040516200654238038062006542833981810160405281019062000085919062002366565b6000620000976200226960201b60201c565b9050806000806101000a81548173ffffffffffffffffffffffffffffffffffffffff021916908373ffffffffffffffffffffffffffffffffffffffff1602179055508073ffffffffffffffffffffffffffffffffffffffff16600073ffffffffffffffffffffffffffffffffffffffff167f8be0079c531659141344cd1fd0a4f28419497f9722a3daafe3b4186f6b6457e060405160405180910390a350701c35fedd14ffffffffffffffffffffffff600260206080811062000183577f4e487b7100000000000000000000000000000000000000000000000000000000600052603260045260246000fd5b0181905550701b0ce43b323fffffffffffffffffffffff6002602160808110620001d6577f4e487b7100000000000000000000000000000000000000000000000000000000600052603260045260246000fd5b01819055507019f0028ec1ffffffffffffffffffffffff600260226080811062000229577f4e487b7100000000000000000000000000000000000000000000000000000000600052603260045260246000fd5b01819055507018ded91f0e7fffffffffffffffffffffff60026023608081106200027c577f4e487b7100000000000000000000000000000000000000000000000000000000600052603260045260246000fd5b01819055507017d8ec7f0417ffffffffffffffffffffff6002602460808110620002cf577f4e487b7100000000000000000000000000000000000000000000000000000000600052603260045260246000fd5b01819055507016ddc6556cdbffffffffffffffffffffff600260256080811062000322577f4e487b7100000000000000000000000000000000000000000000000000000000600052603260045260246000fd5b01819055507015ecf52776a1ffffffffffffffffffffff600260266080811062000375577f4e487b7100000000000000000000000000000000000000000000000000000000600052603260045260246000fd5b01819055507015060c256cb2ffffffffffffffffffffff6002602760808110620003c8577f4e487b7100000000000000000000000000000000000000000000000000000000600052603260045260246000fd5b0181905550701428a2f98d72ffffffffffffffffffffff60026028608081106200041b577f4e487b7100000000000000000000000000000000000000000000000000000000600052603260045260246000fd5b01819055507013545598e5c23fffffffffffffffffffff60026029608081106200046e577f4e487b7100000000000000000000000000000000000000000000000000000000600052603260045260246000fd5b0181905550701288c4161ce1dfffffffffffffffffffff6002602a60808110620004c1577f4e487b7100000000000000000000000000000000000000000000000000000000600052603260045260246000fd5b01819055507011c592761c666fffffffffffffffffffff6002602b6080811062000514577f4e487b7100000000000000000000000000000000000000000000000000000000600052603260045260246000fd5b018190555070110a688680a757ffffffffffffffffffff6002602c6080811062000567577f4e487b7100000000000000000000000000000000000000000000000000000000600052603260045260246000fd5b0181905550701056f1b5bedf77ffffffffffffffffffff6002602d60808110620005ba577f4e487b7100000000000000000000000000000000000000000000000000000000600052603260045260246000fd5b0181905550700faadceceeff8bffffffffffffffffffff6002602e608081106200060d577f4e487b7100000000000000000000000000000000000000000000000000000000600052603260045260246000fd5b0181905550700f05dc6b27edadffffffffffffffffffff6002602f6080811062000660577f4e487b7100000000000000000000000000000000000000000000000000000000600052603260045260246000fd5b0181905550700e67a5a25da4107fffffffffffffffffff6002603060808110620006b3577f4e487b7100000000000000000000000000000000000000000000000000000000600052603260045260246000fd5b0181905550700dcff115b14eedffffffffffffffffffff600260316080811062000706577f4e487b7100000000000000000000000000000000000000000000000000000000600052603260045260246000fd5b0181905550700d3e7a392431239fffffffffffffffffff600260326080811062000759577f4e487b7100000000000000000000000000000000000000000000000000000000600052603260045260246000fd5b0181905550700cb2ff529eb71e4fffffffffffffffffff6002603360808110620007ac577f4e487b7100000000000000000000000000000000000000000000000000000000600052603260045260246000fd5b0181905550700c2d415c3db974afffffffffffffffffff6002603460808110620007ff577f4e487b7100000000000000000000000000000000000000000000000000000000600052603260045260246000fd5b0181905550700bad03e7d883f69bffffffffffffffffff600260356080811062000852577f4e487b7100000000000000000000000000000000000000000000000000000000600052603260045260246000fd5b0181905550700b320d03b2c343d5ffffffffffffffffff6002603660808110620008a5577f4e487b7100000000000000000000000000000000000000000000000000000000600052603260045260246000fd5b0181905550700abc25204e02828dffffffffffffffffff6002603760808110620008f8577f4e487b7100000000000000000000000000000000000000000000000000000000600052603260045260246000fd5b0181905550700a4b16f74ee4bb207fffffffffffffffff60026038608081106200094b577f4e487b7100000000000000000000000000000000000000000000000000000000600052603260045260246000fd5b01819055507009deaf736ac1f569ffffffffffffffffff60026039608081106200099e577f4e487b7100000000000000000000000000000000000000000000000000000000600052603260045260246000fd5b0181905550700976bd9952c7aa957fffffffffffffffff6002603a60808110620009f1577f4e487b7100000000000000000000000000000000000000000000000000000000600052603260045260246000fd5b01819055507009131271922eaa606fffffffffffffffff6002603b6080811062000a44577f4e487b7100000000000000000000000000000000000000000000000000000000600052603260045260246000fd5b01819055507008b380f3558668c46fffffffffffffffff6002603c6080811062000a97577f4e487b7100000000000000000000000000000000000000000000000000000000600052603260045260246000fd5b0181905550700857ddf0117efa215bffffffffffffffff6002603d6080811062000aea577f4e487b7100000000000000000000000000000000000000000000000000000000600052603260045260246000fd5b01819055507007ffffffffffffffffffffffffffffffff6002603e6080811062000b3d577f4e487b7100000000000000000000000000000000000000000000000000000000600052603260045260246000fd5b01819055507007abbf6f6abb9d087fffffffffffffffff6002603f6080811062000b90577f4e487b7100000000000000000000000000000000000000000000000000000000600052603260045260246000fd5b018190555070075af62cbac95f7dfa7fffffffffffffff600260406080811062000be3577f4e487b7100000000000000000000000000000000000000000000000000000000600052603260045260246000fd5b018190555070070d7fb7452e187ac13fffffffffffffff600260416080811062000c36577f4e487b7100000000000000000000000000000000000000000000000000000000600052603260045260246000fd5b01819055507006c3390ecc8af379295fffffffffffffff600260426080811062000c89577f4e487b7100000000000000000000000000000000000000000000000000000000600052603260045260246000fd5b018190555070067c00a3b07ffc01fd6fffffffffffffff600260436080811062000cdc577f4e487b7100000000000000000000000000000000000000000000000000000000600052603260045260246000fd5b0181905550700637b647c39cbb9d3d27ffffffffffffff600260446080811062000d2f577f4e487b7100000000000000000000000000000000000000000000000000000000600052603260045260246000fd5b01819055507005f63b1fc104dbd39587ffffffffffffff600260456080811062000d82577f4e487b7100000000000000000000000000000000000000000000000000000000600052603260045260246000fd5b01819055507005b771955b36e12f7235ffffffffffffff600260466080811062000dd5577f4e487b7100000000000000000000000000000000000000000000000000000000600052603260045260246000fd5b018190555070057b3d49dda84556d6f6ffffffffffffff600260476080811062000e28577f4e487b7100000000000000000000000000000000000000000000000000000000600052603260045260246000fd5b018190555070054183095b2c8ececf30ffffffffffffff600260486080811062000e7b577f4e487b7100000000000000000000000000000000000000000000000000000000600052603260045260246000fd5b018190555070050a28be635ca2b888f77fffffffffffff600260496080811062000ece577f4e487b7100000000000000000000000000000000000000000000000000000000600052603260045260246000fd5b01819055507004d5156639708c9db33c3fffffffffffff6002604a6080811062000f21577f4e487b7100000000000000000000000000000000000000000000000000000000600052603260045260246000fd5b01819055507004a23105873875bd52dfdfffffffffffff6002604b6080811062000f74577f4e487b7100000000000000000000000000000000000000000000000000000000600052603260045260246000fd5b0181905550700471649d87199aa990756fffffffffffff6002604c6080811062000fc7577f4e487b7100000000000000000000000000000000000000000000000000000000600052603260045260246000fd5b01819055507004429a21a029d4c1457cfbffffffffffff6002604d608081106200101a577f4e487b7100000000000000000000000000000000000000000000000000000000600052603260045260246000fd5b0181905550700415bc6d6fb7dd71af2cb3ffffffffffff6002604e608081106200106d577f4e487b7100000000000000000000000000000000000000000000000000000000600052603260045260246000fd5b01819055507003eab73b3bbfe282243ce1ffffffffffff6002604f60808110620010c0577f4e487b7100000000000000000000000000000000000000000000000000000000600052603260045260246000fd5b01819055507003c1771ac9fb6b4c18e229ffffffffffff600260506080811062001113577f4e487b7100000000000000000000000000000000000000000000000000000000600052603260045260246000fd5b0181905550700399e96897690418f785257fffffffffff600260516080811062001166577f4e487b7100000000000000000000000000000000000000000000000000000000600052603260045260246000fd5b0181905550700373fc456c53bb779bf0ea9fffffffffff6002605260808110620011b9577f4e487b7100000000000000000000000000000000000000000000000000000000600052603260045260246000fd5b018190555070034f9e8e490c48e67e6ab8bfffffffffff60026053608081106200120c577f4e487b7100000000000000000000000000000000000000000000000000000000600052603260045260246000fd5b018190555070032cbfd4a7adc790560b3337ffffffffff60026054608081106200125f577f4e487b7100000000000000000000000000000000000000000000000000000000600052603260045260246000fd5b018190555070030b50570f6e5d2acca94613ffffffffff6002605560808110620012b2577f4e487b7100000000000000000000000000000000000000000000000000000000600052603260045260246000fd5b01819055507002eb40f9f620fda6b56c2861ffffffffff600260566080811062001305577f4e487b7100000000000000000000000000000000000000000000000000000000600052603260045260246000fd5b01819055507002cc8340ecb0d0f520a6af58ffffffffff600260576080811062001358577f4e487b7100000000000000000000000000000000000000000000000000000000600052603260045260246000fd5b01819055507002af09481380a0a35cf1ba02ffffffffff6002605860808110620013ab577f4e487b7100000000000000000000000000000000000000000000000000000000600052603260045260246000fd5b0181905550700292c5bdd3b92ec810287b1b3fffffffff6002605960808110620013fe577f4e487b7100000000000000000000000000000000000000000000000000000000600052603260045260246000fd5b0181905550700277abdcdab07d5a77ac6d6b9fffffffff6002605a6080811062001451577f4e487b7100000000000000000000000000000000000000000000000000000000600052603260045260246000fd5b018190555070025daf6654b1eaa55fd64df5efffffffff6002605b60808110620014a4577f4e487b7100000000000000000000000000000000000000000000000000000000600052603260045260246000fd5b0181905550700244c49c648baa98192dce88b7ffffffff6002605c60808110620014f7577f4e487b7100000000000000000000000000000000000000000000000000000000600052603260045260246000fd5b018190555070022ce03cd5619a311b2471268bffffffff6002605d608081106200154a577f4e487b7100000000000000000000000000000000000000000000000000000000600052603260045260246000fd5b0181905550700215f77c045fbe885654a44a0fffffffff6002605e608081106200159d577f4e487b7100000000000000000000000000000000000000000000000000000000600052603260045260246000fd5b01819055507001ffffffffffffffffffffffffffffffff6002605f60808110620015f0577f4e487b7100000000000000000000000000000000000000000000000000000000600052603260045260246000fd5b01819055507001eaefdbdaaee7421fc4d3ede5ffffffff600260606080811062001643577f4e487b7100000000000000000000000000000000000000000000000000000000600052603260045260246000fd5b01819055507001d6bd8b2eb257df7e8ca57b09bfffffff600260616080811062001696577f4e487b7100000000000000000000000000000000000000000000000000000000600052603260045260246000fd5b01819055507001c35fedd14b861eb0443f7f133fffffff6002606260808110620016e9577f4e487b7100000000000000000000000000000000000000000000000000000000600052603260045260246000fd5b01819055507001b0ce43b322bcde4a56e8ada5afffffff60026063608081106200173c577f4e487b7100000000000000000000000000000000000000000000000000000000600052603260045260246000fd5b018190555070019f0028ec1fff007f5a195a39dfffffff60026064608081106200178f577f4e487b7100000000000000000000000000000000000000000000000000000000600052603260045260246000fd5b018190555070018ded91f0e72ee74f49b15ba527ffffff6002606560808110620017e2577f4e487b7100000000000000000000000000000000000000000000000000000000600052603260045260246000fd5b018190555070017d8ec7f04136f4e5615fd41a63ffffff600260666080811062001835577f4e487b7100000000000000000000000000000000000000000000000000000000600052603260045260246000fd5b018190555070016ddc6556cdb84bdc8d12d22e6fffffff600260676080811062001888577f4e487b7100000000000000000000000000000000000000000000000000000000600052603260045260246000fd5b018190555070015ecf52776a1155b5bd8395814f7fffff6002606860808110620018db577f4e487b7100000000000000000000000000000000000000000000000000000000600052603260045260246000fd5b018190555070015060c256cb23b3b3cc3754cf40ffffff60026069608081106200192e577f4e487b7100000000000000000000000000000000000000000000000000000000600052603260045260246000fd5b01819055507001428a2f98d728ae223ddab715be3fffff6002606a6080811062001981577f4e487b7100000000000000000000000000000000000000000000000000000000600052603260045260246000fd5b018190555070013545598e5c23276ccf0ede68034fffff6002606b60808110620019d4577f4e487b7100000000000000000000000000000000000000000000000000000000600052603260045260246000fd5b01819055507001288c4161ce1d6f54b7f61081194fffff6002606c6080811062001a27577f4e487b7100000000000000000000000000000000000000000000000000000000600052603260045260246000fd5b018190555070011c592761c666aa641d5a01a40f17ffff6002606d6080811062001a7a577f4e487b7100000000000000000000000000000000000000000000000000000000600052603260045260246000fd5b0181905550700110a688680a7530515f3e6e6cfdcdffff6002606e6080811062001acd577f4e487b7100000000000000000000000000000000000000000000000000000000600052603260045260246000fd5b01819055507001056f1b5bedf75c6bcb2ce8aed428ffff6002606f6080811062001b20577f4e487b7100000000000000000000000000000000000000000000000000000000600052603260045260246000fd5b01819055506ffaadceceeff8a0890f3875f008277fff600260706080811062001b72577f4e487b7100000000000000000000000000000000000000000000000000000000600052603260045260246000fd5b01819055506ff05dc6b27edad306388a600f6ba0bfff600260716080811062001bc4577f4e487b7100000000000000000000000000000000000000000000000000000000600052603260045260246000fd5b01819055506fe67a5a25da41063de1495d5b18cdbfff600260726080811062001c16577f4e487b7100000000000000000000000000000000000000000000000000000000600052603260045260246000fd5b01819055506fdcff115b14eedde6fc3aa5353f2e4fff600260736080811062001c68577f4e487b7100000000000000000000000000000000000000000000000000000000600052603260045260246000fd5b01819055506fd3e7a3924312399f9aae2e0f868f8fff600260746080811062001cba577f4e487b7100000000000000000000000000000000000000000000000000000000600052603260045260246000fd5b01819055506fcb2ff529eb71e41582cccd5a1ee26fff600260756080811062001d0c577f4e487b7100000000000000000000000000000000000000000000000000000000600052603260045260246000fd5b01819055506fc2d415c3db974ab32a51840c0b67edff600260766080811062001d5e577f4e487b7100000000000000000000000000000000000000000000000000000000600052603260045260246000fd5b01819055506fbad03e7d883f69ad5b0a186184e06bff600260776080811062001db0577f4e487b7100000000000000000000000000000000000000000000000000000000600052603260045260246000fd5b01819055506fb320d03b2c343d4829abd6075f0cc5ff600260786080811062001e02577f4e487b7100000000000000000000000000000000000000000000000000000000600052603260045260246000fd5b01819055506fabc25204e02828d73c6e80bcdb1a95bf600260796080811062001e54577f4e487b7100000000000000000000000000000000000000000000000000000000600052603260045260246000fd5b01819055506fa4b16f74ee4bb2040a1ec6c15fbbf2df6002607a6080811062001ea6577f4e487b7100000000000000000000000000000000000000000000000000000000600052603260045260246000fd5b01819055506f9deaf736ac1f569deb1b5ae3f36c130f6002607b6080811062001ef8577f4e487b7100000000000000000000000000000000000000000000000000000000600052603260045260246000fd5b01819055506f976bd9952c7aa957f5937d790ef650376002607c6080811062001f4a577f4e487b7100000000000000000000000000000000000000000000000000000000600052603260045260246000fd5b01819055506f9131271922eaa6064b73a22d0bd4f2bf6002607d6080811062001f9c577f4e487b7100000000000000000000000000000000000000000000000000000000600052603260045260246000fd5b01819055506f8b380f3558668c46c91c49a2f8e967b96002607e6080811062001fee577f4e487b7100000000000000000000000000000000000000000000000000000000600052603260045260246000fd5b01819055506f857ddf0117efa215952912839f6473e66002607f6080811062002040577f4e487b7100000000000000000000000000000000000000000000000000000000600052603260045260246000fd5b0181905550620f4240608260006101000a81548163ffffffff021916908363ffffffff16021790555082608960006101000a81548173ffffffffffffffffffffffffffffffffffffffff021916908373ffffffffffffffffffffffffffffffffffffffff16021790555083608a60006101000a81548173ffffffffffffffffffffffffffffffffffffffff021916908373ffffffffffffffffffffffffffffffffffffffff16021790555084608b60006101000a81548173ffffffffffffffffffffffffffffffffffffffff021916908373ffffffffffffffffffffffffffffffffffffffff160217905550608c60009080600181540180825580915050600190039060005260206000200160009091909190916101000a81548173ffffffffffffffffffffffffffffffffffffffff021916908373ffffffffffffffffffffffffffffffffffffffff160217905550608c608960009054906101000a900473ffffffffffffffffffffffffffffffffffffffff169080600181540180825580915050600190039060005260206000200160009091909190916101000a81548173ffffffffffffffffffffffffffffffffffffffff021916908373ffffffffffffffffffffffffffffffffffffffff160217905550600160878190555081608260046101000a81548163ffffffff021916908363ffffffff16021790555080608481905550601960858190555061271060868190555060026088819055505050505050620024e9565b600033905090565b8280546200227f9062002436565b90600052602060002090601f016020900481019282620022a35760008555620022ef565b82601f10620022be57805160ff1916838001178555620022ef565b82800160010185558215620022ef579182015b82811115620022ee578251825591602001919060010190620022d1565b5b509050620022fe919062002302565b5090565b5b808211156200231d57600081600090555060010162002303565b5090565b60008151905062002332816200249b565b92915050565b6000815190506200234981620024b5565b92915050565b6000815190506200236081620024cf565b92915050565b600080600080600060a086880312156200237f57600080fd5b60006200238f8882890162002321565b9550506020620023a28882890162002321565b9450506040620023b58882890162002321565b9350506060620023c8888289016200234f565b9250506080620023db8882890162002338565b9150509295509295909350565b6000620023f582620023fc565b9050919050565b600073ffffffffffffffffffffffffffffffffffffffff82169050919050565b6000819050919050565b600063ffffffff82169050919050565b600060028204905060018216806200244f57607f821691505b602082108114156200246657620024656200246c565b5b50919050565b7f4e487b7100000000000000000000000000000000000000000000000000000000600052602260045260246000fd5b620024a681620023e8565b8114620024b257600080fd5b50565b620024c0816200241c565b8114620024cc57600080fd5b50565b620024da8162002426565b8114620024e657600080fd5b50565b61404980620024f96000396000f3fe6080604052600436106101815760003560e01c80637b80889b116100d1578063ca3e24c91161008a578063e4a28a5211610064578063e4a28a5214610543578063eccc32f21461056e578063f04b118814610599578063f2fde38b146105d657610181565b8063ca3e24c9146104c1578063d53ffbcf146104ea578063e1f1e9021461050657610181565b80637b80889b146103af5780638da5cb5b146103da5780639104c81e14610405578063918b7cfe1461042e578063b586c9a21461046b578063b6faaf8a1461049657610181565b806354fd4d501161013e57806370ba11131161011857806370ba111314610319578063715018a614610344578063717ad4381461035b578063780249cd1461038457610181565b806354fd4d50146102985780635cf590d9146102c357806363795d57146102ee57610181565b80630a9254e4146101865780631f2dc5ef1461019d57806324d69228146101c857806329a00e7c146101f35780634242bac01461023057806349f9b0f71461025b575b600080fd5b34801561019257600080fd5b5061019b6105ff565b005b3480156101a957600080fd5b506101b26107c1565b6040516101bf9190613b2a565b60405180910390f35b3480156101d457600080fd5b506101dd6107c7565b6040516101ea9190613b2a565b60405180910390f35b3480156101ff57600080fd5b5061021a600480360381019061021591906137c8565b6109b3565b6040516102279190613b2a565b60405180910390f35b34801561023c57600080fd5b50610245610ae5565b6040516102529190613a8d565b60405180910390f35b34801561026757600080fd5b50610282600480360381019061027d91906137c8565b610b0b565b60405161028f9190613b2a565b60405180910390f35b3480156102a457600080fd5b506102ad610c71565b6040516102ba9190613aa8565b60405180910390f35b3480156102cf57600080fd5b506102d8610cff565b6040516102e59190613b2a565b60405180910390f35b3480156102fa57600080fd5b50610303610d05565b6040516103109190613b2a565b60405180910390f35b34801561032557600080fd5b5061032e610d0b565b60405161033b9190613b2a565b60405180910390f35b34801561035057600080fd5b50610359610d11565b005b34801561036757600080fd5b50610382600480360381019061037d91906136c2565b610e4b565b005b34801561039057600080fd5b50610399610fc4565b6040516103a69190613a57565b60405180910390f35b3480156103bb57600080fd5b506103c4610fea565b6040516103d19190613b2a565b60405180910390f35b3480156103e657600080fd5b506103ef610ff0565b6040516103fc91906139b3565b60405180910390f35b34801561041157600080fd5b5061042c6004803603810190610427919061373a565b611019565b005b34801561043a57600080fd5b506104556004803603810190610450919061373a565b6112db565b60405161046291906139b3565b60405180910390f35b34801561047757600080fd5b5061048061131a565b60405161048d9190613b45565b60405180910390f35b3480156104a257600080fd5b506104ab611330565b6040516104b89190613b2a565b60405180910390f35b3480156104cd57600080fd5b506104e860048036038101906104e39190613699565b611336565b005b61050460048036038101906104ff919061378c565b611452565b005b34801561051257600080fd5b5061052d6004803603810190610528919061373a565b611693565b60405161053a9190613b2a565b60405180910390f35b34801561054f57600080fd5b50610558611771565b6040516105659190613b45565b60405180910390f35b34801561057a57600080fd5b50610583611787565b6040516105909190613a72565b60405180910390f35b3480156105a557600080fd5b506105c060048036038101906105bb919061373a565b6117ad565b6040516105cd9190613b2a565b60405180910390f35b3480156105e257600080fd5b506105fd60048036038101906105f89190613699565b6118b5565b005b610607611a5e565b73ffffffffffffffffffffffffffffffffffffffff16610625610ff0565b73ffffffffffffffffffffffffffffffffffffffff161461067b576040517f08c379a000000000000000000000000000000000000000000000000000000000815260040161067290613aea565b60405180910390fd5b608b60009054906101000a900473ffffffffffffffffffffffffffffffffffffffff1673ffffffffffffffffffffffffffffffffffffffff166383ac74f9306b204fce5e3e250261100000006040518363ffffffff1660e01b81526004016106e4929190613a05565b600060405180830381600087803b1580156106fe57600080fd5b505af1158015610712573d6000803e3d6000fd5b50505050600061072d6b204fce5e3e25026110000000611693565b9050608b60009054906101000a900473ffffffffffffffffffffffffffffffffffffffff1673ffffffffffffffffffffffffffffffffffffffff166382f4f5b433836040518363ffffffff1660e01b815260040161078c929190613a2e565b600060405180830381600087803b1580156107a657600080fd5b505af11580156107ba573d6000803e3d6000fd5b5050505050565b60865481565b60008060005b608c8054905081116109ab57600073ffffffffffffffffffffffffffffffffffffffff16608c828154811061082b577f4e487b7100000000000000000000000000000000000000000000000000000000600052603260045260246000fd5b9060005260206000200160009054906101000a900473ffffffffffffffffffffffffffffffffffffffff1673ffffffffffffffffffffffffffffffffffffffff16141561088c576108854783611a6690919063ffffffff16565b915061099a565b6000608c82815481106108c8577f4e487b7100000000000000000000000000000000000000000000000000000000600052603260045260246000fd5b9060005260206000200160009054906101000a900473ffffffffffffffffffffffffffffffffffffffff16905060008173ffffffffffffffffffffffffffffffffffffffff166370a08231306040518263ffffffff1660e01b815260040161093091906139b3565b60206040518083038186803b15801561094857600080fd5b505afa15801561095c573d6000803e3d6000fd5b505050506040513d601f19601f820116820180604052508101906109809190613763565b90506109958185611a6690919063ffffffff16565b935050505b806109a490613e9f565b90506107cd565b508091505090565b600080851180156109c45750600084115b80156109d6575060008363ffffffff16115b8015610a005750608260009054906101000a900463ffffffff1663ffffffff168363ffffffff1611155b610a0957600080fd5b6000821415610a1b5760009050610add565b608260009054906101000a900463ffffffff1663ffffffff168363ffffffff161415610a6d57610a6684610a588488611a7c90919063ffffffff16565b611a9290919063ffffffff16565b9050610add565b6000806000610a858786611a6690919063ffffffff16565b9050610aa5818888608260009054906101000a900463ffffffff16611aa8565b809350819450505060008260ff16610ac6858b611a7c90919063ffffffff16565b901c90508881610ad69190613cc5565b9450505050505b949350505050565b608a60009054906101000a900473ffffffffffffffffffffffffffffffffffffffff1681565b60008085118015610b1c5750600084115b8015610b2e575060008363ffffffff16115b8015610b585750608260009054906101000a900463ffffffff1663ffffffff168363ffffffff1611155b8015610b645750848211155b610b6d57600080fd5b6000821415610b7f5760009050610c69565b84821415610b8f57839050610c69565b608260009054906101000a900463ffffffff1663ffffffff168363ffffffff161415610be157610bda85610bcc8487611a7c90919063ffffffff16565b611a9290919063ffffffff16565b9050610c69565b60008060008488610bf29190613cc5565b9050610c128882608260009054906101000a900463ffffffff1689611aa8565b80935081945050506000610c2f8489611a7c90919063ffffffff16565b905060008360ff1689901b9050610c6185610c538385611c2990919063ffffffff16565b611a9290919063ffffffff16565b955050505050505b949350505050565b60018054610c7e90613e6d565b80601f0160208091040260200160405190810160405280929190818152602001828054610caa90613e6d565b8015610cf75780601f10610ccc57610100808354040283529160200191610cf7565b820191906000526020600020905b815481529060010190602001808311610cda57829003601f168201915b505050505081565b60845481565b60885481565b60855481565b610d19611a5e565b73ffffffffffffffffffffffffffffffffffffffff16610d37610ff0565b73ffffffffffffffffffffffffffffffffffffffff1614610d8d576040517f08c379a0000000000000000000000000000000000000000000000000000000008152600401610d8490613aea565b60405180910390fd5b600073ffffffffffffffffffffffffffffffffffffffff1660008054906101000a900473ffffffffffffffffffffffffffffffffffffffff1673ffffffffffffffffffffffffffffffffffffffff167f8be0079c531659141344cd1fd0a4f28419497f9722a3daafe3b4186f6b6457e060405160405180910390a360008060006101000a81548173ffffffffffffffffffffffffffffffffffffffff021916908373ffffffffffffffffffffffffffffffffffffffff160217905550565b610e53611a5e565b73ffffffffffffffffffffffffffffffffffffffff16610e71610ff0565b73ffffffffffffffffffffffffffffffffffffffff1614610ec7576040517f08c379a0000000000000000000000000000000000000000000000000000000008152600401610ebe90613aea565b60405180910390fd5b6000608c8381548110610f03577f4e487b7100000000000000000000000000000000000000000000000000000000600052603260045260246000fd5b9060005260206000200160009054906101000a900473ffffffffffffffffffffffffffffffffffffffff1690508073ffffffffffffffffffffffffffffffffffffffff1663a9059cbb85846040518363ffffffff1660e01b8152600401610f6b929190613a2e565b602060405180830381600087803b158015610f8557600080fd5b505af1158015610f99573d6000803e3d6000fd5b505050506040513d601f19601f82011682018060405250810190610fbd9190613711565b5050505050565b608b60009054906101000a900473ffffffffffffffffffffffffffffffffffffffff1681565b60835481565b60008060009054906101000a900473ffffffffffffffffffffffffffffffffffffffff16905090565b6000611024826117ad565b9050608b60009054906101000a900473ffffffffffffffffffffffffffffffffffffffff1673ffffffffffffffffffffffffffffffffffffffff16639c94f65133836040518363ffffffff1660e01b8152600401611083929190613a2e565b600060405180830381600087803b15801561109d57600080fd5b505af11580156110b1573d6000803e3d6000fd5b505050506000608c80549050905060006110d48284611a9290919063ffffffff16565b905060005b608c8054905081116112d457600073ffffffffffffffffffffffffffffffffffffffff16608c8281548110611137577f4e487b7100000000000000000000000000000000000000000000000000000000600052603260045260246000fd5b9060005260206000200160009054906101000a900473ffffffffffffffffffffffffffffffffffffffff1673ffffffffffffffffffffffffffffffffffffffff1614156111ca573373ffffffffffffffffffffffffffffffffffffffff166108fc839081150290604051600060405180830381858888f193505050501580156111c4573d6000803e3d6000fd5b506112c3565b6000608c8281548110611206577f4e487b7100000000000000000000000000000000000000000000000000000000600052603260045260246000fd5b9060005260206000200160009054906101000a900473ffffffffffffffffffffffffffffffffffffffff1690508073ffffffffffffffffffffffffffffffffffffffff1663a9059cbb33856040518363ffffffff1660e01b815260040161126e929190613a2e565b602060405180830381600087803b15801561128857600080fd5b505af115801561129c573d6000803e3d6000fd5b505050506040513d601f19601f820116820180604052508101906112c09190613711565b50505b806112cd90613e9f565b90506110d9565b5050505050565b608c81815481106112eb57600080fd5b906000526020600020016000915054906101000a900473ffffffffffffffffffffffffffffffffffffffff1681565b608260049054906101000a900463ffffffff1681565b60875481565b61133e611a5e565b73ffffffffffffffffffffffffffffffffffffffff1661135c610ff0565b73ffffffffffffffffffffffffffffffffffffffff16146113b2576040517f08c379a00000000000000000000000000000000000000000000000000000000081526004016113a990613aea565b60405180910390fd5b608760008154809291906113c590613e9f565b919050555080608c60875481548110611407577f4e487b7100000000000000000000000000000000000000000000000000000000600052603260045260246000fd5b9060005260206000200160006101000a81548173ffffffffffffffffffffffffffffffffffffffff021916908373ffffffffffffffffffffffffffffffffffffffff16021790555050565b600061145d83611693565b90506000808314156114715734905061156f565b6000608c84815481106114ad577f4e487b7100000000000000000000000000000000000000000000000000000000600052603260045260246000fd5b9060005260206000200160009054906101000a900473ffffffffffffffffffffffffffffffffffffffff1690508491508073ffffffffffffffffffffffffffffffffffffffff166323b872dd3330856040518463ffffffff1660e01b815260040161151a939291906139ce565b602060405180830381600087803b15801561153457600080fd5b505af1158015611548573d6000803e3d6000fd5b505050506040513d601f19601f8201168201806040525081019061156c9190613711565b50505b608b60009054906101000a900473ffffffffffffffffffffffffffffffffffffffff1673ffffffffffffffffffffffffffffffffffffffff166383ac74f930836040518363ffffffff1660e01b81526004016115cc929190613a2e565b600060405180830381600087803b1580156115e657600080fd5b505af11580156115fa573d6000803e3d6000fd5b50505050608b60009054906101000a900473ffffffffffffffffffffffffffffffffffffffff1673ffffffffffffffffffffffffffffffffffffffff166382f4f5b433846040518363ffffffff1660e01b815260040161165b929190613a2e565b600060405180830381600087803b15801561167557600080fd5b505af1158015611689573d6000803e3d6000fd5b5050505050505050565b60008061169e6107c7565b90506000608a60009054906101000a900473ffffffffffffffffffffffffffffffffffffffff1673ffffffffffffffffffffffffffffffffffffffff166318160ddd6040518163ffffffff1660e01b815260040160206040518083038186803b15801561170a57600080fd5b505afa15801561171e573d6000803e3d6000fd5b505050506040513d601f19601f820116820180604052508101906117429190613763565b905060006117648284608260049054906101000a900463ffffffff16886109b3565b9050809350505050919050565b608260009054906101000a900463ffffffff1681565b608960009054906101000a900473ffffffffffffffffffffffffffffffffffffffff1681565b6000806117b86107c7565b90506000608a60009054906101000a900473ffffffffffffffffffffffffffffffffffffffff1673ffffffffffffffffffffffffffffffffffffffff166318160ddd6040518163ffffffff1660e01b815260040160206040518083038186803b15801561182457600080fd5b505afa158015611838573d6000803e3d6000fd5b505050506040513d601f19601f8201168201806040525081019061185c9190613763565b9050600061187e8284608260049054906101000a900463ffffffff1688610b0b565b90506118a8606461189a60845484611a7c90919063ffffffff16565b611a9290919063ffffffff16565b9050809350505050919050565b6118bd611a5e565b73ffffffffffffffffffffffffffffffffffffffff166118db610ff0565b73ffffffffffffffffffffffffffffffffffffffff1614611931576040517f08c379a000000000000000000000000000000000000000000000000000000000815260040161192890613aea565b60405180910390fd5b600073ffffffffffffffffffffffffffffffffffffffff168173ffffffffffffffffffffffffffffffffffffffff1614156119a1576040517f08c379a000000000000000000000000000000000000000000000000000000000815260040161199890613aca565b60405180910390fd5b8073ffffffffffffffffffffffffffffffffffffffff1660008054906101000a900473ffffffffffffffffffffffffffffffffffffffff1673ffffffffffffffffffffffffffffffffffffffff167f8be0079c531659141344cd1fd0a4f28419497f9722a3daafe3b4186f6b6457e060405160405180910390a3806000806101000a81548173ffffffffffffffffffffffffffffffffffffffff021916908373ffffffffffffffffffffffffffffffffffffffff16021790555050565b600033905090565b60008183611a749190613b7c565b905092915050565b60008183611a8a9190613c6b565b905092915050565b60008183611aa09190613c09565b905092915050565b6000807002000000000000000000000000000000008610611af2577f4e487b7100000000000000000000000000000000000000000000000000000000600052600160045260246000fd5b84861015611b35576040517f08c379a0000000000000000000000000000000000000000000000000000000008152600401611b2c90613b0a565b60405180910390fd5b600080866f8000000000000000000000000000000089611b559190613c6b565b611b5f9190613c09565b905070015bf0a8b1457695355fb8ac404e7a79e3811015611b8a57611b8381611c3f565b9150611b96565b611b93816123b8565b91505b60008563ffffffff168763ffffffff1684611bb19190613c6b565b611bbb9190613c09565b9050700800000000000000000000000000000000811015611bed57611bdf81612518565b607f94509450505050611c20565b6000611bf882612d1c565b9050611c1681607f611c0a9190613cf9565b60ff1683901c82612e96565b8195509550505050505b94509492505050565b60008183611c379190613cc5565b905092915050565b6000806000905060008060006fd3094c70f034de4b96ff7d5b6f99fcd88610611cba576f4000000000000000000000000000000084611c7e9190613b7c565b93506fd3094c70f034de4b96ff7d5b6f99fcd86f8000000000000000000000000000000087611cad9190613c6b565b611cb79190613c09565b95505b6fa45af1e1f40c333b3de1db4dd55f29a78610611d29576f2000000000000000000000000000000084611ced9190613b7c565b93506fa45af1e1f40c333b3de1db4dd55f29a76f8000000000000000000000000000000087611d1c9190613c6b565b611d269190613c09565b95505b6f910b022db7ae67ce76b441c27035c6a18610611d98576f1000000000000000000000000000000084611d5c9190613b7c565b93506f910b022db7ae67ce76b441c27035c6a16f8000000000000000000000000000000087611d8b9190613c6b565b611d959190613c09565b95505b6f88415abbe9a76bead8d00cf112e4d4a88610611e07576f0800000000000000000000000000000084611dcb9190613b7c565b93506f88415abbe9a76bead8d00cf112e4d4a86f8000000000000000000000000000000087611dfa9190613c6b565b611e049190613c09565b95505b6f84102b00893f64c705e841d5d4064bd38610611e76576f0400000000000000000000000000000084611e3a9190613b7c565b93506f84102b00893f64c705e841d5d4064bd36f8000000000000000000000000000000087611e699190613c6b565b611e739190613c09565b95505b6f8204055aaef1c8bd5c3259f4822735a28610611ee5576f0200000000000000000000000000000084611ea99190613b7c565b93506f8204055aaef1c8bd5c3259f4822735a26f8000000000000000000000000000000087611ed89190613c6b565b611ee29190613c09565b95505b6f810100ab00222d861931c15e39b44e998610611f54576f0100000000000000000000000000000084611f189190613b7c565b93506f810100ab00222d861931c15e39b44e996f8000000000000000000000000000000087611f479190613c6b565b611f519190613c09565b95505b6f808040155aabbbe9451521693554f7338610611fc2576e80000000000000000000000000000084611f869190613b7c565b93506f808040155aabbbe9451521693554f7336f8000000000000000000000000000000087611fb59190613c6b565b611fbf9190613c09565b95505b6f8000000000000000000000000000000086611fde9190613cc5565b92508291506f8000000000000000000000000000000083846120009190613c6b565b61200a9190613c09565b90507001000000000000000000000000000000008370010000000000000000000000000000000061203b9190613cc5565b836120469190613c6b565b6120509190613c09565b8461205b9190613b7c565b93506f80000000000000000000000000000000818361207a9190613c6b565b6120849190613c09565b9150700200000000000000000000000000000000836faaaaaaaaaaaaaaaaaaaaaaaaaaaaaaaa6120b49190613cc5565b836120bf9190613c6b565b6120c99190613c09565b846120d49190613b7c565b93506f8000000000000000000000000000000081836120f39190613c6b565b6120fd9190613c09565b9150700300000000000000000000000000000000836f9999999999999999999999999999999961212d9190613cc5565b836121389190613c6b565b6121429190613c09565b8461214d9190613b7c565b93506f80000000000000000000000000000000818361216c9190613c6b565b6121769190613c09565b9150700400000000000000000000000000000000836f924924924924924924924924924924926121a69190613cc5565b836121b19190613c6b565b6121bb9190613c09565b846121c69190613b7c565b93506f8000000000000000000000000000000081836121e59190613c6b565b6121ef9190613c09565b9150700500000000000000000000000000000000836f8e38e38e38e38e38e38e38e38e38e38e61221f9190613cc5565b8361222a9190613c6b565b6122349190613c09565b8461223f9190613b7c565b93506f80000000000000000000000000000000818361225e9190613c6b565b6122689190613c09565b9150700600000000000000000000000000000000836f8ba2e8ba2e8ba2e8ba2e8ba2e8ba2e8b6122989190613cc5565b836122a39190613c6b565b6122ad9190613c09565b846122b89190613b7c565b93506f8000000000000000000000000000000081836122d79190613c6b565b6122e19190613c09565b9150700700000000000000000000000000000000836f89d89d89d89d89d89d89d89d89d89d896123119190613cc5565b8361231c9190613c6b565b6123269190613c09565b846123319190613b7c565b93506f8000000000000000000000000000000081836123509190613c6b565b61235a9190613c09565b9150700800000000000000000000000000000000836f8888888888888888888888888888888861238a9190613cc5565b836123959190613c6b565b61239f9190613c09565b846123aa9190613b7c565b935083945050505050919050565b60008060009050600083905070010000000000000000000000000000000081106124305760006124026f80000000000000000000000000000000836123fd9190613c09565b6135a5565b90508060ff1682901c91506f800000000000000000000000000000008160ff1661242c9190613c6b565b9250505b6f800000000000000000000000000000008111156124d8576000607f90505b60008160ff1611156124d6576f8000000000000000000000000000000082836124789190613c6b565b6124829190613c09565b915070010000000000000000000000000000000082106124c557600182901c91506001816124b09190613cf9565b60ff166001901b836124c29190613b7c565b92505b806124cf90613e43565b905061244f565b505b6f05b9de1d10bf4103d647b0955897ba806f03f80fe03f80fe03f80fe03f80fe03f8836125059190613c6b565b61250f9190613c09565b92505050919050565b600080600090506000806f100000000000000000000000000000008561253e9190613ee8565b91508190506f8000000000000000000000000000000082826125609190613c6b565b61256a9190613c09565b90506710e1b3be415a0000816125809190613c6b565b8361258b9190613b7c565b92506f8000000000000000000000000000000082826125aa9190613c6b565b6125b49190613c09565b90506705a0913f6b1e0000816125ca9190613c6b565b836125d59190613b7c565b92506f8000000000000000000000000000000082826125f49190613c6b565b6125fe9190613c09565b9050670168244fdac78000816126149190613c6b565b8361261f9190613b7c565b92506f80000000000000000000000000000000828261263e9190613c6b565b6126489190613c09565b9050664807432bc180008161265d9190613c6b565b836126689190613b7c565b92506f8000000000000000000000000000000082826126879190613c6b565b6126919190613c09565b9050660c0135dca04000816126a69190613c6b565b836126b19190613b7c565b92506f8000000000000000000000000000000082826126d09190613c6b565b6126da9190613c09565b90506601b707b1cdc000816126ef9190613c6b565b836126fa9190613b7c565b92506f8000000000000000000000000000000082826127199190613c6b565b6127239190613c09565b90506536e0f639b800816127379190613c6b565b836127429190613b7c565b92506f8000000000000000000000000000000082826127619190613c6b565b61276b9190613c09565b9050650618fee9f8008161277f9190613c6b565b8361278a9190613b7c565b92506f8000000000000000000000000000000082826127a99190613c6b565b6127b39190613c09565b9050649c197dcc00816127c69190613c6b565b836127d19190613b7c565b92506f8000000000000000000000000000000082826127f09190613c6b565b6127fa9190613c09565b9050640e30dce4008161280d9190613c6b565b836128189190613b7c565b92506f8000000000000000000000000000000082826128379190613c6b565b6128419190613c09565b905064012ebd1300816128549190613c6b565b8361285f9190613b7c565b92506f80000000000000000000000000000000828261287e9190613c6b565b6128889190613c09565b90506317499f008161289a9190613c6b565b836128a59190613b7c565b92506f8000000000000000000000000000000082826128c49190613c6b565b6128ce9190613c09565b90506301a9d480816128e09190613c6b565b836128eb9190613b7c565b92506f80000000000000000000000000000000828261290a9190613c6b565b6129149190613c09565b9050621c6380816129259190613c6b565b836129309190613b7c565b92506f80000000000000000000000000000000828261294f9190613c6b565b6129599190613c09565b90506201c6388161296a9190613c6b565b836129759190613b7c565b92506f8000000000000000000000000000000082826129949190613c6b565b61299e9190613c09565b9050611ab8816129ae9190613c6b565b836129b99190613b7c565b92506f8000000000000000000000000000000082826129d89190613c6b565b6129e29190613c09565b905061017c816129f29190613c6b565b836129fd9190613b7c565b92506f800000000000000000000000000000008282612a1c9190613c6b565b612a269190613c09565b9050601481612a359190613c6b565b83612a409190613b7c565b92506f800000000000000000000000000000008282612a5f9190613c6b565b612a699190613c09565b9050600181612a789190613c6b565b83612a839190613b7c565b92506f80000000000000000000000000000000826721c3677c82b4000085612aab9190613c09565b612ab59190613b7c565b612abf9190613b7c565b925060006f10000000000000000000000000000000861614612b175770018ebef9eac820ae8682b9793ac6d1e7767001c3d6a24ed82218787d624d3e5eba95f984612b0a9190613c6b565b612b149190613c09565b92505b60006f20000000000000000000000000000000861614612b6d577001368b2fc6f9609fe7aceb46aa619baed470018ebef9eac820ae8682b9793ac6d1e77884612b609190613c6b565b612b6a9190613c09565b92505b60006f40000000000000000000000000000000861614612bc2576fbc5ab1b16779be3575bd8f0520a9f21f7001368b2fc6f9609fe7aceb46aa619baed584612bb59190613c6b565b612bbf9190613c09565b92505b60006f80000000000000000000000000000000861614612c16576f454aaa8efe072e7f6ddbab84b40a55c96fbc5ab1b16779be3575bd8f0520a9f21e84612c099190613c6b565b612c139190613c09565b92505b6000700100000000000000000000000000000000861614612c6b576f0960aadc109e7a3bf4578099615711ea6f454aaa8efe072e7f6ddbab84b40a55c584612c5e9190613c6b565b612c689190613c09565b92505b6000700200000000000000000000000000000000861614612cbf576e2bf84208204f5977f9a8cf01fdce3d6f0960aadc109e7a3bf4578099615711d784612cb29190613c6b565b612cbc9190613c09565b92505b6000700400000000000000000000000000000000861614612d11576d03c6ab775dd0b95b4cbee7e65d116e2bf84208204f5977f9a8cf01fdc30784612d049190613c6b565b612d0e9190613c09565b92505b829350505050919050565b600080602090506000607f90505b8060ff16600183612d3b9190613bd2565b60ff161015612db757600060028284612d549190613bd2565b612d5e9190613c3a565b90508460028260ff1660808110612d9e577f4e487b7100000000000000000000000000000000000000000000000000000000600052603260045260246000fd5b015410612dad57809250612db1565b8091505b50612d2a565b8360028260ff1660808110612df5577f4e487b7100000000000000000000000000000000000000000000000000000000600052603260045260246000fd5b015410612e06578092505050612e91565b8360028360ff1660808110612e44577f4e487b7100000000000000000000000000000000000000000000000000000000600052603260045260246000fd5b015410612e55578192505050612e91565b6000612e8a577f4e487b7100000000000000000000000000000000000000000000000000000000600052600160045260246000fd5b6000925050505b919050565b60008083905060008360ff168583612eae9190613c6b565b901c91506f03442c4e6074a82f1797f72ac000000082612ece9190613c6b565b81612ed99190613b7c565b90508360ff168583612eeb9190613c6b565b901c91506f0116b96f757c380fb287fd0e4000000082612f0b9190613c6b565b81612f169190613b7c565b90508360ff168583612f289190613c6b565b901c91506e45ae5bdd5f0e03eca1ff439000000082612f479190613c6b565b81612f529190613b7c565b90508360ff168583612f649190613c6b565b901c91506e0defabf91302cd95b9ffda5000000082612f839190613c6b565b81612f8e9190613b7c565b90508360ff168583612fa09190613c6b565b901c91506e02529ca9832b22439efff9b800000082612fbf9190613c6b565b81612fca9190613b7c565b90508360ff168583612fdc9190613c6b565b901c91506d54f1cf12bd04e516b6da8800000082612ffa9190613c6b565b816130059190613b7c565b90508360ff1685836130179190613c6b565b901c91506d0a9e39e257a09ca2d6db51000000826130359190613c6b565b816130409190613b7c565b90508360ff1685836130529190613c6b565b901c91506d012e066e7b839fa050c309000000826130709190613c6b565b8161307b9190613b7c565b90508360ff16858361308d9190613c6b565b901c91506c1e33d7d926c329a1ad1a800000826130aa9190613c6b565b816130b59190613b7c565b90508360ff1685836130c79190613c6b565b901c91506c02bee513bdb4a6b19b5f800000826130e49190613c6b565b816130ef9190613b7c565b90508360ff1685836131019190613c6b565b901c91506b3a9316fa79b88eccf2a000008261311d9190613c6b565b816131289190613b7c565b90508360ff16858361313a9190613c6b565b901c91506b048177ebe1fa812375200000826131569190613c6b565b816131619190613b7c565b90508360ff1685836131739190613c6b565b901c91506a5263fe90242dcbacf000008261318e9190613c6b565b816131999190613b7c565b90508360ff1685836131ab9190613c6b565b901c91506a057e22099c030d94100000826131c69190613c6b565b816131d19190613b7c565b90508360ff1685836131e39190613c6b565b901c91506957e22099c030d9410000826131fd9190613c6b565b816132089190613b7c565b90508360ff16858361321a9190613c6b565b901c915069052b6b54569976310000826132349190613c6b565b8161323f9190613b7c565b90508360ff1685836132519190613c6b565b901c9150684985f67696bf7480008261326a9190613c6b565b816132759190613b7c565b90508360ff1685836132879190613c6b565b901c91506803dea12ea99e498000826132a09190613c6b565b816132ab9190613b7c565b90508360ff1685836132bd9190613c6b565b901c91506731880f2214b6e000826132d59190613c6b565b816132e09190613b7c565b90508360ff1685836132f29190613c6b565b901c915067025bcff56eb360008261330a9190613c6b565b816133159190613b7c565b90508360ff1685836133279190613c6b565b901c9150661b722e10ab10008261333e9190613c6b565b816133499190613b7c565b90508360ff16858361335b9190613c6b565b901c91506601317c70077000826133729190613c6b565b8161337d9190613b7c565b90508360ff16858361338f9190613c6b565b901c9150650cba84aafa00826133a59190613c6b565b816133b09190613b7c565b90508360ff1685836133c29190613c6b565b901c91506482573a0a00826133d79190613c6b565b816133e29190613b7c565b90508360ff1685836133f49190613c6b565b901c91506405035ad900826134099190613c6b565b816134149190613b7c565b90508360ff1685836134269190613c6b565b901c9150632f881b008261343a9190613c6b565b816134459190613b7c565b90508360ff1685836134579190613c6b565b901c91506301b293408261346b9190613c6b565b816134769190613b7c565b90508360ff1685836134889190613c6b565b901c9150620efc408261349b9190613c6b565b816134a69190613b7c565b90508360ff1685836134b89190613c6b565b901c9150617fe0826134ca9190613c6b565b816134d59190613b7c565b90508360ff1685836134e79190613c6b565b901c9150610420826134f99190613c6b565b816135049190613b7c565b90508360ff1685836135169190613c6b565b901c91506021826135279190613c6b565b816135329190613b7c565b90508360ff1685836135449190613c6b565b901c91506001826135559190613c6b565b816135609190613b7c565b90508360ff166001901b856f0688589cc0e9505e2f2fee5580000000836135879190613c09565b6135919190613b7c565b61359b9190613b7c565b9250505092915050565b6000806000905060008390506101008110156135e5575b60018111156135e057600181901c90506001826135d99190613bd2565b91506135bc565b613626565b6000608090505b60008160ff161115613624578060ff166001901b8210613615578060ff1682901c915080831792505b60018160ff16901c90506135ec565b505b8192505050919050565b60008135905061363f81613fb7565b92915050565b60008151905061365481613fce565b92915050565b60008135905061366981613fe5565b92915050565b60008151905061367e81613fe5565b92915050565b60008135905061369381613ffc565b92915050565b6000602082840312156136ab57600080fd5b60006136b984828501613630565b91505092915050565b6000806000606084860312156136d757600080fd5b60006136e586828701613630565b93505060206136f68682870161365a565b92505060406137078682870161365a565b9150509250925092565b60006020828403121561372357600080fd5b600061373184828501613645565b91505092915050565b60006020828403121561374c57600080fd5b600061375a8482850161365a565b91505092915050565b60006020828403121561377557600080fd5b60006137838482850161366f565b91505092915050565b6000806040838503121561379f57600080fd5b60006137ad8582860161365a565b92505060206137be8582860161365a565b9150509250929050565b600080600080608085870312156137de57600080fd5b60006137ec8782880161365a565b94505060206137fd8782880161365a565b935050604061380e87828801613684565b925050606061381f8782880161365a565b91505092959194509250565b61383481613d2d565b82525050565b61384381613d92565b82525050565b61385281613db6565b82525050565b61386181613dda565b82525050565b61387081613dfe565b82525050565b600061388182613b60565b61388b8185613b6b565b935061389b818560208601613e10565b6138a481613fa6565b840191505092915050565b60006138bc602683613b6b565b91507f4f776e61626c653a206e6577206f776e657220697320746865207a65726f206160008301527f64647265737300000000000000000000000000000000000000000000000000006020830152604082019050919050565b6000613922602083613b6b565b91507f4f776e61626c653a2063616c6c6572206973206e6f7420746865206f776e65726000830152602082019050919050565b6000613962601c83613b6b565b91507f4261736573203c203120617265206e6f7420737570706f727465642e000000006000830152602082019050919050565b61399e81613d6b565b82525050565b6139ad81613d75565b82525050565b60006020820190506139c8600083018461382b565b92915050565b60006060820190506139e3600083018661382b565b6139f0602083018561382b565b6139fd6040830184613995565b949350505050565b6000604082019050613a1a600083018561382b565b613a276020830184613867565b9392505050565b6000604082019050613a43600083018561382b565b613a506020830184613995565b9392505050565b6000602082019050613a6c600083018461383a565b92915050565b6000602082019050613a876000830184613849565b92915050565b6000602082019050613aa26000830184613858565b92915050565b60006020820190508181036000830152613ac28184613876565b905092915050565b60006020820190508181036000830152613ae3816138af565b9050919050565b60006020820190508181036000830152613b0381613915565b9050919050565b60006020820190508181036000830152613b2381613955565b9050919050565b6000602082019050613b3f6000830184613995565b92915050565b6000602082019050613b5a60008301846139a4565b92915050565b600081519050919050565b600082825260208201905092915050565b6000613b8782613d6b565b9150613b9283613d6b565b9250827fffffffffffffffffffffffffffffffffffffffffffffffffffffffffffffffff03821115613bc757613bc6613f19565b5b828201905092915050565b6000613bdd82613d85565b9150613be883613d85565b92508260ff03821115613bfe57613bfd613f19565b5b828201905092915050565b6000613c1482613d6b565b9150613c1f83613d6b565b925082613c2f57613c2e613f48565b5b828204905092915050565b6000613c4582613d85565b9150613c5083613d85565b925082613c6057613c5f613f48565b5b828204905092915050565b6000613c7682613d6b565b9150613c8183613d6b565b9250817fffffffffffffffffffffffffffffffffffffffffffffffffffffffffffffffff0483118215151615613cba57613cb9613f19565b5b828202905092915050565b6000613cd082613d6b565b9150613cdb83613d6b565b925082821015613cee57613ced613f19565b5b828203905092915050565b6000613d0482613d85565b9150613d0f83613d85565b925082821015613d2257613d21613f19565b5b828203905092915050565b6000613d3882613d4b565b9050919050565b60008115159050919050565b600073ffffffffffffffffffffffffffffffffffffffff82169050919050565b6000819050919050565b600063ffffffff82169050919050565b600060ff82169050919050565b6000613d9d82613da4565b9050919050565b6000613daf82613d4b565b9050919050565b6000613dc182613dc8565b9050919050565b6000613dd382613d4b565b9050919050565b6000613de582613dec565b9050919050565b6000613df782613d4b565b9050919050565b6000613e0982613d6b565b9050919050565b60005b83811015613e2e578082015181840152602081019050613e13565b83811115613e3d576000848401525b50505050565b6000613e4e82613d85565b91506000821415613e6257613e61613f19565b5b600182039050919050565b60006002820490506001821680613e8557607f821691505b60208210811415613e9957613e98613f77565b5b50919050565b6000613eaa82613d6b565b91507fffffffffffffffffffffffffffffffffffffffffffffffffffffffffffffffff821415613edd57613edc613f19565b5b600182019050919050565b6000613ef382613d6b565b9150613efe83613d6b565b925082613f0e57613f0d613f48565b5b828206905092915050565b7f4e487b7100000000000000000000000000000000000000000000000000000000600052601160045260246000fd5b7f4e487b7100000000000000000000000000000000000000000000000000000000600052601260045260246000fd5b7f4e487b7100000000000000000000000000000000000000000000000000000000600052602260045260246000fd5b6000601f19601f8301169050919050565b613fc081613d2d565b8114613fcb57600080fd5b50565b613fd781613d3f565b8114613fe257600080fd5b50565b613fee81613d6b565b8114613ff957600080fd5b50565b61400581613d75565b811461401057600080fd5b5056fea2646970667358221220628646dd00159a4d1745fd277ba17b2a6ed1241adbd247489c84569891b0ceab64736f6c63430008000033",
  "linkReferences": {},
  "deployedLinkReferences": {}
}