{
  "_format": "hh-sol-artifact-1",
  "contractName": "BancorFormula",
  "sourceName": "contracts/utils/BancorFormula.sol",
  "abi": [
    {
      "inputs": [],
      "stateMutability": "nonpayable",
      "type": "constructor"
    },
    {
      "inputs": [],
      "name": "MAX_WEIGHT",
      "outputs": [
        {
          "internalType": "uint32",
          "name": "",
          "type": "uint32"
        }
      ],
      "stateMutability": "view",
      "type": "function"
    },
    {
      "inputs": [
        {
          "internalType": "uint256",
          "name": "_supply",
          "type": "uint256"
        },
        {
          "internalType": "uint256",
          "name": "_connectorBalance",
          "type": "uint256"
        },
        {
          "internalType": "uint32",
          "name": "_connectorWeight",
          "type": "uint32"
        },
        {
          "internalType": "uint256",
          "name": "_depositAmount",
          "type": "uint256"
        }
      ],
      "name": "calculatePurchaseReturn",
      "outputs": [
        {
          "internalType": "uint256",
          "name": "",
          "type": "uint256"
        }
      ],
      "stateMutability": "view",
      "type": "function"
    },
    {
      "inputs": [
        {
          "internalType": "uint256",
          "name": "_supply",
          "type": "uint256"
        },
        {
          "internalType": "uint256",
          "name": "_connectorBalance",
          "type": "uint256"
        },
        {
          "internalType": "uint32",
          "name": "_connectorWeight",
          "type": "uint32"
        },
        {
          "internalType": "uint256",
          "name": "_sellAmount",
          "type": "uint256"
        }
      ],
      "name": "calculateSaleReturn",
      "outputs": [
        {
          "internalType": "uint256",
          "name": "",
          "type": "uint256"
        }
      ],
      "stateMutability": "view",
      "type": "function"
    },
    {
      "inputs": [],
      "name": "version",
      "outputs": [
        {
          "internalType": "string",
          "name": "",
          "type": "string"
        }
      ],
      "stateMutability": "view",
      "type": "function"
    }
  ],
  "bytecode": "0x60806040526040518060400160405280600381526020017f302e33000000000000000000000000000000000000000000000000000000000081525060009080519060200190620000519291906200121a565b503480156200005f57600080fd5b50701c35fedd14ffffffffffffffffffffffff60016020608081106200008a57620000896200132f565b5b0181905550701b0ce43b323fffffffffffffffffffffff6001602160808110620000b957620000b86200132f565b5b01819055507019f0028ec1ffffffffffffffffffffffff6001602260808110620000e857620000e76200132f565b5b01819055507018ded91f0e7fffffffffffffffffffffff60016023608081106200011757620001166200132f565b5b01819055507017d8ec7f0417ffffffffffffffffffffff60016024608081106200014657620001456200132f565b5b01819055507016ddc6556cdbffffffffffffffffffffff60016025608081106200017557620001746200132f565b5b01819055507015ecf52776a1ffffffffffffffffffffff6001602660808110620001a457620001a36200132f565b5b01819055507015060c256cb2ffffffffffffffffffffff6001602760808110620001d357620001d26200132f565b5b0181905550701428a2f98d72ffffffffffffffffffffff60016028608081106200020257620002016200132f565b5b01819055507013545598e5c23fffffffffffffffffffff60016029608081106200023157620002306200132f565b5b0181905550701288c4161ce1dfffffffffffffffffffff6001602a6080811062000260576200025f6200132f565b5b01819055507011c592761c666fffffffffffffffffffff6001602b608081106200028f576200028e6200132f565b5b018190555070110a688680a757ffffffffffffffffffff6001602c60808110620002be57620002bd6200132f565b5b0181905550701056f1b5bedf77ffffffffffffffffffff6001602d60808110620002ed57620002ec6200132f565b5b0181905550700faadceceeff8bffffffffffffffffffff6001602e608081106200031c576200031b6200132f565b5b0181905550700f05dc6b27edadffffffffffffffffffff6001602f608081106200034b576200034a6200132f565b5b0181905550700e67a5a25da4107fffffffffffffffffff60016030608081106200037a57620003796200132f565b5b0181905550700dcff115b14eedffffffffffffffffffff6001603160808110620003a957620003a86200132f565b5b0181905550700d3e7a392431239fffffffffffffffffff6001603260808110620003d857620003d76200132f565b5b0181905550700cb2ff529eb71e4fffffffffffffffffff60016033608081106200040757620004066200132f565b5b0181905550700c2d415c3db974afffffffffffffffffff60016034608081106200043657620004356200132f565b5b0181905550700bad03e7d883f69bffffffffffffffffff60016035608081106200046557620004646200132f565b5b0181905550700b320d03b2c343d5ffffffffffffffffff60016036608081106200049457620004936200132f565b5b0181905550700abc25204e02828dffffffffffffffffff6001603760808110620004c357620004c26200132f565b5b0181905550700a4b16f74ee4bb207fffffffffffffffff6001603860808110620004f257620004f16200132f565b5b01819055507009deaf736ac1f569ffffffffffffffffff60016039608081106200052157620005206200132f565b5b0181905550700976bd9952c7aa957fffffffffffffffff6001603a6080811062000550576200054f6200132f565b5b01819055507009131271922eaa606fffffffffffffffff6001603b608081106200057f576200057e6200132f565b5b01819055507008b380f3558668c46fffffffffffffffff6001603c60808110620005ae57620005ad6200132f565b5b0181905550700857ddf0117efa215bffffffffffffffff6001603d60808110620005dd57620005dc6200132f565b5b01819055507007ffffffffffffffffffffffffffffffff6001603e608081106200060c576200060b6200132f565b5b01819055507007abbf6f6abb9d087fffffffffffffffff6001603f608081106200063b576200063a6200132f565b5b018190555070075af62cbac95f7dfa7fffffffffffffff60016040608081106200066a57620006696200132f565b5b018190555070070d7fb7452e187ac13fffffffffffffff60016041608081106200069957620006986200132f565b5b01819055507006c3390ecc8af379295fffffffffffffff6001604260808110620006c857620006c76200132f565b5b018190555070067c00a3b07ffc01fd6fffffffffffffff6001604360808110620006f757620006f66200132f565b5b0181905550700637b647c39cbb9d3d27ffffffffffffff60016044608081106200072657620007256200132f565b5b01819055507005f63b1fc104dbd39587ffffffffffffff60016045608081106200075557620007546200132f565b5b01819055507005b771955b36e12f7235ffffffffffffff60016046608081106200078457620007836200132f565b5b018190555070057b3d49dda84556d6f6ffffffffffffff6001604760808110620007b357620007b26200132f565b5b018190555070054183095b2c8ececf30ffffffffffffff6001604860808110620007e257620007e16200132f565b5b018190555070050a28be635ca2b888f77fffffffffffff60016049608081106200081157620008106200132f565b5b01819055507004d5156639708c9db33c3fffffffffffff6001604a6080811062000840576200083f6200132f565b5b01819055507004a23105873875bd52dfdfffffffffffff6001604b608081106200086f576200086e6200132f565b5b0181905550700471649d87199aa990756fffffffffffff6001604c608081106200089e576200089d6200132f565b5b01819055507004429a21a029d4c1457cfbffffffffffff6001604d60808110620008cd57620008cc6200132f565b5b0181905550700415bc6d6fb7dd71af2cb3ffffffffffff6001604e60808110620008fc57620008fb6200132f565b5b01819055507003eab73b3bbfe282243ce1ffffffffffff6001604f608081106200092b576200092a6200132f565b5b01819055507003c1771ac9fb6b4c18e229ffffffffffff60016050608081106200095a57620009596200132f565b5b0181905550700399e96897690418f785257fffffffffff60016051608081106200098957620009886200132f565b5b0181905550700373fc456c53bb779bf0ea9fffffffffff6001605260808110620009b857620009b76200132f565b5b018190555070034f9e8e490c48e67e6ab8bfffffffffff6001605360808110620009e757620009e66200132f565b5b018190555070032cbfd4a7adc790560b3337ffffffffff600160546080811062000a165762000a156200132f565b5b018190555070030b50570f6e5d2acca94613ffffffffff600160556080811062000a455762000a446200132f565b5b01819055507002eb40f9f620fda6b56c2861ffffffffff600160566080811062000a745762000a736200132f565b5b01819055507002cc8340ecb0d0f520a6af58ffffffffff600160576080811062000aa35762000aa26200132f565b5b01819055507002af09481380a0a35cf1ba02ffffffffff600160586080811062000ad25762000ad16200132f565b5b0181905550700292c5bdd3b92ec810287b1b3fffffffff600160596080811062000b015762000b006200132f565b5b0181905550700277abdcdab07d5a77ac6d6b9fffffffff6001605a6080811062000b305762000b2f6200132f565b5b018190555070025daf6654b1eaa55fd64df5efffffffff6001605b6080811062000b5f5762000b5e6200132f565b5b0181905550700244c49c648baa98192dce88b7ffffffff6001605c6080811062000b8e5762000b8d6200132f565b5b018190555070022ce03cd5619a311b2471268bffffffff6001605d6080811062000bbd5762000bbc6200132f565b5b0181905550700215f77c045fbe885654a44a0fffffffff6001605e6080811062000bec5762000beb6200132f565b5b01819055507001ffffffffffffffffffffffffffffffff6001605f6080811062000c1b5762000c1a6200132f565b5b01819055507001eaefdbdaaee7421fc4d3ede5ffffffff600160606080811062000c4a5762000c496200132f565b5b01819055507001d6bd8b2eb257df7e8ca57b09bfffffff600160616080811062000c795762000c786200132f565b5b01819055507001c35fedd14b861eb0443f7f133fffffff600160626080811062000ca85762000ca76200132f565b5b01819055507001b0ce43b322bcde4a56e8ada5afffffff600160636080811062000cd75762000cd66200132f565b5b018190555070019f0028ec1fff007f5a195a39dfffffff600160646080811062000d065762000d056200132f565b5b018190555070018ded91f0e72ee74f49b15ba527ffffff600160656080811062000d355762000d346200132f565b5b018190555070017d8ec7f04136f4e5615fd41a63ffffff600160666080811062000d645762000d636200132f565b5b018190555070016ddc6556cdb84bdc8d12d22e6fffffff600160676080811062000d935762000d926200132f565b5b018190555070015ecf52776a1155b5bd8395814f7fffff600160686080811062000dc25762000dc16200132f565b5b018190555070015060c256cb23b3b3cc3754cf40ffffff600160696080811062000df15762000df06200132f565b5b01819055507001428a2f98d728ae223ddab715be3fffff6001606a6080811062000e205762000e1f6200132f565b5b018190555070013545598e5c23276ccf0ede68034fffff6001606b6080811062000e4f5762000e4e6200132f565b5b01819055507001288c4161ce1d6f54b7f61081194fffff6001606c6080811062000e7e5762000e7d6200132f565b5b018190555070011c592761c666aa641d5a01a40f17ffff6001606d6080811062000ead5762000eac6200132f565b5b0181905550700110a688680a7530515f3e6e6cfdcdffff6001606e6080811062000edc5762000edb6200132f565b5b01819055507001056f1b5bedf75c6bcb2ce8aed428ffff6001606f6080811062000f0b5762000f0a6200132f565b5b01819055506ffaadceceeff8a0890f3875f008277fff600160706080811062000f395762000f386200132f565b5b01819055506ff05dc6b27edad306388a600f6ba0bfff600160716080811062000f675762000f666200132f565b5b01819055506fe67a5a25da41063de1495d5b18cdbfff600160726080811062000f955762000f946200132f565b5b01819055506fdcff115b14eedde6fc3aa5353f2e4fff600160736080811062000fc35762000fc26200132f565b5b01819055506fd3e7a3924312399f9aae2e0f868f8fff600160746080811062000ff15762000ff06200132f565b5b01819055506fcb2ff529eb71e41582cccd5a1ee26fff60016075608081106200101f576200101e6200132f565b5b01819055506fc2d415c3db974ab32a51840c0b67edff60016076608081106200104d576200104c6200132f565b5b01819055506fbad03e7d883f69ad5b0a186184e06bff60016077608081106200107b576200107a6200132f565b5b01819055506fb320d03b2c343d4829abd6075f0cc5ff6001607860808110620010a957620010a86200132f565b5b01819055506fabc25204e02828d73c6e80bcdb1a95bf6001607960808110620010d757620010d66200132f565b5b01819055506fa4b16f74ee4bb2040a1ec6c15fbbf2df6001607a608081106200110557620011046200132f565b5b01819055506f9deaf736ac1f569deb1b5ae3f36c130f6001607b608081106200113357620011326200132f565b5b01819055506f976bd9952c7aa957f5937d790ef650376001607c608081106200116157620011606200132f565b5b01819055506f9131271922eaa6064b73a22d0bd4f2bf6001607d608081106200118f576200118e6200132f565b5b01819055506f8b380f3558668c46c91c49a2f8e967b96001607e60808110620011bd57620011bc6200132f565b5b01819055506f857ddf0117efa215952912839f6473e66001607f60808110620011eb57620011ea6200132f565b5b0181905550620f4240608160006101000a81548163ffffffff021916908363ffffffff1602179055506200135e565b8280546200122890620012ca565b90600052602060002090601f0160209004810192826200124c576000855562001298565b82601f106200126757805160ff191683800117855562001298565b8280016001018555821562001298579182015b82811115620012975782518255916020019190600101906200127a565b5b509050620012a79190620012ab565b5090565b5b80821115620012c6576000816000905550600101620012ac565b5090565b60006002820490506001821680620012e357607f821691505b60208210811415620012fa57620012f962001300565b5b50919050565b7f4e487b7100000000000000000000000000000000000000000000000000000000600052602260045260246000fd5b7f4e487b7100000000000000000000000000000000000000000000000000000000600052603260045260246000fd5b6124fa806200136e6000396000f3fe608060405234801561001057600080fd5b506004361061004c5760003560e01c806329a00e7c1461005157806349f9b0f71461008157806354fd4d50146100b1578063e4a28a52146100cf575b600080fd5b61006b60048036038101906100669190611f5f565b6100ed565b6040516100789190612082565b60405180910390f35b61009b60048036038101906100969190611f5f565b61021f565b6040516100a89190612082565b60405180910390f35b6100b9610385565b6040516100c69190612040565b60405180910390f35b6100d7610413565b6040516100e4919061209d565b60405180910390f35b600080851180156100fe5750600084115b8015610110575060008363ffffffff16115b801561013a5750608160009054906101000a900463ffffffff1663ffffffff168363ffffffff1611155b61014357600080fd5b60008214156101555760009050610217565b608160009054906101000a900463ffffffff1663ffffffff168363ffffffff1614156101a7576101a084610192848861042990919063ffffffff16565b61043f90919063ffffffff16565b9050610217565b60008060006101bf878661045590919063ffffffff16565b90506101df818888608160009054906101000a900463ffffffff1661046b565b809350819450505060008260ff16610200858b61042990919063ffffffff16565b901c90508881610210919061221d565b9450505050505b949350505050565b600080851180156102305750600084115b8015610242575060008363ffffffff16115b801561026c5750608160009054906101000a900463ffffffff1663ffffffff168363ffffffff1611155b80156102785750848211155b61028157600080fd5b6000821415610293576000905061037d565b848214156102a35783905061037d565b608160009054906101000a900463ffffffff1663ffffffff168363ffffffff1614156102f5576102ee856102e0848761042990919063ffffffff16565b61043f90919063ffffffff16565b905061037d565b60008060008488610306919061221d565b90506103268882608160009054906101000a900463ffffffff168961046b565b80935081945050506000610343848961042990919063ffffffff16565b905060008360ff1689901b90506103758561036783856105c690919063ffffffff16565b61043f90919063ffffffff16565b955050505050505b949350505050565b6000805461039290612309565b80601f01602080910402602001604051908101604052809291908181526020018280546103be90612309565b801561040b5780601f106103e05761010080835404028352916020019161040b565b820191906000526020600020905b8154815290600101906020018083116103ee57829003601f168201915b505050505081565b608160009054906101000a900463ffffffff1681565b6000818361043791906121c3565b905092915050565b6000818361044d9190612161565b905092915050565b6000818361046391906120d4565b905092915050565b600080700200000000000000000000000000000000861061048f5761048e61236c565b5b848610156104d2576040517f08c379a00000000000000000000000000000000000000000000000000000000081526004016104c990612062565b60405180910390fd5b600080866f80000000000000000000000000000000896104f291906121c3565b6104fc9190612161565b905070015bf0a8b1457695355fb8ac404e7a79e381101561052757610520816105dc565b9150610533565b61053081610d55565b91505b60008563ffffffff168763ffffffff168461054e91906121c3565b6105589190612161565b905070080000000000000000000000000000000081101561058a5761057c81610eb5565b607f945094505050506105bd565b6000610595826116b9565b90506105b381607f6105a79190612251565b60ff1683901c8261179b565b8195509550505050505b94509492505050565b600081836105d4919061221d565b905092915050565b6000806000905060008060006fd3094c70f034de4b96ff7d5b6f99fcd88610610657576f400000000000000000000000000000008461061b91906120d4565b93506fd3094c70f034de4b96ff7d5b6f99fcd86f800000000000000000000000000000008761064a91906121c3565b6106549190612161565b95505b6fa45af1e1f40c333b3de1db4dd55f29a786106106c6576f200000000000000000000000000000008461068a91906120d4565b93506fa45af1e1f40c333b3de1db4dd55f29a76f80000000000000000000000000000000876106b991906121c3565b6106c39190612161565b95505b6f910b022db7ae67ce76b441c27035c6a18610610735576f10000000000000000000000000000000846106f991906120d4565b93506f910b022db7ae67ce76b441c27035c6a16f800000000000000000000000000000008761072891906121c3565b6107329190612161565b95505b6f88415abbe9a76bead8d00cf112e4d4a886106107a4576f080000000000000000000000000000008461076891906120d4565b93506f88415abbe9a76bead8d00cf112e4d4a86f800000000000000000000000000000008761079791906121c3565b6107a19190612161565b95505b6f84102b00893f64c705e841d5d4064bd38610610813576f04000000000000000000000000000000846107d791906120d4565b93506f84102b00893f64c705e841d5d4064bd36f800000000000000000000000000000008761080691906121c3565b6108109190612161565b95505b6f8204055aaef1c8bd5c3259f4822735a28610610882576f020000000000000000000000000000008461084691906120d4565b93506f8204055aaef1c8bd5c3259f4822735a26f800000000000000000000000000000008761087591906121c3565b61087f9190612161565b95505b6f810100ab00222d861931c15e39b44e9986106108f1576f01000000000000000000000000000000846108b591906120d4565b93506f810100ab00222d861931c15e39b44e996f80000000000000000000000000000000876108e491906121c3565b6108ee9190612161565b95505b6f808040155aabbbe9451521693554f733861061095f576e8000000000000000000000000000008461092391906120d4565b93506f808040155aabbbe9451521693554f7336f800000000000000000000000000000008761095291906121c3565b61095c9190612161565b95505b6f800000000000000000000000000000008661097b919061221d565b92508291506f80000000000000000000000000000000838461099d91906121c3565b6109a79190612161565b9050700100000000000000000000000000000000837001000000000000000000000000000000006109d8919061221d565b836109e391906121c3565b6109ed9190612161565b846109f891906120d4565b93506f800000000000000000000000000000008183610a1791906121c3565b610a219190612161565b9150700200000000000000000000000000000000836faaaaaaaaaaaaaaaaaaaaaaaaaaaaaaaa610a51919061221d565b83610a5c91906121c3565b610a669190612161565b84610a7191906120d4565b93506f800000000000000000000000000000008183610a9091906121c3565b610a9a9190612161565b9150700300000000000000000000000000000000836f99999999999999999999999999999999610aca919061221d565b83610ad591906121c3565b610adf9190612161565b84610aea91906120d4565b93506f800000000000000000000000000000008183610b0991906121c3565b610b139190612161565b9150700400000000000000000000000000000000836f92492492492492492492492492492492610b43919061221d565b83610b4e91906121c3565b610b589190612161565b84610b6391906120d4565b93506f800000000000000000000000000000008183610b8291906121c3565b610b8c9190612161565b9150700500000000000000000000000000000000836f8e38e38e38e38e38e38e38e38e38e38e610bbc919061221d565b83610bc791906121c3565b610bd19190612161565b84610bdc91906120d4565b93506f800000000000000000000000000000008183610bfb91906121c3565b610c059190612161565b9150700600000000000000000000000000000000836f8ba2e8ba2e8ba2e8ba2e8ba2e8ba2e8b610c35919061221d565b83610c4091906121c3565b610c4a9190612161565b84610c5591906120d4565b93506f800000000000000000000000000000008183610c7491906121c3565b610c7e9190612161565b9150700700000000000000000000000000000000836f89d89d89d89d89d89d89d89d89d89d89610cae919061221d565b83610cb991906121c3565b610cc39190612161565b84610cce91906120d4565b93506f800000000000000000000000000000008183610ced91906121c3565b610cf79190612161565b9150700800000000000000000000000000000000836f88888888888888888888888888888888610d27919061221d565b83610d3291906121c3565b610d3c9190612161565b84610d4791906120d4565b935083945050505050919050565b6000806000905060008390507001000000000000000000000000000000008110610dcd576000610d9f6f8000000000000000000000000000000083610d9a9190612161565b611eaa565b90508060ff1682901c91506f800000000000000000000000000000008160ff16610dc991906121c3565b9250505b6f80000000000000000000000000000000811115610e75576000607f90505b60008160ff161115610e73576f800000000000000000000000000000008283610e1591906121c3565b610e1f9190612161565b91507001000000000000000000000000000000008210610e6257600182901c9150600181610e4d9190612251565b60ff166001901b83610e5f91906120d4565b92505b80610e6c906122df565b9050610dec565b505b6f05b9de1d10bf4103d647b0955897ba806f03f80fe03f80fe03f80fe03f80fe03f883610ea291906121c3565b610eac9190612161565b92505050919050565b600080600090506000806f1000000000000000000000000000000085610edb919061233b565b91508190506f800000000000000000000000000000008282610efd91906121c3565b610f079190612161565b90506710e1b3be415a000081610f1d91906121c3565b83610f2891906120d4565b92506f800000000000000000000000000000008282610f4791906121c3565b610f519190612161565b90506705a0913f6b1e000081610f6791906121c3565b83610f7291906120d4565b92506f800000000000000000000000000000008282610f9191906121c3565b610f9b9190612161565b9050670168244fdac7800081610fb191906121c3565b83610fbc91906120d4565b92506f800000000000000000000000000000008282610fdb91906121c3565b610fe59190612161565b9050664807432bc1800081610ffa91906121c3565b8361100591906120d4565b92506f80000000000000000000000000000000828261102491906121c3565b61102e9190612161565b9050660c0135dca040008161104391906121c3565b8361104e91906120d4565b92506f80000000000000000000000000000000828261106d91906121c3565b6110779190612161565b90506601b707b1cdc0008161108c91906121c3565b8361109791906120d4565b92506f8000000000000000000000000000000082826110b691906121c3565b6110c09190612161565b90506536e0f639b800816110d491906121c3565b836110df91906120d4565b92506f8000000000000000000000000000000082826110fe91906121c3565b6111089190612161565b9050650618fee9f8008161111c91906121c3565b8361112791906120d4565b92506f80000000000000000000000000000000828261114691906121c3565b6111509190612161565b9050649c197dcc008161116391906121c3565b8361116e91906120d4565b92506f80000000000000000000000000000000828261118d91906121c3565b6111979190612161565b9050640e30dce400816111aa91906121c3565b836111b591906120d4565b92506f8000000000000000000000000000000082826111d491906121c3565b6111de9190612161565b905064012ebd1300816111f191906121c3565b836111fc91906120d4565b92506f80000000000000000000000000000000828261121b91906121c3565b6112259190612161565b90506317499f008161123791906121c3565b8361124291906120d4565b92506f80000000000000000000000000000000828261126191906121c3565b61126b9190612161565b90506301a9d4808161127d91906121c3565b8361128891906120d4565b92506f8000000000000000000000000000000082826112a791906121c3565b6112b19190612161565b9050621c6380816112c291906121c3565b836112cd91906120d4565b92506f8000000000000000000000000000000082826112ec91906121c3565b6112f69190612161565b90506201c6388161130791906121c3565b8361131291906120d4565b92506f80000000000000000000000000000000828261133191906121c3565b61133b9190612161565b9050611ab88161134b91906121c3565b8361135691906120d4565b92506f80000000000000000000000000000000828261137591906121c3565b61137f9190612161565b905061017c8161138f91906121c3565b8361139a91906120d4565b92506f8000000000000000000000000000000082826113b991906121c3565b6113c39190612161565b90506014816113d291906121c3565b836113dd91906120d4565b92506f8000000000000000000000000000000082826113fc91906121c3565b6114069190612161565b905060018161141591906121c3565b8361142091906120d4565b92506f80000000000000000000000000000000826721c3677c82b40000856114489190612161565b61145291906120d4565b61145c91906120d4565b925060006f100000000000000000000000000000008616146114b45770018ebef9eac820ae8682b9793ac6d1e7767001c3d6a24ed82218787d624d3e5eba95f9846114a791906121c3565b6114b19190612161565b92505b60006f2000000000000000000000000000000086161461150a577001368b2fc6f9609fe7aceb46aa619baed470018ebef9eac820ae8682b9793ac6d1e778846114fd91906121c3565b6115079190612161565b92505b60006f4000000000000000000000000000000086161461155f576fbc5ab1b16779be3575bd8f0520a9f21f7001368b2fc6f9609fe7aceb46aa619baed58461155291906121c3565b61155c9190612161565b92505b60006f800000000000000000000000000000008616146115b3576f454aaa8efe072e7f6ddbab84b40a55c96fbc5ab1b16779be3575bd8f0520a9f21e846115a691906121c3565b6115b09190612161565b92505b6000700100000000000000000000000000000000861614611608576f0960aadc109e7a3bf4578099615711ea6f454aaa8efe072e7f6ddbab84b40a55c5846115fb91906121c3565b6116059190612161565b92505b600070020000000000000000000000000000000086161461165c576e2bf84208204f5977f9a8cf01fdce3d6f0960aadc109e7a3bf4578099615711d78461164f91906121c3565b6116599190612161565b92505b60007004000000000000000000000000000000008616146116ae576d03c6ab775dd0b95b4cbee7e65d116e2bf84208204f5977f9a8cf01fdc307846116a191906121c3565b6116ab9190612161565b92505b829350505050919050565b600080602090506000607f90505b8060ff166001836116d8919061212a565b60ff16101561172e576000600282846116f1919061212a565b6116fb9190612192565b90508460018260ff166080811061171557611714612428565b5b01541061172457809250611728565b8091505b506116c7565b8360018260ff166080811061174657611745612428565b5b015410611757578092505050611796565b8360018360ff166080811061176f5761176e612428565b5b015410611780578192505050611796565b600061178f5761178e61236c565b5b6000925050505b919050565b60008083905060008360ff1685836117b391906121c3565b901c91506f03442c4e6074a82f1797f72ac0000000826117d391906121c3565b816117de91906120d4565b90508360ff1685836117f091906121c3565b901c91506f0116b96f757c380fb287fd0e400000008261181091906121c3565b8161181b91906120d4565b90508360ff16858361182d91906121c3565b901c91506e45ae5bdd5f0e03eca1ff43900000008261184c91906121c3565b8161185791906120d4565b90508360ff16858361186991906121c3565b901c91506e0defabf91302cd95b9ffda500000008261188891906121c3565b8161189391906120d4565b90508360ff1685836118a591906121c3565b901c91506e02529ca9832b22439efff9b8000000826118c491906121c3565b816118cf91906120d4565b90508360ff1685836118e191906121c3565b901c91506d54f1cf12bd04e516b6da88000000826118ff91906121c3565b8161190a91906120d4565b90508360ff16858361191c91906121c3565b901c91506d0a9e39e257a09ca2d6db510000008261193a91906121c3565b8161194591906120d4565b90508360ff16858361195791906121c3565b901c91506d012e066e7b839fa050c3090000008261197591906121c3565b8161198091906120d4565b90508360ff16858361199291906121c3565b901c91506c1e33d7d926c329a1ad1a800000826119af91906121c3565b816119ba91906120d4565b90508360ff1685836119cc91906121c3565b901c91506c02bee513bdb4a6b19b5f800000826119e991906121c3565b816119f491906120d4565b90508360ff168583611a0691906121c3565b901c91506b3a9316fa79b88eccf2a0000082611a2291906121c3565b81611a2d91906120d4565b90508360ff168583611a3f91906121c3565b901c91506b048177ebe1fa81237520000082611a5b91906121c3565b81611a6691906120d4565b90508360ff168583611a7891906121c3565b901c91506a5263fe90242dcbacf0000082611a9391906121c3565b81611a9e91906120d4565b90508360ff168583611ab091906121c3565b901c91506a057e22099c030d9410000082611acb91906121c3565b81611ad691906120d4565b90508360ff168583611ae891906121c3565b901c91506957e22099c030d941000082611b0291906121c3565b81611b0d91906120d4565b90508360ff168583611b1f91906121c3565b901c915069052b6b5456997631000082611b3991906121c3565b81611b4491906120d4565b90508360ff168583611b5691906121c3565b901c9150684985f67696bf74800082611b6f91906121c3565b81611b7a91906120d4565b90508360ff168583611b8c91906121c3565b901c91506803dea12ea99e49800082611ba591906121c3565b81611bb091906120d4565b90508360ff168583611bc291906121c3565b901c91506731880f2214b6e00082611bda91906121c3565b81611be591906120d4565b90508360ff168583611bf791906121c3565b901c915067025bcff56eb3600082611c0f91906121c3565b81611c1a91906120d4565b90508360ff168583611c2c91906121c3565b901c9150661b722e10ab100082611c4391906121c3565b81611c4e91906120d4565b90508360ff168583611c6091906121c3565b901c91506601317c7007700082611c7791906121c3565b81611c8291906120d4565b90508360ff168583611c9491906121c3565b901c9150650cba84aafa0082611caa91906121c3565b81611cb591906120d4565b90508360ff168583611cc791906121c3565b901c91506482573a0a0082611cdc91906121c3565b81611ce791906120d4565b90508360ff168583611cf991906121c3565b901c91506405035ad90082611d0e91906121c3565b81611d1991906120d4565b90508360ff168583611d2b91906121c3565b901c9150632f881b0082611d3f91906121c3565b81611d4a91906120d4565b90508360ff168583611d5c91906121c3565b901c91506301b2934082611d7091906121c3565b81611d7b91906120d4565b90508360ff168583611d8d91906121c3565b901c9150620efc4082611da091906121c3565b81611dab91906120d4565b90508360ff168583611dbd91906121c3565b901c9150617fe082611dcf91906121c3565b81611dda91906120d4565b90508360ff168583611dec91906121c3565b901c915061042082611dfe91906121c3565b81611e0991906120d4565b90508360ff168583611e1b91906121c3565b901c9150602182611e2c91906121c3565b81611e3791906120d4565b90508360ff168583611e4991906121c3565b901c9150600182611e5a91906121c3565b81611e6591906120d4565b90508360ff166001901b856f0688589cc0e9505e2f2fee558000000083611e8c9190612161565b611e9691906120d4565b611ea091906120d4565b9250505092915050565b600080600090506000839050610100811015611eea575b6001811115611ee557600181901c9050600182611ede919061212a565b9150611ec1565b611f2b565b6000608090505b60008160ff161115611f29578060ff166001901b8210611f1a578060ff1682901c915080831792505b60018160ff16901c9050611ef1565b505b8192505050919050565b600081359050611f4481612496565b92915050565b600081359050611f59816124ad565b92915050565b60008060008060808587031215611f7957611f78612457565b5b6000611f8787828801611f35565b9450506020611f9887828801611f35565b9350506040611fa987828801611f4a565b9250506060611fba87828801611f35565b91505092959194509250565b6000611fd1826120b8565b611fdb81856120c3565b9350611feb8185602086016122ac565b611ff48161245c565b840191505092915050565b600061200c601c836120c3565b91506120178261246d565b602082019050919050565b61202b81612285565b82525050565b61203a8161228f565b82525050565b6000602082019050818103600083015261205a8184611fc6565b905092915050565b6000602082019050818103600083015261207b81611fff565b9050919050565b60006020820190506120976000830184612022565b92915050565b60006020820190506120b26000830184612031565b92915050565b600081519050919050565b600082825260208201905092915050565b60006120df82612285565b91506120ea83612285565b9250827fffffffffffffffffffffffffffffffffffffffffffffffffffffffffffffffff0382111561211f5761211e61239b565b5b828201905092915050565b60006121358261229f565b91506121408361229f565b92508260ff038211156121565761215561239b565b5b828201905092915050565b600061216c82612285565b915061217783612285565b925082612187576121866123ca565b5b828204905092915050565b600061219d8261229f565b91506121a88361229f565b9250826121b8576121b76123ca565b5b828204905092915050565b60006121ce82612285565b91506121d983612285565b9250817fffffffffffffffffffffffffffffffffffffffffffffffffffffffffffffffff04831182151516156122125761221161239b565b5b828202905092915050565b600061222882612285565b915061223383612285565b9250828210156122465761224561239b565b5b828203905092915050565b600061225c8261229f565b91506122678361229f565b92508282101561227a5761227961239b565b5b828203905092915050565b6000819050919050565b600063ffffffff82169050919050565b600060ff82169050919050565b60005b838110156122ca5780820151818401526020810190506122af565b838111156122d9576000848401525b50505050565b60006122ea8261229f565b915060008214156122fe576122fd61239b565b5b600182039050919050565b6000600282049050600182168061232157607f821691505b60208210811415612335576123346123f9565b5b50919050565b600061234682612285565b915061235183612285565b925082612361576123606123ca565b5b828206905092915050565b7f4e487b7100000000000000000000000000000000000000000000000000000000600052600160045260246000fd5b7f4e487b7100000000000000000000000000000000000000000000000000000000600052601160045260246000fd5b7f4e487b7100000000000000000000000000000000000000000000000000000000600052601260045260246000fd5b7f4e487b7100000000000000000000000000000000000000000000000000000000600052602260045260246000fd5b7f4e487b7100000000000000000000000000000000000000000000000000000000600052603260045260246000fd5b600080fd5b6000601f19601f8301169050919050565b7f4261736573203c203120617265206e6f7420737570706f727465642e00000000600082015250565b61249f81612285565b81146124aa57600080fd5b50565b6124b68161228f565b81146124c157600080fd5b5056fea2646970667358221220734d9633f4096a1886ac98477bfb14b213c7271fa4298c2f0dc314542820a43b64736f6c63430008060033",
  "linkReferences": {},
  "deployedLinkReferences": {}
}