{
  "_format": "hh-sol-artifact-1",
  "contractName": "BancorFormula",
  "sourceName": "contracts/utils/BancorFormula.sol",
  "abi": [
    {
      "inputs": [],
      "stateMutability": "nonpayable",
      "type": "constructor"
    },
    {
      "inputs": [],
      "name": "MAX_WEIGHT",
      "outputs": [
        {
          "internalType": "uint32",
          "name": "",
          "type": "uint32"
        }
      ],
      "stateMutability": "view",
      "type": "function"
    },
    {
      "inputs": [
        {
          "internalType": "uint256",
          "name": "_supply",
          "type": "uint256"
        },
        {
          "internalType": "uint256",
          "name": "_connectorBalance",
          "type": "uint256"
        },
        {
          "internalType": "uint32",
          "name": "_connectorWeight",
          "type": "uint32"
        },
        {
          "internalType": "uint256",
          "name": "_depositAmount",
          "type": "uint256"
        }
      ],
      "name": "calculatePurchaseReturn",
      "outputs": [
        {
          "internalType": "uint256",
          "name": "",
          "type": "uint256"
        }
      ],
      "stateMutability": "view",
      "type": "function"
    },
    {
      "inputs": [
        {
          "internalType": "uint256",
          "name": "_supply",
          "type": "uint256"
        },
        {
          "internalType": "uint256",
          "name": "_connectorBalance",
          "type": "uint256"
        },
        {
          "internalType": "uint32",
          "name": "_connectorWeight",
          "type": "uint32"
        },
        {
          "internalType": "uint256",
          "name": "_sellAmount",
          "type": "uint256"
        }
      ],
      "name": "calculateSaleReturn",
      "outputs": [
        {
          "internalType": "uint256",
          "name": "",
          "type": "uint256"
        }
      ],
      "stateMutability": "view",
      "type": "function"
    },
    {
      "inputs": [],
      "name": "version",
      "outputs": [
        {
          "internalType": "string",
          "name": "",
          "type": "string"
        }
      ],
      "stateMutability": "view",
      "type": "function"
    }
  ],
  "bytecode": "0x60806040526040518060400160405280600381526020017f302e330000000000000000000000000000000000000000000000000000000000815250600090805190602001906200005192919062001f9a565b503480156200005f57600080fd5b50701c35fedd14ffffffffffffffffffffffff6001602060808110620000ae577f4e487b7100000000000000000000000000000000000000000000000000000000600052603260045260246000fd5b0181905550701b0ce43b323fffffffffffffffffffffff600160216080811062000101577f4e487b7100000000000000000000000000000000000000000000000000000000600052603260045260246000fd5b01819055507019f0028ec1ffffffffffffffffffffffff600160226080811062000154577f4e487b7100000000000000000000000000000000000000000000000000000000600052603260045260246000fd5b01819055507018ded91f0e7fffffffffffffffffffffff6001602360808110620001a7577f4e487b7100000000000000000000000000000000000000000000000000000000600052603260045260246000fd5b01819055507017d8ec7f0417ffffffffffffffffffffff6001602460808110620001fa577f4e487b7100000000000000000000000000000000000000000000000000000000600052603260045260246000fd5b01819055507016ddc6556cdbffffffffffffffffffffff60016025608081106200024d577f4e487b7100000000000000000000000000000000000000000000000000000000600052603260045260246000fd5b01819055507015ecf52776a1ffffffffffffffffffffff6001602660808110620002a0577f4e487b7100000000000000000000000000000000000000000000000000000000600052603260045260246000fd5b01819055507015060c256cb2ffffffffffffffffffffff6001602760808110620002f3577f4e487b7100000000000000000000000000000000000000000000000000000000600052603260045260246000fd5b0181905550701428a2f98d72ffffffffffffffffffffff600160286080811062000346577f4e487b7100000000000000000000000000000000000000000000000000000000600052603260045260246000fd5b01819055507013545598e5c23fffffffffffffffffffff600160296080811062000399577f4e487b7100000000000000000000000000000000000000000000000000000000600052603260045260246000fd5b0181905550701288c4161ce1dfffffffffffffffffffff6001602a60808110620003ec577f4e487b7100000000000000000000000000000000000000000000000000000000600052603260045260246000fd5b01819055507011c592761c666fffffffffffffffffffff6001602b608081106200043f577f4e487b7100000000000000000000000000000000000000000000000000000000600052603260045260246000fd5b018190555070110a688680a757ffffffffffffffffffff6001602c6080811062000492577f4e487b7100000000000000000000000000000000000000000000000000000000600052603260045260246000fd5b0181905550701056f1b5bedf77ffffffffffffffffffff6001602d60808110620004e5577f4e487b7100000000000000000000000000000000000000000000000000000000600052603260045260246000fd5b0181905550700faadceceeff8bffffffffffffffffffff6001602e6080811062000538577f4e487b7100000000000000000000000000000000000000000000000000000000600052603260045260246000fd5b0181905550700f05dc6b27edadffffffffffffffffffff6001602f608081106200058b577f4e487b7100000000000000000000000000000000000000000000000000000000600052603260045260246000fd5b0181905550700e67a5a25da4107fffffffffffffffffff6001603060808110620005de577f4e487b7100000000000000000000000000000000000000000000000000000000600052603260045260246000fd5b0181905550700dcff115b14eedffffffffffffffffffff600160316080811062000631577f4e487b7100000000000000000000000000000000000000000000000000000000600052603260045260246000fd5b0181905550700d3e7a392431239fffffffffffffffffff600160326080811062000684577f4e487b7100000000000000000000000000000000000000000000000000000000600052603260045260246000fd5b0181905550700cb2ff529eb71e4fffffffffffffffffff6001603360808110620006d7577f4e487b7100000000000000000000000000000000000000000000000000000000600052603260045260246000fd5b0181905550700c2d415c3db974afffffffffffffffffff60016034608081106200072a577f4e487b7100000000000000000000000000000000000000000000000000000000600052603260045260246000fd5b0181905550700bad03e7d883f69bffffffffffffffffff60016035608081106200077d577f4e487b7100000000000000000000000000000000000000000000000000000000600052603260045260246000fd5b0181905550700b320d03b2c343d5ffffffffffffffffff6001603660808110620007d0577f4e487b7100000000000000000000000000000000000000000000000000000000600052603260045260246000fd5b0181905550700abc25204e02828dffffffffffffffffff600160376080811062000823577f4e487b7100000000000000000000000000000000000000000000000000000000600052603260045260246000fd5b0181905550700a4b16f74ee4bb207fffffffffffffffff600160386080811062000876577f4e487b7100000000000000000000000000000000000000000000000000000000600052603260045260246000fd5b01819055507009deaf736ac1f569ffffffffffffffffff6001603960808110620008c9577f4e487b7100000000000000000000000000000000000000000000000000000000600052603260045260246000fd5b0181905550700976bd9952c7aa957fffffffffffffffff6001603a608081106200091c577f4e487b7100000000000000000000000000000000000000000000000000000000600052603260045260246000fd5b01819055507009131271922eaa606fffffffffffffffff6001603b608081106200096f577f4e487b7100000000000000000000000000000000000000000000000000000000600052603260045260246000fd5b01819055507008b380f3558668c46fffffffffffffffff6001603c60808110620009c2577f4e487b7100000000000000000000000000000000000000000000000000000000600052603260045260246000fd5b0181905550700857ddf0117efa215bffffffffffffffff6001603d6080811062000a15577f4e487b7100000000000000000000000000000000000000000000000000000000600052603260045260246000fd5b01819055507007ffffffffffffffffffffffffffffffff6001603e6080811062000a68577f4e487b7100000000000000000000000000000000000000000000000000000000600052603260045260246000fd5b01819055507007abbf6f6abb9d087fffffffffffffffff6001603f6080811062000abb577f4e487b7100000000000000000000000000000000000000000000000000000000600052603260045260246000fd5b018190555070075af62cbac95f7dfa7fffffffffffffff600160406080811062000b0e577f4e487b7100000000000000000000000000000000000000000000000000000000600052603260045260246000fd5b018190555070070d7fb7452e187ac13fffffffffffffff600160416080811062000b61577f4e487b7100000000000000000000000000000000000000000000000000000000600052603260045260246000fd5b01819055507006c3390ecc8af379295fffffffffffffff600160426080811062000bb4577f4e487b7100000000000000000000000000000000000000000000000000000000600052603260045260246000fd5b018190555070067c00a3b07ffc01fd6fffffffffffffff600160436080811062000c07577f4e487b7100000000000000000000000000000000000000000000000000000000600052603260045260246000fd5b0181905550700637b647c39cbb9d3d27ffffffffffffff600160446080811062000c5a577f4e487b7100000000000000000000000000000000000000000000000000000000600052603260045260246000fd5b01819055507005f63b1fc104dbd39587ffffffffffffff600160456080811062000cad577f4e487b7100000000000000000000000000000000000000000000000000000000600052603260045260246000fd5b01819055507005b771955b36e12f7235ffffffffffffff600160466080811062000d00577f4e487b7100000000000000000000000000000000000000000000000000000000600052603260045260246000fd5b018190555070057b3d49dda84556d6f6ffffffffffffff600160476080811062000d53577f4e487b7100000000000000000000000000000000000000000000000000000000600052603260045260246000fd5b018190555070054183095b2c8ececf30ffffffffffffff600160486080811062000da6577f4e487b7100000000000000000000000000000000000000000000000000000000600052603260045260246000fd5b018190555070050a28be635ca2b888f77fffffffffffff600160496080811062000df9577f4e487b7100000000000000000000000000000000000000000000000000000000600052603260045260246000fd5b01819055507004d5156639708c9db33c3fffffffffffff6001604a6080811062000e4c577f4e487b7100000000000000000000000000000000000000000000000000000000600052603260045260246000fd5b01819055507004a23105873875bd52dfdfffffffffffff6001604b6080811062000e9f577f4e487b7100000000000000000000000000000000000000000000000000000000600052603260045260246000fd5b0181905550700471649d87199aa990756fffffffffffff6001604c6080811062000ef2577f4e487b7100000000000000000000000000000000000000000000000000000000600052603260045260246000fd5b01819055507004429a21a029d4c1457cfbffffffffffff6001604d6080811062000f45577f4e487b7100000000000000000000000000000000000000000000000000000000600052603260045260246000fd5b0181905550700415bc6d6fb7dd71af2cb3ffffffffffff6001604e6080811062000f98577f4e487b7100000000000000000000000000000000000000000000000000000000600052603260045260246000fd5b01819055507003eab73b3bbfe282243ce1ffffffffffff6001604f6080811062000feb577f4e487b7100000000000000000000000000000000000000000000000000000000600052603260045260246000fd5b01819055507003c1771ac9fb6b4c18e229ffffffffffff60016050608081106200103e577f4e487b7100000000000000000000000000000000000000000000000000000000600052603260045260246000fd5b0181905550700399e96897690418f785257fffffffffff600160516080811062001091577f4e487b7100000000000000000000000000000000000000000000000000000000600052603260045260246000fd5b0181905550700373fc456c53bb779bf0ea9fffffffffff6001605260808110620010e4577f4e487b7100000000000000000000000000000000000000000000000000000000600052603260045260246000fd5b018190555070034f9e8e490c48e67e6ab8bfffffffffff600160536080811062001137577f4e487b7100000000000000000000000000000000000000000000000000000000600052603260045260246000fd5b018190555070032cbfd4a7adc790560b3337ffffffffff60016054608081106200118a577f4e487b7100000000000000000000000000000000000000000000000000000000600052603260045260246000fd5b018190555070030b50570f6e5d2acca94613ffffffffff6001605560808110620011dd577f4e487b7100000000000000000000000000000000000000000000000000000000600052603260045260246000fd5b01819055507002eb40f9f620fda6b56c2861ffffffffff600160566080811062001230577f4e487b7100000000000000000000000000000000000000000000000000000000600052603260045260246000fd5b01819055507002cc8340ecb0d0f520a6af58ffffffffff600160576080811062001283577f4e487b7100000000000000000000000000000000000000000000000000000000600052603260045260246000fd5b01819055507002af09481380a0a35cf1ba02ffffffffff6001605860808110620012d6577f4e487b7100000000000000000000000000000000000000000000000000000000600052603260045260246000fd5b0181905550700292c5bdd3b92ec810287b1b3fffffffff600160596080811062001329577f4e487b7100000000000000000000000000000000000000000000000000000000600052603260045260246000fd5b0181905550700277abdcdab07d5a77ac6d6b9fffffffff6001605a608081106200137c577f4e487b7100000000000000000000000000000000000000000000000000000000600052603260045260246000fd5b018190555070025daf6654b1eaa55fd64df5efffffffff6001605b60808110620013cf577f4e487b7100000000000000000000000000000000000000000000000000000000600052603260045260246000fd5b0181905550700244c49c648baa98192dce88b7ffffffff6001605c6080811062001422577f4e487b7100000000000000000000000000000000000000000000000000000000600052603260045260246000fd5b018190555070022ce03cd5619a311b2471268bffffffff6001605d6080811062001475577f4e487b7100000000000000000000000000000000000000000000000000000000600052603260045260246000fd5b0181905550700215f77c045fbe885654a44a0fffffffff6001605e60808110620014c8577f4e487b7100000000000000000000000000000000000000000000000000000000600052603260045260246000fd5b01819055507001ffffffffffffffffffffffffffffffff6001605f608081106200151b577f4e487b7100000000000000000000000000000000000000000000000000000000600052603260045260246000fd5b01819055507001eaefdbdaaee7421fc4d3ede5ffffffff60016060608081106200156e577f4e487b7100000000000000000000000000000000000000000000000000000000600052603260045260246000fd5b01819055507001d6bd8b2eb257df7e8ca57b09bfffffff6001606160808110620015c1577f4e487b7100000000000000000000000000000000000000000000000000000000600052603260045260246000fd5b01819055507001c35fedd14b861eb0443f7f133fffffff600160626080811062001614577f4e487b7100000000000000000000000000000000000000000000000000000000600052603260045260246000fd5b01819055507001b0ce43b322bcde4a56e8ada5afffffff600160636080811062001667577f4e487b7100000000000000000000000000000000000000000000000000000000600052603260045260246000fd5b018190555070019f0028ec1fff007f5a195a39dfffffff6001606460808110620016ba577f4e487b7100000000000000000000000000000000000000000000000000000000600052603260045260246000fd5b018190555070018ded91f0e72ee74f49b15ba527ffffff60016065608081106200170d577f4e487b7100000000000000000000000000000000000000000000000000000000600052603260045260246000fd5b018190555070017d8ec7f04136f4e5615fd41a63ffffff600160666080811062001760577f4e487b7100000000000000000000000000000000000000000000000000000000600052603260045260246000fd5b018190555070016ddc6556cdb84bdc8d12d22e6fffffff6001606760808110620017b3577f4e487b7100000000000000000000000000000000000000000000000000000000600052603260045260246000fd5b018190555070015ecf52776a1155b5bd8395814f7fffff600160686080811062001806577f4e487b7100000000000000000000000000000000000000000000000000000000600052603260045260246000fd5b018190555070015060c256cb23b3b3cc3754cf40ffffff600160696080811062001859577f4e487b7100000000000000000000000000000000000000000000000000000000600052603260045260246000fd5b01819055507001428a2f98d728ae223ddab715be3fffff6001606a60808110620018ac577f4e487b7100000000000000000000000000000000000000000000000000000000600052603260045260246000fd5b018190555070013545598e5c23276ccf0ede68034fffff6001606b60808110620018ff577f4e487b7100000000000000000000000000000000000000000000000000000000600052603260045260246000fd5b01819055507001288c4161ce1d6f54b7f61081194fffff6001606c6080811062001952577f4e487b7100000000000000000000000000000000000000000000000000000000600052603260045260246000fd5b018190555070011c592761c666aa641d5a01a40f17ffff6001606d60808110620019a5577f4e487b7100000000000000000000000000000000000000000000000000000000600052603260045260246000fd5b0181905550700110a688680a7530515f3e6e6cfdcdffff6001606e60808110620019f8577f4e487b7100000000000000000000000000000000000000000000000000000000600052603260045260246000fd5b01819055507001056f1b5bedf75c6bcb2ce8aed428ffff6001606f6080811062001a4b577f4e487b7100000000000000000000000000000000000000000000000000000000600052603260045260246000fd5b01819055506ffaadceceeff8a0890f3875f008277fff600160706080811062001a9d577f4e487b7100000000000000000000000000000000000000000000000000000000600052603260045260246000fd5b01819055506ff05dc6b27edad306388a600f6ba0bfff600160716080811062001aef577f4e487b7100000000000000000000000000000000000000000000000000000000600052603260045260246000fd5b01819055506fe67a5a25da41063de1495d5b18cdbfff600160726080811062001b41577f4e487b7100000000000000000000000000000000000000000000000000000000600052603260045260246000fd5b01819055506fdcff115b14eedde6fc3aa5353f2e4fff600160736080811062001b93577f4e487b7100000000000000000000000000000000000000000000000000000000600052603260045260246000fd5b01819055506fd3e7a3924312399f9aae2e0f868f8fff600160746080811062001be5577f4e487b7100000000000000000000000000000000000000000000000000000000600052603260045260246000fd5b01819055506fcb2ff529eb71e41582cccd5a1ee26fff600160756080811062001c37577f4e487b7100000000000000000000000000000000000000000000000000000000600052603260045260246000fd5b01819055506fc2d415c3db974ab32a51840c0b67edff600160766080811062001c89577f4e487b7100000000000000000000000000000000000000000000000000000000600052603260045260246000fd5b01819055506fbad03e7d883f69ad5b0a186184e06bff600160776080811062001cdb577f4e487b7100000000000000000000000000000000000000000000000000000000600052603260045260246000fd5b01819055506fb320d03b2c343d4829abd6075f0cc5ff600160786080811062001d2d577f4e487b7100000000000000000000000000000000000000000000000000000000600052603260045260246000fd5b01819055506fabc25204e02828d73c6e80bcdb1a95bf600160796080811062001d7f577f4e487b7100000000000000000000000000000000000000000000000000000000600052603260045260246000fd5b01819055506fa4b16f74ee4bb2040a1ec6c15fbbf2df6001607a6080811062001dd1577f4e487b7100000000000000000000000000000000000000000000000000000000600052603260045260246000fd5b01819055506f9deaf736ac1f569deb1b5ae3f36c130f6001607b6080811062001e23577f4e487b7100000000000000000000000000000000000000000000000000000000600052603260045260246000fd5b01819055506f976bd9952c7aa957f5937d790ef650376001607c6080811062001e75577f4e487b7100000000000000000000000000000000000000000000000000000000600052603260045260246000fd5b01819055506f9131271922eaa6064b73a22d0bd4f2bf6001607d6080811062001ec7577f4e487b7100000000000000000000000000000000000000000000000000000000600052603260045260246000fd5b01819055506f8b380f3558668c46c91c49a2f8e967b96001607e6080811062001f19577f4e487b7100000000000000000000000000000000000000000000000000000000600052603260045260246000fd5b01819055506f857ddf0117efa215952912839f6473e66001607f6080811062001f6b577f4e487b7100000000000000000000000000000000000000000000000000000000600052603260045260246000fd5b0181905550620f4240608160006101000a81548163ffffffff021916908363ffffffff160217905550620020af565b82805462001fa8906200204a565b90600052602060002090601f01602090048101928262001fcc576000855562002018565b82601f1062001fe757805160ff191683800117855562002018565b8280016001018555821562002018579182015b828111156200201757825182559160200191906001019062001ffa565b5b5090506200202791906200202b565b5090565b5b80821115620020465760008160009055506001016200202c565b5090565b600060028204905060018216806200206357607f821691505b602082108114156200207a576200207962002080565b5b50919050565b7f4e487b7100000000000000000000000000000000000000000000000000000000600052602260045260246000fd5b61254580620020bf6000396000f3fe608060405234801561001057600080fd5b506004361061004c5760003560e01c806329a00e7c1461005157806349f9b0f71461008157806354fd4d50146100b1578063e4a28a52146100cf575b600080fd5b61006b6004803603810190610066919061201d565b6100ed565b6040516100789190612159565b60405180910390f35b61009b6004803603810190610096919061201d565b61021f565b6040516100a89190612159565b60405180910390f35b6100b9610385565b6040516100c69190612117565b60405180910390f35b6100d7610413565b6040516100e49190612174565b60405180910390f35b600080851180156100fe5750600084115b8015610110575060008363ffffffff16115b801561013a5750608160009054906101000a900463ffffffff1663ffffffff168363ffffffff1611155b61014357600080fd5b60008214156101555760009050610217565b608160009054906101000a900463ffffffff1663ffffffff168363ffffffff1614156101a7576101a084610192848861042990919063ffffffff16565b61043f90919063ffffffff16565b9050610217565b60008060006101bf878661045590919063ffffffff16565b90506101df818888608160009054906101000a900463ffffffff1661046b565b809350819450505060008260ff16610200858b61042990919063ffffffff16565b901c9050888161021091906122f4565b9450505050505b949350505050565b600080851180156102305750600084115b8015610242575060008363ffffffff16115b801561026c5750608160009054906101000a900463ffffffff1663ffffffff168363ffffffff1611155b80156102785750848211155b61028157600080fd5b6000821415610293576000905061037d565b848214156102a35783905061037d565b608160009054906101000a900463ffffffff1663ffffffff168363ffffffff1614156102f5576102ee856102e0848761042990919063ffffffff16565b61043f90919063ffffffff16565b905061037d565b6000806000848861030691906122f4565b90506103268882608160009054906101000a900463ffffffff168961046b565b80935081945050506000610343848961042990919063ffffffff16565b905060008360ff1689901b90506103758561036783856105ec90919063ffffffff16565b61043f90919063ffffffff16565b955050505050505b949350505050565b60008054610392906123e0565b80601f01602080910402602001604051908101604052809291908181526020018280546103be906123e0565b801561040b5780601f106103e05761010080835404028352916020019161040b565b820191906000526020600020905b8154815290600101906020018083116103ee57829003601f168201915b505050505081565b608160009054906101000a900463ffffffff1681565b60008183610437919061229a565b905092915050565b6000818361044d9190612238565b905092915050565b6000818361046391906121ab565b905092915050565b60008070020000000000000000000000000000000086106104b5577f4e487b7100000000000000000000000000000000000000000000000000000000600052600160045260246000fd5b848610156104f8576040517f08c379a00000000000000000000000000000000000000000000000000000000081526004016104ef90612139565b60405180910390fd5b600080866f8000000000000000000000000000000089610518919061229a565b6105229190612238565b905070015bf0a8b1457695355fb8ac404e7a79e381101561054d5761054681610602565b9150610559565b61055681610d7b565b91505b60008563ffffffff168763ffffffff1684610574919061229a565b61057e9190612238565b90507008000000000000000000000000000000008110156105b0576105a281610edb565b607f945094505050506105e3565b60006105bb826116df565b90506105d981607f6105cd9190612328565b60ff1683901c82611859565b8195509550505050505b94509492505050565b600081836105fa91906122f4565b905092915050565b6000806000905060008060006fd3094c70f034de4b96ff7d5b6f99fcd8861061067d576f400000000000000000000000000000008461064191906121ab565b93506fd3094c70f034de4b96ff7d5b6f99fcd86f8000000000000000000000000000000087610670919061229a565b61067a9190612238565b95505b6fa45af1e1f40c333b3de1db4dd55f29a786106106ec576f20000000000000000000000000000000846106b091906121ab565b93506fa45af1e1f40c333b3de1db4dd55f29a76f80000000000000000000000000000000876106df919061229a565b6106e99190612238565b95505b6f910b022db7ae67ce76b441c27035c6a1861061075b576f100000000000000000000000000000008461071f91906121ab565b93506f910b022db7ae67ce76b441c27035c6a16f800000000000000000000000000000008761074e919061229a565b6107589190612238565b95505b6f88415abbe9a76bead8d00cf112e4d4a886106107ca576f080000000000000000000000000000008461078e91906121ab565b93506f88415abbe9a76bead8d00cf112e4d4a86f80000000000000000000000000000000876107bd919061229a565b6107c79190612238565b95505b6f84102b00893f64c705e841d5d4064bd38610610839576f04000000000000000000000000000000846107fd91906121ab565b93506f84102b00893f64c705e841d5d4064bd36f800000000000000000000000000000008761082c919061229a565b6108369190612238565b95505b6f8204055aaef1c8bd5c3259f4822735a286106108a8576f020000000000000000000000000000008461086c91906121ab565b93506f8204055aaef1c8bd5c3259f4822735a26f800000000000000000000000000000008761089b919061229a565b6108a59190612238565b95505b6f810100ab00222d861931c15e39b44e998610610917576f01000000000000000000000000000000846108db91906121ab565b93506f810100ab00222d861931c15e39b44e996f800000000000000000000000000000008761090a919061229a565b6109149190612238565b95505b6f808040155aabbbe9451521693554f7338610610985576e8000000000000000000000000000008461094991906121ab565b93506f808040155aabbbe9451521693554f7336f8000000000000000000000000000000087610978919061229a565b6109829190612238565b95505b6f80000000000000000000000000000000866109a191906122f4565b92508291506f8000000000000000000000000000000083846109c3919061229a565b6109cd9190612238565b9050700100000000000000000000000000000000837001000000000000000000000000000000006109fe91906122f4565b83610a09919061229a565b610a139190612238565b84610a1e91906121ab565b93506f800000000000000000000000000000008183610a3d919061229a565b610a479190612238565b9150700200000000000000000000000000000000836faaaaaaaaaaaaaaaaaaaaaaaaaaaaaaaa610a7791906122f4565b83610a82919061229a565b610a8c9190612238565b84610a9791906121ab565b93506f800000000000000000000000000000008183610ab6919061229a565b610ac09190612238565b9150700300000000000000000000000000000000836f99999999999999999999999999999999610af091906122f4565b83610afb919061229a565b610b059190612238565b84610b1091906121ab565b93506f800000000000000000000000000000008183610b2f919061229a565b610b399190612238565b9150700400000000000000000000000000000000836f92492492492492492492492492492492610b6991906122f4565b83610b74919061229a565b610b7e9190612238565b84610b8991906121ab565b93506f800000000000000000000000000000008183610ba8919061229a565b610bb29190612238565b9150700500000000000000000000000000000000836f8e38e38e38e38e38e38e38e38e38e38e610be291906122f4565b83610bed919061229a565b610bf79190612238565b84610c0291906121ab565b93506f800000000000000000000000000000008183610c21919061229a565b610c2b9190612238565b9150700600000000000000000000000000000000836f8ba2e8ba2e8ba2e8ba2e8ba2e8ba2e8b610c5b91906122f4565b83610c66919061229a565b610c709190612238565b84610c7b91906121ab565b93506f800000000000000000000000000000008183610c9a919061229a565b610ca49190612238565b9150700700000000000000000000000000000000836f89d89d89d89d89d89d89d89d89d89d89610cd491906122f4565b83610cdf919061229a565b610ce99190612238565b84610cf491906121ab565b93506f800000000000000000000000000000008183610d13919061229a565b610d1d9190612238565b9150700800000000000000000000000000000000836f88888888888888888888888888888888610d4d91906122f4565b83610d58919061229a565b610d629190612238565b84610d6d91906121ab565b935083945050505050919050565b6000806000905060008390507001000000000000000000000000000000008110610df3576000610dc56f8000000000000000000000000000000083610dc09190612238565b611f68565b90508060ff1682901c91506f800000000000000000000000000000008160ff16610def919061229a565b9250505b6f80000000000000000000000000000000811115610e9b576000607f90505b60008160ff161115610e99576f800000000000000000000000000000008283610e3b919061229a565b610e459190612238565b91507001000000000000000000000000000000008210610e8857600182901c9150600181610e739190612328565b60ff166001901b83610e8591906121ab565b92505b80610e92906123b6565b9050610e12565b505b6f05b9de1d10bf4103d647b0955897ba806f03f80fe03f80fe03f80fe03f80fe03f883610ec8919061229a565b610ed29190612238565b92505050919050565b600080600090506000806f1000000000000000000000000000000085610f019190612412565b91508190506f800000000000000000000000000000008282610f23919061229a565b610f2d9190612238565b90506710e1b3be415a000081610f43919061229a565b83610f4e91906121ab565b92506f800000000000000000000000000000008282610f6d919061229a565b610f779190612238565b90506705a0913f6b1e000081610f8d919061229a565b83610f9891906121ab565b92506f800000000000000000000000000000008282610fb7919061229a565b610fc19190612238565b9050670168244fdac7800081610fd7919061229a565b83610fe291906121ab565b92506f800000000000000000000000000000008282611001919061229a565b61100b9190612238565b9050664807432bc1800081611020919061229a565b8361102b91906121ab565b92506f80000000000000000000000000000000828261104a919061229a565b6110549190612238565b9050660c0135dca0400081611069919061229a565b8361107491906121ab565b92506f800000000000000000000000000000008282611093919061229a565b61109d9190612238565b90506601b707b1cdc000816110b2919061229a565b836110bd91906121ab565b92506f8000000000000000000000000000000082826110dc919061229a565b6110e69190612238565b90506536e0f639b800816110fa919061229a565b8361110591906121ab565b92506f800000000000000000000000000000008282611124919061229a565b61112e9190612238565b9050650618fee9f80081611142919061229a565b8361114d91906121ab565b92506f80000000000000000000000000000000828261116c919061229a565b6111769190612238565b9050649c197dcc0081611189919061229a565b8361119491906121ab565b92506f8000000000000000000000000000000082826111b3919061229a565b6111bd9190612238565b9050640e30dce400816111d0919061229a565b836111db91906121ab565b92506f8000000000000000000000000000000082826111fa919061229a565b6112049190612238565b905064012ebd130081611217919061229a565b8361122291906121ab565b92506f800000000000000000000000000000008282611241919061229a565b61124b9190612238565b90506317499f008161125d919061229a565b8361126891906121ab565b92506f800000000000000000000000000000008282611287919061229a565b6112919190612238565b90506301a9d480816112a3919061229a565b836112ae91906121ab565b92506f8000000000000000000000000000000082826112cd919061229a565b6112d79190612238565b9050621c6380816112e8919061229a565b836112f391906121ab565b92506f800000000000000000000000000000008282611312919061229a565b61131c9190612238565b90506201c6388161132d919061229a565b8361133891906121ab565b92506f800000000000000000000000000000008282611357919061229a565b6113619190612238565b9050611ab881611371919061229a565b8361137c91906121ab565b92506f80000000000000000000000000000000828261139b919061229a565b6113a59190612238565b905061017c816113b5919061229a565b836113c091906121ab565b92506f8000000000000000000000000000000082826113df919061229a565b6113e99190612238565b90506014816113f8919061229a565b8361140391906121ab565b92506f800000000000000000000000000000008282611422919061229a565b61142c9190612238565b905060018161143b919061229a565b8361144691906121ab565b92506f80000000000000000000000000000000826721c3677c82b400008561146e9190612238565b61147891906121ab565b61148291906121ab565b925060006f100000000000000000000000000000008616146114da5770018ebef9eac820ae8682b9793ac6d1e7767001c3d6a24ed82218787d624d3e5eba95f9846114cd919061229a565b6114d79190612238565b92505b60006f20000000000000000000000000000000861614611530577001368b2fc6f9609fe7aceb46aa619baed470018ebef9eac820ae8682b9793ac6d1e77884611523919061229a565b61152d9190612238565b92505b60006f40000000000000000000000000000000861614611585576fbc5ab1b16779be3575bd8f0520a9f21f7001368b2fc6f9609fe7aceb46aa619baed584611578919061229a565b6115829190612238565b92505b60006f800000000000000000000000000000008616146115d9576f454aaa8efe072e7f6ddbab84b40a55c96fbc5ab1b16779be3575bd8f0520a9f21e846115cc919061229a565b6115d69190612238565b92505b600070010000000000000000000000000000000086161461162e576f0960aadc109e7a3bf4578099615711ea6f454aaa8efe072e7f6ddbab84b40a55c584611621919061229a565b61162b9190612238565b92505b6000700200000000000000000000000000000000861614611682576e2bf84208204f5977f9a8cf01fdce3d6f0960aadc109e7a3bf4578099615711d784611675919061229a565b61167f9190612238565b92505b60007004000000000000000000000000000000008616146116d4576d03c6ab775dd0b95b4cbee7e65d116e2bf84208204f5977f9a8cf01fdc307846116c7919061229a565b6116d19190612238565b92505b829350505050919050565b600080602090506000607f90505b8060ff166001836116fe9190612201565b60ff16101561177a576000600282846117179190612201565b6117219190612269565b90508460018260ff1660808110611761577f4e487b7100000000000000000000000000000000000000000000000000000000600052603260045260246000fd5b01541061177057809250611774565b8091505b506116ed565b8360018260ff16608081106117b8577f4e487b7100000000000000000000000000000000000000000000000000000000600052603260045260246000fd5b0154106117c9578092505050611854565b8360018360ff1660808110611807577f4e487b7100000000000000000000000000000000000000000000000000000000600052603260045260246000fd5b015410611818578192505050611854565b600061184d577f4e487b7100000000000000000000000000000000000000000000000000000000600052600160045260246000fd5b6000925050505b919050565b60008083905060008360ff168583611871919061229a565b901c91506f03442c4e6074a82f1797f72ac000000082611891919061229a565b8161189c91906121ab565b90508360ff1685836118ae919061229a565b901c91506f0116b96f757c380fb287fd0e40000000826118ce919061229a565b816118d991906121ab565b90508360ff1685836118eb919061229a565b901c91506e45ae5bdd5f0e03eca1ff43900000008261190a919061229a565b8161191591906121ab565b90508360ff168583611927919061229a565b901c91506e0defabf91302cd95b9ffda5000000082611946919061229a565b8161195191906121ab565b90508360ff168583611963919061229a565b901c91506e02529ca9832b22439efff9b800000082611982919061229a565b8161198d91906121ab565b90508360ff16858361199f919061229a565b901c91506d54f1cf12bd04e516b6da88000000826119bd919061229a565b816119c891906121ab565b90508360ff1685836119da919061229a565b901c91506d0a9e39e257a09ca2d6db51000000826119f8919061229a565b81611a0391906121ab565b90508360ff168583611a15919061229a565b901c91506d012e066e7b839fa050c30900000082611a33919061229a565b81611a3e91906121ab565b90508360ff168583611a50919061229a565b901c91506c1e33d7d926c329a1ad1a80000082611a6d919061229a565b81611a7891906121ab565b90508360ff168583611a8a919061229a565b901c91506c02bee513bdb4a6b19b5f80000082611aa7919061229a565b81611ab291906121ab565b90508360ff168583611ac4919061229a565b901c91506b3a9316fa79b88eccf2a0000082611ae0919061229a565b81611aeb91906121ab565b90508360ff168583611afd919061229a565b901c91506b048177ebe1fa81237520000082611b19919061229a565b81611b2491906121ab565b90508360ff168583611b36919061229a565b901c91506a5263fe90242dcbacf0000082611b51919061229a565b81611b5c91906121ab565b90508360ff168583611b6e919061229a565b901c91506a057e22099c030d9410000082611b89919061229a565b81611b9491906121ab565b90508360ff168583611ba6919061229a565b901c91506957e22099c030d941000082611bc0919061229a565b81611bcb91906121ab565b90508360ff168583611bdd919061229a565b901c915069052b6b5456997631000082611bf7919061229a565b81611c0291906121ab565b90508360ff168583611c14919061229a565b901c9150684985f67696bf74800082611c2d919061229a565b81611c3891906121ab565b90508360ff168583611c4a919061229a565b901c91506803dea12ea99e49800082611c63919061229a565b81611c6e91906121ab565b90508360ff168583611c80919061229a565b901c91506731880f2214b6e00082611c98919061229a565b81611ca391906121ab565b90508360ff168583611cb5919061229a565b901c915067025bcff56eb3600082611ccd919061229a565b81611cd891906121ab565b90508360ff168583611cea919061229a565b901c9150661b722e10ab100082611d01919061229a565b81611d0c91906121ab565b90508360ff168583611d1e919061229a565b901c91506601317c7007700082611d35919061229a565b81611d4091906121ab565b90508360ff168583611d52919061229a565b901c9150650cba84aafa0082611d68919061229a565b81611d7391906121ab565b90508360ff168583611d85919061229a565b901c91506482573a0a0082611d9a919061229a565b81611da591906121ab565b90508360ff168583611db7919061229a565b901c91506405035ad90082611dcc919061229a565b81611dd791906121ab565b90508360ff168583611de9919061229a565b901c9150632f881b0082611dfd919061229a565b81611e0891906121ab565b90508360ff168583611e1a919061229a565b901c91506301b2934082611e2e919061229a565b81611e3991906121ab565b90508360ff168583611e4b919061229a565b901c9150620efc4082611e5e919061229a565b81611e6991906121ab565b90508360ff168583611e7b919061229a565b901c9150617fe082611e8d919061229a565b81611e9891906121ab565b90508360ff168583611eaa919061229a565b901c915061042082611ebc919061229a565b81611ec791906121ab565b90508360ff168583611ed9919061229a565b901c9150602182611eea919061229a565b81611ef591906121ab565b90508360ff168583611f07919061229a565b901c9150600182611f18919061229a565b81611f2391906121ab565b90508360ff166001901b856f0688589cc0e9505e2f2fee558000000083611f4a9190612238565b611f5491906121ab565b611f5e91906121ab565b9250505092915050565b600080600090506000839050610100811015611fa8575b6001811115611fa357600181901c9050600182611f9c9190612201565b9150611f7f565b611fe9565b6000608090505b60008160ff161115611fe7578060ff166001901b8210611fd8578060ff1682901c915080831792505b60018160ff16901c9050611faf565b505b8192505050919050565b600081359050612002816124e1565b92915050565b600081359050612017816124f8565b92915050565b6000806000806080858703121561203357600080fd5b600061204187828801611ff3565b945050602061205287828801611ff3565b935050604061206387828801612008565b925050606061207487828801611ff3565b91505092959194509250565b600061208b8261218f565b612095818561219a565b93506120a5818560208601612383565b6120ae816124d0565b840191505092915050565b60006120c6601c8361219a565b91507f4261736573203c203120617265206e6f7420737570706f727465642e000000006000830152602082019050919050565b6121028161235c565b82525050565b61211181612366565b82525050565b600060208201905081810360008301526121318184612080565b905092915050565b60006020820190508181036000830152612152816120b9565b9050919050565b600060208201905061216e60008301846120f9565b92915050565b60006020820190506121896000830184612108565b92915050565b600081519050919050565b600082825260208201905092915050565b60006121b68261235c565b91506121c18361235c565b9250827fffffffffffffffffffffffffffffffffffffffffffffffffffffffffffffffff038211156121f6576121f5612443565b5b828201905092915050565b600061220c82612376565b915061221783612376565b92508260ff0382111561222d5761222c612443565b5b828201905092915050565b60006122438261235c565b915061224e8361235c565b92508261225e5761225d612472565b5b828204905092915050565b600061227482612376565b915061227f83612376565b92508261228f5761228e612472565b5b828204905092915050565b60006122a58261235c565b91506122b08361235c565b9250817fffffffffffffffffffffffffffffffffffffffffffffffffffffffffffffffff04831182151516156122e9576122e8612443565b5b828202905092915050565b60006122ff8261235c565b915061230a8361235c565b92508282101561231d5761231c612443565b5b828203905092915050565b600061233382612376565b915061233e83612376565b92508282101561235157612350612443565b5b828203905092915050565b6000819050919050565b600063ffffffff82169050919050565b600060ff82169050919050565b60005b838110156123a1578082015181840152602081019050612386565b838111156123b0576000848401525b50505050565b60006123c182612376565b915060008214156123d5576123d4612443565b5b600182039050919050565b600060028204905060018216806123f857607f821691505b6020821081141561240c5761240b6124a1565b5b50919050565b600061241d8261235c565b91506124288361235c565b92508261243857612437612472565b5b828206905092915050565b7f4e487b7100000000000000000000000000000000000000000000000000000000600052601160045260246000fd5b7f4e487b7100000000000000000000000000000000000000000000000000000000600052601260045260246000fd5b7f4e487b7100000000000000000000000000000000000000000000000000000000600052602260045260246000fd5b6000601f19601f8301169050919050565b6124ea8161235c565b81146124f557600080fd5b50565b61250181612366565b811461250c57600080fd5b5056fea264697066735822122061c99d1bd210980966304dc3a7e9b477f5f8cde73b828994362f99dd574193e864736f6c63430008000033",
  "linkReferences": {},
  "deployedLinkReferences": {}
}